{
	"Product Tracker Smart Contract/ProductTracker.sol": {
		"ProductTracker": {
			"abi": [
				{
					"inputs": [],
					"name": "AccessControlBadConfirmation",
					"type": "error"
				},
				{
					"inputs": [
						{
							"internalType": "address",
							"name": "account",
							"type": "address"
						},
						{
							"internalType": "bytes32",
							"name": "neededRole",
							"type": "bytes32"
						}
					],
					"name": "AccessControlUnauthorizedAccount",
					"type": "error"
				},
				{
					"inputs": [
						{
							"internalType": "address",
							"name": "owner",
							"type": "address"
						}
					],
					"name": "OwnableInvalidOwner",
					"type": "error"
				},
				{
					"inputs": [
						{
							"internalType": "address",
							"name": "account",
							"type": "address"
						}
					],
					"name": "OwnableUnauthorizedAccount",
					"type": "error"
				},
				{
					"anonymous": false,
					"inputs": [
						{
							"indexed": false,
							"internalType": "string",
							"name": "location",
							"type": "string"
						},
						{
							"indexed": false,
							"internalType": "string",
							"name": "custodian",
							"type": "string"
						},
						{
							"indexed": false,
							"internalType": "uint256",
							"name": "time",
							"type": "uint256"
						},
						{
							"indexed": false,
							"internalType": "uint256",
							"name": "index",
							"type": "uint256"
						},
						{
							"indexed": false,
							"internalType": "bool",
							"name": "arrivalStatus",
							"type": "bool"
						}
					],
					"name": "Departed",
					"type": "event"
				},
				{
					"anonymous": false,
					"inputs": [
						{
							"indexed": true,
							"internalType": "address",
							"name": "previousOwner",
							"type": "address"
						},
						{
							"indexed": true,
							"internalType": "address",
							"name": "newOwner",
							"type": "address"
						}
					],
					"name": "OwnershipTransferred",
					"type": "event"
				},
				{
					"anonymous": false,
					"inputs": [
						{
							"indexed": true,
							"internalType": "uint256",
							"name": "productId",
							"type": "uint256"
						},
						{
							"indexed": false,
							"internalType": "string",
							"name": "productType",
							"type": "string"
						},
						{
							"indexed": false,
							"internalType": "string",
							"name": "brandName",
							"type": "string"
						},
						{
							"indexed": false,
							"internalType": "string",
							"name": "productName",
							"type": "string"
						},
						{
							"indexed": false,
							"internalType": "string[]",
							"name": "materials",
							"type": "string[]"
						},
						{
							"indexed": false,
							"internalType": "string[]",
							"name": "certificates",
							"type": "string[]"
						},
						{
							"indexed": false,
							"internalType": "uint256",
							"name": "quantity",
							"type": "uint256"
						},
						{
							"components": [
								{
									"internalType": "string",
									"name": "name",
									"type": "string"
								},
								{
									"internalType": "string",
									"name": "custodian",
									"type": "string"
								},
								{
									"internalType": "uint256",
									"name": "departure",
									"type": "uint256"
								},
								{
									"internalType": "bool",
									"name": "shipped",
									"type": "bool"
								},
								{
									"internalType": "bool",
									"name": "arrived",
									"type": "bool"
								},
								{
									"internalType": "uint256",
									"name": "arrival",
									"type": "uint256"
								}
							],
							"indexed": false,
							"internalType": "struct ProductTracker.Location",
							"name": "location",
							"type": "tuple"
						}
					],
					"name": "ProductGenerated",
					"type": "event"
				},
				{
					"anonymous": false,
					"inputs": [
						{
							"indexed": true,
							"internalType": "bytes32",
							"name": "role",
							"type": "bytes32"
						},
						{
							"indexed": true,
							"internalType": "bytes32",
							"name": "previousAdminRole",
							"type": "bytes32"
						},
						{
							"indexed": true,
							"internalType": "bytes32",
							"name": "newAdminRole",
							"type": "bytes32"
						}
					],
					"name": "RoleAdminChanged",
					"type": "event"
				},
				{
					"anonymous": false,
					"inputs": [
						{
							"indexed": true,
							"internalType": "bytes32",
							"name": "role",
							"type": "bytes32"
						},
						{
							"indexed": true,
							"internalType": "address",
							"name": "account",
							"type": "address"
						},
						{
							"indexed": true,
							"internalType": "address",
							"name": "sender",
							"type": "address"
						}
					],
					"name": "RoleGranted",
					"type": "event"
				},
				{
					"anonymous": false,
					"inputs": [
						{
							"indexed": true,
							"internalType": "bytes32",
							"name": "role",
							"type": "bytes32"
						},
						{
							"indexed": true,
							"internalType": "address",
							"name": "account",
							"type": "address"
						},
						{
							"indexed": true,
							"internalType": "address",
							"name": "sender",
							"type": "address"
						}
					],
					"name": "RoleRevoked",
					"type": "event"
				},
				{
					"inputs": [],
					"name": "AUTHORIZED_ROLE",
					"outputs": [
						{
							"internalType": "bytes32",
							"name": "",
							"type": "bytes32"
						}
					],
					"stateMutability": "view",
					"type": "function"
				},
				{
					"inputs": [],
					"name": "DEFAULT_ADMIN_ROLE",
					"outputs": [
						{
							"internalType": "bytes32",
							"name": "",
							"type": "bytes32"
						}
					],
					"stateMutability": "view",
					"type": "function"
				},
				{
					"inputs": [
						{
							"internalType": "string",
							"name": "_productType",
							"type": "string"
						},
						{
							"internalType": "string",
							"name": "_productName",
							"type": "string"
						},
						{
							"internalType": "string",
							"name": "_brandName",
							"type": "string"
						},
						{
							"internalType": "string[]",
							"name": "_materials",
							"type": "string[]"
						},
						{
							"internalType": "string[]",
							"name": "_certificates",
							"type": "string[]"
						},
						{
							"internalType": "uint256",
							"name": "_quantity",
							"type": "uint256"
						},
						{
							"internalType": "string",
							"name": "_locationName",
							"type": "string"
						},
						{
							"internalType": "string",
							"name": "_custodian",
							"type": "string"
						},
						{
							"internalType": "bool",
							"name": "_shipped",
							"type": "bool"
						}
					],
					"name": "GenerateProduct",
					"outputs": [],
					"stateMutability": "nonpayable",
					"type": "function"
				},
				{
					"inputs": [
						{
							"internalType": "bytes32",
							"name": "role",
							"type": "bytes32"
						}
					],
					"name": "getRoleAdmin",
					"outputs": [
						{
							"internalType": "bytes32",
							"name": "",
							"type": "bytes32"
						}
					],
					"stateMutability": "view",
					"type": "function"
				},
				{
					"inputs": [
						{
							"internalType": "address",
							"name": "_userAddress",
							"type": "address"
						}
					],
					"name": "grantAuthorization",
					"outputs": [],
					"stateMutability": "nonpayable",
					"type": "function"
				},
				{
					"inputs": [
						{
							"internalType": "bytes32",
							"name": "role",
							"type": "bytes32"
						},
						{
							"internalType": "address",
							"name": "account",
							"type": "address"
						}
					],
					"name": "grantRole",
					"outputs": [],
					"stateMutability": "nonpayable",
					"type": "function"
				},
				{
					"inputs": [
						{
							"internalType": "bytes32",
							"name": "role",
							"type": "bytes32"
						},
						{
							"internalType": "address",
							"name": "account",
							"type": "address"
						}
					],
					"name": "hasRole",
					"outputs": [
						{
							"internalType": "bool",
							"name": "",
							"type": "bool"
						}
					],
					"stateMutability": "view",
					"type": "function"
				},
				{
					"inputs": [
						{
							"internalType": "uint256",
							"name": "_productId",
							"type": "uint256"
						},
						{
							"internalType": "string",
							"name": "_locationName",
							"type": "string"
						}
					],
					"name": "initalizeShipment",
					"outputs": [],
					"stateMutability": "nonpayable",
					"type": "function"
				},
				{
					"inputs": [],
					"name": "owner",
					"outputs": [
						{
							"internalType": "address",
							"name": "",
							"type": "address"
						}
					],
					"stateMutability": "view",
					"type": "function"
				},
				{
					"inputs": [
						{
							"internalType": "uint256",
							"name": "",
							"type": "uint256"
						}
					],
					"name": "products",
					"outputs": [
						{
							"internalType": "uint256",
							"name": "productId",
							"type": "uint256"
						},
						{
							"internalType": "string",
							"name": "productType",
							"type": "string"
						},
						{
							"internalType": "string",
							"name": "brandName",
							"type": "string"
						},
						{
							"internalType": "string",
							"name": "productName",
							"type": "string"
						},
						{
							"internalType": "uint256",
							"name": "quantity",
							"type": "uint256"
						},
						{
							"components": [
								{
									"internalType": "string",
									"name": "name",
									"type": "string"
								},
								{
									"internalType": "string",
									"name": "custodian",
									"type": "string"
								},
								{
									"internalType": "uint256",
									"name": "departure",
									"type": "uint256"
								},
								{
									"internalType": "bool",
									"name": "shipped",
									"type": "bool"
								},
								{
									"internalType": "bool",
									"name": "arrived",
									"type": "bool"
								},
								{
									"internalType": "uint256",
									"name": "arrival",
									"type": "uint256"
								}
							],
							"internalType": "struct ProductTracker.Location",
							"name": "location",
							"type": "tuple"
						}
					],
					"stateMutability": "view",
					"type": "function"
				},
				{
					"inputs": [],
					"name": "renounceOwnership",
					"outputs": [],
					"stateMutability": "nonpayable",
					"type": "function"
				},
				{
					"inputs": [
						{
							"internalType": "bytes32",
							"name": "role",
							"type": "bytes32"
						},
						{
							"internalType": "address",
							"name": "callerConfirmation",
							"type": "address"
						}
					],
					"name": "renounceRole",
					"outputs": [],
					"stateMutability": "nonpayable",
					"type": "function"
				},
				{
					"inputs": [
						{
							"internalType": "address",
							"name": "_userAddress",
							"type": "address"
						}
					],
					"name": "revokeAuthorization",
					"outputs": [],
					"stateMutability": "nonpayable",
					"type": "function"
				},
				{
					"inputs": [
						{
							"internalType": "bytes32",
							"name": "role",
							"type": "bytes32"
						},
						{
							"internalType": "address",
							"name": "account",
							"type": "address"
						}
					],
					"name": "revokeRole",
					"outputs": [],
					"stateMutability": "nonpayable",
					"type": "function"
				},
				{
					"inputs": [
						{
							"internalType": "bytes4",
							"name": "interfaceId",
							"type": "bytes4"
						}
					],
					"name": "supportsInterface",
					"outputs": [
						{
							"internalType": "bool",
							"name": "",
							"type": "bool"
						}
					],
					"stateMutability": "view",
					"type": "function"
				},
				{
					"inputs": [
						{
							"internalType": "address",
							"name": "newOwner",
							"type": "address"
						}
					],
					"name": "transferOwnership",
					"outputs": [],
					"stateMutability": "nonpayable",
					"type": "function"
				}
			],
			"devdoc": {
				"errors": {
					"AccessControlBadConfirmation()": [
						{
							"details": "The caller of a function is not the expected one. NOTE: Don't confuse with {AccessControlUnauthorizedAccount}."
						}
					],
					"AccessControlUnauthorizedAccount(address,bytes32)": [
						{
							"details": "The `account` is missing a role."
						}
					],
					"OwnableInvalidOwner(address)": [
						{
							"details": "The owner is not a valid owner account. (eg. `address(0)`)"
						}
					],
					"OwnableUnauthorizedAccount(address)": [
						{
							"details": "The caller account is not authorized to perform an operation."
						}
					]
				},
				"events": {
					"RoleAdminChanged(bytes32,bytes32,bytes32)": {
						"details": "Emitted when `newAdminRole` is set as ``role``'s admin role, replacing `previousAdminRole` `DEFAULT_ADMIN_ROLE` is the starting admin for all roles, despite {RoleAdminChanged} not being emitted signaling this."
					},
					"RoleGranted(bytes32,address,address)": {
						"details": "Emitted when `account` is granted `role`. `sender` is the account that originated the contract call, an admin role bearer except when using {AccessControl-_setupRole}."
					},
					"RoleRevoked(bytes32,address,address)": {
						"details": "Emitted when `account` is revoked `role`. `sender` is the account that originated the contract call:   - if using `revokeRole`, it is the admin role bearer   - if using `renounceRole`, it is the role bearer (i.e. `account`)"
					}
				},
				"kind": "dev",
				"methods": {
					"GenerateProduct(string,string,string,string[],string[],uint256,string,string,bool)": {
						"details": "Generates a new product with the given details. The function can only be called by authorized users. Requirements: - Caller must have the AUTHORIZED_ROLE. - Product type, name, brand name, materials and certificates should not be empty. - Quantity must be greater than zero.",
						"params": {
							"_brandName": "The brand name of the product.",
							"_certificates": "Array of certificates related to the product.",
							"_custodian": "Name of the custodian for this product.",
							"_locationName": "Optional location name where the product is initially stored.",
							"_materials": "Array of materials used in making the product.",
							"_productName": "The name of the product.",
							"_productType": "The type of product.",
							"_quantity": "Quantity of the product.",
							"_shipped": "Indicates if the product has been shipped or not."
						}
					},
					"getRoleAdmin(bytes32)": {
						"details": "Returns the admin role that controls `role`. See {grantRole} and {revokeRole}. To change a role's admin, use {_setRoleAdmin}."
					},
					"grantRole(bytes32,address)": {
						"details": "Grants `role` to `account`. If `account` had not been already granted `role`, emits a {RoleGranted} event. Requirements: - the caller must have ``role``'s admin role. May emit a {RoleGranted} event."
					},
					"hasRole(bytes32,address)": {
						"details": "Returns `true` if `account` has been granted `role`."
					},
					"initalizeShipment(uint256,string)": {
						"details": "Initializes the shipment status of a product. The function can only be called by authorized users. Requirements: - Caller must have the AUTHORIZED_ROLE. - Product should exist and not be out of stock. - Product should have been shipped before.",
						"params": {
							"_locationName": "The new location name where the product is stored.",
							"_productId": "The ID of the product to initialize shipment for."
						}
					},
					"owner()": {
						"details": "Returns the address of the current owner."
					},
					"renounceOwnership()": {
						"details": "Leaves the contract without owner. It will not be possible to call `onlyOwner` functions. Can only be called by the current owner. NOTE: Renouncing ownership will leave the contract without an owner, thereby disabling any functionality that is only available to the owner."
					},
					"renounceRole(bytes32,address)": {
						"details": "Revokes `role` from the calling account. Roles are often managed via {grantRole} and {revokeRole}: this function's purpose is to provide a mechanism for accounts to lose their privileges if they are compromised (such as when a trusted device is misplaced). If the calling account had been revoked `role`, emits a {RoleRevoked} event. Requirements: - the caller must be `callerConfirmation`. May emit a {RoleRevoked} event."
					},
					"revokeRole(bytes32,address)": {
						"details": "Revokes `role` from `account`. If `account` had been granted `role`, emits a {RoleRevoked} event. Requirements: - the caller must have ``role``'s admin role. May emit a {RoleRevoked} event."
					},
					"supportsInterface(bytes4)": {
						"details": "See {IERC165-supportsInterface}."
					},
					"transferOwnership(address)": {
						"details": "Transfers ownership of the contract to a new account (`newOwner`). Can only be called by the current owner."
					}
				},
				"title": "ProductTracker This contract allows tracking of products in a supply chain with various attributes and location details.",
				"version": 1
			},
			"evm": {
				"assembly": "    /* \"Product Tracker Smart Contract/ProductTracker.sol\":337:6329  contract ProductTracker is Ownable(msg.sender), AccessControl {... */\n  mstore(0x40, 0x80)\n  callvalue\n  dup1\n  iszero\n  tag_1\n  jumpi\n  0x00\n  dup1\n  revert\ntag_1:\n  pop\n    /* \"Product Tracker Smart Contract/ProductTracker.sol\":372:382  msg.sender */\n  caller\n    /* \"@openzeppelin/contracts/access/Ownable.sol\":1297:1298  0 */\n  0x00\n    /* \"@openzeppelin/contracts/access/Ownable.sol\":1273:1299  initialOwner == address(0) */\n  0xffffffffffffffffffffffffffffffffffffffff\n  and\n    /* \"@openzeppelin/contracts/access/Ownable.sol\":1273:1285  initialOwner */\n  dup2\n    /* \"@openzeppelin/contracts/access/Ownable.sol\":1273:1299  initialOwner == address(0) */\n  0xffffffffffffffffffffffffffffffffffffffff\n  and\n  sub\n    /* \"@openzeppelin/contracts/access/Ownable.sol\":1269:1364  if (initialOwner == address(0)) {... */\n  tag_4\n  jumpi\n    /* \"@openzeppelin/contracts/access/Ownable.sol\":1350:1351  0 */\n  0x00\n    /* \"@openzeppelin/contracts/access/Ownable.sol\":1322:1353  OwnableInvalidOwner(address(0)) */\n  mload(0x40)\n  0x1e4fbdf700000000000000000000000000000000000000000000000000000000\n  dup2\n  mstore\n  0x04\n  add\n  tag_5\n  swap2\n  swap1\n  tag_6\n  jump\t// in\ntag_5:\n  mload(0x40)\n  dup1\n  swap2\n  sub\n  swap1\n  revert\n    /* \"@openzeppelin/contracts/access/Ownable.sol\":1269:1364  if (initialOwner == address(0)) {... */\ntag_4:\n    /* \"@openzeppelin/contracts/access/Ownable.sol\":1373:1405  _transferOwnership(initialOwner) */\n  tag_7\n    /* \"@openzeppelin/contracts/access/Ownable.sol\":1392:1404  initialOwner */\n  dup2\n    /* \"@openzeppelin/contracts/access/Ownable.sol\":1373:1391  _transferOwnership */\n  shl(0x20, tag_8)\n    /* \"@openzeppelin/contracts/access/Ownable.sol\":1373:1405  _transferOwnership(initialOwner) */\n  0x20\n  shr\n  jump\t// in\ntag_7:\n    /* \"@openzeppelin/contracts/access/Ownable.sol\":1225:1412  constructor(address initialOwner) {... */\n  pop\n    /* \"Product Tracker Smart Contract/ProductTracker.sol\":337:6329  contract ProductTracker is Ownable(msg.sender), AccessControl {... */\n  jump(tag_9)\n    /* \"@openzeppelin/contracts/access/Ownable.sol\":2912:3099  function _transferOwnership(address newOwner) internal virtual {... */\ntag_8:\n    /* \"@openzeppelin/contracts/access/Ownable.sol\":2985:3001  address oldOwner */\n  0x00\n    /* \"@openzeppelin/contracts/access/Ownable.sol\":3004:3010  _owner */\n  dup1\n  0x00\n  swap1\n  sload\n  swap1\n  0x0100\n  exp\n  swap1\n  div\n  0xffffffffffffffffffffffffffffffffffffffff\n  and\n    /* \"@openzeppelin/contracts/access/Ownable.sol\":2985:3010  address oldOwner = _owner */\n  swap1\n  pop\n    /* \"@openzeppelin/contracts/access/Ownable.sol\":3029:3037  newOwner */\n  dup2\n    /* \"@openzeppelin/contracts/access/Ownable.sol\":3020:3026  _owner */\n  0x00\n  dup1\n    /* \"@openzeppelin/contracts/access/Ownable.sol\":3020:3037  _owner = newOwner */\n  0x0100\n  exp\n  dup2\n  sload\n  dup2\n  0xffffffffffffffffffffffffffffffffffffffff\n  mul\n  not\n  and\n  swap1\n  dup4\n  0xffffffffffffffffffffffffffffffffffffffff\n  and\n  mul\n  or\n  swap1\n  sstore\n  pop\n    /* \"@openzeppelin/contracts/access/Ownable.sol\":3083:3091  newOwner */\n  dup2\n    /* \"@openzeppelin/contracts/access/Ownable.sol\":3052:3092  OwnershipTransferred(oldOwner, newOwner) */\n  0xffffffffffffffffffffffffffffffffffffffff\n  and\n    /* \"@openzeppelin/contracts/access/Ownable.sol\":3073:3081  oldOwner */\n  dup2\n    /* \"@openzeppelin/contracts/access/Ownable.sol\":3052:3092  OwnershipTransferred(oldOwner, newOwner) */\n  0xffffffffffffffffffffffffffffffffffffffff\n  and\n  0x8be0079c531659141344cd1fd0a4f28419497f9722a3daafe3b4186f6b6457e0\n  mload(0x40)\n  mload(0x40)\n  dup1\n  swap2\n  sub\n  swap1\n  log3\n    /* \"@openzeppelin/contracts/access/Ownable.sol\":2975:3099  {... */\n  pop\n    /* \"@openzeppelin/contracts/access/Ownable.sol\":2912:3099  function _transferOwnership(address newOwner) internal virtual {... */\n  pop\n  jump\t// out\n    /* \"#utility.yul\":7:133   */\ntag_11:\n    /* \"#utility.yul\":44:51   */\n  0x00\n    /* \"#utility.yul\":84:126   */\n  0xffffffffffffffffffffffffffffffffffffffff\n    /* \"#utility.yul\":77:82   */\n  dup3\n    /* \"#utility.yul\":73:127   */\n  and\n    /* \"#utility.yul\":62:127   */\n  swap1\n  pop\n    /* \"#utility.yul\":7:133   */\n  swap2\n  swap1\n  pop\n  jump\t// out\n    /* \"#utility.yul\":139:235   */\ntag_12:\n    /* \"#utility.yul\":176:183   */\n  0x00\n    /* \"#utility.yul\":205:229   */\n  tag_17\n    /* \"#utility.yul\":223:228   */\n  dup3\n    /* \"#utility.yul\":205:229   */\n  tag_11\n  jump\t// in\ntag_17:\n    /* \"#utility.yul\":194:229   */\n  swap1\n  pop\n    /* \"#utility.yul\":139:235   */\n  swap2\n  swap1\n  pop\n  jump\t// out\n    /* \"#utility.yul\":241:359   */\ntag_13:\n    /* \"#utility.yul\":328:352   */\n  tag_19\n    /* \"#utility.yul\":346:351   */\n  dup2\n    /* \"#utility.yul\":328:352   */\n  tag_12\n  jump\t// in\ntag_19:\n    /* \"#utility.yul\":323:326   */\n  dup3\n    /* \"#utility.yul\":316:353   */\n  mstore\n    /* \"#utility.yul\":241:359   */\n  pop\n  pop\n  jump\t// out\n    /* \"#utility.yul\":365:587   */\ntag_6:\n    /* \"#utility.yul\":458:462   */\n  0x00\n    /* \"#utility.yul\":496:498   */\n  0x20\n    /* \"#utility.yul\":485:494   */\n  dup3\n    /* \"#utility.yul\":481:499   */\n  add\n    /* \"#utility.yul\":473:499   */\n  swap1\n  pop\n    /* \"#utility.yul\":509:580   */\n  tag_21\n    /* \"#utility.yul\":577:578   */\n  0x00\n    /* \"#utility.yul\":566:575   */\n  dup4\n    /* \"#utility.yul\":562:579   */\n  add\n    /* \"#utility.yul\":553:559   */\n  dup5\n    /* \"#utility.yul\":509:580   */\n  tag_13\n  jump\t// in\ntag_21:\n    /* \"#utility.yul\":365:587   */\n  swap3\n  swap2\n  pop\n  pop\n  jump\t// out\n    /* \"Product Tracker Smart Contract/ProductTracker.sol\":337:6329  contract ProductTracker is Ownable(msg.sender), AccessControl {... */\ntag_9:\n  dataSize(sub_0)\n  dup1\n  dataOffset(sub_0)\n  0x00\n  codecopy\n  0x00\n  return\nstop\n\nsub_0: assembly {\n        /* \"Product Tracker Smart Contract/ProductTracker.sol\":337:6329  contract ProductTracker is Ownable(msg.sender), AccessControl {... */\n      mstore(0x40, 0x80)\n      callvalue\n      dup1\n      iszero\n      tag_1\n      jumpi\n      0x00\n      dup1\n      revert\n    tag_1:\n      pop\n      jumpi(tag_2, lt(calldatasize, 0x04))\n      shr(0xe0, calldataload(0x00))\n      dup1\n      0x8f2fdb42\n      gt\n      tag_19\n      jumpi\n      dup1\n      0xb48028e3\n      gt\n      tag_20\n      jumpi\n      dup1\n      0xb48028e3\n      eq\n      tag_15\n      jumpi\n      dup1\n      0xd547741f\n      eq\n      tag_16\n      jumpi\n      dup1\n      0xf2fde38b\n      eq\n      tag_17\n      jumpi\n      dup1\n      0xf6468251\n      eq\n      tag_18\n      jumpi\n      jump(tag_2)\n    tag_20:\n      dup1\n      0x8f2fdb42\n      eq\n      tag_11\n      jumpi\n      dup1\n      0x91d14854\n      eq\n      tag_12\n      jumpi\n      dup1\n      0x9ed04f5d\n      eq\n      tag_13\n      jumpi\n      dup1\n      0xa217fddf\n      eq\n      tag_14\n      jumpi\n      jump(tag_2)\n    tag_19:\n      dup1\n      0x36568abe\n      gt\n      tag_21\n      jumpi\n      dup1\n      0x36568abe\n      eq\n      tag_7\n      jumpi\n      dup1\n      0x715018a6\n      eq\n      tag_8\n      jumpi\n      dup1\n      0x7acc0b20\n      eq\n      tag_9\n      jumpi\n      dup1\n      0x8da5cb5b\n      eq\n      tag_10\n      jumpi\n      jump(tag_2)\n    tag_21:\n      dup1\n      0x01ffc9a7\n      eq\n      tag_3\n      jumpi\n      dup1\n      0x21120f9a\n      eq\n      tag_4\n      jumpi\n      dup1\n      0x248a9ca3\n      eq\n      tag_5\n      jumpi\n      dup1\n      0x2f2ff15d\n      eq\n      tag_6\n      jumpi\n    tag_2:\n      0x00\n      dup1\n      revert\n        /* \"@openzeppelin/contracts/access/AccessControl.sol\":2565:2767  function supportsInterface(bytes4 interfaceId) public view virtual override returns (bool) {... */\n    tag_3:\n      tag_22\n      0x04\n      dup1\n      calldatasize\n      sub\n      dup2\n      add\n      swap1\n      tag_23\n      swap2\n      swap1\n      tag_24\n      jump\t// in\n    tag_23:\n      tag_25\n      jump\t// in\n    tag_22:\n      mload(0x40)\n      tag_26\n      swap2\n      swap1\n      tag_27\n      jump\t// in\n    tag_26:\n      mload(0x40)\n      dup1\n      swap2\n      sub\n      swap1\n      return\n        /* \"Product Tracker Smart Contract/ProductTracker.sol\":5770:6327  function initalizeShipment(uint256 _productId, string memory _locationName)... */\n    tag_4:\n      tag_28\n      0x04\n      dup1\n      calldatasize\n      sub\n      dup2\n      add\n      swap1\n      tag_29\n      swap2\n      swap1\n      tag_30\n      jump\t// in\n    tag_29:\n      tag_31\n      jump\t// in\n    tag_28:\n      stop\n        /* \"@openzeppelin/contracts/access/AccessControl.sol\":3810:3930  function getRoleAdmin(bytes32 role) public view virtual returns (bytes32) {... */\n    tag_5:\n      tag_32\n      0x04\n      dup1\n      calldatasize\n      sub\n      dup2\n      add\n      swap1\n      tag_33\n      swap2\n      swap1\n      tag_34\n      jump\t// in\n    tag_33:\n      tag_35\n      jump\t// in\n    tag_32:\n      mload(0x40)\n      tag_36\n      swap2\n      swap1\n      tag_37\n      jump\t// in\n    tag_36:\n      mload(0x40)\n      dup1\n      swap2\n      sub\n      swap1\n      return\n        /* \"@openzeppelin/contracts/access/AccessControl.sol\":4226:4362  function grantRole(bytes32 role, address account) public virtual onlyRole(getRoleAdmin(role)) {... */\n    tag_6:\n      tag_38\n      0x04\n      dup1\n      calldatasize\n      sub\n      dup2\n      add\n      swap1\n      tag_39\n      swap2\n      swap1\n      tag_40\n      jump\t// in\n    tag_39:\n      tag_41\n      jump\t// in\n    tag_38:\n      stop\n        /* \"@openzeppelin/contracts/access/AccessControl.sol\":5328:5573  function renounceRole(bytes32 role, address callerConfirmation) public virtual {... */\n    tag_7:\n      tag_42\n      0x04\n      dup1\n      calldatasize\n      sub\n      dup2\n      add\n      swap1\n      tag_43\n      swap2\n      swap1\n      tag_40\n      jump\t// in\n    tag_43:\n      tag_44\n      jump\t// in\n    tag_42:\n      stop\n        /* \"@openzeppelin/contracts/access/Ownable.sol\":2293:2394  function renounceOwnership() public virtual onlyOwner {... */\n    tag_8:\n      tag_45\n      tag_46\n      jump\t// in\n    tag_45:\n      stop\n        /* \"Product Tracker Smart Contract/ProductTracker.sol\":925:968  mapping(uint256 => Product) public products */\n    tag_9:\n      tag_47\n      0x04\n      dup1\n      calldatasize\n      sub\n      dup2\n      add\n      swap1\n      tag_48\n      swap2\n      swap1\n      tag_49\n      jump\t// in\n    tag_48:\n      tag_50\n      jump\t// in\n    tag_47:\n      mload(0x40)\n      tag_51\n      swap7\n      swap6\n      swap5\n      swap4\n      swap3\n      swap2\n      swap1\n      tag_52\n      jump\t// in\n    tag_51:\n      mload(0x40)\n      dup1\n      swap2\n      sub\n      swap1\n      return\n        /* \"@openzeppelin/contracts/access/Ownable.sol\":1638:1723  function owner() public view virtual returns (address) {... */\n    tag_10:\n      tag_53\n      tag_54\n      jump\t// in\n    tag_53:\n      mload(0x40)\n      tag_55\n      swap2\n      swap1\n      tag_56\n      jump\t// in\n    tag_55:\n      mload(0x40)\n      dup1\n      swap2\n      sub\n      swap1\n      return\n        /* \"Product Tracker Smart Contract/ProductTracker.sol\":2208:2333  function grantAuthorization(address _userAddress) public onlyOwner {... */\n    tag_11:\n      tag_57\n      0x04\n      dup1\n      calldatasize\n      sub\n      dup2\n      add\n      swap1\n      tag_58\n      swap2\n      swap1\n      tag_59\n      jump\t// in\n    tag_58:\n      tag_60\n      jump\t// in\n    tag_57:\n      stop\n        /* \"@openzeppelin/contracts/access/AccessControl.sol\":2854:2990  function hasRole(bytes32 role, address account) public view virtual returns (bool) {... */\n    tag_12:\n      tag_61\n      0x04\n      dup1\n      calldatasize\n      sub\n      dup2\n      add\n      swap1\n      tag_62\n      swap2\n      swap1\n      tag_40\n      jump\t// in\n    tag_62:\n      tag_63\n      jump\t// in\n    tag_61:\n      mload(0x40)\n      tag_64\n      swap2\n      swap1\n      tag_27\n      jump\t// in\n    tag_64:\n      mload(0x40)\n      dup1\n      swap2\n      sub\n      swap1\n      return\n        /* \"Product Tracker Smart Contract/ProductTracker.sol\":3502:5257  function GenerateProduct(... */\n    tag_13:\n      tag_65\n      0x04\n      dup1\n      calldatasize\n      sub\n      dup2\n      add\n      swap1\n      tag_66\n      swap2\n      swap1\n      tag_67\n      jump\t// in\n    tag_66:\n      tag_68\n      jump\t// in\n    tag_65:\n      stop\n        /* \"@openzeppelin/contracts/access/AccessControl.sol\":2187:2236  bytes32 public constant DEFAULT_ADMIN_ROLE = 0x00 */\n    tag_14:\n      tag_69\n      tag_70\n      jump\t// in\n    tag_69:\n      mload(0x40)\n      tag_71\n      swap2\n      swap1\n      tag_37\n      jump\t// in\n    tag_71:\n      mload(0x40)\n      dup1\n      swap2\n      sub\n      swap1\n      return\n        /* \"Product Tracker Smart Contract/ProductTracker.sol\":2339:2466  function revokeAuthorization(address _userAddress) public onlyOwner {... */\n    tag_15:\n      tag_72\n      0x04\n      dup1\n      calldatasize\n      sub\n      dup2\n      add\n      swap1\n      tag_73\n      swap2\n      swap1\n      tag_59\n      jump\t// in\n    tag_73:\n      tag_74\n      jump\t// in\n    tag_72:\n      stop\n        /* \"@openzeppelin/contracts/access/AccessControl.sol\":4642:4780  function revokeRole(bytes32 role, address account) public virtual onlyRole(getRoleAdmin(role)) {... */\n    tag_16:\n      tag_75\n      0x04\n      dup1\n      calldatasize\n      sub\n      dup2\n      add\n      swap1\n      tag_76\n      swap2\n      swap1\n      tag_40\n      jump\t// in\n    tag_76:\n      tag_77\n      jump\t// in\n    tag_75:\n      stop\n        /* \"@openzeppelin/contracts/access/Ownable.sol\":2543:2758  function transferOwnership(address newOwner) public virtual onlyOwner {... */\n    tag_17:\n      tag_78\n      0x04\n      dup1\n      calldatasize\n      sub\n      dup2\n      add\n      swap1\n      tag_79\n      swap2\n      swap1\n      tag_59\n      jump\t// in\n    tag_79:\n      tag_80\n      jump\t// in\n    tag_78:\n      stop\n        /* \"Product Tracker Smart Contract/ProductTracker.sol\":405:475  bytes32 public constant AUTHORIZED_ROLE = keccak256(\"AUTHORIZED_ROLE\") */\n    tag_18:\n      tag_81\n      tag_82\n      jump\t// in\n    tag_81:\n      mload(0x40)\n      tag_83\n      swap2\n      swap1\n      tag_37\n      jump\t// in\n    tag_83:\n      mload(0x40)\n      dup1\n      swap2\n      sub\n      swap1\n      return\n        /* \"@openzeppelin/contracts/access/AccessControl.sol\":2565:2767  function supportsInterface(bytes4 interfaceId) public view virtual override returns (bool) {... */\n    tag_25:\n        /* \"@openzeppelin/contracts/access/AccessControl.sol\":2650:2654  bool */\n      0x00\n        /* \"@openzeppelin/contracts/access/AccessControl.sol\":2688:2720  type(IAccessControl).interfaceId */\n      0x7965db0b00000000000000000000000000000000000000000000000000000000\n        /* \"@openzeppelin/contracts/access/AccessControl.sol\":2673:2720  interfaceId == type(IAccessControl).interfaceId */\n      not(0xffffffffffffffffffffffffffffffffffffffffffffffffffffffff)\n      and\n        /* \"@openzeppelin/contracts/access/AccessControl.sol\":2673:2684  interfaceId */\n      dup3\n        /* \"@openzeppelin/contracts/access/AccessControl.sol\":2673:2720  interfaceId == type(IAccessControl).interfaceId */\n      not(0xffffffffffffffffffffffffffffffffffffffffffffffffffffffff)\n      and\n      eq\n        /* \"@openzeppelin/contracts/access/AccessControl.sol\":2673:2760  interfaceId == type(IAccessControl).interfaceId || super.supportsInterface(interfaceId) */\n      dup1\n      tag_85\n      jumpi\n      pop\n        /* \"@openzeppelin/contracts/access/AccessControl.sol\":2724:2760  super.supportsInterface(interfaceId) */\n      tag_86\n        /* \"@openzeppelin/contracts/access/AccessControl.sol\":2748:2759  interfaceId */\n      dup3\n        /* \"@openzeppelin/contracts/access/AccessControl.sol\":2724:2747  super.supportsInterface */\n      tag_87\n        /* \"@openzeppelin/contracts/access/AccessControl.sol\":2724:2760  super.supportsInterface(interfaceId) */\n      jump\t// in\n    tag_86:\n        /* \"@openzeppelin/contracts/access/AccessControl.sol\":2673:2760  interfaceId == type(IAccessControl).interfaceId || super.supportsInterface(interfaceId) */\n    tag_85:\n        /* \"@openzeppelin/contracts/access/AccessControl.sol\":2666:2760  return interfaceId == type(IAccessControl).interfaceId || super.supportsInterface(interfaceId) */\n      swap1\n      pop\n        /* \"@openzeppelin/contracts/access/AccessControl.sol\":2565:2767  function supportsInterface(bytes4 interfaceId) public view virtual override returns (bool) {... */\n      swap2\n      swap1\n      pop\n      jump\t// out\n        /* \"Product Tracker Smart Contract/ProductTracker.sol\":5770:6327  function initalizeShipment(uint256 _productId, string memory _locationName)... */\n    tag_31:\n        /* \"Product Tracker Smart Contract/ProductTracker.sol\":5884:5894  _productId */\n      dup2\n        /* \"Product Tracker Smart Contract/ProductTracker.sol\":1702:1707  false */\n      0x00\n        /* \"Product Tracker Smart Contract/ProductTracker.sol\":1661:1707  products[_productId].location.shipped != false */\n      iszero\n      iszero\n        /* \"Product Tracker Smart Contract/ProductTracker.sol\":1661:1669  products */\n      0x02\n        /* \"Product Tracker Smart Contract/ProductTracker.sol\":1661:1681  products[_productId] */\n      0x00\n        /* \"Product Tracker Smart Contract/ProductTracker.sol\":1670:1680  _productId */\n      dup4\n        /* \"Product Tracker Smart Contract/ProductTracker.sol\":1661:1681  products[_productId] */\n      dup2\n      mstore\n      0x20\n      add\n      swap1\n      dup2\n      mstore\n      0x20\n      add\n      0x00\n      keccak256\n        /* \"Product Tracker Smart Contract/ProductTracker.sol\":1661:1690  products[_productId].location */\n      0x07\n      add\n        /* \"Product Tracker Smart Contract/ProductTracker.sol\":1661:1698  products[_productId].location.shipped */\n      0x03\n      add\n      0x00\n      swap1\n      sload\n      swap1\n      0x0100\n      exp\n      swap1\n      div\n      0xff\n      and\n        /* \"Product Tracker Smart Contract/ProductTracker.sol\":1661:1707  products[_productId].location.shipped != false */\n      iszero\n      iszero\n      sub\n        /* \"Product Tracker Smart Contract/ProductTracker.sol\":1640:1757  require(... */\n      tag_89\n      jumpi\n      mload(0x40)\n      0x08c379a000000000000000000000000000000000000000000000000000000000\n      dup2\n      mstore\n      0x04\n      add\n      tag_90\n      swap1\n      tag_91\n      jump\t// in\n    tag_90:\n      mload(0x40)\n      dup1\n      swap2\n      sub\n      swap1\n      revert\n    tag_89:\n        /* \"Product Tracker Smart Contract/ProductTracker.sol\":1822:1832  _productId */\n      dup1\n        /* \"Product Tracker Smart Contract/ProductTracker.sol\":1788:1796  products */\n      0x02\n        /* \"Product Tracker Smart Contract/ProductTracker.sol\":1788:1808  products[_productId] */\n      0x00\n        /* \"Product Tracker Smart Contract/ProductTracker.sol\":1797:1807  _productId */\n      dup4\n        /* \"Product Tracker Smart Contract/ProductTracker.sol\":1788:1808  products[_productId] */\n      dup2\n      mstore\n      0x20\n      add\n      swap1\n      dup2\n      mstore\n      0x20\n      add\n      0x00\n      keccak256\n        /* \"Product Tracker Smart Contract/ProductTracker.sol\":1788:1818  products[_productId].productId */\n      0x00\n      add\n      sload\n        /* \"Product Tracker Smart Contract/ProductTracker.sol\":1788:1832  products[_productId].productId == _productId */\n      eq\n        /* \"Product Tracker Smart Contract/ProductTracker.sol\":1767:1880  require(... */\n      tag_92\n      jumpi\n      mload(0x40)\n      0x08c379a000000000000000000000000000000000000000000000000000000000\n      dup2\n      mstore\n      0x04\n      add\n      tag_93\n      swap1\n      tag_94\n      jump\t// in\n    tag_93:\n      mload(0x40)\n      dup1\n      swap2\n      sub\n      swap1\n      revert\n    tag_92:\n        /* \"Product Tracker Smart Contract/ProductTracker.sol\":1931:1932  0 */\n      0x00\n        /* \"Product Tracker Smart Contract/ProductTracker.sol\":1898:1906  products */\n      0x02\n        /* \"Product Tracker Smart Contract/ProductTracker.sol\":1898:1918  products[_productId] */\n      0x00\n        /* \"Product Tracker Smart Contract/ProductTracker.sol\":1907:1917  _productId */\n      dup4\n        /* \"Product Tracker Smart Contract/ProductTracker.sol\":1898:1918  products[_productId] */\n      dup2\n      mstore\n      0x20\n      add\n      swap1\n      dup2\n      mstore\n      0x20\n      add\n      0x00\n      keccak256\n        /* \"Product Tracker Smart Contract/ProductTracker.sol\":1898:1927  products[_productId].quantity */\n      0x06\n      add\n      sload\n        /* \"Product Tracker Smart Contract/ProductTracker.sol\":1898:1932  products[_productId].quantity != 0 */\n      sub\n        /* \"Product Tracker Smart Contract/ProductTracker.sol\":1890:1960  require(products[_productId].quantity != 0, \"Product is out of stock\") */\n      tag_95\n      jumpi\n      mload(0x40)\n      0x08c379a000000000000000000000000000000000000000000000000000000000\n      dup2\n      mstore\n      0x04\n      add\n      tag_96\n      swap1\n      tag_97\n      jump\t// in\n    tag_96:\n      mload(0x40)\n      dup1\n      swap2\n      sub\n      swap1\n      revert\n    tag_95:\n        /* \"Product Tracker Smart Contract/ProductTracker.sol\":5947:5960  _locationName */\n      dup2\n        /* \"Product Tracker Smart Contract/ProductTracker.sol\":5910:5918  products */\n      0x02\n        /* \"Product Tracker Smart Contract/ProductTracker.sol\":5910:5930  products[_productId] */\n      0x00\n        /* \"Product Tracker Smart Contract/ProductTracker.sol\":5919:5929  _productId */\n      dup6\n        /* \"Product Tracker Smart Contract/ProductTracker.sol\":5910:5930  products[_productId] */\n      dup2\n      mstore\n      0x20\n      add\n      swap1\n      dup2\n      mstore\n      0x20\n      add\n      0x00\n      keccak256\n        /* \"Product Tracker Smart Contract/ProductTracker.sol\":5910:5939  products[_productId].location */\n      0x07\n      add\n        /* \"Product Tracker Smart Contract/ProductTracker.sol\":5910:5944  products[_productId].location.name */\n      0x00\n      add\n        /* \"Product Tracker Smart Contract/ProductTracker.sol\":5910:5960  products[_productId].location.name = _locationName */\n      swap1\n      dup2\n      tag_99\n      swap2\n      swap1\n      tag_100\n      jump\t// in\n    tag_99:\n      pop\n        /* \"Product Tracker Smart Contract/ProductTracker.sol\":6012:6027  block.timestamp */\n      timestamp\n        /* \"Product Tracker Smart Contract/ProductTracker.sol\":5970:5978  products */\n      0x02\n        /* \"Product Tracker Smart Contract/ProductTracker.sol\":5970:5990  products[_productId] */\n      0x00\n        /* \"Product Tracker Smart Contract/ProductTracker.sol\":5979:5989  _productId */\n      dup6\n        /* \"Product Tracker Smart Contract/ProductTracker.sol\":5970:5990  products[_productId] */\n      dup2\n      mstore\n      0x20\n      add\n      swap1\n      dup2\n      mstore\n      0x20\n      add\n      0x00\n      keccak256\n        /* \"Product Tracker Smart Contract/ProductTracker.sol\":5970:5999  products[_productId].location */\n      0x07\n      add\n        /* \"Product Tracker Smart Contract/ProductTracker.sol\":5970:6009  products[_productId].location.departure */\n      0x02\n      add\n        /* \"Product Tracker Smart Contract/ProductTracker.sol\":5970:6027  products[_productId].location.departure = block.timestamp */\n      dup2\n      swap1\n      sstore\n      pop\n        /* \"Product Tracker Smart Contract/ProductTracker.sol\":6077:6081  true */\n      0x01\n        /* \"Product Tracker Smart Contract/ProductTracker.sol\":6037:6045  products */\n      0x02\n        /* \"Product Tracker Smart Contract/ProductTracker.sol\":6037:6057  products[_productId] */\n      0x00\n        /* \"Product Tracker Smart Contract/ProductTracker.sol\":6046:6056  _productId */\n      dup6\n        /* \"Product Tracker Smart Contract/ProductTracker.sol\":6037:6057  products[_productId] */\n      dup2\n      mstore\n      0x20\n      add\n      swap1\n      dup2\n      mstore\n      0x20\n      add\n      0x00\n      keccak256\n        /* \"Product Tracker Smart Contract/ProductTracker.sol\":6037:6066  products[_productId].location */\n      0x07\n      add\n        /* \"Product Tracker Smart Contract/ProductTracker.sol\":6037:6074  products[_productId].location.shipped */\n      0x03\n      add\n      0x00\n        /* \"Product Tracker Smart Contract/ProductTracker.sol\":6037:6081  products[_productId].location.shipped = true */\n      0x0100\n      exp\n      dup2\n      sload\n      dup2\n      0xff\n      mul\n      not\n      and\n      swap1\n      dup4\n      iszero\n      iszero\n      mul\n      or\n      swap1\n      sstore\n      pop\n        /* \"Product Tracker Smart Contract/ProductTracker.sol\":6097:6320  Departed(... */\n      0xf295c689d401ce1625e9bd2adba7641f92cc231677989c7fe706354cb643e798\n        /* \"Product Tracker Smart Contract/ProductTracker.sol\":6119:6127  products */\n      0x02\n        /* \"Product Tracker Smart Contract/ProductTracker.sol\":6119:6139  products[_productId] */\n      0x00\n        /* \"Product Tracker Smart Contract/ProductTracker.sol\":6128:6138  _productId */\n      dup6\n        /* \"Product Tracker Smart Contract/ProductTracker.sol\":6119:6139  products[_productId] */\n      dup2\n      mstore\n      0x20\n      add\n      swap1\n      dup2\n      mstore\n      0x20\n      add\n      0x00\n      keccak256\n        /* \"Product Tracker Smart Contract/ProductTracker.sol\":6119:6148  products[_productId].location */\n      0x07\n      add\n        /* \"Product Tracker Smart Contract/ProductTracker.sol\":6119:6153  products[_productId].location.name */\n      0x00\n      add\n        /* \"Product Tracker Smart Contract/ProductTracker.sol\":6167:6175  products */\n      0x02\n        /* \"Product Tracker Smart Contract/ProductTracker.sol\":6167:6187  products[_productId] */\n      0x00\n        /* \"Product Tracker Smart Contract/ProductTracker.sol\":6176:6186  _productId */\n      dup7\n        /* \"Product Tracker Smart Contract/ProductTracker.sol\":6167:6187  products[_productId] */\n      dup2\n      mstore\n      0x20\n      add\n      swap1\n      dup2\n      mstore\n      0x20\n      add\n      0x00\n      keccak256\n        /* \"Product Tracker Smart Contract/ProductTracker.sol\":6167:6196  products[_productId].location */\n      0x07\n      add\n        /* \"Product Tracker Smart Contract/ProductTracker.sol\":6167:6206  products[_productId].location.custodian */\n      0x01\n      add\n        /* \"Product Tracker Smart Contract/ProductTracker.sol\":6220:6235  block.timestamp */\n      timestamp\n        /* \"Product Tracker Smart Contract/ProductTracker.sol\":6249:6259  _productId */\n      dup7\n        /* \"Product Tracker Smart Contract/ProductTracker.sol\":6273:6281  products */\n      0x02\n        /* \"Product Tracker Smart Contract/ProductTracker.sol\":6273:6293  products[_productId] */\n      0x00\n        /* \"Product Tracker Smart Contract/ProductTracker.sol\":6282:6292  _productId */\n      dup10\n        /* \"Product Tracker Smart Contract/ProductTracker.sol\":6273:6293  products[_productId] */\n      dup2\n      mstore\n      0x20\n      add\n      swap1\n      dup2\n      mstore\n      0x20\n      add\n      0x00\n      keccak256\n        /* \"Product Tracker Smart Contract/ProductTracker.sol\":6273:6302  products[_productId].location */\n      0x07\n      add\n        /* \"Product Tracker Smart Contract/ProductTracker.sol\":6273:6310  products[_productId].location.arrived */\n      0x03\n      add\n      0x01\n      swap1\n      sload\n      swap1\n      0x0100\n      exp\n      swap1\n      div\n      0xff\n      and\n        /* \"Product Tracker Smart Contract/ProductTracker.sol\":6097:6320  Departed(... */\n      mload(0x40)\n      tag_101\n      swap6\n      swap5\n      swap4\n      swap3\n      swap2\n      swap1\n      tag_102\n      jump\t// in\n    tag_101:\n      mload(0x40)\n      dup1\n      swap2\n      sub\n      swap1\n      log1\n        /* \"Product Tracker Smart Contract/ProductTracker.sol\":5770:6327  function initalizeShipment(uint256 _productId, string memory _locationName)... */\n      pop\n      pop\n      pop\n      jump\t// out\n        /* \"@openzeppelin/contracts/access/AccessControl.sol\":3810:3930  function getRoleAdmin(bytes32 role) public view virtual returns (bytes32) {... */\n    tag_35:\n        /* \"@openzeppelin/contracts/access/AccessControl.sol\":3875:3882  bytes32 */\n      0x00\n        /* \"@openzeppelin/contracts/access/AccessControl.sol\":3901:3907  _roles */\n      0x01\n        /* \"@openzeppelin/contracts/access/AccessControl.sol\":3901:3913  _roles[role] */\n      0x00\n        /* \"@openzeppelin/contracts/access/AccessControl.sol\":3908:3912  role */\n      dup4\n        /* \"@openzeppelin/contracts/access/AccessControl.sol\":3901:3913  _roles[role] */\n      dup2\n      mstore\n      0x20\n      add\n      swap1\n      dup2\n      mstore\n      0x20\n      add\n      0x00\n      keccak256\n        /* \"@openzeppelin/contracts/access/AccessControl.sol\":3901:3923  _roles[role].adminRole */\n      0x01\n      add\n      sload\n        /* \"@openzeppelin/contracts/access/AccessControl.sol\":3894:3923  return _roles[role].adminRole */\n      swap1\n      pop\n        /* \"@openzeppelin/contracts/access/AccessControl.sol\":3810:3930  function getRoleAdmin(bytes32 role) public view virtual returns (bytes32) {... */\n      swap2\n      swap1\n      pop\n      jump\t// out\n        /* \"@openzeppelin/contracts/access/AccessControl.sol\":4226:4362  function grantRole(bytes32 role, address account) public virtual onlyRole(getRoleAdmin(role)) {... */\n    tag_41:\n        /* \"@openzeppelin/contracts/access/AccessControl.sol\":4300:4318  getRoleAdmin(role) */\n      tag_104\n        /* \"@openzeppelin/contracts/access/AccessControl.sol\":4313:4317  role */\n      dup3\n        /* \"@openzeppelin/contracts/access/AccessControl.sol\":4300:4312  getRoleAdmin */\n      tag_35\n        /* \"@openzeppelin/contracts/access/AccessControl.sol\":4300:4318  getRoleAdmin(role) */\n      jump\t// in\n    tag_104:\n        /* \"@openzeppelin/contracts/access/AccessControl.sol\":2464:2480  _checkRole(role) */\n      tag_106\n        /* \"@openzeppelin/contracts/access/AccessControl.sol\":2475:2479  role */\n      dup2\n        /* \"@openzeppelin/contracts/access/AccessControl.sol\":2464:2474  _checkRole */\n      tag_107\n        /* \"@openzeppelin/contracts/access/AccessControl.sol\":2464:2480  _checkRole(role) */\n      jump\t// in\n    tag_106:\n        /* \"@openzeppelin/contracts/access/AccessControl.sol\":4330:4355  _grantRole(role, account) */\n      tag_109\n        /* \"@openzeppelin/contracts/access/AccessControl.sol\":4341:4345  role */\n      dup4\n        /* \"@openzeppelin/contracts/access/AccessControl.sol\":4347:4354  account */\n      dup4\n        /* \"@openzeppelin/contracts/access/AccessControl.sol\":4330:4340  _grantRole */\n      tag_110\n        /* \"@openzeppelin/contracts/access/AccessControl.sol\":4330:4355  _grantRole(role, account) */\n      jump\t// in\n    tag_109:\n      pop\n        /* \"@openzeppelin/contracts/access/AccessControl.sol\":4226:4362  function grantRole(bytes32 role, address account) public virtual onlyRole(getRoleAdmin(role)) {... */\n      pop\n      pop\n      pop\n      jump\t// out\n        /* \"@openzeppelin/contracts/access/AccessControl.sol\":5328:5573  function renounceRole(bytes32 role, address callerConfirmation) public virtual {... */\n    tag_44:\n        /* \"@openzeppelin/contracts/access/AccessControl.sol\":5443:5455  _msgSender() */\n      tag_112\n        /* \"@openzeppelin/contracts/access/AccessControl.sol\":5443:5453  _msgSender */\n      tag_113\n        /* \"@openzeppelin/contracts/access/AccessControl.sol\":5443:5455  _msgSender() */\n      jump\t// in\n    tag_112:\n        /* \"@openzeppelin/contracts/access/AccessControl.sol\":5421:5455  callerConfirmation != _msgSender() */\n      0xffffffffffffffffffffffffffffffffffffffff\n      and\n        /* \"@openzeppelin/contracts/access/AccessControl.sol\":5421:5439  callerConfirmation */\n      dup2\n        /* \"@openzeppelin/contracts/access/AccessControl.sol\":5421:5455  callerConfirmation != _msgSender() */\n      0xffffffffffffffffffffffffffffffffffffffff\n      and\n      eq\n        /* \"@openzeppelin/contracts/access/AccessControl.sol\":5417:5519  if (callerConfirmation != _msgSender()) {... */\n      tag_114\n      jumpi\n        /* \"@openzeppelin/contracts/access/AccessControl.sol\":5478:5508  AccessControlBadConfirmation() */\n      mload(0x40)\n      0x6697b23200000000000000000000000000000000000000000000000000000000\n      dup2\n      mstore\n      0x04\n      add\n      mload(0x40)\n      dup1\n      swap2\n      sub\n      swap1\n      revert\n        /* \"@openzeppelin/contracts/access/AccessControl.sol\":5417:5519  if (callerConfirmation != _msgSender()) {... */\n    tag_114:\n        /* \"@openzeppelin/contracts/access/AccessControl.sol\":5529:5566  _revokeRole(role, callerConfirmation) */\n      tag_115\n        /* \"@openzeppelin/contracts/access/AccessControl.sol\":5541:5545  role */\n      dup3\n        /* \"@openzeppelin/contracts/access/AccessControl.sol\":5547:5565  callerConfirmation */\n      dup3\n        /* \"@openzeppelin/contracts/access/AccessControl.sol\":5529:5540  _revokeRole */\n      tag_116\n        /* \"@openzeppelin/contracts/access/AccessControl.sol\":5529:5566  _revokeRole(role, callerConfirmation) */\n      jump\t// in\n    tag_115:\n      pop\n        /* \"@openzeppelin/contracts/access/AccessControl.sol\":5328:5573  function renounceRole(bytes32 role, address callerConfirmation) public virtual {... */\n      pop\n      pop\n      jump\t// out\n        /* \"@openzeppelin/contracts/access/Ownable.sol\":2293:2394  function renounceOwnership() public virtual onlyOwner {... */\n    tag_46:\n        /* \"@openzeppelin/contracts/access/Ownable.sol\":1531:1544  _checkOwner() */\n      tag_118\n        /* \"@openzeppelin/contracts/access/Ownable.sol\":1531:1542  _checkOwner */\n      tag_119\n        /* \"@openzeppelin/contracts/access/Ownable.sol\":1531:1544  _checkOwner() */\n      jump\t// in\n    tag_118:\n        /* \"@openzeppelin/contracts/access/Ownable.sol\":2357:2387  _transferOwnership(address(0)) */\n      tag_121\n        /* \"@openzeppelin/contracts/access/Ownable.sol\":2384:2385  0 */\n      0x00\n        /* \"@openzeppelin/contracts/access/Ownable.sol\":2357:2375  _transferOwnership */\n      tag_122\n        /* \"@openzeppelin/contracts/access/Ownable.sol\":2357:2387  _transferOwnership(address(0)) */\n      jump\t// in\n    tag_121:\n        /* \"@openzeppelin/contracts/access/Ownable.sol\":2293:2394  function renounceOwnership() public virtual onlyOwner {... */\n      jump\t// out\n        /* \"Product Tracker Smart Contract/ProductTracker.sol\":925:968  mapping(uint256 => Product) public products */\n    tag_50:\n      mstore(0x20, 0x02)\n      dup1\n      0x00\n      mstore\n      keccak256(0x00, 0x40)\n      0x00\n      swap2\n      pop\n      swap1\n      pop\n      dup1\n      0x00\n      add\n      sload\n      swap1\n      dup1\n      0x01\n      add\n      dup1\n      sload\n      tag_123\n      swap1\n      tag_124\n      jump\t// in\n    tag_123:\n      dup1\n      0x1f\n      add\n      0x20\n      dup1\n      swap2\n      div\n      mul\n      0x20\n      add\n      mload(0x40)\n      swap1\n      dup2\n      add\n      0x40\n      mstore\n      dup1\n      swap3\n      swap2\n      swap1\n      dup2\n      dup2\n      mstore\n      0x20\n      add\n      dup3\n      dup1\n      sload\n      tag_125\n      swap1\n      tag_124\n      jump\t// in\n    tag_125:\n      dup1\n      iszero\n      tag_126\n      jumpi\n      dup1\n      0x1f\n      lt\n      tag_127\n      jumpi\n      0x0100\n      dup1\n      dup4\n      sload\n      div\n      mul\n      dup4\n      mstore\n      swap2\n      0x20\n      add\n      swap2\n      jump(tag_126)\n    tag_127:\n      dup3\n      add\n      swap2\n      swap1\n      0x00\n      mstore\n      keccak256(0x00, 0x20)\n      swap1\n    tag_128:\n      dup2\n      sload\n      dup2\n      mstore\n      swap1\n      0x01\n      add\n      swap1\n      0x20\n      add\n      dup1\n      dup4\n      gt\n      tag_128\n      jumpi\n      dup3\n      swap1\n      sub\n      0x1f\n      and\n      dup3\n      add\n      swap2\n    tag_126:\n      pop\n      pop\n      pop\n      pop\n      pop\n      swap1\n      dup1\n      0x02\n      add\n      dup1\n      sload\n      tag_129\n      swap1\n      tag_124\n      jump\t// in\n    tag_129:\n      dup1\n      0x1f\n      add\n      0x20\n      dup1\n      swap2\n      div\n      mul\n      0x20\n      add\n      mload(0x40)\n      swap1\n      dup2\n      add\n      0x40\n      mstore\n      dup1\n      swap3\n      swap2\n      swap1\n      dup2\n      dup2\n      mstore\n      0x20\n      add\n      dup3\n      dup1\n      sload\n      tag_130\n      swap1\n      tag_124\n      jump\t// in\n    tag_130:\n      dup1\n      iszero\n      tag_131\n      jumpi\n      dup1\n      0x1f\n      lt\n      tag_132\n      jumpi\n      0x0100\n      dup1\n      dup4\n      sload\n      div\n      mul\n      dup4\n      mstore\n      swap2\n      0x20\n      add\n      swap2\n      jump(tag_131)\n    tag_132:\n      dup3\n      add\n      swap2\n      swap1\n      0x00\n      mstore\n      keccak256(0x00, 0x20)\n      swap1\n    tag_133:\n      dup2\n      sload\n      dup2\n      mstore\n      swap1\n      0x01\n      add\n      swap1\n      0x20\n      add\n      dup1\n      dup4\n      gt\n      tag_133\n      jumpi\n      dup3\n      swap1\n      sub\n      0x1f\n      and\n      dup3\n      add\n      swap2\n    tag_131:\n      pop\n      pop\n      pop\n      pop\n      pop\n      swap1\n      dup1\n      0x03\n      add\n      dup1\n      sload\n      tag_134\n      swap1\n      tag_124\n      jump\t// in\n    tag_134:\n      dup1\n      0x1f\n      add\n      0x20\n      dup1\n      swap2\n      div\n      mul\n      0x20\n      add\n      mload(0x40)\n      swap1\n      dup2\n      add\n      0x40\n      mstore\n      dup1\n      swap3\n      swap2\n      swap1\n      dup2\n      dup2\n      mstore\n      0x20\n      add\n      dup3\n      dup1\n      sload\n      tag_135\n      swap1\n      tag_124\n      jump\t// in\n    tag_135:\n      dup1\n      iszero\n      tag_136\n      jumpi\n      dup1\n      0x1f\n      lt\n      tag_137\n      jumpi\n      0x0100\n      dup1\n      dup4\n      sload\n      div\n      mul\n      dup4\n      mstore\n      swap2\n      0x20\n      add\n      swap2\n      jump(tag_136)\n    tag_137:\n      dup3\n      add\n      swap2\n      swap1\n      0x00\n      mstore\n      keccak256(0x00, 0x20)\n      swap1\n    tag_138:\n      dup2\n      sload\n      dup2\n      mstore\n      swap1\n      0x01\n      add\n      swap1\n      0x20\n      add\n      dup1\n      dup4\n      gt\n      tag_138\n      jumpi\n      dup3\n      swap1\n      sub\n      0x1f\n      and\n      dup3\n      add\n      swap2\n    tag_136:\n      pop\n      pop\n      pop\n      pop\n      pop\n      swap1\n      dup1\n      0x06\n      add\n      sload\n      swap1\n      dup1\n      0x07\n      add\n      mload(0x40)\n      dup1\n      0xc0\n      add\n      0x40\n      mstore\n      swap1\n      dup2\n      0x00\n      dup3\n      add\n      dup1\n      sload\n      tag_139\n      swap1\n      tag_124\n      jump\t// in\n    tag_139:\n      dup1\n      0x1f\n      add\n      0x20\n      dup1\n      swap2\n      div\n      mul\n      0x20\n      add\n      mload(0x40)\n      swap1\n      dup2\n      add\n      0x40\n      mstore\n      dup1\n      swap3\n      swap2\n      swap1\n      dup2\n      dup2\n      mstore\n      0x20\n      add\n      dup3\n      dup1\n      sload\n      tag_140\n      swap1\n      tag_124\n      jump\t// in\n    tag_140:\n      dup1\n      iszero\n      tag_141\n      jumpi\n      dup1\n      0x1f\n      lt\n      tag_142\n      jumpi\n      0x0100\n      dup1\n      dup4\n      sload\n      div\n      mul\n      dup4\n      mstore\n      swap2\n      0x20\n      add\n      swap2\n      jump(tag_141)\n    tag_142:\n      dup3\n      add\n      swap2\n      swap1\n      0x00\n      mstore\n      keccak256(0x00, 0x20)\n      swap1\n    tag_143:\n      dup2\n      sload\n      dup2\n      mstore\n      swap1\n      0x01\n      add\n      swap1\n      0x20\n      add\n      dup1\n      dup4\n      gt\n      tag_143\n      jumpi\n      dup3\n      swap1\n      sub\n      0x1f\n      and\n      dup3\n      add\n      swap2\n    tag_141:\n      pop\n      pop\n      pop\n      pop\n      pop\n      dup2\n      mstore\n      0x20\n      add\n      0x01\n      dup3\n      add\n      dup1\n      sload\n      tag_144\n      swap1\n      tag_124\n      jump\t// in\n    tag_144:\n      dup1\n      0x1f\n      add\n      0x20\n      dup1\n      swap2\n      div\n      mul\n      0x20\n      add\n      mload(0x40)\n      swap1\n      dup2\n      add\n      0x40\n      mstore\n      dup1\n      swap3\n      swap2\n      swap1\n      dup2\n      dup2\n      mstore\n      0x20\n      add\n      dup3\n      dup1\n      sload\n      tag_145\n      swap1\n      tag_124\n      jump\t// in\n    tag_145:\n      dup1\n      iszero\n      tag_146\n      jumpi\n      dup1\n      0x1f\n      lt\n      tag_147\n      jumpi\n      0x0100\n      dup1\n      dup4\n      sload\n      div\n      mul\n      dup4\n      mstore\n      swap2\n      0x20\n      add\n      swap2\n      jump(tag_146)\n    tag_147:\n      dup3\n      add\n      swap2\n      swap1\n      0x00\n      mstore\n      keccak256(0x00, 0x20)\n      swap1\n    tag_148:\n      dup2\n      sload\n      dup2\n      mstore\n      swap1\n      0x01\n      add\n      swap1\n      0x20\n      add\n      dup1\n      dup4\n      gt\n      tag_148\n      jumpi\n      dup3\n      swap1\n      sub\n      0x1f\n      and\n      dup3\n      add\n      swap2\n    tag_146:\n      pop\n      pop\n      pop\n      pop\n      pop\n      dup2\n      mstore\n      0x20\n      add\n      0x02\n      dup3\n      add\n      sload\n      dup2\n      mstore\n      0x20\n      add\n      0x03\n      dup3\n      add\n      0x00\n      swap1\n      sload\n      swap1\n      0x0100\n      exp\n      swap1\n      div\n      0xff\n      and\n      iszero\n      iszero\n      iszero\n      iszero\n      dup2\n      mstore\n      0x20\n      add\n      0x03\n      dup3\n      add\n      0x01\n      swap1\n      sload\n      swap1\n      0x0100\n      exp\n      swap1\n      div\n      0xff\n      and\n      iszero\n      iszero\n      iszero\n      iszero\n      dup2\n      mstore\n      0x20\n      add\n      0x04\n      dup3\n      add\n      sload\n      dup2\n      mstore\n      pop\n      pop\n      swap1\n      pop\n      dup7\n      jump\t// out\n        /* \"@openzeppelin/contracts/access/Ownable.sol\":1638:1723  function owner() public view virtual returns (address) {... */\n    tag_54:\n        /* \"@openzeppelin/contracts/access/Ownable.sol\":1684:1691  address */\n      0x00\n        /* \"@openzeppelin/contracts/access/Ownable.sol\":1710:1716  _owner */\n      dup1\n      0x00\n      swap1\n      sload\n      swap1\n      0x0100\n      exp\n      swap1\n      div\n      0xffffffffffffffffffffffffffffffffffffffff\n      and\n        /* \"@openzeppelin/contracts/access/Ownable.sol\":1703:1716  return _owner */\n      swap1\n      pop\n        /* \"@openzeppelin/contracts/access/Ownable.sol\":1638:1723  function owner() public view virtual returns (address) {... */\n      swap1\n      jump\t// out\n        /* \"Product Tracker Smart Contract/ProductTracker.sol\":2208:2333  function grantAuthorization(address _userAddress) public onlyOwner {... */\n    tag_60:\n        /* \"@openzeppelin/contracts/access/Ownable.sol\":1531:1544  _checkOwner() */\n      tag_151\n        /* \"@openzeppelin/contracts/access/Ownable.sol\":1531:1542  _checkOwner */\n      tag_119\n        /* \"@openzeppelin/contracts/access/Ownable.sol\":1531:1544  _checkOwner() */\n      jump\t// in\n    tag_151:\n        /* \"Product Tracker Smart Contract/ProductTracker.sol\":2285:2326  _grantRole(AUTHORIZED_ROLE, _userAddress) */\n      tag_153\n        /* \"Product Tracker Smart Contract/ProductTracker.sol\":447:475  keccak256(\"AUTHORIZED_ROLE\") */\n      0x0393b4c1b6519e8b53ae0efa1ab522060a3b9f8d86d09c8a22ca6d6eea735cf7\n        /* \"Product Tracker Smart Contract/ProductTracker.sol\":2313:2325  _userAddress */\n      dup3\n        /* \"Product Tracker Smart Contract/ProductTracker.sol\":2285:2295  _grantRole */\n      tag_110\n        /* \"Product Tracker Smart Contract/ProductTracker.sol\":2285:2326  _grantRole(AUTHORIZED_ROLE, _userAddress) */\n      jump\t// in\n    tag_153:\n      pop\n        /* \"Product Tracker Smart Contract/ProductTracker.sol\":2208:2333  function grantAuthorization(address _userAddress) public onlyOwner {... */\n      pop\n      jump\t// out\n        /* \"@openzeppelin/contracts/access/AccessControl.sol\":2854:2990  function hasRole(bytes32 role, address account) public view virtual returns (bool) {... */\n    tag_63:\n        /* \"@openzeppelin/contracts/access/AccessControl.sol\":2931:2935  bool */\n      0x00\n        /* \"@openzeppelin/contracts/access/AccessControl.sol\":2954:2960  _roles */\n      0x01\n        /* \"@openzeppelin/contracts/access/AccessControl.sol\":2954:2966  _roles[role] */\n      0x00\n        /* \"@openzeppelin/contracts/access/AccessControl.sol\":2961:2965  role */\n      dup5\n        /* \"@openzeppelin/contracts/access/AccessControl.sol\":2954:2966  _roles[role] */\n      dup2\n      mstore\n      0x20\n      add\n      swap1\n      dup2\n      mstore\n      0x20\n      add\n      0x00\n      keccak256\n        /* \"@openzeppelin/contracts/access/AccessControl.sol\":2954:2974  _roles[role].hasRole */\n      0x00\n      add\n        /* \"@openzeppelin/contracts/access/AccessControl.sol\":2954:2983  _roles[role].hasRole[account] */\n      0x00\n        /* \"@openzeppelin/contracts/access/AccessControl.sol\":2975:2982  account */\n      dup4\n        /* \"@openzeppelin/contracts/access/AccessControl.sol\":2954:2983  _roles[role].hasRole[account] */\n      0xffffffffffffffffffffffffffffffffffffffff\n      and\n      0xffffffffffffffffffffffffffffffffffffffff\n      and\n      dup2\n      mstore\n      0x20\n      add\n      swap1\n      dup2\n      mstore\n      0x20\n      add\n      0x00\n      keccak256\n      0x00\n      swap1\n      sload\n      swap1\n      0x0100\n      exp\n      swap1\n      div\n      0xff\n      and\n        /* \"@openzeppelin/contracts/access/AccessControl.sol\":2947:2983  return _roles[role].hasRole[account] */\n      swap1\n      pop\n        /* \"@openzeppelin/contracts/access/AccessControl.sol\":2854:2990  function hasRole(bytes32 role, address account) public view virtual returns (bool) {... */\n      swap3\n      swap2\n      pop\n      pop\n      jump\t// out\n        /* \"Product Tracker Smart Contract/ProductTracker.sol\":3502:5257  function GenerateProduct(... */\n    tag_68:\n        /* \"Product Tracker Smart Contract/ProductTracker.sol\":2028:2064  hasRole(AUTHORIZED_ROLE, msg.sender) */\n      tag_156\n        /* \"Product Tracker Smart Contract/ProductTracker.sol\":447:475  keccak256(\"AUTHORIZED_ROLE\") */\n      0x0393b4c1b6519e8b53ae0efa1ab522060a3b9f8d86d09c8a22ca6d6eea735cf7\n        /* \"Product Tracker Smart Contract/ProductTracker.sol\":2053:2063  msg.sender */\n      caller\n        /* \"Product Tracker Smart Contract/ProductTracker.sol\":2028:2035  hasRole */\n      tag_63\n        /* \"Product Tracker Smart Contract/ProductTracker.sol\":2028:2064  hasRole(AUTHORIZED_ROLE, msg.sender) */\n      jump\t// in\n    tag_156:\n        /* \"Product Tracker Smart Contract/ProductTracker.sol\":2020:2088  require(hasRole(AUTHORIZED_ROLE, msg.sender), \"User not authorized\") */\n      tag_157\n      jumpi\n      mload(0x40)\n      0x08c379a000000000000000000000000000000000000000000000000000000000\n      dup2\n      mstore\n      0x04\n      add\n      tag_158\n      swap1\n      tag_159\n      jump\t// in\n    tag_158:\n      mload(0x40)\n      dup1\n      swap2\n      sub\n      swap1\n      revert\n    tag_157:\n        /* \"Product Tracker Smart Contract/ProductTracker.sol\":4008:4009  0 */\n      0x00\n        /* \"Product Tracker Smart Contract/ProductTracker.sol\":3985:3997  _productType */\n      dup10\n        /* \"Product Tracker Smart Contract/ProductTracker.sol\":3979:4005  bytes(_productType).length */\n      mload\n        /* \"Product Tracker Smart Contract/ProductTracker.sol\":3979:4009  bytes(_productType).length > 0 */\n      gt\n        /* \"Product Tracker Smart Contract/ProductTracker.sol\":3958:4065  require(... */\n      tag_161\n      jumpi\n      mload(0x40)\n      0x08c379a000000000000000000000000000000000000000000000000000000000\n      dup2\n      mstore\n      0x04\n      add\n      tag_162\n      swap1\n      tag_163\n      jump\t// in\n    tag_162:\n      mload(0x40)\n      dup1\n      swap2\n      sub\n      swap1\n      revert\n    tag_161:\n        /* \"Product Tracker Smart Contract/ProductTracker.sol\":4125:4126  0 */\n      0x00\n        /* \"Product Tracker Smart Contract/ProductTracker.sol\":4102:4114  _productName */\n      dup9\n        /* \"Product Tracker Smart Contract/ProductTracker.sol\":4096:4122  bytes(_productName).length */\n      mload\n        /* \"Product Tracker Smart Contract/ProductTracker.sol\":4096:4126  bytes(_productName).length > 0 */\n      gt\n        /* \"Product Tracker Smart Contract/ProductTracker.sol\":4075:4182  require(... */\n      tag_164\n      jumpi\n      mload(0x40)\n      0x08c379a000000000000000000000000000000000000000000000000000000000\n      dup2\n      mstore\n      0x04\n      add\n      tag_165\n      swap1\n      tag_166\n      jump\t// in\n    tag_165:\n      mload(0x40)\n      dup1\n      swap2\n      sub\n      swap1\n      revert\n    tag_164:\n        /* \"Product Tracker Smart Contract/ProductTracker.sol\":4227:4228  0 */\n      0x00\n        /* \"Product Tracker Smart Contract/ProductTracker.sol\":4206:4216  _brandName */\n      dup8\n        /* \"Product Tracker Smart Contract/ProductTracker.sol\":4200:4224  bytes(_brandName).length */\n      mload\n        /* \"Product Tracker Smart Contract/ProductTracker.sol\":4200:4228  bytes(_brandName).length > 0 */\n      gt\n        /* \"Product Tracker Smart Contract/ProductTracker.sol\":4192:4261  require(bytes(_brandName).length > 0, \"Empty brand name not allowed\") */\n      tag_167\n      jumpi\n      mload(0x40)\n      0x08c379a000000000000000000000000000000000000000000000000000000000\n      dup2\n      mstore\n      0x04\n      add\n      tag_168\n      swap1\n      tag_169\n      jump\t// in\n    tag_168:\n      mload(0x40)\n      dup1\n      swap2\n      sub\n      swap1\n      revert\n    tag_167:\n        /* \"Product Tracker Smart Contract/ProductTracker.sol\":4291:4292  0 */\n      0x00\n        /* \"Product Tracker Smart Contract/ProductTracker.sol\":4279:4288  _quantity */\n      dup5\n        /* \"Product Tracker Smart Contract/ProductTracker.sol\":4279:4292  _quantity > 0 */\n      gt\n        /* \"Product Tracker Smart Contract/ProductTracker.sol\":4271:4331  require(_quantity > 0, \"Quantity must be greater than zero\") */\n      tag_170\n      jumpi\n      mload(0x40)\n      0x08c379a000000000000000000000000000000000000000000000000000000000\n      dup2\n      mstore\n      0x04\n      add\n      tag_171\n      swap1\n      tag_172\n      jump\t// in\n    tag_171:\n      mload(0x40)\n      dup1\n      swap2\n      sub\n      swap1\n      revert\n    tag_170:\n        /* \"Product Tracker Smart Contract/ProductTracker.sol\":4342:4360  uint256 _productId */\n      0x00\n        /* \"Product Tracker Smart Contract/ProductTracker.sol\":4363:4378  block.timestamp */\n      timestamp\n        /* \"Product Tracker Smart Contract/ProductTracker.sol\":4342:4378  uint256 _productId = block.timestamp */\n      swap1\n      pop\n        /* \"Product Tracker Smart Contract/ProductTracker.sol\":4430:4431  0 */\n      0x00\n        /* \"Product Tracker Smart Contract/ProductTracker.sol\":4396:4404  products */\n      0x02\n        /* \"Product Tracker Smart Contract/ProductTracker.sol\":4396:4416  products[_productId] */\n      0x00\n        /* \"Product Tracker Smart Contract/ProductTracker.sol\":4405:4415  _productId */\n      dup4\n        /* \"Product Tracker Smart Contract/ProductTracker.sol\":4396:4416  products[_productId] */\n      dup2\n      mstore\n      0x20\n      add\n      swap1\n      dup2\n      mstore\n      0x20\n      add\n      0x00\n      keccak256\n        /* \"Product Tracker Smart Contract/ProductTracker.sol\":4396:4426  products[_productId].productId */\n      0x00\n      add\n      sload\n        /* \"Product Tracker Smart Contract/ProductTracker.sol\":4396:4431  products[_productId].productId == 0 */\n      eq\n        /* \"Product Tracker Smart Contract/ProductTracker.sol\":4388:4458  require(products[_productId].productId == 0, \"Product already exists\") */\n      tag_173\n      jumpi\n      mload(0x40)\n      0x08c379a000000000000000000000000000000000000000000000000000000000\n      dup2\n      mstore\n      0x04\n      add\n      tag_174\n      swap1\n      tag_175\n      jump\t// in\n    tag_174:\n      mload(0x40)\n      dup1\n      swap2\n      sub\n      swap1\n      revert\n    tag_173:\n        /* \"Product Tracker Smart Contract/ProductTracker.sol\":4492:4990  Product(... */\n      mload(0x40)\n      dup1\n      0x0100\n      add\n      0x40\n      mstore\n      dup1\n        /* \"Product Tracker Smart Contract/ProductTracker.sol\":4513:4523  _productId */\n      dup3\n        /* \"Product Tracker Smart Contract/ProductTracker.sol\":4492:4990  Product(... */\n      dup2\n      mstore\n      0x20\n      add\n        /* \"Product Tracker Smart Contract/ProductTracker.sol\":4537:4549  _productType */\n      dup12\n        /* \"Product Tracker Smart Contract/ProductTracker.sol\":4492:4990  Product(... */\n      dup2\n      mstore\n      0x20\n      add\n        /* \"Product Tracker Smart Contract/ProductTracker.sol\":4563:4573  _brandName */\n      dup10\n        /* \"Product Tracker Smart Contract/ProductTracker.sol\":4492:4990  Product(... */\n      dup2\n      mstore\n      0x20\n      add\n        /* \"Product Tracker Smart Contract/ProductTracker.sol\":4587:4599  _productName */\n      dup11\n        /* \"Product Tracker Smart Contract/ProductTracker.sol\":4492:4990  Product(... */\n      dup2\n      mstore\n      0x20\n      add\n        /* \"Product Tracker Smart Contract/ProductTracker.sol\":4613:4623  _materials */\n      dup9\n        /* \"Product Tracker Smart Contract/ProductTracker.sol\":4492:4990  Product(... */\n      dup2\n      mstore\n      0x20\n      add\n        /* \"Product Tracker Smart Contract/ProductTracker.sol\":4637:4650  _certificates */\n      dup8\n        /* \"Product Tracker Smart Contract/ProductTracker.sol\":4492:4990  Product(... */\n      dup2\n      mstore\n      0x20\n      add\n        /* \"Product Tracker Smart Contract/ProductTracker.sol\":4664:4673  _quantity */\n      dup7\n        /* \"Product Tracker Smart Contract/ProductTracker.sol\":4492:4990  Product(... */\n      dup2\n      mstore\n      0x20\n      add\n        /* \"Product Tracker Smart Contract/ProductTracker.sol\":4687:4980  Location({... */\n      mload(0x40)\n      dup1\n      0xc0\n      add\n      0x40\n      mstore\n      dup1\n        /* \"Product Tracker Smart Contract/ProductTracker.sol\":4720:4733  _locationName */\n      dup8\n        /* \"Product Tracker Smart Contract/ProductTracker.sol\":4687:4980  Location({... */\n      dup2\n      mstore\n      0x20\n      add\n        /* \"Product Tracker Smart Contract/ProductTracker.sol\":4762:4772  _custodian */\n      dup7\n        /* \"Product Tracker Smart Contract/ProductTracker.sol\":4687:4980  Location({... */\n      dup2\n      mstore\n      0x20\n      add\n        /* \"Product Tracker Smart Contract/ProductTracker.sol\":4836:4844  _shipped */\n      dup6\n        /* \"Product Tracker Smart Contract/ProductTracker.sol\":4836:4866  _shipped ? block.timestamp : 0 */\n      tag_176\n      jumpi\n        /* \"Product Tracker Smart Contract/ProductTracker.sol\":4865:4866  0 */\n      0x00\n        /* \"Product Tracker Smart Contract/ProductTracker.sol\":4836:4866  _shipped ? block.timestamp : 0 */\n      jump(tag_177)\n    tag_176:\n        /* \"Product Tracker Smart Contract/ProductTracker.sol\":4847:4862  block.timestamp */\n      timestamp\n        /* \"Product Tracker Smart Contract/ProductTracker.sol\":4836:4866  _shipped ? block.timestamp : 0 */\n    tag_177:\n        /* \"Product Tracker Smart Contract/ProductTracker.sol\":4687:4980  Location({... */\n      dup2\n      mstore\n      0x20\n      add\n        /* \"Product Tracker Smart Contract/ProductTracker.sol\":4799:4807  _shipped */\n      dup6\n        /* \"Product Tracker Smart Contract/ProductTracker.sol\":4687:4980  Location({... */\n      iszero\n      iszero\n      dup2\n      mstore\n      0x20\n      add\n        /* \"Product Tracker Smart Contract/ProductTracker.sol\":4893:4898  false */\n      0x00\n        /* \"Product Tracker Smart Contract/ProductTracker.sol\":4687:4980  Location({... */\n      iszero\n      iszero\n      dup2\n      mstore\n      0x20\n      add\n        /* \"Product Tracker Smart Contract/ProductTracker.sol\":4964:4965  0 */\n      0x00\n        /* \"Product Tracker Smart Contract/ProductTracker.sol\":4687:4980  Location({... */\n      dup2\n      mstore\n      pop\n        /* \"Product Tracker Smart Contract/ProductTracker.sol\":4492:4990  Product(... */\n      dup2\n      mstore\n      pop\n        /* \"Product Tracker Smart Contract/ProductTracker.sol\":4469:4477  products */\n      0x02\n        /* \"Product Tracker Smart Contract/ProductTracker.sol\":4469:4489  products[_productId] */\n      0x00\n        /* \"Product Tracker Smart Contract/ProductTracker.sol\":4478:4488  _productId */\n      dup4\n        /* \"Product Tracker Smart Contract/ProductTracker.sol\":4469:4489  products[_productId] */\n      dup2\n      mstore\n      0x20\n      add\n      swap1\n      dup2\n      mstore\n      0x20\n      add\n      0x00\n      keccak256\n        /* \"Product Tracker Smart Contract/ProductTracker.sol\":4469:4990  products[_productId] = Product(... */\n      0x00\n      dup3\n      add\n      mload\n      dup2\n      0x00\n      add\n      sstore\n      0x20\n      dup3\n      add\n      mload\n      dup2\n      0x01\n      add\n      swap1\n      dup2\n      tag_178\n      swap2\n      swap1\n      tag_100\n      jump\t// in\n    tag_178:\n      pop\n      0x40\n      dup3\n      add\n      mload\n      dup2\n      0x02\n      add\n      swap1\n      dup2\n      tag_179\n      swap2\n      swap1\n      tag_100\n      jump\t// in\n    tag_179:\n      pop\n      0x60\n      dup3\n      add\n      mload\n      dup2\n      0x03\n      add\n      swap1\n      dup2\n      tag_180\n      swap2\n      swap1\n      tag_100\n      jump\t// in\n    tag_180:\n      pop\n      0x80\n      dup3\n      add\n      mload\n      dup2\n      0x04\n      add\n      swap1\n      dup1\n      mload\n      swap1\n      0x20\n      add\n      swap1\n      tag_181\n      swap3\n      swap2\n      swap1\n      tag_182\n      jump\t// in\n    tag_181:\n      pop\n      0xa0\n      dup3\n      add\n      mload\n      dup2\n      0x05\n      add\n      swap1\n      dup1\n      mload\n      swap1\n      0x20\n      add\n      swap1\n      tag_183\n      swap3\n      swap2\n      swap1\n      tag_182\n      jump\t// in\n    tag_183:\n      pop\n      0xc0\n      dup3\n      add\n      mload\n      dup2\n      0x06\n      add\n      sstore\n      0xe0\n      dup3\n      add\n      mload\n      dup2\n      0x07\n      add\n      0x00\n      dup3\n      add\n      mload\n      dup2\n      0x00\n      add\n      swap1\n      dup2\n      tag_184\n      swap2\n      swap1\n      tag_100\n      jump\t// in\n    tag_184:\n      pop\n      0x20\n      dup3\n      add\n      mload\n      dup2\n      0x01\n      add\n      swap1\n      dup2\n      tag_185\n      swap2\n      swap1\n      tag_100\n      jump\t// in\n    tag_185:\n      pop\n      0x40\n      dup3\n      add\n      mload\n      dup2\n      0x02\n      add\n      sstore\n      0x60\n      dup3\n      add\n      mload\n      dup2\n      0x03\n      add\n      exp(0x0100, 0x00)\n      dup2\n      sload\n      dup2\n      0xff\n      mul\n      not\n      and\n      swap1\n      dup4\n      iszero\n      iszero\n      mul\n      or\n      swap1\n      sstore\n      pop\n      0x80\n      dup3\n      add\n      mload\n      dup2\n      0x03\n      add\n      exp(0x0100, 0x01)\n      dup2\n      sload\n      dup2\n      0xff\n      mul\n      not\n      and\n      swap1\n      dup4\n      iszero\n      iszero\n      mul\n      or\n      swap1\n      sstore\n      pop\n      0xa0\n      dup3\n      add\n      mload\n      dup2\n      0x04\n      add\n      sstore\n      pop\n      pop\n      swap1\n      pop\n      pop\n        /* \"Product Tracker Smart Contract/ProductTracker.sol\":5036:5046  _productId */\n      dup1\n        /* \"Product Tracker Smart Contract/ProductTracker.sol\":5006:5250  ProductGenerated(... */\n      0xd7bf816af497bf92d24ae6f5ec9050085f3575c329f242679fc0081fb7e6e54a\n        /* \"Product Tracker Smart Contract/ProductTracker.sol\":5060:5072  _productType */\n      dup12\n        /* \"Product Tracker Smart Contract/ProductTracker.sol\":5086:5096  _brandName */\n      dup11\n        /* \"Product Tracker Smart Contract/ProductTracker.sol\":5110:5122  _productName */\n      dup13\n        /* \"Product Tracker Smart Contract/ProductTracker.sol\":5136:5146  _materials */\n      dup12\n        /* \"Product Tracker Smart Contract/ProductTracker.sol\":5160:5173  _certificates */\n      dup12\n        /* \"Product Tracker Smart Contract/ProductTracker.sol\":5187:5196  _quantity */\n      dup12\n        /* \"Product Tracker Smart Contract/ProductTracker.sol\":5211:5219  products */\n      0x02\n        /* \"Product Tracker Smart Contract/ProductTracker.sol\":5211:5231  products[_productId] */\n      0x00\n        /* \"Product Tracker Smart Contract/ProductTracker.sol\":5220:5230  _productId */\n      dup11\n        /* \"Product Tracker Smart Contract/ProductTracker.sol\":5211:5231  products[_productId] */\n      dup2\n      mstore\n      0x20\n      add\n      swap1\n      dup2\n      mstore\n      0x20\n      add\n      0x00\n      keccak256\n        /* \"Product Tracker Smart Contract/ProductTracker.sol\":5211:5240  products[_productId].location */\n      0x07\n      add\n        /* \"Product Tracker Smart Contract/ProductTracker.sol\":5006:5250  ProductGenerated(... */\n      mload(0x40)\n      tag_186\n      swap8\n      swap7\n      swap6\n      swap5\n      swap4\n      swap3\n      swap2\n      swap1\n      tag_187\n      jump\t// in\n    tag_186:\n      mload(0x40)\n      dup1\n      swap2\n      sub\n      swap1\n      log2\n        /* \"Product Tracker Smart Contract/ProductTracker.sol\":3883:5257  {... */\n      pop\n        /* \"Product Tracker Smart Contract/ProductTracker.sol\":3502:5257  function GenerateProduct(... */\n      pop\n      pop\n      pop\n      pop\n      pop\n      pop\n      pop\n      pop\n      pop\n      jump\t// out\n        /* \"@openzeppelin/contracts/access/AccessControl.sol\":2187:2236  bytes32 public constant DEFAULT_ADMIN_ROLE = 0x00 */\n    tag_70:\n        /* \"@openzeppelin/contracts/access/AccessControl.sol\":2232:2236  0x00 */\n      0x00\n        /* \"@openzeppelin/contracts/access/AccessControl.sol\":2187:2236  bytes32 public constant DEFAULT_ADMIN_ROLE = 0x00 */\n      dup1\n      shl\n      dup2\n      jump\t// out\n        /* \"Product Tracker Smart Contract/ProductTracker.sol\":2339:2466  function revokeAuthorization(address _userAddress) public onlyOwner {... */\n    tag_74:\n        /* \"@openzeppelin/contracts/access/Ownable.sol\":1531:1544  _checkOwner() */\n      tag_189\n        /* \"@openzeppelin/contracts/access/Ownable.sol\":1531:1542  _checkOwner */\n      tag_119\n        /* \"@openzeppelin/contracts/access/Ownable.sol\":1531:1544  _checkOwner() */\n      jump\t// in\n    tag_189:\n        /* \"Product Tracker Smart Contract/ProductTracker.sol\":2417:2459  _revokeRole(AUTHORIZED_ROLE, _userAddress) */\n      tag_191\n        /* \"Product Tracker Smart Contract/ProductTracker.sol\":447:475  keccak256(\"AUTHORIZED_ROLE\") */\n      0x0393b4c1b6519e8b53ae0efa1ab522060a3b9f8d86d09c8a22ca6d6eea735cf7\n        /* \"Product Tracker Smart Contract/ProductTracker.sol\":2446:2458  _userAddress */\n      dup3\n        /* \"Product Tracker Smart Contract/ProductTracker.sol\":2417:2428  _revokeRole */\n      tag_116\n        /* \"Product Tracker Smart Contract/ProductTracker.sol\":2417:2459  _revokeRole(AUTHORIZED_ROLE, _userAddress) */\n      jump\t// in\n    tag_191:\n      pop\n        /* \"Product Tracker Smart Contract/ProductTracker.sol\":2339:2466  function revokeAuthorization(address _userAddress) public onlyOwner {... */\n      pop\n      jump\t// out\n        /* \"@openzeppelin/contracts/access/AccessControl.sol\":4642:4780  function revokeRole(bytes32 role, address account) public virtual onlyRole(getRoleAdmin(role)) {... */\n    tag_77:\n        /* \"@openzeppelin/contracts/access/AccessControl.sol\":4717:4735  getRoleAdmin(role) */\n      tag_192\n        /* \"@openzeppelin/contracts/access/AccessControl.sol\":4730:4734  role */\n      dup3\n        /* \"@openzeppelin/contracts/access/AccessControl.sol\":4717:4729  getRoleAdmin */\n      tag_35\n        /* \"@openzeppelin/contracts/access/AccessControl.sol\":4717:4735  getRoleAdmin(role) */\n      jump\t// in\n    tag_192:\n        /* \"@openzeppelin/contracts/access/AccessControl.sol\":2464:2480  _checkRole(role) */\n      tag_194\n        /* \"@openzeppelin/contracts/access/AccessControl.sol\":2475:2479  role */\n      dup2\n        /* \"@openzeppelin/contracts/access/AccessControl.sol\":2464:2474  _checkRole */\n      tag_107\n        /* \"@openzeppelin/contracts/access/AccessControl.sol\":2464:2480  _checkRole(role) */\n      jump\t// in\n    tag_194:\n        /* \"@openzeppelin/contracts/access/AccessControl.sol\":4747:4773  _revokeRole(role, account) */\n      tag_196\n        /* \"@openzeppelin/contracts/access/AccessControl.sol\":4759:4763  role */\n      dup4\n        /* \"@openzeppelin/contracts/access/AccessControl.sol\":4765:4772  account */\n      dup4\n        /* \"@openzeppelin/contracts/access/AccessControl.sol\":4747:4758  _revokeRole */\n      tag_116\n        /* \"@openzeppelin/contracts/access/AccessControl.sol\":4747:4773  _revokeRole(role, account) */\n      jump\t// in\n    tag_196:\n      pop\n        /* \"@openzeppelin/contracts/access/AccessControl.sol\":4642:4780  function revokeRole(bytes32 role, address account) public virtual onlyRole(getRoleAdmin(role)) {... */\n      pop\n      pop\n      pop\n      jump\t// out\n        /* \"@openzeppelin/contracts/access/Ownable.sol\":2543:2758  function transferOwnership(address newOwner) public virtual onlyOwner {... */\n    tag_80:\n        /* \"@openzeppelin/contracts/access/Ownable.sol\":1531:1544  _checkOwner() */\n      tag_198\n        /* \"@openzeppelin/contracts/access/Ownable.sol\":1531:1542  _checkOwner */\n      tag_119\n        /* \"@openzeppelin/contracts/access/Ownable.sol\":1531:1544  _checkOwner() */\n      jump\t// in\n    tag_198:\n        /* \"@openzeppelin/contracts/access/Ownable.sol\":2647:2648  0 */\n      0x00\n        /* \"@openzeppelin/contracts/access/Ownable.sol\":2627:2649  newOwner == address(0) */\n      0xffffffffffffffffffffffffffffffffffffffff\n      and\n        /* \"@openzeppelin/contracts/access/Ownable.sol\":2627:2635  newOwner */\n      dup2\n        /* \"@openzeppelin/contracts/access/Ownable.sol\":2627:2649  newOwner == address(0) */\n      0xffffffffffffffffffffffffffffffffffffffff\n      and\n      sub\n        /* \"@openzeppelin/contracts/access/Ownable.sol\":2623:2714  if (newOwner == address(0)) {... */\n      tag_200\n      jumpi\n        /* \"@openzeppelin/contracts/access/Ownable.sol\":2700:2701  0 */\n      0x00\n        /* \"@openzeppelin/contracts/access/Ownable.sol\":2672:2703  OwnableInvalidOwner(address(0)) */\n      mload(0x40)\n      0x1e4fbdf700000000000000000000000000000000000000000000000000000000\n      dup2\n      mstore\n      0x04\n      add\n      tag_201\n      swap2\n      swap1\n      tag_56\n      jump\t// in\n    tag_201:\n      mload(0x40)\n      dup1\n      swap2\n      sub\n      swap1\n      revert\n        /* \"@openzeppelin/contracts/access/Ownable.sol\":2623:2714  if (newOwner == address(0)) {... */\n    tag_200:\n        /* \"@openzeppelin/contracts/access/Ownable.sol\":2723:2751  _transferOwnership(newOwner) */\n      tag_202\n        /* \"@openzeppelin/contracts/access/Ownable.sol\":2742:2750  newOwner */\n      dup2\n        /* \"@openzeppelin/contracts/access/Ownable.sol\":2723:2741  _transferOwnership */\n      tag_122\n        /* \"@openzeppelin/contracts/access/Ownable.sol\":2723:2751  _transferOwnership(newOwner) */\n      jump\t// in\n    tag_202:\n        /* \"@openzeppelin/contracts/access/Ownable.sol\":2543:2758  function transferOwnership(address newOwner) public virtual onlyOwner {... */\n      pop\n      jump\t// out\n        /* \"Product Tracker Smart Contract/ProductTracker.sol\":405:475  bytes32 public constant AUTHORIZED_ROLE = keccak256(\"AUTHORIZED_ROLE\") */\n    tag_82:\n        /* \"Product Tracker Smart Contract/ProductTracker.sol\":447:475  keccak256(\"AUTHORIZED_ROLE\") */\n      0x0393b4c1b6519e8b53ae0efa1ab522060a3b9f8d86d09c8a22ca6d6eea735cf7\n        /* \"Product Tracker Smart Contract/ProductTracker.sol\":405:475  bytes32 public constant AUTHORIZED_ROLE = keccak256(\"AUTHORIZED_ROLE\") */\n      dup2\n      jump\t// out\n        /* \"@openzeppelin/contracts/utils/introspection/ERC165.sol\":762:908  function supportsInterface(bytes4 interfaceId) public view virtual returns (bool) {... */\n    tag_87:\n        /* \"@openzeppelin/contracts/utils/introspection/ERC165.sol\":838:842  bool */\n      0x00\n        /* \"@openzeppelin/contracts/utils/introspection/ERC165.sol\":876:901  type(IERC165).interfaceId */\n      0x01ffc9a700000000000000000000000000000000000000000000000000000000\n        /* \"@openzeppelin/contracts/utils/introspection/ERC165.sol\":861:901  interfaceId == type(IERC165).interfaceId */\n      not(0xffffffffffffffffffffffffffffffffffffffffffffffffffffffff)\n      and\n        /* \"@openzeppelin/contracts/utils/introspection/ERC165.sol\":861:872  interfaceId */\n      dup3\n        /* \"@openzeppelin/contracts/utils/introspection/ERC165.sol\":861:901  interfaceId == type(IERC165).interfaceId */\n      not(0xffffffffffffffffffffffffffffffffffffffffffffffffffffffff)\n      and\n      eq\n        /* \"@openzeppelin/contracts/utils/introspection/ERC165.sol\":854:901  return interfaceId == type(IERC165).interfaceId */\n      swap1\n      pop\n        /* \"@openzeppelin/contracts/utils/introspection/ERC165.sol\":762:908  function supportsInterface(bytes4 interfaceId) public view virtual returns (bool) {... */\n      swap2\n      swap1\n      pop\n      jump\t// out\n        /* \"@openzeppelin/contracts/access/AccessControl.sol\":3199:3302  function _checkRole(bytes32 role) internal view virtual {... */\n    tag_107:\n        /* \"@openzeppelin/contracts/access/AccessControl.sol\":3265:3295  _checkRole(role, _msgSender()) */\n      tag_205\n        /* \"@openzeppelin/contracts/access/AccessControl.sol\":3276:3280  role */\n      dup2\n        /* \"@openzeppelin/contracts/access/AccessControl.sol\":3282:3294  _msgSender() */\n      tag_206\n        /* \"@openzeppelin/contracts/access/AccessControl.sol\":3282:3292  _msgSender */\n      tag_113\n        /* \"@openzeppelin/contracts/access/AccessControl.sol\":3282:3294  _msgSender() */\n      jump\t// in\n    tag_206:\n        /* \"@openzeppelin/contracts/access/AccessControl.sol\":3265:3275  _checkRole */\n      tag_207\n        /* \"@openzeppelin/contracts/access/AccessControl.sol\":3265:3295  _checkRole(role, _msgSender()) */\n      jump\t// in\n    tag_205:\n        /* \"@openzeppelin/contracts/access/AccessControl.sol\":3199:3302  function _checkRole(bytes32 role) internal view virtual {... */\n      pop\n      jump\t// out\n        /* \"@openzeppelin/contracts/access/AccessControl.sol\":6179:6495  function _grantRole(bytes32 role, address account) internal virtual returns (bool) {... */\n    tag_110:\n        /* \"@openzeppelin/contracts/access/AccessControl.sol\":6256:6260  bool */\n      0x00\n        /* \"@openzeppelin/contracts/access/AccessControl.sol\":6277:6299  hasRole(role, account) */\n      tag_209\n        /* \"@openzeppelin/contracts/access/AccessControl.sol\":6285:6289  role */\n      dup4\n        /* \"@openzeppelin/contracts/access/AccessControl.sol\":6291:6298  account */\n      dup4\n        /* \"@openzeppelin/contracts/access/AccessControl.sol\":6277:6284  hasRole */\n      tag_63\n        /* \"@openzeppelin/contracts/access/AccessControl.sol\":6277:6299  hasRole(role, account) */\n      jump\t// in\n    tag_209:\n        /* \"@openzeppelin/contracts/access/AccessControl.sol\":6272:6489  if (!hasRole(role, account)) {... */\n      tag_210\n      jumpi\n        /* \"@openzeppelin/contracts/access/AccessControl.sol\":6347:6351  true */\n      0x01\n        /* \"@openzeppelin/contracts/access/AccessControl.sol\":6315:6321  _roles */\n      dup1\n        /* \"@openzeppelin/contracts/access/AccessControl.sol\":6315:6327  _roles[role] */\n      0x00\n        /* \"@openzeppelin/contracts/access/AccessControl.sol\":6322:6326  role */\n      dup6\n        /* \"@openzeppelin/contracts/access/AccessControl.sol\":6315:6327  _roles[role] */\n      dup2\n      mstore\n      0x20\n      add\n      swap1\n      dup2\n      mstore\n      0x20\n      add\n      0x00\n      keccak256\n        /* \"@openzeppelin/contracts/access/AccessControl.sol\":6315:6335  _roles[role].hasRole */\n      0x00\n      add\n        /* \"@openzeppelin/contracts/access/AccessControl.sol\":6315:6344  _roles[role].hasRole[account] */\n      0x00\n        /* \"@openzeppelin/contracts/access/AccessControl.sol\":6336:6343  account */\n      dup5\n        /* \"@openzeppelin/contracts/access/AccessControl.sol\":6315:6344  _roles[role].hasRole[account] */\n      0xffffffffffffffffffffffffffffffffffffffff\n      and\n      0xffffffffffffffffffffffffffffffffffffffff\n      and\n      dup2\n      mstore\n      0x20\n      add\n      swap1\n      dup2\n      mstore\n      0x20\n      add\n      0x00\n      keccak256\n      0x00\n        /* \"@openzeppelin/contracts/access/AccessControl.sol\":6315:6351  _roles[role].hasRole[account] = true */\n      0x0100\n      exp\n      dup2\n      sload\n      dup2\n      0xff\n      mul\n      not\n      and\n      swap1\n      dup4\n      iszero\n      iszero\n      mul\n      or\n      swap1\n      sstore\n      pop\n        /* \"@openzeppelin/contracts/access/AccessControl.sol\":6397:6409  _msgSender() */\n      tag_211\n        /* \"@openzeppelin/contracts/access/AccessControl.sol\":6397:6407  _msgSender */\n      tag_113\n        /* \"@openzeppelin/contracts/access/AccessControl.sol\":6397:6409  _msgSender() */\n      jump\t// in\n    tag_211:\n        /* \"@openzeppelin/contracts/access/AccessControl.sol\":6370:6410  RoleGranted(role, account, _msgSender()) */\n      0xffffffffffffffffffffffffffffffffffffffff\n      and\n        /* \"@openzeppelin/contracts/access/AccessControl.sol\":6388:6395  account */\n      dup3\n        /* \"@openzeppelin/contracts/access/AccessControl.sol\":6370:6410  RoleGranted(role, account, _msgSender()) */\n      0xffffffffffffffffffffffffffffffffffffffff\n      and\n        /* \"@openzeppelin/contracts/access/AccessControl.sol\":6382:6386  role */\n      dup5\n        /* \"@openzeppelin/contracts/access/AccessControl.sol\":6370:6410  RoleGranted(role, account, _msgSender()) */\n      0x2f8788117e7eff1d82e926ec794901d17c78024a50270940304540a733656f0d\n      mload(0x40)\n      mload(0x40)\n      dup1\n      swap2\n      sub\n      swap1\n      log4\n        /* \"@openzeppelin/contracts/access/AccessControl.sol\":6431:6435  true */\n      0x01\n        /* \"@openzeppelin/contracts/access/AccessControl.sol\":6424:6435  return true */\n      swap1\n      pop\n      jump(tag_208)\n        /* \"@openzeppelin/contracts/access/AccessControl.sol\":6272:6489  if (!hasRole(role, account)) {... */\n    tag_210:\n        /* \"@openzeppelin/contracts/access/AccessControl.sol\":6473:6478  false */\n      0x00\n        /* \"@openzeppelin/contracts/access/AccessControl.sol\":6466:6478  return false */\n      swap1\n      pop\n        /* \"@openzeppelin/contracts/access/AccessControl.sol\":6179:6495  function _grantRole(bytes32 role, address account) internal virtual returns (bool) {... */\n    tag_208:\n      swap3\n      swap2\n      pop\n      pop\n      jump\t// out\n        /* \"@openzeppelin/contracts/utils/Context.sol\":656:752  function _msgSender() internal view virtual returns (address) {... */\n    tag_113:\n        /* \"@openzeppelin/contracts/utils/Context.sol\":709:716  address */\n      0x00\n        /* \"@openzeppelin/contracts/utils/Context.sol\":735:745  msg.sender */\n      caller\n        /* \"@openzeppelin/contracts/utils/Context.sol\":728:745  return msg.sender */\n      swap1\n      pop\n        /* \"@openzeppelin/contracts/utils/Context.sol\":656:752  function _msgSender() internal view virtual returns (address) {... */\n      swap1\n      jump\t// out\n        /* \"@openzeppelin/contracts/access/AccessControl.sol\":6730:7047  function _revokeRole(bytes32 role, address account) internal virtual returns (bool) {... */\n    tag_116:\n        /* \"@openzeppelin/contracts/access/AccessControl.sol\":6808:6812  bool */\n      0x00\n        /* \"@openzeppelin/contracts/access/AccessControl.sol\":6828:6850  hasRole(role, account) */\n      tag_215\n        /* \"@openzeppelin/contracts/access/AccessControl.sol\":6836:6840  role */\n      dup4\n        /* \"@openzeppelin/contracts/access/AccessControl.sol\":6842:6849  account */\n      dup4\n        /* \"@openzeppelin/contracts/access/AccessControl.sol\":6828:6835  hasRole */\n      tag_63\n        /* \"@openzeppelin/contracts/access/AccessControl.sol\":6828:6850  hasRole(role, account) */\n      jump\t// in\n    tag_215:\n        /* \"@openzeppelin/contracts/access/AccessControl.sol\":6824:7041  if (hasRole(role, account)) {... */\n      iszero\n      tag_216\n      jumpi\n        /* \"@openzeppelin/contracts/access/AccessControl.sol\":6898:6903  false */\n      0x00\n        /* \"@openzeppelin/contracts/access/AccessControl.sol\":6866:6872  _roles */\n      0x01\n        /* \"@openzeppelin/contracts/access/AccessControl.sol\":6866:6878  _roles[role] */\n      0x00\n        /* \"@openzeppelin/contracts/access/AccessControl.sol\":6873:6877  role */\n      dup6\n        /* \"@openzeppelin/contracts/access/AccessControl.sol\":6866:6878  _roles[role] */\n      dup2\n      mstore\n      0x20\n      add\n      swap1\n      dup2\n      mstore\n      0x20\n      add\n      0x00\n      keccak256\n        /* \"@openzeppelin/contracts/access/AccessControl.sol\":6866:6886  _roles[role].hasRole */\n      0x00\n      add\n        /* \"@openzeppelin/contracts/access/AccessControl.sol\":6866:6895  _roles[role].hasRole[account] */\n      0x00\n        /* \"@openzeppelin/contracts/access/AccessControl.sol\":6887:6894  account */\n      dup5\n        /* \"@openzeppelin/contracts/access/AccessControl.sol\":6866:6895  _roles[role].hasRole[account] */\n      0xffffffffffffffffffffffffffffffffffffffff\n      and\n      0xffffffffffffffffffffffffffffffffffffffff\n      and\n      dup2\n      mstore\n      0x20\n      add\n      swap1\n      dup2\n      mstore\n      0x20\n      add\n      0x00\n      keccak256\n      0x00\n        /* \"@openzeppelin/contracts/access/AccessControl.sol\":6866:6903  _roles[role].hasRole[account] = false */\n      0x0100\n      exp\n      dup2\n      sload\n      dup2\n      0xff\n      mul\n      not\n      and\n      swap1\n      dup4\n      iszero\n      iszero\n      mul\n      or\n      swap1\n      sstore\n      pop\n        /* \"@openzeppelin/contracts/access/AccessControl.sol\":6949:6961  _msgSender() */\n      tag_217\n        /* \"@openzeppelin/contracts/access/AccessControl.sol\":6949:6959  _msgSender */\n      tag_113\n        /* \"@openzeppelin/contracts/access/AccessControl.sol\":6949:6961  _msgSender() */\n      jump\t// in\n    tag_217:\n        /* \"@openzeppelin/contracts/access/AccessControl.sol\":6922:6962  RoleRevoked(role, account, _msgSender()) */\n      0xffffffffffffffffffffffffffffffffffffffff\n      and\n        /* \"@openzeppelin/contracts/access/AccessControl.sol\":6940:6947  account */\n      dup3\n        /* \"@openzeppelin/contracts/access/AccessControl.sol\":6922:6962  RoleRevoked(role, account, _msgSender()) */\n      0xffffffffffffffffffffffffffffffffffffffff\n      and\n        /* \"@openzeppelin/contracts/access/AccessControl.sol\":6934:6938  role */\n      dup5\n        /* \"@openzeppelin/contracts/access/AccessControl.sol\":6922:6962  RoleRevoked(role, account, _msgSender()) */\n      0xf6391f5c32d9c69d2a47ea670b442974b53935d1edc7fd64eb21e047a839171b\n      mload(0x40)\n      mload(0x40)\n      dup1\n      swap2\n      sub\n      swap1\n      log4\n        /* \"@openzeppelin/contracts/access/AccessControl.sol\":6983:6987  true */\n      0x01\n        /* \"@openzeppelin/contracts/access/AccessControl.sol\":6976:6987  return true */\n      swap1\n      pop\n      jump(tag_214)\n        /* \"@openzeppelin/contracts/access/AccessControl.sol\":6824:7041  if (hasRole(role, account)) {... */\n    tag_216:\n        /* \"@openzeppelin/contracts/access/AccessControl.sol\":7025:7030  false */\n      0x00\n        /* \"@openzeppelin/contracts/access/AccessControl.sol\":7018:7030  return false */\n      swap1\n      pop\n        /* \"@openzeppelin/contracts/access/AccessControl.sol\":6730:7047  function _revokeRole(bytes32 role, address account) internal virtual returns (bool) {... */\n    tag_214:\n      swap3\n      swap2\n      pop\n      pop\n      jump\t// out\n        /* \"@openzeppelin/contracts/access/Ownable.sol\":1796:1958  function _checkOwner() internal view virtual {... */\n    tag_119:\n        /* \"@openzeppelin/contracts/access/Ownable.sol\":1866:1878  _msgSender() */\n      tag_220\n        /* \"@openzeppelin/contracts/access/Ownable.sol\":1866:1876  _msgSender */\n      tag_113\n        /* \"@openzeppelin/contracts/access/Ownable.sol\":1866:1878  _msgSender() */\n      jump\t// in\n    tag_220:\n        /* \"@openzeppelin/contracts/access/Ownable.sol\":1855:1878  owner() != _msgSender() */\n      0xffffffffffffffffffffffffffffffffffffffff\n      and\n        /* \"@openzeppelin/contracts/access/Ownable.sol\":1855:1862  owner() */\n      tag_221\n        /* \"@openzeppelin/contracts/access/Ownable.sol\":1855:1860  owner */\n      tag_54\n        /* \"@openzeppelin/contracts/access/Ownable.sol\":1855:1862  owner() */\n      jump\t// in\n    tag_221:\n        /* \"@openzeppelin/contracts/access/Ownable.sol\":1855:1878  owner() != _msgSender() */\n      0xffffffffffffffffffffffffffffffffffffffff\n      and\n      eq\n        /* \"@openzeppelin/contracts/access/Ownable.sol\":1851:1952  if (owner() != _msgSender()) {... */\n      tag_222\n      jumpi\n        /* \"@openzeppelin/contracts/access/Ownable.sol\":1928:1940  _msgSender() */\n      tag_223\n        /* \"@openzeppelin/contracts/access/Ownable.sol\":1928:1938  _msgSender */\n      tag_113\n        /* \"@openzeppelin/contracts/access/Ownable.sol\":1928:1940  _msgSender() */\n      jump\t// in\n    tag_223:\n        /* \"@openzeppelin/contracts/access/Ownable.sol\":1901:1941  OwnableUnauthorizedAccount(_msgSender()) */\n      mload(0x40)\n      0x118cdaa700000000000000000000000000000000000000000000000000000000\n      dup2\n      mstore\n      0x04\n      add\n      tag_224\n      swap2\n      swap1\n      tag_56\n      jump\t// in\n    tag_224:\n      mload(0x40)\n      dup1\n      swap2\n      sub\n      swap1\n      revert\n        /* \"@openzeppelin/contracts/access/Ownable.sol\":1851:1952  if (owner() != _msgSender()) {... */\n    tag_222:\n        /* \"@openzeppelin/contracts/access/Ownable.sol\":1796:1958  function _checkOwner() internal view virtual {... */\n      jump\t// out\n        /* \"@openzeppelin/contracts/access/Ownable.sol\":2912:3099  function _transferOwnership(address newOwner) internal virtual {... */\n    tag_122:\n        /* \"@openzeppelin/contracts/access/Ownable.sol\":2985:3001  address oldOwner */\n      0x00\n        /* \"@openzeppelin/contracts/access/Ownable.sol\":3004:3010  _owner */\n      dup1\n      0x00\n      swap1\n      sload\n      swap1\n      0x0100\n      exp\n      swap1\n      div\n      0xffffffffffffffffffffffffffffffffffffffff\n      and\n        /* \"@openzeppelin/contracts/access/Ownable.sol\":2985:3010  address oldOwner = _owner */\n      swap1\n      pop\n        /* \"@openzeppelin/contracts/access/Ownable.sol\":3029:3037  newOwner */\n      dup2\n        /* \"@openzeppelin/contracts/access/Ownable.sol\":3020:3026  _owner */\n      0x00\n      dup1\n        /* \"@openzeppelin/contracts/access/Ownable.sol\":3020:3037  _owner = newOwner */\n      0x0100\n      exp\n      dup2\n      sload\n      dup2\n      0xffffffffffffffffffffffffffffffffffffffff\n      mul\n      not\n      and\n      swap1\n      dup4\n      0xffffffffffffffffffffffffffffffffffffffff\n      and\n      mul\n      or\n      swap1\n      sstore\n      pop\n        /* \"@openzeppelin/contracts/access/Ownable.sol\":3083:3091  newOwner */\n      dup2\n        /* \"@openzeppelin/contracts/access/Ownable.sol\":3052:3092  OwnershipTransferred(oldOwner, newOwner) */\n      0xffffffffffffffffffffffffffffffffffffffff\n      and\n        /* \"@openzeppelin/contracts/access/Ownable.sol\":3073:3081  oldOwner */\n      dup2\n        /* \"@openzeppelin/contracts/access/Ownable.sol\":3052:3092  OwnershipTransferred(oldOwner, newOwner) */\n      0xffffffffffffffffffffffffffffffffffffffff\n      and\n      0x8be0079c531659141344cd1fd0a4f28419497f9722a3daafe3b4186f6b6457e0\n      mload(0x40)\n      mload(0x40)\n      dup1\n      swap2\n      sub\n      swap1\n      log3\n        /* \"@openzeppelin/contracts/access/Ownable.sol\":2975:3099  {... */\n      pop\n        /* \"@openzeppelin/contracts/access/Ownable.sol\":2912:3099  function _transferOwnership(address newOwner) internal virtual {... */\n      pop\n      jump\t// out\n        /* \"@openzeppelin/contracts/access/AccessControl.sol\":3432:3629  function _checkRole(bytes32 role, address account) internal view virtual {... */\n    tag_207:\n        /* \"@openzeppelin/contracts/access/AccessControl.sol\":3520:3542  hasRole(role, account) */\n      tag_227\n        /* \"@openzeppelin/contracts/access/AccessControl.sol\":3528:3532  role */\n      dup3\n        /* \"@openzeppelin/contracts/access/AccessControl.sol\":3534:3541  account */\n      dup3\n        /* \"@openzeppelin/contracts/access/AccessControl.sol\":3520:3527  hasRole */\n      tag_63\n        /* \"@openzeppelin/contracts/access/AccessControl.sol\":3520:3542  hasRole(role, account) */\n      jump\t// in\n    tag_227:\n        /* \"@openzeppelin/contracts/access/AccessControl.sol\":3515:3623  if (!hasRole(role, account)) {... */\n      tag_228\n      jumpi\n        /* \"@openzeppelin/contracts/access/AccessControl.sol\":3598:3605  account */\n      dup1\n        /* \"@openzeppelin/contracts/access/AccessControl.sol\":3607:3611  role */\n      dup3\n        /* \"@openzeppelin/contracts/access/AccessControl.sol\":3565:3612  AccessControlUnauthorizedAccount(account, role) */\n      mload(0x40)\n      0xe2517d3f00000000000000000000000000000000000000000000000000000000\n      dup2\n      mstore\n      0x04\n      add\n      tag_229\n      swap3\n      swap2\n      swap1\n      tag_230\n      jump\t// in\n    tag_229:\n      mload(0x40)\n      dup1\n      swap2\n      sub\n      swap1\n      revert\n        /* \"@openzeppelin/contracts/access/AccessControl.sol\":3515:3623  if (!hasRole(role, account)) {... */\n    tag_228:\n        /* \"@openzeppelin/contracts/access/AccessControl.sol\":3432:3629  function _checkRole(bytes32 role, address account) internal view virtual {... */\n      pop\n      pop\n      jump\t// out\n    tag_182:\n      dup3\n      dup1\n      sload\n      dup3\n      dup3\n      sstore\n      swap1\n      0x00\n      mstore\n      keccak256(0x00, 0x20)\n      swap1\n      dup2\n      add\n      swap3\n      dup3\n      iszero\n      tag_231\n      jumpi\n      swap2\n      0x20\n      mul\n      dup3\n      add\n    tag_232:\n      dup3\n      dup2\n      gt\n      iszero\n      tag_233\n      jumpi\n      dup3\n      mload\n      dup3\n      swap1\n      dup2\n      tag_234\n      swap2\n      swap1\n      tag_100\n      jump\t// in\n    tag_234:\n      pop\n      swap2\n      0x20\n      add\n      swap2\n      swap1\n      0x01\n      add\n      swap1\n      jump(tag_232)\n    tag_233:\n    tag_231:\n      pop\n      swap1\n      pop\n      tag_235\n      swap2\n      swap1\n      tag_236\n      jump\t// in\n    tag_235:\n      pop\n      swap1\n      jump\t// out\n    tag_236:\n    tag_237:\n      dup1\n      dup3\n      gt\n      iszero\n      tag_238\n      jumpi\n      0x00\n      dup2\n      dup2\n      tag_239\n      swap2\n      swap1\n      tag_240\n      jump\t// in\n    tag_239:\n      pop\n      0x01\n      add\n      jump(tag_237)\n    tag_238:\n      pop\n      swap1\n      jump\t// out\n    tag_240:\n      pop\n      dup1\n      sload\n      tag_241\n      swap1\n      tag_124\n      jump\t// in\n    tag_241:\n      0x00\n      dup3\n      sstore\n      dup1\n      0x1f\n      lt\n      tag_243\n      jumpi\n      pop\n      jump(tag_242)\n    tag_243:\n      0x1f\n      add\n      0x20\n      swap1\n      div\n      swap1\n      0x00\n      mstore\n      keccak256(0x00, 0x20)\n      swap1\n      dup2\n      add\n      swap1\n      tag_244\n      swap2\n      swap1\n      tag_245\n      jump\t// in\n    tag_244:\n    tag_242:\n      pop\n      jump\t// out\n    tag_245:\n    tag_246:\n      dup1\n      dup3\n      gt\n      iszero\n      tag_247\n      jumpi\n      0x00\n      dup2\n      0x00\n      swap1\n      sstore\n      pop\n      0x01\n      add\n      jump(tag_246)\n    tag_247:\n      pop\n      swap1\n      jump\t// out\n        /* \"#utility.yul\":7:82   */\n    tag_248:\n        /* \"#utility.yul\":40:46   */\n      0x00\n        /* \"#utility.yul\":73:75   */\n      0x40\n        /* \"#utility.yul\":67:76   */\n      mload\n        /* \"#utility.yul\":57:76   */\n      swap1\n      pop\n        /* \"#utility.yul\":7:82   */\n      swap1\n      jump\t// out\n        /* \"#utility.yul\":88:205   */\n    tag_249:\n        /* \"#utility.yul\":197:198   */\n      0x00\n        /* \"#utility.yul\":194:195   */\n      dup1\n        /* \"#utility.yul\":187:199   */\n      revert\n        /* \"#utility.yul\":211:328   */\n    tag_250:\n        /* \"#utility.yul\":320:321   */\n      0x00\n        /* \"#utility.yul\":317:318   */\n      dup1\n        /* \"#utility.yul\":310:322   */\n      revert\n        /* \"#utility.yul\":334:483   */\n    tag_251:\n        /* \"#utility.yul\":370:377   */\n      0x00\n        /* \"#utility.yul\":410:476   */\n      0xffffffff00000000000000000000000000000000000000000000000000000000\n        /* \"#utility.yul\":403:408   */\n      dup3\n        /* \"#utility.yul\":399:477   */\n      and\n        /* \"#utility.yul\":388:477   */\n      swap1\n      pop\n        /* \"#utility.yul\":334:483   */\n      swap2\n      swap1\n      pop\n      jump\t// out\n        /* \"#utility.yul\":489:609   */\n    tag_252:\n        /* \"#utility.yul\":561:584   */\n      tag_350\n        /* \"#utility.yul\":578:583   */\n      dup2\n        /* \"#utility.yul\":561:584   */\n      tag_251\n      jump\t// in\n    tag_350:\n        /* \"#utility.yul\":554:559   */\n      dup2\n        /* \"#utility.yul\":551:585   */\n      eq\n        /* \"#utility.yul\":541:603   */\n      tag_351\n      jumpi\n        /* \"#utility.yul\":599:600   */\n      0x00\n        /* \"#utility.yul\":596:597   */\n      dup1\n        /* \"#utility.yul\":589:601   */\n      revert\n        /* \"#utility.yul\":541:603   */\n    tag_351:\n        /* \"#utility.yul\":489:609   */\n      pop\n      jump\t// out\n        /* \"#utility.yul\":615:752   */\n    tag_253:\n        /* \"#utility.yul\":660:665   */\n      0x00\n        /* \"#utility.yul\":698:704   */\n      dup2\n        /* \"#utility.yul\":685:705   */\n      calldataload\n        /* \"#utility.yul\":676:705   */\n      swap1\n      pop\n        /* \"#utility.yul\":714:746   */\n      tag_353\n        /* \"#utility.yul\":740:745   */\n      dup2\n        /* \"#utility.yul\":714:746   */\n      tag_252\n      jump\t// in\n    tag_353:\n        /* \"#utility.yul\":615:752   */\n      swap3\n      swap2\n      pop\n      pop\n      jump\t// out\n        /* \"#utility.yul\":758:1085   */\n    tag_24:\n        /* \"#utility.yul\":816:822   */\n      0x00\n        /* \"#utility.yul\":865:867   */\n      0x20\n        /* \"#utility.yul\":853:862   */\n      dup3\n        /* \"#utility.yul\":844:851   */\n      dup5\n        /* \"#utility.yul\":840:863   */\n      sub\n        /* \"#utility.yul\":836:868   */\n      slt\n        /* \"#utility.yul\":833:952   */\n      iszero\n      tag_355\n      jumpi\n        /* \"#utility.yul\":871:950   */\n      tag_356\n      tag_249\n      jump\t// in\n    tag_356:\n        /* \"#utility.yul\":833:952   */\n    tag_355:\n        /* \"#utility.yul\":991:992   */\n      0x00\n        /* \"#utility.yul\":1016:1068   */\n      tag_357\n        /* \"#utility.yul\":1060:1067   */\n      dup5\n        /* \"#utility.yul\":1051:1057   */\n      dup3\n        /* \"#utility.yul\":1040:1049   */\n      dup6\n        /* \"#utility.yul\":1036:1058   */\n      add\n        /* \"#utility.yul\":1016:1068   */\n      tag_253\n      jump\t// in\n    tag_357:\n        /* \"#utility.yul\":1006:1068   */\n      swap2\n      pop\n        /* \"#utility.yul\":962:1078   */\n      pop\n        /* \"#utility.yul\":758:1085   */\n      swap3\n      swap2\n      pop\n      pop\n      jump\t// out\n        /* \"#utility.yul\":1091:1181   */\n    tag_254:\n        /* \"#utility.yul\":1125:1132   */\n      0x00\n        /* \"#utility.yul\":1168:1173   */\n      dup2\n        /* \"#utility.yul\":1161:1174   */\n      iszero\n        /* \"#utility.yul\":1154:1175   */\n      iszero\n        /* \"#utility.yul\":1143:1175   */\n      swap1\n      pop\n        /* \"#utility.yul\":1091:1181   */\n      swap2\n      swap1\n      pop\n      jump\t// out\n        /* \"#utility.yul\":1187:1296   */\n    tag_255:\n        /* \"#utility.yul\":1268:1289   */\n      tag_360\n        /* \"#utility.yul\":1283:1288   */\n      dup2\n        /* \"#utility.yul\":1268:1289   */\n      tag_254\n      jump\t// in\n    tag_360:\n        /* \"#utility.yul\":1263:1266   */\n      dup3\n        /* \"#utility.yul\":1256:1290   */\n      mstore\n        /* \"#utility.yul\":1187:1296   */\n      pop\n      pop\n      jump\t// out\n        /* \"#utility.yul\":1302:1512   */\n    tag_27:\n        /* \"#utility.yul\":1389:1393   */\n      0x00\n        /* \"#utility.yul\":1427:1429   */\n      0x20\n        /* \"#utility.yul\":1416:1425   */\n      dup3\n        /* \"#utility.yul\":1412:1430   */\n      add\n        /* \"#utility.yul\":1404:1430   */\n      swap1\n      pop\n        /* \"#utility.yul\":1440:1505   */\n      tag_362\n        /* \"#utility.yul\":1502:1503   */\n      0x00\n        /* \"#utility.yul\":1491:1500   */\n      dup4\n        /* \"#utility.yul\":1487:1504   */\n      add\n        /* \"#utility.yul\":1478:1484   */\n      dup5\n        /* \"#utility.yul\":1440:1505   */\n      tag_255\n      jump\t// in\n    tag_362:\n        /* \"#utility.yul\":1302:1512   */\n      swap3\n      swap2\n      pop\n      pop\n      jump\t// out\n        /* \"#utility.yul\":1518:1595   */\n    tag_256:\n        /* \"#utility.yul\":1555:1562   */\n      0x00\n        /* \"#utility.yul\":1584:1589   */\n      dup2\n        /* \"#utility.yul\":1573:1589   */\n      swap1\n      pop\n        /* \"#utility.yul\":1518:1595   */\n      swap2\n      swap1\n      pop\n      jump\t// out\n        /* \"#utility.yul\":1601:1723   */\n    tag_257:\n        /* \"#utility.yul\":1674:1698   */\n      tag_365\n        /* \"#utility.yul\":1692:1697   */\n      dup2\n        /* \"#utility.yul\":1674:1698   */\n      tag_256\n      jump\t// in\n    tag_365:\n        /* \"#utility.yul\":1667:1672   */\n      dup2\n        /* \"#utility.yul\":1664:1699   */\n      eq\n        /* \"#utility.yul\":1654:1717   */\n      tag_366\n      jumpi\n        /* \"#utility.yul\":1713:1714   */\n      0x00\n        /* \"#utility.yul\":1710:1711   */\n      dup1\n        /* \"#utility.yul\":1703:1715   */\n      revert\n        /* \"#utility.yul\":1654:1717   */\n    tag_366:\n        /* \"#utility.yul\":1601:1723   */\n      pop\n      jump\t// out\n        /* \"#utility.yul\":1729:1868   */\n    tag_258:\n        /* \"#utility.yul\":1775:1780   */\n      0x00\n        /* \"#utility.yul\":1813:1819   */\n      dup2\n        /* \"#utility.yul\":1800:1820   */\n      calldataload\n        /* \"#utility.yul\":1791:1820   */\n      swap1\n      pop\n        /* \"#utility.yul\":1829:1862   */\n      tag_368\n        /* \"#utility.yul\":1856:1861   */\n      dup2\n        /* \"#utility.yul\":1829:1862   */\n      tag_257\n      jump\t// in\n    tag_368:\n        /* \"#utility.yul\":1729:1868   */\n      swap3\n      swap2\n      pop\n      pop\n      jump\t// out\n        /* \"#utility.yul\":1874:1991   */\n    tag_259:\n        /* \"#utility.yul\":1983:1984   */\n      0x00\n        /* \"#utility.yul\":1980:1981   */\n      dup1\n        /* \"#utility.yul\":1973:1985   */\n      revert\n        /* \"#utility.yul\":1997:2114   */\n    tag_260:\n        /* \"#utility.yul\":2106:2107   */\n      0x00\n        /* \"#utility.yul\":2103:2104   */\n      dup1\n        /* \"#utility.yul\":2096:2108   */\n      revert\n        /* \"#utility.yul\":2120:2222   */\n    tag_261:\n        /* \"#utility.yul\":2161:2167   */\n      0x00\n        /* \"#utility.yul\":2212:2214   */\n      0x1f\n        /* \"#utility.yul\":2208:2215   */\n      not\n        /* \"#utility.yul\":2203:2205   */\n      0x1f\n        /* \"#utility.yul\":2196:2201   */\n      dup4\n        /* \"#utility.yul\":2192:2206   */\n      add\n        /* \"#utility.yul\":2188:2216   */\n      and\n        /* \"#utility.yul\":2178:2216   */\n      swap1\n      pop\n        /* \"#utility.yul\":2120:2222   */\n      swap2\n      swap1\n      pop\n      jump\t// out\n        /* \"#utility.yul\":2228:2408   */\n    tag_262:\n        /* \"#utility.yul\":2276:2353   */\n      0x4e487b7100000000000000000000000000000000000000000000000000000000\n        /* \"#utility.yul\":2273:2274   */\n      0x00\n        /* \"#utility.yul\":2266:2354   */\n      mstore\n        /* \"#utility.yul\":2373:2377   */\n      0x41\n        /* \"#utility.yul\":2370:2371   */\n      0x04\n        /* \"#utility.yul\":2363:2378   */\n      mstore\n        /* \"#utility.yul\":2397:2401   */\n      0x24\n        /* \"#utility.yul\":2394:2395   */\n      0x00\n        /* \"#utility.yul\":2387:2402   */\n      revert\n        /* \"#utility.yul\":2414:2695   */\n    tag_263:\n        /* \"#utility.yul\":2497:2524   */\n      tag_374\n        /* \"#utility.yul\":2519:2523   */\n      dup3\n        /* \"#utility.yul\":2497:2524   */\n      tag_261\n      jump\t// in\n    tag_374:\n        /* \"#utility.yul\":2489:2495   */\n      dup2\n        /* \"#utility.yul\":2485:2525   */\n      add\n        /* \"#utility.yul\":2627:2633   */\n      dup2\n        /* \"#utility.yul\":2615:2625   */\n      dup2\n        /* \"#utility.yul\":2612:2634   */\n      lt\n        /* \"#utility.yul\":2591:2609   */\n      0xffffffffffffffff\n        /* \"#utility.yul\":2579:2589   */\n      dup3\n        /* \"#utility.yul\":2576:2610   */\n      gt\n        /* \"#utility.yul\":2573:2635   */\n      or\n        /* \"#utility.yul\":2570:2658   */\n      iszero\n      tag_375\n      jumpi\n        /* \"#utility.yul\":2638:2656   */\n      tag_376\n      tag_262\n      jump\t// in\n    tag_376:\n        /* \"#utility.yul\":2570:2658   */\n    tag_375:\n        /* \"#utility.yul\":2678:2688   */\n      dup1\n        /* \"#utility.yul\":2674:2676   */\n      0x40\n        /* \"#utility.yul\":2667:2689   */\n      mstore\n        /* \"#utility.yul\":2457:2695   */\n      pop\n        /* \"#utility.yul\":2414:2695   */\n      pop\n      pop\n      jump\t// out\n        /* \"#utility.yul\":2701:2830   */\n    tag_264:\n        /* \"#utility.yul\":2735:2741   */\n      0x00\n        /* \"#utility.yul\":2762:2782   */\n      tag_378\n      tag_248\n      jump\t// in\n    tag_378:\n        /* \"#utility.yul\":2752:2782   */\n      swap1\n      pop\n        /* \"#utility.yul\":2791:2824   */\n      tag_379\n        /* \"#utility.yul\":2819:2823   */\n      dup3\n        /* \"#utility.yul\":2811:2817   */\n      dup3\n        /* \"#utility.yul\":2791:2824   */\n      tag_263\n      jump\t// in\n    tag_379:\n        /* \"#utility.yul\":2701:2830   */\n      swap2\n      swap1\n      pop\n      jump\t// out\n        /* \"#utility.yul\":2836:3144   */\n    tag_265:\n        /* \"#utility.yul\":2898:2902   */\n      0x00\n        /* \"#utility.yul\":2988:3006   */\n      0xffffffffffffffff\n        /* \"#utility.yul\":2980:2986   */\n      dup3\n        /* \"#utility.yul\":2977:3007   */\n      gt\n        /* \"#utility.yul\":2974:3030   */\n      iszero\n      tag_381\n      jumpi\n        /* \"#utility.yul\":3010:3028   */\n      tag_382\n      tag_262\n      jump\t// in\n    tag_382:\n        /* \"#utility.yul\":2974:3030   */\n    tag_381:\n        /* \"#utility.yul\":3048:3077   */\n      tag_383\n        /* \"#utility.yul\":3070:3076   */\n      dup3\n        /* \"#utility.yul\":3048:3077   */\n      tag_261\n      jump\t// in\n    tag_383:\n        /* \"#utility.yul\":3040:3077   */\n      swap1\n      pop\n        /* \"#utility.yul\":3132:3136   */\n      0x20\n        /* \"#utility.yul\":3126:3130   */\n      dup2\n        /* \"#utility.yul\":3122:3137   */\n      add\n        /* \"#utility.yul\":3114:3137   */\n      swap1\n      pop\n        /* \"#utility.yul\":2836:3144   */\n      swap2\n      swap1\n      pop\n      jump\t// out\n        /* \"#utility.yul\":3150:3298   */\n    tag_266:\n        /* \"#utility.yul\":3248:3254   */\n      dup3\n        /* \"#utility.yul\":3243:3246   */\n      dup2\n        /* \"#utility.yul\":3238:3241   */\n      dup4\n        /* \"#utility.yul\":3225:3255   */\n      calldatacopy\n        /* \"#utility.yul\":3289:3290   */\n      0x00\n        /* \"#utility.yul\":3280:3286   */\n      dup4\n        /* \"#utility.yul\":3275:3278   */\n      dup4\n        /* \"#utility.yul\":3271:3287   */\n      add\n        /* \"#utility.yul\":3264:3291   */\n      mstore\n        /* \"#utility.yul\":3150:3298   */\n      pop\n      pop\n      pop\n      jump\t// out\n        /* \"#utility.yul\":3304:3729   */\n    tag_267:\n        /* \"#utility.yul\":3382:3387   */\n      0x00\n        /* \"#utility.yul\":3407:3473   */\n      tag_386\n        /* \"#utility.yul\":3423:3472   */\n      tag_387\n        /* \"#utility.yul\":3465:3471   */\n      dup5\n        /* \"#utility.yul\":3423:3472   */\n      tag_265\n      jump\t// in\n    tag_387:\n        /* \"#utility.yul\":3407:3473   */\n      tag_264\n      jump\t// in\n    tag_386:\n        /* \"#utility.yul\":3398:3473   */\n      swap1\n      pop\n        /* \"#utility.yul\":3496:3502   */\n      dup3\n        /* \"#utility.yul\":3489:3494   */\n      dup2\n        /* \"#utility.yul\":3482:3503   */\n      mstore\n        /* \"#utility.yul\":3534:3538   */\n      0x20\n        /* \"#utility.yul\":3527:3532   */\n      dup2\n        /* \"#utility.yul\":3523:3539   */\n      add\n        /* \"#utility.yul\":3572:3575   */\n      dup5\n        /* \"#utility.yul\":3563:3569   */\n      dup5\n        /* \"#utility.yul\":3558:3561   */\n      dup5\n        /* \"#utility.yul\":3554:3570   */\n      add\n        /* \"#utility.yul\":3551:3576   */\n      gt\n        /* \"#utility.yul\":3548:3660   */\n      iszero\n      tag_388\n      jumpi\n        /* \"#utility.yul\":3579:3658   */\n      tag_389\n      tag_260\n      jump\t// in\n    tag_389:\n        /* \"#utility.yul\":3548:3660   */\n    tag_388:\n        /* \"#utility.yul\":3669:3723   */\n      tag_390\n        /* \"#utility.yul\":3716:3722   */\n      dup5\n        /* \"#utility.yul\":3711:3714   */\n      dup3\n        /* \"#utility.yul\":3706:3709   */\n      dup6\n        /* \"#utility.yul\":3669:3723   */\n      tag_266\n      jump\t// in\n    tag_390:\n        /* \"#utility.yul\":3388:3729   */\n      pop\n        /* \"#utility.yul\":3304:3729   */\n      swap4\n      swap3\n      pop\n      pop\n      pop\n      jump\t// out\n        /* \"#utility.yul\":3749:4089   */\n    tag_268:\n        /* \"#utility.yul\":3805:3810   */\n      0x00\n        /* \"#utility.yul\":3854:3857   */\n      dup3\n        /* \"#utility.yul\":3847:3851   */\n      0x1f\n        /* \"#utility.yul\":3839:3845   */\n      dup4\n        /* \"#utility.yul\":3835:3852   */\n      add\n        /* \"#utility.yul\":3831:3858   */\n      slt\n        /* \"#utility.yul\":3821:3943   */\n      tag_392\n      jumpi\n        /* \"#utility.yul\":3862:3941   */\n      tag_393\n      tag_259\n      jump\t// in\n    tag_393:\n        /* \"#utility.yul\":3821:3943   */\n    tag_392:\n        /* \"#utility.yul\":3979:3985   */\n      dup2\n        /* \"#utility.yul\":3966:3986   */\n      calldataload\n        /* \"#utility.yul\":4004:4083   */\n      tag_394\n        /* \"#utility.yul\":4079:4082   */\n      dup5\n        /* \"#utility.yul\":4071:4077   */\n      dup3\n        /* \"#utility.yul\":4064:4068   */\n      0x20\n        /* \"#utility.yul\":4056:4062   */\n      dup7\n        /* \"#utility.yul\":4052:4069   */\n      add\n        /* \"#utility.yul\":4004:4083   */\n      tag_267\n      jump\t// in\n    tag_394:\n        /* \"#utility.yul\":3995:4083   */\n      swap2\n      pop\n        /* \"#utility.yul\":3811:4089   */\n      pop\n        /* \"#utility.yul\":3749:4089   */\n      swap3\n      swap2\n      pop\n      pop\n      jump\t// out\n        /* \"#utility.yul\":4095:4749   */\n    tag_30:\n        /* \"#utility.yul\":4173:4179   */\n      0x00\n        /* \"#utility.yul\":4181:4187   */\n      dup1\n        /* \"#utility.yul\":4230:4232   */\n      0x40\n        /* \"#utility.yul\":4218:4227   */\n      dup4\n        /* \"#utility.yul\":4209:4216   */\n      dup6\n        /* \"#utility.yul\":4205:4228   */\n      sub\n        /* \"#utility.yul\":4201:4233   */\n      slt\n        /* \"#utility.yul\":4198:4317   */\n      iszero\n      tag_396\n      jumpi\n        /* \"#utility.yul\":4236:4315   */\n      tag_397\n      tag_249\n      jump\t// in\n    tag_397:\n        /* \"#utility.yul\":4198:4317   */\n    tag_396:\n        /* \"#utility.yul\":4356:4357   */\n      0x00\n        /* \"#utility.yul\":4381:4434   */\n      tag_398\n        /* \"#utility.yul\":4426:4433   */\n      dup6\n        /* \"#utility.yul\":4417:4423   */\n      dup3\n        /* \"#utility.yul\":4406:4415   */\n      dup7\n        /* \"#utility.yul\":4402:4424   */\n      add\n        /* \"#utility.yul\":4381:4434   */\n      tag_258\n      jump\t// in\n    tag_398:\n        /* \"#utility.yul\":4371:4434   */\n      swap3\n      pop\n        /* \"#utility.yul\":4327:4444   */\n      pop\n        /* \"#utility.yul\":4511:4513   */\n      0x20\n        /* \"#utility.yul\":4500:4509   */\n      dup4\n        /* \"#utility.yul\":4496:4514   */\n      add\n        /* \"#utility.yul\":4483:4515   */\n      calldataload\n        /* \"#utility.yul\":4542:4560   */\n      0xffffffffffffffff\n        /* \"#utility.yul\":4534:4540   */\n      dup2\n        /* \"#utility.yul\":4531:4561   */\n      gt\n        /* \"#utility.yul\":4528:4645   */\n      iszero\n      tag_399\n      jumpi\n        /* \"#utility.yul\":4564:4643   */\n      tag_400\n      tag_250\n      jump\t// in\n    tag_400:\n        /* \"#utility.yul\":4528:4645   */\n    tag_399:\n        /* \"#utility.yul\":4669:4732   */\n      tag_401\n        /* \"#utility.yul\":4724:4731   */\n      dup6\n        /* \"#utility.yul\":4715:4721   */\n      dup3\n        /* \"#utility.yul\":4704:4713   */\n      dup7\n        /* \"#utility.yul\":4700:4722   */\n      add\n        /* \"#utility.yul\":4669:4732   */\n      tag_268\n      jump\t// in\n    tag_401:\n        /* \"#utility.yul\":4659:4732   */\n      swap2\n      pop\n        /* \"#utility.yul\":4454:4742   */\n      pop\n        /* \"#utility.yul\":4095:4749   */\n      swap3\n      pop\n      swap3\n      swap1\n      pop\n      jump\t// out\n        /* \"#utility.yul\":4755:4832   */\n    tag_269:\n        /* \"#utility.yul\":4792:4799   */\n      0x00\n        /* \"#utility.yul\":4821:4826   */\n      dup2\n        /* \"#utility.yul\":4810:4826   */\n      swap1\n      pop\n        /* \"#utility.yul\":4755:4832   */\n      swap2\n      swap1\n      pop\n      jump\t// out\n        /* \"#utility.yul\":4838:4960   */\n    tag_270:\n        /* \"#utility.yul\":4911:4935   */\n      tag_404\n        /* \"#utility.yul\":4929:4934   */\n      dup2\n        /* \"#utility.yul\":4911:4935   */\n      tag_269\n      jump\t// in\n    tag_404:\n        /* \"#utility.yul\":4904:4909   */\n      dup2\n        /* \"#utility.yul\":4901:4936   */\n      eq\n        /* \"#utility.yul\":4891:4954   */\n      tag_405\n      jumpi\n        /* \"#utility.yul\":4950:4951   */\n      0x00\n        /* \"#utility.yul\":4947:4948   */\n      dup1\n        /* \"#utility.yul\":4940:4952   */\n      revert\n        /* \"#utility.yul\":4891:4954   */\n    tag_405:\n        /* \"#utility.yul\":4838:4960   */\n      pop\n      jump\t// out\n        /* \"#utility.yul\":4966:5105   */\n    tag_271:\n        /* \"#utility.yul\":5012:5017   */\n      0x00\n        /* \"#utility.yul\":5050:5056   */\n      dup2\n        /* \"#utility.yul\":5037:5057   */\n      calldataload\n        /* \"#utility.yul\":5028:5057   */\n      swap1\n      pop\n        /* \"#utility.yul\":5066:5099   */\n      tag_407\n        /* \"#utility.yul\":5093:5098   */\n      dup2\n        /* \"#utility.yul\":5066:5099   */\n      tag_270\n      jump\t// in\n    tag_407:\n        /* \"#utility.yul\":4966:5105   */\n      swap3\n      swap2\n      pop\n      pop\n      jump\t// out\n        /* \"#utility.yul\":5111:5440   */\n    tag_34:\n        /* \"#utility.yul\":5170:5176   */\n      0x00\n        /* \"#utility.yul\":5219:5221   */\n      0x20\n        /* \"#utility.yul\":5207:5216   */\n      dup3\n        /* \"#utility.yul\":5198:5205   */\n      dup5\n        /* \"#utility.yul\":5194:5217   */\n      sub\n        /* \"#utility.yul\":5190:5222   */\n      slt\n        /* \"#utility.yul\":5187:5306   */\n      iszero\n      tag_409\n      jumpi\n        /* \"#utility.yul\":5225:5304   */\n      tag_410\n      tag_249\n      jump\t// in\n    tag_410:\n        /* \"#utility.yul\":5187:5306   */\n    tag_409:\n        /* \"#utility.yul\":5345:5346   */\n      0x00\n        /* \"#utility.yul\":5370:5423   */\n      tag_411\n        /* \"#utility.yul\":5415:5422   */\n      dup5\n        /* \"#utility.yul\":5406:5412   */\n      dup3\n        /* \"#utility.yul\":5395:5404   */\n      dup6\n        /* \"#utility.yul\":5391:5413   */\n      add\n        /* \"#utility.yul\":5370:5423   */\n      tag_271\n      jump\t// in\n    tag_411:\n        /* \"#utility.yul\":5360:5423   */\n      swap2\n      pop\n        /* \"#utility.yul\":5316:5433   */\n      pop\n        /* \"#utility.yul\":5111:5440   */\n      swap3\n      swap2\n      pop\n      pop\n      jump\t// out\n        /* \"#utility.yul\":5446:5564   */\n    tag_272:\n        /* \"#utility.yul\":5533:5557   */\n      tag_413\n        /* \"#utility.yul\":5551:5556   */\n      dup2\n        /* \"#utility.yul\":5533:5557   */\n      tag_269\n      jump\t// in\n    tag_413:\n        /* \"#utility.yul\":5528:5531   */\n      dup3\n        /* \"#utility.yul\":5521:5558   */\n      mstore\n        /* \"#utility.yul\":5446:5564   */\n      pop\n      pop\n      jump\t// out\n        /* \"#utility.yul\":5570:5792   */\n    tag_37:\n        /* \"#utility.yul\":5663:5667   */\n      0x00\n        /* \"#utility.yul\":5701:5703   */\n      0x20\n        /* \"#utility.yul\":5690:5699   */\n      dup3\n        /* \"#utility.yul\":5686:5704   */\n      add\n        /* \"#utility.yul\":5678:5704   */\n      swap1\n      pop\n        /* \"#utility.yul\":5714:5785   */\n      tag_415\n        /* \"#utility.yul\":5782:5783   */\n      0x00\n        /* \"#utility.yul\":5771:5780   */\n      dup4\n        /* \"#utility.yul\":5767:5784   */\n      add\n        /* \"#utility.yul\":5758:5764   */\n      dup5\n        /* \"#utility.yul\":5714:5785   */\n      tag_272\n      jump\t// in\n    tag_415:\n        /* \"#utility.yul\":5570:5792   */\n      swap3\n      swap2\n      pop\n      pop\n      jump\t// out\n        /* \"#utility.yul\":5798:5924   */\n    tag_273:\n        /* \"#utility.yul\":5835:5842   */\n      0x00\n        /* \"#utility.yul\":5875:5917   */\n      0xffffffffffffffffffffffffffffffffffffffff\n        /* \"#utility.yul\":5868:5873   */\n      dup3\n        /* \"#utility.yul\":5864:5918   */\n      and\n        /* \"#utility.yul\":5853:5918   */\n      swap1\n      pop\n        /* \"#utility.yul\":5798:5924   */\n      swap2\n      swap1\n      pop\n      jump\t// out\n        /* \"#utility.yul\":5930:6026   */\n    tag_274:\n        /* \"#utility.yul\":5967:5974   */\n      0x00\n        /* \"#utility.yul\":5996:6020   */\n      tag_418\n        /* \"#utility.yul\":6014:6019   */\n      dup3\n        /* \"#utility.yul\":5996:6020   */\n      tag_273\n      jump\t// in\n    tag_418:\n        /* \"#utility.yul\":5985:6020   */\n      swap1\n      pop\n        /* \"#utility.yul\":5930:6026   */\n      swap2\n      swap1\n      pop\n      jump\t// out\n        /* \"#utility.yul\":6032:6154   */\n    tag_275:\n        /* \"#utility.yul\":6105:6129   */\n      tag_420\n        /* \"#utility.yul\":6123:6128   */\n      dup2\n        /* \"#utility.yul\":6105:6129   */\n      tag_274\n      jump\t// in\n    tag_420:\n        /* \"#utility.yul\":6098:6103   */\n      dup2\n        /* \"#utility.yul\":6095:6130   */\n      eq\n        /* \"#utility.yul\":6085:6148   */\n      tag_421\n      jumpi\n        /* \"#utility.yul\":6144:6145   */\n      0x00\n        /* \"#utility.yul\":6141:6142   */\n      dup1\n        /* \"#utility.yul\":6134:6146   */\n      revert\n        /* \"#utility.yul\":6085:6148   */\n    tag_421:\n        /* \"#utility.yul\":6032:6154   */\n      pop\n      jump\t// out\n        /* \"#utility.yul\":6160:6299   */\n    tag_276:\n        /* \"#utility.yul\":6206:6211   */\n      0x00\n        /* \"#utility.yul\":6244:6250   */\n      dup2\n        /* \"#utility.yul\":6231:6251   */\n      calldataload\n        /* \"#utility.yul\":6222:6251   */\n      swap1\n      pop\n        /* \"#utility.yul\":6260:6293   */\n      tag_423\n        /* \"#utility.yul\":6287:6292   */\n      dup2\n        /* \"#utility.yul\":6260:6293   */\n      tag_275\n      jump\t// in\n    tag_423:\n        /* \"#utility.yul\":6160:6299   */\n      swap3\n      swap2\n      pop\n      pop\n      jump\t// out\n        /* \"#utility.yul\":6305:6779   */\n    tag_40:\n        /* \"#utility.yul\":6373:6379   */\n      0x00\n        /* \"#utility.yul\":6381:6387   */\n      dup1\n        /* \"#utility.yul\":6430:6432   */\n      0x40\n        /* \"#utility.yul\":6418:6427   */\n      dup4\n        /* \"#utility.yul\":6409:6416   */\n      dup6\n        /* \"#utility.yul\":6405:6428   */\n      sub\n        /* \"#utility.yul\":6401:6433   */\n      slt\n        /* \"#utility.yul\":6398:6517   */\n      iszero\n      tag_425\n      jumpi\n        /* \"#utility.yul\":6436:6515   */\n      tag_426\n      tag_249\n      jump\t// in\n    tag_426:\n        /* \"#utility.yul\":6398:6517   */\n    tag_425:\n        /* \"#utility.yul\":6556:6557   */\n      0x00\n        /* \"#utility.yul\":6581:6634   */\n      tag_427\n        /* \"#utility.yul\":6626:6633   */\n      dup6\n        /* \"#utility.yul\":6617:6623   */\n      dup3\n        /* \"#utility.yul\":6606:6615   */\n      dup7\n        /* \"#utility.yul\":6602:6624   */\n      add\n        /* \"#utility.yul\":6581:6634   */\n      tag_271\n      jump\t// in\n    tag_427:\n        /* \"#utility.yul\":6571:6634   */\n      swap3\n      pop\n        /* \"#utility.yul\":6527:6644   */\n      pop\n        /* \"#utility.yul\":6683:6685   */\n      0x20\n        /* \"#utility.yul\":6709:6762   */\n      tag_428\n        /* \"#utility.yul\":6754:6761   */\n      dup6\n        /* \"#utility.yul\":6745:6751   */\n      dup3\n        /* \"#utility.yul\":6734:6743   */\n      dup7\n        /* \"#utility.yul\":6730:6752   */\n      add\n        /* \"#utility.yul\":6709:6762   */\n      tag_276\n      jump\t// in\n    tag_428:\n        /* \"#utility.yul\":6699:6762   */\n      swap2\n      pop\n        /* \"#utility.yul\":6654:6772   */\n      pop\n        /* \"#utility.yul\":6305:6779   */\n      swap3\n      pop\n      swap3\n      swap1\n      pop\n      jump\t// out\n        /* \"#utility.yul\":6785:7114   */\n    tag_49:\n        /* \"#utility.yul\":6844:6850   */\n      0x00\n        /* \"#utility.yul\":6893:6895   */\n      0x20\n        /* \"#utility.yul\":6881:6890   */\n      dup3\n        /* \"#utility.yul\":6872:6879   */\n      dup5\n        /* \"#utility.yul\":6868:6891   */\n      sub\n        /* \"#utility.yul\":6864:6896   */\n      slt\n        /* \"#utility.yul\":6861:6980   */\n      iszero\n      tag_430\n      jumpi\n        /* \"#utility.yul\":6899:6978   */\n      tag_431\n      tag_249\n      jump\t// in\n    tag_431:\n        /* \"#utility.yul\":6861:6980   */\n    tag_430:\n        /* \"#utility.yul\":7019:7020   */\n      0x00\n        /* \"#utility.yul\":7044:7097   */\n      tag_432\n        /* \"#utility.yul\":7089:7096   */\n      dup5\n        /* \"#utility.yul\":7080:7086   */\n      dup3\n        /* \"#utility.yul\":7069:7078   */\n      dup6\n        /* \"#utility.yul\":7065:7087   */\n      add\n        /* \"#utility.yul\":7044:7097   */\n      tag_258\n      jump\t// in\n    tag_432:\n        /* \"#utility.yul\":7034:7097   */\n      swap2\n      pop\n        /* \"#utility.yul\":6990:7107   */\n      pop\n        /* \"#utility.yul\":6785:7114   */\n      swap3\n      swap2\n      pop\n      pop\n      jump\t// out\n        /* \"#utility.yul\":7120:7238   */\n    tag_277:\n        /* \"#utility.yul\":7207:7231   */\n      tag_434\n        /* \"#utility.yul\":7225:7230   */\n      dup2\n        /* \"#utility.yul\":7207:7231   */\n      tag_256\n      jump\t// in\n    tag_434:\n        /* \"#utility.yul\":7202:7205   */\n      dup3\n        /* \"#utility.yul\":7195:7232   */\n      mstore\n        /* \"#utility.yul\":7120:7238   */\n      pop\n      pop\n      jump\t// out\n        /* \"#utility.yul\":7244:7343   */\n    tag_278:\n        /* \"#utility.yul\":7296:7302   */\n      0x00\n        /* \"#utility.yul\":7330:7335   */\n      dup2\n        /* \"#utility.yul\":7324:7336   */\n      mload\n        /* \"#utility.yul\":7314:7336   */\n      swap1\n      pop\n        /* \"#utility.yul\":7244:7343   */\n      swap2\n      swap1\n      pop\n      jump\t// out\n        /* \"#utility.yul\":7349:7518   */\n    tag_279:\n        /* \"#utility.yul\":7433:7444   */\n      0x00\n        /* \"#utility.yul\":7467:7473   */\n      dup3\n        /* \"#utility.yul\":7462:7465   */\n      dup3\n        /* \"#utility.yul\":7455:7474   */\n      mstore\n        /* \"#utility.yul\":7507:7511   */\n      0x20\n        /* \"#utility.yul\":7502:7505   */\n      dup3\n        /* \"#utility.yul\":7498:7512   */\n      add\n        /* \"#utility.yul\":7483:7512   */\n      swap1\n      pop\n        /* \"#utility.yul\":7349:7518   */\n      swap3\n      swap2\n      pop\n      pop\n      jump\t// out\n        /* \"#utility.yul\":7524:7663   */\n    tag_280:\n        /* \"#utility.yul\":7613:7619   */\n      dup3\n        /* \"#utility.yul\":7608:7611   */\n      dup2\n        /* \"#utility.yul\":7603:7606   */\n      dup4\n        /* \"#utility.yul\":7597:7620   */\n      mcopy\n        /* \"#utility.yul\":7654:7655   */\n      0x00\n        /* \"#utility.yul\":7645:7651   */\n      dup4\n        /* \"#utility.yul\":7640:7643   */\n      dup4\n        /* \"#utility.yul\":7636:7652   */\n      add\n        /* \"#utility.yul\":7629:7656   */\n      mstore\n        /* \"#utility.yul\":7524:7663   */\n      pop\n      pop\n      pop\n      jump\t// out\n        /* \"#utility.yul\":7669:8046   */\n    tag_281:\n        /* \"#utility.yul\":7757:7760   */\n      0x00\n        /* \"#utility.yul\":7785:7824   */\n      tag_439\n        /* \"#utility.yul\":7818:7823   */\n      dup3\n        /* \"#utility.yul\":7785:7824   */\n      tag_278\n      jump\t// in\n    tag_439:\n        /* \"#utility.yul\":7840:7911   */\n      tag_440\n        /* \"#utility.yul\":7904:7910   */\n      dup2\n        /* \"#utility.yul\":7899:7902   */\n      dup6\n        /* \"#utility.yul\":7840:7911   */\n      tag_279\n      jump\t// in\n    tag_440:\n        /* \"#utility.yul\":7833:7911   */\n      swap4\n      pop\n        /* \"#utility.yul\":7920:7985   */\n      tag_441\n        /* \"#utility.yul\":7978:7984   */\n      dup2\n        /* \"#utility.yul\":7973:7976   */\n      dup6\n        /* \"#utility.yul\":7966:7970   */\n      0x20\n        /* \"#utility.yul\":7959:7964   */\n      dup7\n        /* \"#utility.yul\":7955:7971   */\n      add\n        /* \"#utility.yul\":7920:7985   */\n      tag_280\n      jump\t// in\n    tag_441:\n        /* \"#utility.yul\":8010:8039   */\n      tag_442\n        /* \"#utility.yul\":8032:8038   */\n      dup2\n        /* \"#utility.yul\":8010:8039   */\n      tag_261\n      jump\t// in\n    tag_442:\n        /* \"#utility.yul\":8005:8008   */\n      dup5\n        /* \"#utility.yul\":8001:8040   */\n      add\n        /* \"#utility.yul\":7994:8040   */\n      swap2\n      pop\n        /* \"#utility.yul\":7761:8046   */\n      pop\n        /* \"#utility.yul\":7669:8046   */\n      swap3\n      swap2\n      pop\n      pop\n      jump\t// out\n        /* \"#utility.yul\":8052:8211   */\n    tag_282:\n        /* \"#utility.yul\":8126:8137   */\n      0x00\n        /* \"#utility.yul\":8160:8166   */\n      dup3\n        /* \"#utility.yul\":8155:8158   */\n      dup3\n        /* \"#utility.yul\":8148:8167   */\n      mstore\n        /* \"#utility.yul\":8200:8204   */\n      0x20\n        /* \"#utility.yul\":8195:8198   */\n      dup3\n        /* \"#utility.yul\":8191:8205   */\n      add\n        /* \"#utility.yul\":8176:8205   */\n      swap1\n      pop\n        /* \"#utility.yul\":8052:8211   */\n      swap3\n      swap2\n      pop\n      pop\n      jump\t// out\n        /* \"#utility.yul\":8217:8574   */\n    tag_283:\n        /* \"#utility.yul\":8295:8298   */\n      0x00\n        /* \"#utility.yul\":8323:8362   */\n      tag_445\n        /* \"#utility.yul\":8356:8361   */\n      dup3\n        /* \"#utility.yul\":8323:8362   */\n      tag_278\n      jump\t// in\n    tag_445:\n        /* \"#utility.yul\":8378:8439   */\n      tag_446\n        /* \"#utility.yul\":8432:8438   */\n      dup2\n        /* \"#utility.yul\":8427:8430   */\n      dup6\n        /* \"#utility.yul\":8378:8439   */\n      tag_282\n      jump\t// in\n    tag_446:\n        /* \"#utility.yul\":8371:8439   */\n      swap4\n      pop\n        /* \"#utility.yul\":8448:8513   */\n      tag_447\n        /* \"#utility.yul\":8506:8512   */\n      dup2\n        /* \"#utility.yul\":8501:8504   */\n      dup6\n        /* \"#utility.yul\":8494:8498   */\n      0x20\n        /* \"#utility.yul\":8487:8492   */\n      dup7\n        /* \"#utility.yul\":8483:8499   */\n      add\n        /* \"#utility.yul\":8448:8513   */\n      tag_280\n      jump\t// in\n    tag_447:\n        /* \"#utility.yul\":8538:8567   */\n      tag_448\n        /* \"#utility.yul\":8560:8566   */\n      dup2\n        /* \"#utility.yul\":8538:8567   */\n      tag_261\n      jump\t// in\n    tag_448:\n        /* \"#utility.yul\":8533:8536   */\n      dup5\n        /* \"#utility.yul\":8529:8568   */\n      add\n        /* \"#utility.yul\":8522:8568   */\n      swap2\n      pop\n        /* \"#utility.yul\":8299:8574   */\n      pop\n        /* \"#utility.yul\":8217:8574   */\n      swap3\n      swap2\n      pop\n      pop\n      jump\t// out\n        /* \"#utility.yul\":8580:8688   */\n    tag_284:\n        /* \"#utility.yul\":8657:8681   */\n      tag_450\n        /* \"#utility.yul\":8675:8680   */\n      dup2\n        /* \"#utility.yul\":8657:8681   */\n      tag_256\n      jump\t// in\n    tag_450:\n        /* \"#utility.yul\":8652:8655   */\n      dup3\n        /* \"#utility.yul\":8645:8682   */\n      mstore\n        /* \"#utility.yul\":8580:8688   */\n      pop\n      pop\n      jump\t// out\n        /* \"#utility.yul\":8694:8793   */\n    tag_285:\n        /* \"#utility.yul\":8765:8786   */\n      tag_452\n        /* \"#utility.yul\":8780:8785   */\n      dup2\n        /* \"#utility.yul\":8765:8786   */\n      tag_254\n      jump\t// in\n    tag_452:\n        /* \"#utility.yul\":8760:8763   */\n      dup3\n        /* \"#utility.yul\":8753:8787   */\n      mstore\n        /* \"#utility.yul\":8694:8793   */\n      pop\n      pop\n      jump\t// out\n        /* \"#utility.yul\":8871:10251   */\n    tag_286:\n        /* \"#utility.yul\":8990:8993   */\n      0x00\n        /* \"#utility.yul\":9026:9030   */\n      0xc0\n        /* \"#utility.yul\":9021:9024   */\n      dup4\n        /* \"#utility.yul\":9017:9031   */\n      add\n        /* \"#utility.yul\":9113:9117   */\n      0x00\n        /* \"#utility.yul\":9106:9111   */\n      dup4\n        /* \"#utility.yul\":9102:9118   */\n      add\n        /* \"#utility.yul\":9096:9119   */\n      mload\n        /* \"#utility.yul\":9166:9169   */\n      dup5\n        /* \"#utility.yul\":9160:9164   */\n      dup3\n        /* \"#utility.yul\":9156:9170   */\n      sub\n        /* \"#utility.yul\":9149:9153   */\n      0x00\n        /* \"#utility.yul\":9144:9147   */\n      dup7\n        /* \"#utility.yul\":9140:9154   */\n      add\n        /* \"#utility.yul\":9133:9171   */\n      mstore\n        /* \"#utility.yul\":9192:9265   */\n      tag_454\n        /* \"#utility.yul\":9260:9264   */\n      dup3\n        /* \"#utility.yul\":9246:9258   */\n      dup3\n        /* \"#utility.yul\":9192:9265   */\n      tag_283\n      jump\t// in\n    tag_454:\n        /* \"#utility.yul\":9184:9265   */\n      swap2\n      pop\n        /* \"#utility.yul\":9041:9276   */\n      pop\n        /* \"#utility.yul\":9363:9367   */\n      0x20\n        /* \"#utility.yul\":9356:9361   */\n      dup4\n        /* \"#utility.yul\":9352:9368   */\n      add\n        /* \"#utility.yul\":9346:9369   */\n      mload\n        /* \"#utility.yul\":9416:9419   */\n      dup5\n        /* \"#utility.yul\":9410:9414   */\n      dup3\n        /* \"#utility.yul\":9406:9420   */\n      sub\n        /* \"#utility.yul\":9399:9403   */\n      0x20\n        /* \"#utility.yul\":9394:9397   */\n      dup7\n        /* \"#utility.yul\":9390:9404   */\n      add\n        /* \"#utility.yul\":9383:9421   */\n      mstore\n        /* \"#utility.yul\":9442:9515   */\n      tag_455\n        /* \"#utility.yul\":9510:9514   */\n      dup3\n        /* \"#utility.yul\":9496:9508   */\n      dup3\n        /* \"#utility.yul\":9442:9515   */\n      tag_283\n      jump\t// in\n    tag_455:\n        /* \"#utility.yul\":9434:9515   */\n      swap2\n      pop\n        /* \"#utility.yul\":9286:9526   */\n      pop\n        /* \"#utility.yul\":9613:9617   */\n      0x40\n        /* \"#utility.yul\":9606:9611   */\n      dup4\n        /* \"#utility.yul\":9602:9618   */\n      add\n        /* \"#utility.yul\":9596:9619   */\n      mload\n        /* \"#utility.yul\":9632:9695   */\n      tag_456\n        /* \"#utility.yul\":9689:9693   */\n      0x40\n        /* \"#utility.yul\":9684:9687   */\n      dup7\n        /* \"#utility.yul\":9680:9694   */\n      add\n        /* \"#utility.yul\":9666:9678   */\n      dup3\n        /* \"#utility.yul\":9632:9695   */\n      tag_284\n      jump\t// in\n    tag_456:\n        /* \"#utility.yul\":9536:9705   */\n      pop\n        /* \"#utility.yul\":9790:9794   */\n      0x60\n        /* \"#utility.yul\":9783:9788   */\n      dup4\n        /* \"#utility.yul\":9779:9795   */\n      add\n        /* \"#utility.yul\":9773:9796   */\n      mload\n        /* \"#utility.yul\":9809:9866   */\n      tag_457\n        /* \"#utility.yul\":9860:9864   */\n      0x60\n        /* \"#utility.yul\":9855:9858   */\n      dup7\n        /* \"#utility.yul\":9851:9865   */\n      add\n        /* \"#utility.yul\":9837:9849   */\n      dup3\n        /* \"#utility.yul\":9809:9866   */\n      tag_285\n      jump\t// in\n    tag_457:\n        /* \"#utility.yul\":9715:9876   */\n      pop\n        /* \"#utility.yul\":9961:9965   */\n      0x80\n        /* \"#utility.yul\":9954:9959   */\n      dup4\n        /* \"#utility.yul\":9950:9966   */\n      add\n        /* \"#utility.yul\":9944:9967   */\n      mload\n        /* \"#utility.yul\":9980:10037   */\n      tag_458\n        /* \"#utility.yul\":10031:10035   */\n      0x80\n        /* \"#utility.yul\":10026:10029   */\n      dup7\n        /* \"#utility.yul\":10022:10036   */\n      add\n        /* \"#utility.yul\":10008:10020   */\n      dup3\n        /* \"#utility.yul\":9980:10037   */\n      tag_285\n      jump\t// in\n    tag_458:\n        /* \"#utility.yul\":9886:10047   */\n      pop\n        /* \"#utility.yul\":10132:10136   */\n      0xa0\n        /* \"#utility.yul\":10125:10130   */\n      dup4\n        /* \"#utility.yul\":10121:10137   */\n      add\n        /* \"#utility.yul\":10115:10138   */\n      mload\n        /* \"#utility.yul\":10151:10214   */\n      tag_459\n        /* \"#utility.yul\":10208:10212   */\n      0xa0\n        /* \"#utility.yul\":10203:10206   */\n      dup7\n        /* \"#utility.yul\":10199:10213   */\n      add\n        /* \"#utility.yul\":10185:10197   */\n      dup3\n        /* \"#utility.yul\":10151:10214   */\n      tag_284\n      jump\t// in\n    tag_459:\n        /* \"#utility.yul\":10057:10224   */\n      pop\n        /* \"#utility.yul\":10241:10245   */\n      dup1\n        /* \"#utility.yul\":10234:10245   */\n      swap2\n      pop\n        /* \"#utility.yul\":8995:10251   */\n      pop\n        /* \"#utility.yul\":8871:10251   */\n      swap3\n      swap2\n      pop\n      pop\n      jump\t// out\n        /* \"#utility.yul\":10257:11456   */\n    tag_52:\n        /* \"#utility.yul\":10600:10604   */\n      0x00\n        /* \"#utility.yul\":10638:10641   */\n      0xc0\n        /* \"#utility.yul\":10627:10636   */\n      dup3\n        /* \"#utility.yul\":10623:10642   */\n      add\n        /* \"#utility.yul\":10615:10642   */\n      swap1\n      pop\n        /* \"#utility.yul\":10652:10723   */\n      tag_461\n        /* \"#utility.yul\":10720:10721   */\n      0x00\n        /* \"#utility.yul\":10709:10718   */\n      dup4\n        /* \"#utility.yul\":10705:10722   */\n      add\n        /* \"#utility.yul\":10696:10702   */\n      dup10\n        /* \"#utility.yul\":10652:10723   */\n      tag_277\n      jump\t// in\n    tag_461:\n        /* \"#utility.yul\":10770:10779   */\n      dup2\n        /* \"#utility.yul\":10764:10768   */\n      dup2\n        /* \"#utility.yul\":10760:10780   */\n      sub\n        /* \"#utility.yul\":10755:10757   */\n      0x20\n        /* \"#utility.yul\":10744:10753   */\n      dup4\n        /* \"#utility.yul\":10740:10758   */\n      add\n        /* \"#utility.yul\":10733:10781   */\n      mstore\n        /* \"#utility.yul\":10798:10876   */\n      tag_462\n        /* \"#utility.yul\":10871:10875   */\n      dup2\n        /* \"#utility.yul\":10862:10868   */\n      dup9\n        /* \"#utility.yul\":10798:10876   */\n      tag_281\n      jump\t// in\n    tag_462:\n        /* \"#utility.yul\":10790:10876   */\n      swap1\n      pop\n        /* \"#utility.yul\":10923:10932   */\n      dup2\n        /* \"#utility.yul\":10917:10921   */\n      dup2\n        /* \"#utility.yul\":10913:10933   */\n      sub\n        /* \"#utility.yul\":10908:10910   */\n      0x40\n        /* \"#utility.yul\":10897:10906   */\n      dup4\n        /* \"#utility.yul\":10893:10911   */\n      add\n        /* \"#utility.yul\":10886:10934   */\n      mstore\n        /* \"#utility.yul\":10951:11029   */\n      tag_463\n        /* \"#utility.yul\":11024:11028   */\n      dup2\n        /* \"#utility.yul\":11015:11021   */\n      dup8\n        /* \"#utility.yul\":10951:11029   */\n      tag_281\n      jump\t// in\n    tag_463:\n        /* \"#utility.yul\":10943:11029   */\n      swap1\n      pop\n        /* \"#utility.yul\":11076:11085   */\n      dup2\n        /* \"#utility.yul\":11070:11074   */\n      dup2\n        /* \"#utility.yul\":11066:11086   */\n      sub\n        /* \"#utility.yul\":11061:11063   */\n      0x60\n        /* \"#utility.yul\":11050:11059   */\n      dup4\n        /* \"#utility.yul\":11046:11064   */\n      add\n        /* \"#utility.yul\":11039:11087   */\n      mstore\n        /* \"#utility.yul\":11104:11182   */\n      tag_464\n        /* \"#utility.yul\":11177:11181   */\n      dup2\n        /* \"#utility.yul\":11168:11174   */\n      dup7\n        /* \"#utility.yul\":11104:11182   */\n      tag_281\n      jump\t// in\n    tag_464:\n        /* \"#utility.yul\":11096:11182   */\n      swap1\n      pop\n        /* \"#utility.yul\":11192:11265   */\n      tag_465\n        /* \"#utility.yul\":11260:11263   */\n      0x80\n        /* \"#utility.yul\":11249:11258   */\n      dup4\n        /* \"#utility.yul\":11245:11264   */\n      add\n        /* \"#utility.yul\":11236:11242   */\n      dup6\n        /* \"#utility.yul\":11192:11265   */\n      tag_277\n      jump\t// in\n    tag_465:\n        /* \"#utility.yul\":11313:11322   */\n      dup2\n        /* \"#utility.yul\":11307:11311   */\n      dup2\n        /* \"#utility.yul\":11303:11323   */\n      sub\n        /* \"#utility.yul\":11297:11300   */\n      0xa0\n        /* \"#utility.yul\":11286:11295   */\n      dup4\n        /* \"#utility.yul\":11282:11301   */\n      add\n        /* \"#utility.yul\":11275:11324   */\n      mstore\n        /* \"#utility.yul\":11341:11449   */\n      tag_466\n        /* \"#utility.yul\":11444:11448   */\n      dup2\n        /* \"#utility.yul\":11435:11441   */\n      dup5\n        /* \"#utility.yul\":11341:11449   */\n      tag_286\n      jump\t// in\n    tag_466:\n        /* \"#utility.yul\":11333:11449   */\n      swap1\n      pop\n        /* \"#utility.yul\":10257:11456   */\n      swap8\n      swap7\n      pop\n      pop\n      pop\n      pop\n      pop\n      pop\n      pop\n      jump\t// out\n        /* \"#utility.yul\":11462:11580   */\n    tag_287:\n        /* \"#utility.yul\":11549:11573   */\n      tag_468\n        /* \"#utility.yul\":11567:11572   */\n      dup2\n        /* \"#utility.yul\":11549:11573   */\n      tag_274\n      jump\t// in\n    tag_468:\n        /* \"#utility.yul\":11544:11547   */\n      dup3\n        /* \"#utility.yul\":11537:11574   */\n      mstore\n        /* \"#utility.yul\":11462:11580   */\n      pop\n      pop\n      jump\t// out\n        /* \"#utility.yul\":11586:11808   */\n    tag_56:\n        /* \"#utility.yul\":11679:11683   */\n      0x00\n        /* \"#utility.yul\":11717:11719   */\n      0x20\n        /* \"#utility.yul\":11706:11715   */\n      dup3\n        /* \"#utility.yul\":11702:11720   */\n      add\n        /* \"#utility.yul\":11694:11720   */\n      swap1\n      pop\n        /* \"#utility.yul\":11730:11801   */\n      tag_470\n        /* \"#utility.yul\":11798:11799   */\n      0x00\n        /* \"#utility.yul\":11787:11796   */\n      dup4\n        /* \"#utility.yul\":11783:11800   */\n      add\n        /* \"#utility.yul\":11774:11780   */\n      dup5\n        /* \"#utility.yul\":11730:11801   */\n      tag_287\n      jump\t// in\n    tag_470:\n        /* \"#utility.yul\":11586:11808   */\n      swap3\n      swap2\n      pop\n      pop\n      jump\t// out\n        /* \"#utility.yul\":11814:12143   */\n    tag_59:\n        /* \"#utility.yul\":11873:11879   */\n      0x00\n        /* \"#utility.yul\":11922:11924   */\n      0x20\n        /* \"#utility.yul\":11910:11919   */\n      dup3\n        /* \"#utility.yul\":11901:11908   */\n      dup5\n        /* \"#utility.yul\":11897:11920   */\n      sub\n        /* \"#utility.yul\":11893:11925   */\n      slt\n        /* \"#utility.yul\":11890:12009   */\n      iszero\n      tag_472\n      jumpi\n        /* \"#utility.yul\":11928:12007   */\n      tag_473\n      tag_249\n      jump\t// in\n    tag_473:\n        /* \"#utility.yul\":11890:12009   */\n    tag_472:\n        /* \"#utility.yul\":12048:12049   */\n      0x00\n        /* \"#utility.yul\":12073:12126   */\n      tag_474\n        /* \"#utility.yul\":12118:12125   */\n      dup5\n        /* \"#utility.yul\":12109:12115   */\n      dup3\n        /* \"#utility.yul\":12098:12107   */\n      dup6\n        /* \"#utility.yul\":12094:12116   */\n      add\n        /* \"#utility.yul\":12073:12126   */\n      tag_276\n      jump\t// in\n    tag_474:\n        /* \"#utility.yul\":12063:12126   */\n      swap2\n      pop\n        /* \"#utility.yul\":12019:12136   */\n      pop\n        /* \"#utility.yul\":11814:12143   */\n      swap3\n      swap2\n      pop\n      pop\n      jump\t// out\n        /* \"#utility.yul\":12149:12470   */\n    tag_288:\n        /* \"#utility.yul\":12236:12240   */\n      0x00\n        /* \"#utility.yul\":12326:12344   */\n      0xffffffffffffffff\n        /* \"#utility.yul\":12318:12324   */\n      dup3\n        /* \"#utility.yul\":12315:12345   */\n      gt\n        /* \"#utility.yul\":12312:12368   */\n      iszero\n      tag_476\n      jumpi\n        /* \"#utility.yul\":12348:12366   */\n      tag_477\n      tag_262\n      jump\t// in\n    tag_477:\n        /* \"#utility.yul\":12312:12368   */\n    tag_476:\n        /* \"#utility.yul\":12398:12402   */\n      0x20\n        /* \"#utility.yul\":12390:12396   */\n      dup3\n        /* \"#utility.yul\":12386:12403   */\n      mul\n        /* \"#utility.yul\":12378:12403   */\n      swap1\n      pop\n        /* \"#utility.yul\":12458:12462   */\n      0x20\n        /* \"#utility.yul\":12452:12456   */\n      dup2\n        /* \"#utility.yul\":12448:12463   */\n      add\n        /* \"#utility.yul\":12440:12463   */\n      swap1\n      pop\n        /* \"#utility.yul\":12149:12470   */\n      swap2\n      swap1\n      pop\n      jump\t// out\n        /* \"#utility.yul\":12476:12593   */\n    tag_289:\n        /* \"#utility.yul\":12585:12586   */\n      0x00\n        /* \"#utility.yul\":12582:12583   */\n      dup1\n        /* \"#utility.yul\":12575:12587   */\n      revert\n        /* \"#utility.yul\":12615:13560   */\n    tag_290:\n        /* \"#utility.yul\":12721:12726   */\n      0x00\n        /* \"#utility.yul\":12746:12837   */\n      tag_480\n        /* \"#utility.yul\":12762:12836   */\n      tag_481\n        /* \"#utility.yul\":12829:12835   */\n      dup5\n        /* \"#utility.yul\":12762:12836   */\n      tag_288\n      jump\t// in\n    tag_481:\n        /* \"#utility.yul\":12746:12837   */\n      tag_264\n      jump\t// in\n    tag_480:\n        /* \"#utility.yul\":12737:12837   */\n      swap1\n      pop\n        /* \"#utility.yul\":12857:12862   */\n      dup1\n        /* \"#utility.yul\":12886:12892   */\n      dup4\n        /* \"#utility.yul\":12879:12884   */\n      dup3\n        /* \"#utility.yul\":12872:12893   */\n      mstore\n        /* \"#utility.yul\":12920:12924   */\n      0x20\n        /* \"#utility.yul\":12913:12918   */\n      dup3\n        /* \"#utility.yul\":12909:12925   */\n      add\n        /* \"#utility.yul\":12902:12925   */\n      swap1\n      pop\n        /* \"#utility.yul\":12973:12977   */\n      0x20\n        /* \"#utility.yul\":12965:12971   */\n      dup5\n        /* \"#utility.yul\":12961:12978   */\n      mul\n        /* \"#utility.yul\":12953:12959   */\n      dup4\n        /* \"#utility.yul\":12949:12979   */\n      add\n        /* \"#utility.yul\":13002:13005   */\n      dup6\n        /* \"#utility.yul\":12994:13000   */\n      dup2\n        /* \"#utility.yul\":12991:13006   */\n      gt\n        /* \"#utility.yul\":12988:13110   */\n      iszero\n      tag_482\n      jumpi\n        /* \"#utility.yul\":13021:13100   */\n      tag_483\n      tag_289\n      jump\t// in\n    tag_483:\n        /* \"#utility.yul\":12988:13110   */\n    tag_482:\n        /* \"#utility.yul\":13136:13142   */\n      dup4\n        /* \"#utility.yul\":13119:13554   */\n    tag_484:\n        /* \"#utility.yul\":13153:13159   */\n      dup2\n        /* \"#utility.yul\":13148:13151   */\n      dup2\n        /* \"#utility.yul\":13145:13160   */\n      lt\n        /* \"#utility.yul\":13119:13554   */\n      iszero\n      tag_486\n      jumpi\n        /* \"#utility.yul\":13242:13245   */\n      dup1\n        /* \"#utility.yul\":13229:13246   */\n      calldataload\n        /* \"#utility.yul\":13278:13296   */\n      0xffffffffffffffff\n        /* \"#utility.yul\":13265:13276   */\n      dup2\n        /* \"#utility.yul\":13262:13297   */\n      gt\n        /* \"#utility.yul\":13259:13381   */\n      iszero\n      tag_487\n      jumpi\n        /* \"#utility.yul\":13300:13379   */\n      tag_488\n      tag_259\n      jump\t// in\n    tag_488:\n        /* \"#utility.yul\":13259:13381   */\n    tag_487:\n        /* \"#utility.yul\":13424:13435   */\n      dup1\n        /* \"#utility.yul\":13416:13422   */\n      dup7\n        /* \"#utility.yul\":13412:13436   */\n      add\n        /* \"#utility.yul\":13462:13509   */\n      tag_489\n        /* \"#utility.yul\":13505:13508   */\n      dup10\n        /* \"#utility.yul\":13493:13503   */\n      dup3\n        /* \"#utility.yul\":13462:13509   */\n      tag_268\n      jump\t// in\n    tag_489:\n        /* \"#utility.yul\":13457:13460   */\n      dup6\n        /* \"#utility.yul\":13450:13510   */\n      mstore\n        /* \"#utility.yul\":13539:13543   */\n      0x20\n        /* \"#utility.yul\":13534:13537   */\n      dup6\n        /* \"#utility.yul\":13530:13544   */\n      add\n        /* \"#utility.yul\":13523:13544   */\n      swap5\n      pop\n        /* \"#utility.yul\":13195:13554   */\n      pop\n      pop\n        /* \"#utility.yul\":13179:13183   */\n      0x20\n        /* \"#utility.yul\":13174:13177   */\n      dup2\n        /* \"#utility.yul\":13170:13184   */\n      add\n        /* \"#utility.yul\":13163:13184   */\n      swap1\n      pop\n        /* \"#utility.yul\":13119:13554   */\n      jump(tag_484)\n    tag_486:\n        /* \"#utility.yul\":13123:13144   */\n      pop\n        /* \"#utility.yul\":12727:13560   */\n      pop\n      pop\n        /* \"#utility.yul\":12615:13560   */\n      swap4\n      swap3\n      pop\n      pop\n      pop\n      jump\t// out\n        /* \"#utility.yul\":13582:13972   */\n    tag_291:\n        /* \"#utility.yul\":13663:13668   */\n      0x00\n        /* \"#utility.yul\":13712:13715   */\n      dup3\n        /* \"#utility.yul\":13705:13709   */\n      0x1f\n        /* \"#utility.yul\":13697:13703   */\n      dup4\n        /* \"#utility.yul\":13693:13710   */\n      add\n        /* \"#utility.yul\":13689:13716   */\n      slt\n        /* \"#utility.yul\":13679:13801   */\n      tag_491\n      jumpi\n        /* \"#utility.yul\":13720:13799   */\n      tag_492\n      tag_259\n      jump\t// in\n    tag_492:\n        /* \"#utility.yul\":13679:13801   */\n    tag_491:\n        /* \"#utility.yul\":13837:13843   */\n      dup2\n        /* \"#utility.yul\":13824:13844   */\n      calldataload\n        /* \"#utility.yul\":13862:13966   */\n      tag_493\n        /* \"#utility.yul\":13962:13965   */\n      dup5\n        /* \"#utility.yul\":13954:13960   */\n      dup3\n        /* \"#utility.yul\":13947:13951   */\n      0x20\n        /* \"#utility.yul\":13939:13945   */\n      dup7\n        /* \"#utility.yul\":13935:13952   */\n      add\n        /* \"#utility.yul\":13862:13966   */\n      tag_290\n      jump\t// in\n    tag_493:\n        /* \"#utility.yul\":13853:13966   */\n      swap2\n      pop\n        /* \"#utility.yul\":13669:13972   */\n      pop\n        /* \"#utility.yul\":13582:13972   */\n      swap3\n      swap2\n      pop\n      pop\n      jump\t// out\n        /* \"#utility.yul\":13978:14094   */\n    tag_292:\n        /* \"#utility.yul\":14048:14069   */\n      tag_495\n        /* \"#utility.yul\":14063:14068   */\n      dup2\n        /* \"#utility.yul\":14048:14069   */\n      tag_254\n      jump\t// in\n    tag_495:\n        /* \"#utility.yul\":14041:14046   */\n      dup2\n        /* \"#utility.yul\":14038:14070   */\n      eq\n        /* \"#utility.yul\":14028:14088   */\n      tag_496\n      jumpi\n        /* \"#utility.yul\":14084:14085   */\n      0x00\n        /* \"#utility.yul\":14081:14082   */\n      dup1\n        /* \"#utility.yul\":14074:14086   */\n      revert\n        /* \"#utility.yul\":14028:14088   */\n    tag_496:\n        /* \"#utility.yul\":13978:14094   */\n      pop\n      jump\t// out\n        /* \"#utility.yul\":14100:14233   */\n    tag_293:\n        /* \"#utility.yul\":14143:14148   */\n      0x00\n        /* \"#utility.yul\":14181:14187   */\n      dup2\n        /* \"#utility.yul\":14168:14188   */\n      calldataload\n        /* \"#utility.yul\":14159:14188   */\n      swap1\n      pop\n        /* \"#utility.yul\":14197:14227   */\n      tag_498\n        /* \"#utility.yul\":14221:14226   */\n      dup2\n        /* \"#utility.yul\":14197:14227   */\n      tag_292\n      jump\t// in\n    tag_498:\n        /* \"#utility.yul\":14100:14233   */\n      swap3\n      swap2\n      pop\n      pop\n      jump\t// out\n        /* \"#utility.yul\":14239:17088   */\n    tag_67:\n        /* \"#utility.yul\":14487:14493   */\n      0x00\n        /* \"#utility.yul\":14495:14501   */\n      dup1\n        /* \"#utility.yul\":14503:14509   */\n      0x00\n        /* \"#utility.yul\":14511:14517   */\n      dup1\n        /* \"#utility.yul\":14519:14525   */\n      0x00\n        /* \"#utility.yul\":14527:14533   */\n      dup1\n        /* \"#utility.yul\":14535:14541   */\n      0x00\n        /* \"#utility.yul\":14543:14549   */\n      dup1\n        /* \"#utility.yul\":14551:14557   */\n      0x00\n        /* \"#utility.yul\":14600:14603   */\n      0x0120\n        /* \"#utility.yul\":14588:14597   */\n      dup11\n        /* \"#utility.yul\":14579:14586   */\n      dup13\n        /* \"#utility.yul\":14575:14598   */\n      sub\n        /* \"#utility.yul\":14571:14604   */\n      slt\n        /* \"#utility.yul\":14568:14688   */\n      iszero\n      tag_500\n      jumpi\n        /* \"#utility.yul\":14607:14686   */\n      tag_501\n      tag_249\n      jump\t// in\n    tag_501:\n        /* \"#utility.yul\":14568:14688   */\n    tag_500:\n        /* \"#utility.yul\":14755:14756   */\n      0x00\n        /* \"#utility.yul\":14744:14753   */\n      dup11\n        /* \"#utility.yul\":14740:14757   */\n      add\n        /* \"#utility.yul\":14727:14758   */\n      calldataload\n        /* \"#utility.yul\":14785:14803   */\n      0xffffffffffffffff\n        /* \"#utility.yul\":14777:14783   */\n      dup2\n        /* \"#utility.yul\":14774:14804   */\n      gt\n        /* \"#utility.yul\":14771:14888   */\n      iszero\n      tag_502\n      jumpi\n        /* \"#utility.yul\":14807:14886   */\n      tag_503\n      tag_250\n      jump\t// in\n    tag_503:\n        /* \"#utility.yul\":14771:14888   */\n    tag_502:\n        /* \"#utility.yul\":14912:14975   */\n      tag_504\n        /* \"#utility.yul\":14967:14974   */\n      dup13\n        /* \"#utility.yul\":14958:14964   */\n      dup3\n        /* \"#utility.yul\":14947:14956   */\n      dup14\n        /* \"#utility.yul\":14943:14965   */\n      add\n        /* \"#utility.yul\":14912:14975   */\n      tag_268\n      jump\t// in\n    tag_504:\n        /* \"#utility.yul\":14902:14975   */\n      swap10\n      pop\n        /* \"#utility.yul\":14698:14985   */\n      pop\n        /* \"#utility.yul\":15052:15054   */\n      0x20\n        /* \"#utility.yul\":15041:15050   */\n      dup11\n        /* \"#utility.yul\":15037:15055   */\n      add\n        /* \"#utility.yul\":15024:15056   */\n      calldataload\n        /* \"#utility.yul\":15083:15101   */\n      0xffffffffffffffff\n        /* \"#utility.yul\":15075:15081   */\n      dup2\n        /* \"#utility.yul\":15072:15102   */\n      gt\n        /* \"#utility.yul\":15069:15186   */\n      iszero\n      tag_505\n      jumpi\n        /* \"#utility.yul\":15105:15184   */\n      tag_506\n      tag_250\n      jump\t// in\n    tag_506:\n        /* \"#utility.yul\":15069:15186   */\n    tag_505:\n        /* \"#utility.yul\":15210:15273   */\n      tag_507\n        /* \"#utility.yul\":15265:15272   */\n      dup13\n        /* \"#utility.yul\":15256:15262   */\n      dup3\n        /* \"#utility.yul\":15245:15254   */\n      dup14\n        /* \"#utility.yul\":15241:15263   */\n      add\n        /* \"#utility.yul\":15210:15273   */\n      tag_268\n      jump\t// in\n    tag_507:\n        /* \"#utility.yul\":15200:15273   */\n      swap9\n      pop\n        /* \"#utility.yul\":14995:15283   */\n      pop\n        /* \"#utility.yul\":15350:15352   */\n      0x40\n        /* \"#utility.yul\":15339:15348   */\n      dup11\n        /* \"#utility.yul\":15335:15353   */\n      add\n        /* \"#utility.yul\":15322:15354   */\n      calldataload\n        /* \"#utility.yul\":15381:15399   */\n      0xffffffffffffffff\n        /* \"#utility.yul\":15373:15379   */\n      dup2\n        /* \"#utility.yul\":15370:15400   */\n      gt\n        /* \"#utility.yul\":15367:15484   */\n      iszero\n      tag_508\n      jumpi\n        /* \"#utility.yul\":15403:15482   */\n      tag_509\n      tag_250\n      jump\t// in\n    tag_509:\n        /* \"#utility.yul\":15367:15484   */\n    tag_508:\n        /* \"#utility.yul\":15508:15571   */\n      tag_510\n        /* \"#utility.yul\":15563:15570   */\n      dup13\n        /* \"#utility.yul\":15554:15560   */\n      dup3\n        /* \"#utility.yul\":15543:15552   */\n      dup14\n        /* \"#utility.yul\":15539:15561   */\n      add\n        /* \"#utility.yul\":15508:15571   */\n      tag_268\n      jump\t// in\n    tag_510:\n        /* \"#utility.yul\":15498:15571   */\n      swap8\n      pop\n        /* \"#utility.yul\":15293:15581   */\n      pop\n        /* \"#utility.yul\":15648:15650   */\n      0x60\n        /* \"#utility.yul\":15637:15646   */\n      dup11\n        /* \"#utility.yul\":15633:15651   */\n      add\n        /* \"#utility.yul\":15620:15652   */\n      calldataload\n        /* \"#utility.yul\":15679:15697   */\n      0xffffffffffffffff\n        /* \"#utility.yul\":15671:15677   */\n      dup2\n        /* \"#utility.yul\":15668:15698   */\n      gt\n        /* \"#utility.yul\":15665:15782   */\n      iszero\n      tag_511\n      jumpi\n        /* \"#utility.yul\":15701:15780   */\n      tag_512\n      tag_250\n      jump\t// in\n    tag_512:\n        /* \"#utility.yul\":15665:15782   */\n    tag_511:\n        /* \"#utility.yul\":15806:15894   */\n      tag_513\n        /* \"#utility.yul\":15886:15893   */\n      dup13\n        /* \"#utility.yul\":15877:15883   */\n      dup3\n        /* \"#utility.yul\":15866:15875   */\n      dup14\n        /* \"#utility.yul\":15862:15884   */\n      add\n        /* \"#utility.yul\":15806:15894   */\n      tag_291\n      jump\t// in\n    tag_513:\n        /* \"#utility.yul\":15796:15894   */\n      swap7\n      pop\n        /* \"#utility.yul\":15591:15904   */\n      pop\n        /* \"#utility.yul\":15971:15974   */\n      0x80\n        /* \"#utility.yul\":15960:15969   */\n      dup11\n        /* \"#utility.yul\":15956:15975   */\n      add\n        /* \"#utility.yul\":15943:15976   */\n      calldataload\n        /* \"#utility.yul\":16003:16021   */\n      0xffffffffffffffff\n        /* \"#utility.yul\":15995:16001   */\n      dup2\n        /* \"#utility.yul\":15992:16022   */\n      gt\n        /* \"#utility.yul\":15989:16106   */\n      iszero\n      tag_514\n      jumpi\n        /* \"#utility.yul\":16025:16104   */\n      tag_515\n      tag_250\n      jump\t// in\n    tag_515:\n        /* \"#utility.yul\":15989:16106   */\n    tag_514:\n        /* \"#utility.yul\":16130:16218   */\n      tag_516\n        /* \"#utility.yul\":16210:16217   */\n      dup13\n        /* \"#utility.yul\":16201:16207   */\n      dup3\n        /* \"#utility.yul\":16190:16199   */\n      dup14\n        /* \"#utility.yul\":16186:16208   */\n      add\n        /* \"#utility.yul\":16130:16218   */\n      tag_291\n      jump\t// in\n    tag_516:\n        /* \"#utility.yul\":16120:16218   */\n      swap6\n      pop\n        /* \"#utility.yul\":15914:16228   */\n      pop\n        /* \"#utility.yul\":16267:16270   */\n      0xa0\n        /* \"#utility.yul\":16294:16347   */\n      tag_517\n        /* \"#utility.yul\":16339:16346   */\n      dup13\n        /* \"#utility.yul\":16330:16336   */\n      dup3\n        /* \"#utility.yul\":16319:16328   */\n      dup14\n        /* \"#utility.yul\":16315:16337   */\n      add\n        /* \"#utility.yul\":16294:16347   */\n      tag_258\n      jump\t// in\n    tag_517:\n        /* \"#utility.yul\":16284:16347   */\n      swap5\n      pop\n        /* \"#utility.yul\":16238:16357   */\n      pop\n        /* \"#utility.yul\":16424:16427   */\n      0xc0\n        /* \"#utility.yul\":16413:16422   */\n      dup11\n        /* \"#utility.yul\":16409:16428   */\n      add\n        /* \"#utility.yul\":16396:16429   */\n      calldataload\n        /* \"#utility.yul\":16456:16474   */\n      0xffffffffffffffff\n        /* \"#utility.yul\":16448:16454   */\n      dup2\n        /* \"#utility.yul\":16445:16475   */\n      gt\n        /* \"#utility.yul\":16442:16559   */\n      iszero\n      tag_518\n      jumpi\n        /* \"#utility.yul\":16478:16557   */\n      tag_519\n      tag_250\n      jump\t// in\n    tag_519:\n        /* \"#utility.yul\":16442:16559   */\n    tag_518:\n        /* \"#utility.yul\":16583:16646   */\n      tag_520\n        /* \"#utility.yul\":16638:16645   */\n      dup13\n        /* \"#utility.yul\":16629:16635   */\n      dup3\n        /* \"#utility.yul\":16618:16627   */\n      dup14\n        /* \"#utility.yul\":16614:16636   */\n      add\n        /* \"#utility.yul\":16583:16646   */\n      tag_268\n      jump\t// in\n    tag_520:\n        /* \"#utility.yul\":16573:16646   */\n      swap4\n      pop\n        /* \"#utility.yul\":16367:16656   */\n      pop\n        /* \"#utility.yul\":16723:16726   */\n      0xe0\n        /* \"#utility.yul\":16712:16721   */\n      dup11\n        /* \"#utility.yul\":16708:16727   */\n      add\n        /* \"#utility.yul\":16695:16728   */\n      calldataload\n        /* \"#utility.yul\":16755:16773   */\n      0xffffffffffffffff\n        /* \"#utility.yul\":16747:16753   */\n      dup2\n        /* \"#utility.yul\":16744:16774   */\n      gt\n        /* \"#utility.yul\":16741:16858   */\n      iszero\n      tag_521\n      jumpi\n        /* \"#utility.yul\":16777:16856   */\n      tag_522\n      tag_250\n      jump\t// in\n    tag_522:\n        /* \"#utility.yul\":16741:16858   */\n    tag_521:\n        /* \"#utility.yul\":16882:16945   */\n      tag_523\n        /* \"#utility.yul\":16937:16944   */\n      dup13\n        /* \"#utility.yul\":16928:16934   */\n      dup3\n        /* \"#utility.yul\":16917:16926   */\n      dup14\n        /* \"#utility.yul\":16913:16935   */\n      add\n        /* \"#utility.yul\":16882:16945   */\n      tag_268\n      jump\t// in\n    tag_523:\n        /* \"#utility.yul\":16872:16945   */\n      swap3\n      pop\n        /* \"#utility.yul\":16666:16955   */\n      pop\n        /* \"#utility.yul\":16994:16997   */\n      0x0100\n        /* \"#utility.yul\":17021:17071   */\n      tag_524\n        /* \"#utility.yul\":17063:17070   */\n      dup13\n        /* \"#utility.yul\":17054:17060   */\n      dup3\n        /* \"#utility.yul\":17043:17052   */\n      dup14\n        /* \"#utility.yul\":17039:17061   */\n      add\n        /* \"#utility.yul\":17021:17071   */\n      tag_293\n      jump\t// in\n    tag_524:\n        /* \"#utility.yul\":17011:17071   */\n      swap2\n      pop\n        /* \"#utility.yul\":16965:17081   */\n      pop\n        /* \"#utility.yul\":14239:17088   */\n      swap3\n      swap6\n      swap9\n      pop\n      swap3\n      swap6\n      swap9\n      pop\n      swap3\n      swap6\n      swap9\n      jump\t// out\n        /* \"#utility.yul\":17094:17268   */\n    tag_294:\n        /* \"#utility.yul\":17234:17260   */\n      0x50726f6475637420686173206265656e20736869707065640000000000000000\n        /* \"#utility.yul\":17230:17231   */\n      0x00\n        /* \"#utility.yul\":17222:17228   */\n      dup3\n        /* \"#utility.yul\":17218:17232   */\n      add\n        /* \"#utility.yul\":17211:17261   */\n      mstore\n        /* \"#utility.yul\":17094:17268   */\n      pop\n      jump\t// out\n        /* \"#utility.yul\":17274:17640   */\n    tag_295:\n        /* \"#utility.yul\":17416:17419   */\n      0x00\n        /* \"#utility.yul\":17437:17504   */\n      tag_527\n        /* \"#utility.yul\":17501:17503   */\n      0x18\n        /* \"#utility.yul\":17496:17499   */\n      dup4\n        /* \"#utility.yul\":17437:17504   */\n      tag_279\n      jump\t// in\n    tag_527:\n        /* \"#utility.yul\":17430:17504   */\n      swap2\n      pop\n        /* \"#utility.yul\":17513:17606   */\n      tag_528\n        /* \"#utility.yul\":17602:17605   */\n      dup3\n        /* \"#utility.yul\":17513:17606   */\n      tag_294\n      jump\t// in\n    tag_528:\n        /* \"#utility.yul\":17631:17633   */\n      0x20\n        /* \"#utility.yul\":17626:17629   */\n      dup3\n        /* \"#utility.yul\":17622:17634   */\n      add\n        /* \"#utility.yul\":17615:17634   */\n      swap1\n      pop\n        /* \"#utility.yul\":17274:17640   */\n      swap2\n      swap1\n      pop\n      jump\t// out\n        /* \"#utility.yul\":17646:18065   */\n    tag_91:\n        /* \"#utility.yul\":17812:17816   */\n      0x00\n        /* \"#utility.yul\":17850:17852   */\n      0x20\n        /* \"#utility.yul\":17839:17848   */\n      dup3\n        /* \"#utility.yul\":17835:17853   */\n      add\n        /* \"#utility.yul\":17827:17853   */\n      swap1\n      pop\n        /* \"#utility.yul\":17899:17908   */\n      dup2\n        /* \"#utility.yul\":17893:17897   */\n      dup2\n        /* \"#utility.yul\":17889:17909   */\n      sub\n        /* \"#utility.yul\":17885:17886   */\n      0x00\n        /* \"#utility.yul\":17874:17883   */\n      dup4\n        /* \"#utility.yul\":17870:17887   */\n      add\n        /* \"#utility.yul\":17863:17910   */\n      mstore\n        /* \"#utility.yul\":17927:18058   */\n      tag_530\n        /* \"#utility.yul\":18053:18057   */\n      dup2\n        /* \"#utility.yul\":17927:18058   */\n      tag_295\n      jump\t// in\n    tag_530:\n        /* \"#utility.yul\":17919:18058   */\n      swap1\n      pop\n        /* \"#utility.yul\":17646:18065   */\n      swap2\n      swap1\n      pop\n      jump\t// out\n        /* \"#utility.yul\":18071:18243   */\n    tag_296:\n        /* \"#utility.yul\":18211:18235   */\n      0x50726f6475637420646f6573206e6f7420657869737400000000000000000000\n        /* \"#utility.yul\":18207:18208   */\n      0x00\n        /* \"#utility.yul\":18199:18205   */\n      dup3\n        /* \"#utility.yul\":18195:18209   */\n      add\n        /* \"#utility.yul\":18188:18236   */\n      mstore\n        /* \"#utility.yul\":18071:18243   */\n      pop\n      jump\t// out\n        /* \"#utility.yul\":18249:18615   */\n    tag_297:\n        /* \"#utility.yul\":18391:18394   */\n      0x00\n        /* \"#utility.yul\":18412:18479   */\n      tag_533\n        /* \"#utility.yul\":18476:18478   */\n      0x16\n        /* \"#utility.yul\":18471:18474   */\n      dup4\n        /* \"#utility.yul\":18412:18479   */\n      tag_279\n      jump\t// in\n    tag_533:\n        /* \"#utility.yul\":18405:18479   */\n      swap2\n      pop\n        /* \"#utility.yul\":18488:18581   */\n      tag_534\n        /* \"#utility.yul\":18577:18580   */\n      dup3\n        /* \"#utility.yul\":18488:18581   */\n      tag_296\n      jump\t// in\n    tag_534:\n        /* \"#utility.yul\":18606:18608   */\n      0x20\n        /* \"#utility.yul\":18601:18604   */\n      dup3\n        /* \"#utility.yul\":18597:18609   */\n      add\n        /* \"#utility.yul\":18590:18609   */\n      swap1\n      pop\n        /* \"#utility.yul\":18249:18615   */\n      swap2\n      swap1\n      pop\n      jump\t// out\n        /* \"#utility.yul\":18621:19040   */\n    tag_94:\n        /* \"#utility.yul\":18787:18791   */\n      0x00\n        /* \"#utility.yul\":18825:18827   */\n      0x20\n        /* \"#utility.yul\":18814:18823   */\n      dup3\n        /* \"#utility.yul\":18810:18828   */\n      add\n        /* \"#utility.yul\":18802:18828   */\n      swap1\n      pop\n        /* \"#utility.yul\":18874:18883   */\n      dup2\n        /* \"#utility.yul\":18868:18872   */\n      dup2\n        /* \"#utility.yul\":18864:18884   */\n      sub\n        /* \"#utility.yul\":18860:18861   */\n      0x00\n        /* \"#utility.yul\":18849:18858   */\n      dup4\n        /* \"#utility.yul\":18845:18862   */\n      add\n        /* \"#utility.yul\":18838:18885   */\n      mstore\n        /* \"#utility.yul\":18902:19033   */\n      tag_536\n        /* \"#utility.yul\":19028:19032   */\n      dup2\n        /* \"#utility.yul\":18902:19033   */\n      tag_297\n      jump\t// in\n    tag_536:\n        /* \"#utility.yul\":18894:19033   */\n      swap1\n      pop\n        /* \"#utility.yul\":18621:19040   */\n      swap2\n      swap1\n      pop\n      jump\t// out\n        /* \"#utility.yul\":19046:19219   */\n    tag_298:\n        /* \"#utility.yul\":19186:19211   */\n      0x50726f64756374206973206f7574206f662073746f636b000000000000000000\n        /* \"#utility.yul\":19182:19183   */\n      0x00\n        /* \"#utility.yul\":19174:19180   */\n      dup3\n        /* \"#utility.yul\":19170:19184   */\n      add\n        /* \"#utility.yul\":19163:19212   */\n      mstore\n        /* \"#utility.yul\":19046:19219   */\n      pop\n      jump\t// out\n        /* \"#utility.yul\":19225:19591   */\n    tag_299:\n        /* \"#utility.yul\":19367:19370   */\n      0x00\n        /* \"#utility.yul\":19388:19455   */\n      tag_539\n        /* \"#utility.yul\":19452:19454   */\n      0x17\n        /* \"#utility.yul\":19447:19450   */\n      dup4\n        /* \"#utility.yul\":19388:19455   */\n      tag_279\n      jump\t// in\n    tag_539:\n        /* \"#utility.yul\":19381:19455   */\n      swap2\n      pop\n        /* \"#utility.yul\":19464:19557   */\n      tag_540\n        /* \"#utility.yul\":19553:19556   */\n      dup3\n        /* \"#utility.yul\":19464:19557   */\n      tag_298\n      jump\t// in\n    tag_540:\n        /* \"#utility.yul\":19582:19584   */\n      0x20\n        /* \"#utility.yul\":19577:19580   */\n      dup3\n        /* \"#utility.yul\":19573:19585   */\n      add\n        /* \"#utility.yul\":19566:19585   */\n      swap1\n      pop\n        /* \"#utility.yul\":19225:19591   */\n      swap2\n      swap1\n      pop\n      jump\t// out\n        /* \"#utility.yul\":19597:20016   */\n    tag_97:\n        /* \"#utility.yul\":19763:19767   */\n      0x00\n        /* \"#utility.yul\":19801:19803   */\n      0x20\n        /* \"#utility.yul\":19790:19799   */\n      dup3\n        /* \"#utility.yul\":19786:19804   */\n      add\n        /* \"#utility.yul\":19778:19804   */\n      swap1\n      pop\n        /* \"#utility.yul\":19850:19859   */\n      dup2\n        /* \"#utility.yul\":19844:19848   */\n      dup2\n        /* \"#utility.yul\":19840:19860   */\n      sub\n        /* \"#utility.yul\":19836:19837   */\n      0x00\n        /* \"#utility.yul\":19825:19834   */\n      dup4\n        /* \"#utility.yul\":19821:19838   */\n      add\n        /* \"#utility.yul\":19814:19861   */\n      mstore\n        /* \"#utility.yul\":19878:20009   */\n      tag_542\n        /* \"#utility.yul\":20004:20008   */\n      dup2\n        /* \"#utility.yul\":19878:20009   */\n      tag_299\n      jump\t// in\n    tag_542:\n        /* \"#utility.yul\":19870:20009   */\n      swap1\n      pop\n        /* \"#utility.yul\":19597:20016   */\n      swap2\n      swap1\n      pop\n      jump\t// out\n        /* \"#utility.yul\":20022:20202   */\n    tag_300:\n        /* \"#utility.yul\":20070:20147   */\n      0x4e487b7100000000000000000000000000000000000000000000000000000000\n        /* \"#utility.yul\":20067:20068   */\n      0x00\n        /* \"#utility.yul\":20060:20148   */\n      mstore\n        /* \"#utility.yul\":20167:20171   */\n      0x22\n        /* \"#utility.yul\":20164:20165   */\n      0x04\n        /* \"#utility.yul\":20157:20172   */\n      mstore\n        /* \"#utility.yul\":20191:20195   */\n      0x24\n        /* \"#utility.yul\":20188:20189   */\n      0x00\n        /* \"#utility.yul\":20181:20196   */\n      revert\n        /* \"#utility.yul\":20208:20528   */\n    tag_124:\n        /* \"#utility.yul\":20252:20258   */\n      0x00\n        /* \"#utility.yul\":20289:20290   */\n      0x02\n        /* \"#utility.yul\":20283:20287   */\n      dup3\n        /* \"#utility.yul\":20279:20291   */\n      div\n        /* \"#utility.yul\":20269:20291   */\n      swap1\n      pop\n        /* \"#utility.yul\":20336:20337   */\n      0x01\n        /* \"#utility.yul\":20330:20334   */\n      dup3\n        /* \"#utility.yul\":20326:20338   */\n      and\n        /* \"#utility.yul\":20357:20375   */\n      dup1\n        /* \"#utility.yul\":20347:20428   */\n      tag_545\n      jumpi\n        /* \"#utility.yul\":20413:20417   */\n      0x7f\n        /* \"#utility.yul\":20405:20411   */\n      dup3\n        /* \"#utility.yul\":20401:20418   */\n      and\n        /* \"#utility.yul\":20391:20418   */\n      swap2\n      pop\n        /* \"#utility.yul\":20347:20428   */\n    tag_545:\n        /* \"#utility.yul\":20475:20477   */\n      0x20\n        /* \"#utility.yul\":20467:20473   */\n      dup3\n        /* \"#utility.yul\":20464:20478   */\n      lt\n        /* \"#utility.yul\":20444:20462   */\n      dup2\n        /* \"#utility.yul\":20441:20479   */\n      sub\n        /* \"#utility.yul\":20438:20522   */\n      tag_546\n      jumpi\n        /* \"#utility.yul\":20494:20512   */\n      tag_547\n      tag_300\n      jump\t// in\n    tag_547:\n        /* \"#utility.yul\":20438:20522   */\n    tag_546:\n        /* \"#utility.yul\":20259:20528   */\n      pop\n        /* \"#utility.yul\":20208:20528   */\n      swap2\n      swap1\n      pop\n      jump\t// out\n        /* \"#utility.yul\":20534:20675   */\n    tag_301:\n        /* \"#utility.yul\":20583:20587   */\n      0x00\n        /* \"#utility.yul\":20606:20609   */\n      dup2\n        /* \"#utility.yul\":20598:20609   */\n      swap1\n      pop\n        /* \"#utility.yul\":20629:20632   */\n      dup2\n        /* \"#utility.yul\":20626:20627   */\n      0x00\n        /* \"#utility.yul\":20619:20633   */\n      mstore\n        /* \"#utility.yul\":20663:20667   */\n      0x20\n        /* \"#utility.yul\":20660:20661   */\n      0x00\n        /* \"#utility.yul\":20650:20668   */\n      keccak256\n        /* \"#utility.yul\":20642:20668   */\n      swap1\n      pop\n        /* \"#utility.yul\":20534:20675   */\n      swap2\n      swap1\n      pop\n      jump\t// out\n        /* \"#utility.yul\":20681:20774   */\n    tag_302:\n        /* \"#utility.yul\":20718:20724   */\n      0x00\n        /* \"#utility.yul\":20765:20767   */\n      0x20\n        /* \"#utility.yul\":20760:20762   */\n      0x1f\n        /* \"#utility.yul\":20753:20758   */\n      dup4\n        /* \"#utility.yul\":20749:20763   */\n      add\n        /* \"#utility.yul\":20745:20768   */\n      div\n        /* \"#utility.yul\":20735:20768   */\n      swap1\n      pop\n        /* \"#utility.yul\":20681:20774   */\n      swap2\n      swap1\n      pop\n      jump\t// out\n        /* \"#utility.yul\":20780:20887   */\n    tag_303:\n        /* \"#utility.yul\":20824:20832   */\n      0x00\n        /* \"#utility.yul\":20874:20879   */\n      dup3\n        /* \"#utility.yul\":20868:20872   */\n      dup3\n        /* \"#utility.yul\":20864:20880   */\n      shl\n        /* \"#utility.yul\":20843:20880   */\n      swap1\n      pop\n        /* \"#utility.yul\":20780:20887   */\n      swap3\n      swap2\n      pop\n      pop\n      jump\t// out\n        /* \"#utility.yul\":20893:21286   */\n    tag_304:\n        /* \"#utility.yul\":20962:20968   */\n      0x00\n        /* \"#utility.yul\":21012:21013   */\n      0x08\n        /* \"#utility.yul\":21000:21010   */\n      dup4\n        /* \"#utility.yul\":20996:21014   */\n      mul\n        /* \"#utility.yul\":21035:21132   */\n      tag_552\n        /* \"#utility.yul\":21065:21131   */\n      0xffffffffffffffffffffffffffffffffffffffffffffffffffffffffffffffff\n        /* \"#utility.yul\":21054:21063   */\n      dup3\n        /* \"#utility.yul\":21035:21132   */\n      tag_303\n      jump\t// in\n    tag_552:\n        /* \"#utility.yul\":21153:21192   */\n      tag_553\n        /* \"#utility.yul\":21183:21191   */\n      dup7\n        /* \"#utility.yul\":21172:21181   */\n      dup4\n        /* \"#utility.yul\":21153:21192   */\n      tag_303\n      jump\t// in\n    tag_553:\n        /* \"#utility.yul\":21141:21192   */\n      swap6\n      pop\n        /* \"#utility.yul\":21225:21229   */\n      dup1\n        /* \"#utility.yul\":21221:21230   */\n      not\n        /* \"#utility.yul\":21214:21219   */\n      dup5\n        /* \"#utility.yul\":21210:21231   */\n      and\n        /* \"#utility.yul\":21201:21231   */\n      swap4\n      pop\n        /* \"#utility.yul\":21274:21278   */\n      dup1\n        /* \"#utility.yul\":21264:21272   */\n      dup7\n        /* \"#utility.yul\":21260:21279   */\n      and\n        /* \"#utility.yul\":21253:21258   */\n      dup5\n        /* \"#utility.yul\":21250:21280   */\n      or\n        /* \"#utility.yul\":21240:21280   */\n      swap3\n      pop\n        /* \"#utility.yul\":20969:21286   */\n      pop\n      pop\n        /* \"#utility.yul\":20893:21286   */\n      swap4\n      swap3\n      pop\n      pop\n      pop\n      jump\t// out\n        /* \"#utility.yul\":21292:21352   */\n    tag_305:\n        /* \"#utility.yul\":21320:21323   */\n      0x00\n        /* \"#utility.yul\":21341:21346   */\n      dup2\n        /* \"#utility.yul\":21334:21346   */\n      swap1\n      pop\n        /* \"#utility.yul\":21292:21352   */\n      swap2\n      swap1\n      pop\n      jump\t// out\n        /* \"#utility.yul\":21358:21500   */\n    tag_306:\n        /* \"#utility.yul\":21408:21417   */\n      0x00\n        /* \"#utility.yul\":21441:21494   */\n      tag_556\n        /* \"#utility.yul\":21459:21493   */\n      tag_557\n        /* \"#utility.yul\":21468:21492   */\n      tag_558\n        /* \"#utility.yul\":21486:21491   */\n      dup5\n        /* \"#utility.yul\":21468:21492   */\n      tag_256\n      jump\t// in\n    tag_558:\n        /* \"#utility.yul\":21459:21493   */\n      tag_305\n      jump\t// in\n    tag_557:\n        /* \"#utility.yul\":21441:21494   */\n      tag_256\n      jump\t// in\n    tag_556:\n        /* \"#utility.yul\":21428:21494   */\n      swap1\n      pop\n        /* \"#utility.yul\":21358:21500   */\n      swap2\n      swap1\n      pop\n      jump\t// out\n        /* \"#utility.yul\":21506:21581   */\n    tag_307:\n        /* \"#utility.yul\":21549:21552   */\n      0x00\n        /* \"#utility.yul\":21570:21575   */\n      dup2\n        /* \"#utility.yul\":21563:21575   */\n      swap1\n      pop\n        /* \"#utility.yul\":21506:21581   */\n      swap2\n      swap1\n      pop\n      jump\t// out\n        /* \"#utility.yul\":21587:21856   */\n    tag_308:\n        /* \"#utility.yul\":21697:21736   */\n      tag_561\n        /* \"#utility.yul\":21728:21735   */\n      dup4\n        /* \"#utility.yul\":21697:21736   */\n      tag_306\n      jump\t// in\n    tag_561:\n        /* \"#utility.yul\":21758:21849   */\n      tag_562\n        /* \"#utility.yul\":21807:21848   */\n      tag_563\n        /* \"#utility.yul\":21831:21847   */\n      dup3\n        /* \"#utility.yul\":21807:21848   */\n      tag_307\n      jump\t// in\n    tag_563:\n        /* \"#utility.yul\":21799:21805   */\n      dup5\n        /* \"#utility.yul\":21792:21796   */\n      dup5\n        /* \"#utility.yul\":21786:21797   */\n      sload\n        /* \"#utility.yul\":21758:21849   */\n      tag_304\n      jump\t// in\n    tag_562:\n        /* \"#utility.yul\":21752:21756   */\n      dup3\n        /* \"#utility.yul\":21745:21850   */\n      sstore\n        /* \"#utility.yul\":21663:21856   */\n      pop\n        /* \"#utility.yul\":21587:21856   */\n      pop\n      pop\n      pop\n      jump\t// out\n        /* \"#utility.yul\":21862:21935   */\n    tag_309:\n        /* \"#utility.yul\":21907:21910   */\n      0x00\n        /* \"#utility.yul\":21862:21935   */\n      swap1\n      jump\t// out\n        /* \"#utility.yul\":21941:22130   */\n    tag_310:\n        /* \"#utility.yul\":22018:22050   */\n      tag_566\n      tag_309\n      jump\t// in\n    tag_566:\n        /* \"#utility.yul\":22059:22124   */\n      tag_567\n        /* \"#utility.yul\":22117:22123   */\n      dup2\n        /* \"#utility.yul\":22109:22115   */\n      dup5\n        /* \"#utility.yul\":22103:22107   */\n      dup5\n        /* \"#utility.yul\":22059:22124   */\n      tag_308\n      jump\t// in\n    tag_567:\n        /* \"#utility.yul\":21994:22130   */\n      pop\n        /* \"#utility.yul\":21941:22130   */\n      pop\n      pop\n      jump\t// out\n        /* \"#utility.yul\":22136:22322   */\n    tag_311:\n        /* \"#utility.yul\":22196:22316   */\n    tag_569:\n        /* \"#utility.yul\":22213:22216   */\n      dup2\n        /* \"#utility.yul\":22206:22211   */\n      dup2\n        /* \"#utility.yul\":22203:22217   */\n      lt\n        /* \"#utility.yul\":22196:22316   */\n      iszero\n      tag_571\n      jumpi\n        /* \"#utility.yul\":22267:22306   */\n      tag_572\n        /* \"#utility.yul\":22304:22305   */\n      0x00\n        /* \"#utility.yul\":22297:22302   */\n      dup3\n        /* \"#utility.yul\":22267:22306   */\n      tag_310\n      jump\t// in\n    tag_572:\n        /* \"#utility.yul\":22240:22241   */\n      0x01\n        /* \"#utility.yul\":22233:22238   */\n      dup2\n        /* \"#utility.yul\":22229:22242   */\n      add\n        /* \"#utility.yul\":22220:22242   */\n      swap1\n      pop\n        /* \"#utility.yul\":22196:22316   */\n      jump(tag_569)\n    tag_571:\n        /* \"#utility.yul\":22136:22322   */\n      pop\n      pop\n      jump\t// out\n        /* \"#utility.yul\":22328:22871   */\n    tag_312:\n        /* \"#utility.yul\":22429:22431   */\n      0x1f\n        /* \"#utility.yul\":22424:22427   */\n      dup3\n        /* \"#utility.yul\":22421:22432   */\n      gt\n        /* \"#utility.yul\":22418:22864   */\n      iszero\n      tag_574\n      jumpi\n        /* \"#utility.yul\":22463:22501   */\n      tag_575\n        /* \"#utility.yul\":22495:22500   */\n      dup2\n        /* \"#utility.yul\":22463:22501   */\n      tag_301\n      jump\t// in\n    tag_575:\n        /* \"#utility.yul\":22547:22576   */\n      tag_576\n        /* \"#utility.yul\":22565:22575   */\n      dup5\n        /* \"#utility.yul\":22547:22576   */\n      tag_302\n      jump\t// in\n    tag_576:\n        /* \"#utility.yul\":22537:22545   */\n      dup2\n        /* \"#utility.yul\":22533:22577   */\n      add\n        /* \"#utility.yul\":22730:22732   */\n      0x20\n        /* \"#utility.yul\":22718:22728   */\n      dup6\n        /* \"#utility.yul\":22715:22733   */\n      lt\n        /* \"#utility.yul\":22712:22761   */\n      iszero\n      tag_577\n      jumpi\n        /* \"#utility.yul\":22751:22759   */\n      dup2\n        /* \"#utility.yul\":22736:22759   */\n      swap1\n      pop\n        /* \"#utility.yul\":22712:22761   */\n    tag_577:\n        /* \"#utility.yul\":22774:22854   */\n      tag_578\n        /* \"#utility.yul\":22830:22852   */\n      tag_579\n        /* \"#utility.yul\":22848:22851   */\n      dup6\n        /* \"#utility.yul\":22830:22852   */\n      tag_302\n      jump\t// in\n    tag_579:\n        /* \"#utility.yul\":22820:22828   */\n      dup4\n        /* \"#utility.yul\":22816:22853   */\n      add\n        /* \"#utility.yul\":22803:22814   */\n      dup3\n        /* \"#utility.yul\":22774:22854   */\n      tag_311\n      jump\t// in\n    tag_578:\n        /* \"#utility.yul\":22433:22864   */\n      pop\n      pop\n        /* \"#utility.yul\":22418:22864   */\n    tag_574:\n        /* \"#utility.yul\":22328:22871   */\n      pop\n      pop\n      pop\n      jump\t// out\n        /* \"#utility.yul\":22877:22994   */\n    tag_313:\n        /* \"#utility.yul\":22931:22939   */\n      0x00\n        /* \"#utility.yul\":22981:22986   */\n      dup3\n        /* \"#utility.yul\":22975:22979   */\n      dup3\n        /* \"#utility.yul\":22971:22987   */\n      shr\n        /* \"#utility.yul\":22950:22987   */\n      swap1\n      pop\n        /* \"#utility.yul\":22877:22994   */\n      swap3\n      swap2\n      pop\n      pop\n      jump\t// out\n        /* \"#utility.yul\":23000:23169   */\n    tag_314:\n        /* \"#utility.yul\":23044:23050   */\n      0x00\n        /* \"#utility.yul\":23077:23128   */\n      tag_582\n        /* \"#utility.yul\":23125:23126   */\n      0x00\n        /* \"#utility.yul\":23121:23127   */\n      not\n        /* \"#utility.yul\":23113:23118   */\n      dup5\n        /* \"#utility.yul\":23110:23111   */\n      0x08\n        /* \"#utility.yul\":23106:23119   */\n      mul\n        /* \"#utility.yul\":23077:23128   */\n      tag_313\n      jump\t// in\n    tag_582:\n        /* \"#utility.yul\":23073:23129   */\n      not\n        /* \"#utility.yul\":23158:23162   */\n      dup1\n        /* \"#utility.yul\":23152:23156   */\n      dup4\n        /* \"#utility.yul\":23148:23163   */\n      and\n        /* \"#utility.yul\":23138:23163   */\n      swap2\n      pop\n        /* \"#utility.yul\":23051:23169   */\n      pop\n        /* \"#utility.yul\":23000:23169   */\n      swap3\n      swap2\n      pop\n      pop\n      jump\t// out\n        /* \"#utility.yul\":23174:23469   */\n    tag_315:\n        /* \"#utility.yul\":23250:23254   */\n      0x00\n        /* \"#utility.yul\":23396:23425   */\n      tag_584\n        /* \"#utility.yul\":23421:23424   */\n      dup4\n        /* \"#utility.yul\":23415:23419   */\n      dup4\n        /* \"#utility.yul\":23396:23425   */\n      tag_314\n      jump\t// in\n    tag_584:\n        /* \"#utility.yul\":23388:23425   */\n      swap2\n      pop\n        /* \"#utility.yul\":23458:23461   */\n      dup3\n        /* \"#utility.yul\":23455:23456   */\n      0x02\n        /* \"#utility.yul\":23451:23462   */\n      mul\n        /* \"#utility.yul\":23445:23449   */\n      dup3\n        /* \"#utility.yul\":23442:23463   */\n      or\n        /* \"#utility.yul\":23434:23463   */\n      swap1\n      pop\n        /* \"#utility.yul\":23174:23469   */\n      swap3\n      swap2\n      pop\n      pop\n      jump\t// out\n        /* \"#utility.yul\":23474:24869   */\n    tag_100:\n        /* \"#utility.yul\":23591:23628   */\n      tag_586\n        /* \"#utility.yul\":23624:23627   */\n      dup3\n        /* \"#utility.yul\":23591:23628   */\n      tag_278\n      jump\t// in\n    tag_586:\n        /* \"#utility.yul\":23693:23711   */\n      0xffffffffffffffff\n        /* \"#utility.yul\":23685:23691   */\n      dup2\n        /* \"#utility.yul\":23682:23712   */\n      gt\n        /* \"#utility.yul\":23679:23735   */\n      iszero\n      tag_587\n      jumpi\n        /* \"#utility.yul\":23715:23733   */\n      tag_588\n      tag_262\n      jump\t// in\n    tag_588:\n        /* \"#utility.yul\":23679:23735   */\n    tag_587:\n        /* \"#utility.yul\":23759:23797   */\n      tag_589\n        /* \"#utility.yul\":23791:23795   */\n      dup3\n        /* \"#utility.yul\":23785:23796   */\n      sload\n        /* \"#utility.yul\":23759:23797   */\n      tag_124\n      jump\t// in\n    tag_589:\n        /* \"#utility.yul\":23844:23911   */\n      tag_590\n        /* \"#utility.yul\":23904:23910   */\n      dup3\n        /* \"#utility.yul\":23896:23902   */\n      dup3\n        /* \"#utility.yul\":23890:23894   */\n      dup6\n        /* \"#utility.yul\":23844:23911   */\n      tag_312\n      jump\t// in\n    tag_590:\n        /* \"#utility.yul\":23938:23939   */\n      0x00\n        /* \"#utility.yul\":23962:23966   */\n      0x20\n        /* \"#utility.yul\":23949:23966   */\n      swap1\n      pop\n        /* \"#utility.yul\":23994:23996   */\n      0x1f\n        /* \"#utility.yul\":23986:23992   */\n      dup4\n        /* \"#utility.yul\":23983:23997   */\n      gt\n        /* \"#utility.yul\":24011:24012   */\n      0x01\n        /* \"#utility.yul\":24006:24624   */\n      dup2\n      eq\n      tag_592\n      jumpi\n        /* \"#utility.yul\":24668:24669   */\n      0x00\n        /* \"#utility.yul\":24685:24691   */\n      dup5\n        /* \"#utility.yul\":24682:24759   */\n      iszero\n      tag_593\n      jumpi\n        /* \"#utility.yul\":24734:24743   */\n      dup3\n        /* \"#utility.yul\":24729:24732   */\n      dup8\n        /* \"#utility.yul\":24725:24744   */\n      add\n        /* \"#utility.yul\":24719:24745   */\n      mload\n        /* \"#utility.yul\":24710:24745   */\n      swap1\n      pop\n        /* \"#utility.yul\":24682:24759   */\n    tag_593:\n        /* \"#utility.yul\":24785:24852   */\n      tag_594\n        /* \"#utility.yul\":24845:24851   */\n      dup6\n        /* \"#utility.yul\":24838:24843   */\n      dup3\n        /* \"#utility.yul\":24785:24852   */\n      tag_315\n      jump\t// in\n    tag_594:\n        /* \"#utility.yul\":24779:24783   */\n      dup7\n        /* \"#utility.yul\":24772:24853   */\n      sstore\n        /* \"#utility.yul\":24641:24863   */\n      pop\n        /* \"#utility.yul\":23976:24863   */\n      jump(tag_591)\n        /* \"#utility.yul\":24006:24624   */\n    tag_592:\n        /* \"#utility.yul\":24058:24062   */\n      0x1f\n        /* \"#utility.yul\":24054:24063   */\n      not\n        /* \"#utility.yul\":24046:24052   */\n      dup5\n        /* \"#utility.yul\":24042:24064   */\n      and\n        /* \"#utility.yul\":24092:24129   */\n      tag_595\n        /* \"#utility.yul\":24124:24128   */\n      dup7\n        /* \"#utility.yul\":24092:24129   */\n      tag_301\n      jump\t// in\n    tag_595:\n        /* \"#utility.yul\":24151:24152   */\n      0x00\n        /* \"#utility.yul\":24165:24373   */\n    tag_596:\n        /* \"#utility.yul\":24179:24186   */\n      dup3\n        /* \"#utility.yul\":24176:24177   */\n      dup2\n        /* \"#utility.yul\":24173:24187   */\n      lt\n        /* \"#utility.yul\":24165:24373   */\n      iszero\n      tag_598\n      jumpi\n        /* \"#utility.yul\":24258:24267   */\n      dup5\n        /* \"#utility.yul\":24253:24256   */\n      dup10\n        /* \"#utility.yul\":24249:24268   */\n      add\n        /* \"#utility.yul\":24243:24269   */\n      mload\n        /* \"#utility.yul\":24235:24241   */\n      dup3\n        /* \"#utility.yul\":24228:24270   */\n      sstore\n        /* \"#utility.yul\":24309:24310   */\n      0x01\n        /* \"#utility.yul\":24301:24307   */\n      dup3\n        /* \"#utility.yul\":24297:24311   */\n      add\n        /* \"#utility.yul\":24287:24311   */\n      swap2\n      pop\n        /* \"#utility.yul\":24356:24358   */\n      0x20\n        /* \"#utility.yul\":24345:24354   */\n      dup6\n        /* \"#utility.yul\":24341:24359   */\n      add\n        /* \"#utility.yul\":24328:24359   */\n      swap5\n      pop\n        /* \"#utility.yul\":24202:24206   */\n      0x20\n        /* \"#utility.yul\":24199:24200   */\n      dup2\n        /* \"#utility.yul\":24195:24207   */\n      add\n        /* \"#utility.yul\":24190:24207   */\n      swap1\n      pop\n        /* \"#utility.yul\":24165:24373   */\n      jump(tag_596)\n    tag_598:\n        /* \"#utility.yul\":24401:24407   */\n      dup7\n        /* \"#utility.yul\":24392:24399   */\n      dup4\n        /* \"#utility.yul\":24389:24408   */\n      lt\n        /* \"#utility.yul\":24386:24565   */\n      iszero\n      tag_599\n      jumpi\n        /* \"#utility.yul\":24459:24468   */\n      dup5\n        /* \"#utility.yul\":24454:24457   */\n      dup10\n        /* \"#utility.yul\":24450:24469   */\n      add\n        /* \"#utility.yul\":24444:24470   */\n      mload\n        /* \"#utility.yul\":24502:24550   */\n      tag_600\n        /* \"#utility.yul\":24544:24548   */\n      0x1f\n        /* \"#utility.yul\":24536:24542   */\n      dup10\n        /* \"#utility.yul\":24532:24549   */\n      and\n        /* \"#utility.yul\":24521:24530   */\n      dup3\n        /* \"#utility.yul\":24502:24550   */\n      tag_314\n      jump\t// in\n    tag_600:\n        /* \"#utility.yul\":24494:24500   */\n      dup4\n        /* \"#utility.yul\":24487:24551   */\n      sstore\n        /* \"#utility.yul\":24409:24565   */\n      pop\n        /* \"#utility.yul\":24386:24565   */\n    tag_599:\n        /* \"#utility.yul\":24611:24612   */\n      0x01\n        /* \"#utility.yul\":24607:24608   */\n      0x02\n        /* \"#utility.yul\":24599:24605   */\n      dup9\n        /* \"#utility.yul\":24595:24609   */\n      mul\n        /* \"#utility.yul\":24591:24613   */\n      add\n        /* \"#utility.yul\":24585:24589   */\n      dup9\n        /* \"#utility.yul\":24578:24614   */\n      sstore\n        /* \"#utility.yul\":24013:24624   */\n      pop\n      pop\n      pop\n        /* \"#utility.yul\":23976:24863   */\n    tag_591:\n      pop\n        /* \"#utility.yul\":23566:24869   */\n      pop\n      pop\n      pop\n        /* \"#utility.yul\":23474:24869   */\n      pop\n      pop\n      jump\t// out\n        /* \"#utility.yul\":24899:25730   */\n    tag_316:\n        /* \"#utility.yul\":24984:24987   */\n      0x00\n        /* \"#utility.yul\":25021:25026   */\n      dup2\n        /* \"#utility.yul\":25015:25027   */\n      sload\n        /* \"#utility.yul\":25050:25086   */\n      tag_602\n        /* \"#utility.yul\":25076:25085   */\n      dup2\n        /* \"#utility.yul\":25050:25086   */\n      tag_124\n      jump\t// in\n    tag_602:\n        /* \"#utility.yul\":25102:25173   */\n      tag_603\n        /* \"#utility.yul\":25166:25172   */\n      dup2\n        /* \"#utility.yul\":25161:25164   */\n      dup7\n        /* \"#utility.yul\":25102:25173   */\n      tag_279\n      jump\t// in\n    tag_603:\n        /* \"#utility.yul\":25095:25173   */\n      swap5\n      pop\n        /* \"#utility.yul\":25204:25205   */\n      0x01\n        /* \"#utility.yul\":25193:25202   */\n      dup3\n        /* \"#utility.yul\":25189:25206   */\n      and\n        /* \"#utility.yul\":25220:25221   */\n      0x00\n        /* \"#utility.yul\":25215:25379   */\n      dup2\n      eq\n      tag_605\n      jumpi\n        /* \"#utility.yul\":25393:25394   */\n      0x01\n        /* \"#utility.yul\":25388:25724   */\n      dup2\n      eq\n      tag_606\n      jumpi\n        /* \"#utility.yul\":25182:25724   */\n      jump(tag_604)\n        /* \"#utility.yul\":25215:25379   */\n    tag_605:\n        /* \"#utility.yul\":25299:25303   */\n      0xff\n        /* \"#utility.yul\":25295:25304   */\n      not\n        /* \"#utility.yul\":25284:25293   */\n      dup4\n        /* \"#utility.yul\":25280:25305   */\n      and\n        /* \"#utility.yul\":25275:25278   */\n      dup7\n        /* \"#utility.yul\":25268:25306   */\n      mstore\n        /* \"#utility.yul\":25359:25365   */\n      dup2\n        /* \"#utility.yul\":25352:25366   */\n      iszero\n        /* \"#utility.yul\":25345:25367   */\n      iszero\n        /* \"#utility.yul\":25339:25343   */\n      0x20\n        /* \"#utility.yul\":25335:25368   */\n      mul\n        /* \"#utility.yul\":25330:25333   */\n      dup7\n        /* \"#utility.yul\":25326:25369   */\n      add\n        /* \"#utility.yul\":25319:25369   */\n      swap4\n      pop\n        /* \"#utility.yul\":25215:25379   */\n      jump(tag_604)\n        /* \"#utility.yul\":25388:25724   */\n    tag_606:\n        /* \"#utility.yul\":25455:25493   */\n      tag_607\n        /* \"#utility.yul\":25487:25492   */\n      dup6\n        /* \"#utility.yul\":25455:25493   */\n      tag_301\n      jump\t// in\n    tag_607:\n        /* \"#utility.yul\":25515:25516   */\n      0x00\n        /* \"#utility.yul\":25529:25683   */\n    tag_608:\n        /* \"#utility.yul\":25543:25549   */\n      dup4\n        /* \"#utility.yul\":25540:25541   */\n      dup2\n        /* \"#utility.yul\":25537:25550   */\n      lt\n        /* \"#utility.yul\":25529:25683   */\n      iszero\n      tag_610\n      jumpi\n        /* \"#utility.yul\":25617:25624   */\n      dup2\n        /* \"#utility.yul\":25611:25625   */\n      sload\n        /* \"#utility.yul\":25607:25608   */\n      dup2\n        /* \"#utility.yul\":25602:25605   */\n      dup10\n        /* \"#utility.yul\":25598:25609   */\n      add\n        /* \"#utility.yul\":25591:25626   */\n      mstore\n        /* \"#utility.yul\":25667:25668   */\n      0x01\n        /* \"#utility.yul\":25658:25665   */\n      dup3\n        /* \"#utility.yul\":25654:25669   */\n      add\n        /* \"#utility.yul\":25643:25669   */\n      swap2\n      pop\n        /* \"#utility.yul\":25565:25569   */\n      0x20\n        /* \"#utility.yul\":25562:25563   */\n      dup2\n        /* \"#utility.yul\":25558:25570   */\n      add\n        /* \"#utility.yul\":25553:25570   */\n      swap1\n      pop\n        /* \"#utility.yul\":25529:25683   */\n      jump(tag_608)\n    tag_610:\n        /* \"#utility.yul\":25712:25713   */\n      dup1\n        /* \"#utility.yul\":25707:25710   */\n      dup9\n        /* \"#utility.yul\":25703:25714   */\n      add\n        /* \"#utility.yul\":25696:25714   */\n      swap6\n      pop\n        /* \"#utility.yul\":25395:25724   */\n      pop\n      pop\n        /* \"#utility.yul\":25182:25724   */\n    tag_604:\n      pop\n        /* \"#utility.yul\":24988:25730   */\n      pop\n      pop\n        /* \"#utility.yul\":24899:25730   */\n      swap3\n      swap2\n      pop\n      pop\n      jump\t// out\n        /* \"#utility.yul\":25736:26558   */\n    tag_102:\n        /* \"#utility.yul\":25969:25973   */\n      0x00\n        /* \"#utility.yul\":26007:26010   */\n      0xa0\n        /* \"#utility.yul\":25996:26005   */\n      dup3\n        /* \"#utility.yul\":25992:26011   */\n      add\n        /* \"#utility.yul\":25984:26011   */\n      swap1\n      pop\n        /* \"#utility.yul\":26057:26066   */\n      dup2\n        /* \"#utility.yul\":26051:26055   */\n      dup2\n        /* \"#utility.yul\":26047:26067   */\n      sub\n        /* \"#utility.yul\":26043:26044   */\n      0x00\n        /* \"#utility.yul\":26032:26041   */\n      dup4\n        /* \"#utility.yul\":26028:26045   */\n      add\n        /* \"#utility.yul\":26021:26068   */\n      mstore\n        /* \"#utility.yul\":26085:26160   */\n      tag_612\n        /* \"#utility.yul\":26155:26159   */\n      dup2\n        /* \"#utility.yul\":26146:26152   */\n      dup9\n        /* \"#utility.yul\":26085:26160   */\n      tag_316\n      jump\t// in\n    tag_612:\n        /* \"#utility.yul\":26077:26160   */\n      swap1\n      pop\n        /* \"#utility.yul\":26207:26216   */\n      dup2\n        /* \"#utility.yul\":26201:26205   */\n      dup2\n        /* \"#utility.yul\":26197:26217   */\n      sub\n        /* \"#utility.yul\":26192:26194   */\n      0x20\n        /* \"#utility.yul\":26181:26190   */\n      dup4\n        /* \"#utility.yul\":26177:26195   */\n      add\n        /* \"#utility.yul\":26170:26218   */\n      mstore\n        /* \"#utility.yul\":26235:26310   */\n      tag_613\n        /* \"#utility.yul\":26305:26309   */\n      dup2\n        /* \"#utility.yul\":26296:26302   */\n      dup8\n        /* \"#utility.yul\":26235:26310   */\n      tag_316\n      jump\t// in\n    tag_613:\n        /* \"#utility.yul\":26227:26310   */\n      swap1\n      pop\n        /* \"#utility.yul\":26320:26392   */\n      tag_614\n        /* \"#utility.yul\":26388:26390   */\n      0x40\n        /* \"#utility.yul\":26377:26386   */\n      dup4\n        /* \"#utility.yul\":26373:26391   */\n      add\n        /* \"#utility.yul\":26364:26370   */\n      dup7\n        /* \"#utility.yul\":26320:26392   */\n      tag_277\n      jump\t// in\n    tag_614:\n        /* \"#utility.yul\":26402:26474   */\n      tag_615\n        /* \"#utility.yul\":26470:26472   */\n      0x60\n        /* \"#utility.yul\":26459:26468   */\n      dup4\n        /* \"#utility.yul\":26455:26473   */\n      add\n        /* \"#utility.yul\":26446:26452   */\n      dup6\n        /* \"#utility.yul\":26402:26474   */\n      tag_277\n      jump\t// in\n    tag_615:\n        /* \"#utility.yul\":26484:26551   */\n      tag_616\n        /* \"#utility.yul\":26546:26549   */\n      0x80\n        /* \"#utility.yul\":26535:26544   */\n      dup4\n        /* \"#utility.yul\":26531:26550   */\n      add\n        /* \"#utility.yul\":26522:26528   */\n      dup5\n        /* \"#utility.yul\":26484:26551   */\n      tag_255\n      jump\t// in\n    tag_616:\n        /* \"#utility.yul\":25736:26558   */\n      swap7\n      swap6\n      pop\n      pop\n      pop\n      pop\n      pop\n      pop\n      jump\t// out\n        /* \"#utility.yul\":26564:26733   */\n    tag_317:\n        /* \"#utility.yul\":26704:26725   */\n      0x55736572206e6f7420617574686f72697a656400000000000000000000000000\n        /* \"#utility.yul\":26700:26701   */\n      0x00\n        /* \"#utility.yul\":26692:26698   */\n      dup3\n        /* \"#utility.yul\":26688:26702   */\n      add\n        /* \"#utility.yul\":26681:26726   */\n      mstore\n        /* \"#utility.yul\":26564:26733   */\n      pop\n      jump\t// out\n        /* \"#utility.yul\":26739:27105   */\n    tag_318:\n        /* \"#utility.yul\":26881:26884   */\n      0x00\n        /* \"#utility.yul\":26902:26969   */\n      tag_619\n        /* \"#utility.yul\":26966:26968   */\n      0x13\n        /* \"#utility.yul\":26961:26964   */\n      dup4\n        /* \"#utility.yul\":26902:26969   */\n      tag_279\n      jump\t// in\n    tag_619:\n        /* \"#utility.yul\":26895:26969   */\n      swap2\n      pop\n        /* \"#utility.yul\":26978:27071   */\n      tag_620\n        /* \"#utility.yul\":27067:27070   */\n      dup3\n        /* \"#utility.yul\":26978:27071   */\n      tag_317\n      jump\t// in\n    tag_620:\n        /* \"#utility.yul\":27096:27098   */\n      0x20\n        /* \"#utility.yul\":27091:27094   */\n      dup3\n        /* \"#utility.yul\":27087:27099   */\n      add\n        /* \"#utility.yul\":27080:27099   */\n      swap1\n      pop\n        /* \"#utility.yul\":26739:27105   */\n      swap2\n      swap1\n      pop\n      jump\t// out\n        /* \"#utility.yul\":27111:27530   */\n    tag_159:\n        /* \"#utility.yul\":27277:27281   */\n      0x00\n        /* \"#utility.yul\":27315:27317   */\n      0x20\n        /* \"#utility.yul\":27304:27313   */\n      dup3\n        /* \"#utility.yul\":27300:27318   */\n      add\n        /* \"#utility.yul\":27292:27318   */\n      swap1\n      pop\n        /* \"#utility.yul\":27364:27373   */\n      dup2\n        /* \"#utility.yul\":27358:27362   */\n      dup2\n        /* \"#utility.yul\":27354:27374   */\n      sub\n        /* \"#utility.yul\":27350:27351   */\n      0x00\n        /* \"#utility.yul\":27339:27348   */\n      dup4\n        /* \"#utility.yul\":27335:27352   */\n      add\n        /* \"#utility.yul\":27328:27375   */\n      mstore\n        /* \"#utility.yul\":27392:27523   */\n      tag_622\n        /* \"#utility.yul\":27518:27522   */\n      dup2\n        /* \"#utility.yul\":27392:27523   */\n      tag_318\n      jump\t// in\n    tag_622:\n        /* \"#utility.yul\":27384:27523   */\n      swap1\n      pop\n        /* \"#utility.yul\":27111:27530   */\n      swap2\n      swap1\n      pop\n      jump\t// out\n        /* \"#utility.yul\":27536:27716   */\n    tag_319:\n        /* \"#utility.yul\":27676:27708   */\n      0x456d7074792070726f647563742074797065206e6f7420616c6c6f7765640000\n        /* \"#utility.yul\":27672:27673   */\n      0x00\n        /* \"#utility.yul\":27664:27670   */\n      dup3\n        /* \"#utility.yul\":27660:27674   */\n      add\n        /* \"#utility.yul\":27653:27709   */\n      mstore\n        /* \"#utility.yul\":27536:27716   */\n      pop\n      jump\t// out\n        /* \"#utility.yul\":27722:28088   */\n    tag_320:\n        /* \"#utility.yul\":27864:27867   */\n      0x00\n        /* \"#utility.yul\":27885:27952   */\n      tag_625\n        /* \"#utility.yul\":27949:27951   */\n      0x1e\n        /* \"#utility.yul\":27944:27947   */\n      dup4\n        /* \"#utility.yul\":27885:27952   */\n      tag_279\n      jump\t// in\n    tag_625:\n        /* \"#utility.yul\":27878:27952   */\n      swap2\n      pop\n        /* \"#utility.yul\":27961:28054   */\n      tag_626\n        /* \"#utility.yul\":28050:28053   */\n      dup3\n        /* \"#utility.yul\":27961:28054   */\n      tag_319\n      jump\t// in\n    tag_626:\n        /* \"#utility.yul\":28079:28081   */\n      0x20\n        /* \"#utility.yul\":28074:28077   */\n      dup3\n        /* \"#utility.yul\":28070:28082   */\n      add\n        /* \"#utility.yul\":28063:28082   */\n      swap1\n      pop\n        /* \"#utility.yul\":27722:28088   */\n      swap2\n      swap1\n      pop\n      jump\t// out\n        /* \"#utility.yul\":28094:28513   */\n    tag_163:\n        /* \"#utility.yul\":28260:28264   */\n      0x00\n        /* \"#utility.yul\":28298:28300   */\n      0x20\n        /* \"#utility.yul\":28287:28296   */\n      dup3\n        /* \"#utility.yul\":28283:28301   */\n      add\n        /* \"#utility.yul\":28275:28301   */\n      swap1\n      pop\n        /* \"#utility.yul\":28347:28356   */\n      dup2\n        /* \"#utility.yul\":28341:28345   */\n      dup2\n        /* \"#utility.yul\":28337:28357   */\n      sub\n        /* \"#utility.yul\":28333:28334   */\n      0x00\n        /* \"#utility.yul\":28322:28331   */\n      dup4\n        /* \"#utility.yul\":28318:28335   */\n      add\n        /* \"#utility.yul\":28311:28358   */\n      mstore\n        /* \"#utility.yul\":28375:28506   */\n      tag_628\n        /* \"#utility.yul\":28501:28505   */\n      dup2\n        /* \"#utility.yul\":28375:28506   */\n      tag_320\n      jump\t// in\n    tag_628:\n        /* \"#utility.yul\":28367:28506   */\n      swap1\n      pop\n        /* \"#utility.yul\":28094:28513   */\n      swap2\n      swap1\n      pop\n      jump\t// out\n        /* \"#utility.yul\":28519:28699   */\n    tag_321:\n        /* \"#utility.yul\":28659:28691   */\n      0x456d7074792070726f64756374206e616d65206e6f7420616c6c6f7765640000\n        /* \"#utility.yul\":28655:28656   */\n      0x00\n        /* \"#utility.yul\":28647:28653   */\n      dup3\n        /* \"#utility.yul\":28643:28657   */\n      add\n        /* \"#utility.yul\":28636:28692   */\n      mstore\n        /* \"#utility.yul\":28519:28699   */\n      pop\n      jump\t// out\n        /* \"#utility.yul\":28705:29071   */\n    tag_322:\n        /* \"#utility.yul\":28847:28850   */\n      0x00\n        /* \"#utility.yul\":28868:28935   */\n      tag_631\n        /* \"#utility.yul\":28932:28934   */\n      0x1e\n        /* \"#utility.yul\":28927:28930   */\n      dup4\n        /* \"#utility.yul\":28868:28935   */\n      tag_279\n      jump\t// in\n    tag_631:\n        /* \"#utility.yul\":28861:28935   */\n      swap2\n      pop\n        /* \"#utility.yul\":28944:29037   */\n      tag_632\n        /* \"#utility.yul\":29033:29036   */\n      dup3\n        /* \"#utility.yul\":28944:29037   */\n      tag_321\n      jump\t// in\n    tag_632:\n        /* \"#utility.yul\":29062:29064   */\n      0x20\n        /* \"#utility.yul\":29057:29060   */\n      dup3\n        /* \"#utility.yul\":29053:29065   */\n      add\n        /* \"#utility.yul\":29046:29065   */\n      swap1\n      pop\n        /* \"#utility.yul\":28705:29071   */\n      swap2\n      swap1\n      pop\n      jump\t// out\n        /* \"#utility.yul\":29077:29496   */\n    tag_166:\n        /* \"#utility.yul\":29243:29247   */\n      0x00\n        /* \"#utility.yul\":29281:29283   */\n      0x20\n        /* \"#utility.yul\":29270:29279   */\n      dup3\n        /* \"#utility.yul\":29266:29284   */\n      add\n        /* \"#utility.yul\":29258:29284   */\n      swap1\n      pop\n        /* \"#utility.yul\":29330:29339   */\n      dup2\n        /* \"#utility.yul\":29324:29328   */\n      dup2\n        /* \"#utility.yul\":29320:29340   */\n      sub\n        /* \"#utility.yul\":29316:29317   */\n      0x00\n        /* \"#utility.yul\":29305:29314   */\n      dup4\n        /* \"#utility.yul\":29301:29318   */\n      add\n        /* \"#utility.yul\":29294:29341   */\n      mstore\n        /* \"#utility.yul\":29358:29489   */\n      tag_634\n        /* \"#utility.yul\":29484:29488   */\n      dup2\n        /* \"#utility.yul\":29358:29489   */\n      tag_322\n      jump\t// in\n    tag_634:\n        /* \"#utility.yul\":29350:29489   */\n      swap1\n      pop\n        /* \"#utility.yul\":29077:29496   */\n      swap2\n      swap1\n      pop\n      jump\t// out\n        /* \"#utility.yul\":29502:29680   */\n    tag_323:\n        /* \"#utility.yul\":29642:29672   */\n      0x456d707479206272616e64206e616d65206e6f7420616c6c6f77656400000000\n        /* \"#utility.yul\":29638:29639   */\n      0x00\n        /* \"#utility.yul\":29630:29636   */\n      dup3\n        /* \"#utility.yul\":29626:29640   */\n      add\n        /* \"#utility.yul\":29619:29673   */\n      mstore\n        /* \"#utility.yul\":29502:29680   */\n      pop\n      jump\t// out\n        /* \"#utility.yul\":29686:30052   */\n    tag_324:\n        /* \"#utility.yul\":29828:29831   */\n      0x00\n        /* \"#utility.yul\":29849:29916   */\n      tag_637\n        /* \"#utility.yul\":29913:29915   */\n      0x1c\n        /* \"#utility.yul\":29908:29911   */\n      dup4\n        /* \"#utility.yul\":29849:29916   */\n      tag_279\n      jump\t// in\n    tag_637:\n        /* \"#utility.yul\":29842:29916   */\n      swap2\n      pop\n        /* \"#utility.yul\":29925:30018   */\n      tag_638\n        /* \"#utility.yul\":30014:30017   */\n      dup3\n        /* \"#utility.yul\":29925:30018   */\n      tag_323\n      jump\t// in\n    tag_638:\n        /* \"#utility.yul\":30043:30045   */\n      0x20\n        /* \"#utility.yul\":30038:30041   */\n      dup3\n        /* \"#utility.yul\":30034:30046   */\n      add\n        /* \"#utility.yul\":30027:30046   */\n      swap1\n      pop\n        /* \"#utility.yul\":29686:30052   */\n      swap2\n      swap1\n      pop\n      jump\t// out\n        /* \"#utility.yul\":30058:30477   */\n    tag_169:\n        /* \"#utility.yul\":30224:30228   */\n      0x00\n        /* \"#utility.yul\":30262:30264   */\n      0x20\n        /* \"#utility.yul\":30251:30260   */\n      dup3\n        /* \"#utility.yul\":30247:30265   */\n      add\n        /* \"#utility.yul\":30239:30265   */\n      swap1\n      pop\n        /* \"#utility.yul\":30311:30320   */\n      dup2\n        /* \"#utility.yul\":30305:30309   */\n      dup2\n        /* \"#utility.yul\":30301:30321   */\n      sub\n        /* \"#utility.yul\":30297:30298   */\n      0x00\n        /* \"#utility.yul\":30286:30295   */\n      dup4\n        /* \"#utility.yul\":30282:30299   */\n      add\n        /* \"#utility.yul\":30275:30322   */\n      mstore\n        /* \"#utility.yul\":30339:30470   */\n      tag_640\n        /* \"#utility.yul\":30465:30469   */\n      dup2\n        /* \"#utility.yul\":30339:30470   */\n      tag_324\n      jump\t// in\n    tag_640:\n        /* \"#utility.yul\":30331:30470   */\n      swap1\n      pop\n        /* \"#utility.yul\":30058:30477   */\n      swap2\n      swap1\n      pop\n      jump\t// out\n        /* \"#utility.yul\":30483:30704   */\n    tag_325:\n        /* \"#utility.yul\":30623:30657   */\n      0x5175616e74697479206d7573742062652067726561746572207468616e207a65\n        /* \"#utility.yul\":30619:30620   */\n      0x00\n        /* \"#utility.yul\":30611:30617   */\n      dup3\n        /* \"#utility.yul\":30607:30621   */\n      add\n        /* \"#utility.yul\":30600:30658   */\n      mstore\n        /* \"#utility.yul\":30692:30696   */\n      0x726f000000000000000000000000000000000000000000000000000000000000\n        /* \"#utility.yul\":30687:30689   */\n      0x20\n        /* \"#utility.yul\":30679:30685   */\n      dup3\n        /* \"#utility.yul\":30675:30690   */\n      add\n        /* \"#utility.yul\":30668:30697   */\n      mstore\n        /* \"#utility.yul\":30483:30704   */\n      pop\n      jump\t// out\n        /* \"#utility.yul\":30710:31076   */\n    tag_326:\n        /* \"#utility.yul\":30852:30855   */\n      0x00\n        /* \"#utility.yul\":30873:30940   */\n      tag_643\n        /* \"#utility.yul\":30937:30939   */\n      0x22\n        /* \"#utility.yul\":30932:30935   */\n      dup4\n        /* \"#utility.yul\":30873:30940   */\n      tag_279\n      jump\t// in\n    tag_643:\n        /* \"#utility.yul\":30866:30940   */\n      swap2\n      pop\n        /* \"#utility.yul\":30949:31042   */\n      tag_644\n        /* \"#utility.yul\":31038:31041   */\n      dup3\n        /* \"#utility.yul\":30949:31042   */\n      tag_325\n      jump\t// in\n    tag_644:\n        /* \"#utility.yul\":31067:31069   */\n      0x40\n        /* \"#utility.yul\":31062:31065   */\n      dup3\n        /* \"#utility.yul\":31058:31070   */\n      add\n        /* \"#utility.yul\":31051:31070   */\n      swap1\n      pop\n        /* \"#utility.yul\":30710:31076   */\n      swap2\n      swap1\n      pop\n      jump\t// out\n        /* \"#utility.yul\":31082:31501   */\n    tag_172:\n        /* \"#utility.yul\":31248:31252   */\n      0x00\n        /* \"#utility.yul\":31286:31288   */\n      0x20\n        /* \"#utility.yul\":31275:31284   */\n      dup3\n        /* \"#utility.yul\":31271:31289   */\n      add\n        /* \"#utility.yul\":31263:31289   */\n      swap1\n      pop\n        /* \"#utility.yul\":31335:31344   */\n      dup2\n        /* \"#utility.yul\":31329:31333   */\n      dup2\n        /* \"#utility.yul\":31325:31345   */\n      sub\n        /* \"#utility.yul\":31321:31322   */\n      0x00\n        /* \"#utility.yul\":31310:31319   */\n      dup4\n        /* \"#utility.yul\":31306:31323   */\n      add\n        /* \"#utility.yul\":31299:31346   */\n      mstore\n        /* \"#utility.yul\":31363:31494   */\n      tag_646\n        /* \"#utility.yul\":31489:31493   */\n      dup2\n        /* \"#utility.yul\":31363:31494   */\n      tag_326\n      jump\t// in\n    tag_646:\n        /* \"#utility.yul\":31355:31494   */\n      swap1\n      pop\n        /* \"#utility.yul\":31082:31501   */\n      swap2\n      swap1\n      pop\n      jump\t// out\n        /* \"#utility.yul\":31507:31679   */\n    tag_327:\n        /* \"#utility.yul\":31647:31671   */\n      0x50726f6475637420616c72656164792065786973747300000000000000000000\n        /* \"#utility.yul\":31643:31644   */\n      0x00\n        /* \"#utility.yul\":31635:31641   */\n      dup3\n        /* \"#utility.yul\":31631:31645   */\n      add\n        /* \"#utility.yul\":31624:31672   */\n      mstore\n        /* \"#utility.yul\":31507:31679   */\n      pop\n      jump\t// out\n        /* \"#utility.yul\":31685:32051   */\n    tag_328:\n        /* \"#utility.yul\":31827:31830   */\n      0x00\n        /* \"#utility.yul\":31848:31915   */\n      tag_649\n        /* \"#utility.yul\":31912:31914   */\n      0x16\n        /* \"#utility.yul\":31907:31910   */\n      dup4\n        /* \"#utility.yul\":31848:31915   */\n      tag_279\n      jump\t// in\n    tag_649:\n        /* \"#utility.yul\":31841:31915   */\n      swap2\n      pop\n        /* \"#utility.yul\":31924:32017   */\n      tag_650\n        /* \"#utility.yul\":32013:32016   */\n      dup3\n        /* \"#utility.yul\":31924:32017   */\n      tag_327\n      jump\t// in\n    tag_650:\n        /* \"#utility.yul\":32042:32044   */\n      0x20\n        /* \"#utility.yul\":32037:32040   */\n      dup3\n        /* \"#utility.yul\":32033:32045   */\n      add\n        /* \"#utility.yul\":32026:32045   */\n      swap1\n      pop\n        /* \"#utility.yul\":31685:32051   */\n      swap2\n      swap1\n      pop\n      jump\t// out\n        /* \"#utility.yul\":32057:32476   */\n    tag_175:\n        /* \"#utility.yul\":32223:32227   */\n      0x00\n        /* \"#utility.yul\":32261:32263   */\n      0x20\n        /* \"#utility.yul\":32250:32259   */\n      dup3\n        /* \"#utility.yul\":32246:32264   */\n      add\n        /* \"#utility.yul\":32238:32264   */\n      swap1\n      pop\n        /* \"#utility.yul\":32310:32319   */\n      dup2\n        /* \"#utility.yul\":32304:32308   */\n      dup2\n        /* \"#utility.yul\":32300:32320   */\n      sub\n        /* \"#utility.yul\":32296:32297   */\n      0x00\n        /* \"#utility.yul\":32285:32294   */\n      dup4\n        /* \"#utility.yul\":32281:32298   */\n      add\n        /* \"#utility.yul\":32274:32321   */\n      mstore\n        /* \"#utility.yul\":32338:32469   */\n      tag_652\n        /* \"#utility.yul\":32464:32468   */\n      dup2\n        /* \"#utility.yul\":32338:32469   */\n      tag_328\n      jump\t// in\n    tag_652:\n        /* \"#utility.yul\":32330:32469   */\n      swap1\n      pop\n        /* \"#utility.yul\":32057:32476   */\n      swap2\n      swap1\n      pop\n      jump\t// out\n        /* \"#utility.yul\":32482:32606   */\n    tag_329:\n        /* \"#utility.yul\":32559:32565   */\n      0x00\n        /* \"#utility.yul\":32593:32598   */\n      dup2\n        /* \"#utility.yul\":32587:32599   */\n      mload\n        /* \"#utility.yul\":32577:32599   */\n      swap1\n      pop\n        /* \"#utility.yul\":32482:32606   */\n      swap2\n      swap1\n      pop\n      jump\t// out\n        /* \"#utility.yul\":32612:32806   */\n    tag_330:\n        /* \"#utility.yul\":32721:32732   */\n      0x00\n        /* \"#utility.yul\":32755:32761   */\n      dup3\n        /* \"#utility.yul\":32750:32753   */\n      dup3\n        /* \"#utility.yul\":32743:32762   */\n      mstore\n        /* \"#utility.yul\":32795:32799   */\n      0x20\n        /* \"#utility.yul\":32790:32793   */\n      dup3\n        /* \"#utility.yul\":32786:32800   */\n      add\n        /* \"#utility.yul\":32771:32800   */\n      swap1\n      pop\n        /* \"#utility.yul\":32612:32806   */\n      swap3\n      swap2\n      pop\n      pop\n      jump\t// out\n        /* \"#utility.yul\":32812:32954   */\n    tag_331:\n        /* \"#utility.yul\":32889:32893   */\n      0x00\n        /* \"#utility.yul\":32912:32915   */\n      dup2\n        /* \"#utility.yul\":32904:32915   */\n      swap1\n      pop\n        /* \"#utility.yul\":32942:32946   */\n      0x20\n        /* \"#utility.yul\":32937:32940   */\n      dup3\n        /* \"#utility.yul\":32933:32947   */\n      add\n        /* \"#utility.yul\":32925:32947   */\n      swap1\n      pop\n        /* \"#utility.yul\":32812:32954   */\n      swap2\n      swap1\n      pop\n      jump\t// out\n        /* \"#utility.yul\":32960:33156   */\n    tag_332:\n        /* \"#utility.yul\":33049:33059   */\n      0x00\n        /* \"#utility.yul\":33084:33150   */\n      tag_657\n        /* \"#utility.yul\":33146:33149   */\n      dup4\n        /* \"#utility.yul\":33138:33144   */\n      dup4\n        /* \"#utility.yul\":33084:33150   */\n      tag_283\n      jump\t// in\n    tag_657:\n        /* \"#utility.yul\":33070:33150   */\n      swap1\n      pop\n        /* \"#utility.yul\":32960:33156   */\n      swap3\n      swap2\n      pop\n      pop\n      jump\t// out\n        /* \"#utility.yul\":33162:33285   */\n    tag_333:\n        /* \"#utility.yul\":33242:33246   */\n      0x00\n        /* \"#utility.yul\":33274:33278   */\n      0x20\n        /* \"#utility.yul\":33269:33272   */\n      dup3\n        /* \"#utility.yul\":33265:33279   */\n      add\n        /* \"#utility.yul\":33257:33279   */\n      swap1\n      pop\n        /* \"#utility.yul\":33162:33285   */\n      swap2\n      swap1\n      pop\n      jump\t// out\n        /* \"#utility.yul\":33319:34310   */\n    tag_334:\n        /* \"#utility.yul\":33458:33461   */\n      0x00\n        /* \"#utility.yul\":33487:33551   */\n      tag_660\n        /* \"#utility.yul\":33545:33550   */\n      dup3\n        /* \"#utility.yul\":33487:33551   */\n      tag_329\n      jump\t// in\n    tag_660:\n        /* \"#utility.yul\":33567:33663   */\n      tag_661\n        /* \"#utility.yul\":33656:33662   */\n      dup2\n        /* \"#utility.yul\":33651:33654   */\n      dup6\n        /* \"#utility.yul\":33567:33663   */\n      tag_330\n      jump\t// in\n    tag_661:\n        /* \"#utility.yul\":33560:33663   */\n      swap4\n      pop\n        /* \"#utility.yul\":33689:33692   */\n      dup4\n        /* \"#utility.yul\":33734:33738   */\n      0x20\n        /* \"#utility.yul\":33726:33732   */\n      dup3\n        /* \"#utility.yul\":33722:33739   */\n      mul\n        /* \"#utility.yul\":33717:33720   */\n      dup6\n        /* \"#utility.yul\":33713:33740   */\n      add\n        /* \"#utility.yul\":33764:33830   */\n      tag_662\n        /* \"#utility.yul\":33824:33829   */\n      dup6\n        /* \"#utility.yul\":33764:33830   */\n      tag_331\n      jump\t// in\n    tag_662:\n        /* \"#utility.yul\":33853:33860   */\n      dup1\n        /* \"#utility.yul\":33884:33885   */\n      0x00\n        /* \"#utility.yul\":33869:34265   */\n    tag_663:\n        /* \"#utility.yul\":33894:33900   */\n      dup6\n        /* \"#utility.yul\":33891:33892   */\n      dup2\n        /* \"#utility.yul\":33888:33901   */\n      lt\n        /* \"#utility.yul\":33869:34265   */\n      iszero\n      tag_665\n      jumpi\n        /* \"#utility.yul\":33965:33974   */\n      dup5\n        /* \"#utility.yul\":33959:33963   */\n      dup5\n        /* \"#utility.yul\":33955:33975   */\n      sub\n        /* \"#utility.yul\":33950:33953   */\n      dup10\n        /* \"#utility.yul\":33943:33976   */\n      mstore\n        /* \"#utility.yul\":34016:34022   */\n      dup2\n        /* \"#utility.yul\":34010:34023   */\n      mload\n        /* \"#utility.yul\":34044:34128   */\n      tag_666\n        /* \"#utility.yul\":34123:34127   */\n      dup6\n        /* \"#utility.yul\":34108:34121   */\n      dup3\n        /* \"#utility.yul\":34044:34128   */\n      tag_332\n      jump\t// in\n    tag_666:\n        /* \"#utility.yul\":34036:34128   */\n      swap5\n      pop\n        /* \"#utility.yul\":34151:34221   */\n      tag_667\n        /* \"#utility.yul\":34214:34220   */\n      dup4\n        /* \"#utility.yul\":34151:34221   */\n      tag_333\n      jump\t// in\n    tag_667:\n        /* \"#utility.yul\":34141:34221   */\n      swap3\n      pop\n        /* \"#utility.yul\":34250:34254   */\n      0x20\n        /* \"#utility.yul\":34245:34248   */\n      dup11\n        /* \"#utility.yul\":34241:34255   */\n      add\n        /* \"#utility.yul\":34234:34255   */\n      swap10\n      pop\n        /* \"#utility.yul\":33929:34265   */\n      pop\n        /* \"#utility.yul\":33916:33917   */\n      0x01\n        /* \"#utility.yul\":33913:33914   */\n      dup2\n        /* \"#utility.yul\":33909:33918   */\n      add\n        /* \"#utility.yul\":33904:33918   */\n      swap1\n      pop\n        /* \"#utility.yul\":33869:34265   */\n      jump(tag_663)\n    tag_665:\n        /* \"#utility.yul\":33873:33887   */\n      pop\n        /* \"#utility.yul\":34281:34285   */\n      dup3\n        /* \"#utility.yul\":34274:34285   */\n      swap8\n      pop\n        /* \"#utility.yul\":34301:34304   */\n      dup8\n        /* \"#utility.yul\":34294:34304   */\n      swap6\n      pop\n        /* \"#utility.yul\":33463:34310   */\n      pop\n      pop\n      pop\n      pop\n      pop\n        /* \"#utility.yul\":33319:34310   */\n      swap3\n      swap2\n      pop\n      pop\n      jump\t// out\n        /* \"#utility.yul\":34340:35151   */\n    tag_335:\n        /* \"#utility.yul\":34415:34418   */\n      0x00\n        /* \"#utility.yul\":34452:34457   */\n      dup2\n        /* \"#utility.yul\":34446:34458   */\n      sload\n        /* \"#utility.yul\":34481:34517   */\n      tag_669\n        /* \"#utility.yul\":34507:34516   */\n      dup2\n        /* \"#utility.yul\":34481:34517   */\n      tag_124\n      jump\t// in\n    tag_669:\n        /* \"#utility.yul\":34533:34594   */\n      tag_670\n        /* \"#utility.yul\":34587:34593   */\n      dup2\n        /* \"#utility.yul\":34582:34585   */\n      dup7\n        /* \"#utility.yul\":34533:34594   */\n      tag_282\n      jump\t// in\n    tag_670:\n        /* \"#utility.yul\":34526:34594   */\n      swap5\n      pop\n        /* \"#utility.yul\":34625:34626   */\n      0x01\n        /* \"#utility.yul\":34614:34623   */\n      dup3\n        /* \"#utility.yul\":34610:34627   */\n      and\n        /* \"#utility.yul\":34641:34642   */\n      0x00\n        /* \"#utility.yul\":34636:34800   */\n      dup2\n      eq\n      tag_672\n      jumpi\n        /* \"#utility.yul\":34814:34815   */\n      0x01\n        /* \"#utility.yul\":34809:35145   */\n      dup2\n      eq\n      tag_673\n      jumpi\n        /* \"#utility.yul\":34603:35145   */\n      jump(tag_671)\n        /* \"#utility.yul\":34636:34800   */\n    tag_672:\n        /* \"#utility.yul\":34720:34724   */\n      0xff\n        /* \"#utility.yul\":34716:34725   */\n      not\n        /* \"#utility.yul\":34705:34714   */\n      dup4\n        /* \"#utility.yul\":34701:34726   */\n      and\n        /* \"#utility.yul\":34696:34699   */\n      dup7\n        /* \"#utility.yul\":34689:34727   */\n      mstore\n        /* \"#utility.yul\":34780:34786   */\n      dup2\n        /* \"#utility.yul\":34773:34787   */\n      iszero\n        /* \"#utility.yul\":34766:34788   */\n      iszero\n        /* \"#utility.yul\":34760:34764   */\n      0x20\n        /* \"#utility.yul\":34756:34789   */\n      mul\n        /* \"#utility.yul\":34751:34754   */\n      dup7\n        /* \"#utility.yul\":34747:34790   */\n      add\n        /* \"#utility.yul\":34740:34790   */\n      swap4\n      pop\n        /* \"#utility.yul\":34636:34800   */\n      jump(tag_671)\n        /* \"#utility.yul\":34809:35145   */\n    tag_673:\n        /* \"#utility.yul\":34876:34914   */\n      tag_674\n        /* \"#utility.yul\":34908:34913   */\n      dup6\n        /* \"#utility.yul\":34876:34914   */\n      tag_301\n      jump\t// in\n    tag_674:\n        /* \"#utility.yul\":34936:34937   */\n      0x00\n        /* \"#utility.yul\":34950:35104   */\n    tag_675:\n        /* \"#utility.yul\":34964:34970   */\n      dup4\n        /* \"#utility.yul\":34961:34962   */\n      dup2\n        /* \"#utility.yul\":34958:34971   */\n      lt\n        /* \"#utility.yul\":34950:35104   */\n      iszero\n      tag_677\n      jumpi\n        /* \"#utility.yul\":35038:35045   */\n      dup2\n        /* \"#utility.yul\":35032:35046   */\n      sload\n        /* \"#utility.yul\":35028:35029   */\n      dup2\n        /* \"#utility.yul\":35023:35026   */\n      dup10\n        /* \"#utility.yul\":35019:35030   */\n      add\n        /* \"#utility.yul\":35012:35047   */\n      mstore\n        /* \"#utility.yul\":35088:35089   */\n      0x01\n        /* \"#utility.yul\":35079:35086   */\n      dup3\n        /* \"#utility.yul\":35075:35090   */\n      add\n        /* \"#utility.yul\":35064:35090   */\n      swap2\n      pop\n        /* \"#utility.yul\":34986:34990   */\n      0x20\n        /* \"#utility.yul\":34983:34984   */\n      dup2\n        /* \"#utility.yul\":34979:34991   */\n      add\n        /* \"#utility.yul\":34974:34991   */\n      swap1\n      pop\n        /* \"#utility.yul\":34950:35104   */\n      jump(tag_675)\n    tag_677:\n        /* \"#utility.yul\":35133:35134   */\n      dup1\n        /* \"#utility.yul\":35128:35131   */\n      dup9\n        /* \"#utility.yul\":35124:35135   */\n      add\n        /* \"#utility.yul\":35117:35135   */\n      swap6\n      pop\n        /* \"#utility.yul\":34816:35145   */\n      pop\n      pop\n        /* \"#utility.yul\":34603:35145   */\n    tag_671:\n      pop\n        /* \"#utility.yul\":34419:35151   */\n      pop\n      pop\n        /* \"#utility.yul\":34340:35151   */\n      swap3\n      swap2\n      pop\n      pop\n      jump\t// out\n        /* \"#utility.yul\":35157:35259   */\n    tag_336:\n        /* \"#utility.yul\":35199:35207   */\n      0x00\n        /* \"#utility.yul\":35246:35251   */\n      dup2\n        /* \"#utility.yul\":35243:35244   */\n      0x00\n        /* \"#utility.yul\":35239:35252   */\n      shr\n        /* \"#utility.yul\":35218:35252   */\n      swap1\n      pop\n        /* \"#utility.yul\":35157:35259   */\n      swap2\n      swap1\n      pop\n      jump\t// out\n        /* \"#utility.yul\":35265:35355   */\n    tag_337:\n        /* \"#utility.yul\":35315:35322   */\n      0x00\n        /* \"#utility.yul\":35344:35349   */\n      dup2\n        /* \"#utility.yul\":35333:35349   */\n      swap1\n      pop\n        /* \"#utility.yul\":35265:35355   */\n      swap2\n      swap1\n      pop\n      jump\t// out\n        /* \"#utility.yul\":35361:35527   */\n    tag_338:\n        /* \"#utility.yul\":35430:35435   */\n      0x00\n        /* \"#utility.yul\":35455:35521   */\n      tag_681\n        /* \"#utility.yul\":35486:35520   */\n      tag_682\n        /* \"#utility.yul\":35509:35519   */\n      dup4\n        /* \"#utility.yul\":35486:35520   */\n      tag_336\n      jump\t// in\n    tag_682:\n        /* \"#utility.yul\":35455:35521   */\n      tag_337\n      jump\t// in\n    tag_681:\n        /* \"#utility.yul\":35446:35521   */\n      swap1\n      pop\n        /* \"#utility.yul\":35361:35527   */\n      swap2\n      swap1\n      pop\n      jump\t// out\n        /* \"#utility.yul\":35533:35631   */\n    tag_339:\n        /* \"#utility.yul\":35580:35587   */\n      0x00\n        /* \"#utility.yul\":35620:35624   */\n      0xff\n        /* \"#utility.yul\":35613:35618   */\n      dup3\n        /* \"#utility.yul\":35609:35625   */\n      and\n        /* \"#utility.yul\":35598:35625   */\n      swap1\n      pop\n        /* \"#utility.yul\":35533:35631   */\n      swap2\n      swap1\n      pop\n      jump\t// out\n        /* \"#utility.yul\":35637:35797   */\n    tag_340:\n        /* \"#utility.yul\":35703:35708   */\n      0x00\n        /* \"#utility.yul\":35728:35791   */\n      tag_685\n        /* \"#utility.yul\":35756:35790   */\n      tag_686\n        /* \"#utility.yul\":35779:35789   */\n      dup4\n        /* \"#utility.yul\":35756:35790   */\n      tag_336\n      jump\t// in\n    tag_686:\n        /* \"#utility.yul\":35728:35791   */\n      tag_339\n      jump\t// in\n    tag_685:\n        /* \"#utility.yul\":35719:35791   */\n      swap1\n      pop\n        /* \"#utility.yul\":35637:35797   */\n      swap2\n      swap1\n      pop\n      jump\t// out\n        /* \"#utility.yul\":35803:35905   */\n    tag_341:\n        /* \"#utility.yul\":35845:35853   */\n      0x00\n        /* \"#utility.yul\":35892:35897   */\n      dup2\n        /* \"#utility.yul\":35889:35890   */\n      0x08\n        /* \"#utility.yul\":35885:35898   */\n      shr\n        /* \"#utility.yul\":35864:35898   */\n      swap1\n      pop\n        /* \"#utility.yul\":35803:35905   */\n      swap2\n      swap1\n      pop\n      jump\t// out\n        /* \"#utility.yul\":35911:36071   */\n    tag_342:\n        /* \"#utility.yul\":35977:35982   */\n      0x00\n        /* \"#utility.yul\":36002:36065   */\n      tag_689\n        /* \"#utility.yul\":36030:36064   */\n      tag_690\n        /* \"#utility.yul\":36053:36063   */\n      dup4\n        /* \"#utility.yul\":36030:36064   */\n      tag_341\n      jump\t// in\n    tag_690:\n        /* \"#utility.yul\":36002:36065   */\n      tag_339\n      jump\t// in\n    tag_689:\n        /* \"#utility.yul\":35993:36065   */\n      swap1\n      pop\n        /* \"#utility.yul\":35911:36071   */\n      swap2\n      swap1\n      pop\n      jump\t// out\n        /* \"#utility.yul\":36149:37799   */\n    tag_343:\n        /* \"#utility.yul\":36265:36268   */\n      0x00\n        /* \"#utility.yul\":36301:36305   */\n      0xc0\n        /* \"#utility.yul\":36296:36299   */\n      dup4\n        /* \"#utility.yul\":36292:36306   */\n      add\n        /* \"#utility.yul\":36332:36333   */\n      0x00\n        /* \"#utility.yul\":36409:36413   */\n      dup1\n        /* \"#utility.yul\":36402:36407   */\n      dup5\n        /* \"#utility.yul\":36398:36414   */\n      add\n        /* \"#utility.yul\":36461:36464   */\n      dup6\n        /* \"#utility.yul\":36455:36459   */\n      dup4\n        /* \"#utility.yul\":36451:36465   */\n      sub\n        /* \"#utility.yul\":36444:36448   */\n      0x00\n        /* \"#utility.yul\":36439:36442   */\n      dup8\n        /* \"#utility.yul\":36435:36449   */\n      add\n        /* \"#utility.yul\":36428:36466   */\n      mstore\n        /* \"#utility.yul\":36487:36557   */\n      tag_692\n        /* \"#utility.yul\":36552:36556   */\n      dup4\n        /* \"#utility.yul\":36538:36550   */\n      dup3\n        /* \"#utility.yul\":36487:36557   */\n      tag_335\n      jump\t// in\n    tag_692:\n        /* \"#utility.yul\":36479:36557   */\n      swap3\n      pop\n        /* \"#utility.yul\":36343:36568   */\n      pop\n        /* \"#utility.yul\":36649:36653   */\n      0x01\n        /* \"#utility.yul\":36642:36647   */\n      dup5\n        /* \"#utility.yul\":36638:36654   */\n      add\n        /* \"#utility.yul\":36701:36704   */\n      dup6\n        /* \"#utility.yul\":36695:36699   */\n      dup4\n        /* \"#utility.yul\":36691:36705   */\n      sub\n        /* \"#utility.yul\":36684:36688   */\n      0x20\n        /* \"#utility.yul\":36679:36682   */\n      dup8\n        /* \"#utility.yul\":36675:36689   */\n      add\n        /* \"#utility.yul\":36668:36706   */\n      mstore\n        /* \"#utility.yul\":36727:36797   */\n      tag_693\n        /* \"#utility.yul\":36792:36796   */\n      dup4\n        /* \"#utility.yul\":36778:36790   */\n      dup3\n        /* \"#utility.yul\":36727:36797   */\n      tag_335\n      jump\t// in\n    tag_693:\n        /* \"#utility.yul\":36719:36797   */\n      swap3\n      pop\n        /* \"#utility.yul\":36578:36808   */\n      pop\n        /* \"#utility.yul\":36887:36891   */\n      0x02\n        /* \"#utility.yul\":36880:36885   */\n      dup5\n        /* \"#utility.yul\":36876:36892   */\n      add\n        /* \"#utility.yul\":36870:36893   */\n      sload\n        /* \"#utility.yul\":36857:36893   */\n      swap1\n      pop\n        /* \"#utility.yul\":36926:36981   */\n      tag_694\n        /* \"#utility.yul\":36971:36980   */\n      dup2\n        /* \"#utility.yul\":36926:36981   */\n      tag_338\n      jump\t// in\n    tag_694:\n        /* \"#utility.yul\":36994:37057   */\n      tag_695\n        /* \"#utility.yul\":37051:37055   */\n      0x40\n        /* \"#utility.yul\":37046:37049   */\n      dup8\n        /* \"#utility.yul\":37042:37056   */\n      add\n        /* \"#utility.yul\":37028:37040   */\n      dup3\n        /* \"#utility.yul\":36994:37057   */\n      tag_284\n      jump\t// in\n    tag_695:\n        /* \"#utility.yul\":36818:37067   */\n      pop\n        /* \"#utility.yul\":37144:37148   */\n      0x03\n        /* \"#utility.yul\":37137:37142   */\n      dup5\n        /* \"#utility.yul\":37133:37149   */\n      add\n        /* \"#utility.yul\":37127:37150   */\n      sload\n        /* \"#utility.yul\":37114:37150   */\n      swap1\n      pop\n        /* \"#utility.yul\":37183:37235   */\n      tag_696\n        /* \"#utility.yul\":37225:37234   */\n      dup2\n        /* \"#utility.yul\":37183:37235   */\n      tag_340\n      jump\t// in\n    tag_696:\n        /* \"#utility.yul\":37248:37305   */\n      tag_697\n        /* \"#utility.yul\":37299:37303   */\n      0x60\n        /* \"#utility.yul\":37294:37297   */\n      dup8\n        /* \"#utility.yul\":37290:37304   */\n      add\n        /* \"#utility.yul\":37276:37288   */\n      dup3\n        /* \"#utility.yul\":37248:37305   */\n      tag_285\n      jump\t// in\n    tag_697:\n        /* \"#utility.yul\":37077:37315   */\n      pop\n        /* \"#utility.yul\":37383:37435   */\n      tag_698\n        /* \"#utility.yul\":37425:37434   */\n      dup2\n        /* \"#utility.yul\":37383:37435   */\n      tag_342\n      jump\t// in\n    tag_698:\n        /* \"#utility.yul\":37448:37505   */\n      tag_699\n        /* \"#utility.yul\":37499:37503   */\n      0x80\n        /* \"#utility.yul\":37494:37497   */\n      dup8\n        /* \"#utility.yul\":37490:37504   */\n      add\n        /* \"#utility.yul\":37476:37488   */\n      dup3\n        /* \"#utility.yul\":37448:37505   */\n      tag_285\n      jump\t// in\n    tag_699:\n        /* \"#utility.yul\":37325:37515   */\n      pop\n        /* \"#utility.yul\":37592:37596   */\n      0x04\n        /* \"#utility.yul\":37585:37590   */\n      dup5\n        /* \"#utility.yul\":37581:37597   */\n      add\n        /* \"#utility.yul\":37575:37598   */\n      sload\n        /* \"#utility.yul\":37562:37598   */\n      swap1\n      pop\n        /* \"#utility.yul\":37631:37686   */\n      tag_700\n        /* \"#utility.yul\":37676:37685   */\n      dup2\n        /* \"#utility.yul\":37631:37686   */\n      tag_338\n      jump\t// in\n    tag_700:\n        /* \"#utility.yul\":37699:37762   */\n      tag_701\n        /* \"#utility.yul\":37756:37760   */\n      0xa0\n        /* \"#utility.yul\":37751:37754   */\n      dup8\n        /* \"#utility.yul\":37747:37761   */\n      add\n        /* \"#utility.yul\":37733:37745   */\n      dup3\n        /* \"#utility.yul\":37699:37762   */\n      tag_284\n      jump\t// in\n    tag_701:\n        /* \"#utility.yul\":37525:37772   */\n      pop\n        /* \"#utility.yul\":37789:37793   */\n      dup2\n        /* \"#utility.yul\":37782:37793   */\n      swap3\n      pop\n        /* \"#utility.yul\":36270:37799   */\n      pop\n      pop\n        /* \"#utility.yul\":36149:37799   */\n      swap3\n      swap2\n      pop\n      pop\n      jump\t// out\n        /* \"#utility.yul\":37805:39491   */\n    tag_187:\n        /* \"#utility.yul\":38313:38317   */\n      0x00\n        /* \"#utility.yul\":38351:38354   */\n      0xe0\n        /* \"#utility.yul\":38340:38349   */\n      dup3\n        /* \"#utility.yul\":38336:38355   */\n      add\n        /* \"#utility.yul\":38328:38355   */\n      swap1\n      pop\n        /* \"#utility.yul\":38401:38410   */\n      dup2\n        /* \"#utility.yul\":38395:38399   */\n      dup2\n        /* \"#utility.yul\":38391:38411   */\n      sub\n        /* \"#utility.yul\":38387:38388   */\n      0x00\n        /* \"#utility.yul\":38376:38385   */\n      dup4\n        /* \"#utility.yul\":38372:38389   */\n      add\n        /* \"#utility.yul\":38365:38412   */\n      mstore\n        /* \"#utility.yul\":38429:38507   */\n      tag_703\n        /* \"#utility.yul\":38502:38506   */\n      dup2\n        /* \"#utility.yul\":38493:38499   */\n      dup11\n        /* \"#utility.yul\":38429:38507   */\n      tag_281\n      jump\t// in\n    tag_703:\n        /* \"#utility.yul\":38421:38507   */\n      swap1\n      pop\n        /* \"#utility.yul\":38554:38563   */\n      dup2\n        /* \"#utility.yul\":38548:38552   */\n      dup2\n        /* \"#utility.yul\":38544:38564   */\n      sub\n        /* \"#utility.yul\":38539:38541   */\n      0x20\n        /* \"#utility.yul\":38528:38537   */\n      dup4\n        /* \"#utility.yul\":38524:38542   */\n      add\n        /* \"#utility.yul\":38517:38565   */\n      mstore\n        /* \"#utility.yul\":38582:38660   */\n      tag_704\n        /* \"#utility.yul\":38655:38659   */\n      dup2\n        /* \"#utility.yul\":38646:38652   */\n      dup10\n        /* \"#utility.yul\":38582:38660   */\n      tag_281\n      jump\t// in\n    tag_704:\n        /* \"#utility.yul\":38574:38660   */\n      swap1\n      pop\n        /* \"#utility.yul\":38707:38716   */\n      dup2\n        /* \"#utility.yul\":38701:38705   */\n      dup2\n        /* \"#utility.yul\":38697:38717   */\n      sub\n        /* \"#utility.yul\":38692:38694   */\n      0x40\n        /* \"#utility.yul\":38681:38690   */\n      dup4\n        /* \"#utility.yul\":38677:38695   */\n      add\n        /* \"#utility.yul\":38670:38718   */\n      mstore\n        /* \"#utility.yul\":38735:38813   */\n      tag_705\n        /* \"#utility.yul\":38808:38812   */\n      dup2\n        /* \"#utility.yul\":38799:38805   */\n      dup9\n        /* \"#utility.yul\":38735:38813   */\n      tag_281\n      jump\t// in\n    tag_705:\n        /* \"#utility.yul\":38727:38813   */\n      swap1\n      pop\n        /* \"#utility.yul\":38860:38869   */\n      dup2\n        /* \"#utility.yul\":38854:38858   */\n      dup2\n        /* \"#utility.yul\":38850:38870   */\n      sub\n        /* \"#utility.yul\":38845:38847   */\n      0x60\n        /* \"#utility.yul\":38834:38843   */\n      dup4\n        /* \"#utility.yul\":38830:38848   */\n      add\n        /* \"#utility.yul\":38823:38871   */\n      mstore\n        /* \"#utility.yul\":38888:39016   */\n      tag_706\n        /* \"#utility.yul\":39011:39015   */\n      dup2\n        /* \"#utility.yul\":39002:39008   */\n      dup8\n        /* \"#utility.yul\":38888:39016   */\n      tag_334\n      jump\t// in\n    tag_706:\n        /* \"#utility.yul\":38880:39016   */\n      swap1\n      pop\n        /* \"#utility.yul\":39064:39073   */\n      dup2\n        /* \"#utility.yul\":39058:39062   */\n      dup2\n        /* \"#utility.yul\":39054:39074   */\n      sub\n        /* \"#utility.yul\":39048:39051   */\n      0x80\n        /* \"#utility.yul\":39037:39046   */\n      dup4\n        /* \"#utility.yul\":39033:39052   */\n      add\n        /* \"#utility.yul\":39026:39075   */\n      mstore\n        /* \"#utility.yul\":39092:39220   */\n      tag_707\n        /* \"#utility.yul\":39215:39219   */\n      dup2\n        /* \"#utility.yul\":39206:39212   */\n      dup7\n        /* \"#utility.yul\":39092:39220   */\n      tag_334\n      jump\t// in\n    tag_707:\n        /* \"#utility.yul\":39084:39220   */\n      swap1\n      pop\n        /* \"#utility.yul\":39230:39303   */\n      tag_708\n        /* \"#utility.yul\":39298:39301   */\n      0xa0\n        /* \"#utility.yul\":39287:39296   */\n      dup4\n        /* \"#utility.yul\":39283:39302   */\n      add\n        /* \"#utility.yul\":39274:39280   */\n      dup6\n        /* \"#utility.yul\":39230:39303   */\n      tag_277\n      jump\t// in\n    tag_708:\n        /* \"#utility.yul\":39351:39360   */\n      dup2\n        /* \"#utility.yul\":39345:39349   */\n      dup2\n        /* \"#utility.yul\":39341:39361   */\n      sub\n        /* \"#utility.yul\":39335:39338   */\n      0xc0\n        /* \"#utility.yul\":39324:39333   */\n      dup4\n        /* \"#utility.yul\":39320:39339   */\n      add\n        /* \"#utility.yul\":39313:39362   */\n      mstore\n        /* \"#utility.yul\":39379:39484   */\n      tag_709\n        /* \"#utility.yul\":39479:39483   */\n      dup2\n        /* \"#utility.yul\":39470:39476   */\n      dup5\n        /* \"#utility.yul\":39379:39484   */\n      tag_343\n      jump\t// in\n    tag_709:\n        /* \"#utility.yul\":39371:39484   */\n      swap1\n      pop\n        /* \"#utility.yul\":37805:39491   */\n      swap9\n      swap8\n      pop\n      pop\n      pop\n      pop\n      pop\n      pop\n      pop\n      pop\n      jump\t// out\n        /* \"#utility.yul\":39497:39829   */\n    tag_230:\n        /* \"#utility.yul\":39618:39622   */\n      0x00\n        /* \"#utility.yul\":39656:39658   */\n      0x40\n        /* \"#utility.yul\":39645:39654   */\n      dup3\n        /* \"#utility.yul\":39641:39659   */\n      add\n        /* \"#utility.yul\":39633:39659   */\n      swap1\n      pop\n        /* \"#utility.yul\":39669:39740   */\n      tag_711\n        /* \"#utility.yul\":39737:39738   */\n      0x00\n        /* \"#utility.yul\":39726:39735   */\n      dup4\n        /* \"#utility.yul\":39722:39739   */\n      add\n        /* \"#utility.yul\":39713:39719   */\n      dup6\n        /* \"#utility.yul\":39669:39740   */\n      tag_287\n      jump\t// in\n    tag_711:\n        /* \"#utility.yul\":39750:39822   */\n      tag_712\n        /* \"#utility.yul\":39818:39820   */\n      0x20\n        /* \"#utility.yul\":39807:39816   */\n      dup4\n        /* \"#utility.yul\":39803:39821   */\n      add\n        /* \"#utility.yul\":39794:39800   */\n      dup5\n        /* \"#utility.yul\":39750:39822   */\n      tag_272\n      jump\t// in\n    tag_712:\n        /* \"#utility.yul\":39497:39829   */\n      swap4\n      swap3\n      pop\n      pop\n      pop\n      jump\t// out\n\n    auxdata: 0xa2646970667358221220767fbf27469a277a6e57f2ba027e147700e46c1467ff619a7888b611b1d83a0564736f6c634300081a0033\n}\n",
				"bytecode": {
					"linkReferences": {},
					"object": "608060405234801561000f575f80fd5b50335f73ffffffffffffffffffffffffffffffffffffffff168173ffffffffffffffffffffffffffffffffffffffff1603610081575f6040517f1e4fbdf70000000000000000000000000000000000000000000000000000000081526004016100789190610196565b60405180910390fd5b6100908161009660201b60201c565b506101af565b5f805f9054906101000a900473ffffffffffffffffffffffffffffffffffffffff169050815f806101000a81548173ffffffffffffffffffffffffffffffffffffffff021916908373ffffffffffffffffffffffffffffffffffffffff1602179055508173ffffffffffffffffffffffffffffffffffffffff168173ffffffffffffffffffffffffffffffffffffffff167f8be0079c531659141344cd1fd0a4f28419497f9722a3daafe3b4186f6b6457e060405160405180910390a35050565b5f73ffffffffffffffffffffffffffffffffffffffff82169050919050565b5f61018082610157565b9050919050565b61019081610176565b82525050565b5f6020820190506101a95f830184610187565b92915050565b612767806101bc5f395ff3fe608060405234801561000f575f80fd5b50600436106100fe575f3560e01c80638f2fdb4211610095578063b48028e311610064578063b48028e314610299578063d547741f146102b5578063f2fde38b146102d1578063f6468251146102ed576100fe565b80638f2fdb421461021357806391d148541461022f5780639ed04f5d1461025f578063a217fddf1461027b576100fe565b806336568abe116100d157806336568abe1461019a578063715018a6146101b65780637acc0b20146101c05780638da5cb5b146101f5576100fe565b806301ffc9a71461010257806321120f9a14610132578063248a9ca31461014e5780632f2ff15d1461017e575b5f80fd5b61011c60048036038101906101179190611463565b61030b565b60405161012991906114a8565b60405180910390f35b61014c60048036038101906101479190611630565b610384565b005b610168600480360381019061016391906116bd565b61059b565b60405161017591906116f7565b60405180910390f35b6101986004803603810190610193919061176a565b6105b8565b005b6101b460048036038101906101af919061176a565b6105da565b005b6101be610655565b005b6101da60048036038101906101d591906117a8565b610668565b6040516101ec96959493929190611935565b60405180910390f35b6101fd6109a4565b60405161020a91906119bf565b60405180910390f35b61022d600480360381019061022891906119d8565b6109cb565b005b6102496004803603810190610244919061176a565b610a01565b60405161025691906114a8565b60405180910390f35b61027960048036038101906102749190611b0f565b610a65565b005b610283610e35565b60405161029091906116f7565b60405180910390f35b6102b360048036038101906102ae91906119d8565b610e3b565b005b6102cf60048036038101906102ca919061176a565b610e71565b005b6102eb60048036038101906102e691906119d8565b610e93565b005b6102f5610f17565b60405161030291906116f7565b60405180910390f35b5f7f7965db0b000000000000000000000000000000000000000000000000000000007bffffffffffffffffffffffffffffffffffffffffffffffffffffffff1916827bffffffffffffffffffffffffffffffffffffffffffffffffffffffff1916148061037d575061037c82610f3b565b5b9050919050565b815f151560025f8381526020019081526020015f206007016003015f9054906101000a900460ff161515036103ee576040517f08c379a00000000000000000000000000000000000000000000000000000000081526004016103e590611ce1565b60405180910390fd5b8060025f8381526020019081526020015f205f015414610443576040517f08c379a000000000000000000000000000000000000000000000000000000000815260040161043a90611d49565b60405180910390fd5b5f60025f8381526020019081526020015f206006015403610499576040517f08c379a000000000000000000000000000000000000000000000000000000000815260040161049090611db1565b60405180910390fd5b8160025f8581526020019081526020015f206007015f0190816104bc9190611fc9565b504260025f8581526020019081526020015f2060070160020181905550600160025f8581526020019081526020015f206007016003015f6101000a81548160ff0219169083151502179055507ff295c689d401ce1625e9bd2adba7641f92cc231677989c7fe706354cb643e79860025f8581526020019081526020015f206007015f0160025f8681526020019081526020015f20600701600101428660025f8981526020019081526020015f2060070160030160019054906101000a900460ff1660405161058e959493929190612119565b60405180910390a1505050565b5f60015f8381526020019081526020015f20600101549050919050565b6105c18261059b565b6105ca81610fa4565b6105d48383610fb8565b50505050565b6105e26110a1565b73ffffffffffffffffffffffffffffffffffffffff168173ffffffffffffffffffffffffffffffffffffffff1614610646576040517f6697b23200000000000000000000000000000000000000000000000000000000815260040160405180910390fd5b61065082826110a8565b505050565b61065d611192565b6106665f611219565b565b6002602052805f5260405f205f91509050805f01549080600101805461068d90611dfc565b80601f01602080910402602001604051908101604052809291908181526020018280546106b990611dfc565b80156107045780601f106106db57610100808354040283529160200191610704565b820191905f5260205f20905b8154815290600101906020018083116106e757829003601f168201915b50505050509080600201805461071990611dfc565b80601f016020809104026020016040519081016040528092919081815260200182805461074590611dfc565b80156107905780601f1061076757610100808354040283529160200191610790565b820191905f5260205f20905b81548152906001019060200180831161077357829003601f168201915b5050505050908060030180546107a590611dfc565b80601f01602080910402602001604051908101604052809291908181526020018280546107d190611dfc565b801561081c5780601f106107f35761010080835404028352916020019161081c565b820191905f5260205f20905b8154815290600101906020018083116107ff57829003601f168201915b505050505090806006015490806007016040518060c00160405290815f8201805461084690611dfc565b80601f016020809104026020016040519081016040528092919081815260200182805461087290611dfc565b80156108bd5780601f10610894576101008083540402835291602001916108bd565b820191905f5260205f20905b8154815290600101906020018083116108a057829003601f168201915b505050505081526020016001820180546108d690611dfc565b80601f016020809104026020016040519081016040528092919081815260200182805461090290611dfc565b801561094d5780601f106109245761010080835404028352916020019161094d565b820191905f5260205f20905b81548152906001019060200180831161093057829003601f168201915b5050505050815260200160028201548152602001600382015f9054906101000a900460ff161515151581526020016003820160019054906101000a900460ff16151515158152602001600482015481525050905086565b5f805f9054906101000a900473ffffffffffffffffffffffffffffffffffffffff16905090565b6109d3611192565b6109fd7f0393b4c1b6519e8b53ae0efa1ab522060a3b9f8d86d09c8a22ca6d6eea735cf782610fb8565b5050565b5f60015f8481526020019081526020015f205f015f8373ffffffffffffffffffffffffffffffffffffffff1673ffffffffffffffffffffffffffffffffffffffff1681526020019081526020015f205f9054906101000a900460ff16905092915050565b610a8f7f0393b4c1b6519e8b53ae0efa1ab522060a3b9f8d86d09c8a22ca6d6eea735cf733610a01565b610ace576040517f08c379a0000000000000000000000000000000000000000000000000000000008152600401610ac5906121c2565b60405180910390fd5b5f895111610b11576040517f08c379a0000000000000000000000000000000000000000000000000000000008152600401610b089061222a565b60405180910390fd5b5f885111610b54576040517f08c379a0000000000000000000000000000000000000000000000000000000008152600401610b4b90612292565b60405180910390fd5b5f875111610b97576040517f08c379a0000000000000000000000000000000000000000000000000000000008152600401610b8e906122fa565b60405180910390fd5b5f8411610bd9576040517f08c379a0000000000000000000000000000000000000000000000000000000008152600401610bd090612388565b60405180910390fd5b5f4290505f60025f8381526020019081526020015f205f015414610c32576040517f08c379a0000000000000000000000000000000000000000000000000000000008152600401610c29906123f0565b60405180910390fd5b6040518061010001604052808281526020018b81526020018981526020018a81526020018881526020018781526020018681526020016040518060c0016040528087815260200186815260200185610c8a575f610c8c565b425b815260200185151581526020015f151581526020015f81525081525060025f8381526020019081526020015f205f820151815f01556020820151816001019081610cd69190611fc9565b506040820151816002019081610cec9190611fc9565b506060820151816003019081610d029190611fc9565b506080820151816004019080519060200190610d1f92919061132b565b5060a0820151816005019080519060200190610d3c92919061132b565b5060c0820151816006015560e0820151816007015f820151815f019081610d639190611fc9565b506020820151816001019081610d799190611fc9565b50604082015181600201556060820151816003015f6101000a81548160ff02191690831515021790555060808201518160030160016101000a81548160ff02191690831515021790555060a082015181600401555050905050807fd7bf816af497bf92d24ae6f5ec9050085f3575c329f242679fc0081fb7e6e54a8b8a8c8b8b8b60025f8a81526020019081526020015f20600701604051610e219796959493929190612673565b60405180910390a250505050505050505050565b5f801b81565b610e43611192565b610e6d7f0393b4c1b6519e8b53ae0efa1ab522060a3b9f8d86d09c8a22ca6d6eea735cf7826110a8565b5050565b610e7a8261059b565b610e8381610fa4565b610e8d83836110a8565b50505050565b610e9b611192565b5f73ffffffffffffffffffffffffffffffffffffffff168173ffffffffffffffffffffffffffffffffffffffff1603610f0b575f6040517f1e4fbdf7000000000000000000000000000000000000000000000000000000008152600401610f0291906119bf565b60405180910390fd5b610f1481611219565b50565b7f0393b4c1b6519e8b53ae0efa1ab522060a3b9f8d86d09c8a22ca6d6eea735cf781565b5f7f01ffc9a7000000000000000000000000000000000000000000000000000000007bffffffffffffffffffffffffffffffffffffffffffffffffffffffff1916827bffffffffffffffffffffffffffffffffffffffffffffffffffffffff1916149050919050565b610fb581610fb06110a1565b6112da565b50565b5f610fc38383610a01565b611097576001805f8581526020019081526020015f205f015f8473ffffffffffffffffffffffffffffffffffffffff1673ffffffffffffffffffffffffffffffffffffffff1681526020019081526020015f205f6101000a81548160ff0219169083151502179055506110346110a1565b73ffffffffffffffffffffffffffffffffffffffff168273ffffffffffffffffffffffffffffffffffffffff16847f2f8788117e7eff1d82e926ec794901d17c78024a50270940304540a733656f0d60405160405180910390a46001905061109b565b5f90505b92915050565b5f33905090565b5f6110b38383610a01565b15611188575f60015f8581526020019081526020015f205f015f8473ffffffffffffffffffffffffffffffffffffffff1673ffffffffffffffffffffffffffffffffffffffff1681526020019081526020015f205f6101000a81548160ff0219169083151502179055506111256110a1565b73ffffffffffffffffffffffffffffffffffffffff168273ffffffffffffffffffffffffffffffffffffffff16847ff6391f5c32d9c69d2a47ea670b442974b53935d1edc7fd64eb21e047a839171b60405160405180910390a46001905061118c565b5f90505b92915050565b61119a6110a1565b73ffffffffffffffffffffffffffffffffffffffff166111b86109a4565b73ffffffffffffffffffffffffffffffffffffffff1614611217576111db6110a1565b6040517f118cdaa700000000000000000000000000000000000000000000000000000000815260040161120e91906119bf565b60405180910390fd5b565b5f805f9054906101000a900473ffffffffffffffffffffffffffffffffffffffff169050815f806101000a81548173ffffffffffffffffffffffffffffffffffffffff021916908373ffffffffffffffffffffffffffffffffffffffff1602179055508173ffffffffffffffffffffffffffffffffffffffff168173ffffffffffffffffffffffffffffffffffffffff167f8be0079c531659141344cd1fd0a4f28419497f9722a3daafe3b4186f6b6457e060405160405180910390a35050565b6112e48282610a01565b6113275780826040517fe2517d3f00000000000000000000000000000000000000000000000000000000815260040161131e92919061270a565b60405180910390fd5b5050565b828054828255905f5260205f20908101928215611371579160200282015b828111156113705782518290816113609190611fc9565b5091602001919060010190611349565b5b50905061137e9190611382565b5090565b5b808211156113a1575f818161139891906113a5565b50600101611383565b5090565b5080546113b190611dfc565b5f825580601f106113c257506113df565b601f0160209004905f5260205f20908101906113de91906113e2565b5b50565b5b808211156113f9575f815f9055506001016113e3565b5090565b5f604051905090565b5f80fd5b5f80fd5b5f7fffffffff0000000000000000000000000000000000000000000000000000000082169050919050565b6114428161140e565b811461144c575f80fd5b50565b5f8135905061145d81611439565b92915050565b5f6020828403121561147857611477611406565b5b5f6114858482850161144f565b91505092915050565b5f8115159050919050565b6114a28161148e565b82525050565b5f6020820190506114bb5f830184611499565b92915050565b5f819050919050565b6114d3816114c1565b81146114dd575f80fd5b50565b5f813590506114ee816114ca565b92915050565b5f80fd5b5f80fd5b5f601f19601f8301169050919050565b7f4e487b71000000000000000000000000000000000000000000000000000000005f52604160045260245ffd5b611542826114fc565b810181811067ffffffffffffffff821117156115615761156061150c565b5b80604052505050565b5f6115736113fd565b905061157f8282611539565b919050565b5f67ffffffffffffffff82111561159e5761159d61150c565b5b6115a7826114fc565b9050602081019050919050565b828183375f83830152505050565b5f6115d46115cf84611584565b61156a565b9050828152602081018484840111156115f0576115ef6114f8565b5b6115fb8482856115b4565b509392505050565b5f82601f830112611617576116166114f4565b5b81356116278482602086016115c2565b91505092915050565b5f806040838503121561164657611645611406565b5b5f611653858286016114e0565b925050602083013567ffffffffffffffff8111156116745761167361140a565b5b61168085828601611603565b9150509250929050565b5f819050919050565b61169c8161168a565b81146116a6575f80fd5b50565b5f813590506116b781611693565b92915050565b5f602082840312156116d2576116d1611406565b5b5f6116df848285016116a9565b91505092915050565b6116f18161168a565b82525050565b5f60208201905061170a5f8301846116e8565b92915050565b5f73ffffffffffffffffffffffffffffffffffffffff82169050919050565b5f61173982611710565b9050919050565b6117498161172f565b8114611753575f80fd5b50565b5f8135905061176481611740565b92915050565b5f80604083850312156117805761177f611406565b5b5f61178d858286016116a9565b925050602061179e85828601611756565b9150509250929050565b5f602082840312156117bd576117bc611406565b5b5f6117ca848285016114e0565b91505092915050565b6117dc816114c1565b82525050565b5f81519050919050565b5f82825260208201905092915050565b8281835e5f83830152505050565b5f611814826117e2565b61181e81856117ec565b935061182e8185602086016117fc565b611837816114fc565b840191505092915050565b5f82825260208201905092915050565b5f61185c826117e2565b6118668185611842565b93506118768185602086016117fc565b61187f816114fc565b840191505092915050565b611893816114c1565b82525050565b6118a28161148e565b82525050565b5f60c083015f8301518482035f8601526118c28282611852565b915050602083015184820360208601526118dc8282611852565b91505060408301516118f1604086018261188a565b5060608301516119046060860182611899565b5060808301516119176080860182611899565b5060a083015161192a60a086018261188a565b508091505092915050565b5f60c0820190506119485f8301896117d3565b818103602083015261195a818861180a565b9050818103604083015261196e818761180a565b90508181036060830152611982818661180a565b905061199160808301856117d3565b81810360a08301526119a381846118a8565b9050979650505050505050565b6119b98161172f565b82525050565b5f6020820190506119d25f8301846119b0565b92915050565b5f602082840312156119ed576119ec611406565b5b5f6119fa84828501611756565b91505092915050565b5f67ffffffffffffffff821115611a1d57611a1c61150c565b5b602082029050602081019050919050565b5f80fd5b5f611a44611a3f84611a03565b61156a565b90508083825260208201905060208402830185811115611a6757611a66611a2e565b5b835b81811015611aae57803567ffffffffffffffff811115611a8c57611a8b6114f4565b5b808601611a998982611603565b85526020850194505050602081019050611a69565b5050509392505050565b5f82601f830112611acc57611acb6114f4565b5b8135611adc848260208601611a32565b91505092915050565b611aee8161148e565b8114611af8575f80fd5b50565b5f81359050611b0981611ae5565b92915050565b5f805f805f805f805f6101208a8c031215611b2d57611b2c611406565b5b5f8a013567ffffffffffffffff811115611b4a57611b4961140a565b5b611b568c828d01611603565b99505060208a013567ffffffffffffffff811115611b7757611b7661140a565b5b611b838c828d01611603565b98505060408a013567ffffffffffffffff811115611ba457611ba361140a565b5b611bb08c828d01611603565b97505060608a013567ffffffffffffffff811115611bd157611bd061140a565b5b611bdd8c828d01611ab8565b96505060808a013567ffffffffffffffff811115611bfe57611bfd61140a565b5b611c0a8c828d01611ab8565b95505060a0611c1b8c828d016114e0565b94505060c08a013567ffffffffffffffff811115611c3c57611c3b61140a565b5b611c488c828d01611603565b93505060e08a013567ffffffffffffffff811115611c6957611c6861140a565b5b611c758c828d01611603565b925050610100611c878c828d01611afb565b9150509295985092959850929598565b7f50726f6475637420686173206265656e207368697070656400000000000000005f82015250565b5f611ccb6018836117ec565b9150611cd682611c97565b602082019050919050565b5f6020820190508181035f830152611cf881611cbf565b9050919050565b7f50726f6475637420646f6573206e6f74206578697374000000000000000000005f82015250565b5f611d336016836117ec565b9150611d3e82611cff565b602082019050919050565b5f6020820190508181035f830152611d6081611d27565b9050919050565b7f50726f64756374206973206f7574206f662073746f636b0000000000000000005f82015250565b5f611d9b6017836117ec565b9150611da682611d67565b602082019050919050565b5f6020820190508181035f830152611dc881611d8f565b9050919050565b7f4e487b71000000000000000000000000000000000000000000000000000000005f52602260045260245ffd5b5f6002820490506001821680611e1357607f821691505b602082108103611e2657611e25611dcf565b5b50919050565b5f819050815f5260205f209050919050565b5f6020601f8301049050919050565b5f82821b905092915050565b5f60088302611e887fffffffffffffffffffffffffffffffffffffffffffffffffffffffffffffffff82611e4d565b611e928683611e4d565b95508019841693508086168417925050509392505050565b5f819050919050565b5f611ecd611ec8611ec3846114c1565b611eaa565b6114c1565b9050919050565b5f819050919050565b611ee683611eb3565b611efa611ef282611ed4565b848454611e59565b825550505050565b5f90565b611f0e611f02565b611f19818484611edd565b505050565b5b81811015611f3c57611f315f82611f06565b600181019050611f1f565b5050565b601f821115611f8157611f5281611e2c565b611f5b84611e3e565b81016020851015611f6a578190505b611f7e611f7685611e3e565b830182611f1e565b50505b505050565b5f82821c905092915050565b5f611fa15f1984600802611f86565b1980831691505092915050565b5f611fb98383611f92565b9150826002028217905092915050565b611fd2826117e2565b67ffffffffffffffff811115611feb57611fea61150c565b5b611ff58254611dfc565b612000828285611f40565b5f60209050601f831160018114612031575f841561201f578287015190505b6120298582611fae565b865550612090565b601f19841661203f86611e2c565b5f5b8281101561206657848901518255600182019150602085019450602081019050612041565b86831015612083578489015161207f601f891682611f92565b8355505b6001600288020188555050505b505050505050565b5f81546120a481611dfc565b6120ae81866117ec565b9450600182165f81146120c857600181146120de57612110565b60ff198316865281151560200286019350612110565b6120e785611e2c565b5f5b83811015612108578154818901526001820191506020810190506120e9565b808801955050505b50505092915050565b5f60a0820190508181035f8301526121318188612098565b905081810360208301526121458187612098565b905061215460408301866117d3565b61216160608301856117d3565b61216e6080830184611499565b9695505050505050565b7f55736572206e6f7420617574686f72697a6564000000000000000000000000005f82015250565b5f6121ac6013836117ec565b91506121b782612178565b602082019050919050565b5f6020820190508181035f8301526121d9816121a0565b9050919050565b7f456d7074792070726f647563742074797065206e6f7420616c6c6f77656400005f82015250565b5f612214601e836117ec565b915061221f826121e0565b602082019050919050565b5f6020820190508181035f83015261224181612208565b9050919050565b7f456d7074792070726f64756374206e616d65206e6f7420616c6c6f77656400005f82015250565b5f61227c601e836117ec565b915061228782612248565b602082019050919050565b5f6020820190508181035f8301526122a981612270565b9050919050565b7f456d707479206272616e64206e616d65206e6f7420616c6c6f776564000000005f82015250565b5f6122e4601c836117ec565b91506122ef826122b0565b602082019050919050565b5f6020820190508181035f830152612311816122d8565b9050919050565b7f5175616e74697479206d7573742062652067726561746572207468616e207a655f8201527f726f000000000000000000000000000000000000000000000000000000000000602082015250565b5f6123726022836117ec565b915061237d82612318565b604082019050919050565b5f6020820190508181035f83015261239f81612366565b9050919050565b7f50726f6475637420616c726561647920657869737473000000000000000000005f82015250565b5f6123da6016836117ec565b91506123e5826123a6565b602082019050919050565b5f6020820190508181035f830152612407816123ce565b9050919050565b5f81519050919050565b5f82825260208201905092915050565b5f819050602082019050919050565b5f6124428383611852565b905092915050565b5f602082019050919050565b5f6124608261240e565b61246a8185612418565b93508360208202850161247c85612428565b805f5b858110156124b757848403895281516124988582612437565b94506124a38361244a565b925060208a0199505060018101905061247f565b50829750879550505050505092915050565b5f81546124d581611dfc565b6124df8186611842565b9450600182165f81146124f9576001811461250f57612541565b60ff198316865281151560200286019350612541565b61251885611e2c565b5f5b838110156125395781548189015260018201915060208101905061251a565b808801955050505b50505092915050565b5f815f1c9050919050565b5f819050919050565b5f61257061256b8361254a565b612555565b9050919050565b5f60ff82169050919050565b5f6125956125908361254a565b612577565b9050919050565b5f8160081c9050919050565b5f6125ba6125b58361259c565b612577565b9050919050565b5f60c083015f8084018583035f8701526125db83826124c9565b9250506001840185830360208701526125f483826124c9565b925050600284015490506126078161255e565b612614604087018261188a565b506003840154905061262581612583565b6126326060870182611899565b5061263c816125a8565b6126496080870182611899565b506004840154905061265a8161255e565b61266760a087018261188a565b50819250505092915050565b5f60e0820190508181035f83015261268b818a61180a565b9050818103602083015261269f818961180a565b905081810360408301526126b3818861180a565b905081810360608301526126c78187612456565b905081810360808301526126db8186612456565b90506126ea60a08301856117d3565b81810360c08301526126fc81846125c1565b905098975050505050505050565b5f60408201905061271d5f8301856119b0565b61272a60208301846116e8565b939250505056fea2646970667358221220767fbf27469a277a6e57f2ba027e147700e46c1467ff619a7888b611b1d83a0564736f6c634300081a0033",
					"opcodes": "PUSH1 0x80 PUSH1 0x40 MSTORE CALLVALUE DUP1 ISZERO PUSH2 0xF JUMPI PUSH0 DUP1 REVERT JUMPDEST POP CALLER PUSH0 PUSH20 0xFFFFFFFFFFFFFFFFFFFFFFFFFFFFFFFFFFFFFFFF AND DUP2 PUSH20 0xFFFFFFFFFFFFFFFFFFFFFFFFFFFFFFFFFFFFFFFF AND SUB PUSH2 0x81 JUMPI PUSH0 PUSH1 0x40 MLOAD PUSH32 0x1E4FBDF700000000000000000000000000000000000000000000000000000000 DUP2 MSTORE PUSH1 0x4 ADD PUSH2 0x78 SWAP2 SWAP1 PUSH2 0x196 JUMP JUMPDEST PUSH1 0x40 MLOAD DUP1 SWAP2 SUB SWAP1 REVERT JUMPDEST PUSH2 0x90 DUP2 PUSH2 0x96 PUSH1 0x20 SHL PUSH1 0x20 SHR JUMP JUMPDEST POP PUSH2 0x1AF JUMP JUMPDEST PUSH0 DUP1 PUSH0 SWAP1 SLOAD SWAP1 PUSH2 0x100 EXP SWAP1 DIV PUSH20 0xFFFFFFFFFFFFFFFFFFFFFFFFFFFFFFFFFFFFFFFF AND SWAP1 POP DUP2 PUSH0 DUP1 PUSH2 0x100 EXP DUP2 SLOAD DUP2 PUSH20 0xFFFFFFFFFFFFFFFFFFFFFFFFFFFFFFFFFFFFFFFF MUL NOT AND SWAP1 DUP4 PUSH20 0xFFFFFFFFFFFFFFFFFFFFFFFFFFFFFFFFFFFFFFFF AND MUL OR SWAP1 SSTORE POP DUP2 PUSH20 0xFFFFFFFFFFFFFFFFFFFFFFFFFFFFFFFFFFFFFFFF AND DUP2 PUSH20 0xFFFFFFFFFFFFFFFFFFFFFFFFFFFFFFFFFFFFFFFF AND PUSH32 0x8BE0079C531659141344CD1FD0A4F28419497F9722A3DAAFE3B4186F6B6457E0 PUSH1 0x40 MLOAD PUSH1 0x40 MLOAD DUP1 SWAP2 SUB SWAP1 LOG3 POP POP JUMP JUMPDEST PUSH0 PUSH20 0xFFFFFFFFFFFFFFFFFFFFFFFFFFFFFFFFFFFFFFFF DUP3 AND SWAP1 POP SWAP2 SWAP1 POP JUMP JUMPDEST PUSH0 PUSH2 0x180 DUP3 PUSH2 0x157 JUMP JUMPDEST SWAP1 POP SWAP2 SWAP1 POP JUMP JUMPDEST PUSH2 0x190 DUP2 PUSH2 0x176 JUMP JUMPDEST DUP3 MSTORE POP POP JUMP JUMPDEST PUSH0 PUSH1 0x20 DUP3 ADD SWAP1 POP PUSH2 0x1A9 PUSH0 DUP4 ADD DUP5 PUSH2 0x187 JUMP JUMPDEST SWAP3 SWAP2 POP POP JUMP JUMPDEST PUSH2 0x2767 DUP1 PUSH2 0x1BC PUSH0 CODECOPY PUSH0 RETURN INVALID PUSH1 0x80 PUSH1 0x40 MSTORE CALLVALUE DUP1 ISZERO PUSH2 0xF JUMPI PUSH0 DUP1 REVERT JUMPDEST POP PUSH1 0x4 CALLDATASIZE LT PUSH2 0xFE JUMPI PUSH0 CALLDATALOAD PUSH1 0xE0 SHR DUP1 PUSH4 0x8F2FDB42 GT PUSH2 0x95 JUMPI DUP1 PUSH4 0xB48028E3 GT PUSH2 0x64 JUMPI DUP1 PUSH4 0xB48028E3 EQ PUSH2 0x299 JUMPI DUP1 PUSH4 0xD547741F EQ PUSH2 0x2B5 JUMPI DUP1 PUSH4 0xF2FDE38B EQ PUSH2 0x2D1 JUMPI DUP1 PUSH4 0xF6468251 EQ PUSH2 0x2ED JUMPI PUSH2 0xFE JUMP JUMPDEST DUP1 PUSH4 0x8F2FDB42 EQ PUSH2 0x213 JUMPI DUP1 PUSH4 0x91D14854 EQ PUSH2 0x22F JUMPI DUP1 PUSH4 0x9ED04F5D EQ PUSH2 0x25F JUMPI DUP1 PUSH4 0xA217FDDF EQ PUSH2 0x27B JUMPI PUSH2 0xFE JUMP JUMPDEST DUP1 PUSH4 0x36568ABE GT PUSH2 0xD1 JUMPI DUP1 PUSH4 0x36568ABE EQ PUSH2 0x19A JUMPI DUP1 PUSH4 0x715018A6 EQ PUSH2 0x1B6 JUMPI DUP1 PUSH4 0x7ACC0B20 EQ PUSH2 0x1C0 JUMPI DUP1 PUSH4 0x8DA5CB5B EQ PUSH2 0x1F5 JUMPI PUSH2 0xFE JUMP JUMPDEST DUP1 PUSH4 0x1FFC9A7 EQ PUSH2 0x102 JUMPI DUP1 PUSH4 0x21120F9A EQ PUSH2 0x132 JUMPI DUP1 PUSH4 0x248A9CA3 EQ PUSH2 0x14E JUMPI DUP1 PUSH4 0x2F2FF15D EQ PUSH2 0x17E JUMPI JUMPDEST PUSH0 DUP1 REVERT JUMPDEST PUSH2 0x11C PUSH1 0x4 DUP1 CALLDATASIZE SUB DUP2 ADD SWAP1 PUSH2 0x117 SWAP2 SWAP1 PUSH2 0x1463 JUMP JUMPDEST PUSH2 0x30B JUMP JUMPDEST PUSH1 0x40 MLOAD PUSH2 0x129 SWAP2 SWAP1 PUSH2 0x14A8 JUMP JUMPDEST PUSH1 0x40 MLOAD DUP1 SWAP2 SUB SWAP1 RETURN JUMPDEST PUSH2 0x14C PUSH1 0x4 DUP1 CALLDATASIZE SUB DUP2 ADD SWAP1 PUSH2 0x147 SWAP2 SWAP1 PUSH2 0x1630 JUMP JUMPDEST PUSH2 0x384 JUMP JUMPDEST STOP JUMPDEST PUSH2 0x168 PUSH1 0x4 DUP1 CALLDATASIZE SUB DUP2 ADD SWAP1 PUSH2 0x163 SWAP2 SWAP1 PUSH2 0x16BD JUMP JUMPDEST PUSH2 0x59B JUMP JUMPDEST PUSH1 0x40 MLOAD PUSH2 0x175 SWAP2 SWAP1 PUSH2 0x16F7 JUMP JUMPDEST PUSH1 0x40 MLOAD DUP1 SWAP2 SUB SWAP1 RETURN JUMPDEST PUSH2 0x198 PUSH1 0x4 DUP1 CALLDATASIZE SUB DUP2 ADD SWAP1 PUSH2 0x193 SWAP2 SWAP1 PUSH2 0x176A JUMP JUMPDEST PUSH2 0x5B8 JUMP JUMPDEST STOP JUMPDEST PUSH2 0x1B4 PUSH1 0x4 DUP1 CALLDATASIZE SUB DUP2 ADD SWAP1 PUSH2 0x1AF SWAP2 SWAP1 PUSH2 0x176A JUMP JUMPDEST PUSH2 0x5DA JUMP JUMPDEST STOP JUMPDEST PUSH2 0x1BE PUSH2 0x655 JUMP JUMPDEST STOP JUMPDEST PUSH2 0x1DA PUSH1 0x4 DUP1 CALLDATASIZE SUB DUP2 ADD SWAP1 PUSH2 0x1D5 SWAP2 SWAP1 PUSH2 0x17A8 JUMP JUMPDEST PUSH2 0x668 JUMP JUMPDEST PUSH1 0x40 MLOAD PUSH2 0x1EC SWAP7 SWAP6 SWAP5 SWAP4 SWAP3 SWAP2 SWAP1 PUSH2 0x1935 JUMP JUMPDEST PUSH1 0x40 MLOAD DUP1 SWAP2 SUB SWAP1 RETURN JUMPDEST PUSH2 0x1FD PUSH2 0x9A4 JUMP JUMPDEST PUSH1 0x40 MLOAD PUSH2 0x20A SWAP2 SWAP1 PUSH2 0x19BF JUMP JUMPDEST PUSH1 0x40 MLOAD DUP1 SWAP2 SUB SWAP1 RETURN JUMPDEST PUSH2 0x22D PUSH1 0x4 DUP1 CALLDATASIZE SUB DUP2 ADD SWAP1 PUSH2 0x228 SWAP2 SWAP1 PUSH2 0x19D8 JUMP JUMPDEST PUSH2 0x9CB JUMP JUMPDEST STOP JUMPDEST PUSH2 0x249 PUSH1 0x4 DUP1 CALLDATASIZE SUB DUP2 ADD SWAP1 PUSH2 0x244 SWAP2 SWAP1 PUSH2 0x176A JUMP JUMPDEST PUSH2 0xA01 JUMP JUMPDEST PUSH1 0x40 MLOAD PUSH2 0x256 SWAP2 SWAP1 PUSH2 0x14A8 JUMP JUMPDEST PUSH1 0x40 MLOAD DUP1 SWAP2 SUB SWAP1 RETURN JUMPDEST PUSH2 0x279 PUSH1 0x4 DUP1 CALLDATASIZE SUB DUP2 ADD SWAP1 PUSH2 0x274 SWAP2 SWAP1 PUSH2 0x1B0F JUMP JUMPDEST PUSH2 0xA65 JUMP JUMPDEST STOP JUMPDEST PUSH2 0x283 PUSH2 0xE35 JUMP JUMPDEST PUSH1 0x40 MLOAD PUSH2 0x290 SWAP2 SWAP1 PUSH2 0x16F7 JUMP JUMPDEST PUSH1 0x40 MLOAD DUP1 SWAP2 SUB SWAP1 RETURN JUMPDEST PUSH2 0x2B3 PUSH1 0x4 DUP1 CALLDATASIZE SUB DUP2 ADD SWAP1 PUSH2 0x2AE SWAP2 SWAP1 PUSH2 0x19D8 JUMP JUMPDEST PUSH2 0xE3B JUMP JUMPDEST STOP JUMPDEST PUSH2 0x2CF PUSH1 0x4 DUP1 CALLDATASIZE SUB DUP2 ADD SWAP1 PUSH2 0x2CA SWAP2 SWAP1 PUSH2 0x176A JUMP JUMPDEST PUSH2 0xE71 JUMP JUMPDEST STOP JUMPDEST PUSH2 0x2EB PUSH1 0x4 DUP1 CALLDATASIZE SUB DUP2 ADD SWAP1 PUSH2 0x2E6 SWAP2 SWAP1 PUSH2 0x19D8 JUMP JUMPDEST PUSH2 0xE93 JUMP JUMPDEST STOP JUMPDEST PUSH2 0x2F5 PUSH2 0xF17 JUMP JUMPDEST PUSH1 0x40 MLOAD PUSH2 0x302 SWAP2 SWAP1 PUSH2 0x16F7 JUMP JUMPDEST PUSH1 0x40 MLOAD DUP1 SWAP2 SUB SWAP1 RETURN JUMPDEST PUSH0 PUSH32 0x7965DB0B00000000000000000000000000000000000000000000000000000000 PUSH28 0xFFFFFFFFFFFFFFFFFFFFFFFFFFFFFFFFFFFFFFFFFFFFFFFFFFFFFFFF NOT AND DUP3 PUSH28 0xFFFFFFFFFFFFFFFFFFFFFFFFFFFFFFFFFFFFFFFFFFFFFFFFFFFFFFFF NOT AND EQ DUP1 PUSH2 0x37D JUMPI POP PUSH2 0x37C DUP3 PUSH2 0xF3B JUMP JUMPDEST JUMPDEST SWAP1 POP SWAP2 SWAP1 POP JUMP JUMPDEST DUP2 PUSH0 ISZERO ISZERO PUSH1 0x2 PUSH0 DUP4 DUP2 MSTORE PUSH1 0x20 ADD SWAP1 DUP2 MSTORE PUSH1 0x20 ADD PUSH0 KECCAK256 PUSH1 0x7 ADD PUSH1 0x3 ADD PUSH0 SWAP1 SLOAD SWAP1 PUSH2 0x100 EXP SWAP1 DIV PUSH1 0xFF AND ISZERO ISZERO SUB PUSH2 0x3EE JUMPI PUSH1 0x40 MLOAD PUSH32 0x8C379A000000000000000000000000000000000000000000000000000000000 DUP2 MSTORE PUSH1 0x4 ADD PUSH2 0x3E5 SWAP1 PUSH2 0x1CE1 JUMP JUMPDEST PUSH1 0x40 MLOAD DUP1 SWAP2 SUB SWAP1 REVERT JUMPDEST DUP1 PUSH1 0x2 PUSH0 DUP4 DUP2 MSTORE PUSH1 0x20 ADD SWAP1 DUP2 MSTORE PUSH1 0x20 ADD PUSH0 KECCAK256 PUSH0 ADD SLOAD EQ PUSH2 0x443 JUMPI PUSH1 0x40 MLOAD PUSH32 0x8C379A000000000000000000000000000000000000000000000000000000000 DUP2 MSTORE PUSH1 0x4 ADD PUSH2 0x43A SWAP1 PUSH2 0x1D49 JUMP JUMPDEST PUSH1 0x40 MLOAD DUP1 SWAP2 SUB SWAP1 REVERT JUMPDEST PUSH0 PUSH1 0x2 PUSH0 DUP4 DUP2 MSTORE PUSH1 0x20 ADD SWAP1 DUP2 MSTORE PUSH1 0x20 ADD PUSH0 KECCAK256 PUSH1 0x6 ADD SLOAD SUB PUSH2 0x499 JUMPI PUSH1 0x40 MLOAD PUSH32 0x8C379A000000000000000000000000000000000000000000000000000000000 DUP2 MSTORE PUSH1 0x4 ADD PUSH2 0x490 SWAP1 PUSH2 0x1DB1 JUMP JUMPDEST PUSH1 0x40 MLOAD DUP1 SWAP2 SUB SWAP1 REVERT JUMPDEST DUP2 PUSH1 0x2 PUSH0 DUP6 DUP2 MSTORE PUSH1 0x20 ADD SWAP1 DUP2 MSTORE PUSH1 0x20 ADD PUSH0 KECCAK256 PUSH1 0x7 ADD PUSH0 ADD SWAP1 DUP2 PUSH2 0x4BC SWAP2 SWAP1 PUSH2 0x1FC9 JUMP JUMPDEST POP TIMESTAMP PUSH1 0x2 PUSH0 DUP6 DUP2 MSTORE PUSH1 0x20 ADD SWAP1 DUP2 MSTORE PUSH1 0x20 ADD PUSH0 KECCAK256 PUSH1 0x7 ADD PUSH1 0x2 ADD DUP2 SWAP1 SSTORE POP PUSH1 0x1 PUSH1 0x2 PUSH0 DUP6 DUP2 MSTORE PUSH1 0x20 ADD SWAP1 DUP2 MSTORE PUSH1 0x20 ADD PUSH0 KECCAK256 PUSH1 0x7 ADD PUSH1 0x3 ADD PUSH0 PUSH2 0x100 EXP DUP2 SLOAD DUP2 PUSH1 0xFF MUL NOT AND SWAP1 DUP4 ISZERO ISZERO MUL OR SWAP1 SSTORE POP PUSH32 0xF295C689D401CE1625E9BD2ADBA7641F92CC231677989C7FE706354CB643E798 PUSH1 0x2 PUSH0 DUP6 DUP2 MSTORE PUSH1 0x20 ADD SWAP1 DUP2 MSTORE PUSH1 0x20 ADD PUSH0 KECCAK256 PUSH1 0x7 ADD PUSH0 ADD PUSH1 0x2 PUSH0 DUP7 DUP2 MSTORE PUSH1 0x20 ADD SWAP1 DUP2 MSTORE PUSH1 0x20 ADD PUSH0 KECCAK256 PUSH1 0x7 ADD PUSH1 0x1 ADD TIMESTAMP DUP7 PUSH1 0x2 PUSH0 DUP10 DUP2 MSTORE PUSH1 0x20 ADD SWAP1 DUP2 MSTORE PUSH1 0x20 ADD PUSH0 KECCAK256 PUSH1 0x7 ADD PUSH1 0x3 ADD PUSH1 0x1 SWAP1 SLOAD SWAP1 PUSH2 0x100 EXP SWAP1 DIV PUSH1 0xFF AND PUSH1 0x40 MLOAD PUSH2 0x58E SWAP6 SWAP5 SWAP4 SWAP3 SWAP2 SWAP1 PUSH2 0x2119 JUMP JUMPDEST PUSH1 0x40 MLOAD DUP1 SWAP2 SUB SWAP1 LOG1 POP POP POP JUMP JUMPDEST PUSH0 PUSH1 0x1 PUSH0 DUP4 DUP2 MSTORE PUSH1 0x20 ADD SWAP1 DUP2 MSTORE PUSH1 0x20 ADD PUSH0 KECCAK256 PUSH1 0x1 ADD SLOAD SWAP1 POP SWAP2 SWAP1 POP JUMP JUMPDEST PUSH2 0x5C1 DUP3 PUSH2 0x59B JUMP JUMPDEST PUSH2 0x5CA DUP2 PUSH2 0xFA4 JUMP JUMPDEST PUSH2 0x5D4 DUP4 DUP4 PUSH2 0xFB8 JUMP JUMPDEST POP POP POP POP JUMP JUMPDEST PUSH2 0x5E2 PUSH2 0x10A1 JUMP JUMPDEST PUSH20 0xFFFFFFFFFFFFFFFFFFFFFFFFFFFFFFFFFFFFFFFF AND DUP2 PUSH20 0xFFFFFFFFFFFFFFFFFFFFFFFFFFFFFFFFFFFFFFFF AND EQ PUSH2 0x646 JUMPI PUSH1 0x40 MLOAD PUSH32 0x6697B23200000000000000000000000000000000000000000000000000000000 DUP2 MSTORE PUSH1 0x4 ADD PUSH1 0x40 MLOAD DUP1 SWAP2 SUB SWAP1 REVERT JUMPDEST PUSH2 0x650 DUP3 DUP3 PUSH2 0x10A8 JUMP JUMPDEST POP POP POP JUMP JUMPDEST PUSH2 0x65D PUSH2 0x1192 JUMP JUMPDEST PUSH2 0x666 PUSH0 PUSH2 0x1219 JUMP JUMPDEST JUMP JUMPDEST PUSH1 0x2 PUSH1 0x20 MSTORE DUP1 PUSH0 MSTORE PUSH1 0x40 PUSH0 KECCAK256 PUSH0 SWAP2 POP SWAP1 POP DUP1 PUSH0 ADD SLOAD SWAP1 DUP1 PUSH1 0x1 ADD DUP1 SLOAD PUSH2 0x68D SWAP1 PUSH2 0x1DFC JUMP JUMPDEST DUP1 PUSH1 0x1F ADD PUSH1 0x20 DUP1 SWAP2 DIV MUL PUSH1 0x20 ADD PUSH1 0x40 MLOAD SWAP1 DUP2 ADD PUSH1 0x40 MSTORE DUP1 SWAP3 SWAP2 SWAP1 DUP2 DUP2 MSTORE PUSH1 0x20 ADD DUP3 DUP1 SLOAD PUSH2 0x6B9 SWAP1 PUSH2 0x1DFC JUMP JUMPDEST DUP1 ISZERO PUSH2 0x704 JUMPI DUP1 PUSH1 0x1F LT PUSH2 0x6DB JUMPI PUSH2 0x100 DUP1 DUP4 SLOAD DIV MUL DUP4 MSTORE SWAP2 PUSH1 0x20 ADD SWAP2 PUSH2 0x704 JUMP JUMPDEST DUP3 ADD SWAP2 SWAP1 PUSH0 MSTORE PUSH1 0x20 PUSH0 KECCAK256 SWAP1 JUMPDEST DUP2 SLOAD DUP2 MSTORE SWAP1 PUSH1 0x1 ADD SWAP1 PUSH1 0x20 ADD DUP1 DUP4 GT PUSH2 0x6E7 JUMPI DUP3 SWAP1 SUB PUSH1 0x1F AND DUP3 ADD SWAP2 JUMPDEST POP POP POP POP POP SWAP1 DUP1 PUSH1 0x2 ADD DUP1 SLOAD PUSH2 0x719 SWAP1 PUSH2 0x1DFC JUMP JUMPDEST DUP1 PUSH1 0x1F ADD PUSH1 0x20 DUP1 SWAP2 DIV MUL PUSH1 0x20 ADD PUSH1 0x40 MLOAD SWAP1 DUP2 ADD PUSH1 0x40 MSTORE DUP1 SWAP3 SWAP2 SWAP1 DUP2 DUP2 MSTORE PUSH1 0x20 ADD DUP3 DUP1 SLOAD PUSH2 0x745 SWAP1 PUSH2 0x1DFC JUMP JUMPDEST DUP1 ISZERO PUSH2 0x790 JUMPI DUP1 PUSH1 0x1F LT PUSH2 0x767 JUMPI PUSH2 0x100 DUP1 DUP4 SLOAD DIV MUL DUP4 MSTORE SWAP2 PUSH1 0x20 ADD SWAP2 PUSH2 0x790 JUMP JUMPDEST DUP3 ADD SWAP2 SWAP1 PUSH0 MSTORE PUSH1 0x20 PUSH0 KECCAK256 SWAP1 JUMPDEST DUP2 SLOAD DUP2 MSTORE SWAP1 PUSH1 0x1 ADD SWAP1 PUSH1 0x20 ADD DUP1 DUP4 GT PUSH2 0x773 JUMPI DUP3 SWAP1 SUB PUSH1 0x1F AND DUP3 ADD SWAP2 JUMPDEST POP POP POP POP POP SWAP1 DUP1 PUSH1 0x3 ADD DUP1 SLOAD PUSH2 0x7A5 SWAP1 PUSH2 0x1DFC JUMP JUMPDEST DUP1 PUSH1 0x1F ADD PUSH1 0x20 DUP1 SWAP2 DIV MUL PUSH1 0x20 ADD PUSH1 0x40 MLOAD SWAP1 DUP2 ADD PUSH1 0x40 MSTORE DUP1 SWAP3 SWAP2 SWAP1 DUP2 DUP2 MSTORE PUSH1 0x20 ADD DUP3 DUP1 SLOAD PUSH2 0x7D1 SWAP1 PUSH2 0x1DFC JUMP JUMPDEST DUP1 ISZERO PUSH2 0x81C JUMPI DUP1 PUSH1 0x1F LT PUSH2 0x7F3 JUMPI PUSH2 0x100 DUP1 DUP4 SLOAD DIV MUL DUP4 MSTORE SWAP2 PUSH1 0x20 ADD SWAP2 PUSH2 0x81C JUMP JUMPDEST DUP3 ADD SWAP2 SWAP1 PUSH0 MSTORE PUSH1 0x20 PUSH0 KECCAK256 SWAP1 JUMPDEST DUP2 SLOAD DUP2 MSTORE SWAP1 PUSH1 0x1 ADD SWAP1 PUSH1 0x20 ADD DUP1 DUP4 GT PUSH2 0x7FF JUMPI DUP3 SWAP1 SUB PUSH1 0x1F AND DUP3 ADD SWAP2 JUMPDEST POP POP POP POP POP SWAP1 DUP1 PUSH1 0x6 ADD SLOAD SWAP1 DUP1 PUSH1 0x7 ADD PUSH1 0x40 MLOAD DUP1 PUSH1 0xC0 ADD PUSH1 0x40 MSTORE SWAP1 DUP2 PUSH0 DUP3 ADD DUP1 SLOAD PUSH2 0x846 SWAP1 PUSH2 0x1DFC JUMP JUMPDEST DUP1 PUSH1 0x1F ADD PUSH1 0x20 DUP1 SWAP2 DIV MUL PUSH1 0x20 ADD PUSH1 0x40 MLOAD SWAP1 DUP2 ADD PUSH1 0x40 MSTORE DUP1 SWAP3 SWAP2 SWAP1 DUP2 DUP2 MSTORE PUSH1 0x20 ADD DUP3 DUP1 SLOAD PUSH2 0x872 SWAP1 PUSH2 0x1DFC JUMP JUMPDEST DUP1 ISZERO PUSH2 0x8BD JUMPI DUP1 PUSH1 0x1F LT PUSH2 0x894 JUMPI PUSH2 0x100 DUP1 DUP4 SLOAD DIV MUL DUP4 MSTORE SWAP2 PUSH1 0x20 ADD SWAP2 PUSH2 0x8BD JUMP JUMPDEST DUP3 ADD SWAP2 SWAP1 PUSH0 MSTORE PUSH1 0x20 PUSH0 KECCAK256 SWAP1 JUMPDEST DUP2 SLOAD DUP2 MSTORE SWAP1 PUSH1 0x1 ADD SWAP1 PUSH1 0x20 ADD DUP1 DUP4 GT PUSH2 0x8A0 JUMPI DUP3 SWAP1 SUB PUSH1 0x1F AND DUP3 ADD SWAP2 JUMPDEST POP POP POP POP POP DUP2 MSTORE PUSH1 0x20 ADD PUSH1 0x1 DUP3 ADD DUP1 SLOAD PUSH2 0x8D6 SWAP1 PUSH2 0x1DFC JUMP JUMPDEST DUP1 PUSH1 0x1F ADD PUSH1 0x20 DUP1 SWAP2 DIV MUL PUSH1 0x20 ADD PUSH1 0x40 MLOAD SWAP1 DUP2 ADD PUSH1 0x40 MSTORE DUP1 SWAP3 SWAP2 SWAP1 DUP2 DUP2 MSTORE PUSH1 0x20 ADD DUP3 DUP1 SLOAD PUSH2 0x902 SWAP1 PUSH2 0x1DFC JUMP JUMPDEST DUP1 ISZERO PUSH2 0x94D JUMPI DUP1 PUSH1 0x1F LT PUSH2 0x924 JUMPI PUSH2 0x100 DUP1 DUP4 SLOAD DIV MUL DUP4 MSTORE SWAP2 PUSH1 0x20 ADD SWAP2 PUSH2 0x94D JUMP JUMPDEST DUP3 ADD SWAP2 SWAP1 PUSH0 MSTORE PUSH1 0x20 PUSH0 KECCAK256 SWAP1 JUMPDEST DUP2 SLOAD DUP2 MSTORE SWAP1 PUSH1 0x1 ADD SWAP1 PUSH1 0x20 ADD DUP1 DUP4 GT PUSH2 0x930 JUMPI DUP3 SWAP1 SUB PUSH1 0x1F AND DUP3 ADD SWAP2 JUMPDEST POP POP POP POP POP DUP2 MSTORE PUSH1 0x20 ADD PUSH1 0x2 DUP3 ADD SLOAD DUP2 MSTORE PUSH1 0x20 ADD PUSH1 0x3 DUP3 ADD PUSH0 SWAP1 SLOAD SWAP1 PUSH2 0x100 EXP SWAP1 DIV PUSH1 0xFF AND ISZERO ISZERO ISZERO ISZERO DUP2 MSTORE PUSH1 0x20 ADD PUSH1 0x3 DUP3 ADD PUSH1 0x1 SWAP1 SLOAD SWAP1 PUSH2 0x100 EXP SWAP1 DIV PUSH1 0xFF AND ISZERO ISZERO ISZERO ISZERO DUP2 MSTORE PUSH1 0x20 ADD PUSH1 0x4 DUP3 ADD SLOAD DUP2 MSTORE POP POP SWAP1 POP DUP7 JUMP JUMPDEST PUSH0 DUP1 PUSH0 SWAP1 SLOAD SWAP1 PUSH2 0x100 EXP SWAP1 DIV PUSH20 0xFFFFFFFFFFFFFFFFFFFFFFFFFFFFFFFFFFFFFFFF AND SWAP1 POP SWAP1 JUMP JUMPDEST PUSH2 0x9D3 PUSH2 0x1192 JUMP JUMPDEST PUSH2 0x9FD PUSH32 0x393B4C1B6519E8B53AE0EFA1AB522060A3B9F8D86D09C8A22CA6D6EEA735CF7 DUP3 PUSH2 0xFB8 JUMP JUMPDEST POP POP JUMP JUMPDEST PUSH0 PUSH1 0x1 PUSH0 DUP5 DUP2 MSTORE PUSH1 0x20 ADD SWAP1 DUP2 MSTORE PUSH1 0x20 ADD PUSH0 KECCAK256 PUSH0 ADD PUSH0 DUP4 PUSH20 0xFFFFFFFFFFFFFFFFFFFFFFFFFFFFFFFFFFFFFFFF AND PUSH20 0xFFFFFFFFFFFFFFFFFFFFFFFFFFFFFFFFFFFFFFFF AND DUP2 MSTORE PUSH1 0x20 ADD SWAP1 DUP2 MSTORE PUSH1 0x20 ADD PUSH0 KECCAK256 PUSH0 SWAP1 SLOAD SWAP1 PUSH2 0x100 EXP SWAP1 DIV PUSH1 0xFF AND SWAP1 POP SWAP3 SWAP2 POP POP JUMP JUMPDEST PUSH2 0xA8F PUSH32 0x393B4C1B6519E8B53AE0EFA1AB522060A3B9F8D86D09C8A22CA6D6EEA735CF7 CALLER PUSH2 0xA01 JUMP JUMPDEST PUSH2 0xACE JUMPI PUSH1 0x40 MLOAD PUSH32 0x8C379A000000000000000000000000000000000000000000000000000000000 DUP2 MSTORE PUSH1 0x4 ADD PUSH2 0xAC5 SWAP1 PUSH2 0x21C2 JUMP JUMPDEST PUSH1 0x40 MLOAD DUP1 SWAP2 SUB SWAP1 REVERT JUMPDEST PUSH0 DUP10 MLOAD GT PUSH2 0xB11 JUMPI PUSH1 0x40 MLOAD PUSH32 0x8C379A000000000000000000000000000000000000000000000000000000000 DUP2 MSTORE PUSH1 0x4 ADD PUSH2 0xB08 SWAP1 PUSH2 0x222A JUMP JUMPDEST PUSH1 0x40 MLOAD DUP1 SWAP2 SUB SWAP1 REVERT JUMPDEST PUSH0 DUP9 MLOAD GT PUSH2 0xB54 JUMPI PUSH1 0x40 MLOAD PUSH32 0x8C379A000000000000000000000000000000000000000000000000000000000 DUP2 MSTORE PUSH1 0x4 ADD PUSH2 0xB4B SWAP1 PUSH2 0x2292 JUMP JUMPDEST PUSH1 0x40 MLOAD DUP1 SWAP2 SUB SWAP1 REVERT JUMPDEST PUSH0 DUP8 MLOAD GT PUSH2 0xB97 JUMPI PUSH1 0x40 MLOAD PUSH32 0x8C379A000000000000000000000000000000000000000000000000000000000 DUP2 MSTORE PUSH1 0x4 ADD PUSH2 0xB8E SWAP1 PUSH2 0x22FA JUMP JUMPDEST PUSH1 0x40 MLOAD DUP1 SWAP2 SUB SWAP1 REVERT JUMPDEST PUSH0 DUP5 GT PUSH2 0xBD9 JUMPI PUSH1 0x40 MLOAD PUSH32 0x8C379A000000000000000000000000000000000000000000000000000000000 DUP2 MSTORE PUSH1 0x4 ADD PUSH2 0xBD0 SWAP1 PUSH2 0x2388 JUMP JUMPDEST PUSH1 0x40 MLOAD DUP1 SWAP2 SUB SWAP1 REVERT JUMPDEST PUSH0 TIMESTAMP SWAP1 POP PUSH0 PUSH1 0x2 PUSH0 DUP4 DUP2 MSTORE PUSH1 0x20 ADD SWAP1 DUP2 MSTORE PUSH1 0x20 ADD PUSH0 KECCAK256 PUSH0 ADD SLOAD EQ PUSH2 0xC32 JUMPI PUSH1 0x40 MLOAD PUSH32 0x8C379A000000000000000000000000000000000000000000000000000000000 DUP2 MSTORE PUSH1 0x4 ADD PUSH2 0xC29 SWAP1 PUSH2 0x23F0 JUMP JUMPDEST PUSH1 0x40 MLOAD DUP1 SWAP2 SUB SWAP1 REVERT JUMPDEST PUSH1 0x40 MLOAD DUP1 PUSH2 0x100 ADD PUSH1 0x40 MSTORE DUP1 DUP3 DUP2 MSTORE PUSH1 0x20 ADD DUP12 DUP2 MSTORE PUSH1 0x20 ADD DUP10 DUP2 MSTORE PUSH1 0x20 ADD DUP11 DUP2 MSTORE PUSH1 0x20 ADD DUP9 DUP2 MSTORE PUSH1 0x20 ADD DUP8 DUP2 MSTORE PUSH1 0x20 ADD DUP7 DUP2 MSTORE PUSH1 0x20 ADD PUSH1 0x40 MLOAD DUP1 PUSH1 0xC0 ADD PUSH1 0x40 MSTORE DUP1 DUP8 DUP2 MSTORE PUSH1 0x20 ADD DUP7 DUP2 MSTORE PUSH1 0x20 ADD DUP6 PUSH2 0xC8A JUMPI PUSH0 PUSH2 0xC8C JUMP JUMPDEST TIMESTAMP JUMPDEST DUP2 MSTORE PUSH1 0x20 ADD DUP6 ISZERO ISZERO DUP2 MSTORE PUSH1 0x20 ADD PUSH0 ISZERO ISZERO DUP2 MSTORE PUSH1 0x20 ADD PUSH0 DUP2 MSTORE POP DUP2 MSTORE POP PUSH1 0x2 PUSH0 DUP4 DUP2 MSTORE PUSH1 0x20 ADD SWAP1 DUP2 MSTORE PUSH1 0x20 ADD PUSH0 KECCAK256 PUSH0 DUP3 ADD MLOAD DUP2 PUSH0 ADD SSTORE PUSH1 0x20 DUP3 ADD MLOAD DUP2 PUSH1 0x1 ADD SWAP1 DUP2 PUSH2 0xCD6 SWAP2 SWAP1 PUSH2 0x1FC9 JUMP JUMPDEST POP PUSH1 0x40 DUP3 ADD MLOAD DUP2 PUSH1 0x2 ADD SWAP1 DUP2 PUSH2 0xCEC SWAP2 SWAP1 PUSH2 0x1FC9 JUMP JUMPDEST POP PUSH1 0x60 DUP3 ADD MLOAD DUP2 PUSH1 0x3 ADD SWAP1 DUP2 PUSH2 0xD02 SWAP2 SWAP1 PUSH2 0x1FC9 JUMP JUMPDEST POP PUSH1 0x80 DUP3 ADD MLOAD DUP2 PUSH1 0x4 ADD SWAP1 DUP1 MLOAD SWAP1 PUSH1 0x20 ADD SWAP1 PUSH2 0xD1F SWAP3 SWAP2 SWAP1 PUSH2 0x132B JUMP JUMPDEST POP PUSH1 0xA0 DUP3 ADD MLOAD DUP2 PUSH1 0x5 ADD SWAP1 DUP1 MLOAD SWAP1 PUSH1 0x20 ADD SWAP1 PUSH2 0xD3C SWAP3 SWAP2 SWAP1 PUSH2 0x132B JUMP JUMPDEST POP PUSH1 0xC0 DUP3 ADD MLOAD DUP2 PUSH1 0x6 ADD SSTORE PUSH1 0xE0 DUP3 ADD MLOAD DUP2 PUSH1 0x7 ADD PUSH0 DUP3 ADD MLOAD DUP2 PUSH0 ADD SWAP1 DUP2 PUSH2 0xD63 SWAP2 SWAP1 PUSH2 0x1FC9 JUMP JUMPDEST POP PUSH1 0x20 DUP3 ADD MLOAD DUP2 PUSH1 0x1 ADD SWAP1 DUP2 PUSH2 0xD79 SWAP2 SWAP1 PUSH2 0x1FC9 JUMP JUMPDEST POP PUSH1 0x40 DUP3 ADD MLOAD DUP2 PUSH1 0x2 ADD SSTORE PUSH1 0x60 DUP3 ADD MLOAD DUP2 PUSH1 0x3 ADD PUSH0 PUSH2 0x100 EXP DUP2 SLOAD DUP2 PUSH1 0xFF MUL NOT AND SWAP1 DUP4 ISZERO ISZERO MUL OR SWAP1 SSTORE POP PUSH1 0x80 DUP3 ADD MLOAD DUP2 PUSH1 0x3 ADD PUSH1 0x1 PUSH2 0x100 EXP DUP2 SLOAD DUP2 PUSH1 0xFF MUL NOT AND SWAP1 DUP4 ISZERO ISZERO MUL OR SWAP1 SSTORE POP PUSH1 0xA0 DUP3 ADD MLOAD DUP2 PUSH1 0x4 ADD SSTORE POP POP SWAP1 POP POP DUP1 PUSH32 0xD7BF816AF497BF92D24AE6F5EC9050085F3575C329F242679FC0081FB7E6E54A DUP12 DUP11 DUP13 DUP12 DUP12 DUP12 PUSH1 0x2 PUSH0 DUP11 DUP2 MSTORE PUSH1 0x20 ADD SWAP1 DUP2 MSTORE PUSH1 0x20 ADD PUSH0 KECCAK256 PUSH1 0x7 ADD PUSH1 0x40 MLOAD PUSH2 0xE21 SWAP8 SWAP7 SWAP6 SWAP5 SWAP4 SWAP3 SWAP2 SWAP1 PUSH2 0x2673 JUMP JUMPDEST PUSH1 0x40 MLOAD DUP1 SWAP2 SUB SWAP1 LOG2 POP POP POP POP POP POP POP POP POP POP JUMP JUMPDEST PUSH0 DUP1 SHL DUP2 JUMP JUMPDEST PUSH2 0xE43 PUSH2 0x1192 JUMP JUMPDEST PUSH2 0xE6D PUSH32 0x393B4C1B6519E8B53AE0EFA1AB522060A3B9F8D86D09C8A22CA6D6EEA735CF7 DUP3 PUSH2 0x10A8 JUMP JUMPDEST POP POP JUMP JUMPDEST PUSH2 0xE7A DUP3 PUSH2 0x59B JUMP JUMPDEST PUSH2 0xE83 DUP2 PUSH2 0xFA4 JUMP JUMPDEST PUSH2 0xE8D DUP4 DUP4 PUSH2 0x10A8 JUMP JUMPDEST POP POP POP POP JUMP JUMPDEST PUSH2 0xE9B PUSH2 0x1192 JUMP JUMPDEST PUSH0 PUSH20 0xFFFFFFFFFFFFFFFFFFFFFFFFFFFFFFFFFFFFFFFF AND DUP2 PUSH20 0xFFFFFFFFFFFFFFFFFFFFFFFFFFFFFFFFFFFFFFFF AND SUB PUSH2 0xF0B JUMPI PUSH0 PUSH1 0x40 MLOAD PUSH32 0x1E4FBDF700000000000000000000000000000000000000000000000000000000 DUP2 MSTORE PUSH1 0x4 ADD PUSH2 0xF02 SWAP2 SWAP1 PUSH2 0x19BF JUMP JUMPDEST PUSH1 0x40 MLOAD DUP1 SWAP2 SUB SWAP1 REVERT JUMPDEST PUSH2 0xF14 DUP2 PUSH2 0x1219 JUMP JUMPDEST POP JUMP JUMPDEST PUSH32 0x393B4C1B6519E8B53AE0EFA1AB522060A3B9F8D86D09C8A22CA6D6EEA735CF7 DUP2 JUMP JUMPDEST PUSH0 PUSH32 0x1FFC9A700000000000000000000000000000000000000000000000000000000 PUSH28 0xFFFFFFFFFFFFFFFFFFFFFFFFFFFFFFFFFFFFFFFFFFFFFFFFFFFFFFFF NOT AND DUP3 PUSH28 0xFFFFFFFFFFFFFFFFFFFFFFFFFFFFFFFFFFFFFFFFFFFFFFFFFFFFFFFF NOT AND EQ SWAP1 POP SWAP2 SWAP1 POP JUMP JUMPDEST PUSH2 0xFB5 DUP2 PUSH2 0xFB0 PUSH2 0x10A1 JUMP JUMPDEST PUSH2 0x12DA JUMP JUMPDEST POP JUMP JUMPDEST PUSH0 PUSH2 0xFC3 DUP4 DUP4 PUSH2 0xA01 JUMP JUMPDEST PUSH2 0x1097 JUMPI PUSH1 0x1 DUP1 PUSH0 DUP6 DUP2 MSTORE PUSH1 0x20 ADD SWAP1 DUP2 MSTORE PUSH1 0x20 ADD PUSH0 KECCAK256 PUSH0 ADD PUSH0 DUP5 PUSH20 0xFFFFFFFFFFFFFFFFFFFFFFFFFFFFFFFFFFFFFFFF AND PUSH20 0xFFFFFFFFFFFFFFFFFFFFFFFFFFFFFFFFFFFFFFFF AND DUP2 MSTORE PUSH1 0x20 ADD SWAP1 DUP2 MSTORE PUSH1 0x20 ADD PUSH0 KECCAK256 PUSH0 PUSH2 0x100 EXP DUP2 SLOAD DUP2 PUSH1 0xFF MUL NOT AND SWAP1 DUP4 ISZERO ISZERO MUL OR SWAP1 SSTORE POP PUSH2 0x1034 PUSH2 0x10A1 JUMP JUMPDEST PUSH20 0xFFFFFFFFFFFFFFFFFFFFFFFFFFFFFFFFFFFFFFFF AND DUP3 PUSH20 0xFFFFFFFFFFFFFFFFFFFFFFFFFFFFFFFFFFFFFFFF AND DUP5 PUSH32 0x2F8788117E7EFF1D82E926EC794901D17C78024A50270940304540A733656F0D PUSH1 0x40 MLOAD PUSH1 0x40 MLOAD DUP1 SWAP2 SUB SWAP1 LOG4 PUSH1 0x1 SWAP1 POP PUSH2 0x109B JUMP JUMPDEST PUSH0 SWAP1 POP JUMPDEST SWAP3 SWAP2 POP POP JUMP JUMPDEST PUSH0 CALLER SWAP1 POP SWAP1 JUMP JUMPDEST PUSH0 PUSH2 0x10B3 DUP4 DUP4 PUSH2 0xA01 JUMP JUMPDEST ISZERO PUSH2 0x1188 JUMPI PUSH0 PUSH1 0x1 PUSH0 DUP6 DUP2 MSTORE PUSH1 0x20 ADD SWAP1 DUP2 MSTORE PUSH1 0x20 ADD PUSH0 KECCAK256 PUSH0 ADD PUSH0 DUP5 PUSH20 0xFFFFFFFFFFFFFFFFFFFFFFFFFFFFFFFFFFFFFFFF AND PUSH20 0xFFFFFFFFFFFFFFFFFFFFFFFFFFFFFFFFFFFFFFFF AND DUP2 MSTORE PUSH1 0x20 ADD SWAP1 DUP2 MSTORE PUSH1 0x20 ADD PUSH0 KECCAK256 PUSH0 PUSH2 0x100 EXP DUP2 SLOAD DUP2 PUSH1 0xFF MUL NOT AND SWAP1 DUP4 ISZERO ISZERO MUL OR SWAP1 SSTORE POP PUSH2 0x1125 PUSH2 0x10A1 JUMP JUMPDEST PUSH20 0xFFFFFFFFFFFFFFFFFFFFFFFFFFFFFFFFFFFFFFFF AND DUP3 PUSH20 0xFFFFFFFFFFFFFFFFFFFFFFFFFFFFFFFFFFFFFFFF AND DUP5 PUSH32 0xF6391F5C32D9C69D2A47EA670B442974B53935D1EDC7FD64EB21E047A839171B PUSH1 0x40 MLOAD PUSH1 0x40 MLOAD DUP1 SWAP2 SUB SWAP1 LOG4 PUSH1 0x1 SWAP1 POP PUSH2 0x118C JUMP JUMPDEST PUSH0 SWAP1 POP JUMPDEST SWAP3 SWAP2 POP POP JUMP JUMPDEST PUSH2 0x119A PUSH2 0x10A1 JUMP JUMPDEST PUSH20 0xFFFFFFFFFFFFFFFFFFFFFFFFFFFFFFFFFFFFFFFF AND PUSH2 0x11B8 PUSH2 0x9A4 JUMP JUMPDEST PUSH20 0xFFFFFFFFFFFFFFFFFFFFFFFFFFFFFFFFFFFFFFFF AND EQ PUSH2 0x1217 JUMPI PUSH2 0x11DB PUSH2 0x10A1 JUMP JUMPDEST PUSH1 0x40 MLOAD PUSH32 0x118CDAA700000000000000000000000000000000000000000000000000000000 DUP2 MSTORE PUSH1 0x4 ADD PUSH2 0x120E SWAP2 SWAP1 PUSH2 0x19BF JUMP JUMPDEST PUSH1 0x40 MLOAD DUP1 SWAP2 SUB SWAP1 REVERT JUMPDEST JUMP JUMPDEST PUSH0 DUP1 PUSH0 SWAP1 SLOAD SWAP1 PUSH2 0x100 EXP SWAP1 DIV PUSH20 0xFFFFFFFFFFFFFFFFFFFFFFFFFFFFFFFFFFFFFFFF AND SWAP1 POP DUP2 PUSH0 DUP1 PUSH2 0x100 EXP DUP2 SLOAD DUP2 PUSH20 0xFFFFFFFFFFFFFFFFFFFFFFFFFFFFFFFFFFFFFFFF MUL NOT AND SWAP1 DUP4 PUSH20 0xFFFFFFFFFFFFFFFFFFFFFFFFFFFFFFFFFFFFFFFF AND MUL OR SWAP1 SSTORE POP DUP2 PUSH20 0xFFFFFFFFFFFFFFFFFFFFFFFFFFFFFFFFFFFFFFFF AND DUP2 PUSH20 0xFFFFFFFFFFFFFFFFFFFFFFFFFFFFFFFFFFFFFFFF AND PUSH32 0x8BE0079C531659141344CD1FD0A4F28419497F9722A3DAAFE3B4186F6B6457E0 PUSH1 0x40 MLOAD PUSH1 0x40 MLOAD DUP1 SWAP2 SUB SWAP1 LOG3 POP POP JUMP JUMPDEST PUSH2 0x12E4 DUP3 DUP3 PUSH2 0xA01 JUMP JUMPDEST PUSH2 0x1327 JUMPI DUP1 DUP3 PUSH1 0x40 MLOAD PUSH32 0xE2517D3F00000000000000000000000000000000000000000000000000000000 DUP2 MSTORE PUSH1 0x4 ADD PUSH2 0x131E SWAP3 SWAP2 SWAP1 PUSH2 0x270A JUMP JUMPDEST PUSH1 0x40 MLOAD DUP1 SWAP2 SUB SWAP1 REVERT JUMPDEST POP POP JUMP JUMPDEST DUP3 DUP1 SLOAD DUP3 DUP3 SSTORE SWAP1 PUSH0 MSTORE PUSH1 0x20 PUSH0 KECCAK256 SWAP1 DUP2 ADD SWAP3 DUP3 ISZERO PUSH2 0x1371 JUMPI SWAP2 PUSH1 0x20 MUL DUP3 ADD JUMPDEST DUP3 DUP2 GT ISZERO PUSH2 0x1370 JUMPI DUP3 MLOAD DUP3 SWAP1 DUP2 PUSH2 0x1360 SWAP2 SWAP1 PUSH2 0x1FC9 JUMP JUMPDEST POP SWAP2 PUSH1 0x20 ADD SWAP2 SWAP1 PUSH1 0x1 ADD SWAP1 PUSH2 0x1349 JUMP JUMPDEST JUMPDEST POP SWAP1 POP PUSH2 0x137E SWAP2 SWAP1 PUSH2 0x1382 JUMP JUMPDEST POP SWAP1 JUMP JUMPDEST JUMPDEST DUP1 DUP3 GT ISZERO PUSH2 0x13A1 JUMPI PUSH0 DUP2 DUP2 PUSH2 0x1398 SWAP2 SWAP1 PUSH2 0x13A5 JUMP JUMPDEST POP PUSH1 0x1 ADD PUSH2 0x1383 JUMP JUMPDEST POP SWAP1 JUMP JUMPDEST POP DUP1 SLOAD PUSH2 0x13B1 SWAP1 PUSH2 0x1DFC JUMP JUMPDEST PUSH0 DUP3 SSTORE DUP1 PUSH1 0x1F LT PUSH2 0x13C2 JUMPI POP PUSH2 0x13DF JUMP JUMPDEST PUSH1 0x1F ADD PUSH1 0x20 SWAP1 DIV SWAP1 PUSH0 MSTORE PUSH1 0x20 PUSH0 KECCAK256 SWAP1 DUP2 ADD SWAP1 PUSH2 0x13DE SWAP2 SWAP1 PUSH2 0x13E2 JUMP JUMPDEST JUMPDEST POP JUMP JUMPDEST JUMPDEST DUP1 DUP3 GT ISZERO PUSH2 0x13F9 JUMPI PUSH0 DUP2 PUSH0 SWAP1 SSTORE POP PUSH1 0x1 ADD PUSH2 0x13E3 JUMP JUMPDEST POP SWAP1 JUMP JUMPDEST PUSH0 PUSH1 0x40 MLOAD SWAP1 POP SWAP1 JUMP JUMPDEST PUSH0 DUP1 REVERT JUMPDEST PUSH0 DUP1 REVERT JUMPDEST PUSH0 PUSH32 0xFFFFFFFF00000000000000000000000000000000000000000000000000000000 DUP3 AND SWAP1 POP SWAP2 SWAP1 POP JUMP JUMPDEST PUSH2 0x1442 DUP2 PUSH2 0x140E JUMP JUMPDEST DUP2 EQ PUSH2 0x144C JUMPI PUSH0 DUP1 REVERT JUMPDEST POP JUMP JUMPDEST PUSH0 DUP2 CALLDATALOAD SWAP1 POP PUSH2 0x145D DUP2 PUSH2 0x1439 JUMP JUMPDEST SWAP3 SWAP2 POP POP JUMP JUMPDEST PUSH0 PUSH1 0x20 DUP3 DUP5 SUB SLT ISZERO PUSH2 0x1478 JUMPI PUSH2 0x1477 PUSH2 0x1406 JUMP JUMPDEST JUMPDEST PUSH0 PUSH2 0x1485 DUP5 DUP3 DUP6 ADD PUSH2 0x144F JUMP JUMPDEST SWAP2 POP POP SWAP3 SWAP2 POP POP JUMP JUMPDEST PUSH0 DUP2 ISZERO ISZERO SWAP1 POP SWAP2 SWAP1 POP JUMP JUMPDEST PUSH2 0x14A2 DUP2 PUSH2 0x148E JUMP JUMPDEST DUP3 MSTORE POP POP JUMP JUMPDEST PUSH0 PUSH1 0x20 DUP3 ADD SWAP1 POP PUSH2 0x14BB PUSH0 DUP4 ADD DUP5 PUSH2 0x1499 JUMP JUMPDEST SWAP3 SWAP2 POP POP JUMP JUMPDEST PUSH0 DUP2 SWAP1 POP SWAP2 SWAP1 POP JUMP JUMPDEST PUSH2 0x14D3 DUP2 PUSH2 0x14C1 JUMP JUMPDEST DUP2 EQ PUSH2 0x14DD JUMPI PUSH0 DUP1 REVERT JUMPDEST POP JUMP JUMPDEST PUSH0 DUP2 CALLDATALOAD SWAP1 POP PUSH2 0x14EE DUP2 PUSH2 0x14CA JUMP JUMPDEST SWAP3 SWAP2 POP POP JUMP JUMPDEST PUSH0 DUP1 REVERT JUMPDEST PUSH0 DUP1 REVERT JUMPDEST PUSH0 PUSH1 0x1F NOT PUSH1 0x1F DUP4 ADD AND SWAP1 POP SWAP2 SWAP1 POP JUMP JUMPDEST PUSH32 0x4E487B7100000000000000000000000000000000000000000000000000000000 PUSH0 MSTORE PUSH1 0x41 PUSH1 0x4 MSTORE PUSH1 0x24 PUSH0 REVERT JUMPDEST PUSH2 0x1542 DUP3 PUSH2 0x14FC JUMP JUMPDEST DUP2 ADD DUP2 DUP2 LT PUSH8 0xFFFFFFFFFFFFFFFF DUP3 GT OR ISZERO PUSH2 0x1561 JUMPI PUSH2 0x1560 PUSH2 0x150C JUMP JUMPDEST JUMPDEST DUP1 PUSH1 0x40 MSTORE POP POP POP JUMP JUMPDEST PUSH0 PUSH2 0x1573 PUSH2 0x13FD JUMP JUMPDEST SWAP1 POP PUSH2 0x157F DUP3 DUP3 PUSH2 0x1539 JUMP JUMPDEST SWAP2 SWAP1 POP JUMP JUMPDEST PUSH0 PUSH8 0xFFFFFFFFFFFFFFFF DUP3 GT ISZERO PUSH2 0x159E JUMPI PUSH2 0x159D PUSH2 0x150C JUMP JUMPDEST JUMPDEST PUSH2 0x15A7 DUP3 PUSH2 0x14FC JUMP JUMPDEST SWAP1 POP PUSH1 0x20 DUP2 ADD SWAP1 POP SWAP2 SWAP1 POP JUMP JUMPDEST DUP3 DUP2 DUP4 CALLDATACOPY PUSH0 DUP4 DUP4 ADD MSTORE POP POP POP JUMP JUMPDEST PUSH0 PUSH2 0x15D4 PUSH2 0x15CF DUP5 PUSH2 0x1584 JUMP JUMPDEST PUSH2 0x156A JUMP JUMPDEST SWAP1 POP DUP3 DUP2 MSTORE PUSH1 0x20 DUP2 ADD DUP5 DUP5 DUP5 ADD GT ISZERO PUSH2 0x15F0 JUMPI PUSH2 0x15EF PUSH2 0x14F8 JUMP JUMPDEST JUMPDEST PUSH2 0x15FB DUP5 DUP3 DUP6 PUSH2 0x15B4 JUMP JUMPDEST POP SWAP4 SWAP3 POP POP POP JUMP JUMPDEST PUSH0 DUP3 PUSH1 0x1F DUP4 ADD SLT PUSH2 0x1617 JUMPI PUSH2 0x1616 PUSH2 0x14F4 JUMP JUMPDEST JUMPDEST DUP2 CALLDATALOAD PUSH2 0x1627 DUP5 DUP3 PUSH1 0x20 DUP7 ADD PUSH2 0x15C2 JUMP JUMPDEST SWAP2 POP POP SWAP3 SWAP2 POP POP JUMP JUMPDEST PUSH0 DUP1 PUSH1 0x40 DUP4 DUP6 SUB SLT ISZERO PUSH2 0x1646 JUMPI PUSH2 0x1645 PUSH2 0x1406 JUMP JUMPDEST JUMPDEST PUSH0 PUSH2 0x1653 DUP6 DUP3 DUP7 ADD PUSH2 0x14E0 JUMP JUMPDEST SWAP3 POP POP PUSH1 0x20 DUP4 ADD CALLDATALOAD PUSH8 0xFFFFFFFFFFFFFFFF DUP2 GT ISZERO PUSH2 0x1674 JUMPI PUSH2 0x1673 PUSH2 0x140A JUMP JUMPDEST JUMPDEST PUSH2 0x1680 DUP6 DUP3 DUP7 ADD PUSH2 0x1603 JUMP JUMPDEST SWAP2 POP POP SWAP3 POP SWAP3 SWAP1 POP JUMP JUMPDEST PUSH0 DUP2 SWAP1 POP SWAP2 SWAP1 POP JUMP JUMPDEST PUSH2 0x169C DUP2 PUSH2 0x168A JUMP JUMPDEST DUP2 EQ PUSH2 0x16A6 JUMPI PUSH0 DUP1 REVERT JUMPDEST POP JUMP JUMPDEST PUSH0 DUP2 CALLDATALOAD SWAP1 POP PUSH2 0x16B7 DUP2 PUSH2 0x1693 JUMP JUMPDEST SWAP3 SWAP2 POP POP JUMP JUMPDEST PUSH0 PUSH1 0x20 DUP3 DUP5 SUB SLT ISZERO PUSH2 0x16D2 JUMPI PUSH2 0x16D1 PUSH2 0x1406 JUMP JUMPDEST JUMPDEST PUSH0 PUSH2 0x16DF DUP5 DUP3 DUP6 ADD PUSH2 0x16A9 JUMP JUMPDEST SWAP2 POP POP SWAP3 SWAP2 POP POP JUMP JUMPDEST PUSH2 0x16F1 DUP2 PUSH2 0x168A JUMP JUMPDEST DUP3 MSTORE POP POP JUMP JUMPDEST PUSH0 PUSH1 0x20 DUP3 ADD SWAP1 POP PUSH2 0x170A PUSH0 DUP4 ADD DUP5 PUSH2 0x16E8 JUMP JUMPDEST SWAP3 SWAP2 POP POP JUMP JUMPDEST PUSH0 PUSH20 0xFFFFFFFFFFFFFFFFFFFFFFFFFFFFFFFFFFFFFFFF DUP3 AND SWAP1 POP SWAP2 SWAP1 POP JUMP JUMPDEST PUSH0 PUSH2 0x1739 DUP3 PUSH2 0x1710 JUMP JUMPDEST SWAP1 POP SWAP2 SWAP1 POP JUMP JUMPDEST PUSH2 0x1749 DUP2 PUSH2 0x172F JUMP JUMPDEST DUP2 EQ PUSH2 0x1753 JUMPI PUSH0 DUP1 REVERT JUMPDEST POP JUMP JUMPDEST PUSH0 DUP2 CALLDATALOAD SWAP1 POP PUSH2 0x1764 DUP2 PUSH2 0x1740 JUMP JUMPDEST SWAP3 SWAP2 POP POP JUMP JUMPDEST PUSH0 DUP1 PUSH1 0x40 DUP4 DUP6 SUB SLT ISZERO PUSH2 0x1780 JUMPI PUSH2 0x177F PUSH2 0x1406 JUMP JUMPDEST JUMPDEST PUSH0 PUSH2 0x178D DUP6 DUP3 DUP7 ADD PUSH2 0x16A9 JUMP JUMPDEST SWAP3 POP POP PUSH1 0x20 PUSH2 0x179E DUP6 DUP3 DUP7 ADD PUSH2 0x1756 JUMP JUMPDEST SWAP2 POP POP SWAP3 POP SWAP3 SWAP1 POP JUMP JUMPDEST PUSH0 PUSH1 0x20 DUP3 DUP5 SUB SLT ISZERO PUSH2 0x17BD JUMPI PUSH2 0x17BC PUSH2 0x1406 JUMP JUMPDEST JUMPDEST PUSH0 PUSH2 0x17CA DUP5 DUP3 DUP6 ADD PUSH2 0x14E0 JUMP JUMPDEST SWAP2 POP POP SWAP3 SWAP2 POP POP JUMP JUMPDEST PUSH2 0x17DC DUP2 PUSH2 0x14C1 JUMP JUMPDEST DUP3 MSTORE POP POP JUMP JUMPDEST PUSH0 DUP2 MLOAD SWAP1 POP SWAP2 SWAP1 POP JUMP JUMPDEST PUSH0 DUP3 DUP3 MSTORE PUSH1 0x20 DUP3 ADD SWAP1 POP SWAP3 SWAP2 POP POP JUMP JUMPDEST DUP3 DUP2 DUP4 MCOPY PUSH0 DUP4 DUP4 ADD MSTORE POP POP POP JUMP JUMPDEST PUSH0 PUSH2 0x1814 DUP3 PUSH2 0x17E2 JUMP JUMPDEST PUSH2 0x181E DUP2 DUP6 PUSH2 0x17EC JUMP JUMPDEST SWAP4 POP PUSH2 0x182E DUP2 DUP6 PUSH1 0x20 DUP7 ADD PUSH2 0x17FC JUMP JUMPDEST PUSH2 0x1837 DUP2 PUSH2 0x14FC JUMP JUMPDEST DUP5 ADD SWAP2 POP POP SWAP3 SWAP2 POP POP JUMP JUMPDEST PUSH0 DUP3 DUP3 MSTORE PUSH1 0x20 DUP3 ADD SWAP1 POP SWAP3 SWAP2 POP POP JUMP JUMPDEST PUSH0 PUSH2 0x185C DUP3 PUSH2 0x17E2 JUMP JUMPDEST PUSH2 0x1866 DUP2 DUP6 PUSH2 0x1842 JUMP JUMPDEST SWAP4 POP PUSH2 0x1876 DUP2 DUP6 PUSH1 0x20 DUP7 ADD PUSH2 0x17FC JUMP JUMPDEST PUSH2 0x187F DUP2 PUSH2 0x14FC JUMP JUMPDEST DUP5 ADD SWAP2 POP POP SWAP3 SWAP2 POP POP JUMP JUMPDEST PUSH2 0x1893 DUP2 PUSH2 0x14C1 JUMP JUMPDEST DUP3 MSTORE POP POP JUMP JUMPDEST PUSH2 0x18A2 DUP2 PUSH2 0x148E JUMP JUMPDEST DUP3 MSTORE POP POP JUMP JUMPDEST PUSH0 PUSH1 0xC0 DUP4 ADD PUSH0 DUP4 ADD MLOAD DUP5 DUP3 SUB PUSH0 DUP7 ADD MSTORE PUSH2 0x18C2 DUP3 DUP3 PUSH2 0x1852 JUMP JUMPDEST SWAP2 POP POP PUSH1 0x20 DUP4 ADD MLOAD DUP5 DUP3 SUB PUSH1 0x20 DUP7 ADD MSTORE PUSH2 0x18DC DUP3 DUP3 PUSH2 0x1852 JUMP JUMPDEST SWAP2 POP POP PUSH1 0x40 DUP4 ADD MLOAD PUSH2 0x18F1 PUSH1 0x40 DUP7 ADD DUP3 PUSH2 0x188A JUMP JUMPDEST POP PUSH1 0x60 DUP4 ADD MLOAD PUSH2 0x1904 PUSH1 0x60 DUP7 ADD DUP3 PUSH2 0x1899 JUMP JUMPDEST POP PUSH1 0x80 DUP4 ADD MLOAD PUSH2 0x1917 PUSH1 0x80 DUP7 ADD DUP3 PUSH2 0x1899 JUMP JUMPDEST POP PUSH1 0xA0 DUP4 ADD MLOAD PUSH2 0x192A PUSH1 0xA0 DUP7 ADD DUP3 PUSH2 0x188A JUMP JUMPDEST POP DUP1 SWAP2 POP POP SWAP3 SWAP2 POP POP JUMP JUMPDEST PUSH0 PUSH1 0xC0 DUP3 ADD SWAP1 POP PUSH2 0x1948 PUSH0 DUP4 ADD DUP10 PUSH2 0x17D3 JUMP JUMPDEST DUP2 DUP2 SUB PUSH1 0x20 DUP4 ADD MSTORE PUSH2 0x195A DUP2 DUP9 PUSH2 0x180A JUMP JUMPDEST SWAP1 POP DUP2 DUP2 SUB PUSH1 0x40 DUP4 ADD MSTORE PUSH2 0x196E DUP2 DUP8 PUSH2 0x180A JUMP JUMPDEST SWAP1 POP DUP2 DUP2 SUB PUSH1 0x60 DUP4 ADD MSTORE PUSH2 0x1982 DUP2 DUP7 PUSH2 0x180A JUMP JUMPDEST SWAP1 POP PUSH2 0x1991 PUSH1 0x80 DUP4 ADD DUP6 PUSH2 0x17D3 JUMP JUMPDEST DUP2 DUP2 SUB PUSH1 0xA0 DUP4 ADD MSTORE PUSH2 0x19A3 DUP2 DUP5 PUSH2 0x18A8 JUMP JUMPDEST SWAP1 POP SWAP8 SWAP7 POP POP POP POP POP POP POP JUMP JUMPDEST PUSH2 0x19B9 DUP2 PUSH2 0x172F JUMP JUMPDEST DUP3 MSTORE POP POP JUMP JUMPDEST PUSH0 PUSH1 0x20 DUP3 ADD SWAP1 POP PUSH2 0x19D2 PUSH0 DUP4 ADD DUP5 PUSH2 0x19B0 JUMP JUMPDEST SWAP3 SWAP2 POP POP JUMP JUMPDEST PUSH0 PUSH1 0x20 DUP3 DUP5 SUB SLT ISZERO PUSH2 0x19ED JUMPI PUSH2 0x19EC PUSH2 0x1406 JUMP JUMPDEST JUMPDEST PUSH0 PUSH2 0x19FA DUP5 DUP3 DUP6 ADD PUSH2 0x1756 JUMP JUMPDEST SWAP2 POP POP SWAP3 SWAP2 POP POP JUMP JUMPDEST PUSH0 PUSH8 0xFFFFFFFFFFFFFFFF DUP3 GT ISZERO PUSH2 0x1A1D JUMPI PUSH2 0x1A1C PUSH2 0x150C JUMP JUMPDEST JUMPDEST PUSH1 0x20 DUP3 MUL SWAP1 POP PUSH1 0x20 DUP2 ADD SWAP1 POP SWAP2 SWAP1 POP JUMP JUMPDEST PUSH0 DUP1 REVERT JUMPDEST PUSH0 PUSH2 0x1A44 PUSH2 0x1A3F DUP5 PUSH2 0x1A03 JUMP JUMPDEST PUSH2 0x156A JUMP JUMPDEST SWAP1 POP DUP1 DUP4 DUP3 MSTORE PUSH1 0x20 DUP3 ADD SWAP1 POP PUSH1 0x20 DUP5 MUL DUP4 ADD DUP6 DUP2 GT ISZERO PUSH2 0x1A67 JUMPI PUSH2 0x1A66 PUSH2 0x1A2E JUMP JUMPDEST JUMPDEST DUP4 JUMPDEST DUP2 DUP2 LT ISZERO PUSH2 0x1AAE JUMPI DUP1 CALLDATALOAD PUSH8 0xFFFFFFFFFFFFFFFF DUP2 GT ISZERO PUSH2 0x1A8C JUMPI PUSH2 0x1A8B PUSH2 0x14F4 JUMP JUMPDEST JUMPDEST DUP1 DUP7 ADD PUSH2 0x1A99 DUP10 DUP3 PUSH2 0x1603 JUMP JUMPDEST DUP6 MSTORE PUSH1 0x20 DUP6 ADD SWAP5 POP POP POP PUSH1 0x20 DUP2 ADD SWAP1 POP PUSH2 0x1A69 JUMP JUMPDEST POP POP POP SWAP4 SWAP3 POP POP POP JUMP JUMPDEST PUSH0 DUP3 PUSH1 0x1F DUP4 ADD SLT PUSH2 0x1ACC JUMPI PUSH2 0x1ACB PUSH2 0x14F4 JUMP JUMPDEST JUMPDEST DUP2 CALLDATALOAD PUSH2 0x1ADC DUP5 DUP3 PUSH1 0x20 DUP7 ADD PUSH2 0x1A32 JUMP JUMPDEST SWAP2 POP POP SWAP3 SWAP2 POP POP JUMP JUMPDEST PUSH2 0x1AEE DUP2 PUSH2 0x148E JUMP JUMPDEST DUP2 EQ PUSH2 0x1AF8 JUMPI PUSH0 DUP1 REVERT JUMPDEST POP JUMP JUMPDEST PUSH0 DUP2 CALLDATALOAD SWAP1 POP PUSH2 0x1B09 DUP2 PUSH2 0x1AE5 JUMP JUMPDEST SWAP3 SWAP2 POP POP JUMP JUMPDEST PUSH0 DUP1 PUSH0 DUP1 PUSH0 DUP1 PUSH0 DUP1 PUSH0 PUSH2 0x120 DUP11 DUP13 SUB SLT ISZERO PUSH2 0x1B2D JUMPI PUSH2 0x1B2C PUSH2 0x1406 JUMP JUMPDEST JUMPDEST PUSH0 DUP11 ADD CALLDATALOAD PUSH8 0xFFFFFFFFFFFFFFFF DUP2 GT ISZERO PUSH2 0x1B4A JUMPI PUSH2 0x1B49 PUSH2 0x140A JUMP JUMPDEST JUMPDEST PUSH2 0x1B56 DUP13 DUP3 DUP14 ADD PUSH2 0x1603 JUMP JUMPDEST SWAP10 POP POP PUSH1 0x20 DUP11 ADD CALLDATALOAD PUSH8 0xFFFFFFFFFFFFFFFF DUP2 GT ISZERO PUSH2 0x1B77 JUMPI PUSH2 0x1B76 PUSH2 0x140A JUMP JUMPDEST JUMPDEST PUSH2 0x1B83 DUP13 DUP3 DUP14 ADD PUSH2 0x1603 JUMP JUMPDEST SWAP9 POP POP PUSH1 0x40 DUP11 ADD CALLDATALOAD PUSH8 0xFFFFFFFFFFFFFFFF DUP2 GT ISZERO PUSH2 0x1BA4 JUMPI PUSH2 0x1BA3 PUSH2 0x140A JUMP JUMPDEST JUMPDEST PUSH2 0x1BB0 DUP13 DUP3 DUP14 ADD PUSH2 0x1603 JUMP JUMPDEST SWAP8 POP POP PUSH1 0x60 DUP11 ADD CALLDATALOAD PUSH8 0xFFFFFFFFFFFFFFFF DUP2 GT ISZERO PUSH2 0x1BD1 JUMPI PUSH2 0x1BD0 PUSH2 0x140A JUMP JUMPDEST JUMPDEST PUSH2 0x1BDD DUP13 DUP3 DUP14 ADD PUSH2 0x1AB8 JUMP JUMPDEST SWAP7 POP POP PUSH1 0x80 DUP11 ADD CALLDATALOAD PUSH8 0xFFFFFFFFFFFFFFFF DUP2 GT ISZERO PUSH2 0x1BFE JUMPI PUSH2 0x1BFD PUSH2 0x140A JUMP JUMPDEST JUMPDEST PUSH2 0x1C0A DUP13 DUP3 DUP14 ADD PUSH2 0x1AB8 JUMP JUMPDEST SWAP6 POP POP PUSH1 0xA0 PUSH2 0x1C1B DUP13 DUP3 DUP14 ADD PUSH2 0x14E0 JUMP JUMPDEST SWAP5 POP POP PUSH1 0xC0 DUP11 ADD CALLDATALOAD PUSH8 0xFFFFFFFFFFFFFFFF DUP2 GT ISZERO PUSH2 0x1C3C JUMPI PUSH2 0x1C3B PUSH2 0x140A JUMP JUMPDEST JUMPDEST PUSH2 0x1C48 DUP13 DUP3 DUP14 ADD PUSH2 0x1603 JUMP JUMPDEST SWAP4 POP POP PUSH1 0xE0 DUP11 ADD CALLDATALOAD PUSH8 0xFFFFFFFFFFFFFFFF DUP2 GT ISZERO PUSH2 0x1C69 JUMPI PUSH2 0x1C68 PUSH2 0x140A JUMP JUMPDEST JUMPDEST PUSH2 0x1C75 DUP13 DUP3 DUP14 ADD PUSH2 0x1603 JUMP JUMPDEST SWAP3 POP POP PUSH2 0x100 PUSH2 0x1C87 DUP13 DUP3 DUP14 ADD PUSH2 0x1AFB JUMP JUMPDEST SWAP2 POP POP SWAP3 SWAP6 SWAP9 POP SWAP3 SWAP6 SWAP9 POP SWAP3 SWAP6 SWAP9 JUMP JUMPDEST PUSH32 0x50726F6475637420686173206265656E20736869707065640000000000000000 PUSH0 DUP3 ADD MSTORE POP JUMP JUMPDEST PUSH0 PUSH2 0x1CCB PUSH1 0x18 DUP4 PUSH2 0x17EC JUMP JUMPDEST SWAP2 POP PUSH2 0x1CD6 DUP3 PUSH2 0x1C97 JUMP JUMPDEST PUSH1 0x20 DUP3 ADD SWAP1 POP SWAP2 SWAP1 POP JUMP JUMPDEST PUSH0 PUSH1 0x20 DUP3 ADD SWAP1 POP DUP2 DUP2 SUB PUSH0 DUP4 ADD MSTORE PUSH2 0x1CF8 DUP2 PUSH2 0x1CBF JUMP JUMPDEST SWAP1 POP SWAP2 SWAP1 POP JUMP JUMPDEST PUSH32 0x50726F6475637420646F6573206E6F7420657869737400000000000000000000 PUSH0 DUP3 ADD MSTORE POP JUMP JUMPDEST PUSH0 PUSH2 0x1D33 PUSH1 0x16 DUP4 PUSH2 0x17EC JUMP JUMPDEST SWAP2 POP PUSH2 0x1D3E DUP3 PUSH2 0x1CFF JUMP JUMPDEST PUSH1 0x20 DUP3 ADD SWAP1 POP SWAP2 SWAP1 POP JUMP JUMPDEST PUSH0 PUSH1 0x20 DUP3 ADD SWAP1 POP DUP2 DUP2 SUB PUSH0 DUP4 ADD MSTORE PUSH2 0x1D60 DUP2 PUSH2 0x1D27 JUMP JUMPDEST SWAP1 POP SWAP2 SWAP1 POP JUMP JUMPDEST PUSH32 0x50726F64756374206973206F7574206F662073746F636B000000000000000000 PUSH0 DUP3 ADD MSTORE POP JUMP JUMPDEST PUSH0 PUSH2 0x1D9B PUSH1 0x17 DUP4 PUSH2 0x17EC JUMP JUMPDEST SWAP2 POP PUSH2 0x1DA6 DUP3 PUSH2 0x1D67 JUMP JUMPDEST PUSH1 0x20 DUP3 ADD SWAP1 POP SWAP2 SWAP1 POP JUMP JUMPDEST PUSH0 PUSH1 0x20 DUP3 ADD SWAP1 POP DUP2 DUP2 SUB PUSH0 DUP4 ADD MSTORE PUSH2 0x1DC8 DUP2 PUSH2 0x1D8F JUMP JUMPDEST SWAP1 POP SWAP2 SWAP1 POP JUMP JUMPDEST PUSH32 0x4E487B7100000000000000000000000000000000000000000000000000000000 PUSH0 MSTORE PUSH1 0x22 PUSH1 0x4 MSTORE PUSH1 0x24 PUSH0 REVERT JUMPDEST PUSH0 PUSH1 0x2 DUP3 DIV SWAP1 POP PUSH1 0x1 DUP3 AND DUP1 PUSH2 0x1E13 JUMPI PUSH1 0x7F DUP3 AND SWAP2 POP JUMPDEST PUSH1 0x20 DUP3 LT DUP2 SUB PUSH2 0x1E26 JUMPI PUSH2 0x1E25 PUSH2 0x1DCF JUMP JUMPDEST JUMPDEST POP SWAP2 SWAP1 POP JUMP JUMPDEST PUSH0 DUP2 SWAP1 POP DUP2 PUSH0 MSTORE PUSH1 0x20 PUSH0 KECCAK256 SWAP1 POP SWAP2 SWAP1 POP JUMP JUMPDEST PUSH0 PUSH1 0x20 PUSH1 0x1F DUP4 ADD DIV SWAP1 POP SWAP2 SWAP1 POP JUMP JUMPDEST PUSH0 DUP3 DUP3 SHL SWAP1 POP SWAP3 SWAP2 POP POP JUMP JUMPDEST PUSH0 PUSH1 0x8 DUP4 MUL PUSH2 0x1E88 PUSH32 0xFFFFFFFFFFFFFFFFFFFFFFFFFFFFFFFFFFFFFFFFFFFFFFFFFFFFFFFFFFFFFFFF DUP3 PUSH2 0x1E4D JUMP JUMPDEST PUSH2 0x1E92 DUP7 DUP4 PUSH2 0x1E4D JUMP JUMPDEST SWAP6 POP DUP1 NOT DUP5 AND SWAP4 POP DUP1 DUP7 AND DUP5 OR SWAP3 POP POP POP SWAP4 SWAP3 POP POP POP JUMP JUMPDEST PUSH0 DUP2 SWAP1 POP SWAP2 SWAP1 POP JUMP JUMPDEST PUSH0 PUSH2 0x1ECD PUSH2 0x1EC8 PUSH2 0x1EC3 DUP5 PUSH2 0x14C1 JUMP JUMPDEST PUSH2 0x1EAA JUMP JUMPDEST PUSH2 0x14C1 JUMP JUMPDEST SWAP1 POP SWAP2 SWAP1 POP JUMP JUMPDEST PUSH0 DUP2 SWAP1 POP SWAP2 SWAP1 POP JUMP JUMPDEST PUSH2 0x1EE6 DUP4 PUSH2 0x1EB3 JUMP JUMPDEST PUSH2 0x1EFA PUSH2 0x1EF2 DUP3 PUSH2 0x1ED4 JUMP JUMPDEST DUP5 DUP5 SLOAD PUSH2 0x1E59 JUMP JUMPDEST DUP3 SSTORE POP POP POP POP JUMP JUMPDEST PUSH0 SWAP1 JUMP JUMPDEST PUSH2 0x1F0E PUSH2 0x1F02 JUMP JUMPDEST PUSH2 0x1F19 DUP2 DUP5 DUP5 PUSH2 0x1EDD JUMP JUMPDEST POP POP POP JUMP JUMPDEST JUMPDEST DUP2 DUP2 LT ISZERO PUSH2 0x1F3C JUMPI PUSH2 0x1F31 PUSH0 DUP3 PUSH2 0x1F06 JUMP JUMPDEST PUSH1 0x1 DUP2 ADD SWAP1 POP PUSH2 0x1F1F JUMP JUMPDEST POP POP JUMP JUMPDEST PUSH1 0x1F DUP3 GT ISZERO PUSH2 0x1F81 JUMPI PUSH2 0x1F52 DUP2 PUSH2 0x1E2C JUMP JUMPDEST PUSH2 0x1F5B DUP5 PUSH2 0x1E3E JUMP JUMPDEST DUP2 ADD PUSH1 0x20 DUP6 LT ISZERO PUSH2 0x1F6A JUMPI DUP2 SWAP1 POP JUMPDEST PUSH2 0x1F7E PUSH2 0x1F76 DUP6 PUSH2 0x1E3E JUMP JUMPDEST DUP4 ADD DUP3 PUSH2 0x1F1E JUMP JUMPDEST POP POP JUMPDEST POP POP POP JUMP JUMPDEST PUSH0 DUP3 DUP3 SHR SWAP1 POP SWAP3 SWAP2 POP POP JUMP JUMPDEST PUSH0 PUSH2 0x1FA1 PUSH0 NOT DUP5 PUSH1 0x8 MUL PUSH2 0x1F86 JUMP JUMPDEST NOT DUP1 DUP4 AND SWAP2 POP POP SWAP3 SWAP2 POP POP JUMP JUMPDEST PUSH0 PUSH2 0x1FB9 DUP4 DUP4 PUSH2 0x1F92 JUMP JUMPDEST SWAP2 POP DUP3 PUSH1 0x2 MUL DUP3 OR SWAP1 POP SWAP3 SWAP2 POP POP JUMP JUMPDEST PUSH2 0x1FD2 DUP3 PUSH2 0x17E2 JUMP JUMPDEST PUSH8 0xFFFFFFFFFFFFFFFF DUP2 GT ISZERO PUSH2 0x1FEB JUMPI PUSH2 0x1FEA PUSH2 0x150C JUMP JUMPDEST JUMPDEST PUSH2 0x1FF5 DUP3 SLOAD PUSH2 0x1DFC JUMP JUMPDEST PUSH2 0x2000 DUP3 DUP3 DUP6 PUSH2 0x1F40 JUMP JUMPDEST PUSH0 PUSH1 0x20 SWAP1 POP PUSH1 0x1F DUP4 GT PUSH1 0x1 DUP2 EQ PUSH2 0x2031 JUMPI PUSH0 DUP5 ISZERO PUSH2 0x201F JUMPI DUP3 DUP8 ADD MLOAD SWAP1 POP JUMPDEST PUSH2 0x2029 DUP6 DUP3 PUSH2 0x1FAE JUMP JUMPDEST DUP7 SSTORE POP PUSH2 0x2090 JUMP JUMPDEST PUSH1 0x1F NOT DUP5 AND PUSH2 0x203F DUP7 PUSH2 0x1E2C JUMP JUMPDEST PUSH0 JUMPDEST DUP3 DUP2 LT ISZERO PUSH2 0x2066 JUMPI DUP5 DUP10 ADD MLOAD DUP3 SSTORE PUSH1 0x1 DUP3 ADD SWAP2 POP PUSH1 0x20 DUP6 ADD SWAP5 POP PUSH1 0x20 DUP2 ADD SWAP1 POP PUSH2 0x2041 JUMP JUMPDEST DUP7 DUP4 LT ISZERO PUSH2 0x2083 JUMPI DUP5 DUP10 ADD MLOAD PUSH2 0x207F PUSH1 0x1F DUP10 AND DUP3 PUSH2 0x1F92 JUMP JUMPDEST DUP4 SSTORE POP JUMPDEST PUSH1 0x1 PUSH1 0x2 DUP9 MUL ADD DUP9 SSTORE POP POP POP JUMPDEST POP POP POP POP POP POP JUMP JUMPDEST PUSH0 DUP2 SLOAD PUSH2 0x20A4 DUP2 PUSH2 0x1DFC JUMP JUMPDEST PUSH2 0x20AE DUP2 DUP7 PUSH2 0x17EC JUMP JUMPDEST SWAP5 POP PUSH1 0x1 DUP3 AND PUSH0 DUP2 EQ PUSH2 0x20C8 JUMPI PUSH1 0x1 DUP2 EQ PUSH2 0x20DE JUMPI PUSH2 0x2110 JUMP JUMPDEST PUSH1 0xFF NOT DUP4 AND DUP7 MSTORE DUP2 ISZERO ISZERO PUSH1 0x20 MUL DUP7 ADD SWAP4 POP PUSH2 0x2110 JUMP JUMPDEST PUSH2 0x20E7 DUP6 PUSH2 0x1E2C JUMP JUMPDEST PUSH0 JUMPDEST DUP4 DUP2 LT ISZERO PUSH2 0x2108 JUMPI DUP2 SLOAD DUP2 DUP10 ADD MSTORE PUSH1 0x1 DUP3 ADD SWAP2 POP PUSH1 0x20 DUP2 ADD SWAP1 POP PUSH2 0x20E9 JUMP JUMPDEST DUP1 DUP9 ADD SWAP6 POP POP POP JUMPDEST POP POP POP SWAP3 SWAP2 POP POP JUMP JUMPDEST PUSH0 PUSH1 0xA0 DUP3 ADD SWAP1 POP DUP2 DUP2 SUB PUSH0 DUP4 ADD MSTORE PUSH2 0x2131 DUP2 DUP9 PUSH2 0x2098 JUMP JUMPDEST SWAP1 POP DUP2 DUP2 SUB PUSH1 0x20 DUP4 ADD MSTORE PUSH2 0x2145 DUP2 DUP8 PUSH2 0x2098 JUMP JUMPDEST SWAP1 POP PUSH2 0x2154 PUSH1 0x40 DUP4 ADD DUP7 PUSH2 0x17D3 JUMP JUMPDEST PUSH2 0x2161 PUSH1 0x60 DUP4 ADD DUP6 PUSH2 0x17D3 JUMP JUMPDEST PUSH2 0x216E PUSH1 0x80 DUP4 ADD DUP5 PUSH2 0x1499 JUMP JUMPDEST SWAP7 SWAP6 POP POP POP POP POP POP JUMP JUMPDEST PUSH32 0x55736572206E6F7420617574686F72697A656400000000000000000000000000 PUSH0 DUP3 ADD MSTORE POP JUMP JUMPDEST PUSH0 PUSH2 0x21AC PUSH1 0x13 DUP4 PUSH2 0x17EC JUMP JUMPDEST SWAP2 POP PUSH2 0x21B7 DUP3 PUSH2 0x2178 JUMP JUMPDEST PUSH1 0x20 DUP3 ADD SWAP1 POP SWAP2 SWAP1 POP JUMP JUMPDEST PUSH0 PUSH1 0x20 DUP3 ADD SWAP1 POP DUP2 DUP2 SUB PUSH0 DUP4 ADD MSTORE PUSH2 0x21D9 DUP2 PUSH2 0x21A0 JUMP JUMPDEST SWAP1 POP SWAP2 SWAP1 POP JUMP JUMPDEST PUSH32 0x456D7074792070726F647563742074797065206E6F7420616C6C6F7765640000 PUSH0 DUP3 ADD MSTORE POP JUMP JUMPDEST PUSH0 PUSH2 0x2214 PUSH1 0x1E DUP4 PUSH2 0x17EC JUMP JUMPDEST SWAP2 POP PUSH2 0x221F DUP3 PUSH2 0x21E0 JUMP JUMPDEST PUSH1 0x20 DUP3 ADD SWAP1 POP SWAP2 SWAP1 POP JUMP JUMPDEST PUSH0 PUSH1 0x20 DUP3 ADD SWAP1 POP DUP2 DUP2 SUB PUSH0 DUP4 ADD MSTORE PUSH2 0x2241 DUP2 PUSH2 0x2208 JUMP JUMPDEST SWAP1 POP SWAP2 SWAP1 POP JUMP JUMPDEST PUSH32 0x456D7074792070726F64756374206E616D65206E6F7420616C6C6F7765640000 PUSH0 DUP3 ADD MSTORE POP JUMP JUMPDEST PUSH0 PUSH2 0x227C PUSH1 0x1E DUP4 PUSH2 0x17EC JUMP JUMPDEST SWAP2 POP PUSH2 0x2287 DUP3 PUSH2 0x2248 JUMP JUMPDEST PUSH1 0x20 DUP3 ADD SWAP1 POP SWAP2 SWAP1 POP JUMP JUMPDEST PUSH0 PUSH1 0x20 DUP3 ADD SWAP1 POP DUP2 DUP2 SUB PUSH0 DUP4 ADD MSTORE PUSH2 0x22A9 DUP2 PUSH2 0x2270 JUMP JUMPDEST SWAP1 POP SWAP2 SWAP1 POP JUMP JUMPDEST PUSH32 0x456D707479206272616E64206E616D65206E6F7420616C6C6F77656400000000 PUSH0 DUP3 ADD MSTORE POP JUMP JUMPDEST PUSH0 PUSH2 0x22E4 PUSH1 0x1C DUP4 PUSH2 0x17EC JUMP JUMPDEST SWAP2 POP PUSH2 0x22EF DUP3 PUSH2 0x22B0 JUMP JUMPDEST PUSH1 0x20 DUP3 ADD SWAP1 POP SWAP2 SWAP1 POP JUMP JUMPDEST PUSH0 PUSH1 0x20 DUP3 ADD SWAP1 POP DUP2 DUP2 SUB PUSH0 DUP4 ADD MSTORE PUSH2 0x2311 DUP2 PUSH2 0x22D8 JUMP JUMPDEST SWAP1 POP SWAP2 SWAP1 POP JUMP JUMPDEST PUSH32 0x5175616E74697479206D7573742062652067726561746572207468616E207A65 PUSH0 DUP3 ADD MSTORE PUSH32 0x726F000000000000000000000000000000000000000000000000000000000000 PUSH1 0x20 DUP3 ADD MSTORE POP JUMP JUMPDEST PUSH0 PUSH2 0x2372 PUSH1 0x22 DUP4 PUSH2 0x17EC JUMP JUMPDEST SWAP2 POP PUSH2 0x237D DUP3 PUSH2 0x2318 JUMP JUMPDEST PUSH1 0x40 DUP3 ADD SWAP1 POP SWAP2 SWAP1 POP JUMP JUMPDEST PUSH0 PUSH1 0x20 DUP3 ADD SWAP1 POP DUP2 DUP2 SUB PUSH0 DUP4 ADD MSTORE PUSH2 0x239F DUP2 PUSH2 0x2366 JUMP JUMPDEST SWAP1 POP SWAP2 SWAP1 POP JUMP JUMPDEST PUSH32 0x50726F6475637420616C72656164792065786973747300000000000000000000 PUSH0 DUP3 ADD MSTORE POP JUMP JUMPDEST PUSH0 PUSH2 0x23DA PUSH1 0x16 DUP4 PUSH2 0x17EC JUMP JUMPDEST SWAP2 POP PUSH2 0x23E5 DUP3 PUSH2 0x23A6 JUMP JUMPDEST PUSH1 0x20 DUP3 ADD SWAP1 POP SWAP2 SWAP1 POP JUMP JUMPDEST PUSH0 PUSH1 0x20 DUP3 ADD SWAP1 POP DUP2 DUP2 SUB PUSH0 DUP4 ADD MSTORE PUSH2 0x2407 DUP2 PUSH2 0x23CE JUMP JUMPDEST SWAP1 POP SWAP2 SWAP1 POP JUMP JUMPDEST PUSH0 DUP2 MLOAD SWAP1 POP SWAP2 SWAP1 POP JUMP JUMPDEST PUSH0 DUP3 DUP3 MSTORE PUSH1 0x20 DUP3 ADD SWAP1 POP SWAP3 SWAP2 POP POP JUMP JUMPDEST PUSH0 DUP2 SWAP1 POP PUSH1 0x20 DUP3 ADD SWAP1 POP SWAP2 SWAP1 POP JUMP JUMPDEST PUSH0 PUSH2 0x2442 DUP4 DUP4 PUSH2 0x1852 JUMP JUMPDEST SWAP1 POP SWAP3 SWAP2 POP POP JUMP JUMPDEST PUSH0 PUSH1 0x20 DUP3 ADD SWAP1 POP SWAP2 SWAP1 POP JUMP JUMPDEST PUSH0 PUSH2 0x2460 DUP3 PUSH2 0x240E JUMP JUMPDEST PUSH2 0x246A DUP2 DUP6 PUSH2 0x2418 JUMP JUMPDEST SWAP4 POP DUP4 PUSH1 0x20 DUP3 MUL DUP6 ADD PUSH2 0x247C DUP6 PUSH2 0x2428 JUMP JUMPDEST DUP1 PUSH0 JUMPDEST DUP6 DUP2 LT ISZERO PUSH2 0x24B7 JUMPI DUP5 DUP5 SUB DUP10 MSTORE DUP2 MLOAD PUSH2 0x2498 DUP6 DUP3 PUSH2 0x2437 JUMP JUMPDEST SWAP5 POP PUSH2 0x24A3 DUP4 PUSH2 0x244A JUMP JUMPDEST SWAP3 POP PUSH1 0x20 DUP11 ADD SWAP10 POP POP PUSH1 0x1 DUP2 ADD SWAP1 POP PUSH2 0x247F JUMP JUMPDEST POP DUP3 SWAP8 POP DUP8 SWAP6 POP POP POP POP POP POP SWAP3 SWAP2 POP POP JUMP JUMPDEST PUSH0 DUP2 SLOAD PUSH2 0x24D5 DUP2 PUSH2 0x1DFC JUMP JUMPDEST PUSH2 0x24DF DUP2 DUP7 PUSH2 0x1842 JUMP JUMPDEST SWAP5 POP PUSH1 0x1 DUP3 AND PUSH0 DUP2 EQ PUSH2 0x24F9 JUMPI PUSH1 0x1 DUP2 EQ PUSH2 0x250F JUMPI PUSH2 0x2541 JUMP JUMPDEST PUSH1 0xFF NOT DUP4 AND DUP7 MSTORE DUP2 ISZERO ISZERO PUSH1 0x20 MUL DUP7 ADD SWAP4 POP PUSH2 0x2541 JUMP JUMPDEST PUSH2 0x2518 DUP6 PUSH2 0x1E2C JUMP JUMPDEST PUSH0 JUMPDEST DUP4 DUP2 LT ISZERO PUSH2 0x2539 JUMPI DUP2 SLOAD DUP2 DUP10 ADD MSTORE PUSH1 0x1 DUP3 ADD SWAP2 POP PUSH1 0x20 DUP2 ADD SWAP1 POP PUSH2 0x251A JUMP JUMPDEST DUP1 DUP9 ADD SWAP6 POP POP POP JUMPDEST POP POP POP SWAP3 SWAP2 POP POP JUMP JUMPDEST PUSH0 DUP2 PUSH0 SHR SWAP1 POP SWAP2 SWAP1 POP JUMP JUMPDEST PUSH0 DUP2 SWAP1 POP SWAP2 SWAP1 POP JUMP JUMPDEST PUSH0 PUSH2 0x2570 PUSH2 0x256B DUP4 PUSH2 0x254A JUMP JUMPDEST PUSH2 0x2555 JUMP JUMPDEST SWAP1 POP SWAP2 SWAP1 POP JUMP JUMPDEST PUSH0 PUSH1 0xFF DUP3 AND SWAP1 POP SWAP2 SWAP1 POP JUMP JUMPDEST PUSH0 PUSH2 0x2595 PUSH2 0x2590 DUP4 PUSH2 0x254A JUMP JUMPDEST PUSH2 0x2577 JUMP JUMPDEST SWAP1 POP SWAP2 SWAP1 POP JUMP JUMPDEST PUSH0 DUP2 PUSH1 0x8 SHR SWAP1 POP SWAP2 SWAP1 POP JUMP JUMPDEST PUSH0 PUSH2 0x25BA PUSH2 0x25B5 DUP4 PUSH2 0x259C JUMP JUMPDEST PUSH2 0x2577 JUMP JUMPDEST SWAP1 POP SWAP2 SWAP1 POP JUMP JUMPDEST PUSH0 PUSH1 0xC0 DUP4 ADD PUSH0 DUP1 DUP5 ADD DUP6 DUP4 SUB PUSH0 DUP8 ADD MSTORE PUSH2 0x25DB DUP4 DUP3 PUSH2 0x24C9 JUMP JUMPDEST SWAP3 POP POP PUSH1 0x1 DUP5 ADD DUP6 DUP4 SUB PUSH1 0x20 DUP8 ADD MSTORE PUSH2 0x25F4 DUP4 DUP3 PUSH2 0x24C9 JUMP JUMPDEST SWAP3 POP POP PUSH1 0x2 DUP5 ADD SLOAD SWAP1 POP PUSH2 0x2607 DUP2 PUSH2 0x255E JUMP JUMPDEST PUSH2 0x2614 PUSH1 0x40 DUP8 ADD DUP3 PUSH2 0x188A JUMP JUMPDEST POP PUSH1 0x3 DUP5 ADD SLOAD SWAP1 POP PUSH2 0x2625 DUP2 PUSH2 0x2583 JUMP JUMPDEST PUSH2 0x2632 PUSH1 0x60 DUP8 ADD DUP3 PUSH2 0x1899 JUMP JUMPDEST POP PUSH2 0x263C DUP2 PUSH2 0x25A8 JUMP JUMPDEST PUSH2 0x2649 PUSH1 0x80 DUP8 ADD DUP3 PUSH2 0x1899 JUMP JUMPDEST POP PUSH1 0x4 DUP5 ADD SLOAD SWAP1 POP PUSH2 0x265A DUP2 PUSH2 0x255E JUMP JUMPDEST PUSH2 0x2667 PUSH1 0xA0 DUP8 ADD DUP3 PUSH2 0x188A JUMP JUMPDEST POP DUP2 SWAP3 POP POP POP SWAP3 SWAP2 POP POP JUMP JUMPDEST PUSH0 PUSH1 0xE0 DUP3 ADD SWAP1 POP DUP2 DUP2 SUB PUSH0 DUP4 ADD MSTORE PUSH2 0x268B DUP2 DUP11 PUSH2 0x180A JUMP JUMPDEST SWAP1 POP DUP2 DUP2 SUB PUSH1 0x20 DUP4 ADD MSTORE PUSH2 0x269F DUP2 DUP10 PUSH2 0x180A JUMP JUMPDEST SWAP1 POP DUP2 DUP2 SUB PUSH1 0x40 DUP4 ADD MSTORE PUSH2 0x26B3 DUP2 DUP9 PUSH2 0x180A JUMP JUMPDEST SWAP1 POP DUP2 DUP2 SUB PUSH1 0x60 DUP4 ADD MSTORE PUSH2 0x26C7 DUP2 DUP8 PUSH2 0x2456 JUMP JUMPDEST SWAP1 POP DUP2 DUP2 SUB PUSH1 0x80 DUP4 ADD MSTORE PUSH2 0x26DB DUP2 DUP7 PUSH2 0x2456 JUMP JUMPDEST SWAP1 POP PUSH2 0x26EA PUSH1 0xA0 DUP4 ADD DUP6 PUSH2 0x17D3 JUMP JUMPDEST DUP2 DUP2 SUB PUSH1 0xC0 DUP4 ADD MSTORE PUSH2 0x26FC DUP2 DUP5 PUSH2 0x25C1 JUMP JUMPDEST SWAP1 POP SWAP9 SWAP8 POP POP POP POP POP POP POP POP JUMP JUMPDEST PUSH0 PUSH1 0x40 DUP3 ADD SWAP1 POP PUSH2 0x271D PUSH0 DUP4 ADD DUP6 PUSH2 0x19B0 JUMP JUMPDEST PUSH2 0x272A PUSH1 0x20 DUP4 ADD DUP5 PUSH2 0x16E8 JUMP JUMPDEST SWAP4 SWAP3 POP POP POP JUMP INVALID LOG2 PUSH5 0x6970667358 0x22 SLT KECCAK256 PUSH23 0x7FBF27469A277A6E57F2BA027E147700E46C1467FF619A PUSH25 0x88B611B1D83A0564736F6C634300081A003300000000000000 "
				},
				"gasEstimates": {
					"creation": {
						"codeDepositCost": "2017400",
						"executionCost": "infinite",
						"totalCost": "infinite"
					},
					"external": {
						"AUTHORIZED_ROLE()": "413",
						"DEFAULT_ADMIN_ROLE()": "419",
						"GenerateProduct(string,string,string,string[],string[],uint256,string,string,bool)": "infinite",
						"getRoleAdmin(bytes32)": "infinite",
						"grantAuthorization(address)": "infinite",
						"grantRole(bytes32,address)": "infinite",
						"hasRole(bytes32,address)": "3167",
						"initalizeShipment(uint256,string)": "infinite",
						"owner()": "2604",
						"products(uint256)": "infinite",
						"renounceOwnership()": "infinite",
						"renounceRole(bytes32,address)": "infinite",
						"revokeAuthorization(address)": "infinite",
						"revokeRole(bytes32,address)": "infinite",
						"supportsInterface(bytes4)": "741",
						"transferOwnership(address)": "infinite"
					}
				},
				"methodIdentifiers": {
					"AUTHORIZED_ROLE()": "f6468251",
					"DEFAULT_ADMIN_ROLE()": "a217fddf",
					"GenerateProduct(string,string,string,string[],string[],uint256,string,string,bool)": "9ed04f5d",
					"getRoleAdmin(bytes32)": "248a9ca3",
					"grantAuthorization(address)": "8f2fdb42",
					"grantRole(bytes32,address)": "2f2ff15d",
					"hasRole(bytes32,address)": "91d14854",
					"initalizeShipment(uint256,string)": "21120f9a",
					"owner()": "8da5cb5b",
					"products(uint256)": "7acc0b20",
					"renounceOwnership()": "715018a6",
					"renounceRole(bytes32,address)": "36568abe",
					"revokeAuthorization(address)": "b48028e3",
					"revokeRole(bytes32,address)": "d547741f",
					"supportsInterface(bytes4)": "01ffc9a7",
					"transferOwnership(address)": "f2fde38b"
				}
			},
			"storageLayout": {
				"storage": [
					{
						"astId": 387,
						"contract": "Product Tracker Smart Contract/ProductTracker.sol:ProductTracker",
						"label": "_owner",
						"offset": 0,
						"slot": "0",
						"type": "t_address"
					},
					{
						"astId": 26,
						"contract": "Product Tracker Smart Contract/ProductTracker.sol:ProductTracker",
						"label": "_roles",
						"offset": 0,
						"slot": "1",
						"type": "t_mapping(t_bytes32,t_struct(RoleData)21_storage)"
					},
					{
						"astId": 646,
						"contract": "Product Tracker Smart Contract/ProductTracker.sol:ProductTracker",
						"label": "products",
						"offset": 0,
						"slot": "2",
						"type": "t_mapping(t_uint256,t_struct(Product)628_storage)"
					}
				],
				"types": {
					"t_address": {
						"encoding": "inplace",
						"label": "address",
						"numberOfBytes": "20"
					},
					"t_array(t_string_storage)dyn_storage": {
						"base": "t_string_storage",
						"encoding": "dynamic_array",
						"label": "string[]",
						"numberOfBytes": "32"
					},
					"t_bool": {
						"encoding": "inplace",
						"label": "bool",
						"numberOfBytes": "1"
					},
					"t_bytes32": {
						"encoding": "inplace",
						"label": "bytes32",
						"numberOfBytes": "32"
					},
					"t_mapping(t_address,t_bool)": {
						"encoding": "mapping",
						"key": "t_address",
						"label": "mapping(address => bool)",
						"numberOfBytes": "32",
						"value": "t_bool"
					},
					"t_mapping(t_bytes32,t_struct(RoleData)21_storage)": {
						"encoding": "mapping",
						"key": "t_bytes32",
						"label": "mapping(bytes32 => struct AccessControl.RoleData)",
						"numberOfBytes": "32",
						"value": "t_struct(RoleData)21_storage"
					},
					"t_mapping(t_uint256,t_struct(Product)628_storage)": {
						"encoding": "mapping",
						"key": "t_uint256",
						"label": "mapping(uint256 => struct ProductTracker.Product)",
						"numberOfBytes": "32",
						"value": "t_struct(Product)628_storage"
					},
					"t_string_storage": {
						"encoding": "bytes",
						"label": "string",
						"numberOfBytes": "32"
					},
					"t_struct(Location)641_storage": {
						"encoding": "inplace",
						"label": "struct ProductTracker.Location",
						"members": [
							{
								"astId": 630,
								"contract": "Product Tracker Smart Contract/ProductTracker.sol:ProductTracker",
								"label": "name",
								"offset": 0,
								"slot": "0",
								"type": "t_string_storage"
							},
							{
								"astId": 632,
								"contract": "Product Tracker Smart Contract/ProductTracker.sol:ProductTracker",
								"label": "custodian",
								"offset": 0,
								"slot": "1",
								"type": "t_string_storage"
							},
							{
								"astId": 634,
								"contract": "Product Tracker Smart Contract/ProductTracker.sol:ProductTracker",
								"label": "departure",
								"offset": 0,
								"slot": "2",
								"type": "t_uint256"
							},
							{
								"astId": 636,
								"contract": "Product Tracker Smart Contract/ProductTracker.sol:ProductTracker",
								"label": "shipped",
								"offset": 0,
								"slot": "3",
								"type": "t_bool"
							},
							{
								"astId": 638,
								"contract": "Product Tracker Smart Contract/ProductTracker.sol:ProductTracker",
								"label": "arrived",
								"offset": 1,
								"slot": "3",
								"type": "t_bool"
							},
							{
								"astId": 640,
								"contract": "Product Tracker Smart Contract/ProductTracker.sol:ProductTracker",
								"label": "arrival",
								"offset": 0,
								"slot": "4",
								"type": "t_uint256"
							}
						],
						"numberOfBytes": "160"
					},
					"t_struct(Product)628_storage": {
						"encoding": "inplace",
						"label": "struct ProductTracker.Product",
						"members": [
							{
								"astId": 610,
								"contract": "Product Tracker Smart Contract/ProductTracker.sol:ProductTracker",
								"label": "productId",
								"offset": 0,
								"slot": "0",
								"type": "t_uint256"
							},
							{
								"astId": 612,
								"contract": "Product Tracker Smart Contract/ProductTracker.sol:ProductTracker",
								"label": "productType",
								"offset": 0,
								"slot": "1",
								"type": "t_string_storage"
							},
							{
								"astId": 614,
								"contract": "Product Tracker Smart Contract/ProductTracker.sol:ProductTracker",
								"label": "brandName",
								"offset": 0,
								"slot": "2",
								"type": "t_string_storage"
							},
							{
								"astId": 616,
								"contract": "Product Tracker Smart Contract/ProductTracker.sol:ProductTracker",
								"label": "productName",
								"offset": 0,
								"slot": "3",
								"type": "t_string_storage"
							},
							{
								"astId": 619,
								"contract": "Product Tracker Smart Contract/ProductTracker.sol:ProductTracker",
								"label": "Materials",
								"offset": 0,
								"slot": "4",
								"type": "t_array(t_string_storage)dyn_storage"
							},
							{
								"astId": 622,
								"contract": "Product Tracker Smart Contract/ProductTracker.sol:ProductTracker",
								"label": "Certificates",
								"offset": 0,
								"slot": "5",
								"type": "t_array(t_string_storage)dyn_storage"
							},
							{
								"astId": 624,
								"contract": "Product Tracker Smart Contract/ProductTracker.sol:ProductTracker",
								"label": "quantity",
								"offset": 0,
								"slot": "6",
								"type": "t_uint256"
							},
							{
								"astId": 627,
								"contract": "Product Tracker Smart Contract/ProductTracker.sol:ProductTracker",
								"label": "location",
								"offset": 0,
								"slot": "7",
								"type": "t_struct(Location)641_storage"
							}
						],
						"numberOfBytes": "384"
					},
					"t_struct(RoleData)21_storage": {
						"encoding": "inplace",
						"label": "struct AccessControl.RoleData",
						"members": [
							{
								"astId": 18,
								"contract": "Product Tracker Smart Contract/ProductTracker.sol:ProductTracker",
								"label": "hasRole",
								"offset": 0,
								"slot": "0",
								"type": "t_mapping(t_address,t_bool)"
							},
							{
								"astId": 20,
								"contract": "Product Tracker Smart Contract/ProductTracker.sol:ProductTracker",
								"label": "adminRole",
								"offset": 0,
								"slot": "1",
								"type": "t_bytes32"
							}
						],
						"numberOfBytes": "64"
					},
					"t_uint256": {
						"encoding": "inplace",
						"label": "uint256",
						"numberOfBytes": "32"
					}
				}
			},
			"userdoc": {
				"events": {
					"ProductGenerated(uint256,string,string,string,string[],string[],uint256,(string,string,uint256,bool,bool,uint256))": {
						"notice": "mapping for authorizedUsers is substituted by AccessControl.sol from openzeppelin"
					}
				},
				"kind": "user",
				"methods": {},
				"version": 1
			}
		}
	}
}