{
	"Product Tracker Smart Contract/ProductTracker.sol": {
		"ProductTracker": {
			"abi": [
				{
					"anonymous": false,
					"inputs": [
						{
							"indexed": false,
							"internalType": "string",
							"name": "location",
							"type": "string"
						},
						{
							"indexed": false,
							"internalType": "string",
							"name": "custodian",
							"type": "string"
						},
						{
							"indexed": false,
							"internalType": "uint256",
							"name": "time",
							"type": "uint256"
						},
						{
							"indexed": false,
							"internalType": "uint256",
							"name": "index",
							"type": "uint256"
						},
						{
							"indexed": false,
							"internalType": "bool",
							"name": "arrivalStatus",
							"type": "bool"
						}
					],
					"name": "Departed",
					"type": "event"
				},
				{
					"anonymous": false,
					"inputs": [
						{
							"indexed": true,
							"internalType": "uint256",
							"name": "productId",
							"type": "uint256"
						},
						{
							"indexed": false,
							"internalType": "string",
							"name": "productType",
							"type": "string"
						},
						{
							"indexed": false,
							"internalType": "string",
							"name": "brandName",
							"type": "string"
						},
						{
							"indexed": false,
							"internalType": "string",
							"name": "productName",
							"type": "string"
						},
						{
							"indexed": false,
							"internalType": "string[]",
							"name": "materials",
							"type": "string[]"
						},
						{
							"indexed": false,
							"internalType": "string[]",
							"name": "certificates",
							"type": "string[]"
						},
						{
							"indexed": false,
							"internalType": "uint256",
							"name": "quantity",
							"type": "uint256"
						}
					],
					"name": "ProductGenerated",
					"type": "event"
				},
				{
					"inputs": [
						{
							"internalType": "string",
							"name": "_productType",
							"type": "string"
						},
						{
							"internalType": "string",
							"name": "_productName",
							"type": "string"
						},
						{
							"internalType": "string",
							"name": "_brandName",
							"type": "string"
						},
						{
							"internalType": "string[]",
							"name": "_materials",
							"type": "string[]"
						},
						{
							"internalType": "string[]",
							"name": "_certificates",
							"type": "string[]"
						},
						{
							"internalType": "uint256",
							"name": "_quantity",
							"type": "uint256"
						},
						{
							"internalType": "string",
							"name": "_locationName",
							"type": "string"
						},
						{
							"internalType": "string",
							"name": "_custodian",
							"type": "string"
						},
						{
							"internalType": "bool",
							"name": "_shipped",
							"type": "bool"
						}
					],
					"name": "GenerateProduct",
					"outputs": [],
					"stateMutability": "nonpayable",
					"type": "function"
				},
				{
					"inputs": [
						{
							"internalType": "uint256",
							"name": "_productId",
							"type": "uint256"
						},
						{
							"internalType": "string",
							"name": "_locationName",
							"type": "string"
						}
					],
					"name": "initalizeShipment",
					"outputs": [],
					"stateMutability": "nonpayable",
					"type": "function"
				},
				{
					"inputs": [
						{
							"internalType": "uint256",
							"name": "",
							"type": "uint256"
						}
					],
					"name": "products",
					"outputs": [
						{
							"internalType": "uint256",
							"name": "productId",
							"type": "uint256"
						},
						{
							"internalType": "string",
							"name": "productType",
							"type": "string"
						},
						{
							"internalType": "string",
							"name": "brandName",
							"type": "string"
						},
						{
							"internalType": "string",
							"name": "productName",
							"type": "string"
						},
						{
							"internalType": "uint256",
							"name": "quantity",
							"type": "uint256"
						},
						{
							"components": [
								{
									"internalType": "string",
									"name": "name",
									"type": "string"
								},
								{
									"internalType": "string",
									"name": "custodian",
									"type": "string"
								},
								{
									"internalType": "uint256",
									"name": "departure",
									"type": "uint256"
								},
								{
									"internalType": "bool",
									"name": "shipped",
									"type": "bool"
								},
								{
									"internalType": "bool",
									"name": "arrived",
									"type": "bool"
								},
								{
									"internalType": "uint256",
									"name": "arrival",
									"type": "uint256"
								}
							],
							"internalType": "struct ProductTracker.Location",
							"name": "location",
							"type": "tuple"
						}
					],
					"stateMutability": "view",
					"type": "function"
				}
			],
			"devdoc": {
				"kind": "dev",
				"methods": {},
				"version": 1
			},
			"evm": {
				"assembly": "    /* \"Product Tracker Smart Contract/ProductTracker.sol\":57:3611  contract ProductTracker {... */\n  mstore(0x40, 0x80)\n  callvalue\n  dup1\n  iszero\n  tag_1\n  jumpi\n  0x00\n  dup1\n  revert\ntag_1:\n  pop\n  dataSize(sub_0)\n  dup1\n  dataOffset(sub_0)\n  0x00\n  codecopy\n  0x00\n  return\nstop\n\nsub_0: assembly {\n        /* \"Product Tracker Smart Contract/ProductTracker.sol\":57:3611  contract ProductTracker {... */\n      mstore(0x40, 0x80)\n      callvalue\n      dup1\n      iszero\n      tag_1\n      jumpi\n      0x00\n      dup1\n      revert\n    tag_1:\n      pop\n      jumpi(tag_2, lt(calldatasize, 0x04))\n      shr(0xe0, calldataload(0x00))\n      dup1\n      0x21120f9a\n      eq\n      tag_3\n      jumpi\n      dup1\n      0x7acc0b20\n      eq\n      tag_4\n      jumpi\n      dup1\n      0x9ed04f5d\n      eq\n      tag_5\n      jumpi\n    tag_2:\n      0x00\n      dup1\n      revert\n        /* \"Product Tracker Smart Contract/ProductTracker.sol\":3052:3609  function initalizeShipment(uint256 _productId, string memory _locationName)... */\n    tag_3:\n      tag_6\n      0x04\n      dup1\n      calldatasize\n      sub\n      dup2\n      add\n      swap1\n      tag_7\n      swap2\n      swap1\n      tag_8\n      jump\t// in\n    tag_7:\n      tag_9\n      jump\t// in\n    tag_6:\n      stop\n        /* \"Product Tracker Smart Contract/ProductTracker.sol\":530:573  mapping(uint256 => Product) public products */\n    tag_4:\n      tag_10\n      0x04\n      dup1\n      calldatasize\n      sub\n      dup2\n      add\n      swap1\n      tag_11\n      swap2\n      swap1\n      tag_12\n      jump\t// in\n    tag_11:\n      tag_13\n      jump\t// in\n    tag_10:\n      mload(0x40)\n      tag_14\n      swap7\n      swap6\n      swap5\n      swap4\n      swap3\n      swap2\n      swap1\n      tag_15\n      jump\t// in\n    tag_14:\n      mload(0x40)\n      dup1\n      swap2\n      sub\n      swap1\n      return\n        /* \"Product Tracker Smart Contract/ProductTracker.sol\":1416:3046  function GenerateProduct(... */\n    tag_5:\n      tag_16\n      0x04\n      dup1\n      calldatasize\n      sub\n      dup2\n      add\n      swap1\n      tag_17\n      swap2\n      swap1\n      tag_18\n      jump\t// in\n    tag_17:\n      tag_19\n      jump\t// in\n    tag_16:\n      stop\n        /* \"Product Tracker Smart Contract/ProductTracker.sol\":3052:3609  function initalizeShipment(uint256 _productId, string memory _locationName)... */\n    tag_9:\n        /* \"Product Tracker Smart Contract/ProductTracker.sol\":3166:3176  _productId */\n      dup2\n        /* \"Product Tracker Smart Contract/ProductTracker.sol\":1126:1136  _productId */\n      dup1\n        /* \"Product Tracker Smart Contract/ProductTracker.sol\":1092:1100  products */\n      0x00\n        /* \"Product Tracker Smart Contract/ProductTracker.sol\":1092:1112  products[_productId] */\n      dup1\n        /* \"Product Tracker Smart Contract/ProductTracker.sol\":1101:1111  _productId */\n      dup4\n        /* \"Product Tracker Smart Contract/ProductTracker.sol\":1092:1112  products[_productId] */\n      dup2\n      mstore\n      0x20\n      add\n      swap1\n      dup2\n      mstore\n      0x20\n      add\n      0x00\n      keccak256\n        /* \"Product Tracker Smart Contract/ProductTracker.sol\":1092:1122  products[_productId].productId */\n      0x00\n      add\n      sload\n        /* \"Product Tracker Smart Contract/ProductTracker.sol\":1092:1136  products[_productId].productId != _productId */\n      sub\n        /* \"Product Tracker Smart Contract/ProductTracker.sol\":1071:1184  require(... */\n      tag_21\n      jumpi\n      mload(0x40)\n      0x08c379a000000000000000000000000000000000000000000000000000000000\n      dup2\n      mstore\n      0x04\n      add\n      tag_22\n      swap1\n      tag_23\n      jump\t// in\n    tag_22:\n      mload(0x40)\n      dup1\n      swap2\n      sub\n      swap1\n      revert\n    tag_21:\n        /* \"Product Tracker Smart Contract/ProductTracker.sol\":1235:1236  0 */\n      0x00\n        /* \"Product Tracker Smart Contract/ProductTracker.sol\":1202:1210  products */\n      dup1\n        /* \"Product Tracker Smart Contract/ProductTracker.sol\":1202:1222  products[_productId] */\n      0x00\n        /* \"Product Tracker Smart Contract/ProductTracker.sol\":1211:1221  _productId */\n      dup4\n        /* \"Product Tracker Smart Contract/ProductTracker.sol\":1202:1222  products[_productId] */\n      dup2\n      mstore\n      0x20\n      add\n      swap1\n      dup2\n      mstore\n      0x20\n      add\n      0x00\n      keccak256\n        /* \"Product Tracker Smart Contract/ProductTracker.sol\":1202:1231  products[_productId].quantity */\n      0x06\n      add\n      sload\n        /* \"Product Tracker Smart Contract/ProductTracker.sol\":1202:1236  products[_productId].quantity != 0 */\n      sub\n        /* \"Product Tracker Smart Contract/ProductTracker.sol\":1194:1264  require(products[_productId].quantity != 0, \"Product is out of stock\") */\n      tag_24\n      jumpi\n      mload(0x40)\n      0x08c379a000000000000000000000000000000000000000000000000000000000\n      dup2\n      mstore\n      0x04\n      add\n      tag_25\n      swap1\n      tag_26\n      jump\t// in\n    tag_25:\n      mload(0x40)\n      dup1\n      swap2\n      sub\n      swap1\n      revert\n    tag_24:\n        /* \"Product Tracker Smart Contract/ProductTracker.sol\":1336:1340  true */\n      0x01\n        /* \"Product Tracker Smart Contract/ProductTracker.sol\":1295:1340  products[_productId].location.shipped == true */\n      iszero\n      iszero\n        /* \"Product Tracker Smart Contract/ProductTracker.sol\":1295:1303  products */\n      0x00\n        /* \"Product Tracker Smart Contract/ProductTracker.sol\":1295:1315  products[_productId] */\n      dup1\n        /* \"Product Tracker Smart Contract/ProductTracker.sol\":1304:1314  _productId */\n      dup4\n        /* \"Product Tracker Smart Contract/ProductTracker.sol\":1295:1315  products[_productId] */\n      dup2\n      mstore\n      0x20\n      add\n      swap1\n      dup2\n      mstore\n      0x20\n      add\n      0x00\n      keccak256\n        /* \"Product Tracker Smart Contract/ProductTracker.sol\":1295:1324  products[_productId].location */\n      0x07\n      add\n        /* \"Product Tracker Smart Contract/ProductTracker.sol\":1295:1332  products[_productId].location.shipped */\n      0x03\n      add\n      0x00\n      swap1\n      sload\n      swap1\n      0x0100\n      exp\n      swap1\n      div\n      0xff\n      and\n        /* \"Product Tracker Smart Contract/ProductTracker.sol\":1295:1340  products[_productId].location.shipped == true */\n      iszero\n      iszero\n      eq\n        /* \"Product Tracker Smart Contract/ProductTracker.sol\":1274:1390  require(... */\n      tag_27\n      jumpi\n      mload(0x40)\n      0x08c379a000000000000000000000000000000000000000000000000000000000\n      dup2\n      mstore\n      0x04\n      add\n      tag_28\n      swap1\n      tag_29\n      jump\t// in\n    tag_28:\n      mload(0x40)\n      dup1\n      swap2\n      sub\n      swap1\n      revert\n    tag_27:\n        /* \"Product Tracker Smart Contract/ProductTracker.sol\":3229:3242  _locationName */\n      dup2\n        /* \"Product Tracker Smart Contract/ProductTracker.sol\":3192:3200  products */\n      0x00\n        /* \"Product Tracker Smart Contract/ProductTracker.sol\":3192:3212  products[_productId] */\n      dup1\n        /* \"Product Tracker Smart Contract/ProductTracker.sol\":3201:3211  _productId */\n      dup6\n        /* \"Product Tracker Smart Contract/ProductTracker.sol\":3192:3212  products[_productId] */\n      dup2\n      mstore\n      0x20\n      add\n      swap1\n      dup2\n      mstore\n      0x20\n      add\n      0x00\n      keccak256\n        /* \"Product Tracker Smart Contract/ProductTracker.sol\":3192:3221  products[_productId].location */\n      0x07\n      add\n        /* \"Product Tracker Smart Contract/ProductTracker.sol\":3192:3226  products[_productId].location.name */\n      0x00\n      add\n        /* \"Product Tracker Smart Contract/ProductTracker.sol\":3192:3242  products[_productId].location.name = _locationName */\n      swap1\n      dup2\n      tag_31\n      swap2\n      swap1\n      tag_32\n      jump\t// in\n    tag_31:\n      pop\n        /* \"Product Tracker Smart Contract/ProductTracker.sol\":3294:3309  block.timestamp */\n      timestamp\n        /* \"Product Tracker Smart Contract/ProductTracker.sol\":3252:3260  products */\n      0x00\n        /* \"Product Tracker Smart Contract/ProductTracker.sol\":3252:3272  products[_productId] */\n      dup1\n        /* \"Product Tracker Smart Contract/ProductTracker.sol\":3261:3271  _productId */\n      dup6\n        /* \"Product Tracker Smart Contract/ProductTracker.sol\":3252:3272  products[_productId] */\n      dup2\n      mstore\n      0x20\n      add\n      swap1\n      dup2\n      mstore\n      0x20\n      add\n      0x00\n      keccak256\n        /* \"Product Tracker Smart Contract/ProductTracker.sol\":3252:3281  products[_productId].location */\n      0x07\n      add\n        /* \"Product Tracker Smart Contract/ProductTracker.sol\":3252:3291  products[_productId].location.departure */\n      0x02\n      add\n        /* \"Product Tracker Smart Contract/ProductTracker.sol\":3252:3309  products[_productId].location.departure = block.timestamp */\n      dup2\n      swap1\n      sstore\n      pop\n        /* \"Product Tracker Smart Contract/ProductTracker.sol\":3359:3363  true */\n      0x01\n        /* \"Product Tracker Smart Contract/ProductTracker.sol\":3319:3327  products */\n      0x00\n        /* \"Product Tracker Smart Contract/ProductTracker.sol\":3319:3339  products[_productId] */\n      dup1\n        /* \"Product Tracker Smart Contract/ProductTracker.sol\":3328:3338  _productId */\n      dup6\n        /* \"Product Tracker Smart Contract/ProductTracker.sol\":3319:3339  products[_productId] */\n      dup2\n      mstore\n      0x20\n      add\n      swap1\n      dup2\n      mstore\n      0x20\n      add\n      0x00\n      keccak256\n        /* \"Product Tracker Smart Contract/ProductTracker.sol\":3319:3348  products[_productId].location */\n      0x07\n      add\n        /* \"Product Tracker Smart Contract/ProductTracker.sol\":3319:3356  products[_productId].location.shipped */\n      0x03\n      add\n      0x00\n        /* \"Product Tracker Smart Contract/ProductTracker.sol\":3319:3363  products[_productId].location.shipped = true */\n      0x0100\n      exp\n      dup2\n      sload\n      dup2\n      0xff\n      mul\n      not\n      and\n      swap1\n      dup4\n      iszero\n      iszero\n      mul\n      or\n      swap1\n      sstore\n      pop\n        /* \"Product Tracker Smart Contract/ProductTracker.sol\":3379:3602  Departed(... */\n      0xf295c689d401ce1625e9bd2adba7641f92cc231677989c7fe706354cb643e798\n        /* \"Product Tracker Smart Contract/ProductTracker.sol\":3401:3409  products */\n      0x00\n        /* \"Product Tracker Smart Contract/ProductTracker.sol\":3401:3421  products[_productId] */\n      dup1\n        /* \"Product Tracker Smart Contract/ProductTracker.sol\":3410:3420  _productId */\n      dup6\n        /* \"Product Tracker Smart Contract/ProductTracker.sol\":3401:3421  products[_productId] */\n      dup2\n      mstore\n      0x20\n      add\n      swap1\n      dup2\n      mstore\n      0x20\n      add\n      0x00\n      keccak256\n        /* \"Product Tracker Smart Contract/ProductTracker.sol\":3401:3430  products[_productId].location */\n      0x07\n      add\n        /* \"Product Tracker Smart Contract/ProductTracker.sol\":3401:3435  products[_productId].location.name */\n      0x00\n      add\n        /* \"Product Tracker Smart Contract/ProductTracker.sol\":3449:3457  products */\n      0x00\n        /* \"Product Tracker Smart Contract/ProductTracker.sol\":3449:3469  products[_productId] */\n      dup1\n        /* \"Product Tracker Smart Contract/ProductTracker.sol\":3458:3468  _productId */\n      dup7\n        /* \"Product Tracker Smart Contract/ProductTracker.sol\":3449:3469  products[_productId] */\n      dup2\n      mstore\n      0x20\n      add\n      swap1\n      dup2\n      mstore\n      0x20\n      add\n      0x00\n      keccak256\n        /* \"Product Tracker Smart Contract/ProductTracker.sol\":3449:3478  products[_productId].location */\n      0x07\n      add\n        /* \"Product Tracker Smart Contract/ProductTracker.sol\":3449:3488  products[_productId].location.custodian */\n      0x01\n      add\n        /* \"Product Tracker Smart Contract/ProductTracker.sol\":3502:3517  block.timestamp */\n      timestamp\n        /* \"Product Tracker Smart Contract/ProductTracker.sol\":3531:3541  _productId */\n      dup7\n        /* \"Product Tracker Smart Contract/ProductTracker.sol\":3555:3563  products */\n      0x00\n        /* \"Product Tracker Smart Contract/ProductTracker.sol\":3555:3575  products[_productId] */\n      dup1\n        /* \"Product Tracker Smart Contract/ProductTracker.sol\":3564:3574  _productId */\n      dup10\n        /* \"Product Tracker Smart Contract/ProductTracker.sol\":3555:3575  products[_productId] */\n      dup2\n      mstore\n      0x20\n      add\n      swap1\n      dup2\n      mstore\n      0x20\n      add\n      0x00\n      keccak256\n        /* \"Product Tracker Smart Contract/ProductTracker.sol\":3555:3584  products[_productId].location */\n      0x07\n      add\n        /* \"Product Tracker Smart Contract/ProductTracker.sol\":3555:3592  products[_productId].location.arrived */\n      0x03\n      add\n      0x01\n      swap1\n      sload\n      swap1\n      0x0100\n      exp\n      swap1\n      div\n      0xff\n      and\n        /* \"Product Tracker Smart Contract/ProductTracker.sol\":3379:3602  Departed(... */\n      mload(0x40)\n      tag_33\n      swap6\n      swap5\n      swap4\n      swap3\n      swap2\n      swap1\n      tag_34\n      jump\t// in\n    tag_33:\n      mload(0x40)\n      dup1\n      swap2\n      sub\n      swap1\n      log1\n        /* \"Product Tracker Smart Contract/ProductTracker.sol\":3052:3609  function initalizeShipment(uint256 _productId, string memory _locationName)... */\n      pop\n      pop\n      pop\n      jump\t// out\n        /* \"Product Tracker Smart Contract/ProductTracker.sol\":530:573  mapping(uint256 => Product) public products */\n    tag_13:\n      mstore(0x20, 0x00)\n      dup1\n      0x00\n      mstore\n      keccak256(0x00, 0x40)\n      0x00\n      swap2\n      pop\n      swap1\n      pop\n      dup1\n      0x00\n      add\n      sload\n      swap1\n      dup1\n      0x01\n      add\n      dup1\n      sload\n      tag_35\n      swap1\n      tag_36\n      jump\t// in\n    tag_35:\n      dup1\n      0x1f\n      add\n      0x20\n      dup1\n      swap2\n      div\n      mul\n      0x20\n      add\n      mload(0x40)\n      swap1\n      dup2\n      add\n      0x40\n      mstore\n      dup1\n      swap3\n      swap2\n      swap1\n      dup2\n      dup2\n      mstore\n      0x20\n      add\n      dup3\n      dup1\n      sload\n      tag_37\n      swap1\n      tag_36\n      jump\t// in\n    tag_37:\n      dup1\n      iszero\n      tag_38\n      jumpi\n      dup1\n      0x1f\n      lt\n      tag_39\n      jumpi\n      0x0100\n      dup1\n      dup4\n      sload\n      div\n      mul\n      dup4\n      mstore\n      swap2\n      0x20\n      add\n      swap2\n      jump(tag_38)\n    tag_39:\n      dup3\n      add\n      swap2\n      swap1\n      0x00\n      mstore\n      keccak256(0x00, 0x20)\n      swap1\n    tag_40:\n      dup2\n      sload\n      dup2\n      mstore\n      swap1\n      0x01\n      add\n      swap1\n      0x20\n      add\n      dup1\n      dup4\n      gt\n      tag_40\n      jumpi\n      dup3\n      swap1\n      sub\n      0x1f\n      and\n      dup3\n      add\n      swap2\n    tag_38:\n      pop\n      pop\n      pop\n      pop\n      pop\n      swap1\n      dup1\n      0x02\n      add\n      dup1\n      sload\n      tag_41\n      swap1\n      tag_36\n      jump\t// in\n    tag_41:\n      dup1\n      0x1f\n      add\n      0x20\n      dup1\n      swap2\n      div\n      mul\n      0x20\n      add\n      mload(0x40)\n      swap1\n      dup2\n      add\n      0x40\n      mstore\n      dup1\n      swap3\n      swap2\n      swap1\n      dup2\n      dup2\n      mstore\n      0x20\n      add\n      dup3\n      dup1\n      sload\n      tag_42\n      swap1\n      tag_36\n      jump\t// in\n    tag_42:\n      dup1\n      iszero\n      tag_43\n      jumpi\n      dup1\n      0x1f\n      lt\n      tag_44\n      jumpi\n      0x0100\n      dup1\n      dup4\n      sload\n      div\n      mul\n      dup4\n      mstore\n      swap2\n      0x20\n      add\n      swap2\n      jump(tag_43)\n    tag_44:\n      dup3\n      add\n      swap2\n      swap1\n      0x00\n      mstore\n      keccak256(0x00, 0x20)\n      swap1\n    tag_45:\n      dup2\n      sload\n      dup2\n      mstore\n      swap1\n      0x01\n      add\n      swap1\n      0x20\n      add\n      dup1\n      dup4\n      gt\n      tag_45\n      jumpi\n      dup3\n      swap1\n      sub\n      0x1f\n      and\n      dup3\n      add\n      swap2\n    tag_43:\n      pop\n      pop\n      pop\n      pop\n      pop\n      swap1\n      dup1\n      0x03\n      add\n      dup1\n      sload\n      tag_46\n      swap1\n      tag_36\n      jump\t// in\n    tag_46:\n      dup1\n      0x1f\n      add\n      0x20\n      dup1\n      swap2\n      div\n      mul\n      0x20\n      add\n      mload(0x40)\n      swap1\n      dup2\n      add\n      0x40\n      mstore\n      dup1\n      swap3\n      swap2\n      swap1\n      dup2\n      dup2\n      mstore\n      0x20\n      add\n      dup3\n      dup1\n      sload\n      tag_47\n      swap1\n      tag_36\n      jump\t// in\n    tag_47:\n      dup1\n      iszero\n      tag_48\n      jumpi\n      dup1\n      0x1f\n      lt\n      tag_49\n      jumpi\n      0x0100\n      dup1\n      dup4\n      sload\n      div\n      mul\n      dup4\n      mstore\n      swap2\n      0x20\n      add\n      swap2\n      jump(tag_48)\n    tag_49:\n      dup3\n      add\n      swap2\n      swap1\n      0x00\n      mstore\n      keccak256(0x00, 0x20)\n      swap1\n    tag_50:\n      dup2\n      sload\n      dup2\n      mstore\n      swap1\n      0x01\n      add\n      swap1\n      0x20\n      add\n      dup1\n      dup4\n      gt\n      tag_50\n      jumpi\n      dup3\n      swap1\n      sub\n      0x1f\n      and\n      dup3\n      add\n      swap2\n    tag_48:\n      pop\n      pop\n      pop\n      pop\n      pop\n      swap1\n      dup1\n      0x06\n      add\n      sload\n      swap1\n      dup1\n      0x07\n      add\n      mload(0x40)\n      dup1\n      0xc0\n      add\n      0x40\n      mstore\n      swap1\n      dup2\n      0x00\n      dup3\n      add\n      dup1\n      sload\n      tag_51\n      swap1\n      tag_36\n      jump\t// in\n    tag_51:\n      dup1\n      0x1f\n      add\n      0x20\n      dup1\n      swap2\n      div\n      mul\n      0x20\n      add\n      mload(0x40)\n      swap1\n      dup2\n      add\n      0x40\n      mstore\n      dup1\n      swap3\n      swap2\n      swap1\n      dup2\n      dup2\n      mstore\n      0x20\n      add\n      dup3\n      dup1\n      sload\n      tag_52\n      swap1\n      tag_36\n      jump\t// in\n    tag_52:\n      dup1\n      iszero\n      tag_53\n      jumpi\n      dup1\n      0x1f\n      lt\n      tag_54\n      jumpi\n      0x0100\n      dup1\n      dup4\n      sload\n      div\n      mul\n      dup4\n      mstore\n      swap2\n      0x20\n      add\n      swap2\n      jump(tag_53)\n    tag_54:\n      dup3\n      add\n      swap2\n      swap1\n      0x00\n      mstore\n      keccak256(0x00, 0x20)\n      swap1\n    tag_55:\n      dup2\n      sload\n      dup2\n      mstore\n      swap1\n      0x01\n      add\n      swap1\n      0x20\n      add\n      dup1\n      dup4\n      gt\n      tag_55\n      jumpi\n      dup3\n      swap1\n      sub\n      0x1f\n      and\n      dup3\n      add\n      swap2\n    tag_53:\n      pop\n      pop\n      pop\n      pop\n      pop\n      dup2\n      mstore\n      0x20\n      add\n      0x01\n      dup3\n      add\n      dup1\n      sload\n      tag_56\n      swap1\n      tag_36\n      jump\t// in\n    tag_56:\n      dup1\n      0x1f\n      add\n      0x20\n      dup1\n      swap2\n      div\n      mul\n      0x20\n      add\n      mload(0x40)\n      swap1\n      dup2\n      add\n      0x40\n      mstore\n      dup1\n      swap3\n      swap2\n      swap1\n      dup2\n      dup2\n      mstore\n      0x20\n      add\n      dup3\n      dup1\n      sload\n      tag_57\n      swap1\n      tag_36\n      jump\t// in\n    tag_57:\n      dup1\n      iszero\n      tag_58\n      jumpi\n      dup1\n      0x1f\n      lt\n      tag_59\n      jumpi\n      0x0100\n      dup1\n      dup4\n      sload\n      div\n      mul\n      dup4\n      mstore\n      swap2\n      0x20\n      add\n      swap2\n      jump(tag_58)\n    tag_59:\n      dup3\n      add\n      swap2\n      swap1\n      0x00\n      mstore\n      keccak256(0x00, 0x20)\n      swap1\n    tag_60:\n      dup2\n      sload\n      dup2\n      mstore\n      swap1\n      0x01\n      add\n      swap1\n      0x20\n      add\n      dup1\n      dup4\n      gt\n      tag_60\n      jumpi\n      dup3\n      swap1\n      sub\n      0x1f\n      and\n      dup3\n      add\n      swap2\n    tag_58:\n      pop\n      pop\n      pop\n      pop\n      pop\n      dup2\n      mstore\n      0x20\n      add\n      0x02\n      dup3\n      add\n      sload\n      dup2\n      mstore\n      0x20\n      add\n      0x03\n      dup3\n      add\n      0x00\n      swap1\n      sload\n      swap1\n      0x0100\n      exp\n      swap1\n      div\n      0xff\n      and\n      iszero\n      iszero\n      iszero\n      iszero\n      dup2\n      mstore\n      0x20\n      add\n      0x03\n      dup3\n      add\n      0x01\n      swap1\n      sload\n      swap1\n      0x0100\n      exp\n      swap1\n      div\n      0xff\n      and\n      iszero\n      iszero\n      iszero\n      iszero\n      dup2\n      mstore\n      0x20\n      add\n      0x04\n      dup3\n      add\n      sload\n      dup2\n      mstore\n      pop\n      pop\n      swap1\n      pop\n      dup7\n      jump\t// out\n        /* \"Product Tracker Smart Contract/ProductTracker.sol\":1416:3046  function GenerateProduct(... */\n    tag_19:\n        /* \"Product Tracker Smart Contract/ProductTracker.sol\":1896:1897  0 */\n      0x00\n        /* \"Product Tracker Smart Contract/ProductTracker.sol\":1873:1885  _productType */\n      dup10\n        /* \"Product Tracker Smart Contract/ProductTracker.sol\":1867:1893  bytes(_productType).length */\n      mload\n        /* \"Product Tracker Smart Contract/ProductTracker.sol\":1867:1897  bytes(_productType).length > 0 */\n      gt\n        /* \"Product Tracker Smart Contract/ProductTracker.sol\":1859:1932  require(bytes(_productType).length > 0, \"Empty product type not allowed\") */\n      tag_62\n      jumpi\n      mload(0x40)\n      0x08c379a000000000000000000000000000000000000000000000000000000000\n      dup2\n      mstore\n      0x04\n      add\n      tag_63\n      swap1\n      tag_64\n      jump\t// in\n    tag_63:\n      mload(0x40)\n      dup1\n      swap2\n      sub\n      swap1\n      revert\n    tag_62:\n        /* \"Product Tracker Smart Contract/ProductTracker.sol\":1979:1980  0 */\n      0x00\n        /* \"Product Tracker Smart Contract/ProductTracker.sol\":1956:1968  _productName */\n      dup9\n        /* \"Product Tracker Smart Contract/ProductTracker.sol\":1950:1976  bytes(_productName).length */\n      mload\n        /* \"Product Tracker Smart Contract/ProductTracker.sol\":1950:1980  bytes(_productName).length > 0 */\n      gt\n        /* \"Product Tracker Smart Contract/ProductTracker.sol\":1942:2015  require(bytes(_productName).length > 0, \"Empty product name not allowed\") */\n      tag_65\n      jumpi\n      mload(0x40)\n      0x08c379a000000000000000000000000000000000000000000000000000000000\n      dup2\n      mstore\n      0x04\n      add\n      tag_66\n      swap1\n      tag_67\n      jump\t// in\n    tag_66:\n      mload(0x40)\n      dup1\n      swap2\n      sub\n      swap1\n      revert\n    tag_65:\n        /* \"Product Tracker Smart Contract/ProductTracker.sol\":2060:2061  0 */\n      0x00\n        /* \"Product Tracker Smart Contract/ProductTracker.sol\":2039:2049  _brandName */\n      dup8\n        /* \"Product Tracker Smart Contract/ProductTracker.sol\":2033:2057  bytes(_brandName).length */\n      mload\n        /* \"Product Tracker Smart Contract/ProductTracker.sol\":2033:2061  bytes(_brandName).length > 0 */\n      gt\n        /* \"Product Tracker Smart Contract/ProductTracker.sol\":2025:2094  require(bytes(_brandName).length > 0, \"Empty brand name not allowed\") */\n      tag_68\n      jumpi\n      mload(0x40)\n      0x08c379a000000000000000000000000000000000000000000000000000000000\n      dup2\n      mstore\n      0x04\n      add\n      tag_69\n      swap1\n      tag_70\n      jump\t// in\n    tag_69:\n      mload(0x40)\n      dup1\n      swap2\n      sub\n      swap1\n      revert\n    tag_68:\n        /* \"Product Tracker Smart Contract/ProductTracker.sol\":2124:2125  0 */\n      0x00\n        /* \"Product Tracker Smart Contract/ProductTracker.sol\":2112:2121  _quantity */\n      dup5\n        /* \"Product Tracker Smart Contract/ProductTracker.sol\":2112:2125  _quantity > 0 */\n      gt\n        /* \"Product Tracker Smart Contract/ProductTracker.sol\":2104:2164  require(_quantity > 0, \"Quantity must be greater than zero\") */\n      tag_71\n      jumpi\n      mload(0x40)\n      0x08c379a000000000000000000000000000000000000000000000000000000000\n      dup2\n      mstore\n      0x04\n      add\n      tag_72\n      swap1\n      tag_73\n      jump\t// in\n    tag_72:\n      mload(0x40)\n      dup1\n      swap2\n      sub\n      swap1\n      revert\n    tag_71:\n        /* \"Product Tracker Smart Contract/ProductTracker.sol\":2175:2193  uint256 _productId */\n      0x00\n        /* \"Product Tracker Smart Contract/ProductTracker.sol\":2196:2211  block.timestamp */\n      timestamp\n        /* \"Product Tracker Smart Contract/ProductTracker.sol\":2175:2211  uint256 _productId = block.timestamp */\n      swap1\n      pop\n        /* \"Product Tracker Smart Contract/ProductTracker.sol\":2263:2264  0 */\n      0x00\n        /* \"Product Tracker Smart Contract/ProductTracker.sol\":2229:2237  products */\n      dup1\n        /* \"Product Tracker Smart Contract/ProductTracker.sol\":2229:2249  products[_productId] */\n      0x00\n        /* \"Product Tracker Smart Contract/ProductTracker.sol\":2238:2248  _productId */\n      dup4\n        /* \"Product Tracker Smart Contract/ProductTracker.sol\":2229:2249  products[_productId] */\n      dup2\n      mstore\n      0x20\n      add\n      swap1\n      dup2\n      mstore\n      0x20\n      add\n      0x00\n      keccak256\n        /* \"Product Tracker Smart Contract/ProductTracker.sol\":2229:2259  products[_productId].productId */\n      0x00\n      add\n      sload\n        /* \"Product Tracker Smart Contract/ProductTracker.sol\":2229:2264  products[_productId].productId == 0 */\n      eq\n        /* \"Product Tracker Smart Contract/ProductTracker.sol\":2221:2291  require(products[_productId].productId == 0, \"Product already exists\") */\n      tag_74\n      jumpi\n      mload(0x40)\n      0x08c379a000000000000000000000000000000000000000000000000000000000\n      dup2\n      mstore\n      0x04\n      add\n      tag_75\n      swap1\n      tag_76\n      jump\t// in\n    tag_75:\n      mload(0x40)\n      dup1\n      swap2\n      sub\n      swap1\n      revert\n    tag_74:\n        /* \"Product Tracker Smart Contract/ProductTracker.sol\":2325:2823  Product(... */\n      mload(0x40)\n      dup1\n      0x0100\n      add\n      0x40\n      mstore\n      dup1\n        /* \"Product Tracker Smart Contract/ProductTracker.sol\":2346:2356  _productId */\n      dup3\n        /* \"Product Tracker Smart Contract/ProductTracker.sol\":2325:2823  Product(... */\n      dup2\n      mstore\n      0x20\n      add\n        /* \"Product Tracker Smart Contract/ProductTracker.sol\":2370:2382  _productType */\n      dup12\n        /* \"Product Tracker Smart Contract/ProductTracker.sol\":2325:2823  Product(... */\n      dup2\n      mstore\n      0x20\n      add\n        /* \"Product Tracker Smart Contract/ProductTracker.sol\":2396:2406  _brandName */\n      dup10\n        /* \"Product Tracker Smart Contract/ProductTracker.sol\":2325:2823  Product(... */\n      dup2\n      mstore\n      0x20\n      add\n        /* \"Product Tracker Smart Contract/ProductTracker.sol\":2420:2432  _productName */\n      dup11\n        /* \"Product Tracker Smart Contract/ProductTracker.sol\":2325:2823  Product(... */\n      dup2\n      mstore\n      0x20\n      add\n        /* \"Product Tracker Smart Contract/ProductTracker.sol\":2446:2456  _materials */\n      dup9\n        /* \"Product Tracker Smart Contract/ProductTracker.sol\":2325:2823  Product(... */\n      dup2\n      mstore\n      0x20\n      add\n        /* \"Product Tracker Smart Contract/ProductTracker.sol\":2470:2483  _certificates */\n      dup8\n        /* \"Product Tracker Smart Contract/ProductTracker.sol\":2325:2823  Product(... */\n      dup2\n      mstore\n      0x20\n      add\n        /* \"Product Tracker Smart Contract/ProductTracker.sol\":2497:2506  _quantity */\n      dup7\n        /* \"Product Tracker Smart Contract/ProductTracker.sol\":2325:2823  Product(... */\n      dup2\n      mstore\n      0x20\n      add\n        /* \"Product Tracker Smart Contract/ProductTracker.sol\":2520:2813  Location({... */\n      mload(0x40)\n      dup1\n      0xc0\n      add\n      0x40\n      mstore\n      dup1\n        /* \"Product Tracker Smart Contract/ProductTracker.sol\":2553:2566  _locationName */\n      dup8\n        /* \"Product Tracker Smart Contract/ProductTracker.sol\":2520:2813  Location({... */\n      dup2\n      mstore\n      0x20\n      add\n        /* \"Product Tracker Smart Contract/ProductTracker.sol\":2595:2605  _custodian */\n      dup7\n        /* \"Product Tracker Smart Contract/ProductTracker.sol\":2520:2813  Location({... */\n      dup2\n      mstore\n      0x20\n      add\n        /* \"Product Tracker Smart Contract/ProductTracker.sol\":2669:2677  _shipped */\n      dup6\n        /* \"Product Tracker Smart Contract/ProductTracker.sol\":2669:2699  _shipped ? block.timestamp : 0 */\n      tag_77\n      jumpi\n        /* \"Product Tracker Smart Contract/ProductTracker.sol\":2698:2699  0 */\n      0x00\n        /* \"Product Tracker Smart Contract/ProductTracker.sol\":2669:2699  _shipped ? block.timestamp : 0 */\n      jump(tag_78)\n    tag_77:\n        /* \"Product Tracker Smart Contract/ProductTracker.sol\":2680:2695  block.timestamp */\n      timestamp\n        /* \"Product Tracker Smart Contract/ProductTracker.sol\":2669:2699  _shipped ? block.timestamp : 0 */\n    tag_78:\n        /* \"Product Tracker Smart Contract/ProductTracker.sol\":2520:2813  Location({... */\n      dup2\n      mstore\n      0x20\n      add\n        /* \"Product Tracker Smart Contract/ProductTracker.sol\":2632:2640  _shipped */\n      dup6\n        /* \"Product Tracker Smart Contract/ProductTracker.sol\":2520:2813  Location({... */\n      iszero\n      iszero\n      dup2\n      mstore\n      0x20\n      add\n        /* \"Product Tracker Smart Contract/ProductTracker.sol\":2726:2731  false */\n      0x00\n        /* \"Product Tracker Smart Contract/ProductTracker.sol\":2520:2813  Location({... */\n      iszero\n      iszero\n      dup2\n      mstore\n      0x20\n      add\n        /* \"Product Tracker Smart Contract/ProductTracker.sol\":2797:2798  0 */\n      0x00\n        /* \"Product Tracker Smart Contract/ProductTracker.sol\":2520:2813  Location({... */\n      dup2\n      mstore\n      pop\n        /* \"Product Tracker Smart Contract/ProductTracker.sol\":2325:2823  Product(... */\n      dup2\n      mstore\n      pop\n        /* \"Product Tracker Smart Contract/ProductTracker.sol\":2302:2310  products */\n      0x00\n        /* \"Product Tracker Smart Contract/ProductTracker.sol\":2302:2322  products[_productId] */\n      dup1\n        /* \"Product Tracker Smart Contract/ProductTracker.sol\":2311:2321  _productId */\n      dup4\n        /* \"Product Tracker Smart Contract/ProductTracker.sol\":2302:2322  products[_productId] */\n      dup2\n      mstore\n      0x20\n      add\n      swap1\n      dup2\n      mstore\n      0x20\n      add\n      0x00\n      keccak256\n        /* \"Product Tracker Smart Contract/ProductTracker.sol\":2302:2823  products[_productId] = Product(... */\n      0x00\n      dup3\n      add\n      mload\n      dup2\n      0x00\n      add\n      sstore\n      0x20\n      dup3\n      add\n      mload\n      dup2\n      0x01\n      add\n      swap1\n      dup2\n      tag_79\n      swap2\n      swap1\n      tag_32\n      jump\t// in\n    tag_79:\n      pop\n      0x40\n      dup3\n      add\n      mload\n      dup2\n      0x02\n      add\n      swap1\n      dup2\n      tag_80\n      swap2\n      swap1\n      tag_32\n      jump\t// in\n    tag_80:\n      pop\n      0x60\n      dup3\n      add\n      mload\n      dup2\n      0x03\n      add\n      swap1\n      dup2\n      tag_81\n      swap2\n      swap1\n      tag_32\n      jump\t// in\n    tag_81:\n      pop\n      0x80\n      dup3\n      add\n      mload\n      dup2\n      0x04\n      add\n      swap1\n      dup1\n      mload\n      swap1\n      0x20\n      add\n      swap1\n      tag_82\n      swap3\n      swap2\n      swap1\n      tag_83\n      jump\t// in\n    tag_82:\n      pop\n      0xa0\n      dup3\n      add\n      mload\n      dup2\n      0x05\n      add\n      swap1\n      dup1\n      mload\n      swap1\n      0x20\n      add\n      swap1\n      tag_84\n      swap3\n      swap2\n      swap1\n      tag_83\n      jump\t// in\n    tag_84:\n      pop\n      0xc0\n      dup3\n      add\n      mload\n      dup2\n      0x06\n      add\n      sstore\n      0xe0\n      dup3\n      add\n      mload\n      dup2\n      0x07\n      add\n      0x00\n      dup3\n      add\n      mload\n      dup2\n      0x00\n      add\n      swap1\n      dup2\n      tag_85\n      swap2\n      swap1\n      tag_32\n      jump\t// in\n    tag_85:\n      pop\n      0x20\n      dup3\n      add\n      mload\n      dup2\n      0x01\n      add\n      swap1\n      dup2\n      tag_86\n      swap2\n      swap1\n      tag_32\n      jump\t// in\n    tag_86:\n      pop\n      0x40\n      dup3\n      add\n      mload\n      dup2\n      0x02\n      add\n      sstore\n      0x60\n      dup3\n      add\n      mload\n      dup2\n      0x03\n      add\n      exp(0x0100, 0x00)\n      dup2\n      sload\n      dup2\n      0xff\n      mul\n      not\n      and\n      swap1\n      dup4\n      iszero\n      iszero\n      mul\n      or\n      swap1\n      sstore\n      pop\n      0x80\n      dup3\n      add\n      mload\n      dup2\n      0x03\n      add\n      exp(0x0100, 0x01)\n      dup2\n      sload\n      dup2\n      0xff\n      mul\n      not\n      and\n      swap1\n      dup4\n      iszero\n      iszero\n      mul\n      or\n      swap1\n      sstore\n      pop\n      0xa0\n      dup3\n      add\n      mload\n      dup2\n      0x04\n      add\n      sstore\n      pop\n      pop\n      swap1\n      pop\n      pop\n        /* \"Product Tracker Smart Contract/ProductTracker.sol\":2869:2879  _productId */\n      dup1\n        /* \"Product Tracker Smart Contract/ProductTracker.sol\":2839:3039  ProductGenerated(... */\n      0xf208792a7453bf9453c1c4054fd9b31b52fba888dcc972943bd0cb99df1c4f72\n        /* \"Product Tracker Smart Contract/ProductTracker.sol\":2893:2905  _productType */\n      dup12\n        /* \"Product Tracker Smart Contract/ProductTracker.sol\":2919:2929  _brandName */\n      dup11\n        /* \"Product Tracker Smart Contract/ProductTracker.sol\":2943:2955  _productName */\n      dup13\n        /* \"Product Tracker Smart Contract/ProductTracker.sol\":2969:2979  _materials */\n      dup12\n        /* \"Product Tracker Smart Contract/ProductTracker.sol\":2993:3006  _certificates */\n      dup12\n        /* \"Product Tracker Smart Contract/ProductTracker.sol\":3020:3029  _quantity */\n      dup12\n        /* \"Product Tracker Smart Contract/ProductTracker.sol\":2839:3039  ProductGenerated(... */\n      mload(0x40)\n      tag_87\n      swap7\n      swap6\n      swap5\n      swap4\n      swap3\n      swap2\n      swap1\n      tag_88\n      jump\t// in\n    tag_87:\n      mload(0x40)\n      dup1\n      swap2\n      sub\n      swap1\n      log2\n        /* \"Product Tracker Smart Contract/ProductTracker.sol\":1782:3046  {... */\n      pop\n        /* \"Product Tracker Smart Contract/ProductTracker.sol\":1416:3046  function GenerateProduct(... */\n      pop\n      pop\n      pop\n      pop\n      pop\n      pop\n      pop\n      pop\n      pop\n      jump\t// out\n    tag_83:\n      dup3\n      dup1\n      sload\n      dup3\n      dup3\n      sstore\n      swap1\n      0x00\n      mstore\n      keccak256(0x00, 0x20)\n      swap1\n      dup2\n      add\n      swap3\n      dup3\n      iszero\n      tag_89\n      jumpi\n      swap2\n      0x20\n      mul\n      dup3\n      add\n    tag_90:\n      dup3\n      dup2\n      gt\n      iszero\n      tag_91\n      jumpi\n      dup3\n      mload\n      dup3\n      swap1\n      dup2\n      tag_92\n      swap2\n      swap1\n      tag_32\n      jump\t// in\n    tag_92:\n      pop\n      swap2\n      0x20\n      add\n      swap2\n      swap1\n      0x01\n      add\n      swap1\n      jump(tag_90)\n    tag_91:\n    tag_89:\n      pop\n      swap1\n      pop\n      tag_93\n      swap2\n      swap1\n      tag_94\n      jump\t// in\n    tag_93:\n      pop\n      swap1\n      jump\t// out\n    tag_94:\n    tag_95:\n      dup1\n      dup3\n      gt\n      iszero\n      tag_96\n      jumpi\n      0x00\n      dup2\n      dup2\n      tag_97\n      swap2\n      swap1\n      tag_98\n      jump\t// in\n    tag_97:\n      pop\n      0x01\n      add\n      jump(tag_95)\n    tag_96:\n      pop\n      swap1\n      jump\t// out\n    tag_98:\n      pop\n      dup1\n      sload\n      tag_99\n      swap1\n      tag_36\n      jump\t// in\n    tag_99:\n      0x00\n      dup3\n      sstore\n      dup1\n      0x1f\n      lt\n      tag_101\n      jumpi\n      pop\n      jump(tag_100)\n    tag_101:\n      0x1f\n      add\n      0x20\n      swap1\n      div\n      swap1\n      0x00\n      mstore\n      keccak256(0x00, 0x20)\n      swap1\n      dup2\n      add\n      swap1\n      tag_102\n      swap2\n      swap1\n      tag_103\n      jump\t// in\n    tag_102:\n    tag_100:\n      pop\n      jump\t// out\n    tag_103:\n    tag_104:\n      dup1\n      dup3\n      gt\n      iszero\n      tag_105\n      jumpi\n      0x00\n      dup2\n      0x00\n      swap1\n      sstore\n      pop\n      0x01\n      add\n      jump(tag_104)\n    tag_105:\n      pop\n      swap1\n      jump\t// out\n        /* \"#utility.yul\":7:82   */\n    tag_106:\n        /* \"#utility.yul\":40:46   */\n      0x00\n        /* \"#utility.yul\":73:75   */\n      0x40\n        /* \"#utility.yul\":67:76   */\n      mload\n        /* \"#utility.yul\":57:76   */\n      swap1\n      pop\n        /* \"#utility.yul\":7:82   */\n      swap1\n      jump\t// out\n        /* \"#utility.yul\":88:205   */\n    tag_107:\n        /* \"#utility.yul\":197:198   */\n      0x00\n        /* \"#utility.yul\":194:195   */\n      dup1\n        /* \"#utility.yul\":187:199   */\n      revert\n        /* \"#utility.yul\":211:328   */\n    tag_108:\n        /* \"#utility.yul\":320:321   */\n      0x00\n        /* \"#utility.yul\":317:318   */\n      dup1\n        /* \"#utility.yul\":310:322   */\n      revert\n        /* \"#utility.yul\":334:411   */\n    tag_109:\n        /* \"#utility.yul\":371:378   */\n      0x00\n        /* \"#utility.yul\":400:405   */\n      dup2\n        /* \"#utility.yul\":389:405   */\n      swap1\n      pop\n        /* \"#utility.yul\":334:411   */\n      swap2\n      swap1\n      pop\n      jump\t// out\n        /* \"#utility.yul\":417:539   */\n    tag_110:\n        /* \"#utility.yul\":490:514   */\n      tag_185\n        /* \"#utility.yul\":508:513   */\n      dup2\n        /* \"#utility.yul\":490:514   */\n      tag_109\n      jump\t// in\n    tag_185:\n        /* \"#utility.yul\":483:488   */\n      dup2\n        /* \"#utility.yul\":480:515   */\n      eq\n        /* \"#utility.yul\":470:533   */\n      tag_186\n      jumpi\n        /* \"#utility.yul\":529:530   */\n      0x00\n        /* \"#utility.yul\":526:527   */\n      dup1\n        /* \"#utility.yul\":519:531   */\n      revert\n        /* \"#utility.yul\":470:533   */\n    tag_186:\n        /* \"#utility.yul\":417:539   */\n      pop\n      jump\t// out\n        /* \"#utility.yul\":545:684   */\n    tag_111:\n        /* \"#utility.yul\":591:596   */\n      0x00\n        /* \"#utility.yul\":629:635   */\n      dup2\n        /* \"#utility.yul\":616:636   */\n      calldataload\n        /* \"#utility.yul\":607:636   */\n      swap1\n      pop\n        /* \"#utility.yul\":645:678   */\n      tag_188\n        /* \"#utility.yul\":672:677   */\n      dup2\n        /* \"#utility.yul\":645:678   */\n      tag_110\n      jump\t// in\n    tag_188:\n        /* \"#utility.yul\":545:684   */\n      swap3\n      swap2\n      pop\n      pop\n      jump\t// out\n        /* \"#utility.yul\":690:807   */\n    tag_112:\n        /* \"#utility.yul\":799:800   */\n      0x00\n        /* \"#utility.yul\":796:797   */\n      dup1\n        /* \"#utility.yul\":789:801   */\n      revert\n        /* \"#utility.yul\":813:930   */\n    tag_113:\n        /* \"#utility.yul\":922:923   */\n      0x00\n        /* \"#utility.yul\":919:920   */\n      dup1\n        /* \"#utility.yul\":912:924   */\n      revert\n        /* \"#utility.yul\":936:1038   */\n    tag_114:\n        /* \"#utility.yul\":977:983   */\n      0x00\n        /* \"#utility.yul\":1028:1030   */\n      0x1f\n        /* \"#utility.yul\":1024:1031   */\n      not\n        /* \"#utility.yul\":1019:1021   */\n      0x1f\n        /* \"#utility.yul\":1012:1017   */\n      dup4\n        /* \"#utility.yul\":1008:1022   */\n      add\n        /* \"#utility.yul\":1004:1032   */\n      and\n        /* \"#utility.yul\":994:1032   */\n      swap1\n      pop\n        /* \"#utility.yul\":936:1038   */\n      swap2\n      swap1\n      pop\n      jump\t// out\n        /* \"#utility.yul\":1044:1224   */\n    tag_115:\n        /* \"#utility.yul\":1092:1169   */\n      0x4e487b7100000000000000000000000000000000000000000000000000000000\n        /* \"#utility.yul\":1089:1090   */\n      0x00\n        /* \"#utility.yul\":1082:1170   */\n      mstore\n        /* \"#utility.yul\":1189:1193   */\n      0x41\n        /* \"#utility.yul\":1186:1187   */\n      0x04\n        /* \"#utility.yul\":1179:1194   */\n      mstore\n        /* \"#utility.yul\":1213:1217   */\n      0x24\n        /* \"#utility.yul\":1210:1211   */\n      0x00\n        /* \"#utility.yul\":1203:1218   */\n      revert\n        /* \"#utility.yul\":1230:1511   */\n    tag_116:\n        /* \"#utility.yul\":1313:1340   */\n      tag_194\n        /* \"#utility.yul\":1335:1339   */\n      dup3\n        /* \"#utility.yul\":1313:1340   */\n      tag_114\n      jump\t// in\n    tag_194:\n        /* \"#utility.yul\":1305:1311   */\n      dup2\n        /* \"#utility.yul\":1301:1341   */\n      add\n        /* \"#utility.yul\":1443:1449   */\n      dup2\n        /* \"#utility.yul\":1431:1441   */\n      dup2\n        /* \"#utility.yul\":1428:1450   */\n      lt\n        /* \"#utility.yul\":1407:1425   */\n      0xffffffffffffffff\n        /* \"#utility.yul\":1395:1405   */\n      dup3\n        /* \"#utility.yul\":1392:1426   */\n      gt\n        /* \"#utility.yul\":1389:1451   */\n      or\n        /* \"#utility.yul\":1386:1474   */\n      iszero\n      tag_195\n      jumpi\n        /* \"#utility.yul\":1454:1472   */\n      tag_196\n      tag_115\n      jump\t// in\n    tag_196:\n        /* \"#utility.yul\":1386:1474   */\n    tag_195:\n        /* \"#utility.yul\":1494:1504   */\n      dup1\n        /* \"#utility.yul\":1490:1492   */\n      0x40\n        /* \"#utility.yul\":1483:1505   */\n      mstore\n        /* \"#utility.yul\":1273:1511   */\n      pop\n        /* \"#utility.yul\":1230:1511   */\n      pop\n      pop\n      jump\t// out\n        /* \"#utility.yul\":1517:1646   */\n    tag_117:\n        /* \"#utility.yul\":1551:1557   */\n      0x00\n        /* \"#utility.yul\":1578:1598   */\n      tag_198\n      tag_106\n      jump\t// in\n    tag_198:\n        /* \"#utility.yul\":1568:1598   */\n      swap1\n      pop\n        /* \"#utility.yul\":1607:1640   */\n      tag_199\n        /* \"#utility.yul\":1635:1639   */\n      dup3\n        /* \"#utility.yul\":1627:1633   */\n      dup3\n        /* \"#utility.yul\":1607:1640   */\n      tag_116\n      jump\t// in\n    tag_199:\n        /* \"#utility.yul\":1517:1646   */\n      swap2\n      swap1\n      pop\n      jump\t// out\n        /* \"#utility.yul\":1652:1960   */\n    tag_118:\n        /* \"#utility.yul\":1714:1718   */\n      0x00\n        /* \"#utility.yul\":1804:1822   */\n      0xffffffffffffffff\n        /* \"#utility.yul\":1796:1802   */\n      dup3\n        /* \"#utility.yul\":1793:1823   */\n      gt\n        /* \"#utility.yul\":1790:1846   */\n      iszero\n      tag_201\n      jumpi\n        /* \"#utility.yul\":1826:1844   */\n      tag_202\n      tag_115\n      jump\t// in\n    tag_202:\n        /* \"#utility.yul\":1790:1846   */\n    tag_201:\n        /* \"#utility.yul\":1864:1893   */\n      tag_203\n        /* \"#utility.yul\":1886:1892   */\n      dup3\n        /* \"#utility.yul\":1864:1893   */\n      tag_114\n      jump\t// in\n    tag_203:\n        /* \"#utility.yul\":1856:1893   */\n      swap1\n      pop\n        /* \"#utility.yul\":1948:1952   */\n      0x20\n        /* \"#utility.yul\":1942:1946   */\n      dup2\n        /* \"#utility.yul\":1938:1953   */\n      add\n        /* \"#utility.yul\":1930:1953   */\n      swap1\n      pop\n        /* \"#utility.yul\":1652:1960   */\n      swap2\n      swap1\n      pop\n      jump\t// out\n        /* \"#utility.yul\":1966:2114   */\n    tag_119:\n        /* \"#utility.yul\":2064:2070   */\n      dup3\n        /* \"#utility.yul\":2059:2062   */\n      dup2\n        /* \"#utility.yul\":2054:2057   */\n      dup4\n        /* \"#utility.yul\":2041:2071   */\n      calldatacopy\n        /* \"#utility.yul\":2105:2106   */\n      0x00\n        /* \"#utility.yul\":2096:2102   */\n      dup4\n        /* \"#utility.yul\":2091:2094   */\n      dup4\n        /* \"#utility.yul\":2087:2103   */\n      add\n        /* \"#utility.yul\":2080:2107   */\n      mstore\n        /* \"#utility.yul\":1966:2114   */\n      pop\n      pop\n      pop\n      jump\t// out\n        /* \"#utility.yul\":2120:2545   */\n    tag_120:\n        /* \"#utility.yul\":2198:2203   */\n      0x00\n        /* \"#utility.yul\":2223:2289   */\n      tag_206\n        /* \"#utility.yul\":2239:2288   */\n      tag_207\n        /* \"#utility.yul\":2281:2287   */\n      dup5\n        /* \"#utility.yul\":2239:2288   */\n      tag_118\n      jump\t// in\n    tag_207:\n        /* \"#utility.yul\":2223:2289   */\n      tag_117\n      jump\t// in\n    tag_206:\n        /* \"#utility.yul\":2214:2289   */\n      swap1\n      pop\n        /* \"#utility.yul\":2312:2318   */\n      dup3\n        /* \"#utility.yul\":2305:2310   */\n      dup2\n        /* \"#utility.yul\":2298:2319   */\n      mstore\n        /* \"#utility.yul\":2350:2354   */\n      0x20\n        /* \"#utility.yul\":2343:2348   */\n      dup2\n        /* \"#utility.yul\":2339:2355   */\n      add\n        /* \"#utility.yul\":2388:2391   */\n      dup5\n        /* \"#utility.yul\":2379:2385   */\n      dup5\n        /* \"#utility.yul\":2374:2377   */\n      dup5\n        /* \"#utility.yul\":2370:2386   */\n      add\n        /* \"#utility.yul\":2367:2392   */\n      gt\n        /* \"#utility.yul\":2364:2476   */\n      iszero\n      tag_208\n      jumpi\n        /* \"#utility.yul\":2395:2474   */\n      tag_209\n      tag_113\n      jump\t// in\n    tag_209:\n        /* \"#utility.yul\":2364:2476   */\n    tag_208:\n        /* \"#utility.yul\":2485:2539   */\n      tag_210\n        /* \"#utility.yul\":2532:2538   */\n      dup5\n        /* \"#utility.yul\":2527:2530   */\n      dup3\n        /* \"#utility.yul\":2522:2525   */\n      dup6\n        /* \"#utility.yul\":2485:2539   */\n      tag_119\n      jump\t// in\n    tag_210:\n        /* \"#utility.yul\":2204:2545   */\n      pop\n        /* \"#utility.yul\":2120:2545   */\n      swap4\n      swap3\n      pop\n      pop\n      pop\n      jump\t// out\n        /* \"#utility.yul\":2565:2905   */\n    tag_121:\n        /* \"#utility.yul\":2621:2626   */\n      0x00\n        /* \"#utility.yul\":2670:2673   */\n      dup3\n        /* \"#utility.yul\":2663:2667   */\n      0x1f\n        /* \"#utility.yul\":2655:2661   */\n      dup4\n        /* \"#utility.yul\":2651:2668   */\n      add\n        /* \"#utility.yul\":2647:2674   */\n      slt\n        /* \"#utility.yul\":2637:2759   */\n      tag_212\n      jumpi\n        /* \"#utility.yul\":2678:2757   */\n      tag_213\n      tag_112\n      jump\t// in\n    tag_213:\n        /* \"#utility.yul\":2637:2759   */\n    tag_212:\n        /* \"#utility.yul\":2795:2801   */\n      dup2\n        /* \"#utility.yul\":2782:2802   */\n      calldataload\n        /* \"#utility.yul\":2820:2899   */\n      tag_214\n        /* \"#utility.yul\":2895:2898   */\n      dup5\n        /* \"#utility.yul\":2887:2893   */\n      dup3\n        /* \"#utility.yul\":2880:2884   */\n      0x20\n        /* \"#utility.yul\":2872:2878   */\n      dup7\n        /* \"#utility.yul\":2868:2885   */\n      add\n        /* \"#utility.yul\":2820:2899   */\n      tag_120\n      jump\t// in\n    tag_214:\n        /* \"#utility.yul\":2811:2899   */\n      swap2\n      pop\n        /* \"#utility.yul\":2627:2905   */\n      pop\n        /* \"#utility.yul\":2565:2905   */\n      swap3\n      swap2\n      pop\n      pop\n      jump\t// out\n        /* \"#utility.yul\":2911:3565   */\n    tag_8:\n        /* \"#utility.yul\":2989:2995   */\n      0x00\n        /* \"#utility.yul\":2997:3003   */\n      dup1\n        /* \"#utility.yul\":3046:3048   */\n      0x40\n        /* \"#utility.yul\":3034:3043   */\n      dup4\n        /* \"#utility.yul\":3025:3032   */\n      dup6\n        /* \"#utility.yul\":3021:3044   */\n      sub\n        /* \"#utility.yul\":3017:3049   */\n      slt\n        /* \"#utility.yul\":3014:3133   */\n      iszero\n      tag_216\n      jumpi\n        /* \"#utility.yul\":3052:3131   */\n      tag_217\n      tag_107\n      jump\t// in\n    tag_217:\n        /* \"#utility.yul\":3014:3133   */\n    tag_216:\n        /* \"#utility.yul\":3172:3173   */\n      0x00\n        /* \"#utility.yul\":3197:3250   */\n      tag_218\n        /* \"#utility.yul\":3242:3249   */\n      dup6\n        /* \"#utility.yul\":3233:3239   */\n      dup3\n        /* \"#utility.yul\":3222:3231   */\n      dup7\n        /* \"#utility.yul\":3218:3240   */\n      add\n        /* \"#utility.yul\":3197:3250   */\n      tag_111\n      jump\t// in\n    tag_218:\n        /* \"#utility.yul\":3187:3250   */\n      swap3\n      pop\n        /* \"#utility.yul\":3143:3260   */\n      pop\n        /* \"#utility.yul\":3327:3329   */\n      0x20\n        /* \"#utility.yul\":3316:3325   */\n      dup4\n        /* \"#utility.yul\":3312:3330   */\n      add\n        /* \"#utility.yul\":3299:3331   */\n      calldataload\n        /* \"#utility.yul\":3358:3376   */\n      0xffffffffffffffff\n        /* \"#utility.yul\":3350:3356   */\n      dup2\n        /* \"#utility.yul\":3347:3377   */\n      gt\n        /* \"#utility.yul\":3344:3461   */\n      iszero\n      tag_219\n      jumpi\n        /* \"#utility.yul\":3380:3459   */\n      tag_220\n      tag_108\n      jump\t// in\n    tag_220:\n        /* \"#utility.yul\":3344:3461   */\n    tag_219:\n        /* \"#utility.yul\":3485:3548   */\n      tag_221\n        /* \"#utility.yul\":3540:3547   */\n      dup6\n        /* \"#utility.yul\":3531:3537   */\n      dup3\n        /* \"#utility.yul\":3520:3529   */\n      dup7\n        /* \"#utility.yul\":3516:3538   */\n      add\n        /* \"#utility.yul\":3485:3548   */\n      tag_121\n      jump\t// in\n    tag_221:\n        /* \"#utility.yul\":3475:3548   */\n      swap2\n      pop\n        /* \"#utility.yul\":3270:3558   */\n      pop\n        /* \"#utility.yul\":2911:3565   */\n      swap3\n      pop\n      swap3\n      swap1\n      pop\n      jump\t// out\n        /* \"#utility.yul\":3571:3900   */\n    tag_12:\n        /* \"#utility.yul\":3630:3636   */\n      0x00\n        /* \"#utility.yul\":3679:3681   */\n      0x20\n        /* \"#utility.yul\":3667:3676   */\n      dup3\n        /* \"#utility.yul\":3658:3665   */\n      dup5\n        /* \"#utility.yul\":3654:3677   */\n      sub\n        /* \"#utility.yul\":3650:3682   */\n      slt\n        /* \"#utility.yul\":3647:3766   */\n      iszero\n      tag_223\n      jumpi\n        /* \"#utility.yul\":3685:3764   */\n      tag_224\n      tag_107\n      jump\t// in\n    tag_224:\n        /* \"#utility.yul\":3647:3766   */\n    tag_223:\n        /* \"#utility.yul\":3805:3806   */\n      0x00\n        /* \"#utility.yul\":3830:3883   */\n      tag_225\n        /* \"#utility.yul\":3875:3882   */\n      dup5\n        /* \"#utility.yul\":3866:3872   */\n      dup3\n        /* \"#utility.yul\":3855:3864   */\n      dup6\n        /* \"#utility.yul\":3851:3873   */\n      add\n        /* \"#utility.yul\":3830:3883   */\n      tag_111\n      jump\t// in\n    tag_225:\n        /* \"#utility.yul\":3820:3883   */\n      swap2\n      pop\n        /* \"#utility.yul\":3776:3893   */\n      pop\n        /* \"#utility.yul\":3571:3900   */\n      swap3\n      swap2\n      pop\n      pop\n      jump\t// out\n        /* \"#utility.yul\":3906:4024   */\n    tag_122:\n        /* \"#utility.yul\":3993:4017   */\n      tag_227\n        /* \"#utility.yul\":4011:4016   */\n      dup2\n        /* \"#utility.yul\":3993:4017   */\n      tag_109\n      jump\t// in\n    tag_227:\n        /* \"#utility.yul\":3988:3991   */\n      dup3\n        /* \"#utility.yul\":3981:4018   */\n      mstore\n        /* \"#utility.yul\":3906:4024   */\n      pop\n      pop\n      jump\t// out\n        /* \"#utility.yul\":4030:4129   */\n    tag_123:\n        /* \"#utility.yul\":4082:4088   */\n      0x00\n        /* \"#utility.yul\":4116:4121   */\n      dup2\n        /* \"#utility.yul\":4110:4122   */\n      mload\n        /* \"#utility.yul\":4100:4122   */\n      swap1\n      pop\n        /* \"#utility.yul\":4030:4129   */\n      swap2\n      swap1\n      pop\n      jump\t// out\n        /* \"#utility.yul\":4135:4304   */\n    tag_124:\n        /* \"#utility.yul\":4219:4230   */\n      0x00\n        /* \"#utility.yul\":4253:4259   */\n      dup3\n        /* \"#utility.yul\":4248:4251   */\n      dup3\n        /* \"#utility.yul\":4241:4260   */\n      mstore\n        /* \"#utility.yul\":4293:4297   */\n      0x20\n        /* \"#utility.yul\":4288:4291   */\n      dup3\n        /* \"#utility.yul\":4284:4298   */\n      add\n        /* \"#utility.yul\":4269:4298   */\n      swap1\n      pop\n        /* \"#utility.yul\":4135:4304   */\n      swap3\n      swap2\n      pop\n      pop\n      jump\t// out\n        /* \"#utility.yul\":4310:4449   */\n    tag_125:\n        /* \"#utility.yul\":4399:4405   */\n      dup3\n        /* \"#utility.yul\":4394:4397   */\n      dup2\n        /* \"#utility.yul\":4389:4392   */\n      dup4\n        /* \"#utility.yul\":4383:4406   */\n      mcopy\n        /* \"#utility.yul\":4440:4441   */\n      0x00\n        /* \"#utility.yul\":4431:4437   */\n      dup4\n        /* \"#utility.yul\":4426:4429   */\n      dup4\n        /* \"#utility.yul\":4422:4438   */\n      add\n        /* \"#utility.yul\":4415:4442   */\n      mstore\n        /* \"#utility.yul\":4310:4449   */\n      pop\n      pop\n      pop\n      jump\t// out\n        /* \"#utility.yul\":4455:4832   */\n    tag_126:\n        /* \"#utility.yul\":4543:4546   */\n      0x00\n        /* \"#utility.yul\":4571:4610   */\n      tag_232\n        /* \"#utility.yul\":4604:4609   */\n      dup3\n        /* \"#utility.yul\":4571:4610   */\n      tag_123\n      jump\t// in\n    tag_232:\n        /* \"#utility.yul\":4626:4697   */\n      tag_233\n        /* \"#utility.yul\":4690:4696   */\n      dup2\n        /* \"#utility.yul\":4685:4688   */\n      dup6\n        /* \"#utility.yul\":4626:4697   */\n      tag_124\n      jump\t// in\n    tag_233:\n        /* \"#utility.yul\":4619:4697   */\n      swap4\n      pop\n        /* \"#utility.yul\":4706:4771   */\n      tag_234\n        /* \"#utility.yul\":4764:4770   */\n      dup2\n        /* \"#utility.yul\":4759:4762   */\n      dup6\n        /* \"#utility.yul\":4752:4756   */\n      0x20\n        /* \"#utility.yul\":4745:4750   */\n      dup7\n        /* \"#utility.yul\":4741:4757   */\n      add\n        /* \"#utility.yul\":4706:4771   */\n      tag_125\n      jump\t// in\n    tag_234:\n        /* \"#utility.yul\":4796:4825   */\n      tag_235\n        /* \"#utility.yul\":4818:4824   */\n      dup2\n        /* \"#utility.yul\":4796:4825   */\n      tag_114\n      jump\t// in\n    tag_235:\n        /* \"#utility.yul\":4791:4794   */\n      dup5\n        /* \"#utility.yul\":4787:4826   */\n      add\n        /* \"#utility.yul\":4780:4826   */\n      swap2\n      pop\n        /* \"#utility.yul\":4547:4832   */\n      pop\n        /* \"#utility.yul\":4455:4832   */\n      swap3\n      swap2\n      pop\n      pop\n      jump\t// out\n        /* \"#utility.yul\":4838:4997   */\n    tag_127:\n        /* \"#utility.yul\":4912:4923   */\n      0x00\n        /* \"#utility.yul\":4946:4952   */\n      dup3\n        /* \"#utility.yul\":4941:4944   */\n      dup3\n        /* \"#utility.yul\":4934:4953   */\n      mstore\n        /* \"#utility.yul\":4986:4990   */\n      0x20\n        /* \"#utility.yul\":4981:4984   */\n      dup3\n        /* \"#utility.yul\":4977:4991   */\n      add\n        /* \"#utility.yul\":4962:4991   */\n      swap1\n      pop\n        /* \"#utility.yul\":4838:4997   */\n      swap3\n      swap2\n      pop\n      pop\n      jump\t// out\n        /* \"#utility.yul\":5003:5360   */\n    tag_128:\n        /* \"#utility.yul\":5081:5084   */\n      0x00\n        /* \"#utility.yul\":5109:5148   */\n      tag_238\n        /* \"#utility.yul\":5142:5147   */\n      dup3\n        /* \"#utility.yul\":5109:5148   */\n      tag_123\n      jump\t// in\n    tag_238:\n        /* \"#utility.yul\":5164:5225   */\n      tag_239\n        /* \"#utility.yul\":5218:5224   */\n      dup2\n        /* \"#utility.yul\":5213:5216   */\n      dup6\n        /* \"#utility.yul\":5164:5225   */\n      tag_127\n      jump\t// in\n    tag_239:\n        /* \"#utility.yul\":5157:5225   */\n      swap4\n      pop\n        /* \"#utility.yul\":5234:5299   */\n      tag_240\n        /* \"#utility.yul\":5292:5298   */\n      dup2\n        /* \"#utility.yul\":5287:5290   */\n      dup6\n        /* \"#utility.yul\":5280:5284   */\n      0x20\n        /* \"#utility.yul\":5273:5278   */\n      dup7\n        /* \"#utility.yul\":5269:5285   */\n      add\n        /* \"#utility.yul\":5234:5299   */\n      tag_125\n      jump\t// in\n    tag_240:\n        /* \"#utility.yul\":5324:5353   */\n      tag_241\n        /* \"#utility.yul\":5346:5352   */\n      dup2\n        /* \"#utility.yul\":5324:5353   */\n      tag_114\n      jump\t// in\n    tag_241:\n        /* \"#utility.yul\":5319:5322   */\n      dup5\n        /* \"#utility.yul\":5315:5354   */\n      add\n        /* \"#utility.yul\":5308:5354   */\n      swap2\n      pop\n        /* \"#utility.yul\":5085:5360   */\n      pop\n        /* \"#utility.yul\":5003:5360   */\n      swap3\n      swap2\n      pop\n      pop\n      jump\t// out\n        /* \"#utility.yul\":5366:5474   */\n    tag_129:\n        /* \"#utility.yul\":5443:5467   */\n      tag_243\n        /* \"#utility.yul\":5461:5466   */\n      dup2\n        /* \"#utility.yul\":5443:5467   */\n      tag_109\n      jump\t// in\n    tag_243:\n        /* \"#utility.yul\":5438:5441   */\n      dup3\n        /* \"#utility.yul\":5431:5468   */\n      mstore\n        /* \"#utility.yul\":5366:5474   */\n      pop\n      pop\n      jump\t// out\n        /* \"#utility.yul\":5480:5570   */\n    tag_130:\n        /* \"#utility.yul\":5514:5521   */\n      0x00\n        /* \"#utility.yul\":5557:5562   */\n      dup2\n        /* \"#utility.yul\":5550:5563   */\n      iszero\n        /* \"#utility.yul\":5543:5564   */\n      iszero\n        /* \"#utility.yul\":5532:5564   */\n      swap1\n      pop\n        /* \"#utility.yul\":5480:5570   */\n      swap2\n      swap1\n      pop\n      jump\t// out\n        /* \"#utility.yul\":5576:5675   */\n    tag_131:\n        /* \"#utility.yul\":5647:5668   */\n      tag_246\n        /* \"#utility.yul\":5662:5667   */\n      dup2\n        /* \"#utility.yul\":5647:5668   */\n      tag_130\n      jump\t// in\n    tag_246:\n        /* \"#utility.yul\":5642:5645   */\n      dup3\n        /* \"#utility.yul\":5635:5669   */\n      mstore\n        /* \"#utility.yul\":5576:5675   */\n      pop\n      pop\n      jump\t// out\n        /* \"#utility.yul\":5753:7131   */\n    tag_132:\n        /* \"#utility.yul\":5870:5873   */\n      0x00\n        /* \"#utility.yul\":5906:5910   */\n      0xc0\n        /* \"#utility.yul\":5901:5904   */\n      dup4\n        /* \"#utility.yul\":5897:5911   */\n      add\n        /* \"#utility.yul\":5993:5997   */\n      0x00\n        /* \"#utility.yul\":5986:5991   */\n      dup4\n        /* \"#utility.yul\":5982:5998   */\n      add\n        /* \"#utility.yul\":5976:5999   */\n      mload\n        /* \"#utility.yul\":6046:6049   */\n      dup5\n        /* \"#utility.yul\":6040:6044   */\n      dup3\n        /* \"#utility.yul\":6036:6050   */\n      sub\n        /* \"#utility.yul\":6029:6033   */\n      0x00\n        /* \"#utility.yul\":6024:6027   */\n      dup7\n        /* \"#utility.yul\":6020:6034   */\n      add\n        /* \"#utility.yul\":6013:6051   */\n      mstore\n        /* \"#utility.yul\":6072:6145   */\n      tag_248\n        /* \"#utility.yul\":6140:6144   */\n      dup3\n        /* \"#utility.yul\":6126:6138   */\n      dup3\n        /* \"#utility.yul\":6072:6145   */\n      tag_128\n      jump\t// in\n    tag_248:\n        /* \"#utility.yul\":6064:6145   */\n      swap2\n      pop\n        /* \"#utility.yul\":5921:6156   */\n      pop\n        /* \"#utility.yul\":6243:6247   */\n      0x20\n        /* \"#utility.yul\":6236:6241   */\n      dup4\n        /* \"#utility.yul\":6232:6248   */\n      add\n        /* \"#utility.yul\":6226:6249   */\n      mload\n        /* \"#utility.yul\":6296:6299   */\n      dup5\n        /* \"#utility.yul\":6290:6294   */\n      dup3\n        /* \"#utility.yul\":6286:6300   */\n      sub\n        /* \"#utility.yul\":6279:6283   */\n      0x20\n        /* \"#utility.yul\":6274:6277   */\n      dup7\n        /* \"#utility.yul\":6270:6284   */\n      add\n        /* \"#utility.yul\":6263:6301   */\n      mstore\n        /* \"#utility.yul\":6322:6395   */\n      tag_249\n        /* \"#utility.yul\":6390:6394   */\n      dup3\n        /* \"#utility.yul\":6376:6388   */\n      dup3\n        /* \"#utility.yul\":6322:6395   */\n      tag_128\n      jump\t// in\n    tag_249:\n        /* \"#utility.yul\":6314:6395   */\n      swap2\n      pop\n        /* \"#utility.yul\":6166:6406   */\n      pop\n        /* \"#utility.yul\":6493:6497   */\n      0x40\n        /* \"#utility.yul\":6486:6491   */\n      dup4\n        /* \"#utility.yul\":6482:6498   */\n      add\n        /* \"#utility.yul\":6476:6499   */\n      mload\n        /* \"#utility.yul\":6512:6575   */\n      tag_250\n        /* \"#utility.yul\":6569:6573   */\n      0x40\n        /* \"#utility.yul\":6564:6567   */\n      dup7\n        /* \"#utility.yul\":6560:6574   */\n      add\n        /* \"#utility.yul\":6546:6558   */\n      dup3\n        /* \"#utility.yul\":6512:6575   */\n      tag_129\n      jump\t// in\n    tag_250:\n        /* \"#utility.yul\":6416:6585   */\n      pop\n        /* \"#utility.yul\":6670:6674   */\n      0x60\n        /* \"#utility.yul\":6663:6668   */\n      dup4\n        /* \"#utility.yul\":6659:6675   */\n      add\n        /* \"#utility.yul\":6653:6676   */\n      mload\n        /* \"#utility.yul\":6689:6746   */\n      tag_251\n        /* \"#utility.yul\":6740:6744   */\n      0x60\n        /* \"#utility.yul\":6735:6738   */\n      dup7\n        /* \"#utility.yul\":6731:6745   */\n      add\n        /* \"#utility.yul\":6717:6729   */\n      dup3\n        /* \"#utility.yul\":6689:6746   */\n      tag_131\n      jump\t// in\n    tag_251:\n        /* \"#utility.yul\":6595:6756   */\n      pop\n        /* \"#utility.yul\":6841:6845   */\n      0x80\n        /* \"#utility.yul\":6834:6839   */\n      dup4\n        /* \"#utility.yul\":6830:6846   */\n      add\n        /* \"#utility.yul\":6824:6847   */\n      mload\n        /* \"#utility.yul\":6860:6917   */\n      tag_252\n        /* \"#utility.yul\":6911:6915   */\n      0x80\n        /* \"#utility.yul\":6906:6909   */\n      dup7\n        /* \"#utility.yul\":6902:6916   */\n      add\n        /* \"#utility.yul\":6888:6900   */\n      dup3\n        /* \"#utility.yul\":6860:6917   */\n      tag_131\n      jump\t// in\n    tag_252:\n        /* \"#utility.yul\":6766:6927   */\n      pop\n        /* \"#utility.yul\":7012:7016   */\n      0xa0\n        /* \"#utility.yul\":7005:7010   */\n      dup4\n        /* \"#utility.yul\":7001:7017   */\n      add\n        /* \"#utility.yul\":6995:7018   */\n      mload\n        /* \"#utility.yul\":7031:7094   */\n      tag_253\n        /* \"#utility.yul\":7088:7092   */\n      0xa0\n        /* \"#utility.yul\":7083:7086   */\n      dup7\n        /* \"#utility.yul\":7079:7093   */\n      add\n        /* \"#utility.yul\":7065:7077   */\n      dup3\n        /* \"#utility.yul\":7031:7094   */\n      tag_129\n      jump\t// in\n    tag_253:\n        /* \"#utility.yul\":6937:7104   */\n      pop\n        /* \"#utility.yul\":7121:7125   */\n      dup1\n        /* \"#utility.yul\":7114:7125   */\n      swap2\n      pop\n        /* \"#utility.yul\":5875:7131   */\n      pop\n        /* \"#utility.yul\":5753:7131   */\n      swap3\n      swap2\n      pop\n      pop\n      jump\t// out\n        /* \"#utility.yul\":7137:8332   */\n    tag_15:\n        /* \"#utility.yul\":7478:7482   */\n      0x00\n        /* \"#utility.yul\":7516:7519   */\n      0xc0\n        /* \"#utility.yul\":7505:7514   */\n      dup3\n        /* \"#utility.yul\":7501:7520   */\n      add\n        /* \"#utility.yul\":7493:7520   */\n      swap1\n      pop\n        /* \"#utility.yul\":7530:7601   */\n      tag_255\n        /* \"#utility.yul\":7598:7599   */\n      0x00\n        /* \"#utility.yul\":7587:7596   */\n      dup4\n        /* \"#utility.yul\":7583:7600   */\n      add\n        /* \"#utility.yul\":7574:7580   */\n      dup10\n        /* \"#utility.yul\":7530:7601   */\n      tag_122\n      jump\t// in\n    tag_255:\n        /* \"#utility.yul\":7648:7657   */\n      dup2\n        /* \"#utility.yul\":7642:7646   */\n      dup2\n        /* \"#utility.yul\":7638:7658   */\n      sub\n        /* \"#utility.yul\":7633:7635   */\n      0x20\n        /* \"#utility.yul\":7622:7631   */\n      dup4\n        /* \"#utility.yul\":7618:7636   */\n      add\n        /* \"#utility.yul\":7611:7659   */\n      mstore\n        /* \"#utility.yul\":7676:7754   */\n      tag_256\n        /* \"#utility.yul\":7749:7753   */\n      dup2\n        /* \"#utility.yul\":7740:7746   */\n      dup9\n        /* \"#utility.yul\":7676:7754   */\n      tag_126\n      jump\t// in\n    tag_256:\n        /* \"#utility.yul\":7668:7754   */\n      swap1\n      pop\n        /* \"#utility.yul\":7801:7810   */\n      dup2\n        /* \"#utility.yul\":7795:7799   */\n      dup2\n        /* \"#utility.yul\":7791:7811   */\n      sub\n        /* \"#utility.yul\":7786:7788   */\n      0x40\n        /* \"#utility.yul\":7775:7784   */\n      dup4\n        /* \"#utility.yul\":7771:7789   */\n      add\n        /* \"#utility.yul\":7764:7812   */\n      mstore\n        /* \"#utility.yul\":7829:7907   */\n      tag_257\n        /* \"#utility.yul\":7902:7906   */\n      dup2\n        /* \"#utility.yul\":7893:7899   */\n      dup8\n        /* \"#utility.yul\":7829:7907   */\n      tag_126\n      jump\t// in\n    tag_257:\n        /* \"#utility.yul\":7821:7907   */\n      swap1\n      pop\n        /* \"#utility.yul\":7954:7963   */\n      dup2\n        /* \"#utility.yul\":7948:7952   */\n      dup2\n        /* \"#utility.yul\":7944:7964   */\n      sub\n        /* \"#utility.yul\":7939:7941   */\n      0x60\n        /* \"#utility.yul\":7928:7937   */\n      dup4\n        /* \"#utility.yul\":7924:7942   */\n      add\n        /* \"#utility.yul\":7917:7965   */\n      mstore\n        /* \"#utility.yul\":7982:8060   */\n      tag_258\n        /* \"#utility.yul\":8055:8059   */\n      dup2\n        /* \"#utility.yul\":8046:8052   */\n      dup7\n        /* \"#utility.yul\":7982:8060   */\n      tag_126\n      jump\t// in\n    tag_258:\n        /* \"#utility.yul\":7974:8060   */\n      swap1\n      pop\n        /* \"#utility.yul\":8070:8143   */\n      tag_259\n        /* \"#utility.yul\":8138:8141   */\n      0x80\n        /* \"#utility.yul\":8127:8136   */\n      dup4\n        /* \"#utility.yul\":8123:8142   */\n      add\n        /* \"#utility.yul\":8114:8120   */\n      dup6\n        /* \"#utility.yul\":8070:8143   */\n      tag_122\n      jump\t// in\n    tag_259:\n        /* \"#utility.yul\":8191:8200   */\n      dup2\n        /* \"#utility.yul\":8185:8189   */\n      dup2\n        /* \"#utility.yul\":8181:8201   */\n      sub\n        /* \"#utility.yul\":8175:8178   */\n      0xa0\n        /* \"#utility.yul\":8164:8173   */\n      dup4\n        /* \"#utility.yul\":8160:8179   */\n      add\n        /* \"#utility.yul\":8153:8202   */\n      mstore\n        /* \"#utility.yul\":8219:8325   */\n      tag_260\n        /* \"#utility.yul\":8320:8324   */\n      dup2\n        /* \"#utility.yul\":8311:8317   */\n      dup5\n        /* \"#utility.yul\":8219:8325   */\n      tag_132\n      jump\t// in\n    tag_260:\n        /* \"#utility.yul\":8211:8325   */\n      swap1\n      pop\n        /* \"#utility.yul\":7137:8332   */\n      swap8\n      swap7\n      pop\n      pop\n      pop\n      pop\n      pop\n      pop\n      pop\n      jump\t// out\n        /* \"#utility.yul\":8338:8659   */\n    tag_133:\n        /* \"#utility.yul\":8425:8429   */\n      0x00\n        /* \"#utility.yul\":8515:8533   */\n      0xffffffffffffffff\n        /* \"#utility.yul\":8507:8513   */\n      dup3\n        /* \"#utility.yul\":8504:8534   */\n      gt\n        /* \"#utility.yul\":8501:8557   */\n      iszero\n      tag_262\n      jumpi\n        /* \"#utility.yul\":8537:8555   */\n      tag_263\n      tag_115\n      jump\t// in\n    tag_263:\n        /* \"#utility.yul\":8501:8557   */\n    tag_262:\n        /* \"#utility.yul\":8587:8591   */\n      0x20\n        /* \"#utility.yul\":8579:8585   */\n      dup3\n        /* \"#utility.yul\":8575:8592   */\n      mul\n        /* \"#utility.yul\":8567:8592   */\n      swap1\n      pop\n        /* \"#utility.yul\":8647:8651   */\n      0x20\n        /* \"#utility.yul\":8641:8645   */\n      dup2\n        /* \"#utility.yul\":8637:8652   */\n      add\n        /* \"#utility.yul\":8629:8652   */\n      swap1\n      pop\n        /* \"#utility.yul\":8338:8659   */\n      swap2\n      swap1\n      pop\n      jump\t// out\n        /* \"#utility.yul\":8665:8782   */\n    tag_134:\n        /* \"#utility.yul\":8774:8775   */\n      0x00\n        /* \"#utility.yul\":8771:8772   */\n      dup1\n        /* \"#utility.yul\":8764:8776   */\n      revert\n        /* \"#utility.yul\":8804:9749   */\n    tag_135:\n        /* \"#utility.yul\":8910:8915   */\n      0x00\n        /* \"#utility.yul\":8935:9026   */\n      tag_266\n        /* \"#utility.yul\":8951:9025   */\n      tag_267\n        /* \"#utility.yul\":9018:9024   */\n      dup5\n        /* \"#utility.yul\":8951:9025   */\n      tag_133\n      jump\t// in\n    tag_267:\n        /* \"#utility.yul\":8935:9026   */\n      tag_117\n      jump\t// in\n    tag_266:\n        /* \"#utility.yul\":8926:9026   */\n      swap1\n      pop\n        /* \"#utility.yul\":9046:9051   */\n      dup1\n        /* \"#utility.yul\":9075:9081   */\n      dup4\n        /* \"#utility.yul\":9068:9073   */\n      dup3\n        /* \"#utility.yul\":9061:9082   */\n      mstore\n        /* \"#utility.yul\":9109:9113   */\n      0x20\n        /* \"#utility.yul\":9102:9107   */\n      dup3\n        /* \"#utility.yul\":9098:9114   */\n      add\n        /* \"#utility.yul\":9091:9114   */\n      swap1\n      pop\n        /* \"#utility.yul\":9162:9166   */\n      0x20\n        /* \"#utility.yul\":9154:9160   */\n      dup5\n        /* \"#utility.yul\":9150:9167   */\n      mul\n        /* \"#utility.yul\":9142:9148   */\n      dup4\n        /* \"#utility.yul\":9138:9168   */\n      add\n        /* \"#utility.yul\":9191:9194   */\n      dup6\n        /* \"#utility.yul\":9183:9189   */\n      dup2\n        /* \"#utility.yul\":9180:9195   */\n      gt\n        /* \"#utility.yul\":9177:9299   */\n      iszero\n      tag_268\n      jumpi\n        /* \"#utility.yul\":9210:9289   */\n      tag_269\n      tag_134\n      jump\t// in\n    tag_269:\n        /* \"#utility.yul\":9177:9299   */\n    tag_268:\n        /* \"#utility.yul\":9325:9331   */\n      dup4\n        /* \"#utility.yul\":9308:9743   */\n    tag_270:\n        /* \"#utility.yul\":9342:9348   */\n      dup2\n        /* \"#utility.yul\":9337:9340   */\n      dup2\n        /* \"#utility.yul\":9334:9349   */\n      lt\n        /* \"#utility.yul\":9308:9743   */\n      iszero\n      tag_272\n      jumpi\n        /* \"#utility.yul\":9431:9434   */\n      dup1\n        /* \"#utility.yul\":9418:9435   */\n      calldataload\n        /* \"#utility.yul\":9467:9485   */\n      0xffffffffffffffff\n        /* \"#utility.yul\":9454:9465   */\n      dup2\n        /* \"#utility.yul\":9451:9486   */\n      gt\n        /* \"#utility.yul\":9448:9570   */\n      iszero\n      tag_273\n      jumpi\n        /* \"#utility.yul\":9489:9568   */\n      tag_274\n      tag_112\n      jump\t// in\n    tag_274:\n        /* \"#utility.yul\":9448:9570   */\n    tag_273:\n        /* \"#utility.yul\":9613:9624   */\n      dup1\n        /* \"#utility.yul\":9605:9611   */\n      dup7\n        /* \"#utility.yul\":9601:9625   */\n      add\n        /* \"#utility.yul\":9651:9698   */\n      tag_275\n        /* \"#utility.yul\":9694:9697   */\n      dup10\n        /* \"#utility.yul\":9682:9692   */\n      dup3\n        /* \"#utility.yul\":9651:9698   */\n      tag_121\n      jump\t// in\n    tag_275:\n        /* \"#utility.yul\":9646:9649   */\n      dup6\n        /* \"#utility.yul\":9639:9699   */\n      mstore\n        /* \"#utility.yul\":9728:9732   */\n      0x20\n        /* \"#utility.yul\":9723:9726   */\n      dup6\n        /* \"#utility.yul\":9719:9733   */\n      add\n        /* \"#utility.yul\":9712:9733   */\n      swap5\n      pop\n        /* \"#utility.yul\":9384:9743   */\n      pop\n      pop\n        /* \"#utility.yul\":9368:9372   */\n      0x20\n        /* \"#utility.yul\":9363:9366   */\n      dup2\n        /* \"#utility.yul\":9359:9373   */\n      add\n        /* \"#utility.yul\":9352:9373   */\n      swap1\n      pop\n        /* \"#utility.yul\":9308:9743   */\n      jump(tag_270)\n    tag_272:\n        /* \"#utility.yul\":9312:9333   */\n      pop\n        /* \"#utility.yul\":8916:9749   */\n      pop\n      pop\n        /* \"#utility.yul\":8804:9749   */\n      swap4\n      swap3\n      pop\n      pop\n      pop\n      jump\t// out\n        /* \"#utility.yul\":9771:10161   */\n    tag_136:\n        /* \"#utility.yul\":9852:9857   */\n      0x00\n        /* \"#utility.yul\":9901:9904   */\n      dup3\n        /* \"#utility.yul\":9894:9898   */\n      0x1f\n        /* \"#utility.yul\":9886:9892   */\n      dup4\n        /* \"#utility.yul\":9882:9899   */\n      add\n        /* \"#utility.yul\":9878:9905   */\n      slt\n        /* \"#utility.yul\":9868:9990   */\n      tag_277\n      jumpi\n        /* \"#utility.yul\":9909:9988   */\n      tag_278\n      tag_112\n      jump\t// in\n    tag_278:\n        /* \"#utility.yul\":9868:9990   */\n    tag_277:\n        /* \"#utility.yul\":10026:10032   */\n      dup2\n        /* \"#utility.yul\":10013:10033   */\n      calldataload\n        /* \"#utility.yul\":10051:10155   */\n      tag_279\n        /* \"#utility.yul\":10151:10154   */\n      dup5\n        /* \"#utility.yul\":10143:10149   */\n      dup3\n        /* \"#utility.yul\":10136:10140   */\n      0x20\n        /* \"#utility.yul\":10128:10134   */\n      dup7\n        /* \"#utility.yul\":10124:10141   */\n      add\n        /* \"#utility.yul\":10051:10155   */\n      tag_135\n      jump\t// in\n    tag_279:\n        /* \"#utility.yul\":10042:10155   */\n      swap2\n      pop\n        /* \"#utility.yul\":9858:10161   */\n      pop\n        /* \"#utility.yul\":9771:10161   */\n      swap3\n      swap2\n      pop\n      pop\n      jump\t// out\n        /* \"#utility.yul\":10167:10283   */\n    tag_137:\n        /* \"#utility.yul\":10237:10258   */\n      tag_281\n        /* \"#utility.yul\":10252:10257   */\n      dup2\n        /* \"#utility.yul\":10237:10258   */\n      tag_130\n      jump\t// in\n    tag_281:\n        /* \"#utility.yul\":10230:10235   */\n      dup2\n        /* \"#utility.yul\":10227:10259   */\n      eq\n        /* \"#utility.yul\":10217:10277   */\n      tag_282\n      jumpi\n        /* \"#utility.yul\":10273:10274   */\n      0x00\n        /* \"#utility.yul\":10270:10271   */\n      dup1\n        /* \"#utility.yul\":10263:10275   */\n      revert\n        /* \"#utility.yul\":10217:10277   */\n    tag_282:\n        /* \"#utility.yul\":10167:10283   */\n      pop\n      jump\t// out\n        /* \"#utility.yul\":10289:10422   */\n    tag_138:\n        /* \"#utility.yul\":10332:10337   */\n      0x00\n        /* \"#utility.yul\":10370:10376   */\n      dup2\n        /* \"#utility.yul\":10357:10377   */\n      calldataload\n        /* \"#utility.yul\":10348:10377   */\n      swap1\n      pop\n        /* \"#utility.yul\":10386:10416   */\n      tag_284\n        /* \"#utility.yul\":10410:10415   */\n      dup2\n        /* \"#utility.yul\":10386:10416   */\n      tag_137\n      jump\t// in\n    tag_284:\n        /* \"#utility.yul\":10289:10422   */\n      swap3\n      swap2\n      pop\n      pop\n      jump\t// out\n        /* \"#utility.yul\":10428:13277   */\n    tag_18:\n        /* \"#utility.yul\":10676:10682   */\n      0x00\n        /* \"#utility.yul\":10684:10690   */\n      dup1\n        /* \"#utility.yul\":10692:10698   */\n      0x00\n        /* \"#utility.yul\":10700:10706   */\n      dup1\n        /* \"#utility.yul\":10708:10714   */\n      0x00\n        /* \"#utility.yul\":10716:10722   */\n      dup1\n        /* \"#utility.yul\":10724:10730   */\n      0x00\n        /* \"#utility.yul\":10732:10738   */\n      dup1\n        /* \"#utility.yul\":10740:10746   */\n      0x00\n        /* \"#utility.yul\":10789:10792   */\n      0x0120\n        /* \"#utility.yul\":10777:10786   */\n      dup11\n        /* \"#utility.yul\":10768:10775   */\n      dup13\n        /* \"#utility.yul\":10764:10787   */\n      sub\n        /* \"#utility.yul\":10760:10793   */\n      slt\n        /* \"#utility.yul\":10757:10877   */\n      iszero\n      tag_286\n      jumpi\n        /* \"#utility.yul\":10796:10875   */\n      tag_287\n      tag_107\n      jump\t// in\n    tag_287:\n        /* \"#utility.yul\":10757:10877   */\n    tag_286:\n        /* \"#utility.yul\":10944:10945   */\n      0x00\n        /* \"#utility.yul\":10933:10942   */\n      dup11\n        /* \"#utility.yul\":10929:10946   */\n      add\n        /* \"#utility.yul\":10916:10947   */\n      calldataload\n        /* \"#utility.yul\":10974:10992   */\n      0xffffffffffffffff\n        /* \"#utility.yul\":10966:10972   */\n      dup2\n        /* \"#utility.yul\":10963:10993   */\n      gt\n        /* \"#utility.yul\":10960:11077   */\n      iszero\n      tag_288\n      jumpi\n        /* \"#utility.yul\":10996:11075   */\n      tag_289\n      tag_108\n      jump\t// in\n    tag_289:\n        /* \"#utility.yul\":10960:11077   */\n    tag_288:\n        /* \"#utility.yul\":11101:11164   */\n      tag_290\n        /* \"#utility.yul\":11156:11163   */\n      dup13\n        /* \"#utility.yul\":11147:11153   */\n      dup3\n        /* \"#utility.yul\":11136:11145   */\n      dup14\n        /* \"#utility.yul\":11132:11154   */\n      add\n        /* \"#utility.yul\":11101:11164   */\n      tag_121\n      jump\t// in\n    tag_290:\n        /* \"#utility.yul\":11091:11164   */\n      swap10\n      pop\n        /* \"#utility.yul\":10887:11174   */\n      pop\n        /* \"#utility.yul\":11241:11243   */\n      0x20\n        /* \"#utility.yul\":11230:11239   */\n      dup11\n        /* \"#utility.yul\":11226:11244   */\n      add\n        /* \"#utility.yul\":11213:11245   */\n      calldataload\n        /* \"#utility.yul\":11272:11290   */\n      0xffffffffffffffff\n        /* \"#utility.yul\":11264:11270   */\n      dup2\n        /* \"#utility.yul\":11261:11291   */\n      gt\n        /* \"#utility.yul\":11258:11375   */\n      iszero\n      tag_291\n      jumpi\n        /* \"#utility.yul\":11294:11373   */\n      tag_292\n      tag_108\n      jump\t// in\n    tag_292:\n        /* \"#utility.yul\":11258:11375   */\n    tag_291:\n        /* \"#utility.yul\":11399:11462   */\n      tag_293\n        /* \"#utility.yul\":11454:11461   */\n      dup13\n        /* \"#utility.yul\":11445:11451   */\n      dup3\n        /* \"#utility.yul\":11434:11443   */\n      dup14\n        /* \"#utility.yul\":11430:11452   */\n      add\n        /* \"#utility.yul\":11399:11462   */\n      tag_121\n      jump\t// in\n    tag_293:\n        /* \"#utility.yul\":11389:11462   */\n      swap9\n      pop\n        /* \"#utility.yul\":11184:11472   */\n      pop\n        /* \"#utility.yul\":11539:11541   */\n      0x40\n        /* \"#utility.yul\":11528:11537   */\n      dup11\n        /* \"#utility.yul\":11524:11542   */\n      add\n        /* \"#utility.yul\":11511:11543   */\n      calldataload\n        /* \"#utility.yul\":11570:11588   */\n      0xffffffffffffffff\n        /* \"#utility.yul\":11562:11568   */\n      dup2\n        /* \"#utility.yul\":11559:11589   */\n      gt\n        /* \"#utility.yul\":11556:11673   */\n      iszero\n      tag_294\n      jumpi\n        /* \"#utility.yul\":11592:11671   */\n      tag_295\n      tag_108\n      jump\t// in\n    tag_295:\n        /* \"#utility.yul\":11556:11673   */\n    tag_294:\n        /* \"#utility.yul\":11697:11760   */\n      tag_296\n        /* \"#utility.yul\":11752:11759   */\n      dup13\n        /* \"#utility.yul\":11743:11749   */\n      dup3\n        /* \"#utility.yul\":11732:11741   */\n      dup14\n        /* \"#utility.yul\":11728:11750   */\n      add\n        /* \"#utility.yul\":11697:11760   */\n      tag_121\n      jump\t// in\n    tag_296:\n        /* \"#utility.yul\":11687:11760   */\n      swap8\n      pop\n        /* \"#utility.yul\":11482:11770   */\n      pop\n        /* \"#utility.yul\":11837:11839   */\n      0x60\n        /* \"#utility.yul\":11826:11835   */\n      dup11\n        /* \"#utility.yul\":11822:11840   */\n      add\n        /* \"#utility.yul\":11809:11841   */\n      calldataload\n        /* \"#utility.yul\":11868:11886   */\n      0xffffffffffffffff\n        /* \"#utility.yul\":11860:11866   */\n      dup2\n        /* \"#utility.yul\":11857:11887   */\n      gt\n        /* \"#utility.yul\":11854:11971   */\n      iszero\n      tag_297\n      jumpi\n        /* \"#utility.yul\":11890:11969   */\n      tag_298\n      tag_108\n      jump\t// in\n    tag_298:\n        /* \"#utility.yul\":11854:11971   */\n    tag_297:\n        /* \"#utility.yul\":11995:12083   */\n      tag_299\n        /* \"#utility.yul\":12075:12082   */\n      dup13\n        /* \"#utility.yul\":12066:12072   */\n      dup3\n        /* \"#utility.yul\":12055:12064   */\n      dup14\n        /* \"#utility.yul\":12051:12073   */\n      add\n        /* \"#utility.yul\":11995:12083   */\n      tag_136\n      jump\t// in\n    tag_299:\n        /* \"#utility.yul\":11985:12083   */\n      swap7\n      pop\n        /* \"#utility.yul\":11780:12093   */\n      pop\n        /* \"#utility.yul\":12160:12163   */\n      0x80\n        /* \"#utility.yul\":12149:12158   */\n      dup11\n        /* \"#utility.yul\":12145:12164   */\n      add\n        /* \"#utility.yul\":12132:12165   */\n      calldataload\n        /* \"#utility.yul\":12192:12210   */\n      0xffffffffffffffff\n        /* \"#utility.yul\":12184:12190   */\n      dup2\n        /* \"#utility.yul\":12181:12211   */\n      gt\n        /* \"#utility.yul\":12178:12295   */\n      iszero\n      tag_300\n      jumpi\n        /* \"#utility.yul\":12214:12293   */\n      tag_301\n      tag_108\n      jump\t// in\n    tag_301:\n        /* \"#utility.yul\":12178:12295   */\n    tag_300:\n        /* \"#utility.yul\":12319:12407   */\n      tag_302\n        /* \"#utility.yul\":12399:12406   */\n      dup13\n        /* \"#utility.yul\":12390:12396   */\n      dup3\n        /* \"#utility.yul\":12379:12388   */\n      dup14\n        /* \"#utility.yul\":12375:12397   */\n      add\n        /* \"#utility.yul\":12319:12407   */\n      tag_136\n      jump\t// in\n    tag_302:\n        /* \"#utility.yul\":12309:12407   */\n      swap6\n      pop\n        /* \"#utility.yul\":12103:12417   */\n      pop\n        /* \"#utility.yul\":12456:12459   */\n      0xa0\n        /* \"#utility.yul\":12483:12536   */\n      tag_303\n        /* \"#utility.yul\":12528:12535   */\n      dup13\n        /* \"#utility.yul\":12519:12525   */\n      dup3\n        /* \"#utility.yul\":12508:12517   */\n      dup14\n        /* \"#utility.yul\":12504:12526   */\n      add\n        /* \"#utility.yul\":12483:12536   */\n      tag_111\n      jump\t// in\n    tag_303:\n        /* \"#utility.yul\":12473:12536   */\n      swap5\n      pop\n        /* \"#utility.yul\":12427:12546   */\n      pop\n        /* \"#utility.yul\":12613:12616   */\n      0xc0\n        /* \"#utility.yul\":12602:12611   */\n      dup11\n        /* \"#utility.yul\":12598:12617   */\n      add\n        /* \"#utility.yul\":12585:12618   */\n      calldataload\n        /* \"#utility.yul\":12645:12663   */\n      0xffffffffffffffff\n        /* \"#utility.yul\":12637:12643   */\n      dup2\n        /* \"#utility.yul\":12634:12664   */\n      gt\n        /* \"#utility.yul\":12631:12748   */\n      iszero\n      tag_304\n      jumpi\n        /* \"#utility.yul\":12667:12746   */\n      tag_305\n      tag_108\n      jump\t// in\n    tag_305:\n        /* \"#utility.yul\":12631:12748   */\n    tag_304:\n        /* \"#utility.yul\":12772:12835   */\n      tag_306\n        /* \"#utility.yul\":12827:12834   */\n      dup13\n        /* \"#utility.yul\":12818:12824   */\n      dup3\n        /* \"#utility.yul\":12807:12816   */\n      dup14\n        /* \"#utility.yul\":12803:12825   */\n      add\n        /* \"#utility.yul\":12772:12835   */\n      tag_121\n      jump\t// in\n    tag_306:\n        /* \"#utility.yul\":12762:12835   */\n      swap4\n      pop\n        /* \"#utility.yul\":12556:12845   */\n      pop\n        /* \"#utility.yul\":12912:12915   */\n      0xe0\n        /* \"#utility.yul\":12901:12910   */\n      dup11\n        /* \"#utility.yul\":12897:12916   */\n      add\n        /* \"#utility.yul\":12884:12917   */\n      calldataload\n        /* \"#utility.yul\":12944:12962   */\n      0xffffffffffffffff\n        /* \"#utility.yul\":12936:12942   */\n      dup2\n        /* \"#utility.yul\":12933:12963   */\n      gt\n        /* \"#utility.yul\":12930:13047   */\n      iszero\n      tag_307\n      jumpi\n        /* \"#utility.yul\":12966:13045   */\n      tag_308\n      tag_108\n      jump\t// in\n    tag_308:\n        /* \"#utility.yul\":12930:13047   */\n    tag_307:\n        /* \"#utility.yul\":13071:13134   */\n      tag_309\n        /* \"#utility.yul\":13126:13133   */\n      dup13\n        /* \"#utility.yul\":13117:13123   */\n      dup3\n        /* \"#utility.yul\":13106:13115   */\n      dup14\n        /* \"#utility.yul\":13102:13124   */\n      add\n        /* \"#utility.yul\":13071:13134   */\n      tag_121\n      jump\t// in\n    tag_309:\n        /* \"#utility.yul\":13061:13134   */\n      swap3\n      pop\n        /* \"#utility.yul\":12855:13144   */\n      pop\n        /* \"#utility.yul\":13183:13186   */\n      0x0100\n        /* \"#utility.yul\":13210:13260   */\n      tag_310\n        /* \"#utility.yul\":13252:13259   */\n      dup13\n        /* \"#utility.yul\":13243:13249   */\n      dup3\n        /* \"#utility.yul\":13232:13241   */\n      dup14\n        /* \"#utility.yul\":13228:13250   */\n      add\n        /* \"#utility.yul\":13210:13260   */\n      tag_138\n      jump\t// in\n    tag_310:\n        /* \"#utility.yul\":13200:13260   */\n      swap2\n      pop\n        /* \"#utility.yul\":13154:13270   */\n      pop\n        /* \"#utility.yul\":10428:13277   */\n      swap3\n      swap6\n      swap9\n      pop\n      swap3\n      swap6\n      swap9\n      pop\n      swap3\n      swap6\n      swap9\n      jump\t// out\n        /* \"#utility.yul\":13283:13455   */\n    tag_139:\n        /* \"#utility.yul\":13423:13447   */\n      0x50726f6475637420646f6573206e6f7420657869737400000000000000000000\n        /* \"#utility.yul\":13419:13420   */\n      0x00\n        /* \"#utility.yul\":13411:13417   */\n      dup3\n        /* \"#utility.yul\":13407:13421   */\n      add\n        /* \"#utility.yul\":13400:13448   */\n      mstore\n        /* \"#utility.yul\":13283:13455   */\n      pop\n      jump\t// out\n        /* \"#utility.yul\":13461:13827   */\n    tag_140:\n        /* \"#utility.yul\":13603:13606   */\n      0x00\n        /* \"#utility.yul\":13624:13691   */\n      tag_313\n        /* \"#utility.yul\":13688:13690   */\n      0x16\n        /* \"#utility.yul\":13683:13686   */\n      dup4\n        /* \"#utility.yul\":13624:13691   */\n      tag_124\n      jump\t// in\n    tag_313:\n        /* \"#utility.yul\":13617:13691   */\n      swap2\n      pop\n        /* \"#utility.yul\":13700:13793   */\n      tag_314\n        /* \"#utility.yul\":13789:13792   */\n      dup3\n        /* \"#utility.yul\":13700:13793   */\n      tag_139\n      jump\t// in\n    tag_314:\n        /* \"#utility.yul\":13818:13820   */\n      0x20\n        /* \"#utility.yul\":13813:13816   */\n      dup3\n        /* \"#utility.yul\":13809:13821   */\n      add\n        /* \"#utility.yul\":13802:13821   */\n      swap1\n      pop\n        /* \"#utility.yul\":13461:13827   */\n      swap2\n      swap1\n      pop\n      jump\t// out\n        /* \"#utility.yul\":13833:14252   */\n    tag_23:\n        /* \"#utility.yul\":13999:14003   */\n      0x00\n        /* \"#utility.yul\":14037:14039   */\n      0x20\n        /* \"#utility.yul\":14026:14035   */\n      dup3\n        /* \"#utility.yul\":14022:14040   */\n      add\n        /* \"#utility.yul\":14014:14040   */\n      swap1\n      pop\n        /* \"#utility.yul\":14086:14095   */\n      dup2\n        /* \"#utility.yul\":14080:14084   */\n      dup2\n        /* \"#utility.yul\":14076:14096   */\n      sub\n        /* \"#utility.yul\":14072:14073   */\n      0x00\n        /* \"#utility.yul\":14061:14070   */\n      dup4\n        /* \"#utility.yul\":14057:14074   */\n      add\n        /* \"#utility.yul\":14050:14097   */\n      mstore\n        /* \"#utility.yul\":14114:14245   */\n      tag_316\n        /* \"#utility.yul\":14240:14244   */\n      dup2\n        /* \"#utility.yul\":14114:14245   */\n      tag_140\n      jump\t// in\n    tag_316:\n        /* \"#utility.yul\":14106:14245   */\n      swap1\n      pop\n        /* \"#utility.yul\":13833:14252   */\n      swap2\n      swap1\n      pop\n      jump\t// out\n        /* \"#utility.yul\":14258:14431   */\n    tag_141:\n        /* \"#utility.yul\":14398:14423   */\n      0x50726f64756374206973206f7574206f662073746f636b000000000000000000\n        /* \"#utility.yul\":14394:14395   */\n      0x00\n        /* \"#utility.yul\":14386:14392   */\n      dup3\n        /* \"#utility.yul\":14382:14396   */\n      add\n        /* \"#utility.yul\":14375:14424   */\n      mstore\n        /* \"#utility.yul\":14258:14431   */\n      pop\n      jump\t// out\n        /* \"#utility.yul\":14437:14803   */\n    tag_142:\n        /* \"#utility.yul\":14579:14582   */\n      0x00\n        /* \"#utility.yul\":14600:14667   */\n      tag_319\n        /* \"#utility.yul\":14664:14666   */\n      0x17\n        /* \"#utility.yul\":14659:14662   */\n      dup4\n        /* \"#utility.yul\":14600:14667   */\n      tag_124\n      jump\t// in\n    tag_319:\n        /* \"#utility.yul\":14593:14667   */\n      swap2\n      pop\n        /* \"#utility.yul\":14676:14769   */\n      tag_320\n        /* \"#utility.yul\":14765:14768   */\n      dup3\n        /* \"#utility.yul\":14676:14769   */\n      tag_141\n      jump\t// in\n    tag_320:\n        /* \"#utility.yul\":14794:14796   */\n      0x20\n        /* \"#utility.yul\":14789:14792   */\n      dup3\n        /* \"#utility.yul\":14785:14797   */\n      add\n        /* \"#utility.yul\":14778:14797   */\n      swap1\n      pop\n        /* \"#utility.yul\":14437:14803   */\n      swap2\n      swap1\n      pop\n      jump\t// out\n        /* \"#utility.yul\":14809:15228   */\n    tag_26:\n        /* \"#utility.yul\":14975:14979   */\n      0x00\n        /* \"#utility.yul\":15013:15015   */\n      0x20\n        /* \"#utility.yul\":15002:15011   */\n      dup3\n        /* \"#utility.yul\":14998:15016   */\n      add\n        /* \"#utility.yul\":14990:15016   */\n      swap1\n      pop\n        /* \"#utility.yul\":15062:15071   */\n      dup2\n        /* \"#utility.yul\":15056:15060   */\n      dup2\n        /* \"#utility.yul\":15052:15072   */\n      sub\n        /* \"#utility.yul\":15048:15049   */\n      0x00\n        /* \"#utility.yul\":15037:15046   */\n      dup4\n        /* \"#utility.yul\":15033:15050   */\n      add\n        /* \"#utility.yul\":15026:15073   */\n      mstore\n        /* \"#utility.yul\":15090:15221   */\n      tag_322\n        /* \"#utility.yul\":15216:15220   */\n      dup2\n        /* \"#utility.yul\":15090:15221   */\n      tag_142\n      jump\t// in\n    tag_322:\n        /* \"#utility.yul\":15082:15221   */\n      swap1\n      pop\n        /* \"#utility.yul\":14809:15228   */\n      swap2\n      swap1\n      pop\n      jump\t// out\n        /* \"#utility.yul\":15234:15408   */\n    tag_143:\n        /* \"#utility.yul\":15374:15400   */\n      0x50726f6475637420686173206265656e20736869707065640000000000000000\n        /* \"#utility.yul\":15370:15371   */\n      0x00\n        /* \"#utility.yul\":15362:15368   */\n      dup3\n        /* \"#utility.yul\":15358:15372   */\n      add\n        /* \"#utility.yul\":15351:15401   */\n      mstore\n        /* \"#utility.yul\":15234:15408   */\n      pop\n      jump\t// out\n        /* \"#utility.yul\":15414:15780   */\n    tag_144:\n        /* \"#utility.yul\":15556:15559   */\n      0x00\n        /* \"#utility.yul\":15577:15644   */\n      tag_325\n        /* \"#utility.yul\":15641:15643   */\n      0x18\n        /* \"#utility.yul\":15636:15639   */\n      dup4\n        /* \"#utility.yul\":15577:15644   */\n      tag_124\n      jump\t// in\n    tag_325:\n        /* \"#utility.yul\":15570:15644   */\n      swap2\n      pop\n        /* \"#utility.yul\":15653:15746   */\n      tag_326\n        /* \"#utility.yul\":15742:15745   */\n      dup3\n        /* \"#utility.yul\":15653:15746   */\n      tag_143\n      jump\t// in\n    tag_326:\n        /* \"#utility.yul\":15771:15773   */\n      0x20\n        /* \"#utility.yul\":15766:15769   */\n      dup3\n        /* \"#utility.yul\":15762:15774   */\n      add\n        /* \"#utility.yul\":15755:15774   */\n      swap1\n      pop\n        /* \"#utility.yul\":15414:15780   */\n      swap2\n      swap1\n      pop\n      jump\t// out\n        /* \"#utility.yul\":15786:16205   */\n    tag_29:\n        /* \"#utility.yul\":15952:15956   */\n      0x00\n        /* \"#utility.yul\":15990:15992   */\n      0x20\n        /* \"#utility.yul\":15979:15988   */\n      dup3\n        /* \"#utility.yul\":15975:15993   */\n      add\n        /* \"#utility.yul\":15967:15993   */\n      swap1\n      pop\n        /* \"#utility.yul\":16039:16048   */\n      dup2\n        /* \"#utility.yul\":16033:16037   */\n      dup2\n        /* \"#utility.yul\":16029:16049   */\n      sub\n        /* \"#utility.yul\":16025:16026   */\n      0x00\n        /* \"#utility.yul\":16014:16023   */\n      dup4\n        /* \"#utility.yul\":16010:16027   */\n      add\n        /* \"#utility.yul\":16003:16050   */\n      mstore\n        /* \"#utility.yul\":16067:16198   */\n      tag_328\n        /* \"#utility.yul\":16193:16197   */\n      dup2\n        /* \"#utility.yul\":16067:16198   */\n      tag_144\n      jump\t// in\n    tag_328:\n        /* \"#utility.yul\":16059:16198   */\n      swap1\n      pop\n        /* \"#utility.yul\":15786:16205   */\n      swap2\n      swap1\n      pop\n      jump\t// out\n        /* \"#utility.yul\":16211:16391   */\n    tag_145:\n        /* \"#utility.yul\":16259:16336   */\n      0x4e487b7100000000000000000000000000000000000000000000000000000000\n        /* \"#utility.yul\":16256:16257   */\n      0x00\n        /* \"#utility.yul\":16249:16337   */\n      mstore\n        /* \"#utility.yul\":16356:16360   */\n      0x22\n        /* \"#utility.yul\":16353:16354   */\n      0x04\n        /* \"#utility.yul\":16346:16361   */\n      mstore\n        /* \"#utility.yul\":16380:16384   */\n      0x24\n        /* \"#utility.yul\":16377:16378   */\n      0x00\n        /* \"#utility.yul\":16370:16385   */\n      revert\n        /* \"#utility.yul\":16397:16717   */\n    tag_36:\n        /* \"#utility.yul\":16441:16447   */\n      0x00\n        /* \"#utility.yul\":16478:16479   */\n      0x02\n        /* \"#utility.yul\":16472:16476   */\n      dup3\n        /* \"#utility.yul\":16468:16480   */\n      div\n        /* \"#utility.yul\":16458:16480   */\n      swap1\n      pop\n        /* \"#utility.yul\":16525:16526   */\n      0x01\n        /* \"#utility.yul\":16519:16523   */\n      dup3\n        /* \"#utility.yul\":16515:16527   */\n      and\n        /* \"#utility.yul\":16546:16564   */\n      dup1\n        /* \"#utility.yul\":16536:16617   */\n      tag_331\n      jumpi\n        /* \"#utility.yul\":16602:16606   */\n      0x7f\n        /* \"#utility.yul\":16594:16600   */\n      dup3\n        /* \"#utility.yul\":16590:16607   */\n      and\n        /* \"#utility.yul\":16580:16607   */\n      swap2\n      pop\n        /* \"#utility.yul\":16536:16617   */\n    tag_331:\n        /* \"#utility.yul\":16664:16666   */\n      0x20\n        /* \"#utility.yul\":16656:16662   */\n      dup3\n        /* \"#utility.yul\":16653:16667   */\n      lt\n        /* \"#utility.yul\":16633:16651   */\n      dup2\n        /* \"#utility.yul\":16630:16668   */\n      sub\n        /* \"#utility.yul\":16627:16711   */\n      tag_332\n      jumpi\n        /* \"#utility.yul\":16683:16701   */\n      tag_333\n      tag_145\n      jump\t// in\n    tag_333:\n        /* \"#utility.yul\":16627:16711   */\n    tag_332:\n        /* \"#utility.yul\":16448:16717   */\n      pop\n        /* \"#utility.yul\":16397:16717   */\n      swap2\n      swap1\n      pop\n      jump\t// out\n        /* \"#utility.yul\":16723:16864   */\n    tag_146:\n        /* \"#utility.yul\":16772:16776   */\n      0x00\n        /* \"#utility.yul\":16795:16798   */\n      dup2\n        /* \"#utility.yul\":16787:16798   */\n      swap1\n      pop\n        /* \"#utility.yul\":16818:16821   */\n      dup2\n        /* \"#utility.yul\":16815:16816   */\n      0x00\n        /* \"#utility.yul\":16808:16822   */\n      mstore\n        /* \"#utility.yul\":16852:16856   */\n      0x20\n        /* \"#utility.yul\":16849:16850   */\n      0x00\n        /* \"#utility.yul\":16839:16857   */\n      keccak256\n        /* \"#utility.yul\":16831:16857   */\n      swap1\n      pop\n        /* \"#utility.yul\":16723:16864   */\n      swap2\n      swap1\n      pop\n      jump\t// out\n        /* \"#utility.yul\":16870:16963   */\n    tag_147:\n        /* \"#utility.yul\":16907:16913   */\n      0x00\n        /* \"#utility.yul\":16954:16956   */\n      0x20\n        /* \"#utility.yul\":16949:16951   */\n      0x1f\n        /* \"#utility.yul\":16942:16947   */\n      dup4\n        /* \"#utility.yul\":16938:16952   */\n      add\n        /* \"#utility.yul\":16934:16957   */\n      div\n        /* \"#utility.yul\":16924:16957   */\n      swap1\n      pop\n        /* \"#utility.yul\":16870:16963   */\n      swap2\n      swap1\n      pop\n      jump\t// out\n        /* \"#utility.yul\":16969:17076   */\n    tag_148:\n        /* \"#utility.yul\":17013:17021   */\n      0x00\n        /* \"#utility.yul\":17063:17068   */\n      dup3\n        /* \"#utility.yul\":17057:17061   */\n      dup3\n        /* \"#utility.yul\":17053:17069   */\n      shl\n        /* \"#utility.yul\":17032:17069   */\n      swap1\n      pop\n        /* \"#utility.yul\":16969:17076   */\n      swap3\n      swap2\n      pop\n      pop\n      jump\t// out\n        /* \"#utility.yul\":17082:17475   */\n    tag_149:\n        /* \"#utility.yul\":17151:17157   */\n      0x00\n        /* \"#utility.yul\":17201:17202   */\n      0x08\n        /* \"#utility.yul\":17189:17199   */\n      dup4\n        /* \"#utility.yul\":17185:17203   */\n      mul\n        /* \"#utility.yul\":17224:17321   */\n      tag_338\n        /* \"#utility.yul\":17254:17320   */\n      0xffffffffffffffffffffffffffffffffffffffffffffffffffffffffffffffff\n        /* \"#utility.yul\":17243:17252   */\n      dup3\n        /* \"#utility.yul\":17224:17321   */\n      tag_148\n      jump\t// in\n    tag_338:\n        /* \"#utility.yul\":17342:17381   */\n      tag_339\n        /* \"#utility.yul\":17372:17380   */\n      dup7\n        /* \"#utility.yul\":17361:17370   */\n      dup4\n        /* \"#utility.yul\":17342:17381   */\n      tag_148\n      jump\t// in\n    tag_339:\n        /* \"#utility.yul\":17330:17381   */\n      swap6\n      pop\n        /* \"#utility.yul\":17414:17418   */\n      dup1\n        /* \"#utility.yul\":17410:17419   */\n      not\n        /* \"#utility.yul\":17403:17408   */\n      dup5\n        /* \"#utility.yul\":17399:17420   */\n      and\n        /* \"#utility.yul\":17390:17420   */\n      swap4\n      pop\n        /* \"#utility.yul\":17463:17467   */\n      dup1\n        /* \"#utility.yul\":17453:17461   */\n      dup7\n        /* \"#utility.yul\":17449:17468   */\n      and\n        /* \"#utility.yul\":17442:17447   */\n      dup5\n        /* \"#utility.yul\":17439:17469   */\n      or\n        /* \"#utility.yul\":17429:17469   */\n      swap3\n      pop\n        /* \"#utility.yul\":17158:17475   */\n      pop\n      pop\n        /* \"#utility.yul\":17082:17475   */\n      swap4\n      swap3\n      pop\n      pop\n      pop\n      jump\t// out\n        /* \"#utility.yul\":17481:17541   */\n    tag_150:\n        /* \"#utility.yul\":17509:17512   */\n      0x00\n        /* \"#utility.yul\":17530:17535   */\n      dup2\n        /* \"#utility.yul\":17523:17535   */\n      swap1\n      pop\n        /* \"#utility.yul\":17481:17541   */\n      swap2\n      swap1\n      pop\n      jump\t// out\n        /* \"#utility.yul\":17547:17689   */\n    tag_151:\n        /* \"#utility.yul\":17597:17606   */\n      0x00\n        /* \"#utility.yul\":17630:17683   */\n      tag_342\n        /* \"#utility.yul\":17648:17682   */\n      tag_343\n        /* \"#utility.yul\":17657:17681   */\n      tag_344\n        /* \"#utility.yul\":17675:17680   */\n      dup5\n        /* \"#utility.yul\":17657:17681   */\n      tag_109\n      jump\t// in\n    tag_344:\n        /* \"#utility.yul\":17648:17682   */\n      tag_150\n      jump\t// in\n    tag_343:\n        /* \"#utility.yul\":17630:17683   */\n      tag_109\n      jump\t// in\n    tag_342:\n        /* \"#utility.yul\":17617:17683   */\n      swap1\n      pop\n        /* \"#utility.yul\":17547:17689   */\n      swap2\n      swap1\n      pop\n      jump\t// out\n        /* \"#utility.yul\":17695:17770   */\n    tag_152:\n        /* \"#utility.yul\":17738:17741   */\n      0x00\n        /* \"#utility.yul\":17759:17764   */\n      dup2\n        /* \"#utility.yul\":17752:17764   */\n      swap1\n      pop\n        /* \"#utility.yul\":17695:17770   */\n      swap2\n      swap1\n      pop\n      jump\t// out\n        /* \"#utility.yul\":17776:18045   */\n    tag_153:\n        /* \"#utility.yul\":17886:17925   */\n      tag_347\n        /* \"#utility.yul\":17917:17924   */\n      dup4\n        /* \"#utility.yul\":17886:17925   */\n      tag_151\n      jump\t// in\n    tag_347:\n        /* \"#utility.yul\":17947:18038   */\n      tag_348\n        /* \"#utility.yul\":17996:18037   */\n      tag_349\n        /* \"#utility.yul\":18020:18036   */\n      dup3\n        /* \"#utility.yul\":17996:18037   */\n      tag_152\n      jump\t// in\n    tag_349:\n        /* \"#utility.yul\":17988:17994   */\n      dup5\n        /* \"#utility.yul\":17981:17985   */\n      dup5\n        /* \"#utility.yul\":17975:17986   */\n      sload\n        /* \"#utility.yul\":17947:18038   */\n      tag_149\n      jump\t// in\n    tag_348:\n        /* \"#utility.yul\":17941:17945   */\n      dup3\n        /* \"#utility.yul\":17934:18039   */\n      sstore\n        /* \"#utility.yul\":17852:18045   */\n      pop\n        /* \"#utility.yul\":17776:18045   */\n      pop\n      pop\n      pop\n      jump\t// out\n        /* \"#utility.yul\":18051:18124   */\n    tag_154:\n        /* \"#utility.yul\":18096:18099   */\n      0x00\n        /* \"#utility.yul\":18051:18124   */\n      swap1\n      jump\t// out\n        /* \"#utility.yul\":18130:18319   */\n    tag_155:\n        /* \"#utility.yul\":18207:18239   */\n      tag_352\n      tag_154\n      jump\t// in\n    tag_352:\n        /* \"#utility.yul\":18248:18313   */\n      tag_353\n        /* \"#utility.yul\":18306:18312   */\n      dup2\n        /* \"#utility.yul\":18298:18304   */\n      dup5\n        /* \"#utility.yul\":18292:18296   */\n      dup5\n        /* \"#utility.yul\":18248:18313   */\n      tag_153\n      jump\t// in\n    tag_353:\n        /* \"#utility.yul\":18183:18319   */\n      pop\n        /* \"#utility.yul\":18130:18319   */\n      pop\n      pop\n      jump\t// out\n        /* \"#utility.yul\":18325:18511   */\n    tag_156:\n        /* \"#utility.yul\":18385:18505   */\n    tag_355:\n        /* \"#utility.yul\":18402:18405   */\n      dup2\n        /* \"#utility.yul\":18395:18400   */\n      dup2\n        /* \"#utility.yul\":18392:18406   */\n      lt\n        /* \"#utility.yul\":18385:18505   */\n      iszero\n      tag_357\n      jumpi\n        /* \"#utility.yul\":18456:18495   */\n      tag_358\n        /* \"#utility.yul\":18493:18494   */\n      0x00\n        /* \"#utility.yul\":18486:18491   */\n      dup3\n        /* \"#utility.yul\":18456:18495   */\n      tag_155\n      jump\t// in\n    tag_358:\n        /* \"#utility.yul\":18429:18430   */\n      0x01\n        /* \"#utility.yul\":18422:18427   */\n      dup2\n        /* \"#utility.yul\":18418:18431   */\n      add\n        /* \"#utility.yul\":18409:18431   */\n      swap1\n      pop\n        /* \"#utility.yul\":18385:18505   */\n      jump(tag_355)\n    tag_357:\n        /* \"#utility.yul\":18325:18511   */\n      pop\n      pop\n      jump\t// out\n        /* \"#utility.yul\":18517:19060   */\n    tag_157:\n        /* \"#utility.yul\":18618:18620   */\n      0x1f\n        /* \"#utility.yul\":18613:18616   */\n      dup3\n        /* \"#utility.yul\":18610:18621   */\n      gt\n        /* \"#utility.yul\":18607:19053   */\n      iszero\n      tag_360\n      jumpi\n        /* \"#utility.yul\":18652:18690   */\n      tag_361\n        /* \"#utility.yul\":18684:18689   */\n      dup2\n        /* \"#utility.yul\":18652:18690   */\n      tag_146\n      jump\t// in\n    tag_361:\n        /* \"#utility.yul\":18736:18765   */\n      tag_362\n        /* \"#utility.yul\":18754:18764   */\n      dup5\n        /* \"#utility.yul\":18736:18765   */\n      tag_147\n      jump\t// in\n    tag_362:\n        /* \"#utility.yul\":18726:18734   */\n      dup2\n        /* \"#utility.yul\":18722:18766   */\n      add\n        /* \"#utility.yul\":18919:18921   */\n      0x20\n        /* \"#utility.yul\":18907:18917   */\n      dup6\n        /* \"#utility.yul\":18904:18922   */\n      lt\n        /* \"#utility.yul\":18901:18950   */\n      iszero\n      tag_363\n      jumpi\n        /* \"#utility.yul\":18940:18948   */\n      dup2\n        /* \"#utility.yul\":18925:18948   */\n      swap1\n      pop\n        /* \"#utility.yul\":18901:18950   */\n    tag_363:\n        /* \"#utility.yul\":18963:19043   */\n      tag_364\n        /* \"#utility.yul\":19019:19041   */\n      tag_365\n        /* \"#utility.yul\":19037:19040   */\n      dup6\n        /* \"#utility.yul\":19019:19041   */\n      tag_147\n      jump\t// in\n    tag_365:\n        /* \"#utility.yul\":19009:19017   */\n      dup4\n        /* \"#utility.yul\":19005:19042   */\n      add\n        /* \"#utility.yul\":18992:19003   */\n      dup3\n        /* \"#utility.yul\":18963:19043   */\n      tag_156\n      jump\t// in\n    tag_364:\n        /* \"#utility.yul\":18622:19053   */\n      pop\n      pop\n        /* \"#utility.yul\":18607:19053   */\n    tag_360:\n        /* \"#utility.yul\":18517:19060   */\n      pop\n      pop\n      pop\n      jump\t// out\n        /* \"#utility.yul\":19066:19183   */\n    tag_158:\n        /* \"#utility.yul\":19120:19128   */\n      0x00\n        /* \"#utility.yul\":19170:19175   */\n      dup3\n        /* \"#utility.yul\":19164:19168   */\n      dup3\n        /* \"#utility.yul\":19160:19176   */\n      shr\n        /* \"#utility.yul\":19139:19176   */\n      swap1\n      pop\n        /* \"#utility.yul\":19066:19183   */\n      swap3\n      swap2\n      pop\n      pop\n      jump\t// out\n        /* \"#utility.yul\":19189:19358   */\n    tag_159:\n        /* \"#utility.yul\":19233:19239   */\n      0x00\n        /* \"#utility.yul\":19266:19317   */\n      tag_368\n        /* \"#utility.yul\":19314:19315   */\n      0x00\n        /* \"#utility.yul\":19310:19316   */\n      not\n        /* \"#utility.yul\":19302:19307   */\n      dup5\n        /* \"#utility.yul\":19299:19300   */\n      0x08\n        /* \"#utility.yul\":19295:19308   */\n      mul\n        /* \"#utility.yul\":19266:19317   */\n      tag_158\n      jump\t// in\n    tag_368:\n        /* \"#utility.yul\":19262:19318   */\n      not\n        /* \"#utility.yul\":19347:19351   */\n      dup1\n        /* \"#utility.yul\":19341:19345   */\n      dup4\n        /* \"#utility.yul\":19337:19352   */\n      and\n        /* \"#utility.yul\":19327:19352   */\n      swap2\n      pop\n        /* \"#utility.yul\":19240:19358   */\n      pop\n        /* \"#utility.yul\":19189:19358   */\n      swap3\n      swap2\n      pop\n      pop\n      jump\t// out\n        /* \"#utility.yul\":19363:19658   */\n    tag_160:\n        /* \"#utility.yul\":19439:19443   */\n      0x00\n        /* \"#utility.yul\":19585:19614   */\n      tag_370\n        /* \"#utility.yul\":19610:19613   */\n      dup4\n        /* \"#utility.yul\":19604:19608   */\n      dup4\n        /* \"#utility.yul\":19585:19614   */\n      tag_159\n      jump\t// in\n    tag_370:\n        /* \"#utility.yul\":19577:19614   */\n      swap2\n      pop\n        /* \"#utility.yul\":19647:19650   */\n      dup3\n        /* \"#utility.yul\":19644:19645   */\n      0x02\n        /* \"#utility.yul\":19640:19651   */\n      mul\n        /* \"#utility.yul\":19634:19638   */\n      dup3\n        /* \"#utility.yul\":19631:19652   */\n      or\n        /* \"#utility.yul\":19623:19652   */\n      swap1\n      pop\n        /* \"#utility.yul\":19363:19658   */\n      swap3\n      swap2\n      pop\n      pop\n      jump\t// out\n        /* \"#utility.yul\":19663:21058   */\n    tag_32:\n        /* \"#utility.yul\":19780:19817   */\n      tag_372\n        /* \"#utility.yul\":19813:19816   */\n      dup3\n        /* \"#utility.yul\":19780:19817   */\n      tag_123\n      jump\t// in\n    tag_372:\n        /* \"#utility.yul\":19882:19900   */\n      0xffffffffffffffff\n        /* \"#utility.yul\":19874:19880   */\n      dup2\n        /* \"#utility.yul\":19871:19901   */\n      gt\n        /* \"#utility.yul\":19868:19924   */\n      iszero\n      tag_373\n      jumpi\n        /* \"#utility.yul\":19904:19922   */\n      tag_374\n      tag_115\n      jump\t// in\n    tag_374:\n        /* \"#utility.yul\":19868:19924   */\n    tag_373:\n        /* \"#utility.yul\":19948:19986   */\n      tag_375\n        /* \"#utility.yul\":19980:19984   */\n      dup3\n        /* \"#utility.yul\":19974:19985   */\n      sload\n        /* \"#utility.yul\":19948:19986   */\n      tag_36\n      jump\t// in\n    tag_375:\n        /* \"#utility.yul\":20033:20100   */\n      tag_376\n        /* \"#utility.yul\":20093:20099   */\n      dup3\n        /* \"#utility.yul\":20085:20091   */\n      dup3\n        /* \"#utility.yul\":20079:20083   */\n      dup6\n        /* \"#utility.yul\":20033:20100   */\n      tag_157\n      jump\t// in\n    tag_376:\n        /* \"#utility.yul\":20127:20128   */\n      0x00\n        /* \"#utility.yul\":20151:20155   */\n      0x20\n        /* \"#utility.yul\":20138:20155   */\n      swap1\n      pop\n        /* \"#utility.yul\":20183:20185   */\n      0x1f\n        /* \"#utility.yul\":20175:20181   */\n      dup4\n        /* \"#utility.yul\":20172:20186   */\n      gt\n        /* \"#utility.yul\":20200:20201   */\n      0x01\n        /* \"#utility.yul\":20195:20813   */\n      dup2\n      eq\n      tag_378\n      jumpi\n        /* \"#utility.yul\":20857:20858   */\n      0x00\n        /* \"#utility.yul\":20874:20880   */\n      dup5\n        /* \"#utility.yul\":20871:20948   */\n      iszero\n      tag_379\n      jumpi\n        /* \"#utility.yul\":20923:20932   */\n      dup3\n        /* \"#utility.yul\":20918:20921   */\n      dup8\n        /* \"#utility.yul\":20914:20933   */\n      add\n        /* \"#utility.yul\":20908:20934   */\n      mload\n        /* \"#utility.yul\":20899:20934   */\n      swap1\n      pop\n        /* \"#utility.yul\":20871:20948   */\n    tag_379:\n        /* \"#utility.yul\":20974:21041   */\n      tag_380\n        /* \"#utility.yul\":21034:21040   */\n      dup6\n        /* \"#utility.yul\":21027:21032   */\n      dup3\n        /* \"#utility.yul\":20974:21041   */\n      tag_160\n      jump\t// in\n    tag_380:\n        /* \"#utility.yul\":20968:20972   */\n      dup7\n        /* \"#utility.yul\":20961:21042   */\n      sstore\n        /* \"#utility.yul\":20830:21052   */\n      pop\n        /* \"#utility.yul\":20165:21052   */\n      jump(tag_377)\n        /* \"#utility.yul\":20195:20813   */\n    tag_378:\n        /* \"#utility.yul\":20247:20251   */\n      0x1f\n        /* \"#utility.yul\":20243:20252   */\n      not\n        /* \"#utility.yul\":20235:20241   */\n      dup5\n        /* \"#utility.yul\":20231:20253   */\n      and\n        /* \"#utility.yul\":20281:20318   */\n      tag_381\n        /* \"#utility.yul\":20313:20317   */\n      dup7\n        /* \"#utility.yul\":20281:20318   */\n      tag_146\n      jump\t// in\n    tag_381:\n        /* \"#utility.yul\":20340:20341   */\n      0x00\n        /* \"#utility.yul\":20354:20562   */\n    tag_382:\n        /* \"#utility.yul\":20368:20375   */\n      dup3\n        /* \"#utility.yul\":20365:20366   */\n      dup2\n        /* \"#utility.yul\":20362:20376   */\n      lt\n        /* \"#utility.yul\":20354:20562   */\n      iszero\n      tag_384\n      jumpi\n        /* \"#utility.yul\":20447:20456   */\n      dup5\n        /* \"#utility.yul\":20442:20445   */\n      dup10\n        /* \"#utility.yul\":20438:20457   */\n      add\n        /* \"#utility.yul\":20432:20458   */\n      mload\n        /* \"#utility.yul\":20424:20430   */\n      dup3\n        /* \"#utility.yul\":20417:20459   */\n      sstore\n        /* \"#utility.yul\":20498:20499   */\n      0x01\n        /* \"#utility.yul\":20490:20496   */\n      dup3\n        /* \"#utility.yul\":20486:20500   */\n      add\n        /* \"#utility.yul\":20476:20500   */\n      swap2\n      pop\n        /* \"#utility.yul\":20545:20547   */\n      0x20\n        /* \"#utility.yul\":20534:20543   */\n      dup6\n        /* \"#utility.yul\":20530:20548   */\n      add\n        /* \"#utility.yul\":20517:20548   */\n      swap5\n      pop\n        /* \"#utility.yul\":20391:20395   */\n      0x20\n        /* \"#utility.yul\":20388:20389   */\n      dup2\n        /* \"#utility.yul\":20384:20396   */\n      add\n        /* \"#utility.yul\":20379:20396   */\n      swap1\n      pop\n        /* \"#utility.yul\":20354:20562   */\n      jump(tag_382)\n    tag_384:\n        /* \"#utility.yul\":20590:20596   */\n      dup7\n        /* \"#utility.yul\":20581:20588   */\n      dup4\n        /* \"#utility.yul\":20578:20597   */\n      lt\n        /* \"#utility.yul\":20575:20754   */\n      iszero\n      tag_385\n      jumpi\n        /* \"#utility.yul\":20648:20657   */\n      dup5\n        /* \"#utility.yul\":20643:20646   */\n      dup10\n        /* \"#utility.yul\":20639:20658   */\n      add\n        /* \"#utility.yul\":20633:20659   */\n      mload\n        /* \"#utility.yul\":20691:20739   */\n      tag_386\n        /* \"#utility.yul\":20733:20737   */\n      0x1f\n        /* \"#utility.yul\":20725:20731   */\n      dup10\n        /* \"#utility.yul\":20721:20738   */\n      and\n        /* \"#utility.yul\":20710:20719   */\n      dup3\n        /* \"#utility.yul\":20691:20739   */\n      tag_159\n      jump\t// in\n    tag_386:\n        /* \"#utility.yul\":20683:20689   */\n      dup4\n        /* \"#utility.yul\":20676:20740   */\n      sstore\n        /* \"#utility.yul\":20598:20754   */\n      pop\n        /* \"#utility.yul\":20575:20754   */\n    tag_385:\n        /* \"#utility.yul\":20800:20801   */\n      0x01\n        /* \"#utility.yul\":20796:20797   */\n      0x02\n        /* \"#utility.yul\":20788:20794   */\n      dup9\n        /* \"#utility.yul\":20784:20798   */\n      mul\n        /* \"#utility.yul\":20780:20802   */\n      add\n        /* \"#utility.yul\":20774:20778   */\n      dup9\n        /* \"#utility.yul\":20767:20803   */\n      sstore\n        /* \"#utility.yul\":20202:20813   */\n      pop\n      pop\n      pop\n        /* \"#utility.yul\":20165:21052   */\n    tag_377:\n      pop\n        /* \"#utility.yul\":19755:21058   */\n      pop\n      pop\n      pop\n        /* \"#utility.yul\":19663:21058   */\n      pop\n      pop\n      jump\t// out\n        /* \"#utility.yul\":21088:21919   */\n    tag_161:\n        /* \"#utility.yul\":21173:21176   */\n      0x00\n        /* \"#utility.yul\":21210:21215   */\n      dup2\n        /* \"#utility.yul\":21204:21216   */\n      sload\n        /* \"#utility.yul\":21239:21275   */\n      tag_388\n        /* \"#utility.yul\":21265:21274   */\n      dup2\n        /* \"#utility.yul\":21239:21275   */\n      tag_36\n      jump\t// in\n    tag_388:\n        /* \"#utility.yul\":21291:21362   */\n      tag_389\n        /* \"#utility.yul\":21355:21361   */\n      dup2\n        /* \"#utility.yul\":21350:21353   */\n      dup7\n        /* \"#utility.yul\":21291:21362   */\n      tag_124\n      jump\t// in\n    tag_389:\n        /* \"#utility.yul\":21284:21362   */\n      swap5\n      pop\n        /* \"#utility.yul\":21393:21394   */\n      0x01\n        /* \"#utility.yul\":21382:21391   */\n      dup3\n        /* \"#utility.yul\":21378:21395   */\n      and\n        /* \"#utility.yul\":21409:21410   */\n      0x00\n        /* \"#utility.yul\":21404:21568   */\n      dup2\n      eq\n      tag_391\n      jumpi\n        /* \"#utility.yul\":21582:21583   */\n      0x01\n        /* \"#utility.yul\":21577:21913   */\n      dup2\n      eq\n      tag_392\n      jumpi\n        /* \"#utility.yul\":21371:21913   */\n      jump(tag_390)\n        /* \"#utility.yul\":21404:21568   */\n    tag_391:\n        /* \"#utility.yul\":21488:21492   */\n      0xff\n        /* \"#utility.yul\":21484:21493   */\n      not\n        /* \"#utility.yul\":21473:21482   */\n      dup4\n        /* \"#utility.yul\":21469:21494   */\n      and\n        /* \"#utility.yul\":21464:21467   */\n      dup7\n        /* \"#utility.yul\":21457:21495   */\n      mstore\n        /* \"#utility.yul\":21548:21554   */\n      dup2\n        /* \"#utility.yul\":21541:21555   */\n      iszero\n        /* \"#utility.yul\":21534:21556   */\n      iszero\n        /* \"#utility.yul\":21528:21532   */\n      0x20\n        /* \"#utility.yul\":21524:21557   */\n      mul\n        /* \"#utility.yul\":21519:21522   */\n      dup7\n        /* \"#utility.yul\":21515:21558   */\n      add\n        /* \"#utility.yul\":21508:21558   */\n      swap4\n      pop\n        /* \"#utility.yul\":21404:21568   */\n      jump(tag_390)\n        /* \"#utility.yul\":21577:21913   */\n    tag_392:\n        /* \"#utility.yul\":21644:21682   */\n      tag_393\n        /* \"#utility.yul\":21676:21681   */\n      dup6\n        /* \"#utility.yul\":21644:21682   */\n      tag_146\n      jump\t// in\n    tag_393:\n        /* \"#utility.yul\":21704:21705   */\n      0x00\n        /* \"#utility.yul\":21718:21872   */\n    tag_394:\n        /* \"#utility.yul\":21732:21738   */\n      dup4\n        /* \"#utility.yul\":21729:21730   */\n      dup2\n        /* \"#utility.yul\":21726:21739   */\n      lt\n        /* \"#utility.yul\":21718:21872   */\n      iszero\n      tag_396\n      jumpi\n        /* \"#utility.yul\":21806:21813   */\n      dup2\n        /* \"#utility.yul\":21800:21814   */\n      sload\n        /* \"#utility.yul\":21796:21797   */\n      dup2\n        /* \"#utility.yul\":21791:21794   */\n      dup10\n        /* \"#utility.yul\":21787:21798   */\n      add\n        /* \"#utility.yul\":21780:21815   */\n      mstore\n        /* \"#utility.yul\":21856:21857   */\n      0x01\n        /* \"#utility.yul\":21847:21854   */\n      dup3\n        /* \"#utility.yul\":21843:21858   */\n      add\n        /* \"#utility.yul\":21832:21858   */\n      swap2\n      pop\n        /* \"#utility.yul\":21754:21758   */\n      0x20\n        /* \"#utility.yul\":21751:21752   */\n      dup2\n        /* \"#utility.yul\":21747:21759   */\n      add\n        /* \"#utility.yul\":21742:21759   */\n      swap1\n      pop\n        /* \"#utility.yul\":21718:21872   */\n      jump(tag_394)\n    tag_396:\n        /* \"#utility.yul\":21901:21902   */\n      dup1\n        /* \"#utility.yul\":21896:21899   */\n      dup9\n        /* \"#utility.yul\":21892:21903   */\n      add\n        /* \"#utility.yul\":21885:21903   */\n      swap6\n      pop\n        /* \"#utility.yul\":21584:21913   */\n      pop\n      pop\n        /* \"#utility.yul\":21371:21913   */\n    tag_390:\n      pop\n        /* \"#utility.yul\":21177:21919   */\n      pop\n      pop\n        /* \"#utility.yul\":21088:21919   */\n      swap3\n      swap2\n      pop\n      pop\n      jump\t// out\n        /* \"#utility.yul\":21925:22034   */\n    tag_162:\n        /* \"#utility.yul\":22006:22027   */\n      tag_398\n        /* \"#utility.yul\":22021:22026   */\n      dup2\n        /* \"#utility.yul\":22006:22027   */\n      tag_130\n      jump\t// in\n    tag_398:\n        /* \"#utility.yul\":22001:22004   */\n      dup3\n        /* \"#utility.yul\":21994:22028   */\n      mstore\n        /* \"#utility.yul\":21925:22034   */\n      pop\n      pop\n      jump\t// out\n        /* \"#utility.yul\":22040:22862   */\n    tag_34:\n        /* \"#utility.yul\":22273:22277   */\n      0x00\n        /* \"#utility.yul\":22311:22314   */\n      0xa0\n        /* \"#utility.yul\":22300:22309   */\n      dup3\n        /* \"#utility.yul\":22296:22315   */\n      add\n        /* \"#utility.yul\":22288:22315   */\n      swap1\n      pop\n        /* \"#utility.yul\":22361:22370   */\n      dup2\n        /* \"#utility.yul\":22355:22359   */\n      dup2\n        /* \"#utility.yul\":22351:22371   */\n      sub\n        /* \"#utility.yul\":22347:22348   */\n      0x00\n        /* \"#utility.yul\":22336:22345   */\n      dup4\n        /* \"#utility.yul\":22332:22349   */\n      add\n        /* \"#utility.yul\":22325:22372   */\n      mstore\n        /* \"#utility.yul\":22389:22464   */\n      tag_400\n        /* \"#utility.yul\":22459:22463   */\n      dup2\n        /* \"#utility.yul\":22450:22456   */\n      dup9\n        /* \"#utility.yul\":22389:22464   */\n      tag_161\n      jump\t// in\n    tag_400:\n        /* \"#utility.yul\":22381:22464   */\n      swap1\n      pop\n        /* \"#utility.yul\":22511:22520   */\n      dup2\n        /* \"#utility.yul\":22505:22509   */\n      dup2\n        /* \"#utility.yul\":22501:22521   */\n      sub\n        /* \"#utility.yul\":22496:22498   */\n      0x20\n        /* \"#utility.yul\":22485:22494   */\n      dup4\n        /* \"#utility.yul\":22481:22499   */\n      add\n        /* \"#utility.yul\":22474:22522   */\n      mstore\n        /* \"#utility.yul\":22539:22614   */\n      tag_401\n        /* \"#utility.yul\":22609:22613   */\n      dup2\n        /* \"#utility.yul\":22600:22606   */\n      dup8\n        /* \"#utility.yul\":22539:22614   */\n      tag_161\n      jump\t// in\n    tag_401:\n        /* \"#utility.yul\":22531:22614   */\n      swap1\n      pop\n        /* \"#utility.yul\":22624:22696   */\n      tag_402\n        /* \"#utility.yul\":22692:22694   */\n      0x40\n        /* \"#utility.yul\":22681:22690   */\n      dup4\n        /* \"#utility.yul\":22677:22695   */\n      add\n        /* \"#utility.yul\":22668:22674   */\n      dup7\n        /* \"#utility.yul\":22624:22696   */\n      tag_122\n      jump\t// in\n    tag_402:\n        /* \"#utility.yul\":22706:22778   */\n      tag_403\n        /* \"#utility.yul\":22774:22776   */\n      0x60\n        /* \"#utility.yul\":22763:22772   */\n      dup4\n        /* \"#utility.yul\":22759:22777   */\n      add\n        /* \"#utility.yul\":22750:22756   */\n      dup6\n        /* \"#utility.yul\":22706:22778   */\n      tag_122\n      jump\t// in\n    tag_403:\n        /* \"#utility.yul\":22788:22855   */\n      tag_404\n        /* \"#utility.yul\":22850:22853   */\n      0x80\n        /* \"#utility.yul\":22839:22848   */\n      dup4\n        /* \"#utility.yul\":22835:22854   */\n      add\n        /* \"#utility.yul\":22826:22832   */\n      dup5\n        /* \"#utility.yul\":22788:22855   */\n      tag_162\n      jump\t// in\n    tag_404:\n        /* \"#utility.yul\":22040:22862   */\n      swap7\n      swap6\n      pop\n      pop\n      pop\n      pop\n      pop\n      pop\n      jump\t// out\n        /* \"#utility.yul\":22868:23048   */\n    tag_163:\n        /* \"#utility.yul\":23008:23040   */\n      0x456d7074792070726f647563742074797065206e6f7420616c6c6f7765640000\n        /* \"#utility.yul\":23004:23005   */\n      0x00\n        /* \"#utility.yul\":22996:23002   */\n      dup3\n        /* \"#utility.yul\":22992:23006   */\n      add\n        /* \"#utility.yul\":22985:23041   */\n      mstore\n        /* \"#utility.yul\":22868:23048   */\n      pop\n      jump\t// out\n        /* \"#utility.yul\":23054:23420   */\n    tag_164:\n        /* \"#utility.yul\":23196:23199   */\n      0x00\n        /* \"#utility.yul\":23217:23284   */\n      tag_407\n        /* \"#utility.yul\":23281:23283   */\n      0x1e\n        /* \"#utility.yul\":23276:23279   */\n      dup4\n        /* \"#utility.yul\":23217:23284   */\n      tag_124\n      jump\t// in\n    tag_407:\n        /* \"#utility.yul\":23210:23284   */\n      swap2\n      pop\n        /* \"#utility.yul\":23293:23386   */\n      tag_408\n        /* \"#utility.yul\":23382:23385   */\n      dup3\n        /* \"#utility.yul\":23293:23386   */\n      tag_163\n      jump\t// in\n    tag_408:\n        /* \"#utility.yul\":23411:23413   */\n      0x20\n        /* \"#utility.yul\":23406:23409   */\n      dup3\n        /* \"#utility.yul\":23402:23414   */\n      add\n        /* \"#utility.yul\":23395:23414   */\n      swap1\n      pop\n        /* \"#utility.yul\":23054:23420   */\n      swap2\n      swap1\n      pop\n      jump\t// out\n        /* \"#utility.yul\":23426:23845   */\n    tag_64:\n        /* \"#utility.yul\":23592:23596   */\n      0x00\n        /* \"#utility.yul\":23630:23632   */\n      0x20\n        /* \"#utility.yul\":23619:23628   */\n      dup3\n        /* \"#utility.yul\":23615:23633   */\n      add\n        /* \"#utility.yul\":23607:23633   */\n      swap1\n      pop\n        /* \"#utility.yul\":23679:23688   */\n      dup2\n        /* \"#utility.yul\":23673:23677   */\n      dup2\n        /* \"#utility.yul\":23669:23689   */\n      sub\n        /* \"#utility.yul\":23665:23666   */\n      0x00\n        /* \"#utility.yul\":23654:23663   */\n      dup4\n        /* \"#utility.yul\":23650:23667   */\n      add\n        /* \"#utility.yul\":23643:23690   */\n      mstore\n        /* \"#utility.yul\":23707:23838   */\n      tag_410\n        /* \"#utility.yul\":23833:23837   */\n      dup2\n        /* \"#utility.yul\":23707:23838   */\n      tag_164\n      jump\t// in\n    tag_410:\n        /* \"#utility.yul\":23699:23838   */\n      swap1\n      pop\n        /* \"#utility.yul\":23426:23845   */\n      swap2\n      swap1\n      pop\n      jump\t// out\n        /* \"#utility.yul\":23851:24031   */\n    tag_165:\n        /* \"#utility.yul\":23991:24023   */\n      0x456d7074792070726f64756374206e616d65206e6f7420616c6c6f7765640000\n        /* \"#utility.yul\":23987:23988   */\n      0x00\n        /* \"#utility.yul\":23979:23985   */\n      dup3\n        /* \"#utility.yul\":23975:23989   */\n      add\n        /* \"#utility.yul\":23968:24024   */\n      mstore\n        /* \"#utility.yul\":23851:24031   */\n      pop\n      jump\t// out\n        /* \"#utility.yul\":24037:24403   */\n    tag_166:\n        /* \"#utility.yul\":24179:24182   */\n      0x00\n        /* \"#utility.yul\":24200:24267   */\n      tag_413\n        /* \"#utility.yul\":24264:24266   */\n      0x1e\n        /* \"#utility.yul\":24259:24262   */\n      dup4\n        /* \"#utility.yul\":24200:24267   */\n      tag_124\n      jump\t// in\n    tag_413:\n        /* \"#utility.yul\":24193:24267   */\n      swap2\n      pop\n        /* \"#utility.yul\":24276:24369   */\n      tag_414\n        /* \"#utility.yul\":24365:24368   */\n      dup3\n        /* \"#utility.yul\":24276:24369   */\n      tag_165\n      jump\t// in\n    tag_414:\n        /* \"#utility.yul\":24394:24396   */\n      0x20\n        /* \"#utility.yul\":24389:24392   */\n      dup3\n        /* \"#utility.yul\":24385:24397   */\n      add\n        /* \"#utility.yul\":24378:24397   */\n      swap1\n      pop\n        /* \"#utility.yul\":24037:24403   */\n      swap2\n      swap1\n      pop\n      jump\t// out\n        /* \"#utility.yul\":24409:24828   */\n    tag_67:\n        /* \"#utility.yul\":24575:24579   */\n      0x00\n        /* \"#utility.yul\":24613:24615   */\n      0x20\n        /* \"#utility.yul\":24602:24611   */\n      dup3\n        /* \"#utility.yul\":24598:24616   */\n      add\n        /* \"#utility.yul\":24590:24616   */\n      swap1\n      pop\n        /* \"#utility.yul\":24662:24671   */\n      dup2\n        /* \"#utility.yul\":24656:24660   */\n      dup2\n        /* \"#utility.yul\":24652:24672   */\n      sub\n        /* \"#utility.yul\":24648:24649   */\n      0x00\n        /* \"#utility.yul\":24637:24646   */\n      dup4\n        /* \"#utility.yul\":24633:24650   */\n      add\n        /* \"#utility.yul\":24626:24673   */\n      mstore\n        /* \"#utility.yul\":24690:24821   */\n      tag_416\n        /* \"#utility.yul\":24816:24820   */\n      dup2\n        /* \"#utility.yul\":24690:24821   */\n      tag_166\n      jump\t// in\n    tag_416:\n        /* \"#utility.yul\":24682:24821   */\n      swap1\n      pop\n        /* \"#utility.yul\":24409:24828   */\n      swap2\n      swap1\n      pop\n      jump\t// out\n        /* \"#utility.yul\":24834:25012   */\n    tag_167:\n        /* \"#utility.yul\":24974:25004   */\n      0x456d707479206272616e64206e616d65206e6f7420616c6c6f77656400000000\n        /* \"#utility.yul\":24970:24971   */\n      0x00\n        /* \"#utility.yul\":24962:24968   */\n      dup3\n        /* \"#utility.yul\":24958:24972   */\n      add\n        /* \"#utility.yul\":24951:25005   */\n      mstore\n        /* \"#utility.yul\":24834:25012   */\n      pop\n      jump\t// out\n        /* \"#utility.yul\":25018:25384   */\n    tag_168:\n        /* \"#utility.yul\":25160:25163   */\n      0x00\n        /* \"#utility.yul\":25181:25248   */\n      tag_419\n        /* \"#utility.yul\":25245:25247   */\n      0x1c\n        /* \"#utility.yul\":25240:25243   */\n      dup4\n        /* \"#utility.yul\":25181:25248   */\n      tag_124\n      jump\t// in\n    tag_419:\n        /* \"#utility.yul\":25174:25248   */\n      swap2\n      pop\n        /* \"#utility.yul\":25257:25350   */\n      tag_420\n        /* \"#utility.yul\":25346:25349   */\n      dup3\n        /* \"#utility.yul\":25257:25350   */\n      tag_167\n      jump\t// in\n    tag_420:\n        /* \"#utility.yul\":25375:25377   */\n      0x20\n        /* \"#utility.yul\":25370:25373   */\n      dup3\n        /* \"#utility.yul\":25366:25378   */\n      add\n        /* \"#utility.yul\":25359:25378   */\n      swap1\n      pop\n        /* \"#utility.yul\":25018:25384   */\n      swap2\n      swap1\n      pop\n      jump\t// out\n        /* \"#utility.yul\":25390:25809   */\n    tag_70:\n        /* \"#utility.yul\":25556:25560   */\n      0x00\n        /* \"#utility.yul\":25594:25596   */\n      0x20\n        /* \"#utility.yul\":25583:25592   */\n      dup3\n        /* \"#utility.yul\":25579:25597   */\n      add\n        /* \"#utility.yul\":25571:25597   */\n      swap1\n      pop\n        /* \"#utility.yul\":25643:25652   */\n      dup2\n        /* \"#utility.yul\":25637:25641   */\n      dup2\n        /* \"#utility.yul\":25633:25653   */\n      sub\n        /* \"#utility.yul\":25629:25630   */\n      0x00\n        /* \"#utility.yul\":25618:25627   */\n      dup4\n        /* \"#utility.yul\":25614:25631   */\n      add\n        /* \"#utility.yul\":25607:25654   */\n      mstore\n        /* \"#utility.yul\":25671:25802   */\n      tag_422\n        /* \"#utility.yul\":25797:25801   */\n      dup2\n        /* \"#utility.yul\":25671:25802   */\n      tag_168\n      jump\t// in\n    tag_422:\n        /* \"#utility.yul\":25663:25802   */\n      swap1\n      pop\n        /* \"#utility.yul\":25390:25809   */\n      swap2\n      swap1\n      pop\n      jump\t// out\n        /* \"#utility.yul\":25815:26036   */\n    tag_169:\n        /* \"#utility.yul\":25955:25989   */\n      0x5175616e74697479206d7573742062652067726561746572207468616e207a65\n        /* \"#utility.yul\":25951:25952   */\n      0x00\n        /* \"#utility.yul\":25943:25949   */\n      dup3\n        /* \"#utility.yul\":25939:25953   */\n      add\n        /* \"#utility.yul\":25932:25990   */\n      mstore\n        /* \"#utility.yul\":26024:26028   */\n      0x726f000000000000000000000000000000000000000000000000000000000000\n        /* \"#utility.yul\":26019:26021   */\n      0x20\n        /* \"#utility.yul\":26011:26017   */\n      dup3\n        /* \"#utility.yul\":26007:26022   */\n      add\n        /* \"#utility.yul\":26000:26029   */\n      mstore\n        /* \"#utility.yul\":25815:26036   */\n      pop\n      jump\t// out\n        /* \"#utility.yul\":26042:26408   */\n    tag_170:\n        /* \"#utility.yul\":26184:26187   */\n      0x00\n        /* \"#utility.yul\":26205:26272   */\n      tag_425\n        /* \"#utility.yul\":26269:26271   */\n      0x22\n        /* \"#utility.yul\":26264:26267   */\n      dup4\n        /* \"#utility.yul\":26205:26272   */\n      tag_124\n      jump\t// in\n    tag_425:\n        /* \"#utility.yul\":26198:26272   */\n      swap2\n      pop\n        /* \"#utility.yul\":26281:26374   */\n      tag_426\n        /* \"#utility.yul\":26370:26373   */\n      dup3\n        /* \"#utility.yul\":26281:26374   */\n      tag_169\n      jump\t// in\n    tag_426:\n        /* \"#utility.yul\":26399:26401   */\n      0x40\n        /* \"#utility.yul\":26394:26397   */\n      dup3\n        /* \"#utility.yul\":26390:26402   */\n      add\n        /* \"#utility.yul\":26383:26402   */\n      swap1\n      pop\n        /* \"#utility.yul\":26042:26408   */\n      swap2\n      swap1\n      pop\n      jump\t// out\n        /* \"#utility.yul\":26414:26833   */\n    tag_73:\n        /* \"#utility.yul\":26580:26584   */\n      0x00\n        /* \"#utility.yul\":26618:26620   */\n      0x20\n        /* \"#utility.yul\":26607:26616   */\n      dup3\n        /* \"#utility.yul\":26603:26621   */\n      add\n        /* \"#utility.yul\":26595:26621   */\n      swap1\n      pop\n        /* \"#utility.yul\":26667:26676   */\n      dup2\n        /* \"#utility.yul\":26661:26665   */\n      dup2\n        /* \"#utility.yul\":26657:26677   */\n      sub\n        /* \"#utility.yul\":26653:26654   */\n      0x00\n        /* \"#utility.yul\":26642:26651   */\n      dup4\n        /* \"#utility.yul\":26638:26655   */\n      add\n        /* \"#utility.yul\":26631:26678   */\n      mstore\n        /* \"#utility.yul\":26695:26826   */\n      tag_428\n        /* \"#utility.yul\":26821:26825   */\n      dup2\n        /* \"#utility.yul\":26695:26826   */\n      tag_170\n      jump\t// in\n    tag_428:\n        /* \"#utility.yul\":26687:26826   */\n      swap1\n      pop\n        /* \"#utility.yul\":26414:26833   */\n      swap2\n      swap1\n      pop\n      jump\t// out\n        /* \"#utility.yul\":26839:27011   */\n    tag_171:\n        /* \"#utility.yul\":26979:27003   */\n      0x50726f6475637420616c72656164792065786973747300000000000000000000\n        /* \"#utility.yul\":26975:26976   */\n      0x00\n        /* \"#utility.yul\":26967:26973   */\n      dup3\n        /* \"#utility.yul\":26963:26977   */\n      add\n        /* \"#utility.yul\":26956:27004   */\n      mstore\n        /* \"#utility.yul\":26839:27011   */\n      pop\n      jump\t// out\n        /* \"#utility.yul\":27017:27383   */\n    tag_172:\n        /* \"#utility.yul\":27159:27162   */\n      0x00\n        /* \"#utility.yul\":27180:27247   */\n      tag_431\n        /* \"#utility.yul\":27244:27246   */\n      0x16\n        /* \"#utility.yul\":27239:27242   */\n      dup4\n        /* \"#utility.yul\":27180:27247   */\n      tag_124\n      jump\t// in\n    tag_431:\n        /* \"#utility.yul\":27173:27247   */\n      swap2\n      pop\n        /* \"#utility.yul\":27256:27349   */\n      tag_432\n        /* \"#utility.yul\":27345:27348   */\n      dup3\n        /* \"#utility.yul\":27256:27349   */\n      tag_171\n      jump\t// in\n    tag_432:\n        /* \"#utility.yul\":27374:27376   */\n      0x20\n        /* \"#utility.yul\":27369:27372   */\n      dup3\n        /* \"#utility.yul\":27365:27377   */\n      add\n        /* \"#utility.yul\":27358:27377   */\n      swap1\n      pop\n        /* \"#utility.yul\":27017:27383   */\n      swap2\n      swap1\n      pop\n      jump\t// out\n        /* \"#utility.yul\":27389:27808   */\n    tag_76:\n        /* \"#utility.yul\":27555:27559   */\n      0x00\n        /* \"#utility.yul\":27593:27595   */\n      0x20\n        /* \"#utility.yul\":27582:27591   */\n      dup3\n        /* \"#utility.yul\":27578:27596   */\n      add\n        /* \"#utility.yul\":27570:27596   */\n      swap1\n      pop\n        /* \"#utility.yul\":27642:27651   */\n      dup2\n        /* \"#utility.yul\":27636:27640   */\n      dup2\n        /* \"#utility.yul\":27632:27652   */\n      sub\n        /* \"#utility.yul\":27628:27629   */\n      0x00\n        /* \"#utility.yul\":27617:27626   */\n      dup4\n        /* \"#utility.yul\":27613:27630   */\n      add\n        /* \"#utility.yul\":27606:27653   */\n      mstore\n        /* \"#utility.yul\":27670:27801   */\n      tag_434\n        /* \"#utility.yul\":27796:27800   */\n      dup2\n        /* \"#utility.yul\":27670:27801   */\n      tag_172\n      jump\t// in\n    tag_434:\n        /* \"#utility.yul\":27662:27801   */\n      swap1\n      pop\n        /* \"#utility.yul\":27389:27808   */\n      swap2\n      swap1\n      pop\n      jump\t// out\n        /* \"#utility.yul\":27814:27938   */\n    tag_173:\n        /* \"#utility.yul\":27891:27897   */\n      0x00\n        /* \"#utility.yul\":27925:27930   */\n      dup2\n        /* \"#utility.yul\":27919:27931   */\n      mload\n        /* \"#utility.yul\":27909:27931   */\n      swap1\n      pop\n        /* \"#utility.yul\":27814:27938   */\n      swap2\n      swap1\n      pop\n      jump\t// out\n        /* \"#utility.yul\":27944:28138   */\n    tag_174:\n        /* \"#utility.yul\":28053:28064   */\n      0x00\n        /* \"#utility.yul\":28087:28093   */\n      dup3\n        /* \"#utility.yul\":28082:28085   */\n      dup3\n        /* \"#utility.yul\":28075:28094   */\n      mstore\n        /* \"#utility.yul\":28127:28131   */\n      0x20\n        /* \"#utility.yul\":28122:28125   */\n      dup3\n        /* \"#utility.yul\":28118:28132   */\n      add\n        /* \"#utility.yul\":28103:28132   */\n      swap1\n      pop\n        /* \"#utility.yul\":27944:28138   */\n      swap3\n      swap2\n      pop\n      pop\n      jump\t// out\n        /* \"#utility.yul\":28144:28286   */\n    tag_175:\n        /* \"#utility.yul\":28221:28225   */\n      0x00\n        /* \"#utility.yul\":28244:28247   */\n      dup2\n        /* \"#utility.yul\":28236:28247   */\n      swap1\n      pop\n        /* \"#utility.yul\":28274:28278   */\n      0x20\n        /* \"#utility.yul\":28269:28272   */\n      dup3\n        /* \"#utility.yul\":28265:28279   */\n      add\n        /* \"#utility.yul\":28257:28279   */\n      swap1\n      pop\n        /* \"#utility.yul\":28144:28286   */\n      swap2\n      swap1\n      pop\n      jump\t// out\n        /* \"#utility.yul\":28292:28488   */\n    tag_176:\n        /* \"#utility.yul\":28381:28391   */\n      0x00\n        /* \"#utility.yul\":28416:28482   */\n      tag_439\n        /* \"#utility.yul\":28478:28481   */\n      dup4\n        /* \"#utility.yul\":28470:28476   */\n      dup4\n        /* \"#utility.yul\":28416:28482   */\n      tag_128\n      jump\t// in\n    tag_439:\n        /* \"#utility.yul\":28402:28482   */\n      swap1\n      pop\n        /* \"#utility.yul\":28292:28488   */\n      swap3\n      swap2\n      pop\n      pop\n      jump\t// out\n        /* \"#utility.yul\":28494:28617   */\n    tag_177:\n        /* \"#utility.yul\":28574:28578   */\n      0x00\n        /* \"#utility.yul\":28606:28610   */\n      0x20\n        /* \"#utility.yul\":28601:28604   */\n      dup3\n        /* \"#utility.yul\":28597:28611   */\n      add\n        /* \"#utility.yul\":28589:28611   */\n      swap1\n      pop\n        /* \"#utility.yul\":28494:28617   */\n      swap2\n      swap1\n      pop\n      jump\t// out\n        /* \"#utility.yul\":28651:29642   */\n    tag_178:\n        /* \"#utility.yul\":28790:28793   */\n      0x00\n        /* \"#utility.yul\":28819:28883   */\n      tag_442\n        /* \"#utility.yul\":28877:28882   */\n      dup3\n        /* \"#utility.yul\":28819:28883   */\n      tag_173\n      jump\t// in\n    tag_442:\n        /* \"#utility.yul\":28899:28995   */\n      tag_443\n        /* \"#utility.yul\":28988:28994   */\n      dup2\n        /* \"#utility.yul\":28983:28986   */\n      dup6\n        /* \"#utility.yul\":28899:28995   */\n      tag_174\n      jump\t// in\n    tag_443:\n        /* \"#utility.yul\":28892:28995   */\n      swap4\n      pop\n        /* \"#utility.yul\":29021:29024   */\n      dup4\n        /* \"#utility.yul\":29066:29070   */\n      0x20\n        /* \"#utility.yul\":29058:29064   */\n      dup3\n        /* \"#utility.yul\":29054:29071   */\n      mul\n        /* \"#utility.yul\":29049:29052   */\n      dup6\n        /* \"#utility.yul\":29045:29072   */\n      add\n        /* \"#utility.yul\":29096:29162   */\n      tag_444\n        /* \"#utility.yul\":29156:29161   */\n      dup6\n        /* \"#utility.yul\":29096:29162   */\n      tag_175\n      jump\t// in\n    tag_444:\n        /* \"#utility.yul\":29185:29192   */\n      dup1\n        /* \"#utility.yul\":29216:29217   */\n      0x00\n        /* \"#utility.yul\":29201:29597   */\n    tag_445:\n        /* \"#utility.yul\":29226:29232   */\n      dup6\n        /* \"#utility.yul\":29223:29224   */\n      dup2\n        /* \"#utility.yul\":29220:29233   */\n      lt\n        /* \"#utility.yul\":29201:29597   */\n      iszero\n      tag_447\n      jumpi\n        /* \"#utility.yul\":29297:29306   */\n      dup5\n        /* \"#utility.yul\":29291:29295   */\n      dup5\n        /* \"#utility.yul\":29287:29307   */\n      sub\n        /* \"#utility.yul\":29282:29285   */\n      dup10\n        /* \"#utility.yul\":29275:29308   */\n      mstore\n        /* \"#utility.yul\":29348:29354   */\n      dup2\n        /* \"#utility.yul\":29342:29355   */\n      mload\n        /* \"#utility.yul\":29376:29460   */\n      tag_448\n        /* \"#utility.yul\":29455:29459   */\n      dup6\n        /* \"#utility.yul\":29440:29453   */\n      dup3\n        /* \"#utility.yul\":29376:29460   */\n      tag_176\n      jump\t// in\n    tag_448:\n        /* \"#utility.yul\":29368:29460   */\n      swap5\n      pop\n        /* \"#utility.yul\":29483:29553   */\n      tag_449\n        /* \"#utility.yul\":29546:29552   */\n      dup4\n        /* \"#utility.yul\":29483:29553   */\n      tag_177\n      jump\t// in\n    tag_449:\n        /* \"#utility.yul\":29473:29553   */\n      swap3\n      pop\n        /* \"#utility.yul\":29582:29586   */\n      0x20\n        /* \"#utility.yul\":29577:29580   */\n      dup11\n        /* \"#utility.yul\":29573:29587   */\n      add\n        /* \"#utility.yul\":29566:29587   */\n      swap10\n      pop\n        /* \"#utility.yul\":29261:29597   */\n      pop\n        /* \"#utility.yul\":29248:29249   */\n      0x01\n        /* \"#utility.yul\":29245:29246   */\n      dup2\n        /* \"#utility.yul\":29241:29250   */\n      add\n        /* \"#utility.yul\":29236:29250   */\n      swap1\n      pop\n        /* \"#utility.yul\":29201:29597   */\n      jump(tag_445)\n    tag_447:\n        /* \"#utility.yul\":29205:29219   */\n      pop\n        /* \"#utility.yul\":29613:29617   */\n      dup3\n        /* \"#utility.yul\":29606:29617   */\n      swap8\n      pop\n        /* \"#utility.yul\":29633:29636   */\n      dup8\n        /* \"#utility.yul\":29626:29636   */\n      swap6\n      pop\n        /* \"#utility.yul\":28795:29642   */\n      pop\n      pop\n      pop\n      pop\n      pop\n        /* \"#utility.yul\":28651:29642   */\n      swap3\n      swap2\n      pop\n      pop\n      jump\t// out\n        /* \"#utility.yul\":29648:31078   */\n    tag_88:\n        /* \"#utility.yul\":30081:30085   */\n      0x00\n        /* \"#utility.yul\":30119:30122   */\n      0xc0\n        /* \"#utility.yul\":30108:30117   */\n      dup3\n        /* \"#utility.yul\":30104:30123   */\n      add\n        /* \"#utility.yul\":30096:30123   */\n      swap1\n      pop\n        /* \"#utility.yul\":30169:30178   */\n      dup2\n        /* \"#utility.yul\":30163:30167   */\n      dup2\n        /* \"#utility.yul\":30159:30179   */\n      sub\n        /* \"#utility.yul\":30155:30156   */\n      0x00\n        /* \"#utility.yul\":30144:30153   */\n      dup4\n        /* \"#utility.yul\":30140:30157   */\n      add\n        /* \"#utility.yul\":30133:30180   */\n      mstore\n        /* \"#utility.yul\":30197:30275   */\n      tag_451\n        /* \"#utility.yul\":30270:30274   */\n      dup2\n        /* \"#utility.yul\":30261:30267   */\n      dup10\n        /* \"#utility.yul\":30197:30275   */\n      tag_126\n      jump\t// in\n    tag_451:\n        /* \"#utility.yul\":30189:30275   */\n      swap1\n      pop\n        /* \"#utility.yul\":30322:30331   */\n      dup2\n        /* \"#utility.yul\":30316:30320   */\n      dup2\n        /* \"#utility.yul\":30312:30332   */\n      sub\n        /* \"#utility.yul\":30307:30309   */\n      0x20\n        /* \"#utility.yul\":30296:30305   */\n      dup4\n        /* \"#utility.yul\":30292:30310   */\n      add\n        /* \"#utility.yul\":30285:30333   */\n      mstore\n        /* \"#utility.yul\":30350:30428   */\n      tag_452\n        /* \"#utility.yul\":30423:30427   */\n      dup2\n        /* \"#utility.yul\":30414:30420   */\n      dup9\n        /* \"#utility.yul\":30350:30428   */\n      tag_126\n      jump\t// in\n    tag_452:\n        /* \"#utility.yul\":30342:30428   */\n      swap1\n      pop\n        /* \"#utility.yul\":30475:30484   */\n      dup2\n        /* \"#utility.yul\":30469:30473   */\n      dup2\n        /* \"#utility.yul\":30465:30485   */\n      sub\n        /* \"#utility.yul\":30460:30462   */\n      0x40\n        /* \"#utility.yul\":30449:30458   */\n      dup4\n        /* \"#utility.yul\":30445:30463   */\n      add\n        /* \"#utility.yul\":30438:30486   */\n      mstore\n        /* \"#utility.yul\":30503:30581   */\n      tag_453\n        /* \"#utility.yul\":30576:30580   */\n      dup2\n        /* \"#utility.yul\":30567:30573   */\n      dup8\n        /* \"#utility.yul\":30503:30581   */\n      tag_126\n      jump\t// in\n    tag_453:\n        /* \"#utility.yul\":30495:30581   */\n      swap1\n      pop\n        /* \"#utility.yul\":30628:30637   */\n      dup2\n        /* \"#utility.yul\":30622:30626   */\n      dup2\n        /* \"#utility.yul\":30618:30638   */\n      sub\n        /* \"#utility.yul\":30613:30615   */\n      0x60\n        /* \"#utility.yul\":30602:30611   */\n      dup4\n        /* \"#utility.yul\":30598:30616   */\n      add\n        /* \"#utility.yul\":30591:30639   */\n      mstore\n        /* \"#utility.yul\":30656:30784   */\n      tag_454\n        /* \"#utility.yul\":30779:30783   */\n      dup2\n        /* \"#utility.yul\":30770:30776   */\n      dup7\n        /* \"#utility.yul\":30656:30784   */\n      tag_178\n      jump\t// in\n    tag_454:\n        /* \"#utility.yul\":30648:30784   */\n      swap1\n      pop\n        /* \"#utility.yul\":30832:30841   */\n      dup2\n        /* \"#utility.yul\":30826:30830   */\n      dup2\n        /* \"#utility.yul\":30822:30842   */\n      sub\n        /* \"#utility.yul\":30816:30819   */\n      0x80\n        /* \"#utility.yul\":30805:30814   */\n      dup4\n        /* \"#utility.yul\":30801:30820   */\n      add\n        /* \"#utility.yul\":30794:30843   */\n      mstore\n        /* \"#utility.yul\":30860:30988   */\n      tag_455\n        /* \"#utility.yul\":30983:30987   */\n      dup2\n        /* \"#utility.yul\":30974:30980   */\n      dup6\n        /* \"#utility.yul\":30860:30988   */\n      tag_178\n      jump\t// in\n    tag_455:\n        /* \"#utility.yul\":30852:30988   */\n      swap1\n      pop\n        /* \"#utility.yul\":30998:31071   */\n      tag_456\n        /* \"#utility.yul\":31066:31069   */\n      0xa0\n        /* \"#utility.yul\":31055:31064   */\n      dup4\n        /* \"#utility.yul\":31051:31070   */\n      add\n        /* \"#utility.yul\":31042:31048   */\n      dup5\n        /* \"#utility.yul\":30998:31071   */\n      tag_122\n      jump\t// in\n    tag_456:\n        /* \"#utility.yul\":29648:31078   */\n      swap8\n      swap7\n      pop\n      pop\n      pop\n      pop\n      pop\n      pop\n      pop\n      jump\t// out\n\n    auxdata: 0xa2646970667358221220c64932cd52dd26c491aa2082d4c87ef26f868f875b84027076952ffe18b4498164736f6c634300081a0033\n}\n",
				"bytecode": {
					"linkReferences": {},
					"object": "6080604052348015600e575f80fd5b5061192e8061001c5f395ff3fe608060405234801561000f575f80fd5b506004361061003f575f3560e01c806321120f9a146100435780637acc0b201461005f5780639ed04f5d14610094575b5f80fd5b61005d60048036038101906100589190610b9c565b6100b0565b005b61007960048036038101906100749190610bf6565b6102bf565b60405161008b96959493929190610d8e565b60405180910390f35b6100ae60048036038101906100a99190610f15565b6105fa565b005b81805f808381526020019081526020015f205f015403610105576040517f08c379a00000000000000000000000000000000000000000000000000000000081526004016100fc906110e7565b60405180910390fd5b5f805f8381526020019081526020015f20600601540361015a576040517f08c379a00000000000000000000000000000000000000000000000000000000081526004016101519061114f565b60405180910390fd5b600115155f808381526020019081526020015f206007016003015f9054906101000a900460ff161515146101c3576040517f08c379a00000000000000000000000000000000000000000000000000000000081526004016101ba906111b7565b60405180910390fd5b815f808581526020019081526020015f206007015f0190816101e591906113cf565b50425f808581526020019081526020015f206007016002018190555060015f808581526020019081526020015f206007016003015f6101000a81548160ff0219169083151502179055507ff295c689d401ce1625e9bd2adba7641f92cc231677989c7fe706354cb643e7985f808581526020019081526020015f206007015f015f808681526020019081526020015f2060070160010142865f808981526020019081526020015f2060070160030160019054906101000a900460ff166040516102b295949392919061152e565b60405180910390a1505050565b5f602052805f5260405f205f91509050805f0154908060010180546102e390611202565b80601f016020809104026020016040519081016040528092919081815260200182805461030f90611202565b801561035a5780601f106103315761010080835404028352916020019161035a565b820191905f5260205f20905b81548152906001019060200180831161033d57829003601f168201915b50505050509080600201805461036f90611202565b80601f016020809104026020016040519081016040528092919081815260200182805461039b90611202565b80156103e65780601f106103bd576101008083540402835291602001916103e6565b820191905f5260205f20905b8154815290600101906020018083116103c957829003601f168201915b5050505050908060030180546103fb90611202565b80601f016020809104026020016040519081016040528092919081815260200182805461042790611202565b80156104725780601f1061044957610100808354040283529160200191610472565b820191905f5260205f20905b81548152906001019060200180831161045557829003601f168201915b505050505090806006015490806007016040518060c00160405290815f8201805461049c90611202565b80601f01602080910402602001604051908101604052809291908181526020018280546104c890611202565b80156105135780601f106104ea57610100808354040283529160200191610513565b820191905f5260205f20905b8154815290600101906020018083116104f657829003601f168201915b5050505050815260200160018201805461052c90611202565b80601f016020809104026020016040519081016040528092919081815260200182805461055890611202565b80156105a35780601f1061057a576101008083540402835291602001916105a3565b820191905f5260205f20905b81548152906001019060200180831161058657829003601f168201915b5050505050815260200160028201548152602001600382015f9054906101000a900460ff161515151581526020016003820160019054906101000a900460ff16151515158152602001600482015481525050905086565b5f89511161063d576040517f08c379a0000000000000000000000000000000000000000000000000000000008152600401610634906115d7565b60405180910390fd5b5f885111610680576040517f08c379a00000000000000000000000000000000000000000000000000000000081526004016106779061163f565b60405180910390fd5b5f8751116106c3576040517f08c379a00000000000000000000000000000000000000000000000000000000081526004016106ba906116a7565b60405180910390fd5b5f8411610705576040517f08c379a00000000000000000000000000000000000000000000000000000000081526004016106fc90611735565b60405180910390fd5b5f4290505f805f8381526020019081526020015f205f01541461075d576040517f08c379a00000000000000000000000000000000000000000000000000000000081526004016107549061179d565b60405180910390fd5b6040518061010001604052808281526020018b81526020018981526020018a81526020018881526020018781526020018681526020016040518060c00160405280878152602001868152602001856107b5575f6107b7565b425b815260200185151581526020015f151581526020015f8152508152505f808381526020019081526020015f205f820151815f0155602082015181600101908161080091906113cf565b50604082015181600201908161081691906113cf565b50606082015181600301908161082c91906113cf565b50608082015181600401908051906020019061084992919061094a565b5060a082015181600501908051906020019061086692919061094a565b5060c0820151816006015560e0820151816007015f820151815f01908161088d91906113cf565b5060208201518160010190816108a391906113cf565b50604082015181600201556060820151816003015f6101000a81548160ff02191690831515021790555060808201518160030160016101000a81548160ff02191690831515021790555060a082015181600401555050905050807ff208792a7453bf9453c1c4054fd9b31b52fba888dcc972943bd0cb99df1c4f728b8a8c8b8b8b60405161093696959493929190611876565b60405180910390a250505050505050505050565b828054828255905f5260205f20908101928215610990579160200282015b8281111561098f57825182908161097f91906113cf565b5091602001919060010190610968565b5b50905061099d91906109a1565b5090565b5b808211156109c0575f81816109b791906109c4565b506001016109a2565b5090565b5080546109d090611202565b5f825580601f106109e157506109fe565b601f0160209004905f5260205f20908101906109fd9190610a01565b5b50565b5b80821115610a18575f815f905550600101610a02565b5090565b5f604051905090565b5f80fd5b5f80fd5b5f819050919050565b610a3f81610a2d565b8114610a49575f80fd5b50565b5f81359050610a5a81610a36565b92915050565b5f80fd5b5f80fd5b5f601f19601f8301169050919050565b7f4e487b71000000000000000000000000000000000000000000000000000000005f52604160045260245ffd5b610aae82610a68565b810181811067ffffffffffffffff82111715610acd57610acc610a78565b5b80604052505050565b5f610adf610a1c565b9050610aeb8282610aa5565b919050565b5f67ffffffffffffffff821115610b0a57610b09610a78565b5b610b1382610a68565b9050602081019050919050565b828183375f83830152505050565b5f610b40610b3b84610af0565b610ad6565b905082815260208101848484011115610b5c57610b5b610a64565b5b610b67848285610b20565b509392505050565b5f82601f830112610b8357610b82610a60565b5b8135610b93848260208601610b2e565b91505092915050565b5f8060408385031215610bb257610bb1610a25565b5b5f610bbf85828601610a4c565b925050602083013567ffffffffffffffff811115610be057610bdf610a29565b5b610bec85828601610b6f565b9150509250929050565b5f60208284031215610c0b57610c0a610a25565b5b5f610c1884828501610a4c565b91505092915050565b610c2a81610a2d565b82525050565b5f81519050919050565b5f82825260208201905092915050565b8281835e5f83830152505050565b5f610c6282610c30565b610c6c8185610c3a565b9350610c7c818560208601610c4a565b610c8581610a68565b840191505092915050565b5f82825260208201905092915050565b5f610caa82610c30565b610cb48185610c90565b9350610cc4818560208601610c4a565b610ccd81610a68565b840191505092915050565b610ce181610a2d565b82525050565b5f8115159050919050565b610cfb81610ce7565b82525050565b5f60c083015f8301518482035f860152610d1b8282610ca0565b91505060208301518482036020860152610d358282610ca0565b9150506040830151610d4a6040860182610cd8565b506060830151610d5d6060860182610cf2565b506080830151610d706080860182610cf2565b5060a0830151610d8360a0860182610cd8565b508091505092915050565b5f60c082019050610da15f830189610c21565b8181036020830152610db38188610c58565b90508181036040830152610dc78187610c58565b90508181036060830152610ddb8186610c58565b9050610dea6080830185610c21565b81810360a0830152610dfc8184610d01565b9050979650505050505050565b5f67ffffffffffffffff821115610e2357610e22610a78565b5b602082029050602081019050919050565b5f80fd5b5f610e4a610e4584610e09565b610ad6565b90508083825260208201905060208402830185811115610e6d57610e6c610e34565b5b835b81811015610eb457803567ffffffffffffffff811115610e9257610e91610a60565b5b808601610e9f8982610b6f565b85526020850194505050602081019050610e6f565b5050509392505050565b5f82601f830112610ed257610ed1610a60565b5b8135610ee2848260208601610e38565b91505092915050565b610ef481610ce7565b8114610efe575f80fd5b50565b5f81359050610f0f81610eeb565b92915050565b5f805f805f805f805f6101208a8c031215610f3357610f32610a25565b5b5f8a013567ffffffffffffffff811115610f5057610f4f610a29565b5b610f5c8c828d01610b6f565b99505060208a013567ffffffffffffffff811115610f7d57610f7c610a29565b5b610f898c828d01610b6f565b98505060408a013567ffffffffffffffff811115610faa57610fa9610a29565b5b610fb68c828d01610b6f565b97505060608a013567ffffffffffffffff811115610fd757610fd6610a29565b5b610fe38c828d01610ebe565b96505060808a013567ffffffffffffffff81111561100457611003610a29565b5b6110108c828d01610ebe565b95505060a06110218c828d01610a4c565b94505060c08a013567ffffffffffffffff81111561104257611041610a29565b5b61104e8c828d01610b6f565b93505060e08a013567ffffffffffffffff81111561106f5761106e610a29565b5b61107b8c828d01610b6f565b92505061010061108d8c828d01610f01565b9150509295985092959850929598565b7f50726f6475637420646f6573206e6f74206578697374000000000000000000005f82015250565b5f6110d1601683610c3a565b91506110dc8261109d565b602082019050919050565b5f6020820190508181035f8301526110fe816110c5565b9050919050565b7f50726f64756374206973206f7574206f662073746f636b0000000000000000005f82015250565b5f611139601783610c3a565b915061114482611105565b602082019050919050565b5f6020820190508181035f8301526111668161112d565b9050919050565b7f50726f6475637420686173206265656e207368697070656400000000000000005f82015250565b5f6111a1601883610c3a565b91506111ac8261116d565b602082019050919050565b5f6020820190508181035f8301526111ce81611195565b9050919050565b7f4e487b71000000000000000000000000000000000000000000000000000000005f52602260045260245ffd5b5f600282049050600182168061121957607f821691505b60208210810361122c5761122b6111d5565b5b50919050565b5f819050815f5260205f209050919050565b5f6020601f8301049050919050565b5f82821b905092915050565b5f6008830261128e7fffffffffffffffffffffffffffffffffffffffffffffffffffffffffffffffff82611253565b6112988683611253565b95508019841693508086168417925050509392505050565b5f819050919050565b5f6112d36112ce6112c984610a2d565b6112b0565b610a2d565b9050919050565b5f819050919050565b6112ec836112b9565b6113006112f8826112da565b84845461125f565b825550505050565b5f90565b611314611308565b61131f8184846112e3565b505050565b5b81811015611342576113375f8261130c565b600181019050611325565b5050565b601f8211156113875761135881611232565b61136184611244565b81016020851015611370578190505b61138461137c85611244565b830182611324565b50505b505050565b5f82821c905092915050565b5f6113a75f198460080261138c565b1980831691505092915050565b5f6113bf8383611398565b9150826002028217905092915050565b6113d882610c30565b67ffffffffffffffff8111156113f1576113f0610a78565b5b6113fb8254611202565b611406828285611346565b5f60209050601f831160018114611437575f8415611425578287015190505b61142f85826113b4565b865550611496565b601f19841661144586611232565b5f5b8281101561146c57848901518255600182019150602085019450602081019050611447565b868310156114895784890151611485601f891682611398565b8355505b6001600288020188555050505b505050505050565b5f81546114aa81611202565b6114b48186610c3a565b9450600182165f81146114ce57600181146114e457611516565b60ff198316865281151560200286019350611516565b6114ed85611232565b5f5b8381101561150e578154818901526001820191506020810190506114ef565b808801955050505b50505092915050565b61152881610ce7565b82525050565b5f60a0820190508181035f830152611546818861149e565b9050818103602083015261155a818761149e565b90506115696040830186610c21565b6115766060830185610c21565b611583608083018461151f565b9695505050505050565b7f456d7074792070726f647563742074797065206e6f7420616c6c6f77656400005f82015250565b5f6115c1601e83610c3a565b91506115cc8261158d565b602082019050919050565b5f6020820190508181035f8301526115ee816115b5565b9050919050565b7f456d7074792070726f64756374206e616d65206e6f7420616c6c6f77656400005f82015250565b5f611629601e83610c3a565b9150611634826115f5565b602082019050919050565b5f6020820190508181035f8301526116568161161d565b9050919050565b7f456d707479206272616e64206e616d65206e6f7420616c6c6f776564000000005f82015250565b5f611691601c83610c3a565b915061169c8261165d565b602082019050919050565b5f6020820190508181035f8301526116be81611685565b9050919050565b7f5175616e74697479206d7573742062652067726561746572207468616e207a655f8201527f726f000000000000000000000000000000000000000000000000000000000000602082015250565b5f61171f602283610c3a565b915061172a826116c5565b604082019050919050565b5f6020820190508181035f83015261174c81611713565b9050919050565b7f50726f6475637420616c726561647920657869737473000000000000000000005f82015250565b5f611787601683610c3a565b915061179282611753565b602082019050919050565b5f6020820190508181035f8301526117b48161177b565b9050919050565b5f81519050919050565b5f82825260208201905092915050565b5f819050602082019050919050565b5f6117ef8383610ca0565b905092915050565b5f602082019050919050565b5f61180d826117bb565b61181781856117c5565b935083602082028501611829856117d5565b805f5b85811015611864578484038952815161184585826117e4565b9450611850836117f7565b925060208a0199505060018101905061182c565b50829750879550505050505092915050565b5f60c0820190508181035f83015261188e8189610c58565b905081810360208301526118a28188610c58565b905081810360408301526118b68187610c58565b905081810360608301526118ca8186611803565b905081810360808301526118de8185611803565b90506118ed60a0830184610c21565b97965050505050505056fea2646970667358221220c64932cd52dd26c491aa2082d4c87ef26f868f875b84027076952ffe18b4498164736f6c634300081a0033",
					"opcodes": "PUSH1 0x80 PUSH1 0x40 MSTORE CALLVALUE DUP1 ISZERO PUSH1 0xE JUMPI PUSH0 DUP1 REVERT JUMPDEST POP PUSH2 0x192E DUP1 PUSH2 0x1C PUSH0 CODECOPY PUSH0 RETURN INVALID PUSH1 0x80 PUSH1 0x40 MSTORE CALLVALUE DUP1 ISZERO PUSH2 0xF JUMPI PUSH0 DUP1 REVERT JUMPDEST POP PUSH1 0x4 CALLDATASIZE LT PUSH2 0x3F JUMPI PUSH0 CALLDATALOAD PUSH1 0xE0 SHR DUP1 PUSH4 0x21120F9A EQ PUSH2 0x43 JUMPI DUP1 PUSH4 0x7ACC0B20 EQ PUSH2 0x5F JUMPI DUP1 PUSH4 0x9ED04F5D EQ PUSH2 0x94 JUMPI JUMPDEST PUSH0 DUP1 REVERT JUMPDEST PUSH2 0x5D PUSH1 0x4 DUP1 CALLDATASIZE SUB DUP2 ADD SWAP1 PUSH2 0x58 SWAP2 SWAP1 PUSH2 0xB9C JUMP JUMPDEST PUSH2 0xB0 JUMP JUMPDEST STOP JUMPDEST PUSH2 0x79 PUSH1 0x4 DUP1 CALLDATASIZE SUB DUP2 ADD SWAP1 PUSH2 0x74 SWAP2 SWAP1 PUSH2 0xBF6 JUMP JUMPDEST PUSH2 0x2BF JUMP JUMPDEST PUSH1 0x40 MLOAD PUSH2 0x8B SWAP7 SWAP6 SWAP5 SWAP4 SWAP3 SWAP2 SWAP1 PUSH2 0xD8E JUMP JUMPDEST PUSH1 0x40 MLOAD DUP1 SWAP2 SUB SWAP1 RETURN JUMPDEST PUSH2 0xAE PUSH1 0x4 DUP1 CALLDATASIZE SUB DUP2 ADD SWAP1 PUSH2 0xA9 SWAP2 SWAP1 PUSH2 0xF15 JUMP JUMPDEST PUSH2 0x5FA JUMP JUMPDEST STOP JUMPDEST DUP2 DUP1 PUSH0 DUP1 DUP4 DUP2 MSTORE PUSH1 0x20 ADD SWAP1 DUP2 MSTORE PUSH1 0x20 ADD PUSH0 KECCAK256 PUSH0 ADD SLOAD SUB PUSH2 0x105 JUMPI PUSH1 0x40 MLOAD PUSH32 0x8C379A000000000000000000000000000000000000000000000000000000000 DUP2 MSTORE PUSH1 0x4 ADD PUSH2 0xFC SWAP1 PUSH2 0x10E7 JUMP JUMPDEST PUSH1 0x40 MLOAD DUP1 SWAP2 SUB SWAP1 REVERT JUMPDEST PUSH0 DUP1 PUSH0 DUP4 DUP2 MSTORE PUSH1 0x20 ADD SWAP1 DUP2 MSTORE PUSH1 0x20 ADD PUSH0 KECCAK256 PUSH1 0x6 ADD SLOAD SUB PUSH2 0x15A JUMPI PUSH1 0x40 MLOAD PUSH32 0x8C379A000000000000000000000000000000000000000000000000000000000 DUP2 MSTORE PUSH1 0x4 ADD PUSH2 0x151 SWAP1 PUSH2 0x114F JUMP JUMPDEST PUSH1 0x40 MLOAD DUP1 SWAP2 SUB SWAP1 REVERT JUMPDEST PUSH1 0x1 ISZERO ISZERO PUSH0 DUP1 DUP4 DUP2 MSTORE PUSH1 0x20 ADD SWAP1 DUP2 MSTORE PUSH1 0x20 ADD PUSH0 KECCAK256 PUSH1 0x7 ADD PUSH1 0x3 ADD PUSH0 SWAP1 SLOAD SWAP1 PUSH2 0x100 EXP SWAP1 DIV PUSH1 0xFF AND ISZERO ISZERO EQ PUSH2 0x1C3 JUMPI PUSH1 0x40 MLOAD PUSH32 0x8C379A000000000000000000000000000000000000000000000000000000000 DUP2 MSTORE PUSH1 0x4 ADD PUSH2 0x1BA SWAP1 PUSH2 0x11B7 JUMP JUMPDEST PUSH1 0x40 MLOAD DUP1 SWAP2 SUB SWAP1 REVERT JUMPDEST DUP2 PUSH0 DUP1 DUP6 DUP2 MSTORE PUSH1 0x20 ADD SWAP1 DUP2 MSTORE PUSH1 0x20 ADD PUSH0 KECCAK256 PUSH1 0x7 ADD PUSH0 ADD SWAP1 DUP2 PUSH2 0x1E5 SWAP2 SWAP1 PUSH2 0x13CF JUMP JUMPDEST POP TIMESTAMP PUSH0 DUP1 DUP6 DUP2 MSTORE PUSH1 0x20 ADD SWAP1 DUP2 MSTORE PUSH1 0x20 ADD PUSH0 KECCAK256 PUSH1 0x7 ADD PUSH1 0x2 ADD DUP2 SWAP1 SSTORE POP PUSH1 0x1 PUSH0 DUP1 DUP6 DUP2 MSTORE PUSH1 0x20 ADD SWAP1 DUP2 MSTORE PUSH1 0x20 ADD PUSH0 KECCAK256 PUSH1 0x7 ADD PUSH1 0x3 ADD PUSH0 PUSH2 0x100 EXP DUP2 SLOAD DUP2 PUSH1 0xFF MUL NOT AND SWAP1 DUP4 ISZERO ISZERO MUL OR SWAP1 SSTORE POP PUSH32 0xF295C689D401CE1625E9BD2ADBA7641F92CC231677989C7FE706354CB643E798 PUSH0 DUP1 DUP6 DUP2 MSTORE PUSH1 0x20 ADD SWAP1 DUP2 MSTORE PUSH1 0x20 ADD PUSH0 KECCAK256 PUSH1 0x7 ADD PUSH0 ADD PUSH0 DUP1 DUP7 DUP2 MSTORE PUSH1 0x20 ADD SWAP1 DUP2 MSTORE PUSH1 0x20 ADD PUSH0 KECCAK256 PUSH1 0x7 ADD PUSH1 0x1 ADD TIMESTAMP DUP7 PUSH0 DUP1 DUP10 DUP2 MSTORE PUSH1 0x20 ADD SWAP1 DUP2 MSTORE PUSH1 0x20 ADD PUSH0 KECCAK256 PUSH1 0x7 ADD PUSH1 0x3 ADD PUSH1 0x1 SWAP1 SLOAD SWAP1 PUSH2 0x100 EXP SWAP1 DIV PUSH1 0xFF AND PUSH1 0x40 MLOAD PUSH2 0x2B2 SWAP6 SWAP5 SWAP4 SWAP3 SWAP2 SWAP1 PUSH2 0x152E JUMP JUMPDEST PUSH1 0x40 MLOAD DUP1 SWAP2 SUB SWAP1 LOG1 POP POP POP JUMP JUMPDEST PUSH0 PUSH1 0x20 MSTORE DUP1 PUSH0 MSTORE PUSH1 0x40 PUSH0 KECCAK256 PUSH0 SWAP2 POP SWAP1 POP DUP1 PUSH0 ADD SLOAD SWAP1 DUP1 PUSH1 0x1 ADD DUP1 SLOAD PUSH2 0x2E3 SWAP1 PUSH2 0x1202 JUMP JUMPDEST DUP1 PUSH1 0x1F ADD PUSH1 0x20 DUP1 SWAP2 DIV MUL PUSH1 0x20 ADD PUSH1 0x40 MLOAD SWAP1 DUP2 ADD PUSH1 0x40 MSTORE DUP1 SWAP3 SWAP2 SWAP1 DUP2 DUP2 MSTORE PUSH1 0x20 ADD DUP3 DUP1 SLOAD PUSH2 0x30F SWAP1 PUSH2 0x1202 JUMP JUMPDEST DUP1 ISZERO PUSH2 0x35A JUMPI DUP1 PUSH1 0x1F LT PUSH2 0x331 JUMPI PUSH2 0x100 DUP1 DUP4 SLOAD DIV MUL DUP4 MSTORE SWAP2 PUSH1 0x20 ADD SWAP2 PUSH2 0x35A JUMP JUMPDEST DUP3 ADD SWAP2 SWAP1 PUSH0 MSTORE PUSH1 0x20 PUSH0 KECCAK256 SWAP1 JUMPDEST DUP2 SLOAD DUP2 MSTORE SWAP1 PUSH1 0x1 ADD SWAP1 PUSH1 0x20 ADD DUP1 DUP4 GT PUSH2 0x33D JUMPI DUP3 SWAP1 SUB PUSH1 0x1F AND DUP3 ADD SWAP2 JUMPDEST POP POP POP POP POP SWAP1 DUP1 PUSH1 0x2 ADD DUP1 SLOAD PUSH2 0x36F SWAP1 PUSH2 0x1202 JUMP JUMPDEST DUP1 PUSH1 0x1F ADD PUSH1 0x20 DUP1 SWAP2 DIV MUL PUSH1 0x20 ADD PUSH1 0x40 MLOAD SWAP1 DUP2 ADD PUSH1 0x40 MSTORE DUP1 SWAP3 SWAP2 SWAP1 DUP2 DUP2 MSTORE PUSH1 0x20 ADD DUP3 DUP1 SLOAD PUSH2 0x39B SWAP1 PUSH2 0x1202 JUMP JUMPDEST DUP1 ISZERO PUSH2 0x3E6 JUMPI DUP1 PUSH1 0x1F LT PUSH2 0x3BD JUMPI PUSH2 0x100 DUP1 DUP4 SLOAD DIV MUL DUP4 MSTORE SWAP2 PUSH1 0x20 ADD SWAP2 PUSH2 0x3E6 JUMP JUMPDEST DUP3 ADD SWAP2 SWAP1 PUSH0 MSTORE PUSH1 0x20 PUSH0 KECCAK256 SWAP1 JUMPDEST DUP2 SLOAD DUP2 MSTORE SWAP1 PUSH1 0x1 ADD SWAP1 PUSH1 0x20 ADD DUP1 DUP4 GT PUSH2 0x3C9 JUMPI DUP3 SWAP1 SUB PUSH1 0x1F AND DUP3 ADD SWAP2 JUMPDEST POP POP POP POP POP SWAP1 DUP1 PUSH1 0x3 ADD DUP1 SLOAD PUSH2 0x3FB SWAP1 PUSH2 0x1202 JUMP JUMPDEST DUP1 PUSH1 0x1F ADD PUSH1 0x20 DUP1 SWAP2 DIV MUL PUSH1 0x20 ADD PUSH1 0x40 MLOAD SWAP1 DUP2 ADD PUSH1 0x40 MSTORE DUP1 SWAP3 SWAP2 SWAP1 DUP2 DUP2 MSTORE PUSH1 0x20 ADD DUP3 DUP1 SLOAD PUSH2 0x427 SWAP1 PUSH2 0x1202 JUMP JUMPDEST DUP1 ISZERO PUSH2 0x472 JUMPI DUP1 PUSH1 0x1F LT PUSH2 0x449 JUMPI PUSH2 0x100 DUP1 DUP4 SLOAD DIV MUL DUP4 MSTORE SWAP2 PUSH1 0x20 ADD SWAP2 PUSH2 0x472 JUMP JUMPDEST DUP3 ADD SWAP2 SWAP1 PUSH0 MSTORE PUSH1 0x20 PUSH0 KECCAK256 SWAP1 JUMPDEST DUP2 SLOAD DUP2 MSTORE SWAP1 PUSH1 0x1 ADD SWAP1 PUSH1 0x20 ADD DUP1 DUP4 GT PUSH2 0x455 JUMPI DUP3 SWAP1 SUB PUSH1 0x1F AND DUP3 ADD SWAP2 JUMPDEST POP POP POP POP POP SWAP1 DUP1 PUSH1 0x6 ADD SLOAD SWAP1 DUP1 PUSH1 0x7 ADD PUSH1 0x40 MLOAD DUP1 PUSH1 0xC0 ADD PUSH1 0x40 MSTORE SWAP1 DUP2 PUSH0 DUP3 ADD DUP1 SLOAD PUSH2 0x49C SWAP1 PUSH2 0x1202 JUMP JUMPDEST DUP1 PUSH1 0x1F ADD PUSH1 0x20 DUP1 SWAP2 DIV MUL PUSH1 0x20 ADD PUSH1 0x40 MLOAD SWAP1 DUP2 ADD PUSH1 0x40 MSTORE DUP1 SWAP3 SWAP2 SWAP1 DUP2 DUP2 MSTORE PUSH1 0x20 ADD DUP3 DUP1 SLOAD PUSH2 0x4C8 SWAP1 PUSH2 0x1202 JUMP JUMPDEST DUP1 ISZERO PUSH2 0x513 JUMPI DUP1 PUSH1 0x1F LT PUSH2 0x4EA JUMPI PUSH2 0x100 DUP1 DUP4 SLOAD DIV MUL DUP4 MSTORE SWAP2 PUSH1 0x20 ADD SWAP2 PUSH2 0x513 JUMP JUMPDEST DUP3 ADD SWAP2 SWAP1 PUSH0 MSTORE PUSH1 0x20 PUSH0 KECCAK256 SWAP1 JUMPDEST DUP2 SLOAD DUP2 MSTORE SWAP1 PUSH1 0x1 ADD SWAP1 PUSH1 0x20 ADD DUP1 DUP4 GT PUSH2 0x4F6 JUMPI DUP3 SWAP1 SUB PUSH1 0x1F AND DUP3 ADD SWAP2 JUMPDEST POP POP POP POP POP DUP2 MSTORE PUSH1 0x20 ADD PUSH1 0x1 DUP3 ADD DUP1 SLOAD PUSH2 0x52C SWAP1 PUSH2 0x1202 JUMP JUMPDEST DUP1 PUSH1 0x1F ADD PUSH1 0x20 DUP1 SWAP2 DIV MUL PUSH1 0x20 ADD PUSH1 0x40 MLOAD SWAP1 DUP2 ADD PUSH1 0x40 MSTORE DUP1 SWAP3 SWAP2 SWAP1 DUP2 DUP2 MSTORE PUSH1 0x20 ADD DUP3 DUP1 SLOAD PUSH2 0x558 SWAP1 PUSH2 0x1202 JUMP JUMPDEST DUP1 ISZERO PUSH2 0x5A3 JUMPI DUP1 PUSH1 0x1F LT PUSH2 0x57A JUMPI PUSH2 0x100 DUP1 DUP4 SLOAD DIV MUL DUP4 MSTORE SWAP2 PUSH1 0x20 ADD SWAP2 PUSH2 0x5A3 JUMP JUMPDEST DUP3 ADD SWAP2 SWAP1 PUSH0 MSTORE PUSH1 0x20 PUSH0 KECCAK256 SWAP1 JUMPDEST DUP2 SLOAD DUP2 MSTORE SWAP1 PUSH1 0x1 ADD SWAP1 PUSH1 0x20 ADD DUP1 DUP4 GT PUSH2 0x586 JUMPI DUP3 SWAP1 SUB PUSH1 0x1F AND DUP3 ADD SWAP2 JUMPDEST POP POP POP POP POP DUP2 MSTORE PUSH1 0x20 ADD PUSH1 0x2 DUP3 ADD SLOAD DUP2 MSTORE PUSH1 0x20 ADD PUSH1 0x3 DUP3 ADD PUSH0 SWAP1 SLOAD SWAP1 PUSH2 0x100 EXP SWAP1 DIV PUSH1 0xFF AND ISZERO ISZERO ISZERO ISZERO DUP2 MSTORE PUSH1 0x20 ADD PUSH1 0x3 DUP3 ADD PUSH1 0x1 SWAP1 SLOAD SWAP1 PUSH2 0x100 EXP SWAP1 DIV PUSH1 0xFF AND ISZERO ISZERO ISZERO ISZERO DUP2 MSTORE PUSH1 0x20 ADD PUSH1 0x4 DUP3 ADD SLOAD DUP2 MSTORE POP POP SWAP1 POP DUP7 JUMP JUMPDEST PUSH0 DUP10 MLOAD GT PUSH2 0x63D JUMPI PUSH1 0x40 MLOAD PUSH32 0x8C379A000000000000000000000000000000000000000000000000000000000 DUP2 MSTORE PUSH1 0x4 ADD PUSH2 0x634 SWAP1 PUSH2 0x15D7 JUMP JUMPDEST PUSH1 0x40 MLOAD DUP1 SWAP2 SUB SWAP1 REVERT JUMPDEST PUSH0 DUP9 MLOAD GT PUSH2 0x680 JUMPI PUSH1 0x40 MLOAD PUSH32 0x8C379A000000000000000000000000000000000000000000000000000000000 DUP2 MSTORE PUSH1 0x4 ADD PUSH2 0x677 SWAP1 PUSH2 0x163F JUMP JUMPDEST PUSH1 0x40 MLOAD DUP1 SWAP2 SUB SWAP1 REVERT JUMPDEST PUSH0 DUP8 MLOAD GT PUSH2 0x6C3 JUMPI PUSH1 0x40 MLOAD PUSH32 0x8C379A000000000000000000000000000000000000000000000000000000000 DUP2 MSTORE PUSH1 0x4 ADD PUSH2 0x6BA SWAP1 PUSH2 0x16A7 JUMP JUMPDEST PUSH1 0x40 MLOAD DUP1 SWAP2 SUB SWAP1 REVERT JUMPDEST PUSH0 DUP5 GT PUSH2 0x705 JUMPI PUSH1 0x40 MLOAD PUSH32 0x8C379A000000000000000000000000000000000000000000000000000000000 DUP2 MSTORE PUSH1 0x4 ADD PUSH2 0x6FC SWAP1 PUSH2 0x1735 JUMP JUMPDEST PUSH1 0x40 MLOAD DUP1 SWAP2 SUB SWAP1 REVERT JUMPDEST PUSH0 TIMESTAMP SWAP1 POP PUSH0 DUP1 PUSH0 DUP4 DUP2 MSTORE PUSH1 0x20 ADD SWAP1 DUP2 MSTORE PUSH1 0x20 ADD PUSH0 KECCAK256 PUSH0 ADD SLOAD EQ PUSH2 0x75D JUMPI PUSH1 0x40 MLOAD PUSH32 0x8C379A000000000000000000000000000000000000000000000000000000000 DUP2 MSTORE PUSH1 0x4 ADD PUSH2 0x754 SWAP1 PUSH2 0x179D JUMP JUMPDEST PUSH1 0x40 MLOAD DUP1 SWAP2 SUB SWAP1 REVERT JUMPDEST PUSH1 0x40 MLOAD DUP1 PUSH2 0x100 ADD PUSH1 0x40 MSTORE DUP1 DUP3 DUP2 MSTORE PUSH1 0x20 ADD DUP12 DUP2 MSTORE PUSH1 0x20 ADD DUP10 DUP2 MSTORE PUSH1 0x20 ADD DUP11 DUP2 MSTORE PUSH1 0x20 ADD DUP9 DUP2 MSTORE PUSH1 0x20 ADD DUP8 DUP2 MSTORE PUSH1 0x20 ADD DUP7 DUP2 MSTORE PUSH1 0x20 ADD PUSH1 0x40 MLOAD DUP1 PUSH1 0xC0 ADD PUSH1 0x40 MSTORE DUP1 DUP8 DUP2 MSTORE PUSH1 0x20 ADD DUP7 DUP2 MSTORE PUSH1 0x20 ADD DUP6 PUSH2 0x7B5 JUMPI PUSH0 PUSH2 0x7B7 JUMP JUMPDEST TIMESTAMP JUMPDEST DUP2 MSTORE PUSH1 0x20 ADD DUP6 ISZERO ISZERO DUP2 MSTORE PUSH1 0x20 ADD PUSH0 ISZERO ISZERO DUP2 MSTORE PUSH1 0x20 ADD PUSH0 DUP2 MSTORE POP DUP2 MSTORE POP PUSH0 DUP1 DUP4 DUP2 MSTORE PUSH1 0x20 ADD SWAP1 DUP2 MSTORE PUSH1 0x20 ADD PUSH0 KECCAK256 PUSH0 DUP3 ADD MLOAD DUP2 PUSH0 ADD SSTORE PUSH1 0x20 DUP3 ADD MLOAD DUP2 PUSH1 0x1 ADD SWAP1 DUP2 PUSH2 0x800 SWAP2 SWAP1 PUSH2 0x13CF JUMP JUMPDEST POP PUSH1 0x40 DUP3 ADD MLOAD DUP2 PUSH1 0x2 ADD SWAP1 DUP2 PUSH2 0x816 SWAP2 SWAP1 PUSH2 0x13CF JUMP JUMPDEST POP PUSH1 0x60 DUP3 ADD MLOAD DUP2 PUSH1 0x3 ADD SWAP1 DUP2 PUSH2 0x82C SWAP2 SWAP1 PUSH2 0x13CF JUMP JUMPDEST POP PUSH1 0x80 DUP3 ADD MLOAD DUP2 PUSH1 0x4 ADD SWAP1 DUP1 MLOAD SWAP1 PUSH1 0x20 ADD SWAP1 PUSH2 0x849 SWAP3 SWAP2 SWAP1 PUSH2 0x94A JUMP JUMPDEST POP PUSH1 0xA0 DUP3 ADD MLOAD DUP2 PUSH1 0x5 ADD SWAP1 DUP1 MLOAD SWAP1 PUSH1 0x20 ADD SWAP1 PUSH2 0x866 SWAP3 SWAP2 SWAP1 PUSH2 0x94A JUMP JUMPDEST POP PUSH1 0xC0 DUP3 ADD MLOAD DUP2 PUSH1 0x6 ADD SSTORE PUSH1 0xE0 DUP3 ADD MLOAD DUP2 PUSH1 0x7 ADD PUSH0 DUP3 ADD MLOAD DUP2 PUSH0 ADD SWAP1 DUP2 PUSH2 0x88D SWAP2 SWAP1 PUSH2 0x13CF JUMP JUMPDEST POP PUSH1 0x20 DUP3 ADD MLOAD DUP2 PUSH1 0x1 ADD SWAP1 DUP2 PUSH2 0x8A3 SWAP2 SWAP1 PUSH2 0x13CF JUMP JUMPDEST POP PUSH1 0x40 DUP3 ADD MLOAD DUP2 PUSH1 0x2 ADD SSTORE PUSH1 0x60 DUP3 ADD MLOAD DUP2 PUSH1 0x3 ADD PUSH0 PUSH2 0x100 EXP DUP2 SLOAD DUP2 PUSH1 0xFF MUL NOT AND SWAP1 DUP4 ISZERO ISZERO MUL OR SWAP1 SSTORE POP PUSH1 0x80 DUP3 ADD MLOAD DUP2 PUSH1 0x3 ADD PUSH1 0x1 PUSH2 0x100 EXP DUP2 SLOAD DUP2 PUSH1 0xFF MUL NOT AND SWAP1 DUP4 ISZERO ISZERO MUL OR SWAP1 SSTORE POP PUSH1 0xA0 DUP3 ADD MLOAD DUP2 PUSH1 0x4 ADD SSTORE POP POP SWAP1 POP POP DUP1 PUSH32 0xF208792A7453BF9453C1C4054FD9B31B52FBA888DCC972943BD0CB99DF1C4F72 DUP12 DUP11 DUP13 DUP12 DUP12 DUP12 PUSH1 0x40 MLOAD PUSH2 0x936 SWAP7 SWAP6 SWAP5 SWAP4 SWAP3 SWAP2 SWAP1 PUSH2 0x1876 JUMP JUMPDEST PUSH1 0x40 MLOAD DUP1 SWAP2 SUB SWAP1 LOG2 POP POP POP POP POP POP POP POP POP POP JUMP JUMPDEST DUP3 DUP1 SLOAD DUP3 DUP3 SSTORE SWAP1 PUSH0 MSTORE PUSH1 0x20 PUSH0 KECCAK256 SWAP1 DUP2 ADD SWAP3 DUP3 ISZERO PUSH2 0x990 JUMPI SWAP2 PUSH1 0x20 MUL DUP3 ADD JUMPDEST DUP3 DUP2 GT ISZERO PUSH2 0x98F JUMPI DUP3 MLOAD DUP3 SWAP1 DUP2 PUSH2 0x97F SWAP2 SWAP1 PUSH2 0x13CF JUMP JUMPDEST POP SWAP2 PUSH1 0x20 ADD SWAP2 SWAP1 PUSH1 0x1 ADD SWAP1 PUSH2 0x968 JUMP JUMPDEST JUMPDEST POP SWAP1 POP PUSH2 0x99D SWAP2 SWAP1 PUSH2 0x9A1 JUMP JUMPDEST POP SWAP1 JUMP JUMPDEST JUMPDEST DUP1 DUP3 GT ISZERO PUSH2 0x9C0 JUMPI PUSH0 DUP2 DUP2 PUSH2 0x9B7 SWAP2 SWAP1 PUSH2 0x9C4 JUMP JUMPDEST POP PUSH1 0x1 ADD PUSH2 0x9A2 JUMP JUMPDEST POP SWAP1 JUMP JUMPDEST POP DUP1 SLOAD PUSH2 0x9D0 SWAP1 PUSH2 0x1202 JUMP JUMPDEST PUSH0 DUP3 SSTORE DUP1 PUSH1 0x1F LT PUSH2 0x9E1 JUMPI POP PUSH2 0x9FE JUMP JUMPDEST PUSH1 0x1F ADD PUSH1 0x20 SWAP1 DIV SWAP1 PUSH0 MSTORE PUSH1 0x20 PUSH0 KECCAK256 SWAP1 DUP2 ADD SWAP1 PUSH2 0x9FD SWAP2 SWAP1 PUSH2 0xA01 JUMP JUMPDEST JUMPDEST POP JUMP JUMPDEST JUMPDEST DUP1 DUP3 GT ISZERO PUSH2 0xA18 JUMPI PUSH0 DUP2 PUSH0 SWAP1 SSTORE POP PUSH1 0x1 ADD PUSH2 0xA02 JUMP JUMPDEST POP SWAP1 JUMP JUMPDEST PUSH0 PUSH1 0x40 MLOAD SWAP1 POP SWAP1 JUMP JUMPDEST PUSH0 DUP1 REVERT JUMPDEST PUSH0 DUP1 REVERT JUMPDEST PUSH0 DUP2 SWAP1 POP SWAP2 SWAP1 POP JUMP JUMPDEST PUSH2 0xA3F DUP2 PUSH2 0xA2D JUMP JUMPDEST DUP2 EQ PUSH2 0xA49 JUMPI PUSH0 DUP1 REVERT JUMPDEST POP JUMP JUMPDEST PUSH0 DUP2 CALLDATALOAD SWAP1 POP PUSH2 0xA5A DUP2 PUSH2 0xA36 JUMP JUMPDEST SWAP3 SWAP2 POP POP JUMP JUMPDEST PUSH0 DUP1 REVERT JUMPDEST PUSH0 DUP1 REVERT JUMPDEST PUSH0 PUSH1 0x1F NOT PUSH1 0x1F DUP4 ADD AND SWAP1 POP SWAP2 SWAP1 POP JUMP JUMPDEST PUSH32 0x4E487B7100000000000000000000000000000000000000000000000000000000 PUSH0 MSTORE PUSH1 0x41 PUSH1 0x4 MSTORE PUSH1 0x24 PUSH0 REVERT JUMPDEST PUSH2 0xAAE DUP3 PUSH2 0xA68 JUMP JUMPDEST DUP2 ADD DUP2 DUP2 LT PUSH8 0xFFFFFFFFFFFFFFFF DUP3 GT OR ISZERO PUSH2 0xACD JUMPI PUSH2 0xACC PUSH2 0xA78 JUMP JUMPDEST JUMPDEST DUP1 PUSH1 0x40 MSTORE POP POP POP JUMP JUMPDEST PUSH0 PUSH2 0xADF PUSH2 0xA1C JUMP JUMPDEST SWAP1 POP PUSH2 0xAEB DUP3 DUP3 PUSH2 0xAA5 JUMP JUMPDEST SWAP2 SWAP1 POP JUMP JUMPDEST PUSH0 PUSH8 0xFFFFFFFFFFFFFFFF DUP3 GT ISZERO PUSH2 0xB0A JUMPI PUSH2 0xB09 PUSH2 0xA78 JUMP JUMPDEST JUMPDEST PUSH2 0xB13 DUP3 PUSH2 0xA68 JUMP JUMPDEST SWAP1 POP PUSH1 0x20 DUP2 ADD SWAP1 POP SWAP2 SWAP1 POP JUMP JUMPDEST DUP3 DUP2 DUP4 CALLDATACOPY PUSH0 DUP4 DUP4 ADD MSTORE POP POP POP JUMP JUMPDEST PUSH0 PUSH2 0xB40 PUSH2 0xB3B DUP5 PUSH2 0xAF0 JUMP JUMPDEST PUSH2 0xAD6 JUMP JUMPDEST SWAP1 POP DUP3 DUP2 MSTORE PUSH1 0x20 DUP2 ADD DUP5 DUP5 DUP5 ADD GT ISZERO PUSH2 0xB5C JUMPI PUSH2 0xB5B PUSH2 0xA64 JUMP JUMPDEST JUMPDEST PUSH2 0xB67 DUP5 DUP3 DUP6 PUSH2 0xB20 JUMP JUMPDEST POP SWAP4 SWAP3 POP POP POP JUMP JUMPDEST PUSH0 DUP3 PUSH1 0x1F DUP4 ADD SLT PUSH2 0xB83 JUMPI PUSH2 0xB82 PUSH2 0xA60 JUMP JUMPDEST JUMPDEST DUP2 CALLDATALOAD PUSH2 0xB93 DUP5 DUP3 PUSH1 0x20 DUP7 ADD PUSH2 0xB2E JUMP JUMPDEST SWAP2 POP POP SWAP3 SWAP2 POP POP JUMP JUMPDEST PUSH0 DUP1 PUSH1 0x40 DUP4 DUP6 SUB SLT ISZERO PUSH2 0xBB2 JUMPI PUSH2 0xBB1 PUSH2 0xA25 JUMP JUMPDEST JUMPDEST PUSH0 PUSH2 0xBBF DUP6 DUP3 DUP7 ADD PUSH2 0xA4C JUMP JUMPDEST SWAP3 POP POP PUSH1 0x20 DUP4 ADD CALLDATALOAD PUSH8 0xFFFFFFFFFFFFFFFF DUP2 GT ISZERO PUSH2 0xBE0 JUMPI PUSH2 0xBDF PUSH2 0xA29 JUMP JUMPDEST JUMPDEST PUSH2 0xBEC DUP6 DUP3 DUP7 ADD PUSH2 0xB6F JUMP JUMPDEST SWAP2 POP POP SWAP3 POP SWAP3 SWAP1 POP JUMP JUMPDEST PUSH0 PUSH1 0x20 DUP3 DUP5 SUB SLT ISZERO PUSH2 0xC0B JUMPI PUSH2 0xC0A PUSH2 0xA25 JUMP JUMPDEST JUMPDEST PUSH0 PUSH2 0xC18 DUP5 DUP3 DUP6 ADD PUSH2 0xA4C JUMP JUMPDEST SWAP2 POP POP SWAP3 SWAP2 POP POP JUMP JUMPDEST PUSH2 0xC2A DUP2 PUSH2 0xA2D JUMP JUMPDEST DUP3 MSTORE POP POP JUMP JUMPDEST PUSH0 DUP2 MLOAD SWAP1 POP SWAP2 SWAP1 POP JUMP JUMPDEST PUSH0 DUP3 DUP3 MSTORE PUSH1 0x20 DUP3 ADD SWAP1 POP SWAP3 SWAP2 POP POP JUMP JUMPDEST DUP3 DUP2 DUP4 MCOPY PUSH0 DUP4 DUP4 ADD MSTORE POP POP POP JUMP JUMPDEST PUSH0 PUSH2 0xC62 DUP3 PUSH2 0xC30 JUMP JUMPDEST PUSH2 0xC6C DUP2 DUP6 PUSH2 0xC3A JUMP JUMPDEST SWAP4 POP PUSH2 0xC7C DUP2 DUP6 PUSH1 0x20 DUP7 ADD PUSH2 0xC4A JUMP JUMPDEST PUSH2 0xC85 DUP2 PUSH2 0xA68 JUMP JUMPDEST DUP5 ADD SWAP2 POP POP SWAP3 SWAP2 POP POP JUMP JUMPDEST PUSH0 DUP3 DUP3 MSTORE PUSH1 0x20 DUP3 ADD SWAP1 POP SWAP3 SWAP2 POP POP JUMP JUMPDEST PUSH0 PUSH2 0xCAA DUP3 PUSH2 0xC30 JUMP JUMPDEST PUSH2 0xCB4 DUP2 DUP6 PUSH2 0xC90 JUMP JUMPDEST SWAP4 POP PUSH2 0xCC4 DUP2 DUP6 PUSH1 0x20 DUP7 ADD PUSH2 0xC4A JUMP JUMPDEST PUSH2 0xCCD DUP2 PUSH2 0xA68 JUMP JUMPDEST DUP5 ADD SWAP2 POP POP SWAP3 SWAP2 POP POP JUMP JUMPDEST PUSH2 0xCE1 DUP2 PUSH2 0xA2D JUMP JUMPDEST DUP3 MSTORE POP POP JUMP JUMPDEST PUSH0 DUP2 ISZERO ISZERO SWAP1 POP SWAP2 SWAP1 POP JUMP JUMPDEST PUSH2 0xCFB DUP2 PUSH2 0xCE7 JUMP JUMPDEST DUP3 MSTORE POP POP JUMP JUMPDEST PUSH0 PUSH1 0xC0 DUP4 ADD PUSH0 DUP4 ADD MLOAD DUP5 DUP3 SUB PUSH0 DUP7 ADD MSTORE PUSH2 0xD1B DUP3 DUP3 PUSH2 0xCA0 JUMP JUMPDEST SWAP2 POP POP PUSH1 0x20 DUP4 ADD MLOAD DUP5 DUP3 SUB PUSH1 0x20 DUP7 ADD MSTORE PUSH2 0xD35 DUP3 DUP3 PUSH2 0xCA0 JUMP JUMPDEST SWAP2 POP POP PUSH1 0x40 DUP4 ADD MLOAD PUSH2 0xD4A PUSH1 0x40 DUP7 ADD DUP3 PUSH2 0xCD8 JUMP JUMPDEST POP PUSH1 0x60 DUP4 ADD MLOAD PUSH2 0xD5D PUSH1 0x60 DUP7 ADD DUP3 PUSH2 0xCF2 JUMP JUMPDEST POP PUSH1 0x80 DUP4 ADD MLOAD PUSH2 0xD70 PUSH1 0x80 DUP7 ADD DUP3 PUSH2 0xCF2 JUMP JUMPDEST POP PUSH1 0xA0 DUP4 ADD MLOAD PUSH2 0xD83 PUSH1 0xA0 DUP7 ADD DUP3 PUSH2 0xCD8 JUMP JUMPDEST POP DUP1 SWAP2 POP POP SWAP3 SWAP2 POP POP JUMP JUMPDEST PUSH0 PUSH1 0xC0 DUP3 ADD SWAP1 POP PUSH2 0xDA1 PUSH0 DUP4 ADD DUP10 PUSH2 0xC21 JUMP JUMPDEST DUP2 DUP2 SUB PUSH1 0x20 DUP4 ADD MSTORE PUSH2 0xDB3 DUP2 DUP9 PUSH2 0xC58 JUMP JUMPDEST SWAP1 POP DUP2 DUP2 SUB PUSH1 0x40 DUP4 ADD MSTORE PUSH2 0xDC7 DUP2 DUP8 PUSH2 0xC58 JUMP JUMPDEST SWAP1 POP DUP2 DUP2 SUB PUSH1 0x60 DUP4 ADD MSTORE PUSH2 0xDDB DUP2 DUP7 PUSH2 0xC58 JUMP JUMPDEST SWAP1 POP PUSH2 0xDEA PUSH1 0x80 DUP4 ADD DUP6 PUSH2 0xC21 JUMP JUMPDEST DUP2 DUP2 SUB PUSH1 0xA0 DUP4 ADD MSTORE PUSH2 0xDFC DUP2 DUP5 PUSH2 0xD01 JUMP JUMPDEST SWAP1 POP SWAP8 SWAP7 POP POP POP POP POP POP POP JUMP JUMPDEST PUSH0 PUSH8 0xFFFFFFFFFFFFFFFF DUP3 GT ISZERO PUSH2 0xE23 JUMPI PUSH2 0xE22 PUSH2 0xA78 JUMP JUMPDEST JUMPDEST PUSH1 0x20 DUP3 MUL SWAP1 POP PUSH1 0x20 DUP2 ADD SWAP1 POP SWAP2 SWAP1 POP JUMP JUMPDEST PUSH0 DUP1 REVERT JUMPDEST PUSH0 PUSH2 0xE4A PUSH2 0xE45 DUP5 PUSH2 0xE09 JUMP JUMPDEST PUSH2 0xAD6 JUMP JUMPDEST SWAP1 POP DUP1 DUP4 DUP3 MSTORE PUSH1 0x20 DUP3 ADD SWAP1 POP PUSH1 0x20 DUP5 MUL DUP4 ADD DUP6 DUP2 GT ISZERO PUSH2 0xE6D JUMPI PUSH2 0xE6C PUSH2 0xE34 JUMP JUMPDEST JUMPDEST DUP4 JUMPDEST DUP2 DUP2 LT ISZERO PUSH2 0xEB4 JUMPI DUP1 CALLDATALOAD PUSH8 0xFFFFFFFFFFFFFFFF DUP2 GT ISZERO PUSH2 0xE92 JUMPI PUSH2 0xE91 PUSH2 0xA60 JUMP JUMPDEST JUMPDEST DUP1 DUP7 ADD PUSH2 0xE9F DUP10 DUP3 PUSH2 0xB6F JUMP JUMPDEST DUP6 MSTORE PUSH1 0x20 DUP6 ADD SWAP5 POP POP POP PUSH1 0x20 DUP2 ADD SWAP1 POP PUSH2 0xE6F JUMP JUMPDEST POP POP POP SWAP4 SWAP3 POP POP POP JUMP JUMPDEST PUSH0 DUP3 PUSH1 0x1F DUP4 ADD SLT PUSH2 0xED2 JUMPI PUSH2 0xED1 PUSH2 0xA60 JUMP JUMPDEST JUMPDEST DUP2 CALLDATALOAD PUSH2 0xEE2 DUP5 DUP3 PUSH1 0x20 DUP7 ADD PUSH2 0xE38 JUMP JUMPDEST SWAP2 POP POP SWAP3 SWAP2 POP POP JUMP JUMPDEST PUSH2 0xEF4 DUP2 PUSH2 0xCE7 JUMP JUMPDEST DUP2 EQ PUSH2 0xEFE JUMPI PUSH0 DUP1 REVERT JUMPDEST POP JUMP JUMPDEST PUSH0 DUP2 CALLDATALOAD SWAP1 POP PUSH2 0xF0F DUP2 PUSH2 0xEEB JUMP JUMPDEST SWAP3 SWAP2 POP POP JUMP JUMPDEST PUSH0 DUP1 PUSH0 DUP1 PUSH0 DUP1 PUSH0 DUP1 PUSH0 PUSH2 0x120 DUP11 DUP13 SUB SLT ISZERO PUSH2 0xF33 JUMPI PUSH2 0xF32 PUSH2 0xA25 JUMP JUMPDEST JUMPDEST PUSH0 DUP11 ADD CALLDATALOAD PUSH8 0xFFFFFFFFFFFFFFFF DUP2 GT ISZERO PUSH2 0xF50 JUMPI PUSH2 0xF4F PUSH2 0xA29 JUMP JUMPDEST JUMPDEST PUSH2 0xF5C DUP13 DUP3 DUP14 ADD PUSH2 0xB6F JUMP JUMPDEST SWAP10 POP POP PUSH1 0x20 DUP11 ADD CALLDATALOAD PUSH8 0xFFFFFFFFFFFFFFFF DUP2 GT ISZERO PUSH2 0xF7D JUMPI PUSH2 0xF7C PUSH2 0xA29 JUMP JUMPDEST JUMPDEST PUSH2 0xF89 DUP13 DUP3 DUP14 ADD PUSH2 0xB6F JUMP JUMPDEST SWAP9 POP POP PUSH1 0x40 DUP11 ADD CALLDATALOAD PUSH8 0xFFFFFFFFFFFFFFFF DUP2 GT ISZERO PUSH2 0xFAA JUMPI PUSH2 0xFA9 PUSH2 0xA29 JUMP JUMPDEST JUMPDEST PUSH2 0xFB6 DUP13 DUP3 DUP14 ADD PUSH2 0xB6F JUMP JUMPDEST SWAP8 POP POP PUSH1 0x60 DUP11 ADD CALLDATALOAD PUSH8 0xFFFFFFFFFFFFFFFF DUP2 GT ISZERO PUSH2 0xFD7 JUMPI PUSH2 0xFD6 PUSH2 0xA29 JUMP JUMPDEST JUMPDEST PUSH2 0xFE3 DUP13 DUP3 DUP14 ADD PUSH2 0xEBE JUMP JUMPDEST SWAP7 POP POP PUSH1 0x80 DUP11 ADD CALLDATALOAD PUSH8 0xFFFFFFFFFFFFFFFF DUP2 GT ISZERO PUSH2 0x1004 JUMPI PUSH2 0x1003 PUSH2 0xA29 JUMP JUMPDEST JUMPDEST PUSH2 0x1010 DUP13 DUP3 DUP14 ADD PUSH2 0xEBE JUMP JUMPDEST SWAP6 POP POP PUSH1 0xA0 PUSH2 0x1021 DUP13 DUP3 DUP14 ADD PUSH2 0xA4C JUMP JUMPDEST SWAP5 POP POP PUSH1 0xC0 DUP11 ADD CALLDATALOAD PUSH8 0xFFFFFFFFFFFFFFFF DUP2 GT ISZERO PUSH2 0x1042 JUMPI PUSH2 0x1041 PUSH2 0xA29 JUMP JUMPDEST JUMPDEST PUSH2 0x104E DUP13 DUP3 DUP14 ADD PUSH2 0xB6F JUMP JUMPDEST SWAP4 POP POP PUSH1 0xE0 DUP11 ADD CALLDATALOAD PUSH8 0xFFFFFFFFFFFFFFFF DUP2 GT ISZERO PUSH2 0x106F JUMPI PUSH2 0x106E PUSH2 0xA29 JUMP JUMPDEST JUMPDEST PUSH2 0x107B DUP13 DUP3 DUP14 ADD PUSH2 0xB6F JUMP JUMPDEST SWAP3 POP POP PUSH2 0x100 PUSH2 0x108D DUP13 DUP3 DUP14 ADD PUSH2 0xF01 JUMP JUMPDEST SWAP2 POP POP SWAP3 SWAP6 SWAP9 POP SWAP3 SWAP6 SWAP9 POP SWAP3 SWAP6 SWAP9 JUMP JUMPDEST PUSH32 0x50726F6475637420646F6573206E6F7420657869737400000000000000000000 PUSH0 DUP3 ADD MSTORE POP JUMP JUMPDEST PUSH0 PUSH2 0x10D1 PUSH1 0x16 DUP4 PUSH2 0xC3A JUMP JUMPDEST SWAP2 POP PUSH2 0x10DC DUP3 PUSH2 0x109D JUMP JUMPDEST PUSH1 0x20 DUP3 ADD SWAP1 POP SWAP2 SWAP1 POP JUMP JUMPDEST PUSH0 PUSH1 0x20 DUP3 ADD SWAP1 POP DUP2 DUP2 SUB PUSH0 DUP4 ADD MSTORE PUSH2 0x10FE DUP2 PUSH2 0x10C5 JUMP JUMPDEST SWAP1 POP SWAP2 SWAP1 POP JUMP JUMPDEST PUSH32 0x50726F64756374206973206F7574206F662073746F636B000000000000000000 PUSH0 DUP3 ADD MSTORE POP JUMP JUMPDEST PUSH0 PUSH2 0x1139 PUSH1 0x17 DUP4 PUSH2 0xC3A JUMP JUMPDEST SWAP2 POP PUSH2 0x1144 DUP3 PUSH2 0x1105 JUMP JUMPDEST PUSH1 0x20 DUP3 ADD SWAP1 POP SWAP2 SWAP1 POP JUMP JUMPDEST PUSH0 PUSH1 0x20 DUP3 ADD SWAP1 POP DUP2 DUP2 SUB PUSH0 DUP4 ADD MSTORE PUSH2 0x1166 DUP2 PUSH2 0x112D JUMP JUMPDEST SWAP1 POP SWAP2 SWAP1 POP JUMP JUMPDEST PUSH32 0x50726F6475637420686173206265656E20736869707065640000000000000000 PUSH0 DUP3 ADD MSTORE POP JUMP JUMPDEST PUSH0 PUSH2 0x11A1 PUSH1 0x18 DUP4 PUSH2 0xC3A JUMP JUMPDEST SWAP2 POP PUSH2 0x11AC DUP3 PUSH2 0x116D JUMP JUMPDEST PUSH1 0x20 DUP3 ADD SWAP1 POP SWAP2 SWAP1 POP JUMP JUMPDEST PUSH0 PUSH1 0x20 DUP3 ADD SWAP1 POP DUP2 DUP2 SUB PUSH0 DUP4 ADD MSTORE PUSH2 0x11CE DUP2 PUSH2 0x1195 JUMP JUMPDEST SWAP1 POP SWAP2 SWAP1 POP JUMP JUMPDEST PUSH32 0x4E487B7100000000000000000000000000000000000000000000000000000000 PUSH0 MSTORE PUSH1 0x22 PUSH1 0x4 MSTORE PUSH1 0x24 PUSH0 REVERT JUMPDEST PUSH0 PUSH1 0x2 DUP3 DIV SWAP1 POP PUSH1 0x1 DUP3 AND DUP1 PUSH2 0x1219 JUMPI PUSH1 0x7F DUP3 AND SWAP2 POP JUMPDEST PUSH1 0x20 DUP3 LT DUP2 SUB PUSH2 0x122C JUMPI PUSH2 0x122B PUSH2 0x11D5 JUMP JUMPDEST JUMPDEST POP SWAP2 SWAP1 POP JUMP JUMPDEST PUSH0 DUP2 SWAP1 POP DUP2 PUSH0 MSTORE PUSH1 0x20 PUSH0 KECCAK256 SWAP1 POP SWAP2 SWAP1 POP JUMP JUMPDEST PUSH0 PUSH1 0x20 PUSH1 0x1F DUP4 ADD DIV SWAP1 POP SWAP2 SWAP1 POP JUMP JUMPDEST PUSH0 DUP3 DUP3 SHL SWAP1 POP SWAP3 SWAP2 POP POP JUMP JUMPDEST PUSH0 PUSH1 0x8 DUP4 MUL PUSH2 0x128E PUSH32 0xFFFFFFFFFFFFFFFFFFFFFFFFFFFFFFFFFFFFFFFFFFFFFFFFFFFFFFFFFFFFFFFF DUP3 PUSH2 0x1253 JUMP JUMPDEST PUSH2 0x1298 DUP7 DUP4 PUSH2 0x1253 JUMP JUMPDEST SWAP6 POP DUP1 NOT DUP5 AND SWAP4 POP DUP1 DUP7 AND DUP5 OR SWAP3 POP POP POP SWAP4 SWAP3 POP POP POP JUMP JUMPDEST PUSH0 DUP2 SWAP1 POP SWAP2 SWAP1 POP JUMP JUMPDEST PUSH0 PUSH2 0x12D3 PUSH2 0x12CE PUSH2 0x12C9 DUP5 PUSH2 0xA2D JUMP JUMPDEST PUSH2 0x12B0 JUMP JUMPDEST PUSH2 0xA2D JUMP JUMPDEST SWAP1 POP SWAP2 SWAP1 POP JUMP JUMPDEST PUSH0 DUP2 SWAP1 POP SWAP2 SWAP1 POP JUMP JUMPDEST PUSH2 0x12EC DUP4 PUSH2 0x12B9 JUMP JUMPDEST PUSH2 0x1300 PUSH2 0x12F8 DUP3 PUSH2 0x12DA JUMP JUMPDEST DUP5 DUP5 SLOAD PUSH2 0x125F JUMP JUMPDEST DUP3 SSTORE POP POP POP POP JUMP JUMPDEST PUSH0 SWAP1 JUMP JUMPDEST PUSH2 0x1314 PUSH2 0x1308 JUMP JUMPDEST PUSH2 0x131F DUP2 DUP5 DUP5 PUSH2 0x12E3 JUMP JUMPDEST POP POP POP JUMP JUMPDEST JUMPDEST DUP2 DUP2 LT ISZERO PUSH2 0x1342 JUMPI PUSH2 0x1337 PUSH0 DUP3 PUSH2 0x130C JUMP JUMPDEST PUSH1 0x1 DUP2 ADD SWAP1 POP PUSH2 0x1325 JUMP JUMPDEST POP POP JUMP JUMPDEST PUSH1 0x1F DUP3 GT ISZERO PUSH2 0x1387 JUMPI PUSH2 0x1358 DUP2 PUSH2 0x1232 JUMP JUMPDEST PUSH2 0x1361 DUP5 PUSH2 0x1244 JUMP JUMPDEST DUP2 ADD PUSH1 0x20 DUP6 LT ISZERO PUSH2 0x1370 JUMPI DUP2 SWAP1 POP JUMPDEST PUSH2 0x1384 PUSH2 0x137C DUP6 PUSH2 0x1244 JUMP JUMPDEST DUP4 ADD DUP3 PUSH2 0x1324 JUMP JUMPDEST POP POP JUMPDEST POP POP POP JUMP JUMPDEST PUSH0 DUP3 DUP3 SHR SWAP1 POP SWAP3 SWAP2 POP POP JUMP JUMPDEST PUSH0 PUSH2 0x13A7 PUSH0 NOT DUP5 PUSH1 0x8 MUL PUSH2 0x138C JUMP JUMPDEST NOT DUP1 DUP4 AND SWAP2 POP POP SWAP3 SWAP2 POP POP JUMP JUMPDEST PUSH0 PUSH2 0x13BF DUP4 DUP4 PUSH2 0x1398 JUMP JUMPDEST SWAP2 POP DUP3 PUSH1 0x2 MUL DUP3 OR SWAP1 POP SWAP3 SWAP2 POP POP JUMP JUMPDEST PUSH2 0x13D8 DUP3 PUSH2 0xC30 JUMP JUMPDEST PUSH8 0xFFFFFFFFFFFFFFFF DUP2 GT ISZERO PUSH2 0x13F1 JUMPI PUSH2 0x13F0 PUSH2 0xA78 JUMP JUMPDEST JUMPDEST PUSH2 0x13FB DUP3 SLOAD PUSH2 0x1202 JUMP JUMPDEST PUSH2 0x1406 DUP3 DUP3 DUP6 PUSH2 0x1346 JUMP JUMPDEST PUSH0 PUSH1 0x20 SWAP1 POP PUSH1 0x1F DUP4 GT PUSH1 0x1 DUP2 EQ PUSH2 0x1437 JUMPI PUSH0 DUP5 ISZERO PUSH2 0x1425 JUMPI DUP3 DUP8 ADD MLOAD SWAP1 POP JUMPDEST PUSH2 0x142F DUP6 DUP3 PUSH2 0x13B4 JUMP JUMPDEST DUP7 SSTORE POP PUSH2 0x1496 JUMP JUMPDEST PUSH1 0x1F NOT DUP5 AND PUSH2 0x1445 DUP7 PUSH2 0x1232 JUMP JUMPDEST PUSH0 JUMPDEST DUP3 DUP2 LT ISZERO PUSH2 0x146C JUMPI DUP5 DUP10 ADD MLOAD DUP3 SSTORE PUSH1 0x1 DUP3 ADD SWAP2 POP PUSH1 0x20 DUP6 ADD SWAP5 POP PUSH1 0x20 DUP2 ADD SWAP1 POP PUSH2 0x1447 JUMP JUMPDEST DUP7 DUP4 LT ISZERO PUSH2 0x1489 JUMPI DUP5 DUP10 ADD MLOAD PUSH2 0x1485 PUSH1 0x1F DUP10 AND DUP3 PUSH2 0x1398 JUMP JUMPDEST DUP4 SSTORE POP JUMPDEST PUSH1 0x1 PUSH1 0x2 DUP9 MUL ADD DUP9 SSTORE POP POP POP JUMPDEST POP POP POP POP POP POP JUMP JUMPDEST PUSH0 DUP2 SLOAD PUSH2 0x14AA DUP2 PUSH2 0x1202 JUMP JUMPDEST PUSH2 0x14B4 DUP2 DUP7 PUSH2 0xC3A JUMP JUMPDEST SWAP5 POP PUSH1 0x1 DUP3 AND PUSH0 DUP2 EQ PUSH2 0x14CE JUMPI PUSH1 0x1 DUP2 EQ PUSH2 0x14E4 JUMPI PUSH2 0x1516 JUMP JUMPDEST PUSH1 0xFF NOT DUP4 AND DUP7 MSTORE DUP2 ISZERO ISZERO PUSH1 0x20 MUL DUP7 ADD SWAP4 POP PUSH2 0x1516 JUMP JUMPDEST PUSH2 0x14ED DUP6 PUSH2 0x1232 JUMP JUMPDEST PUSH0 JUMPDEST DUP4 DUP2 LT ISZERO PUSH2 0x150E JUMPI DUP2 SLOAD DUP2 DUP10 ADD MSTORE PUSH1 0x1 DUP3 ADD SWAP2 POP PUSH1 0x20 DUP2 ADD SWAP1 POP PUSH2 0x14EF JUMP JUMPDEST DUP1 DUP9 ADD SWAP6 POP POP POP JUMPDEST POP POP POP SWAP3 SWAP2 POP POP JUMP JUMPDEST PUSH2 0x1528 DUP2 PUSH2 0xCE7 JUMP JUMPDEST DUP3 MSTORE POP POP JUMP JUMPDEST PUSH0 PUSH1 0xA0 DUP3 ADD SWAP1 POP DUP2 DUP2 SUB PUSH0 DUP4 ADD MSTORE PUSH2 0x1546 DUP2 DUP9 PUSH2 0x149E JUMP JUMPDEST SWAP1 POP DUP2 DUP2 SUB PUSH1 0x20 DUP4 ADD MSTORE PUSH2 0x155A DUP2 DUP8 PUSH2 0x149E JUMP JUMPDEST SWAP1 POP PUSH2 0x1569 PUSH1 0x40 DUP4 ADD DUP7 PUSH2 0xC21 JUMP JUMPDEST PUSH2 0x1576 PUSH1 0x60 DUP4 ADD DUP6 PUSH2 0xC21 JUMP JUMPDEST PUSH2 0x1583 PUSH1 0x80 DUP4 ADD DUP5 PUSH2 0x151F JUMP JUMPDEST SWAP7 SWAP6 POP POP POP POP POP POP JUMP JUMPDEST PUSH32 0x456D7074792070726F647563742074797065206E6F7420616C6C6F7765640000 PUSH0 DUP3 ADD MSTORE POP JUMP JUMPDEST PUSH0 PUSH2 0x15C1 PUSH1 0x1E DUP4 PUSH2 0xC3A JUMP JUMPDEST SWAP2 POP PUSH2 0x15CC DUP3 PUSH2 0x158D JUMP JUMPDEST PUSH1 0x20 DUP3 ADD SWAP1 POP SWAP2 SWAP1 POP JUMP JUMPDEST PUSH0 PUSH1 0x20 DUP3 ADD SWAP1 POP DUP2 DUP2 SUB PUSH0 DUP4 ADD MSTORE PUSH2 0x15EE DUP2 PUSH2 0x15B5 JUMP JUMPDEST SWAP1 POP SWAP2 SWAP1 POP JUMP JUMPDEST PUSH32 0x456D7074792070726F64756374206E616D65206E6F7420616C6C6F7765640000 PUSH0 DUP3 ADD MSTORE POP JUMP JUMPDEST PUSH0 PUSH2 0x1629 PUSH1 0x1E DUP4 PUSH2 0xC3A JUMP JUMPDEST SWAP2 POP PUSH2 0x1634 DUP3 PUSH2 0x15F5 JUMP JUMPDEST PUSH1 0x20 DUP3 ADD SWAP1 POP SWAP2 SWAP1 POP JUMP JUMPDEST PUSH0 PUSH1 0x20 DUP3 ADD SWAP1 POP DUP2 DUP2 SUB PUSH0 DUP4 ADD MSTORE PUSH2 0x1656 DUP2 PUSH2 0x161D JUMP JUMPDEST SWAP1 POP SWAP2 SWAP1 POP JUMP JUMPDEST PUSH32 0x456D707479206272616E64206E616D65206E6F7420616C6C6F77656400000000 PUSH0 DUP3 ADD MSTORE POP JUMP JUMPDEST PUSH0 PUSH2 0x1691 PUSH1 0x1C DUP4 PUSH2 0xC3A JUMP JUMPDEST SWAP2 POP PUSH2 0x169C DUP3 PUSH2 0x165D JUMP JUMPDEST PUSH1 0x20 DUP3 ADD SWAP1 POP SWAP2 SWAP1 POP JUMP JUMPDEST PUSH0 PUSH1 0x20 DUP3 ADD SWAP1 POP DUP2 DUP2 SUB PUSH0 DUP4 ADD MSTORE PUSH2 0x16BE DUP2 PUSH2 0x1685 JUMP JUMPDEST SWAP1 POP SWAP2 SWAP1 POP JUMP JUMPDEST PUSH32 0x5175616E74697479206D7573742062652067726561746572207468616E207A65 PUSH0 DUP3 ADD MSTORE PUSH32 0x726F000000000000000000000000000000000000000000000000000000000000 PUSH1 0x20 DUP3 ADD MSTORE POP JUMP JUMPDEST PUSH0 PUSH2 0x171F PUSH1 0x22 DUP4 PUSH2 0xC3A JUMP JUMPDEST SWAP2 POP PUSH2 0x172A DUP3 PUSH2 0x16C5 JUMP JUMPDEST PUSH1 0x40 DUP3 ADD SWAP1 POP SWAP2 SWAP1 POP JUMP JUMPDEST PUSH0 PUSH1 0x20 DUP3 ADD SWAP1 POP DUP2 DUP2 SUB PUSH0 DUP4 ADD MSTORE PUSH2 0x174C DUP2 PUSH2 0x1713 JUMP JUMPDEST SWAP1 POP SWAP2 SWAP1 POP JUMP JUMPDEST PUSH32 0x50726F6475637420616C72656164792065786973747300000000000000000000 PUSH0 DUP3 ADD MSTORE POP JUMP JUMPDEST PUSH0 PUSH2 0x1787 PUSH1 0x16 DUP4 PUSH2 0xC3A JUMP JUMPDEST SWAP2 POP PUSH2 0x1792 DUP3 PUSH2 0x1753 JUMP JUMPDEST PUSH1 0x20 DUP3 ADD SWAP1 POP SWAP2 SWAP1 POP JUMP JUMPDEST PUSH0 PUSH1 0x20 DUP3 ADD SWAP1 POP DUP2 DUP2 SUB PUSH0 DUP4 ADD MSTORE PUSH2 0x17B4 DUP2 PUSH2 0x177B JUMP JUMPDEST SWAP1 POP SWAP2 SWAP1 POP JUMP JUMPDEST PUSH0 DUP2 MLOAD SWAP1 POP SWAP2 SWAP1 POP JUMP JUMPDEST PUSH0 DUP3 DUP3 MSTORE PUSH1 0x20 DUP3 ADD SWAP1 POP SWAP3 SWAP2 POP POP JUMP JUMPDEST PUSH0 DUP2 SWAP1 POP PUSH1 0x20 DUP3 ADD SWAP1 POP SWAP2 SWAP1 POP JUMP JUMPDEST PUSH0 PUSH2 0x17EF DUP4 DUP4 PUSH2 0xCA0 JUMP JUMPDEST SWAP1 POP SWAP3 SWAP2 POP POP JUMP JUMPDEST PUSH0 PUSH1 0x20 DUP3 ADD SWAP1 POP SWAP2 SWAP1 POP JUMP JUMPDEST PUSH0 PUSH2 0x180D DUP3 PUSH2 0x17BB JUMP JUMPDEST PUSH2 0x1817 DUP2 DUP6 PUSH2 0x17C5 JUMP JUMPDEST SWAP4 POP DUP4 PUSH1 0x20 DUP3 MUL DUP6 ADD PUSH2 0x1829 DUP6 PUSH2 0x17D5 JUMP JUMPDEST DUP1 PUSH0 JUMPDEST DUP6 DUP2 LT ISZERO PUSH2 0x1864 JUMPI DUP5 DUP5 SUB DUP10 MSTORE DUP2 MLOAD PUSH2 0x1845 DUP6 DUP3 PUSH2 0x17E4 JUMP JUMPDEST SWAP5 POP PUSH2 0x1850 DUP4 PUSH2 0x17F7 JUMP JUMPDEST SWAP3 POP PUSH1 0x20 DUP11 ADD SWAP10 POP POP PUSH1 0x1 DUP2 ADD SWAP1 POP PUSH2 0x182C JUMP JUMPDEST POP DUP3 SWAP8 POP DUP8 SWAP6 POP POP POP POP POP POP SWAP3 SWAP2 POP POP JUMP JUMPDEST PUSH0 PUSH1 0xC0 DUP3 ADD SWAP1 POP DUP2 DUP2 SUB PUSH0 DUP4 ADD MSTORE PUSH2 0x188E DUP2 DUP10 PUSH2 0xC58 JUMP JUMPDEST SWAP1 POP DUP2 DUP2 SUB PUSH1 0x20 DUP4 ADD MSTORE PUSH2 0x18A2 DUP2 DUP9 PUSH2 0xC58 JUMP JUMPDEST SWAP1 POP DUP2 DUP2 SUB PUSH1 0x40 DUP4 ADD MSTORE PUSH2 0x18B6 DUP2 DUP8 PUSH2 0xC58 JUMP JUMPDEST SWAP1 POP DUP2 DUP2 SUB PUSH1 0x60 DUP4 ADD MSTORE PUSH2 0x18CA DUP2 DUP7 PUSH2 0x1803 JUMP JUMPDEST SWAP1 POP DUP2 DUP2 SUB PUSH1 0x80 DUP4 ADD MSTORE PUSH2 0x18DE DUP2 DUP6 PUSH2 0x1803 JUMP JUMPDEST SWAP1 POP PUSH2 0x18ED PUSH1 0xA0 DUP4 ADD DUP5 PUSH2 0xC21 JUMP JUMPDEST SWAP8 SWAP7 POP POP POP POP POP POP POP JUMP INVALID LOG2 PUSH5 0x6970667358 0x22 SLT KECCAK256 0xC6 BLOBHASH ORIGIN 0xCD MSTORE 0xDD 0x26 0xC4 SWAP2 0xAA KECCAK256 DUP3 0xD4 0xC8 PUSH31 0xF26F868F875B84027076952FFE18B4498164736F6C634300081A0033000000 "
				},
				"gasEstimates": {
					"creation": {
						"codeDepositCost": "1289200",
						"executionCost": "1340",
						"totalCost": "1290540"
					},
					"external": {
						"GenerateProduct(string,string,string,string[],string[],uint256,string,string,bool)": "infinite",
						"initalizeShipment(uint256,string)": "infinite",
						"products(uint256)": "infinite"
					}
				},
				"methodIdentifiers": {
					"GenerateProduct(string,string,string,string[],string[],uint256,string,string,bool)": "9ed04f5d",
					"initalizeShipment(uint256,string)": "21120f9a",
					"products(uint256)": "7acc0b20"
				}
			},
			"storageLayout": {
				"storage": [
					{
						"astId": 39,
						"contract": "Product Tracker Smart Contract/ProductTracker.sol:ProductTracker",
						"label": "products",
						"offset": 0,
						"slot": "0",
						"type": "t_mapping(t_uint256,t_struct(Product)21_storage)"
					}
				],
				"types": {
					"t_array(t_string_storage)dyn_storage": {
						"base": "t_string_storage",
						"encoding": "dynamic_array",
						"label": "string[]",
						"numberOfBytes": "32"
					},
					"t_bool": {
						"encoding": "inplace",
						"label": "bool",
						"numberOfBytes": "1"
					},
					"t_mapping(t_uint256,t_struct(Product)21_storage)": {
						"encoding": "mapping",
						"key": "t_uint256",
						"label": "mapping(uint256 => struct ProductTracker.Product)",
						"numberOfBytes": "32",
						"value": "t_struct(Product)21_storage"
					},
					"t_string_storage": {
						"encoding": "bytes",
						"label": "string",
						"numberOfBytes": "32"
					},
					"t_struct(Location)34_storage": {
						"encoding": "inplace",
						"label": "struct ProductTracker.Location",
						"members": [
							{
								"astId": 23,
								"contract": "Product Tracker Smart Contract/ProductTracker.sol:ProductTracker",
								"label": "name",
								"offset": 0,
								"slot": "0",
								"type": "t_string_storage"
							},
							{
								"astId": 25,
								"contract": "Product Tracker Smart Contract/ProductTracker.sol:ProductTracker",
								"label": "custodian",
								"offset": 0,
								"slot": "1",
								"type": "t_string_storage"
							},
							{
								"astId": 27,
								"contract": "Product Tracker Smart Contract/ProductTracker.sol:ProductTracker",
								"label": "departure",
								"offset": 0,
								"slot": "2",
								"type": "t_uint256"
							},
							{
								"astId": 29,
								"contract": "Product Tracker Smart Contract/ProductTracker.sol:ProductTracker",
								"label": "shipped",
								"offset": 0,
								"slot": "3",
								"type": "t_bool"
							},
							{
								"astId": 31,
								"contract": "Product Tracker Smart Contract/ProductTracker.sol:ProductTracker",
								"label": "arrived",
								"offset": 1,
								"slot": "3",
								"type": "t_bool"
							},
							{
								"astId": 33,
								"contract": "Product Tracker Smart Contract/ProductTracker.sol:ProductTracker",
								"label": "arrival",
								"offset": 0,
								"slot": "4",
								"type": "t_uint256"
							}
						],
						"numberOfBytes": "160"
					},
					"t_struct(Product)21_storage": {
						"encoding": "inplace",
						"label": "struct ProductTracker.Product",
						"members": [
							{
								"astId": 3,
								"contract": "Product Tracker Smart Contract/ProductTracker.sol:ProductTracker",
								"label": "productId",
								"offset": 0,
								"slot": "0",
								"type": "t_uint256"
							},
							{
								"astId": 5,
								"contract": "Product Tracker Smart Contract/ProductTracker.sol:ProductTracker",
								"label": "productType",
								"offset": 0,
								"slot": "1",
								"type": "t_string_storage"
							},
							{
								"astId": 7,
								"contract": "Product Tracker Smart Contract/ProductTracker.sol:ProductTracker",
								"label": "brandName",
								"offset": 0,
								"slot": "2",
								"type": "t_string_storage"
							},
							{
								"astId": 9,
								"contract": "Product Tracker Smart Contract/ProductTracker.sol:ProductTracker",
								"label": "productName",
								"offset": 0,
								"slot": "3",
								"type": "t_string_storage"
							},
							{
								"astId": 12,
								"contract": "Product Tracker Smart Contract/ProductTracker.sol:ProductTracker",
								"label": "Materials",
								"offset": 0,
								"slot": "4",
								"type": "t_array(t_string_storage)dyn_storage"
							},
							{
								"astId": 15,
								"contract": "Product Tracker Smart Contract/ProductTracker.sol:ProductTracker",
								"label": "Certificates",
								"offset": 0,
								"slot": "5",
								"type": "t_array(t_string_storage)dyn_storage"
							},
							{
								"astId": 17,
								"contract": "Product Tracker Smart Contract/ProductTracker.sol:ProductTracker",
								"label": "quantity",
								"offset": 0,
								"slot": "6",
								"type": "t_uint256"
							},
							{
								"astId": 20,
								"contract": "Product Tracker Smart Contract/ProductTracker.sol:ProductTracker",
								"label": "location",
								"offset": 0,
								"slot": "7",
								"type": "t_struct(Location)34_storage"
							}
						],
						"numberOfBytes": "384"
					},
					"t_uint256": {
						"encoding": "inplace",
						"label": "uint256",
						"numberOfBytes": "32"
					}
				}
			},
			"userdoc": {
				"kind": "user",
				"methods": {},
				"version": 1
			}
		}
	}
}