{
	"Product Tracker Smart Contract/PT-PT.sol": {
		"ProductTracker": {
			"abi": [
				{
					"anonymous": false,
					"inputs": [
						{
							"indexed": false,
							"internalType": "string",
							"name": "location",
							"type": "string"
						},
						{
							"indexed": false,
							"internalType": "string",
							"name": "custodian",
							"type": "string"
						},
						{
							"indexed": false,
							"internalType": "uint256",
							"name": "time",
							"type": "uint256"
						},
						{
							"indexed": false,
							"internalType": "uint256",
							"name": "index",
							"type": "uint256"
						},
						{
							"indexed": false,
							"internalType": "bool",
							"name": "arrivalStatus",
							"type": "bool"
						}
					],
					"name": "Departed",
					"type": "event"
				},
				{
					"anonymous": false,
					"inputs": [
						{
							"indexed": true,
							"internalType": "uint256",
							"name": "productId",
							"type": "uint256"
						},
						{
							"indexed": false,
							"internalType": "string",
							"name": "productName",
							"type": "string"
						},
						{
							"indexed": false,
							"internalType": "uint256",
							"name": "quantity",
							"type": "uint256"
						}
					],
					"name": "ProductGenerated",
					"type": "event"
				},
				{
					"inputs": [
						{
							"internalType": "string",
							"name": "_productName",
							"type": "string"
						},
						{
							"internalType": "uint256",
							"name": "_quantity",
							"type": "uint256"
						},
						{
							"internalType": "string",
							"name": "_locationName",
							"type": "string"
						},
						{
							"internalType": "string",
							"name": "_custodian",
							"type": "string"
						},
						{
							"internalType": "bool",
							"name": "_shipped",
							"type": "bool"
						}
					],
					"name": "addProduct",
					"outputs": [],
					"stateMutability": "nonpayable",
					"type": "function"
				},
				{
					"inputs": [
						{
							"internalType": "uint256",
							"name": "_productId",
							"type": "uint256"
						},
						{
							"internalType": "string",
							"name": "_locationName",
							"type": "string"
						}
					],
					"name": "initalizeShipment",
					"outputs": [],
					"stateMutability": "nonpayable",
					"type": "function"
				},
				{
					"inputs": [
						{
							"internalType": "uint256",
							"name": "",
							"type": "uint256"
						}
					],
					"name": "products",
					"outputs": [
						{
							"internalType": "uint256",
							"name": "productId",
							"type": "uint256"
						},
						{
							"internalType": "string",
							"name": "productName",
							"type": "string"
						},
						{
							"internalType": "uint256",
							"name": "quantity",
							"type": "uint256"
						},
						{
							"components": [
								{
									"internalType": "string",
									"name": "name",
									"type": "string"
								},
								{
									"internalType": "string",
									"name": "custodian",
									"type": "string"
								},
								{
									"internalType": "uint256",
									"name": "departure",
									"type": "uint256"
								},
								{
									"internalType": "bool",
									"name": "shipped",
									"type": "bool"
								},
								{
									"internalType": "bool",
									"name": "arrived",
									"type": "bool"
								},
								{
									"internalType": "uint256",
									"name": "arrival",
									"type": "uint256"
								}
							],
							"internalType": "struct ProductTracker.Location",
							"name": "location",
							"type": "tuple"
						}
					],
					"stateMutability": "view",
					"type": "function"
				}
			],
			"devdoc": {
				"kind": "dev",
				"methods": {},
				"version": 1
			},
			"evm": {
				"assembly": "    /* \"Product Tracker Smart Contract/PT-PT.sol\":57:2891  contract ProductTracker {... */\n  mstore(0x40, 0x80)\n  callvalue\n  dup1\n  iszero\n  tag_1\n  jumpi\n  0x00\n  dup1\n  revert\ntag_1:\n  pop\n  dataSize(sub_0)\n  dup1\n  dataOffset(sub_0)\n  0x00\n  codecopy\n  0x00\n  return\nstop\n\nsub_0: assembly {\n        /* \"Product Tracker Smart Contract/PT-PT.sol\":57:2891  contract ProductTracker {... */\n      mstore(0x40, 0x80)\n      callvalue\n      dup1\n      iszero\n      tag_1\n      jumpi\n      0x00\n      dup1\n      revert\n    tag_1:\n      pop\n      jumpi(tag_2, lt(calldatasize, 0x04))\n      shr(0xe0, calldataload(0x00))\n      dup1\n      0x21120f9a\n      eq\n      tag_3\n      jumpi\n      dup1\n      0x7acc0b20\n      eq\n      tag_4\n      jumpi\n      dup1\n      0xc2be7c09\n      eq\n      tag_5\n      jumpi\n    tag_2:\n      0x00\n      dup1\n      revert\n        /* \"Product Tracker Smart Contract/PT-PT.sol\":2332:2889  function initalizeShipment(uint256 _productId, string memory _locationName)... */\n    tag_3:\n      tag_6\n      0x04\n      dup1\n      calldatasize\n      sub\n      dup2\n      add\n      swap1\n      tag_7\n      swap2\n      swap1\n      tag_8\n      jump\t// in\n    tag_7:\n      tag_9\n      jump\t// in\n    tag_6:\n      stop\n        /* \"Product Tracker Smart Contract/PT-PT.sol\":417:460  mapping(uint256 => Product) public products */\n    tag_4:\n      tag_10\n      0x04\n      dup1\n      calldatasize\n      sub\n      dup2\n      add\n      swap1\n      tag_11\n      swap2\n      swap1\n      tag_12\n      jump\t// in\n    tag_11:\n      tag_13\n      jump\t// in\n    tag_10:\n      mload(0x40)\n      tag_14\n      swap5\n      swap4\n      swap3\n      swap2\n      swap1\n      tag_15\n      jump\t// in\n    tag_14:\n      mload(0x40)\n      dup1\n      swap2\n      sub\n      swap1\n      return\n        /* \"Product Tracker Smart Contract/PT-PT.sol\":1477:2326  function addProduct(... */\n    tag_5:\n      tag_16\n      0x04\n      dup1\n      calldatasize\n      sub\n      dup2\n      add\n      swap1\n      tag_17\n      swap2\n      swap1\n      tag_18\n      jump\t// in\n    tag_17:\n      tag_19\n      jump\t// in\n    tag_16:\n      stop\n        /* \"Product Tracker Smart Contract/PT-PT.sol\":2332:2889  function initalizeShipment(uint256 _productId, string memory _locationName)... */\n    tag_9:\n        /* \"Product Tracker Smart Contract/PT-PT.sol\":2446:2456  _productId */\n      dup2\n        /* \"Product Tracker Smart Contract/PT-PT.sol\":916:926  _productId */\n      dup1\n        /* \"Product Tracker Smart Contract/PT-PT.sol\":882:890  products */\n      0x00\n        /* \"Product Tracker Smart Contract/PT-PT.sol\":882:902  products[_productId] */\n      dup1\n        /* \"Product Tracker Smart Contract/PT-PT.sol\":891:901  _productId */\n      dup4\n        /* \"Product Tracker Smart Contract/PT-PT.sol\":882:902  products[_productId] */\n      dup2\n      mstore\n      0x20\n      add\n      swap1\n      dup2\n      mstore\n      0x20\n      add\n      0x00\n      keccak256\n        /* \"Product Tracker Smart Contract/PT-PT.sol\":882:912  products[_productId].productId */\n      0x00\n      add\n      sload\n        /* \"Product Tracker Smart Contract/PT-PT.sol\":882:926  products[_productId].productId != _productId */\n      sub\n        /* \"Product Tracker Smart Contract/PT-PT.sol\":861:974  require(... */\n      tag_21\n      jumpi\n      mload(0x40)\n      0x08c379a000000000000000000000000000000000000000000000000000000000\n      dup2\n      mstore\n      0x04\n      add\n      tag_22\n      swap1\n      tag_23\n      jump\t// in\n    tag_22:\n      mload(0x40)\n      dup1\n      swap2\n      sub\n      swap1\n      revert\n    tag_21:\n        /* \"Product Tracker Smart Contract/PT-PT.sol\":2509:2522  _locationName */\n      dup2\n        /* \"Product Tracker Smart Contract/PT-PT.sol\":2472:2480  products */\n      0x00\n        /* \"Product Tracker Smart Contract/PT-PT.sol\":2472:2492  products[_productId] */\n      dup1\n        /* \"Product Tracker Smart Contract/PT-PT.sol\":2481:2491  _productId */\n      dup6\n        /* \"Product Tracker Smart Contract/PT-PT.sol\":2472:2492  products[_productId] */\n      dup2\n      mstore\n      0x20\n      add\n      swap1\n      dup2\n      mstore\n      0x20\n      add\n      0x00\n      keccak256\n        /* \"Product Tracker Smart Contract/PT-PT.sol\":2472:2501  products[_productId].location */\n      0x03\n      add\n        /* \"Product Tracker Smart Contract/PT-PT.sol\":2472:2506  products[_productId].location.name */\n      0x00\n      add\n        /* \"Product Tracker Smart Contract/PT-PT.sol\":2472:2522  products[_productId].location.name = _locationName */\n      swap1\n      dup2\n      tag_25\n      swap2\n      swap1\n      tag_26\n      jump\t// in\n    tag_25:\n      pop\n        /* \"Product Tracker Smart Contract/PT-PT.sol\":2574:2589  block.timestamp */\n      timestamp\n        /* \"Product Tracker Smart Contract/PT-PT.sol\":2532:2540  products */\n      0x00\n        /* \"Product Tracker Smart Contract/PT-PT.sol\":2532:2552  products[_productId] */\n      dup1\n        /* \"Product Tracker Smart Contract/PT-PT.sol\":2541:2551  _productId */\n      dup6\n        /* \"Product Tracker Smart Contract/PT-PT.sol\":2532:2552  products[_productId] */\n      dup2\n      mstore\n      0x20\n      add\n      swap1\n      dup2\n      mstore\n      0x20\n      add\n      0x00\n      keccak256\n        /* \"Product Tracker Smart Contract/PT-PT.sol\":2532:2561  products[_productId].location */\n      0x03\n      add\n        /* \"Product Tracker Smart Contract/PT-PT.sol\":2532:2571  products[_productId].location.departure */\n      0x02\n      add\n        /* \"Product Tracker Smart Contract/PT-PT.sol\":2532:2589  products[_productId].location.departure = block.timestamp */\n      dup2\n      swap1\n      sstore\n      pop\n        /* \"Product Tracker Smart Contract/PT-PT.sol\":2639:2643  true */\n      0x01\n        /* \"Product Tracker Smart Contract/PT-PT.sol\":2599:2607  products */\n      0x00\n        /* \"Product Tracker Smart Contract/PT-PT.sol\":2599:2619  products[_productId] */\n      dup1\n        /* \"Product Tracker Smart Contract/PT-PT.sol\":2608:2618  _productId */\n      dup6\n        /* \"Product Tracker Smart Contract/PT-PT.sol\":2599:2619  products[_productId] */\n      dup2\n      mstore\n      0x20\n      add\n      swap1\n      dup2\n      mstore\n      0x20\n      add\n      0x00\n      keccak256\n        /* \"Product Tracker Smart Contract/PT-PT.sol\":2599:2628  products[_productId].location */\n      0x03\n      add\n        /* \"Product Tracker Smart Contract/PT-PT.sol\":2599:2636  products[_productId].location.shipped */\n      0x03\n      add\n      0x00\n        /* \"Product Tracker Smart Contract/PT-PT.sol\":2599:2643  products[_productId].location.shipped = true */\n      0x0100\n      exp\n      dup2\n      sload\n      dup2\n      0xff\n      mul\n      not\n      and\n      swap1\n      dup4\n      iszero\n      iszero\n      mul\n      or\n      swap1\n      sstore\n      pop\n        /* \"Product Tracker Smart Contract/PT-PT.sol\":2659:2882  Departed(... */\n      0xf295c689d401ce1625e9bd2adba7641f92cc231677989c7fe706354cb643e798\n        /* \"Product Tracker Smart Contract/PT-PT.sol\":2681:2689  products */\n      0x00\n        /* \"Product Tracker Smart Contract/PT-PT.sol\":2681:2701  products[_productId] */\n      dup1\n        /* \"Product Tracker Smart Contract/PT-PT.sol\":2690:2700  _productId */\n      dup6\n        /* \"Product Tracker Smart Contract/PT-PT.sol\":2681:2701  products[_productId] */\n      dup2\n      mstore\n      0x20\n      add\n      swap1\n      dup2\n      mstore\n      0x20\n      add\n      0x00\n      keccak256\n        /* \"Product Tracker Smart Contract/PT-PT.sol\":2681:2710  products[_productId].location */\n      0x03\n      add\n        /* \"Product Tracker Smart Contract/PT-PT.sol\":2681:2715  products[_productId].location.name */\n      0x00\n      add\n        /* \"Product Tracker Smart Contract/PT-PT.sol\":2729:2737  products */\n      0x00\n        /* \"Product Tracker Smart Contract/PT-PT.sol\":2729:2749  products[_productId] */\n      dup1\n        /* \"Product Tracker Smart Contract/PT-PT.sol\":2738:2748  _productId */\n      dup7\n        /* \"Product Tracker Smart Contract/PT-PT.sol\":2729:2749  products[_productId] */\n      dup2\n      mstore\n      0x20\n      add\n      swap1\n      dup2\n      mstore\n      0x20\n      add\n      0x00\n      keccak256\n        /* \"Product Tracker Smart Contract/PT-PT.sol\":2729:2758  products[_productId].location */\n      0x03\n      add\n        /* \"Product Tracker Smart Contract/PT-PT.sol\":2729:2768  products[_productId].location.custodian */\n      0x01\n      add\n        /* \"Product Tracker Smart Contract/PT-PT.sol\":2782:2797  block.timestamp */\n      timestamp\n        /* \"Product Tracker Smart Contract/PT-PT.sol\":2811:2821  _productId */\n      dup7\n        /* \"Product Tracker Smart Contract/PT-PT.sol\":2835:2843  products */\n      0x00\n        /* \"Product Tracker Smart Contract/PT-PT.sol\":2835:2855  products[_productId] */\n      dup1\n        /* \"Product Tracker Smart Contract/PT-PT.sol\":2844:2854  _productId */\n      dup10\n        /* \"Product Tracker Smart Contract/PT-PT.sol\":2835:2855  products[_productId] */\n      dup2\n      mstore\n      0x20\n      add\n      swap1\n      dup2\n      mstore\n      0x20\n      add\n      0x00\n      keccak256\n        /* \"Product Tracker Smart Contract/PT-PT.sol\":2835:2864  products[_productId].location */\n      0x03\n      add\n        /* \"Product Tracker Smart Contract/PT-PT.sol\":2835:2872  products[_productId].location.arrived */\n      0x03\n      add\n      0x01\n      swap1\n      sload\n      swap1\n      0x0100\n      exp\n      swap1\n      div\n      0xff\n      and\n        /* \"Product Tracker Smart Contract/PT-PT.sol\":2659:2882  Departed(... */\n      mload(0x40)\n      tag_27\n      swap6\n      swap5\n      swap4\n      swap3\n      swap2\n      swap1\n      tag_28\n      jump\t// in\n    tag_27:\n      mload(0x40)\n      dup1\n      swap2\n      sub\n      swap1\n      log1\n        /* \"Product Tracker Smart Contract/PT-PT.sol\":2332:2889  function initalizeShipment(uint256 _productId, string memory _locationName)... */\n      pop\n      pop\n      pop\n      jump\t// out\n        /* \"Product Tracker Smart Contract/PT-PT.sol\":417:460  mapping(uint256 => Product) public products */\n    tag_13:\n      mstore(0x20, 0x00)\n      dup1\n      0x00\n      mstore\n      keccak256(0x00, 0x40)\n      0x00\n      swap2\n      pop\n      swap1\n      pop\n      dup1\n      0x00\n      add\n      sload\n      swap1\n      dup1\n      0x01\n      add\n      dup1\n      sload\n      tag_29\n      swap1\n      tag_30\n      jump\t// in\n    tag_29:\n      dup1\n      0x1f\n      add\n      0x20\n      dup1\n      swap2\n      div\n      mul\n      0x20\n      add\n      mload(0x40)\n      swap1\n      dup2\n      add\n      0x40\n      mstore\n      dup1\n      swap3\n      swap2\n      swap1\n      dup2\n      dup2\n      mstore\n      0x20\n      add\n      dup3\n      dup1\n      sload\n      tag_31\n      swap1\n      tag_30\n      jump\t// in\n    tag_31:\n      dup1\n      iszero\n      tag_32\n      jumpi\n      dup1\n      0x1f\n      lt\n      tag_33\n      jumpi\n      0x0100\n      dup1\n      dup4\n      sload\n      div\n      mul\n      dup4\n      mstore\n      swap2\n      0x20\n      add\n      swap2\n      jump(tag_32)\n    tag_33:\n      dup3\n      add\n      swap2\n      swap1\n      0x00\n      mstore\n      keccak256(0x00, 0x20)\n      swap1\n    tag_34:\n      dup2\n      sload\n      dup2\n      mstore\n      swap1\n      0x01\n      add\n      swap1\n      0x20\n      add\n      dup1\n      dup4\n      gt\n      tag_34\n      jumpi\n      dup3\n      swap1\n      sub\n      0x1f\n      and\n      dup3\n      add\n      swap2\n    tag_32:\n      pop\n      pop\n      pop\n      pop\n      pop\n      swap1\n      dup1\n      0x02\n      add\n      sload\n      swap1\n      dup1\n      0x03\n      add\n      mload(0x40)\n      dup1\n      0xc0\n      add\n      0x40\n      mstore\n      swap1\n      dup2\n      0x00\n      dup3\n      add\n      dup1\n      sload\n      tag_35\n      swap1\n      tag_30\n      jump\t// in\n    tag_35:\n      dup1\n      0x1f\n      add\n      0x20\n      dup1\n      swap2\n      div\n      mul\n      0x20\n      add\n      mload(0x40)\n      swap1\n      dup2\n      add\n      0x40\n      mstore\n      dup1\n      swap3\n      swap2\n      swap1\n      dup2\n      dup2\n      mstore\n      0x20\n      add\n      dup3\n      dup1\n      sload\n      tag_36\n      swap1\n      tag_30\n      jump\t// in\n    tag_36:\n      dup1\n      iszero\n      tag_37\n      jumpi\n      dup1\n      0x1f\n      lt\n      tag_38\n      jumpi\n      0x0100\n      dup1\n      dup4\n      sload\n      div\n      mul\n      dup4\n      mstore\n      swap2\n      0x20\n      add\n      swap2\n      jump(tag_37)\n    tag_38:\n      dup3\n      add\n      swap2\n      swap1\n      0x00\n      mstore\n      keccak256(0x00, 0x20)\n      swap1\n    tag_39:\n      dup2\n      sload\n      dup2\n      mstore\n      swap1\n      0x01\n      add\n      swap1\n      0x20\n      add\n      dup1\n      dup4\n      gt\n      tag_39\n      jumpi\n      dup3\n      swap1\n      sub\n      0x1f\n      and\n      dup3\n      add\n      swap2\n    tag_37:\n      pop\n      pop\n      pop\n      pop\n      pop\n      dup2\n      mstore\n      0x20\n      add\n      0x01\n      dup3\n      add\n      dup1\n      sload\n      tag_40\n      swap1\n      tag_30\n      jump\t// in\n    tag_40:\n      dup1\n      0x1f\n      add\n      0x20\n      dup1\n      swap2\n      div\n      mul\n      0x20\n      add\n      mload(0x40)\n      swap1\n      dup2\n      add\n      0x40\n      mstore\n      dup1\n      swap3\n      swap2\n      swap1\n      dup2\n      dup2\n      mstore\n      0x20\n      add\n      dup3\n      dup1\n      sload\n      tag_41\n      swap1\n      tag_30\n      jump\t// in\n    tag_41:\n      dup1\n      iszero\n      tag_42\n      jumpi\n      dup1\n      0x1f\n      lt\n      tag_43\n      jumpi\n      0x0100\n      dup1\n      dup4\n      sload\n      div\n      mul\n      dup4\n      mstore\n      swap2\n      0x20\n      add\n      swap2\n      jump(tag_42)\n    tag_43:\n      dup3\n      add\n      swap2\n      swap1\n      0x00\n      mstore\n      keccak256(0x00, 0x20)\n      swap1\n    tag_44:\n      dup2\n      sload\n      dup2\n      mstore\n      swap1\n      0x01\n      add\n      swap1\n      0x20\n      add\n      dup1\n      dup4\n      gt\n      tag_44\n      jumpi\n      dup3\n      swap1\n      sub\n      0x1f\n      and\n      dup3\n      add\n      swap2\n    tag_42:\n      pop\n      pop\n      pop\n      pop\n      pop\n      dup2\n      mstore\n      0x20\n      add\n      0x02\n      dup3\n      add\n      sload\n      dup2\n      mstore\n      0x20\n      add\n      0x03\n      dup3\n      add\n      0x00\n      swap1\n      sload\n      swap1\n      0x0100\n      exp\n      swap1\n      div\n      0xff\n      and\n      iszero\n      iszero\n      iszero\n      iszero\n      dup2\n      mstore\n      0x20\n      add\n      0x03\n      dup3\n      add\n      0x01\n      swap1\n      sload\n      swap1\n      0x0100\n      exp\n      swap1\n      div\n      0xff\n      and\n      iszero\n      iszero\n      iszero\n      iszero\n      dup2\n      mstore\n      0x20\n      add\n      0x04\n      dup3\n      add\n      sload\n      dup2\n      mstore\n      pop\n      pop\n      swap1\n      pop\n      dup5\n      jump\t// out\n        /* \"Product Tracker Smart Contract/PT-PT.sol\":1477:2326  function addProduct(... */\n    tag_19:\n        /* \"Product Tracker Smart Contract/PT-PT.sol\":1703:1721  uint256 _productId */\n      0x00\n        /* \"Product Tracker Smart Contract/PT-PT.sol\":1724:1739  block.timestamp */\n      timestamp\n        /* \"Product Tracker Smart Contract/PT-PT.sol\":1703:1739  uint256 _productId = block.timestamp */\n      swap1\n      pop\n        /* \"Product Tracker Smart Contract/PT-PT.sol\":1791:1792  0 */\n      0x00\n        /* \"Product Tracker Smart Contract/PT-PT.sol\":1757:1765  products */\n      dup1\n        /* \"Product Tracker Smart Contract/PT-PT.sol\":1757:1777  products[_productId] */\n      0x00\n        /* \"Product Tracker Smart Contract/PT-PT.sol\":1766:1776  _productId */\n      dup4\n        /* \"Product Tracker Smart Contract/PT-PT.sol\":1757:1777  products[_productId] */\n      dup2\n      mstore\n      0x20\n      add\n      swap1\n      dup2\n      mstore\n      0x20\n      add\n      0x00\n      keccak256\n        /* \"Product Tracker Smart Contract/PT-PT.sol\":1757:1787  products[_productId].productId */\n      0x00\n      add\n      sload\n        /* \"Product Tracker Smart Contract/PT-PT.sol\":1757:1792  products[_productId].productId == 0 */\n      eq\n        /* \"Product Tracker Smart Contract/PT-PT.sol\":1749:1819  require(products[_productId].productId == 0, \"Product already exists\") */\n      tag_46\n      jumpi\n      mload(0x40)\n      0x08c379a000000000000000000000000000000000000000000000000000000000\n      dup2\n      mstore\n      0x04\n      add\n      tag_47\n      swap1\n      tag_48\n      jump\t// in\n    tag_47:\n      mload(0x40)\n      dup1\n      swap2\n      sub\n      swap1\n      revert\n    tag_46:\n        /* \"Product Tracker Smart Contract/PT-PT.sol\":1853:2250  Product(... */\n      mload(0x40)\n      dup1\n      0x80\n      add\n      0x40\n      mstore\n      dup1\n        /* \"Product Tracker Smart Contract/PT-PT.sol\":1874:1884  _productId */\n      dup3\n        /* \"Product Tracker Smart Contract/PT-PT.sol\":1853:2250  Product(... */\n      dup2\n      mstore\n      0x20\n      add\n        /* \"Product Tracker Smart Contract/PT-PT.sol\":1898:1910  _productName */\n      dup8\n        /* \"Product Tracker Smart Contract/PT-PT.sol\":1853:2250  Product(... */\n      dup2\n      mstore\n      0x20\n      add\n        /* \"Product Tracker Smart Contract/PT-PT.sol\":1924:1933  _quantity */\n      dup7\n        /* \"Product Tracker Smart Contract/PT-PT.sol\":1853:2250  Product(... */\n      dup2\n      mstore\n      0x20\n      add\n        /* \"Product Tracker Smart Contract/PT-PT.sol\":1947:2240  Location({... */\n      mload(0x40)\n      dup1\n      0xc0\n      add\n      0x40\n      mstore\n      dup1\n        /* \"Product Tracker Smart Contract/PT-PT.sol\":1980:1993  _locationName */\n      dup8\n        /* \"Product Tracker Smart Contract/PT-PT.sol\":1947:2240  Location({... */\n      dup2\n      mstore\n      0x20\n      add\n        /* \"Product Tracker Smart Contract/PT-PT.sol\":2022:2032  _custodian */\n      dup7\n        /* \"Product Tracker Smart Contract/PT-PT.sol\":1947:2240  Location({... */\n      dup2\n      mstore\n      0x20\n      add\n        /* \"Product Tracker Smart Contract/PT-PT.sol\":2096:2104  _shipped */\n      dup6\n        /* \"Product Tracker Smart Contract/PT-PT.sol\":2096:2126  _shipped ? block.timestamp : 0 */\n      tag_49\n      jumpi\n        /* \"Product Tracker Smart Contract/PT-PT.sol\":2125:2126  0 */\n      0x00\n        /* \"Product Tracker Smart Contract/PT-PT.sol\":2096:2126  _shipped ? block.timestamp : 0 */\n      jump(tag_50)\n    tag_49:\n        /* \"Product Tracker Smart Contract/PT-PT.sol\":2107:2122  block.timestamp */\n      timestamp\n        /* \"Product Tracker Smart Contract/PT-PT.sol\":2096:2126  _shipped ? block.timestamp : 0 */\n    tag_50:\n        /* \"Product Tracker Smart Contract/PT-PT.sol\":1947:2240  Location({... */\n      dup2\n      mstore\n      0x20\n      add\n        /* \"Product Tracker Smart Contract/PT-PT.sol\":2059:2067  _shipped */\n      dup6\n        /* \"Product Tracker Smart Contract/PT-PT.sol\":1947:2240  Location({... */\n      iszero\n      iszero\n      dup2\n      mstore\n      0x20\n      add\n        /* \"Product Tracker Smart Contract/PT-PT.sol\":2153:2158  false */\n      0x00\n        /* \"Product Tracker Smart Contract/PT-PT.sol\":1947:2240  Location({... */\n      iszero\n      iszero\n      dup2\n      mstore\n      0x20\n      add\n        /* \"Product Tracker Smart Contract/PT-PT.sol\":2224:2225  0 */\n      0x00\n        /* \"Product Tracker Smart Contract/PT-PT.sol\":1947:2240  Location({... */\n      dup2\n      mstore\n      pop\n        /* \"Product Tracker Smart Contract/PT-PT.sol\":1853:2250  Product(... */\n      dup2\n      mstore\n      pop\n        /* \"Product Tracker Smart Contract/PT-PT.sol\":1830:1838  products */\n      0x00\n        /* \"Product Tracker Smart Contract/PT-PT.sol\":1830:1850  products[_productId] */\n      dup1\n        /* \"Product Tracker Smart Contract/PT-PT.sol\":1839:1849  _productId */\n      dup4\n        /* \"Product Tracker Smart Contract/PT-PT.sol\":1830:1850  products[_productId] */\n      dup2\n      mstore\n      0x20\n      add\n      swap1\n      dup2\n      mstore\n      0x20\n      add\n      0x00\n      keccak256\n        /* \"Product Tracker Smart Contract/PT-PT.sol\":1830:2250  products[_productId] = Product(... */\n      0x00\n      dup3\n      add\n      mload\n      dup2\n      0x00\n      add\n      sstore\n      0x20\n      dup3\n      add\n      mload\n      dup2\n      0x01\n      add\n      swap1\n      dup2\n      tag_51\n      swap2\n      swap1\n      tag_26\n      jump\t// in\n    tag_51:\n      pop\n      0x40\n      dup3\n      add\n      mload\n      dup2\n      0x02\n      add\n      sstore\n      0x60\n      dup3\n      add\n      mload\n      dup2\n      0x03\n      add\n      0x00\n      dup3\n      add\n      mload\n      dup2\n      0x00\n      add\n      swap1\n      dup2\n      tag_52\n      swap2\n      swap1\n      tag_26\n      jump\t// in\n    tag_52:\n      pop\n      0x20\n      dup3\n      add\n      mload\n      dup2\n      0x01\n      add\n      swap1\n      dup2\n      tag_53\n      swap2\n      swap1\n      tag_26\n      jump\t// in\n    tag_53:\n      pop\n      0x40\n      dup3\n      add\n      mload\n      dup2\n      0x02\n      add\n      sstore\n      0x60\n      dup3\n      add\n      mload\n      dup2\n      0x03\n      add\n      exp(0x0100, 0x00)\n      dup2\n      sload\n      dup2\n      0xff\n      mul\n      not\n      and\n      swap1\n      dup4\n      iszero\n      iszero\n      mul\n      or\n      swap1\n      sstore\n      pop\n      0x80\n      dup3\n      add\n      mload\n      dup2\n      0x03\n      add\n      exp(0x0100, 0x01)\n      dup2\n      sload\n      dup2\n      0xff\n      mul\n      not\n      and\n      swap1\n      dup4\n      iszero\n      iszero\n      mul\n      or\n      swap1\n      sstore\n      pop\n      0xa0\n      dup3\n      add\n      mload\n      dup2\n      0x04\n      add\n      sstore\n      pop\n      pop\n      swap1\n      pop\n      pop\n        /* \"Product Tracker Smart Contract/PT-PT.sol\":2283:2293  _productId */\n      dup1\n        /* \"Product Tracker Smart Contract/PT-PT.sol\":2266:2319  ProductGenerated(_productId, _productName, _quantity) */\n      0x92e3e4e5b7088b1311430db271802c16f3cfe934879e5dc4453cbd987f16b09e\n        /* \"Product Tracker Smart Contract/PT-PT.sol\":2295:2307  _productName */\n      dup8\n        /* \"Product Tracker Smart Contract/PT-PT.sol\":2309:2318  _quantity */\n      dup8\n        /* \"Product Tracker Smart Contract/PT-PT.sol\":2266:2319  ProductGenerated(_productId, _productName, _quantity) */\n      mload(0x40)\n      tag_54\n      swap3\n      swap2\n      swap1\n      tag_55\n      jump\t// in\n    tag_54:\n      mload(0x40)\n      dup1\n      swap2\n      sub\n      swap1\n      log2\n        /* \"Product Tracker Smart Contract/PT-PT.sol\":1693:2326  {... */\n      pop\n        /* \"Product Tracker Smart Contract/PT-PT.sol\":1477:2326  function addProduct(... */\n      pop\n      pop\n      pop\n      pop\n      pop\n      jump\t// out\n        /* \"#utility.yul\":7:82   */\n    tag_56:\n        /* \"#utility.yul\":40:46   */\n      0x00\n        /* \"#utility.yul\":73:75   */\n      0x40\n        /* \"#utility.yul\":67:76   */\n      mload\n        /* \"#utility.yul\":57:76   */\n      swap1\n      pop\n        /* \"#utility.yul\":7:82   */\n      swap1\n      jump\t// out\n        /* \"#utility.yul\":88:205   */\n    tag_57:\n        /* \"#utility.yul\":197:198   */\n      0x00\n        /* \"#utility.yul\":194:195   */\n      dup1\n        /* \"#utility.yul\":187:199   */\n      revert\n        /* \"#utility.yul\":211:328   */\n    tag_58:\n        /* \"#utility.yul\":320:321   */\n      0x00\n        /* \"#utility.yul\":317:318   */\n      dup1\n        /* \"#utility.yul\":310:322   */\n      revert\n        /* \"#utility.yul\":334:411   */\n    tag_59:\n        /* \"#utility.yul\":371:378   */\n      0x00\n        /* \"#utility.yul\":400:405   */\n      dup2\n        /* \"#utility.yul\":389:405   */\n      swap1\n      pop\n        /* \"#utility.yul\":334:411   */\n      swap2\n      swap1\n      pop\n      jump\t// out\n        /* \"#utility.yul\":417:539   */\n    tag_60:\n        /* \"#utility.yul\":490:514   */\n      tag_113\n        /* \"#utility.yul\":508:513   */\n      dup2\n        /* \"#utility.yul\":490:514   */\n      tag_59\n      jump\t// in\n    tag_113:\n        /* \"#utility.yul\":483:488   */\n      dup2\n        /* \"#utility.yul\":480:515   */\n      eq\n        /* \"#utility.yul\":470:533   */\n      tag_114\n      jumpi\n        /* \"#utility.yul\":529:530   */\n      0x00\n        /* \"#utility.yul\":526:527   */\n      dup1\n        /* \"#utility.yul\":519:531   */\n      revert\n        /* \"#utility.yul\":470:533   */\n    tag_114:\n        /* \"#utility.yul\":417:539   */\n      pop\n      jump\t// out\n        /* \"#utility.yul\":545:684   */\n    tag_61:\n        /* \"#utility.yul\":591:596   */\n      0x00\n        /* \"#utility.yul\":629:635   */\n      dup2\n        /* \"#utility.yul\":616:636   */\n      calldataload\n        /* \"#utility.yul\":607:636   */\n      swap1\n      pop\n        /* \"#utility.yul\":645:678   */\n      tag_116\n        /* \"#utility.yul\":672:677   */\n      dup2\n        /* \"#utility.yul\":645:678   */\n      tag_60\n      jump\t// in\n    tag_116:\n        /* \"#utility.yul\":545:684   */\n      swap3\n      swap2\n      pop\n      pop\n      jump\t// out\n        /* \"#utility.yul\":690:807   */\n    tag_62:\n        /* \"#utility.yul\":799:800   */\n      0x00\n        /* \"#utility.yul\":796:797   */\n      dup1\n        /* \"#utility.yul\":789:801   */\n      revert\n        /* \"#utility.yul\":813:930   */\n    tag_63:\n        /* \"#utility.yul\":922:923   */\n      0x00\n        /* \"#utility.yul\":919:920   */\n      dup1\n        /* \"#utility.yul\":912:924   */\n      revert\n        /* \"#utility.yul\":936:1038   */\n    tag_64:\n        /* \"#utility.yul\":977:983   */\n      0x00\n        /* \"#utility.yul\":1028:1030   */\n      0x1f\n        /* \"#utility.yul\":1024:1031   */\n      not\n        /* \"#utility.yul\":1019:1021   */\n      0x1f\n        /* \"#utility.yul\":1012:1017   */\n      dup4\n        /* \"#utility.yul\":1008:1022   */\n      add\n        /* \"#utility.yul\":1004:1032   */\n      and\n        /* \"#utility.yul\":994:1032   */\n      swap1\n      pop\n        /* \"#utility.yul\":936:1038   */\n      swap2\n      swap1\n      pop\n      jump\t// out\n        /* \"#utility.yul\":1044:1224   */\n    tag_65:\n        /* \"#utility.yul\":1092:1169   */\n      0x4e487b7100000000000000000000000000000000000000000000000000000000\n        /* \"#utility.yul\":1089:1090   */\n      0x00\n        /* \"#utility.yul\":1082:1170   */\n      mstore\n        /* \"#utility.yul\":1189:1193   */\n      0x41\n        /* \"#utility.yul\":1186:1187   */\n      0x04\n        /* \"#utility.yul\":1179:1194   */\n      mstore\n        /* \"#utility.yul\":1213:1217   */\n      0x24\n        /* \"#utility.yul\":1210:1211   */\n      0x00\n        /* \"#utility.yul\":1203:1218   */\n      revert\n        /* \"#utility.yul\":1230:1511   */\n    tag_66:\n        /* \"#utility.yul\":1313:1340   */\n      tag_122\n        /* \"#utility.yul\":1335:1339   */\n      dup3\n        /* \"#utility.yul\":1313:1340   */\n      tag_64\n      jump\t// in\n    tag_122:\n        /* \"#utility.yul\":1305:1311   */\n      dup2\n        /* \"#utility.yul\":1301:1341   */\n      add\n        /* \"#utility.yul\":1443:1449   */\n      dup2\n        /* \"#utility.yul\":1431:1441   */\n      dup2\n        /* \"#utility.yul\":1428:1450   */\n      lt\n        /* \"#utility.yul\":1407:1425   */\n      0xffffffffffffffff\n        /* \"#utility.yul\":1395:1405   */\n      dup3\n        /* \"#utility.yul\":1392:1426   */\n      gt\n        /* \"#utility.yul\":1389:1451   */\n      or\n        /* \"#utility.yul\":1386:1474   */\n      iszero\n      tag_123\n      jumpi\n        /* \"#utility.yul\":1454:1472   */\n      tag_124\n      tag_65\n      jump\t// in\n    tag_124:\n        /* \"#utility.yul\":1386:1474   */\n    tag_123:\n        /* \"#utility.yul\":1494:1504   */\n      dup1\n        /* \"#utility.yul\":1490:1492   */\n      0x40\n        /* \"#utility.yul\":1483:1505   */\n      mstore\n        /* \"#utility.yul\":1273:1511   */\n      pop\n        /* \"#utility.yul\":1230:1511   */\n      pop\n      pop\n      jump\t// out\n        /* \"#utility.yul\":1517:1646   */\n    tag_67:\n        /* \"#utility.yul\":1551:1557   */\n      0x00\n        /* \"#utility.yul\":1578:1598   */\n      tag_126\n      tag_56\n      jump\t// in\n    tag_126:\n        /* \"#utility.yul\":1568:1598   */\n      swap1\n      pop\n        /* \"#utility.yul\":1607:1640   */\n      tag_127\n        /* \"#utility.yul\":1635:1639   */\n      dup3\n        /* \"#utility.yul\":1627:1633   */\n      dup3\n        /* \"#utility.yul\":1607:1640   */\n      tag_66\n      jump\t// in\n    tag_127:\n        /* \"#utility.yul\":1517:1646   */\n      swap2\n      swap1\n      pop\n      jump\t// out\n        /* \"#utility.yul\":1652:1960   */\n    tag_68:\n        /* \"#utility.yul\":1714:1718   */\n      0x00\n        /* \"#utility.yul\":1804:1822   */\n      0xffffffffffffffff\n        /* \"#utility.yul\":1796:1802   */\n      dup3\n        /* \"#utility.yul\":1793:1823   */\n      gt\n        /* \"#utility.yul\":1790:1846   */\n      iszero\n      tag_129\n      jumpi\n        /* \"#utility.yul\":1826:1844   */\n      tag_130\n      tag_65\n      jump\t// in\n    tag_130:\n        /* \"#utility.yul\":1790:1846   */\n    tag_129:\n        /* \"#utility.yul\":1864:1893   */\n      tag_131\n        /* \"#utility.yul\":1886:1892   */\n      dup3\n        /* \"#utility.yul\":1864:1893   */\n      tag_64\n      jump\t// in\n    tag_131:\n        /* \"#utility.yul\":1856:1893   */\n      swap1\n      pop\n        /* \"#utility.yul\":1948:1952   */\n      0x20\n        /* \"#utility.yul\":1942:1946   */\n      dup2\n        /* \"#utility.yul\":1938:1953   */\n      add\n        /* \"#utility.yul\":1930:1953   */\n      swap1\n      pop\n        /* \"#utility.yul\":1652:1960   */\n      swap2\n      swap1\n      pop\n      jump\t// out\n        /* \"#utility.yul\":1966:2114   */\n    tag_69:\n        /* \"#utility.yul\":2064:2070   */\n      dup3\n        /* \"#utility.yul\":2059:2062   */\n      dup2\n        /* \"#utility.yul\":2054:2057   */\n      dup4\n        /* \"#utility.yul\":2041:2071   */\n      calldatacopy\n        /* \"#utility.yul\":2105:2106   */\n      0x00\n        /* \"#utility.yul\":2096:2102   */\n      dup4\n        /* \"#utility.yul\":2091:2094   */\n      dup4\n        /* \"#utility.yul\":2087:2103   */\n      add\n        /* \"#utility.yul\":2080:2107   */\n      mstore\n        /* \"#utility.yul\":1966:2114   */\n      pop\n      pop\n      pop\n      jump\t// out\n        /* \"#utility.yul\":2120:2545   */\n    tag_70:\n        /* \"#utility.yul\":2198:2203   */\n      0x00\n        /* \"#utility.yul\":2223:2289   */\n      tag_134\n        /* \"#utility.yul\":2239:2288   */\n      tag_135\n        /* \"#utility.yul\":2281:2287   */\n      dup5\n        /* \"#utility.yul\":2239:2288   */\n      tag_68\n      jump\t// in\n    tag_135:\n        /* \"#utility.yul\":2223:2289   */\n      tag_67\n      jump\t// in\n    tag_134:\n        /* \"#utility.yul\":2214:2289   */\n      swap1\n      pop\n        /* \"#utility.yul\":2312:2318   */\n      dup3\n        /* \"#utility.yul\":2305:2310   */\n      dup2\n        /* \"#utility.yul\":2298:2319   */\n      mstore\n        /* \"#utility.yul\":2350:2354   */\n      0x20\n        /* \"#utility.yul\":2343:2348   */\n      dup2\n        /* \"#utility.yul\":2339:2355   */\n      add\n        /* \"#utility.yul\":2388:2391   */\n      dup5\n        /* \"#utility.yul\":2379:2385   */\n      dup5\n        /* \"#utility.yul\":2374:2377   */\n      dup5\n        /* \"#utility.yul\":2370:2386   */\n      add\n        /* \"#utility.yul\":2367:2392   */\n      gt\n        /* \"#utility.yul\":2364:2476   */\n      iszero\n      tag_136\n      jumpi\n        /* \"#utility.yul\":2395:2474   */\n      tag_137\n      tag_63\n      jump\t// in\n    tag_137:\n        /* \"#utility.yul\":2364:2476   */\n    tag_136:\n        /* \"#utility.yul\":2485:2539   */\n      tag_138\n        /* \"#utility.yul\":2532:2538   */\n      dup5\n        /* \"#utility.yul\":2527:2530   */\n      dup3\n        /* \"#utility.yul\":2522:2525   */\n      dup6\n        /* \"#utility.yul\":2485:2539   */\n      tag_69\n      jump\t// in\n    tag_138:\n        /* \"#utility.yul\":2204:2545   */\n      pop\n        /* \"#utility.yul\":2120:2545   */\n      swap4\n      swap3\n      pop\n      pop\n      pop\n      jump\t// out\n        /* \"#utility.yul\":2565:2905   */\n    tag_71:\n        /* \"#utility.yul\":2621:2626   */\n      0x00\n        /* \"#utility.yul\":2670:2673   */\n      dup3\n        /* \"#utility.yul\":2663:2667   */\n      0x1f\n        /* \"#utility.yul\":2655:2661   */\n      dup4\n        /* \"#utility.yul\":2651:2668   */\n      add\n        /* \"#utility.yul\":2647:2674   */\n      slt\n        /* \"#utility.yul\":2637:2759   */\n      tag_140\n      jumpi\n        /* \"#utility.yul\":2678:2757   */\n      tag_141\n      tag_62\n      jump\t// in\n    tag_141:\n        /* \"#utility.yul\":2637:2759   */\n    tag_140:\n        /* \"#utility.yul\":2795:2801   */\n      dup2\n        /* \"#utility.yul\":2782:2802   */\n      calldataload\n        /* \"#utility.yul\":2820:2899   */\n      tag_142\n        /* \"#utility.yul\":2895:2898   */\n      dup5\n        /* \"#utility.yul\":2887:2893   */\n      dup3\n        /* \"#utility.yul\":2880:2884   */\n      0x20\n        /* \"#utility.yul\":2872:2878   */\n      dup7\n        /* \"#utility.yul\":2868:2885   */\n      add\n        /* \"#utility.yul\":2820:2899   */\n      tag_70\n      jump\t// in\n    tag_142:\n        /* \"#utility.yul\":2811:2899   */\n      swap2\n      pop\n        /* \"#utility.yul\":2627:2905   */\n      pop\n        /* \"#utility.yul\":2565:2905   */\n      swap3\n      swap2\n      pop\n      pop\n      jump\t// out\n        /* \"#utility.yul\":2911:3565   */\n    tag_8:\n        /* \"#utility.yul\":2989:2995   */\n      0x00\n        /* \"#utility.yul\":2997:3003   */\n      dup1\n        /* \"#utility.yul\":3046:3048   */\n      0x40\n        /* \"#utility.yul\":3034:3043   */\n      dup4\n        /* \"#utility.yul\":3025:3032   */\n      dup6\n        /* \"#utility.yul\":3021:3044   */\n      sub\n        /* \"#utility.yul\":3017:3049   */\n      slt\n        /* \"#utility.yul\":3014:3133   */\n      iszero\n      tag_144\n      jumpi\n        /* \"#utility.yul\":3052:3131   */\n      tag_145\n      tag_57\n      jump\t// in\n    tag_145:\n        /* \"#utility.yul\":3014:3133   */\n    tag_144:\n        /* \"#utility.yul\":3172:3173   */\n      0x00\n        /* \"#utility.yul\":3197:3250   */\n      tag_146\n        /* \"#utility.yul\":3242:3249   */\n      dup6\n        /* \"#utility.yul\":3233:3239   */\n      dup3\n        /* \"#utility.yul\":3222:3231   */\n      dup7\n        /* \"#utility.yul\":3218:3240   */\n      add\n        /* \"#utility.yul\":3197:3250   */\n      tag_61\n      jump\t// in\n    tag_146:\n        /* \"#utility.yul\":3187:3250   */\n      swap3\n      pop\n        /* \"#utility.yul\":3143:3260   */\n      pop\n        /* \"#utility.yul\":3327:3329   */\n      0x20\n        /* \"#utility.yul\":3316:3325   */\n      dup4\n        /* \"#utility.yul\":3312:3330   */\n      add\n        /* \"#utility.yul\":3299:3331   */\n      calldataload\n        /* \"#utility.yul\":3358:3376   */\n      0xffffffffffffffff\n        /* \"#utility.yul\":3350:3356   */\n      dup2\n        /* \"#utility.yul\":3347:3377   */\n      gt\n        /* \"#utility.yul\":3344:3461   */\n      iszero\n      tag_147\n      jumpi\n        /* \"#utility.yul\":3380:3459   */\n      tag_148\n      tag_58\n      jump\t// in\n    tag_148:\n        /* \"#utility.yul\":3344:3461   */\n    tag_147:\n        /* \"#utility.yul\":3485:3548   */\n      tag_149\n        /* \"#utility.yul\":3540:3547   */\n      dup6\n        /* \"#utility.yul\":3531:3537   */\n      dup3\n        /* \"#utility.yul\":3520:3529   */\n      dup7\n        /* \"#utility.yul\":3516:3538   */\n      add\n        /* \"#utility.yul\":3485:3548   */\n      tag_71\n      jump\t// in\n    tag_149:\n        /* \"#utility.yul\":3475:3548   */\n      swap2\n      pop\n        /* \"#utility.yul\":3270:3558   */\n      pop\n        /* \"#utility.yul\":2911:3565   */\n      swap3\n      pop\n      swap3\n      swap1\n      pop\n      jump\t// out\n        /* \"#utility.yul\":3571:3900   */\n    tag_12:\n        /* \"#utility.yul\":3630:3636   */\n      0x00\n        /* \"#utility.yul\":3679:3681   */\n      0x20\n        /* \"#utility.yul\":3667:3676   */\n      dup3\n        /* \"#utility.yul\":3658:3665   */\n      dup5\n        /* \"#utility.yul\":3654:3677   */\n      sub\n        /* \"#utility.yul\":3650:3682   */\n      slt\n        /* \"#utility.yul\":3647:3766   */\n      iszero\n      tag_151\n      jumpi\n        /* \"#utility.yul\":3685:3764   */\n      tag_152\n      tag_57\n      jump\t// in\n    tag_152:\n        /* \"#utility.yul\":3647:3766   */\n    tag_151:\n        /* \"#utility.yul\":3805:3806   */\n      0x00\n        /* \"#utility.yul\":3830:3883   */\n      tag_153\n        /* \"#utility.yul\":3875:3882   */\n      dup5\n        /* \"#utility.yul\":3866:3872   */\n      dup3\n        /* \"#utility.yul\":3855:3864   */\n      dup6\n        /* \"#utility.yul\":3851:3873   */\n      add\n        /* \"#utility.yul\":3830:3883   */\n      tag_61\n      jump\t// in\n    tag_153:\n        /* \"#utility.yul\":3820:3883   */\n      swap2\n      pop\n        /* \"#utility.yul\":3776:3893   */\n      pop\n        /* \"#utility.yul\":3571:3900   */\n      swap3\n      swap2\n      pop\n      pop\n      jump\t// out\n        /* \"#utility.yul\":3906:4024   */\n    tag_72:\n        /* \"#utility.yul\":3993:4017   */\n      tag_155\n        /* \"#utility.yul\":4011:4016   */\n      dup2\n        /* \"#utility.yul\":3993:4017   */\n      tag_59\n      jump\t// in\n    tag_155:\n        /* \"#utility.yul\":3988:3991   */\n      dup3\n        /* \"#utility.yul\":3981:4018   */\n      mstore\n        /* \"#utility.yul\":3906:4024   */\n      pop\n      pop\n      jump\t// out\n        /* \"#utility.yul\":4030:4129   */\n    tag_73:\n        /* \"#utility.yul\":4082:4088   */\n      0x00\n        /* \"#utility.yul\":4116:4121   */\n      dup2\n        /* \"#utility.yul\":4110:4122   */\n      mload\n        /* \"#utility.yul\":4100:4122   */\n      swap1\n      pop\n        /* \"#utility.yul\":4030:4129   */\n      swap2\n      swap1\n      pop\n      jump\t// out\n        /* \"#utility.yul\":4135:4304   */\n    tag_74:\n        /* \"#utility.yul\":4219:4230   */\n      0x00\n        /* \"#utility.yul\":4253:4259   */\n      dup3\n        /* \"#utility.yul\":4248:4251   */\n      dup3\n        /* \"#utility.yul\":4241:4260   */\n      mstore\n        /* \"#utility.yul\":4293:4297   */\n      0x20\n        /* \"#utility.yul\":4288:4291   */\n      dup3\n        /* \"#utility.yul\":4284:4298   */\n      add\n        /* \"#utility.yul\":4269:4298   */\n      swap1\n      pop\n        /* \"#utility.yul\":4135:4304   */\n      swap3\n      swap2\n      pop\n      pop\n      jump\t// out\n        /* \"#utility.yul\":4310:4449   */\n    tag_75:\n        /* \"#utility.yul\":4399:4405   */\n      dup3\n        /* \"#utility.yul\":4394:4397   */\n      dup2\n        /* \"#utility.yul\":4389:4392   */\n      dup4\n        /* \"#utility.yul\":4383:4406   */\n      mcopy\n        /* \"#utility.yul\":4440:4441   */\n      0x00\n        /* \"#utility.yul\":4431:4437   */\n      dup4\n        /* \"#utility.yul\":4426:4429   */\n      dup4\n        /* \"#utility.yul\":4422:4438   */\n      add\n        /* \"#utility.yul\":4415:4442   */\n      mstore\n        /* \"#utility.yul\":4310:4449   */\n      pop\n      pop\n      pop\n      jump\t// out\n        /* \"#utility.yul\":4455:4832   */\n    tag_76:\n        /* \"#utility.yul\":4543:4546   */\n      0x00\n        /* \"#utility.yul\":4571:4610   */\n      tag_160\n        /* \"#utility.yul\":4604:4609   */\n      dup3\n        /* \"#utility.yul\":4571:4610   */\n      tag_73\n      jump\t// in\n    tag_160:\n        /* \"#utility.yul\":4626:4697   */\n      tag_161\n        /* \"#utility.yul\":4690:4696   */\n      dup2\n        /* \"#utility.yul\":4685:4688   */\n      dup6\n        /* \"#utility.yul\":4626:4697   */\n      tag_74\n      jump\t// in\n    tag_161:\n        /* \"#utility.yul\":4619:4697   */\n      swap4\n      pop\n        /* \"#utility.yul\":4706:4771   */\n      tag_162\n        /* \"#utility.yul\":4764:4770   */\n      dup2\n        /* \"#utility.yul\":4759:4762   */\n      dup6\n        /* \"#utility.yul\":4752:4756   */\n      0x20\n        /* \"#utility.yul\":4745:4750   */\n      dup7\n        /* \"#utility.yul\":4741:4757   */\n      add\n        /* \"#utility.yul\":4706:4771   */\n      tag_75\n      jump\t// in\n    tag_162:\n        /* \"#utility.yul\":4796:4825   */\n      tag_163\n        /* \"#utility.yul\":4818:4824   */\n      dup2\n        /* \"#utility.yul\":4796:4825   */\n      tag_64\n      jump\t// in\n    tag_163:\n        /* \"#utility.yul\":4791:4794   */\n      dup5\n        /* \"#utility.yul\":4787:4826   */\n      add\n        /* \"#utility.yul\":4780:4826   */\n      swap2\n      pop\n        /* \"#utility.yul\":4547:4832   */\n      pop\n        /* \"#utility.yul\":4455:4832   */\n      swap3\n      swap2\n      pop\n      pop\n      jump\t// out\n        /* \"#utility.yul\":4838:4997   */\n    tag_77:\n        /* \"#utility.yul\":4912:4923   */\n      0x00\n        /* \"#utility.yul\":4946:4952   */\n      dup3\n        /* \"#utility.yul\":4941:4944   */\n      dup3\n        /* \"#utility.yul\":4934:4953   */\n      mstore\n        /* \"#utility.yul\":4986:4990   */\n      0x20\n        /* \"#utility.yul\":4981:4984   */\n      dup3\n        /* \"#utility.yul\":4977:4991   */\n      add\n        /* \"#utility.yul\":4962:4991   */\n      swap1\n      pop\n        /* \"#utility.yul\":4838:4997   */\n      swap3\n      swap2\n      pop\n      pop\n      jump\t// out\n        /* \"#utility.yul\":5003:5360   */\n    tag_78:\n        /* \"#utility.yul\":5081:5084   */\n      0x00\n        /* \"#utility.yul\":5109:5148   */\n      tag_166\n        /* \"#utility.yul\":5142:5147   */\n      dup3\n        /* \"#utility.yul\":5109:5148   */\n      tag_73\n      jump\t// in\n    tag_166:\n        /* \"#utility.yul\":5164:5225   */\n      tag_167\n        /* \"#utility.yul\":5218:5224   */\n      dup2\n        /* \"#utility.yul\":5213:5216   */\n      dup6\n        /* \"#utility.yul\":5164:5225   */\n      tag_77\n      jump\t// in\n    tag_167:\n        /* \"#utility.yul\":5157:5225   */\n      swap4\n      pop\n        /* \"#utility.yul\":5234:5299   */\n      tag_168\n        /* \"#utility.yul\":5292:5298   */\n      dup2\n        /* \"#utility.yul\":5287:5290   */\n      dup6\n        /* \"#utility.yul\":5280:5284   */\n      0x20\n        /* \"#utility.yul\":5273:5278   */\n      dup7\n        /* \"#utility.yul\":5269:5285   */\n      add\n        /* \"#utility.yul\":5234:5299   */\n      tag_75\n      jump\t// in\n    tag_168:\n        /* \"#utility.yul\":5324:5353   */\n      tag_169\n        /* \"#utility.yul\":5346:5352   */\n      dup2\n        /* \"#utility.yul\":5324:5353   */\n      tag_64\n      jump\t// in\n    tag_169:\n        /* \"#utility.yul\":5319:5322   */\n      dup5\n        /* \"#utility.yul\":5315:5354   */\n      add\n        /* \"#utility.yul\":5308:5354   */\n      swap2\n      pop\n        /* \"#utility.yul\":5085:5360   */\n      pop\n        /* \"#utility.yul\":5003:5360   */\n      swap3\n      swap2\n      pop\n      pop\n      jump\t// out\n        /* \"#utility.yul\":5366:5474   */\n    tag_79:\n        /* \"#utility.yul\":5443:5467   */\n      tag_171\n        /* \"#utility.yul\":5461:5466   */\n      dup2\n        /* \"#utility.yul\":5443:5467   */\n      tag_59\n      jump\t// in\n    tag_171:\n        /* \"#utility.yul\":5438:5441   */\n      dup3\n        /* \"#utility.yul\":5431:5468   */\n      mstore\n        /* \"#utility.yul\":5366:5474   */\n      pop\n      pop\n      jump\t// out\n        /* \"#utility.yul\":5480:5570   */\n    tag_80:\n        /* \"#utility.yul\":5514:5521   */\n      0x00\n        /* \"#utility.yul\":5557:5562   */\n      dup2\n        /* \"#utility.yul\":5550:5563   */\n      iszero\n        /* \"#utility.yul\":5543:5564   */\n      iszero\n        /* \"#utility.yul\":5532:5564   */\n      swap1\n      pop\n        /* \"#utility.yul\":5480:5570   */\n      swap2\n      swap1\n      pop\n      jump\t// out\n        /* \"#utility.yul\":5576:5675   */\n    tag_81:\n        /* \"#utility.yul\":5647:5668   */\n      tag_174\n        /* \"#utility.yul\":5662:5667   */\n      dup2\n        /* \"#utility.yul\":5647:5668   */\n      tag_80\n      jump\t// in\n    tag_174:\n        /* \"#utility.yul\":5642:5645   */\n      dup3\n        /* \"#utility.yul\":5635:5669   */\n      mstore\n        /* \"#utility.yul\":5576:5675   */\n      pop\n      pop\n      jump\t// out\n        /* \"#utility.yul\":5753:7131   */\n    tag_82:\n        /* \"#utility.yul\":5870:5873   */\n      0x00\n        /* \"#utility.yul\":5906:5910   */\n      0xc0\n        /* \"#utility.yul\":5901:5904   */\n      dup4\n        /* \"#utility.yul\":5897:5911   */\n      add\n        /* \"#utility.yul\":5993:5997   */\n      0x00\n        /* \"#utility.yul\":5986:5991   */\n      dup4\n        /* \"#utility.yul\":5982:5998   */\n      add\n        /* \"#utility.yul\":5976:5999   */\n      mload\n        /* \"#utility.yul\":6046:6049   */\n      dup5\n        /* \"#utility.yul\":6040:6044   */\n      dup3\n        /* \"#utility.yul\":6036:6050   */\n      sub\n        /* \"#utility.yul\":6029:6033   */\n      0x00\n        /* \"#utility.yul\":6024:6027   */\n      dup7\n        /* \"#utility.yul\":6020:6034   */\n      add\n        /* \"#utility.yul\":6013:6051   */\n      mstore\n        /* \"#utility.yul\":6072:6145   */\n      tag_176\n        /* \"#utility.yul\":6140:6144   */\n      dup3\n        /* \"#utility.yul\":6126:6138   */\n      dup3\n        /* \"#utility.yul\":6072:6145   */\n      tag_78\n      jump\t// in\n    tag_176:\n        /* \"#utility.yul\":6064:6145   */\n      swap2\n      pop\n        /* \"#utility.yul\":5921:6156   */\n      pop\n        /* \"#utility.yul\":6243:6247   */\n      0x20\n        /* \"#utility.yul\":6236:6241   */\n      dup4\n        /* \"#utility.yul\":6232:6248   */\n      add\n        /* \"#utility.yul\":6226:6249   */\n      mload\n        /* \"#utility.yul\":6296:6299   */\n      dup5\n        /* \"#utility.yul\":6290:6294   */\n      dup3\n        /* \"#utility.yul\":6286:6300   */\n      sub\n        /* \"#utility.yul\":6279:6283   */\n      0x20\n        /* \"#utility.yul\":6274:6277   */\n      dup7\n        /* \"#utility.yul\":6270:6284   */\n      add\n        /* \"#utility.yul\":6263:6301   */\n      mstore\n        /* \"#utility.yul\":6322:6395   */\n      tag_177\n        /* \"#utility.yul\":6390:6394   */\n      dup3\n        /* \"#utility.yul\":6376:6388   */\n      dup3\n        /* \"#utility.yul\":6322:6395   */\n      tag_78\n      jump\t// in\n    tag_177:\n        /* \"#utility.yul\":6314:6395   */\n      swap2\n      pop\n        /* \"#utility.yul\":6166:6406   */\n      pop\n        /* \"#utility.yul\":6493:6497   */\n      0x40\n        /* \"#utility.yul\":6486:6491   */\n      dup4\n        /* \"#utility.yul\":6482:6498   */\n      add\n        /* \"#utility.yul\":6476:6499   */\n      mload\n        /* \"#utility.yul\":6512:6575   */\n      tag_178\n        /* \"#utility.yul\":6569:6573   */\n      0x40\n        /* \"#utility.yul\":6564:6567   */\n      dup7\n        /* \"#utility.yul\":6560:6574   */\n      add\n        /* \"#utility.yul\":6546:6558   */\n      dup3\n        /* \"#utility.yul\":6512:6575   */\n      tag_79\n      jump\t// in\n    tag_178:\n        /* \"#utility.yul\":6416:6585   */\n      pop\n        /* \"#utility.yul\":6670:6674   */\n      0x60\n        /* \"#utility.yul\":6663:6668   */\n      dup4\n        /* \"#utility.yul\":6659:6675   */\n      add\n        /* \"#utility.yul\":6653:6676   */\n      mload\n        /* \"#utility.yul\":6689:6746   */\n      tag_179\n        /* \"#utility.yul\":6740:6744   */\n      0x60\n        /* \"#utility.yul\":6735:6738   */\n      dup7\n        /* \"#utility.yul\":6731:6745   */\n      add\n        /* \"#utility.yul\":6717:6729   */\n      dup3\n        /* \"#utility.yul\":6689:6746   */\n      tag_81\n      jump\t// in\n    tag_179:\n        /* \"#utility.yul\":6595:6756   */\n      pop\n        /* \"#utility.yul\":6841:6845   */\n      0x80\n        /* \"#utility.yul\":6834:6839   */\n      dup4\n        /* \"#utility.yul\":6830:6846   */\n      add\n        /* \"#utility.yul\":6824:6847   */\n      mload\n        /* \"#utility.yul\":6860:6917   */\n      tag_180\n        /* \"#utility.yul\":6911:6915   */\n      0x80\n        /* \"#utility.yul\":6906:6909   */\n      dup7\n        /* \"#utility.yul\":6902:6916   */\n      add\n        /* \"#utility.yul\":6888:6900   */\n      dup3\n        /* \"#utility.yul\":6860:6917   */\n      tag_81\n      jump\t// in\n    tag_180:\n        /* \"#utility.yul\":6766:6927   */\n      pop\n        /* \"#utility.yul\":7012:7016   */\n      0xa0\n        /* \"#utility.yul\":7005:7010   */\n      dup4\n        /* \"#utility.yul\":7001:7017   */\n      add\n        /* \"#utility.yul\":6995:7018   */\n      mload\n        /* \"#utility.yul\":7031:7094   */\n      tag_181\n        /* \"#utility.yul\":7088:7092   */\n      0xa0\n        /* \"#utility.yul\":7083:7086   */\n      dup7\n        /* \"#utility.yul\":7079:7093   */\n      add\n        /* \"#utility.yul\":7065:7077   */\n      dup3\n        /* \"#utility.yul\":7031:7094   */\n      tag_79\n      jump\t// in\n    tag_181:\n        /* \"#utility.yul\":6937:7104   */\n      pop\n        /* \"#utility.yul\":7121:7125   */\n      dup1\n        /* \"#utility.yul\":7114:7125   */\n      swap2\n      pop\n        /* \"#utility.yul\":5875:7131   */\n      pop\n        /* \"#utility.yul\":5753:7131   */\n      swap3\n      swap2\n      pop\n      pop\n      jump\t// out\n        /* \"#utility.yul\":7137:7928   */\n    tag_15:\n        /* \"#utility.yul\":7382:7386   */\n      0x00\n        /* \"#utility.yul\":7420:7423   */\n      0x80\n        /* \"#utility.yul\":7409:7418   */\n      dup3\n        /* \"#utility.yul\":7405:7424   */\n      add\n        /* \"#utility.yul\":7397:7424   */\n      swap1\n      pop\n        /* \"#utility.yul\":7434:7505   */\n      tag_183\n        /* \"#utility.yul\":7502:7503   */\n      0x00\n        /* \"#utility.yul\":7491:7500   */\n      dup4\n        /* \"#utility.yul\":7487:7504   */\n      add\n        /* \"#utility.yul\":7478:7484   */\n      dup8\n        /* \"#utility.yul\":7434:7505   */\n      tag_72\n      jump\t// in\n    tag_183:\n        /* \"#utility.yul\":7552:7561   */\n      dup2\n        /* \"#utility.yul\":7546:7550   */\n      dup2\n        /* \"#utility.yul\":7542:7562   */\n      sub\n        /* \"#utility.yul\":7537:7539   */\n      0x20\n        /* \"#utility.yul\":7526:7535   */\n      dup4\n        /* \"#utility.yul\":7522:7540   */\n      add\n        /* \"#utility.yul\":7515:7563   */\n      mstore\n        /* \"#utility.yul\":7580:7658   */\n      tag_184\n        /* \"#utility.yul\":7653:7657   */\n      dup2\n        /* \"#utility.yul\":7644:7650   */\n      dup7\n        /* \"#utility.yul\":7580:7658   */\n      tag_76\n      jump\t// in\n    tag_184:\n        /* \"#utility.yul\":7572:7658   */\n      swap1\n      pop\n        /* \"#utility.yul\":7668:7740   */\n      tag_185\n        /* \"#utility.yul\":7736:7738   */\n      0x40\n        /* \"#utility.yul\":7725:7734   */\n      dup4\n        /* \"#utility.yul\":7721:7739   */\n      add\n        /* \"#utility.yul\":7712:7718   */\n      dup6\n        /* \"#utility.yul\":7668:7740   */\n      tag_72\n      jump\t// in\n    tag_185:\n        /* \"#utility.yul\":7787:7796   */\n      dup2\n        /* \"#utility.yul\":7781:7785   */\n      dup2\n        /* \"#utility.yul\":7777:7797   */\n      sub\n        /* \"#utility.yul\":7772:7774   */\n      0x60\n        /* \"#utility.yul\":7761:7770   */\n      dup4\n        /* \"#utility.yul\":7757:7775   */\n      add\n        /* \"#utility.yul\":7750:7798   */\n      mstore\n        /* \"#utility.yul\":7815:7921   */\n      tag_186\n        /* \"#utility.yul\":7916:7920   */\n      dup2\n        /* \"#utility.yul\":7907:7913   */\n      dup5\n        /* \"#utility.yul\":7815:7921   */\n      tag_82\n      jump\t// in\n    tag_186:\n        /* \"#utility.yul\":7807:7921   */\n      swap1\n      pop\n        /* \"#utility.yul\":7137:7928   */\n      swap6\n      swap5\n      pop\n      pop\n      pop\n      pop\n      pop\n      jump\t// out\n        /* \"#utility.yul\":7934:8050   */\n    tag_83:\n        /* \"#utility.yul\":8004:8025   */\n      tag_188\n        /* \"#utility.yul\":8019:8024   */\n      dup2\n        /* \"#utility.yul\":8004:8025   */\n      tag_80\n      jump\t// in\n    tag_188:\n        /* \"#utility.yul\":7997:8002   */\n      dup2\n        /* \"#utility.yul\":7994:8026   */\n      eq\n        /* \"#utility.yul\":7984:8044   */\n      tag_189\n      jumpi\n        /* \"#utility.yul\":8040:8041   */\n      0x00\n        /* \"#utility.yul\":8037:8038   */\n      dup1\n        /* \"#utility.yul\":8030:8042   */\n      revert\n        /* \"#utility.yul\":7984:8044   */\n    tag_189:\n        /* \"#utility.yul\":7934:8050   */\n      pop\n      jump\t// out\n        /* \"#utility.yul\":8056:8189   */\n    tag_84:\n        /* \"#utility.yul\":8099:8104   */\n      0x00\n        /* \"#utility.yul\":8137:8143   */\n      dup2\n        /* \"#utility.yul\":8124:8144   */\n      calldataload\n        /* \"#utility.yul\":8115:8144   */\n      swap1\n      pop\n        /* \"#utility.yul\":8153:8183   */\n      tag_191\n        /* \"#utility.yul\":8177:8182   */\n      dup2\n        /* \"#utility.yul\":8153:8183   */\n      tag_83\n      jump\t// in\n    tag_191:\n        /* \"#utility.yul\":8056:8189   */\n      swap3\n      swap2\n      pop\n      pop\n      jump\t// out\n        /* \"#utility.yul\":8195:9640   */\n    tag_18:\n        /* \"#utility.yul\":8317:8323   */\n      0x00\n        /* \"#utility.yul\":8325:8331   */\n      dup1\n        /* \"#utility.yul\":8333:8339   */\n      0x00\n        /* \"#utility.yul\":8341:8347   */\n      dup1\n        /* \"#utility.yul\":8349:8355   */\n      0x00\n        /* \"#utility.yul\":8398:8401   */\n      0xa0\n        /* \"#utility.yul\":8386:8395   */\n      dup7\n        /* \"#utility.yul\":8377:8384   */\n      dup9\n        /* \"#utility.yul\":8373:8396   */\n      sub\n        /* \"#utility.yul\":8369:8402   */\n      slt\n        /* \"#utility.yul\":8366:8486   */\n      iszero\n      tag_193\n      jumpi\n        /* \"#utility.yul\":8405:8484   */\n      tag_194\n      tag_57\n      jump\t// in\n    tag_194:\n        /* \"#utility.yul\":8366:8486   */\n    tag_193:\n        /* \"#utility.yul\":8553:8554   */\n      0x00\n        /* \"#utility.yul\":8542:8551   */\n      dup7\n        /* \"#utility.yul\":8538:8555   */\n      add\n        /* \"#utility.yul\":8525:8556   */\n      calldataload\n        /* \"#utility.yul\":8583:8601   */\n      0xffffffffffffffff\n        /* \"#utility.yul\":8575:8581   */\n      dup2\n        /* \"#utility.yul\":8572:8602   */\n      gt\n        /* \"#utility.yul\":8569:8686   */\n      iszero\n      tag_195\n      jumpi\n        /* \"#utility.yul\":8605:8684   */\n      tag_196\n      tag_58\n      jump\t// in\n    tag_196:\n        /* \"#utility.yul\":8569:8686   */\n    tag_195:\n        /* \"#utility.yul\":8710:8773   */\n      tag_197\n        /* \"#utility.yul\":8765:8772   */\n      dup9\n        /* \"#utility.yul\":8756:8762   */\n      dup3\n        /* \"#utility.yul\":8745:8754   */\n      dup10\n        /* \"#utility.yul\":8741:8763   */\n      add\n        /* \"#utility.yul\":8710:8773   */\n      tag_71\n      jump\t// in\n    tag_197:\n        /* \"#utility.yul\":8700:8773   */\n      swap6\n      pop\n        /* \"#utility.yul\":8496:8783   */\n      pop\n        /* \"#utility.yul\":8822:8824   */\n      0x20\n        /* \"#utility.yul\":8848:8901   */\n      tag_198\n        /* \"#utility.yul\":8893:8900   */\n      dup9\n        /* \"#utility.yul\":8884:8890   */\n      dup3\n        /* \"#utility.yul\":8873:8882   */\n      dup10\n        /* \"#utility.yul\":8869:8891   */\n      add\n        /* \"#utility.yul\":8848:8901   */\n      tag_61\n      jump\t// in\n    tag_198:\n        /* \"#utility.yul\":8838:8901   */\n      swap5\n      pop\n        /* \"#utility.yul\":8793:8911   */\n      pop\n        /* \"#utility.yul\":8978:8980   */\n      0x40\n        /* \"#utility.yul\":8967:8976   */\n      dup7\n        /* \"#utility.yul\":8963:8981   */\n      add\n        /* \"#utility.yul\":8950:8982   */\n      calldataload\n        /* \"#utility.yul\":9009:9027   */\n      0xffffffffffffffff\n        /* \"#utility.yul\":9001:9007   */\n      dup2\n        /* \"#utility.yul\":8998:9028   */\n      gt\n        /* \"#utility.yul\":8995:9112   */\n      iszero\n      tag_199\n      jumpi\n        /* \"#utility.yul\":9031:9110   */\n      tag_200\n      tag_58\n      jump\t// in\n    tag_200:\n        /* \"#utility.yul\":8995:9112   */\n    tag_199:\n        /* \"#utility.yul\":9136:9199   */\n      tag_201\n        /* \"#utility.yul\":9191:9198   */\n      dup9\n        /* \"#utility.yul\":9182:9188   */\n      dup3\n        /* \"#utility.yul\":9171:9180   */\n      dup10\n        /* \"#utility.yul\":9167:9189   */\n      add\n        /* \"#utility.yul\":9136:9199   */\n      tag_71\n      jump\t// in\n    tag_201:\n        /* \"#utility.yul\":9126:9199   */\n      swap4\n      pop\n        /* \"#utility.yul\":8921:9209   */\n      pop\n        /* \"#utility.yul\":9276:9278   */\n      0x60\n        /* \"#utility.yul\":9265:9274   */\n      dup7\n        /* \"#utility.yul\":9261:9279   */\n      add\n        /* \"#utility.yul\":9248:9280   */\n      calldataload\n        /* \"#utility.yul\":9307:9325   */\n      0xffffffffffffffff\n        /* \"#utility.yul\":9299:9305   */\n      dup2\n        /* \"#utility.yul\":9296:9326   */\n      gt\n        /* \"#utility.yul\":9293:9410   */\n      iszero\n      tag_202\n      jumpi\n        /* \"#utility.yul\":9329:9408   */\n      tag_203\n      tag_58\n      jump\t// in\n    tag_203:\n        /* \"#utility.yul\":9293:9410   */\n    tag_202:\n        /* \"#utility.yul\":9434:9497   */\n      tag_204\n        /* \"#utility.yul\":9489:9496   */\n      dup9\n        /* \"#utility.yul\":9480:9486   */\n      dup3\n        /* \"#utility.yul\":9469:9478   */\n      dup10\n        /* \"#utility.yul\":9465:9487   */\n      add\n        /* \"#utility.yul\":9434:9497   */\n      tag_71\n      jump\t// in\n    tag_204:\n        /* \"#utility.yul\":9424:9497   */\n      swap3\n      pop\n        /* \"#utility.yul\":9219:9507   */\n      pop\n        /* \"#utility.yul\":9546:9549   */\n      0x80\n        /* \"#utility.yul\":9573:9623   */\n      tag_205\n        /* \"#utility.yul\":9615:9622   */\n      dup9\n        /* \"#utility.yul\":9606:9612   */\n      dup3\n        /* \"#utility.yul\":9595:9604   */\n      dup10\n        /* \"#utility.yul\":9591:9613   */\n      add\n        /* \"#utility.yul\":9573:9623   */\n      tag_84\n      jump\t// in\n    tag_205:\n        /* \"#utility.yul\":9563:9623   */\n      swap2\n      pop\n        /* \"#utility.yul\":9517:9633   */\n      pop\n        /* \"#utility.yul\":8195:9640   */\n      swap3\n      swap6\n      pop\n      swap3\n      swap6\n      swap1\n      swap4\n      pop\n      jump\t// out\n        /* \"#utility.yul\":9646:9818   */\n    tag_85:\n        /* \"#utility.yul\":9786:9810   */\n      0x50726f6475637420646f6573206e6f7420657869737400000000000000000000\n        /* \"#utility.yul\":9782:9783   */\n      0x00\n        /* \"#utility.yul\":9774:9780   */\n      dup3\n        /* \"#utility.yul\":9770:9784   */\n      add\n        /* \"#utility.yul\":9763:9811   */\n      mstore\n        /* \"#utility.yul\":9646:9818   */\n      pop\n      jump\t// out\n        /* \"#utility.yul\":9824:10190   */\n    tag_86:\n        /* \"#utility.yul\":9966:9969   */\n      0x00\n        /* \"#utility.yul\":9987:10054   */\n      tag_208\n        /* \"#utility.yul\":10051:10053   */\n      0x16\n        /* \"#utility.yul\":10046:10049   */\n      dup4\n        /* \"#utility.yul\":9987:10054   */\n      tag_74\n      jump\t// in\n    tag_208:\n        /* \"#utility.yul\":9980:10054   */\n      swap2\n      pop\n        /* \"#utility.yul\":10063:10156   */\n      tag_209\n        /* \"#utility.yul\":10152:10155   */\n      dup3\n        /* \"#utility.yul\":10063:10156   */\n      tag_85\n      jump\t// in\n    tag_209:\n        /* \"#utility.yul\":10181:10183   */\n      0x20\n        /* \"#utility.yul\":10176:10179   */\n      dup3\n        /* \"#utility.yul\":10172:10184   */\n      add\n        /* \"#utility.yul\":10165:10184   */\n      swap1\n      pop\n        /* \"#utility.yul\":9824:10190   */\n      swap2\n      swap1\n      pop\n      jump\t// out\n        /* \"#utility.yul\":10196:10615   */\n    tag_23:\n        /* \"#utility.yul\":10362:10366   */\n      0x00\n        /* \"#utility.yul\":10400:10402   */\n      0x20\n        /* \"#utility.yul\":10389:10398   */\n      dup3\n        /* \"#utility.yul\":10385:10403   */\n      add\n        /* \"#utility.yul\":10377:10403   */\n      swap1\n      pop\n        /* \"#utility.yul\":10449:10458   */\n      dup2\n        /* \"#utility.yul\":10443:10447   */\n      dup2\n        /* \"#utility.yul\":10439:10459   */\n      sub\n        /* \"#utility.yul\":10435:10436   */\n      0x00\n        /* \"#utility.yul\":10424:10433   */\n      dup4\n        /* \"#utility.yul\":10420:10437   */\n      add\n        /* \"#utility.yul\":10413:10460   */\n      mstore\n        /* \"#utility.yul\":10477:10608   */\n      tag_211\n        /* \"#utility.yul\":10603:10607   */\n      dup2\n        /* \"#utility.yul\":10477:10608   */\n      tag_86\n      jump\t// in\n    tag_211:\n        /* \"#utility.yul\":10469:10608   */\n      swap1\n      pop\n        /* \"#utility.yul\":10196:10615   */\n      swap2\n      swap1\n      pop\n      jump\t// out\n        /* \"#utility.yul\":10621:10801   */\n    tag_87:\n        /* \"#utility.yul\":10669:10746   */\n      0x4e487b7100000000000000000000000000000000000000000000000000000000\n        /* \"#utility.yul\":10666:10667   */\n      0x00\n        /* \"#utility.yul\":10659:10747   */\n      mstore\n        /* \"#utility.yul\":10766:10770   */\n      0x22\n        /* \"#utility.yul\":10763:10764   */\n      0x04\n        /* \"#utility.yul\":10756:10771   */\n      mstore\n        /* \"#utility.yul\":10790:10794   */\n      0x24\n        /* \"#utility.yul\":10787:10788   */\n      0x00\n        /* \"#utility.yul\":10780:10795   */\n      revert\n        /* \"#utility.yul\":10807:11127   */\n    tag_30:\n        /* \"#utility.yul\":10851:10857   */\n      0x00\n        /* \"#utility.yul\":10888:10889   */\n      0x02\n        /* \"#utility.yul\":10882:10886   */\n      dup3\n        /* \"#utility.yul\":10878:10890   */\n      div\n        /* \"#utility.yul\":10868:10890   */\n      swap1\n      pop\n        /* \"#utility.yul\":10935:10936   */\n      0x01\n        /* \"#utility.yul\":10929:10933   */\n      dup3\n        /* \"#utility.yul\":10925:10937   */\n      and\n        /* \"#utility.yul\":10956:10974   */\n      dup1\n        /* \"#utility.yul\":10946:11027   */\n      tag_214\n      jumpi\n        /* \"#utility.yul\":11012:11016   */\n      0x7f\n        /* \"#utility.yul\":11004:11010   */\n      dup3\n        /* \"#utility.yul\":11000:11017   */\n      and\n        /* \"#utility.yul\":10990:11017   */\n      swap2\n      pop\n        /* \"#utility.yul\":10946:11027   */\n    tag_214:\n        /* \"#utility.yul\":11074:11076   */\n      0x20\n        /* \"#utility.yul\":11066:11072   */\n      dup3\n        /* \"#utility.yul\":11063:11077   */\n      lt\n        /* \"#utility.yul\":11043:11061   */\n      dup2\n        /* \"#utility.yul\":11040:11078   */\n      sub\n        /* \"#utility.yul\":11037:11121   */\n      tag_215\n      jumpi\n        /* \"#utility.yul\":11093:11111   */\n      tag_216\n      tag_87\n      jump\t// in\n    tag_216:\n        /* \"#utility.yul\":11037:11121   */\n    tag_215:\n        /* \"#utility.yul\":10858:11127   */\n      pop\n        /* \"#utility.yul\":10807:11127   */\n      swap2\n      swap1\n      pop\n      jump\t// out\n        /* \"#utility.yul\":11133:11274   */\n    tag_88:\n        /* \"#utility.yul\":11182:11186   */\n      0x00\n        /* \"#utility.yul\":11205:11208   */\n      dup2\n        /* \"#utility.yul\":11197:11208   */\n      swap1\n      pop\n        /* \"#utility.yul\":11228:11231   */\n      dup2\n        /* \"#utility.yul\":11225:11226   */\n      0x00\n        /* \"#utility.yul\":11218:11232   */\n      mstore\n        /* \"#utility.yul\":11262:11266   */\n      0x20\n        /* \"#utility.yul\":11259:11260   */\n      0x00\n        /* \"#utility.yul\":11249:11267   */\n      keccak256\n        /* \"#utility.yul\":11241:11267   */\n      swap1\n      pop\n        /* \"#utility.yul\":11133:11274   */\n      swap2\n      swap1\n      pop\n      jump\t// out\n        /* \"#utility.yul\":11280:11373   */\n    tag_89:\n        /* \"#utility.yul\":11317:11323   */\n      0x00\n        /* \"#utility.yul\":11364:11366   */\n      0x20\n        /* \"#utility.yul\":11359:11361   */\n      0x1f\n        /* \"#utility.yul\":11352:11357   */\n      dup4\n        /* \"#utility.yul\":11348:11362   */\n      add\n        /* \"#utility.yul\":11344:11367   */\n      div\n        /* \"#utility.yul\":11334:11367   */\n      swap1\n      pop\n        /* \"#utility.yul\":11280:11373   */\n      swap2\n      swap1\n      pop\n      jump\t// out\n        /* \"#utility.yul\":11379:11486   */\n    tag_90:\n        /* \"#utility.yul\":11423:11431   */\n      0x00\n        /* \"#utility.yul\":11473:11478   */\n      dup3\n        /* \"#utility.yul\":11467:11471   */\n      dup3\n        /* \"#utility.yul\":11463:11479   */\n      shl\n        /* \"#utility.yul\":11442:11479   */\n      swap1\n      pop\n        /* \"#utility.yul\":11379:11486   */\n      swap3\n      swap2\n      pop\n      pop\n      jump\t// out\n        /* \"#utility.yul\":11492:11885   */\n    tag_91:\n        /* \"#utility.yul\":11561:11567   */\n      0x00\n        /* \"#utility.yul\":11611:11612   */\n      0x08\n        /* \"#utility.yul\":11599:11609   */\n      dup4\n        /* \"#utility.yul\":11595:11613   */\n      mul\n        /* \"#utility.yul\":11634:11731   */\n      tag_221\n        /* \"#utility.yul\":11664:11730   */\n      0xffffffffffffffffffffffffffffffffffffffffffffffffffffffffffffffff\n        /* \"#utility.yul\":11653:11662   */\n      dup3\n        /* \"#utility.yul\":11634:11731   */\n      tag_90\n      jump\t// in\n    tag_221:\n        /* \"#utility.yul\":11752:11791   */\n      tag_222\n        /* \"#utility.yul\":11782:11790   */\n      dup7\n        /* \"#utility.yul\":11771:11780   */\n      dup4\n        /* \"#utility.yul\":11752:11791   */\n      tag_90\n      jump\t// in\n    tag_222:\n        /* \"#utility.yul\":11740:11791   */\n      swap6\n      pop\n        /* \"#utility.yul\":11824:11828   */\n      dup1\n        /* \"#utility.yul\":11820:11829   */\n      not\n        /* \"#utility.yul\":11813:11818   */\n      dup5\n        /* \"#utility.yul\":11809:11830   */\n      and\n        /* \"#utility.yul\":11800:11830   */\n      swap4\n      pop\n        /* \"#utility.yul\":11873:11877   */\n      dup1\n        /* \"#utility.yul\":11863:11871   */\n      dup7\n        /* \"#utility.yul\":11859:11878   */\n      and\n        /* \"#utility.yul\":11852:11857   */\n      dup5\n        /* \"#utility.yul\":11849:11879   */\n      or\n        /* \"#utility.yul\":11839:11879   */\n      swap3\n      pop\n        /* \"#utility.yul\":11568:11885   */\n      pop\n      pop\n        /* \"#utility.yul\":11492:11885   */\n      swap4\n      swap3\n      pop\n      pop\n      pop\n      jump\t// out\n        /* \"#utility.yul\":11891:11951   */\n    tag_92:\n        /* \"#utility.yul\":11919:11922   */\n      0x00\n        /* \"#utility.yul\":11940:11945   */\n      dup2\n        /* \"#utility.yul\":11933:11945   */\n      swap1\n      pop\n        /* \"#utility.yul\":11891:11951   */\n      swap2\n      swap1\n      pop\n      jump\t// out\n        /* \"#utility.yul\":11957:12099   */\n    tag_93:\n        /* \"#utility.yul\":12007:12016   */\n      0x00\n        /* \"#utility.yul\":12040:12093   */\n      tag_225\n        /* \"#utility.yul\":12058:12092   */\n      tag_226\n        /* \"#utility.yul\":12067:12091   */\n      tag_227\n        /* \"#utility.yul\":12085:12090   */\n      dup5\n        /* \"#utility.yul\":12067:12091   */\n      tag_59\n      jump\t// in\n    tag_227:\n        /* \"#utility.yul\":12058:12092   */\n      tag_92\n      jump\t// in\n    tag_226:\n        /* \"#utility.yul\":12040:12093   */\n      tag_59\n      jump\t// in\n    tag_225:\n        /* \"#utility.yul\":12027:12093   */\n      swap1\n      pop\n        /* \"#utility.yul\":11957:12099   */\n      swap2\n      swap1\n      pop\n      jump\t// out\n        /* \"#utility.yul\":12105:12180   */\n    tag_94:\n        /* \"#utility.yul\":12148:12151   */\n      0x00\n        /* \"#utility.yul\":12169:12174   */\n      dup2\n        /* \"#utility.yul\":12162:12174   */\n      swap1\n      pop\n        /* \"#utility.yul\":12105:12180   */\n      swap2\n      swap1\n      pop\n      jump\t// out\n        /* \"#utility.yul\":12186:12455   */\n    tag_95:\n        /* \"#utility.yul\":12296:12335   */\n      tag_230\n        /* \"#utility.yul\":12327:12334   */\n      dup4\n        /* \"#utility.yul\":12296:12335   */\n      tag_93\n      jump\t// in\n    tag_230:\n        /* \"#utility.yul\":12357:12448   */\n      tag_231\n        /* \"#utility.yul\":12406:12447   */\n      tag_232\n        /* \"#utility.yul\":12430:12446   */\n      dup3\n        /* \"#utility.yul\":12406:12447   */\n      tag_94\n      jump\t// in\n    tag_232:\n        /* \"#utility.yul\":12398:12404   */\n      dup5\n        /* \"#utility.yul\":12391:12395   */\n      dup5\n        /* \"#utility.yul\":12385:12396   */\n      sload\n        /* \"#utility.yul\":12357:12448   */\n      tag_91\n      jump\t// in\n    tag_231:\n        /* \"#utility.yul\":12351:12355   */\n      dup3\n        /* \"#utility.yul\":12344:12449   */\n      sstore\n        /* \"#utility.yul\":12262:12455   */\n      pop\n        /* \"#utility.yul\":12186:12455   */\n      pop\n      pop\n      pop\n      jump\t// out\n        /* \"#utility.yul\":12461:12534   */\n    tag_96:\n        /* \"#utility.yul\":12506:12509   */\n      0x00\n        /* \"#utility.yul\":12461:12534   */\n      swap1\n      jump\t// out\n        /* \"#utility.yul\":12540:12729   */\n    tag_97:\n        /* \"#utility.yul\":12617:12649   */\n      tag_235\n      tag_96\n      jump\t// in\n    tag_235:\n        /* \"#utility.yul\":12658:12723   */\n      tag_236\n        /* \"#utility.yul\":12716:12722   */\n      dup2\n        /* \"#utility.yul\":12708:12714   */\n      dup5\n        /* \"#utility.yul\":12702:12706   */\n      dup5\n        /* \"#utility.yul\":12658:12723   */\n      tag_95\n      jump\t// in\n    tag_236:\n        /* \"#utility.yul\":12593:12729   */\n      pop\n        /* \"#utility.yul\":12540:12729   */\n      pop\n      pop\n      jump\t// out\n        /* \"#utility.yul\":12735:12921   */\n    tag_98:\n        /* \"#utility.yul\":12795:12915   */\n    tag_238:\n        /* \"#utility.yul\":12812:12815   */\n      dup2\n        /* \"#utility.yul\":12805:12810   */\n      dup2\n        /* \"#utility.yul\":12802:12816   */\n      lt\n        /* \"#utility.yul\":12795:12915   */\n      iszero\n      tag_240\n      jumpi\n        /* \"#utility.yul\":12866:12905   */\n      tag_241\n        /* \"#utility.yul\":12903:12904   */\n      0x00\n        /* \"#utility.yul\":12896:12901   */\n      dup3\n        /* \"#utility.yul\":12866:12905   */\n      tag_97\n      jump\t// in\n    tag_241:\n        /* \"#utility.yul\":12839:12840   */\n      0x01\n        /* \"#utility.yul\":12832:12837   */\n      dup2\n        /* \"#utility.yul\":12828:12841   */\n      add\n        /* \"#utility.yul\":12819:12841   */\n      swap1\n      pop\n        /* \"#utility.yul\":12795:12915   */\n      jump(tag_238)\n    tag_240:\n        /* \"#utility.yul\":12735:12921   */\n      pop\n      pop\n      jump\t// out\n        /* \"#utility.yul\":12927:13470   */\n    tag_99:\n        /* \"#utility.yul\":13028:13030   */\n      0x1f\n        /* \"#utility.yul\":13023:13026   */\n      dup3\n        /* \"#utility.yul\":13020:13031   */\n      gt\n        /* \"#utility.yul\":13017:13463   */\n      iszero\n      tag_243\n      jumpi\n        /* \"#utility.yul\":13062:13100   */\n      tag_244\n        /* \"#utility.yul\":13094:13099   */\n      dup2\n        /* \"#utility.yul\":13062:13100   */\n      tag_88\n      jump\t// in\n    tag_244:\n        /* \"#utility.yul\":13146:13175   */\n      tag_245\n        /* \"#utility.yul\":13164:13174   */\n      dup5\n        /* \"#utility.yul\":13146:13175   */\n      tag_89\n      jump\t// in\n    tag_245:\n        /* \"#utility.yul\":13136:13144   */\n      dup2\n        /* \"#utility.yul\":13132:13176   */\n      add\n        /* \"#utility.yul\":13329:13331   */\n      0x20\n        /* \"#utility.yul\":13317:13327   */\n      dup6\n        /* \"#utility.yul\":13314:13332   */\n      lt\n        /* \"#utility.yul\":13311:13360   */\n      iszero\n      tag_246\n      jumpi\n        /* \"#utility.yul\":13350:13358   */\n      dup2\n        /* \"#utility.yul\":13335:13358   */\n      swap1\n      pop\n        /* \"#utility.yul\":13311:13360   */\n    tag_246:\n        /* \"#utility.yul\":13373:13453   */\n      tag_247\n        /* \"#utility.yul\":13429:13451   */\n      tag_248\n        /* \"#utility.yul\":13447:13450   */\n      dup6\n        /* \"#utility.yul\":13429:13451   */\n      tag_89\n      jump\t// in\n    tag_248:\n        /* \"#utility.yul\":13419:13427   */\n      dup4\n        /* \"#utility.yul\":13415:13452   */\n      add\n        /* \"#utility.yul\":13402:13413   */\n      dup3\n        /* \"#utility.yul\":13373:13453   */\n      tag_98\n      jump\t// in\n    tag_247:\n        /* \"#utility.yul\":13032:13463   */\n      pop\n      pop\n        /* \"#utility.yul\":13017:13463   */\n    tag_243:\n        /* \"#utility.yul\":12927:13470   */\n      pop\n      pop\n      pop\n      jump\t// out\n        /* \"#utility.yul\":13476:13593   */\n    tag_100:\n        /* \"#utility.yul\":13530:13538   */\n      0x00\n        /* \"#utility.yul\":13580:13585   */\n      dup3\n        /* \"#utility.yul\":13574:13578   */\n      dup3\n        /* \"#utility.yul\":13570:13586   */\n      shr\n        /* \"#utility.yul\":13549:13586   */\n      swap1\n      pop\n        /* \"#utility.yul\":13476:13593   */\n      swap3\n      swap2\n      pop\n      pop\n      jump\t// out\n        /* \"#utility.yul\":13599:13768   */\n    tag_101:\n        /* \"#utility.yul\":13643:13649   */\n      0x00\n        /* \"#utility.yul\":13676:13727   */\n      tag_251\n        /* \"#utility.yul\":13724:13725   */\n      0x00\n        /* \"#utility.yul\":13720:13726   */\n      not\n        /* \"#utility.yul\":13712:13717   */\n      dup5\n        /* \"#utility.yul\":13709:13710   */\n      0x08\n        /* \"#utility.yul\":13705:13718   */\n      mul\n        /* \"#utility.yul\":13676:13727   */\n      tag_100\n      jump\t// in\n    tag_251:\n        /* \"#utility.yul\":13672:13728   */\n      not\n        /* \"#utility.yul\":13757:13761   */\n      dup1\n        /* \"#utility.yul\":13751:13755   */\n      dup4\n        /* \"#utility.yul\":13747:13762   */\n      and\n        /* \"#utility.yul\":13737:13762   */\n      swap2\n      pop\n        /* \"#utility.yul\":13650:13768   */\n      pop\n        /* \"#utility.yul\":13599:13768   */\n      swap3\n      swap2\n      pop\n      pop\n      jump\t// out\n        /* \"#utility.yul\":13773:14068   */\n    tag_102:\n        /* \"#utility.yul\":13849:13853   */\n      0x00\n        /* \"#utility.yul\":13995:14024   */\n      tag_253\n        /* \"#utility.yul\":14020:14023   */\n      dup4\n        /* \"#utility.yul\":14014:14018   */\n      dup4\n        /* \"#utility.yul\":13995:14024   */\n      tag_101\n      jump\t// in\n    tag_253:\n        /* \"#utility.yul\":13987:14024   */\n      swap2\n      pop\n        /* \"#utility.yul\":14057:14060   */\n      dup3\n        /* \"#utility.yul\":14054:14055   */\n      0x02\n        /* \"#utility.yul\":14050:14061   */\n      mul\n        /* \"#utility.yul\":14044:14048   */\n      dup3\n        /* \"#utility.yul\":14041:14062   */\n      or\n        /* \"#utility.yul\":14033:14062   */\n      swap1\n      pop\n        /* \"#utility.yul\":13773:14068   */\n      swap3\n      swap2\n      pop\n      pop\n      jump\t// out\n        /* \"#utility.yul\":14073:15468   */\n    tag_26:\n        /* \"#utility.yul\":14190:14227   */\n      tag_255\n        /* \"#utility.yul\":14223:14226   */\n      dup3\n        /* \"#utility.yul\":14190:14227   */\n      tag_73\n      jump\t// in\n    tag_255:\n        /* \"#utility.yul\":14292:14310   */\n      0xffffffffffffffff\n        /* \"#utility.yul\":14284:14290   */\n      dup2\n        /* \"#utility.yul\":14281:14311   */\n      gt\n        /* \"#utility.yul\":14278:14334   */\n      iszero\n      tag_256\n      jumpi\n        /* \"#utility.yul\":14314:14332   */\n      tag_257\n      tag_65\n      jump\t// in\n    tag_257:\n        /* \"#utility.yul\":14278:14334   */\n    tag_256:\n        /* \"#utility.yul\":14358:14396   */\n      tag_258\n        /* \"#utility.yul\":14390:14394   */\n      dup3\n        /* \"#utility.yul\":14384:14395   */\n      sload\n        /* \"#utility.yul\":14358:14396   */\n      tag_30\n      jump\t// in\n    tag_258:\n        /* \"#utility.yul\":14443:14510   */\n      tag_259\n        /* \"#utility.yul\":14503:14509   */\n      dup3\n        /* \"#utility.yul\":14495:14501   */\n      dup3\n        /* \"#utility.yul\":14489:14493   */\n      dup6\n        /* \"#utility.yul\":14443:14510   */\n      tag_99\n      jump\t// in\n    tag_259:\n        /* \"#utility.yul\":14537:14538   */\n      0x00\n        /* \"#utility.yul\":14561:14565   */\n      0x20\n        /* \"#utility.yul\":14548:14565   */\n      swap1\n      pop\n        /* \"#utility.yul\":14593:14595   */\n      0x1f\n        /* \"#utility.yul\":14585:14591   */\n      dup4\n        /* \"#utility.yul\":14582:14596   */\n      gt\n        /* \"#utility.yul\":14610:14611   */\n      0x01\n        /* \"#utility.yul\":14605:15223   */\n      dup2\n      eq\n      tag_261\n      jumpi\n        /* \"#utility.yul\":15267:15268   */\n      0x00\n        /* \"#utility.yul\":15284:15290   */\n      dup5\n        /* \"#utility.yul\":15281:15358   */\n      iszero\n      tag_262\n      jumpi\n        /* \"#utility.yul\":15333:15342   */\n      dup3\n        /* \"#utility.yul\":15328:15331   */\n      dup8\n        /* \"#utility.yul\":15324:15343   */\n      add\n        /* \"#utility.yul\":15318:15344   */\n      mload\n        /* \"#utility.yul\":15309:15344   */\n      swap1\n      pop\n        /* \"#utility.yul\":15281:15358   */\n    tag_262:\n        /* \"#utility.yul\":15384:15451   */\n      tag_263\n        /* \"#utility.yul\":15444:15450   */\n      dup6\n        /* \"#utility.yul\":15437:15442   */\n      dup3\n        /* \"#utility.yul\":15384:15451   */\n      tag_102\n      jump\t// in\n    tag_263:\n        /* \"#utility.yul\":15378:15382   */\n      dup7\n        /* \"#utility.yul\":15371:15452   */\n      sstore\n        /* \"#utility.yul\":15240:15462   */\n      pop\n        /* \"#utility.yul\":14575:15462   */\n      jump(tag_260)\n        /* \"#utility.yul\":14605:15223   */\n    tag_261:\n        /* \"#utility.yul\":14657:14661   */\n      0x1f\n        /* \"#utility.yul\":14653:14662   */\n      not\n        /* \"#utility.yul\":14645:14651   */\n      dup5\n        /* \"#utility.yul\":14641:14663   */\n      and\n        /* \"#utility.yul\":14691:14728   */\n      tag_264\n        /* \"#utility.yul\":14723:14727   */\n      dup7\n        /* \"#utility.yul\":14691:14728   */\n      tag_88\n      jump\t// in\n    tag_264:\n        /* \"#utility.yul\":14750:14751   */\n      0x00\n        /* \"#utility.yul\":14764:14972   */\n    tag_265:\n        /* \"#utility.yul\":14778:14785   */\n      dup3\n        /* \"#utility.yul\":14775:14776   */\n      dup2\n        /* \"#utility.yul\":14772:14786   */\n      lt\n        /* \"#utility.yul\":14764:14972   */\n      iszero\n      tag_267\n      jumpi\n        /* \"#utility.yul\":14857:14866   */\n      dup5\n        /* \"#utility.yul\":14852:14855   */\n      dup10\n        /* \"#utility.yul\":14848:14867   */\n      add\n        /* \"#utility.yul\":14842:14868   */\n      mload\n        /* \"#utility.yul\":14834:14840   */\n      dup3\n        /* \"#utility.yul\":14827:14869   */\n      sstore\n        /* \"#utility.yul\":14908:14909   */\n      0x01\n        /* \"#utility.yul\":14900:14906   */\n      dup3\n        /* \"#utility.yul\":14896:14910   */\n      add\n        /* \"#utility.yul\":14886:14910   */\n      swap2\n      pop\n        /* \"#utility.yul\":14955:14957   */\n      0x20\n        /* \"#utility.yul\":14944:14953   */\n      dup6\n        /* \"#utility.yul\":14940:14958   */\n      add\n        /* \"#utility.yul\":14927:14958   */\n      swap5\n      pop\n        /* \"#utility.yul\":14801:14805   */\n      0x20\n        /* \"#utility.yul\":14798:14799   */\n      dup2\n        /* \"#utility.yul\":14794:14806   */\n      add\n        /* \"#utility.yul\":14789:14806   */\n      swap1\n      pop\n        /* \"#utility.yul\":14764:14972   */\n      jump(tag_265)\n    tag_267:\n        /* \"#utility.yul\":15000:15006   */\n      dup7\n        /* \"#utility.yul\":14991:14998   */\n      dup4\n        /* \"#utility.yul\":14988:15007   */\n      lt\n        /* \"#utility.yul\":14985:15164   */\n      iszero\n      tag_268\n      jumpi\n        /* \"#utility.yul\":15058:15067   */\n      dup5\n        /* \"#utility.yul\":15053:15056   */\n      dup10\n        /* \"#utility.yul\":15049:15068   */\n      add\n        /* \"#utility.yul\":15043:15069   */\n      mload\n        /* \"#utility.yul\":15101:15149   */\n      tag_269\n        /* \"#utility.yul\":15143:15147   */\n      0x1f\n        /* \"#utility.yul\":15135:15141   */\n      dup10\n        /* \"#utility.yul\":15131:15148   */\n      and\n        /* \"#utility.yul\":15120:15129   */\n      dup3\n        /* \"#utility.yul\":15101:15149   */\n      tag_101\n      jump\t// in\n    tag_269:\n        /* \"#utility.yul\":15093:15099   */\n      dup4\n        /* \"#utility.yul\":15086:15150   */\n      sstore\n        /* \"#utility.yul\":15008:15164   */\n      pop\n        /* \"#utility.yul\":14985:15164   */\n    tag_268:\n        /* \"#utility.yul\":15210:15211   */\n      0x01\n        /* \"#utility.yul\":15206:15207   */\n      0x02\n        /* \"#utility.yul\":15198:15204   */\n      dup9\n        /* \"#utility.yul\":15194:15208   */\n      mul\n        /* \"#utility.yul\":15190:15212   */\n      add\n        /* \"#utility.yul\":15184:15188   */\n      dup9\n        /* \"#utility.yul\":15177:15213   */\n      sstore\n        /* \"#utility.yul\":14612:15223   */\n      pop\n      pop\n      pop\n        /* \"#utility.yul\":14575:15462   */\n    tag_260:\n      pop\n        /* \"#utility.yul\":14165:15468   */\n      pop\n      pop\n      pop\n        /* \"#utility.yul\":14073:15468   */\n      pop\n      pop\n      jump\t// out\n        /* \"#utility.yul\":15498:16329   */\n    tag_103:\n        /* \"#utility.yul\":15583:15586   */\n      0x00\n        /* \"#utility.yul\":15620:15625   */\n      dup2\n        /* \"#utility.yul\":15614:15626   */\n      sload\n        /* \"#utility.yul\":15649:15685   */\n      tag_271\n        /* \"#utility.yul\":15675:15684   */\n      dup2\n        /* \"#utility.yul\":15649:15685   */\n      tag_30\n      jump\t// in\n    tag_271:\n        /* \"#utility.yul\":15701:15772   */\n      tag_272\n        /* \"#utility.yul\":15765:15771   */\n      dup2\n        /* \"#utility.yul\":15760:15763   */\n      dup7\n        /* \"#utility.yul\":15701:15772   */\n      tag_74\n      jump\t// in\n    tag_272:\n        /* \"#utility.yul\":15694:15772   */\n      swap5\n      pop\n        /* \"#utility.yul\":15803:15804   */\n      0x01\n        /* \"#utility.yul\":15792:15801   */\n      dup3\n        /* \"#utility.yul\":15788:15805   */\n      and\n        /* \"#utility.yul\":15819:15820   */\n      0x00\n        /* \"#utility.yul\":15814:15978   */\n      dup2\n      eq\n      tag_274\n      jumpi\n        /* \"#utility.yul\":15992:15993   */\n      0x01\n        /* \"#utility.yul\":15987:16323   */\n      dup2\n      eq\n      tag_275\n      jumpi\n        /* \"#utility.yul\":15781:16323   */\n      jump(tag_273)\n        /* \"#utility.yul\":15814:15978   */\n    tag_274:\n        /* \"#utility.yul\":15898:15902   */\n      0xff\n        /* \"#utility.yul\":15894:15903   */\n      not\n        /* \"#utility.yul\":15883:15892   */\n      dup4\n        /* \"#utility.yul\":15879:15904   */\n      and\n        /* \"#utility.yul\":15874:15877   */\n      dup7\n        /* \"#utility.yul\":15867:15905   */\n      mstore\n        /* \"#utility.yul\":15958:15964   */\n      dup2\n        /* \"#utility.yul\":15951:15965   */\n      iszero\n        /* \"#utility.yul\":15944:15966   */\n      iszero\n        /* \"#utility.yul\":15938:15942   */\n      0x20\n        /* \"#utility.yul\":15934:15967   */\n      mul\n        /* \"#utility.yul\":15929:15932   */\n      dup7\n        /* \"#utility.yul\":15925:15968   */\n      add\n        /* \"#utility.yul\":15918:15968   */\n      swap4\n      pop\n        /* \"#utility.yul\":15814:15978   */\n      jump(tag_273)\n        /* \"#utility.yul\":15987:16323   */\n    tag_275:\n        /* \"#utility.yul\":16054:16092   */\n      tag_276\n        /* \"#utility.yul\":16086:16091   */\n      dup6\n        /* \"#utility.yul\":16054:16092   */\n      tag_88\n      jump\t// in\n    tag_276:\n        /* \"#utility.yul\":16114:16115   */\n      0x00\n        /* \"#utility.yul\":16128:16282   */\n    tag_277:\n        /* \"#utility.yul\":16142:16148   */\n      dup4\n        /* \"#utility.yul\":16139:16140   */\n      dup2\n        /* \"#utility.yul\":16136:16149   */\n      lt\n        /* \"#utility.yul\":16128:16282   */\n      iszero\n      tag_279\n      jumpi\n        /* \"#utility.yul\":16216:16223   */\n      dup2\n        /* \"#utility.yul\":16210:16224   */\n      sload\n        /* \"#utility.yul\":16206:16207   */\n      dup2\n        /* \"#utility.yul\":16201:16204   */\n      dup10\n        /* \"#utility.yul\":16197:16208   */\n      add\n        /* \"#utility.yul\":16190:16225   */\n      mstore\n        /* \"#utility.yul\":16266:16267   */\n      0x01\n        /* \"#utility.yul\":16257:16264   */\n      dup3\n        /* \"#utility.yul\":16253:16268   */\n      add\n        /* \"#utility.yul\":16242:16268   */\n      swap2\n      pop\n        /* \"#utility.yul\":16164:16168   */\n      0x20\n        /* \"#utility.yul\":16161:16162   */\n      dup2\n        /* \"#utility.yul\":16157:16169   */\n      add\n        /* \"#utility.yul\":16152:16169   */\n      swap1\n      pop\n        /* \"#utility.yul\":16128:16282   */\n      jump(tag_277)\n    tag_279:\n        /* \"#utility.yul\":16311:16312   */\n      dup1\n        /* \"#utility.yul\":16306:16309   */\n      dup9\n        /* \"#utility.yul\":16302:16313   */\n      add\n        /* \"#utility.yul\":16295:16313   */\n      swap6\n      pop\n        /* \"#utility.yul\":15994:16323   */\n      pop\n      pop\n        /* \"#utility.yul\":15781:16323   */\n    tag_273:\n      pop\n        /* \"#utility.yul\":15587:16329   */\n      pop\n      pop\n        /* \"#utility.yul\":15498:16329   */\n      swap3\n      swap2\n      pop\n      pop\n      jump\t// out\n        /* \"#utility.yul\":16335:16444   */\n    tag_104:\n        /* \"#utility.yul\":16416:16437   */\n      tag_281\n        /* \"#utility.yul\":16431:16436   */\n      dup2\n        /* \"#utility.yul\":16416:16437   */\n      tag_80\n      jump\t// in\n    tag_281:\n        /* \"#utility.yul\":16411:16414   */\n      dup3\n        /* \"#utility.yul\":16404:16438   */\n      mstore\n        /* \"#utility.yul\":16335:16444   */\n      pop\n      pop\n      jump\t// out\n        /* \"#utility.yul\":16450:17272   */\n    tag_28:\n        /* \"#utility.yul\":16683:16687   */\n      0x00\n        /* \"#utility.yul\":16721:16724   */\n      0xa0\n        /* \"#utility.yul\":16710:16719   */\n      dup3\n        /* \"#utility.yul\":16706:16725   */\n      add\n        /* \"#utility.yul\":16698:16725   */\n      swap1\n      pop\n        /* \"#utility.yul\":16771:16780   */\n      dup2\n        /* \"#utility.yul\":16765:16769   */\n      dup2\n        /* \"#utility.yul\":16761:16781   */\n      sub\n        /* \"#utility.yul\":16757:16758   */\n      0x00\n        /* \"#utility.yul\":16746:16755   */\n      dup4\n        /* \"#utility.yul\":16742:16759   */\n      add\n        /* \"#utility.yul\":16735:16782   */\n      mstore\n        /* \"#utility.yul\":16799:16874   */\n      tag_283\n        /* \"#utility.yul\":16869:16873   */\n      dup2\n        /* \"#utility.yul\":16860:16866   */\n      dup9\n        /* \"#utility.yul\":16799:16874   */\n      tag_103\n      jump\t// in\n    tag_283:\n        /* \"#utility.yul\":16791:16874   */\n      swap1\n      pop\n        /* \"#utility.yul\":16921:16930   */\n      dup2\n        /* \"#utility.yul\":16915:16919   */\n      dup2\n        /* \"#utility.yul\":16911:16931   */\n      sub\n        /* \"#utility.yul\":16906:16908   */\n      0x20\n        /* \"#utility.yul\":16895:16904   */\n      dup4\n        /* \"#utility.yul\":16891:16909   */\n      add\n        /* \"#utility.yul\":16884:16932   */\n      mstore\n        /* \"#utility.yul\":16949:17024   */\n      tag_284\n        /* \"#utility.yul\":17019:17023   */\n      dup2\n        /* \"#utility.yul\":17010:17016   */\n      dup8\n        /* \"#utility.yul\":16949:17024   */\n      tag_103\n      jump\t// in\n    tag_284:\n        /* \"#utility.yul\":16941:17024   */\n      swap1\n      pop\n        /* \"#utility.yul\":17034:17106   */\n      tag_285\n        /* \"#utility.yul\":17102:17104   */\n      0x40\n        /* \"#utility.yul\":17091:17100   */\n      dup4\n        /* \"#utility.yul\":17087:17105   */\n      add\n        /* \"#utility.yul\":17078:17084   */\n      dup7\n        /* \"#utility.yul\":17034:17106   */\n      tag_72\n      jump\t// in\n    tag_285:\n        /* \"#utility.yul\":17116:17188   */\n      tag_286\n        /* \"#utility.yul\":17184:17186   */\n      0x60\n        /* \"#utility.yul\":17173:17182   */\n      dup4\n        /* \"#utility.yul\":17169:17187   */\n      add\n        /* \"#utility.yul\":17160:17166   */\n      dup6\n        /* \"#utility.yul\":17116:17188   */\n      tag_72\n      jump\t// in\n    tag_286:\n        /* \"#utility.yul\":17198:17265   */\n      tag_287\n        /* \"#utility.yul\":17260:17263   */\n      0x80\n        /* \"#utility.yul\":17249:17258   */\n      dup4\n        /* \"#utility.yul\":17245:17264   */\n      add\n        /* \"#utility.yul\":17236:17242   */\n      dup5\n        /* \"#utility.yul\":17198:17265   */\n      tag_104\n      jump\t// in\n    tag_287:\n        /* \"#utility.yul\":16450:17272   */\n      swap7\n      swap6\n      pop\n      pop\n      pop\n      pop\n      pop\n      pop\n      jump\t// out\n        /* \"#utility.yul\":17278:17450   */\n    tag_105:\n        /* \"#utility.yul\":17418:17442   */\n      0x50726f6475637420616c72656164792065786973747300000000000000000000\n        /* \"#utility.yul\":17414:17415   */\n      0x00\n        /* \"#utility.yul\":17406:17412   */\n      dup3\n        /* \"#utility.yul\":17402:17416   */\n      add\n        /* \"#utility.yul\":17395:17443   */\n      mstore\n        /* \"#utility.yul\":17278:17450   */\n      pop\n      jump\t// out\n        /* \"#utility.yul\":17456:17822   */\n    tag_106:\n        /* \"#utility.yul\":17598:17601   */\n      0x00\n        /* \"#utility.yul\":17619:17686   */\n      tag_290\n        /* \"#utility.yul\":17683:17685   */\n      0x16\n        /* \"#utility.yul\":17678:17681   */\n      dup4\n        /* \"#utility.yul\":17619:17686   */\n      tag_74\n      jump\t// in\n    tag_290:\n        /* \"#utility.yul\":17612:17686   */\n      swap2\n      pop\n        /* \"#utility.yul\":17695:17788   */\n      tag_291\n        /* \"#utility.yul\":17784:17787   */\n      dup3\n        /* \"#utility.yul\":17695:17788   */\n      tag_105\n      jump\t// in\n    tag_291:\n        /* \"#utility.yul\":17813:17815   */\n      0x20\n        /* \"#utility.yul\":17808:17811   */\n      dup3\n        /* \"#utility.yul\":17804:17816   */\n      add\n        /* \"#utility.yul\":17797:17816   */\n      swap1\n      pop\n        /* \"#utility.yul\":17456:17822   */\n      swap2\n      swap1\n      pop\n      jump\t// out\n        /* \"#utility.yul\":17828:18247   */\n    tag_48:\n        /* \"#utility.yul\":17994:17998   */\n      0x00\n        /* \"#utility.yul\":18032:18034   */\n      0x20\n        /* \"#utility.yul\":18021:18030   */\n      dup3\n        /* \"#utility.yul\":18017:18035   */\n      add\n        /* \"#utility.yul\":18009:18035   */\n      swap1\n      pop\n        /* \"#utility.yul\":18081:18090   */\n      dup2\n        /* \"#utility.yul\":18075:18079   */\n      dup2\n        /* \"#utility.yul\":18071:18091   */\n      sub\n        /* \"#utility.yul\":18067:18068   */\n      0x00\n        /* \"#utility.yul\":18056:18065   */\n      dup4\n        /* \"#utility.yul\":18052:18069   */\n      add\n        /* \"#utility.yul\":18045:18092   */\n      mstore\n        /* \"#utility.yul\":18109:18240   */\n      tag_293\n        /* \"#utility.yul\":18235:18239   */\n      dup2\n        /* \"#utility.yul\":18109:18240   */\n      tag_106\n      jump\t// in\n    tag_293:\n        /* \"#utility.yul\":18101:18240   */\n      swap1\n      pop\n        /* \"#utility.yul\":17828:18247   */\n      swap2\n      swap1\n      pop\n      jump\t// out\n        /* \"#utility.yul\":18253:18676   */\n    tag_55:\n        /* \"#utility.yul\":18394:18398   */\n      0x00\n        /* \"#utility.yul\":18432:18434   */\n      0x40\n        /* \"#utility.yul\":18421:18430   */\n      dup3\n        /* \"#utility.yul\":18417:18435   */\n      add\n        /* \"#utility.yul\":18409:18435   */\n      swap1\n      pop\n        /* \"#utility.yul\":18481:18490   */\n      dup2\n        /* \"#utility.yul\":18475:18479   */\n      dup2\n        /* \"#utility.yul\":18471:18491   */\n      sub\n        /* \"#utility.yul\":18467:18468   */\n      0x00\n        /* \"#utility.yul\":18456:18465   */\n      dup4\n        /* \"#utility.yul\":18452:18469   */\n      add\n        /* \"#utility.yul\":18445:18492   */\n      mstore\n        /* \"#utility.yul\":18509:18587   */\n      tag_295\n        /* \"#utility.yul\":18582:18586   */\n      dup2\n        /* \"#utility.yul\":18573:18579   */\n      dup6\n        /* \"#utility.yul\":18509:18587   */\n      tag_76\n      jump\t// in\n    tag_295:\n        /* \"#utility.yul\":18501:18587   */\n      swap1\n      pop\n        /* \"#utility.yul\":18597:18669   */\n      tag_296\n        /* \"#utility.yul\":18665:18667   */\n      0x20\n        /* \"#utility.yul\":18654:18663   */\n      dup4\n        /* \"#utility.yul\":18650:18668   */\n      add\n        /* \"#utility.yul\":18641:18647   */\n      dup5\n        /* \"#utility.yul\":18597:18669   */\n      tag_72\n      jump\t// in\n    tag_296:\n        /* \"#utility.yul\":18253:18676   */\n      swap4\n      swap3\n      pop\n      pop\n      pop\n      jump\t// out\n\n    auxdata: 0xa26469706673582212207ba6173cb207bf6863f10e0dd40a90727f9a216ee39d4eb83e5eec3e7ef4013064736f6c634300081a0033\n}\n",
				"bytecode": {
					"linkReferences": {},
					"object": "6080604052348015600e575f80fd5b50610f808061001c5f395ff3fe608060405234801561000f575f80fd5b506004361061003f575f3560e01c806321120f9a146100435780637acc0b201461005f578063c2be7c0914610092575b5f80fd5b61005d6004803603810190610058919061075c565b6100ae565b005b610079600480360381019061007491906107b6565b6101ff565b604051610089949392919061094e565b60405180910390f35b6100ac60048036038101906100a791906109c9565b610422565b005b81805f808381526020019081526020015f205f015403610103576040517f08c379a00000000000000000000000000000000000000000000000000000000081526004016100fa90610ade565b60405180910390fd5b815f808581526020019081526020015f206003015f0190816101259190610cf6565b50425f808581526020019081526020015f206003016002018190555060015f808581526020019081526020015f206003016003015f6101000a81548160ff0219169083151502179055507ff295c689d401ce1625e9bd2adba7641f92cc231677989c7fe706354cb643e7985f808581526020019081526020015f206003015f015f808681526020019081526020015f2060030160010142865f808981526020019081526020015f2060030160030160019054906101000a900460ff166040516101f2959493929190610e55565b60405180910390a1505050565b5f602052805f5260405f205f91509050805f01549080600101805461022390610b29565b80601f016020809104026020016040519081016040528092919081815260200182805461024f90610b29565b801561029a5780601f106102715761010080835404028352916020019161029a565b820191905f5260205f20905b81548152906001019060200180831161027d57829003601f168201915b505050505090806002015490806003016040518060c00160405290815f820180546102c490610b29565b80601f01602080910402602001604051908101604052809291908181526020018280546102f090610b29565b801561033b5780601f106103125761010080835404028352916020019161033b565b820191905f5260205f20905b81548152906001019060200180831161031e57829003601f168201915b5050505050815260200160018201805461035490610b29565b80601f016020809104026020016040519081016040528092919081815260200182805461038090610b29565b80156103cb5780601f106103a2576101008083540402835291602001916103cb565b820191905f5260205f20905b8154815290600101906020018083116103ae57829003601f168201915b5050505050815260200160028201548152602001600382015f9054906101000a900460ff161515151581526020016003820160019054906101000a900460ff16151515158152602001600482015481525050905084565b5f4290505f805f8381526020019081526020015f205f01541461047a576040517f08c379a000000000000000000000000000000000000000000000000000000000815260040161047190610efe565b60405180910390fd5b60405180608001604052808281526020018781526020018681526020016040518060c00160405280878152602001868152602001856104b9575f6104bb565b425b815260200185151581526020015f151581526020015f8152508152505f808381526020019081526020015f205f820151815f015560208201518160010190816105049190610cf6565b50604082015181600201556060820151816003015f820151815f01908161052b9190610cf6565b5060208201518160010190816105419190610cf6565b50604082015181600201556060820151816003015f6101000a81548160ff02191690831515021790555060808201518160030160016101000a81548160ff02191690831515021790555060a082015181600401555050905050807f92e3e4e5b7088b1311430db271802c16f3cfe934879e5dc4453cbd987f16b09e87876040516105cc929190610f1c565b60405180910390a2505050505050565b5f604051905090565b5f80fd5b5f80fd5b5f819050919050565b6105ff816105ed565b8114610609575f80fd5b50565b5f8135905061061a816105f6565b92915050565b5f80fd5b5f80fd5b5f601f19601f8301169050919050565b7f4e487b71000000000000000000000000000000000000000000000000000000005f52604160045260245ffd5b61066e82610628565b810181811067ffffffffffffffff8211171561068d5761068c610638565b5b80604052505050565b5f61069f6105dc565b90506106ab8282610665565b919050565b5f67ffffffffffffffff8211156106ca576106c9610638565b5b6106d382610628565b9050602081019050919050565b828183375f83830152505050565b5f6107006106fb846106b0565b610696565b90508281526020810184848401111561071c5761071b610624565b5b6107278482856106e0565b509392505050565b5f82601f83011261074357610742610620565b5b81356107538482602086016106ee565b91505092915050565b5f8060408385031215610772576107716105e5565b5b5f61077f8582860161060c565b925050602083013567ffffffffffffffff8111156107a05761079f6105e9565b5b6107ac8582860161072f565b9150509250929050565b5f602082840312156107cb576107ca6105e5565b5b5f6107d88482850161060c565b91505092915050565b6107ea816105ed565b82525050565b5f81519050919050565b5f82825260208201905092915050565b8281835e5f83830152505050565b5f610822826107f0565b61082c81856107fa565b935061083c81856020860161080a565b61084581610628565b840191505092915050565b5f82825260208201905092915050565b5f61086a826107f0565b6108748185610850565b935061088481856020860161080a565b61088d81610628565b840191505092915050565b6108a1816105ed565b82525050565b5f8115159050919050565b6108bb816108a7565b82525050565b5f60c083015f8301518482035f8601526108db8282610860565b915050602083015184820360208601526108f58282610860565b915050604083015161090a6040860182610898565b50606083015161091d60608601826108b2565b50608083015161093060808601826108b2565b5060a083015161094360a0860182610898565b508091505092915050565b5f6080820190506109615f8301876107e1565b81810360208301526109738186610818565b905061098260408301856107e1565b818103606083015261099481846108c1565b905095945050505050565b6109a8816108a7565b81146109b2575f80fd5b50565b5f813590506109c38161099f565b92915050565b5f805f805f60a086880312156109e2576109e16105e5565b5b5f86013567ffffffffffffffff8111156109ff576109fe6105e9565b5b610a0b8882890161072f565b9550506020610a1c8882890161060c565b945050604086013567ffffffffffffffff811115610a3d57610a3c6105e9565b5b610a498882890161072f565b935050606086013567ffffffffffffffff811115610a6a57610a696105e9565b5b610a768882890161072f565b9250506080610a87888289016109b5565b9150509295509295909350565b7f50726f6475637420646f6573206e6f74206578697374000000000000000000005f82015250565b5f610ac86016836107fa565b9150610ad382610a94565b602082019050919050565b5f6020820190508181035f830152610af581610abc565b9050919050565b7f4e487b71000000000000000000000000000000000000000000000000000000005f52602260045260245ffd5b5f6002820490506001821680610b4057607f821691505b602082108103610b5357610b52610afc565b5b50919050565b5f819050815f5260205f209050919050565b5f6020601f8301049050919050565b5f82821b905092915050565b5f60088302610bb57fffffffffffffffffffffffffffffffffffffffffffffffffffffffffffffffff82610b7a565b610bbf8683610b7a565b95508019841693508086168417925050509392505050565b5f819050919050565b5f610bfa610bf5610bf0846105ed565b610bd7565b6105ed565b9050919050565b5f819050919050565b610c1383610be0565b610c27610c1f82610c01565b848454610b86565b825550505050565b5f90565b610c3b610c2f565b610c46818484610c0a565b505050565b5b81811015610c6957610c5e5f82610c33565b600181019050610c4c565b5050565b601f821115610cae57610c7f81610b59565b610c8884610b6b565b81016020851015610c97578190505b610cab610ca385610b6b565b830182610c4b565b50505b505050565b5f82821c905092915050565b5f610cce5f1984600802610cb3565b1980831691505092915050565b5f610ce68383610cbf565b9150826002028217905092915050565b610cff826107f0565b67ffffffffffffffff811115610d1857610d17610638565b5b610d228254610b29565b610d2d828285610c6d565b5f60209050601f831160018114610d5e575f8415610d4c578287015190505b610d568582610cdb565b865550610dbd565b601f198416610d6c86610b59565b5f5b82811015610d9357848901518255600182019150602085019450602081019050610d6e565b86831015610db05784890151610dac601f891682610cbf565b8355505b6001600288020188555050505b505050505050565b5f8154610dd181610b29565b610ddb81866107fa565b9450600182165f8114610df55760018114610e0b57610e3d565b60ff198316865281151560200286019350610e3d565b610e1485610b59565b5f5b83811015610e3557815481890152600182019150602081019050610e16565b808801955050505b50505092915050565b610e4f816108a7565b82525050565b5f60a0820190508181035f830152610e6d8188610dc5565b90508181036020830152610e818187610dc5565b9050610e9060408301866107e1565b610e9d60608301856107e1565b610eaa6080830184610e46565b9695505050505050565b7f50726f6475637420616c726561647920657869737473000000000000000000005f82015250565b5f610ee86016836107fa565b9150610ef382610eb4565b602082019050919050565b5f6020820190508181035f830152610f1581610edc565b9050919050565b5f6040820190508181035f830152610f348185610818565b9050610f4360208301846107e1565b939250505056fea26469706673582212207ba6173cb207bf6863f10e0dd40a90727f9a216ee39d4eb83e5eec3e7ef4013064736f6c634300081a0033",
					"opcodes": "PUSH1 0x80 PUSH1 0x40 MSTORE CALLVALUE DUP1 ISZERO PUSH1 0xE JUMPI PUSH0 DUP1 REVERT JUMPDEST POP PUSH2 0xF80 DUP1 PUSH2 0x1C PUSH0 CODECOPY PUSH0 RETURN INVALID PUSH1 0x80 PUSH1 0x40 MSTORE CALLVALUE DUP1 ISZERO PUSH2 0xF JUMPI PUSH0 DUP1 REVERT JUMPDEST POP PUSH1 0x4 CALLDATASIZE LT PUSH2 0x3F JUMPI PUSH0 CALLDATALOAD PUSH1 0xE0 SHR DUP1 PUSH4 0x21120F9A EQ PUSH2 0x43 JUMPI DUP1 PUSH4 0x7ACC0B20 EQ PUSH2 0x5F JUMPI DUP1 PUSH4 0xC2BE7C09 EQ PUSH2 0x92 JUMPI JUMPDEST PUSH0 DUP1 REVERT JUMPDEST PUSH2 0x5D PUSH1 0x4 DUP1 CALLDATASIZE SUB DUP2 ADD SWAP1 PUSH2 0x58 SWAP2 SWAP1 PUSH2 0x75C JUMP JUMPDEST PUSH2 0xAE JUMP JUMPDEST STOP JUMPDEST PUSH2 0x79 PUSH1 0x4 DUP1 CALLDATASIZE SUB DUP2 ADD SWAP1 PUSH2 0x74 SWAP2 SWAP1 PUSH2 0x7B6 JUMP JUMPDEST PUSH2 0x1FF JUMP JUMPDEST PUSH1 0x40 MLOAD PUSH2 0x89 SWAP5 SWAP4 SWAP3 SWAP2 SWAP1 PUSH2 0x94E JUMP JUMPDEST PUSH1 0x40 MLOAD DUP1 SWAP2 SUB SWAP1 RETURN JUMPDEST PUSH2 0xAC PUSH1 0x4 DUP1 CALLDATASIZE SUB DUP2 ADD SWAP1 PUSH2 0xA7 SWAP2 SWAP1 PUSH2 0x9C9 JUMP JUMPDEST PUSH2 0x422 JUMP JUMPDEST STOP JUMPDEST DUP2 DUP1 PUSH0 DUP1 DUP4 DUP2 MSTORE PUSH1 0x20 ADD SWAP1 DUP2 MSTORE PUSH1 0x20 ADD PUSH0 KECCAK256 PUSH0 ADD SLOAD SUB PUSH2 0x103 JUMPI PUSH1 0x40 MLOAD PUSH32 0x8C379A000000000000000000000000000000000000000000000000000000000 DUP2 MSTORE PUSH1 0x4 ADD PUSH2 0xFA SWAP1 PUSH2 0xADE JUMP JUMPDEST PUSH1 0x40 MLOAD DUP1 SWAP2 SUB SWAP1 REVERT JUMPDEST DUP2 PUSH0 DUP1 DUP6 DUP2 MSTORE PUSH1 0x20 ADD SWAP1 DUP2 MSTORE PUSH1 0x20 ADD PUSH0 KECCAK256 PUSH1 0x3 ADD PUSH0 ADD SWAP1 DUP2 PUSH2 0x125 SWAP2 SWAP1 PUSH2 0xCF6 JUMP JUMPDEST POP TIMESTAMP PUSH0 DUP1 DUP6 DUP2 MSTORE PUSH1 0x20 ADD SWAP1 DUP2 MSTORE PUSH1 0x20 ADD PUSH0 KECCAK256 PUSH1 0x3 ADD PUSH1 0x2 ADD DUP2 SWAP1 SSTORE POP PUSH1 0x1 PUSH0 DUP1 DUP6 DUP2 MSTORE PUSH1 0x20 ADD SWAP1 DUP2 MSTORE PUSH1 0x20 ADD PUSH0 KECCAK256 PUSH1 0x3 ADD PUSH1 0x3 ADD PUSH0 PUSH2 0x100 EXP DUP2 SLOAD DUP2 PUSH1 0xFF MUL NOT AND SWAP1 DUP4 ISZERO ISZERO MUL OR SWAP1 SSTORE POP PUSH32 0xF295C689D401CE1625E9BD2ADBA7641F92CC231677989C7FE706354CB643E798 PUSH0 DUP1 DUP6 DUP2 MSTORE PUSH1 0x20 ADD SWAP1 DUP2 MSTORE PUSH1 0x20 ADD PUSH0 KECCAK256 PUSH1 0x3 ADD PUSH0 ADD PUSH0 DUP1 DUP7 DUP2 MSTORE PUSH1 0x20 ADD SWAP1 DUP2 MSTORE PUSH1 0x20 ADD PUSH0 KECCAK256 PUSH1 0x3 ADD PUSH1 0x1 ADD TIMESTAMP DUP7 PUSH0 DUP1 DUP10 DUP2 MSTORE PUSH1 0x20 ADD SWAP1 DUP2 MSTORE PUSH1 0x20 ADD PUSH0 KECCAK256 PUSH1 0x3 ADD PUSH1 0x3 ADD PUSH1 0x1 SWAP1 SLOAD SWAP1 PUSH2 0x100 EXP SWAP1 DIV PUSH1 0xFF AND PUSH1 0x40 MLOAD PUSH2 0x1F2 SWAP6 SWAP5 SWAP4 SWAP3 SWAP2 SWAP1 PUSH2 0xE55 JUMP JUMPDEST PUSH1 0x40 MLOAD DUP1 SWAP2 SUB SWAP1 LOG1 POP POP POP JUMP JUMPDEST PUSH0 PUSH1 0x20 MSTORE DUP1 PUSH0 MSTORE PUSH1 0x40 PUSH0 KECCAK256 PUSH0 SWAP2 POP SWAP1 POP DUP1 PUSH0 ADD SLOAD SWAP1 DUP1 PUSH1 0x1 ADD DUP1 SLOAD PUSH2 0x223 SWAP1 PUSH2 0xB29 JUMP JUMPDEST DUP1 PUSH1 0x1F ADD PUSH1 0x20 DUP1 SWAP2 DIV MUL PUSH1 0x20 ADD PUSH1 0x40 MLOAD SWAP1 DUP2 ADD PUSH1 0x40 MSTORE DUP1 SWAP3 SWAP2 SWAP1 DUP2 DUP2 MSTORE PUSH1 0x20 ADD DUP3 DUP1 SLOAD PUSH2 0x24F SWAP1 PUSH2 0xB29 JUMP JUMPDEST DUP1 ISZERO PUSH2 0x29A JUMPI DUP1 PUSH1 0x1F LT PUSH2 0x271 JUMPI PUSH2 0x100 DUP1 DUP4 SLOAD DIV MUL DUP4 MSTORE SWAP2 PUSH1 0x20 ADD SWAP2 PUSH2 0x29A JUMP JUMPDEST DUP3 ADD SWAP2 SWAP1 PUSH0 MSTORE PUSH1 0x20 PUSH0 KECCAK256 SWAP1 JUMPDEST DUP2 SLOAD DUP2 MSTORE SWAP1 PUSH1 0x1 ADD SWAP1 PUSH1 0x20 ADD DUP1 DUP4 GT PUSH2 0x27D JUMPI DUP3 SWAP1 SUB PUSH1 0x1F AND DUP3 ADD SWAP2 JUMPDEST POP POP POP POP POP SWAP1 DUP1 PUSH1 0x2 ADD SLOAD SWAP1 DUP1 PUSH1 0x3 ADD PUSH1 0x40 MLOAD DUP1 PUSH1 0xC0 ADD PUSH1 0x40 MSTORE SWAP1 DUP2 PUSH0 DUP3 ADD DUP1 SLOAD PUSH2 0x2C4 SWAP1 PUSH2 0xB29 JUMP JUMPDEST DUP1 PUSH1 0x1F ADD PUSH1 0x20 DUP1 SWAP2 DIV MUL PUSH1 0x20 ADD PUSH1 0x40 MLOAD SWAP1 DUP2 ADD PUSH1 0x40 MSTORE DUP1 SWAP3 SWAP2 SWAP1 DUP2 DUP2 MSTORE PUSH1 0x20 ADD DUP3 DUP1 SLOAD PUSH2 0x2F0 SWAP1 PUSH2 0xB29 JUMP JUMPDEST DUP1 ISZERO PUSH2 0x33B JUMPI DUP1 PUSH1 0x1F LT PUSH2 0x312 JUMPI PUSH2 0x100 DUP1 DUP4 SLOAD DIV MUL DUP4 MSTORE SWAP2 PUSH1 0x20 ADD SWAP2 PUSH2 0x33B JUMP JUMPDEST DUP3 ADD SWAP2 SWAP1 PUSH0 MSTORE PUSH1 0x20 PUSH0 KECCAK256 SWAP1 JUMPDEST DUP2 SLOAD DUP2 MSTORE SWAP1 PUSH1 0x1 ADD SWAP1 PUSH1 0x20 ADD DUP1 DUP4 GT PUSH2 0x31E JUMPI DUP3 SWAP1 SUB PUSH1 0x1F AND DUP3 ADD SWAP2 JUMPDEST POP POP POP POP POP DUP2 MSTORE PUSH1 0x20 ADD PUSH1 0x1 DUP3 ADD DUP1 SLOAD PUSH2 0x354 SWAP1 PUSH2 0xB29 JUMP JUMPDEST DUP1 PUSH1 0x1F ADD PUSH1 0x20 DUP1 SWAP2 DIV MUL PUSH1 0x20 ADD PUSH1 0x40 MLOAD SWAP1 DUP2 ADD PUSH1 0x40 MSTORE DUP1 SWAP3 SWAP2 SWAP1 DUP2 DUP2 MSTORE PUSH1 0x20 ADD DUP3 DUP1 SLOAD PUSH2 0x380 SWAP1 PUSH2 0xB29 JUMP JUMPDEST DUP1 ISZERO PUSH2 0x3CB JUMPI DUP1 PUSH1 0x1F LT PUSH2 0x3A2 JUMPI PUSH2 0x100 DUP1 DUP4 SLOAD DIV MUL DUP4 MSTORE SWAP2 PUSH1 0x20 ADD SWAP2 PUSH2 0x3CB JUMP JUMPDEST DUP3 ADD SWAP2 SWAP1 PUSH0 MSTORE PUSH1 0x20 PUSH0 KECCAK256 SWAP1 JUMPDEST DUP2 SLOAD DUP2 MSTORE SWAP1 PUSH1 0x1 ADD SWAP1 PUSH1 0x20 ADD DUP1 DUP4 GT PUSH2 0x3AE JUMPI DUP3 SWAP1 SUB PUSH1 0x1F AND DUP3 ADD SWAP2 JUMPDEST POP POP POP POP POP DUP2 MSTORE PUSH1 0x20 ADD PUSH1 0x2 DUP3 ADD SLOAD DUP2 MSTORE PUSH1 0x20 ADD PUSH1 0x3 DUP3 ADD PUSH0 SWAP1 SLOAD SWAP1 PUSH2 0x100 EXP SWAP1 DIV PUSH1 0xFF AND ISZERO ISZERO ISZERO ISZERO DUP2 MSTORE PUSH1 0x20 ADD PUSH1 0x3 DUP3 ADD PUSH1 0x1 SWAP1 SLOAD SWAP1 PUSH2 0x100 EXP SWAP1 DIV PUSH1 0xFF AND ISZERO ISZERO ISZERO ISZERO DUP2 MSTORE PUSH1 0x20 ADD PUSH1 0x4 DUP3 ADD SLOAD DUP2 MSTORE POP POP SWAP1 POP DUP5 JUMP JUMPDEST PUSH0 TIMESTAMP SWAP1 POP PUSH0 DUP1 PUSH0 DUP4 DUP2 MSTORE PUSH1 0x20 ADD SWAP1 DUP2 MSTORE PUSH1 0x20 ADD PUSH0 KECCAK256 PUSH0 ADD SLOAD EQ PUSH2 0x47A JUMPI PUSH1 0x40 MLOAD PUSH32 0x8C379A000000000000000000000000000000000000000000000000000000000 DUP2 MSTORE PUSH1 0x4 ADD PUSH2 0x471 SWAP1 PUSH2 0xEFE JUMP JUMPDEST PUSH1 0x40 MLOAD DUP1 SWAP2 SUB SWAP1 REVERT JUMPDEST PUSH1 0x40 MLOAD DUP1 PUSH1 0x80 ADD PUSH1 0x40 MSTORE DUP1 DUP3 DUP2 MSTORE PUSH1 0x20 ADD DUP8 DUP2 MSTORE PUSH1 0x20 ADD DUP7 DUP2 MSTORE PUSH1 0x20 ADD PUSH1 0x40 MLOAD DUP1 PUSH1 0xC0 ADD PUSH1 0x40 MSTORE DUP1 DUP8 DUP2 MSTORE PUSH1 0x20 ADD DUP7 DUP2 MSTORE PUSH1 0x20 ADD DUP6 PUSH2 0x4B9 JUMPI PUSH0 PUSH2 0x4BB JUMP JUMPDEST TIMESTAMP JUMPDEST DUP2 MSTORE PUSH1 0x20 ADD DUP6 ISZERO ISZERO DUP2 MSTORE PUSH1 0x20 ADD PUSH0 ISZERO ISZERO DUP2 MSTORE PUSH1 0x20 ADD PUSH0 DUP2 MSTORE POP DUP2 MSTORE POP PUSH0 DUP1 DUP4 DUP2 MSTORE PUSH1 0x20 ADD SWAP1 DUP2 MSTORE PUSH1 0x20 ADD PUSH0 KECCAK256 PUSH0 DUP3 ADD MLOAD DUP2 PUSH0 ADD SSTORE PUSH1 0x20 DUP3 ADD MLOAD DUP2 PUSH1 0x1 ADD SWAP1 DUP2 PUSH2 0x504 SWAP2 SWAP1 PUSH2 0xCF6 JUMP JUMPDEST POP PUSH1 0x40 DUP3 ADD MLOAD DUP2 PUSH1 0x2 ADD SSTORE PUSH1 0x60 DUP3 ADD MLOAD DUP2 PUSH1 0x3 ADD PUSH0 DUP3 ADD MLOAD DUP2 PUSH0 ADD SWAP1 DUP2 PUSH2 0x52B SWAP2 SWAP1 PUSH2 0xCF6 JUMP JUMPDEST POP PUSH1 0x20 DUP3 ADD MLOAD DUP2 PUSH1 0x1 ADD SWAP1 DUP2 PUSH2 0x541 SWAP2 SWAP1 PUSH2 0xCF6 JUMP JUMPDEST POP PUSH1 0x40 DUP3 ADD MLOAD DUP2 PUSH1 0x2 ADD SSTORE PUSH1 0x60 DUP3 ADD MLOAD DUP2 PUSH1 0x3 ADD PUSH0 PUSH2 0x100 EXP DUP2 SLOAD DUP2 PUSH1 0xFF MUL NOT AND SWAP1 DUP4 ISZERO ISZERO MUL OR SWAP1 SSTORE POP PUSH1 0x80 DUP3 ADD MLOAD DUP2 PUSH1 0x3 ADD PUSH1 0x1 PUSH2 0x100 EXP DUP2 SLOAD DUP2 PUSH1 0xFF MUL NOT AND SWAP1 DUP4 ISZERO ISZERO MUL OR SWAP1 SSTORE POP PUSH1 0xA0 DUP3 ADD MLOAD DUP2 PUSH1 0x4 ADD SSTORE POP POP SWAP1 POP POP DUP1 PUSH32 0x92E3E4E5B7088B1311430DB271802C16F3CFE934879E5DC4453CBD987F16B09E DUP8 DUP8 PUSH1 0x40 MLOAD PUSH2 0x5CC SWAP3 SWAP2 SWAP1 PUSH2 0xF1C JUMP JUMPDEST PUSH1 0x40 MLOAD DUP1 SWAP2 SUB SWAP1 LOG2 POP POP POP POP POP POP JUMP JUMPDEST PUSH0 PUSH1 0x40 MLOAD SWAP1 POP SWAP1 JUMP JUMPDEST PUSH0 DUP1 REVERT JUMPDEST PUSH0 DUP1 REVERT JUMPDEST PUSH0 DUP2 SWAP1 POP SWAP2 SWAP1 POP JUMP JUMPDEST PUSH2 0x5FF DUP2 PUSH2 0x5ED JUMP JUMPDEST DUP2 EQ PUSH2 0x609 JUMPI PUSH0 DUP1 REVERT JUMPDEST POP JUMP JUMPDEST PUSH0 DUP2 CALLDATALOAD SWAP1 POP PUSH2 0x61A DUP2 PUSH2 0x5F6 JUMP JUMPDEST SWAP3 SWAP2 POP POP JUMP JUMPDEST PUSH0 DUP1 REVERT JUMPDEST PUSH0 DUP1 REVERT JUMPDEST PUSH0 PUSH1 0x1F NOT PUSH1 0x1F DUP4 ADD AND SWAP1 POP SWAP2 SWAP1 POP JUMP JUMPDEST PUSH32 0x4E487B7100000000000000000000000000000000000000000000000000000000 PUSH0 MSTORE PUSH1 0x41 PUSH1 0x4 MSTORE PUSH1 0x24 PUSH0 REVERT JUMPDEST PUSH2 0x66E DUP3 PUSH2 0x628 JUMP JUMPDEST DUP2 ADD DUP2 DUP2 LT PUSH8 0xFFFFFFFFFFFFFFFF DUP3 GT OR ISZERO PUSH2 0x68D JUMPI PUSH2 0x68C PUSH2 0x638 JUMP JUMPDEST JUMPDEST DUP1 PUSH1 0x40 MSTORE POP POP POP JUMP JUMPDEST PUSH0 PUSH2 0x69F PUSH2 0x5DC JUMP JUMPDEST SWAP1 POP PUSH2 0x6AB DUP3 DUP3 PUSH2 0x665 JUMP JUMPDEST SWAP2 SWAP1 POP JUMP JUMPDEST PUSH0 PUSH8 0xFFFFFFFFFFFFFFFF DUP3 GT ISZERO PUSH2 0x6CA JUMPI PUSH2 0x6C9 PUSH2 0x638 JUMP JUMPDEST JUMPDEST PUSH2 0x6D3 DUP3 PUSH2 0x628 JUMP JUMPDEST SWAP1 POP PUSH1 0x20 DUP2 ADD SWAP1 POP SWAP2 SWAP1 POP JUMP JUMPDEST DUP3 DUP2 DUP4 CALLDATACOPY PUSH0 DUP4 DUP4 ADD MSTORE POP POP POP JUMP JUMPDEST PUSH0 PUSH2 0x700 PUSH2 0x6FB DUP5 PUSH2 0x6B0 JUMP JUMPDEST PUSH2 0x696 JUMP JUMPDEST SWAP1 POP DUP3 DUP2 MSTORE PUSH1 0x20 DUP2 ADD DUP5 DUP5 DUP5 ADD GT ISZERO PUSH2 0x71C JUMPI PUSH2 0x71B PUSH2 0x624 JUMP JUMPDEST JUMPDEST PUSH2 0x727 DUP5 DUP3 DUP6 PUSH2 0x6E0 JUMP JUMPDEST POP SWAP4 SWAP3 POP POP POP JUMP JUMPDEST PUSH0 DUP3 PUSH1 0x1F DUP4 ADD SLT PUSH2 0x743 JUMPI PUSH2 0x742 PUSH2 0x620 JUMP JUMPDEST JUMPDEST DUP2 CALLDATALOAD PUSH2 0x753 DUP5 DUP3 PUSH1 0x20 DUP7 ADD PUSH2 0x6EE JUMP JUMPDEST SWAP2 POP POP SWAP3 SWAP2 POP POP JUMP JUMPDEST PUSH0 DUP1 PUSH1 0x40 DUP4 DUP6 SUB SLT ISZERO PUSH2 0x772 JUMPI PUSH2 0x771 PUSH2 0x5E5 JUMP JUMPDEST JUMPDEST PUSH0 PUSH2 0x77F DUP6 DUP3 DUP7 ADD PUSH2 0x60C JUMP JUMPDEST SWAP3 POP POP PUSH1 0x20 DUP4 ADD CALLDATALOAD PUSH8 0xFFFFFFFFFFFFFFFF DUP2 GT ISZERO PUSH2 0x7A0 JUMPI PUSH2 0x79F PUSH2 0x5E9 JUMP JUMPDEST JUMPDEST PUSH2 0x7AC DUP6 DUP3 DUP7 ADD PUSH2 0x72F JUMP JUMPDEST SWAP2 POP POP SWAP3 POP SWAP3 SWAP1 POP JUMP JUMPDEST PUSH0 PUSH1 0x20 DUP3 DUP5 SUB SLT ISZERO PUSH2 0x7CB JUMPI PUSH2 0x7CA PUSH2 0x5E5 JUMP JUMPDEST JUMPDEST PUSH0 PUSH2 0x7D8 DUP5 DUP3 DUP6 ADD PUSH2 0x60C JUMP JUMPDEST SWAP2 POP POP SWAP3 SWAP2 POP POP JUMP JUMPDEST PUSH2 0x7EA DUP2 PUSH2 0x5ED JUMP JUMPDEST DUP3 MSTORE POP POP JUMP JUMPDEST PUSH0 DUP2 MLOAD SWAP1 POP SWAP2 SWAP1 POP JUMP JUMPDEST PUSH0 DUP3 DUP3 MSTORE PUSH1 0x20 DUP3 ADD SWAP1 POP SWAP3 SWAP2 POP POP JUMP JUMPDEST DUP3 DUP2 DUP4 MCOPY PUSH0 DUP4 DUP4 ADD MSTORE POP POP POP JUMP JUMPDEST PUSH0 PUSH2 0x822 DUP3 PUSH2 0x7F0 JUMP JUMPDEST PUSH2 0x82C DUP2 DUP6 PUSH2 0x7FA JUMP JUMPDEST SWAP4 POP PUSH2 0x83C DUP2 DUP6 PUSH1 0x20 DUP7 ADD PUSH2 0x80A JUMP JUMPDEST PUSH2 0x845 DUP2 PUSH2 0x628 JUMP JUMPDEST DUP5 ADD SWAP2 POP POP SWAP3 SWAP2 POP POP JUMP JUMPDEST PUSH0 DUP3 DUP3 MSTORE PUSH1 0x20 DUP3 ADD SWAP1 POP SWAP3 SWAP2 POP POP JUMP JUMPDEST PUSH0 PUSH2 0x86A DUP3 PUSH2 0x7F0 JUMP JUMPDEST PUSH2 0x874 DUP2 DUP6 PUSH2 0x850 JUMP JUMPDEST SWAP4 POP PUSH2 0x884 DUP2 DUP6 PUSH1 0x20 DUP7 ADD PUSH2 0x80A JUMP JUMPDEST PUSH2 0x88D DUP2 PUSH2 0x628 JUMP JUMPDEST DUP5 ADD SWAP2 POP POP SWAP3 SWAP2 POP POP JUMP JUMPDEST PUSH2 0x8A1 DUP2 PUSH2 0x5ED JUMP JUMPDEST DUP3 MSTORE POP POP JUMP JUMPDEST PUSH0 DUP2 ISZERO ISZERO SWAP1 POP SWAP2 SWAP1 POP JUMP JUMPDEST PUSH2 0x8BB DUP2 PUSH2 0x8A7 JUMP JUMPDEST DUP3 MSTORE POP POP JUMP JUMPDEST PUSH0 PUSH1 0xC0 DUP4 ADD PUSH0 DUP4 ADD MLOAD DUP5 DUP3 SUB PUSH0 DUP7 ADD MSTORE PUSH2 0x8DB DUP3 DUP3 PUSH2 0x860 JUMP JUMPDEST SWAP2 POP POP PUSH1 0x20 DUP4 ADD MLOAD DUP5 DUP3 SUB PUSH1 0x20 DUP7 ADD MSTORE PUSH2 0x8F5 DUP3 DUP3 PUSH2 0x860 JUMP JUMPDEST SWAP2 POP POP PUSH1 0x40 DUP4 ADD MLOAD PUSH2 0x90A PUSH1 0x40 DUP7 ADD DUP3 PUSH2 0x898 JUMP JUMPDEST POP PUSH1 0x60 DUP4 ADD MLOAD PUSH2 0x91D PUSH1 0x60 DUP7 ADD DUP3 PUSH2 0x8B2 JUMP JUMPDEST POP PUSH1 0x80 DUP4 ADD MLOAD PUSH2 0x930 PUSH1 0x80 DUP7 ADD DUP3 PUSH2 0x8B2 JUMP JUMPDEST POP PUSH1 0xA0 DUP4 ADD MLOAD PUSH2 0x943 PUSH1 0xA0 DUP7 ADD DUP3 PUSH2 0x898 JUMP JUMPDEST POP DUP1 SWAP2 POP POP SWAP3 SWAP2 POP POP JUMP JUMPDEST PUSH0 PUSH1 0x80 DUP3 ADD SWAP1 POP PUSH2 0x961 PUSH0 DUP4 ADD DUP8 PUSH2 0x7E1 JUMP JUMPDEST DUP2 DUP2 SUB PUSH1 0x20 DUP4 ADD MSTORE PUSH2 0x973 DUP2 DUP7 PUSH2 0x818 JUMP JUMPDEST SWAP1 POP PUSH2 0x982 PUSH1 0x40 DUP4 ADD DUP6 PUSH2 0x7E1 JUMP JUMPDEST DUP2 DUP2 SUB PUSH1 0x60 DUP4 ADD MSTORE PUSH2 0x994 DUP2 DUP5 PUSH2 0x8C1 JUMP JUMPDEST SWAP1 POP SWAP6 SWAP5 POP POP POP POP POP JUMP JUMPDEST PUSH2 0x9A8 DUP2 PUSH2 0x8A7 JUMP JUMPDEST DUP2 EQ PUSH2 0x9B2 JUMPI PUSH0 DUP1 REVERT JUMPDEST POP JUMP JUMPDEST PUSH0 DUP2 CALLDATALOAD SWAP1 POP PUSH2 0x9C3 DUP2 PUSH2 0x99F JUMP JUMPDEST SWAP3 SWAP2 POP POP JUMP JUMPDEST PUSH0 DUP1 PUSH0 DUP1 PUSH0 PUSH1 0xA0 DUP7 DUP9 SUB SLT ISZERO PUSH2 0x9E2 JUMPI PUSH2 0x9E1 PUSH2 0x5E5 JUMP JUMPDEST JUMPDEST PUSH0 DUP7 ADD CALLDATALOAD PUSH8 0xFFFFFFFFFFFFFFFF DUP2 GT ISZERO PUSH2 0x9FF JUMPI PUSH2 0x9FE PUSH2 0x5E9 JUMP JUMPDEST JUMPDEST PUSH2 0xA0B DUP9 DUP3 DUP10 ADD PUSH2 0x72F JUMP JUMPDEST SWAP6 POP POP PUSH1 0x20 PUSH2 0xA1C DUP9 DUP3 DUP10 ADD PUSH2 0x60C JUMP JUMPDEST SWAP5 POP POP PUSH1 0x40 DUP7 ADD CALLDATALOAD PUSH8 0xFFFFFFFFFFFFFFFF DUP2 GT ISZERO PUSH2 0xA3D JUMPI PUSH2 0xA3C PUSH2 0x5E9 JUMP JUMPDEST JUMPDEST PUSH2 0xA49 DUP9 DUP3 DUP10 ADD PUSH2 0x72F JUMP JUMPDEST SWAP4 POP POP PUSH1 0x60 DUP7 ADD CALLDATALOAD PUSH8 0xFFFFFFFFFFFFFFFF DUP2 GT ISZERO PUSH2 0xA6A JUMPI PUSH2 0xA69 PUSH2 0x5E9 JUMP JUMPDEST JUMPDEST PUSH2 0xA76 DUP9 DUP3 DUP10 ADD PUSH2 0x72F JUMP JUMPDEST SWAP3 POP POP PUSH1 0x80 PUSH2 0xA87 DUP9 DUP3 DUP10 ADD PUSH2 0x9B5 JUMP JUMPDEST SWAP2 POP POP SWAP3 SWAP6 POP SWAP3 SWAP6 SWAP1 SWAP4 POP JUMP JUMPDEST PUSH32 0x50726F6475637420646F6573206E6F7420657869737400000000000000000000 PUSH0 DUP3 ADD MSTORE POP JUMP JUMPDEST PUSH0 PUSH2 0xAC8 PUSH1 0x16 DUP4 PUSH2 0x7FA JUMP JUMPDEST SWAP2 POP PUSH2 0xAD3 DUP3 PUSH2 0xA94 JUMP JUMPDEST PUSH1 0x20 DUP3 ADD SWAP1 POP SWAP2 SWAP1 POP JUMP JUMPDEST PUSH0 PUSH1 0x20 DUP3 ADD SWAP1 POP DUP2 DUP2 SUB PUSH0 DUP4 ADD MSTORE PUSH2 0xAF5 DUP2 PUSH2 0xABC JUMP JUMPDEST SWAP1 POP SWAP2 SWAP1 POP JUMP JUMPDEST PUSH32 0x4E487B7100000000000000000000000000000000000000000000000000000000 PUSH0 MSTORE PUSH1 0x22 PUSH1 0x4 MSTORE PUSH1 0x24 PUSH0 REVERT JUMPDEST PUSH0 PUSH1 0x2 DUP3 DIV SWAP1 POP PUSH1 0x1 DUP3 AND DUP1 PUSH2 0xB40 JUMPI PUSH1 0x7F DUP3 AND SWAP2 POP JUMPDEST PUSH1 0x20 DUP3 LT DUP2 SUB PUSH2 0xB53 JUMPI PUSH2 0xB52 PUSH2 0xAFC JUMP JUMPDEST JUMPDEST POP SWAP2 SWAP1 POP JUMP JUMPDEST PUSH0 DUP2 SWAP1 POP DUP2 PUSH0 MSTORE PUSH1 0x20 PUSH0 KECCAK256 SWAP1 POP SWAP2 SWAP1 POP JUMP JUMPDEST PUSH0 PUSH1 0x20 PUSH1 0x1F DUP4 ADD DIV SWAP1 POP SWAP2 SWAP1 POP JUMP JUMPDEST PUSH0 DUP3 DUP3 SHL SWAP1 POP SWAP3 SWAP2 POP POP JUMP JUMPDEST PUSH0 PUSH1 0x8 DUP4 MUL PUSH2 0xBB5 PUSH32 0xFFFFFFFFFFFFFFFFFFFFFFFFFFFFFFFFFFFFFFFFFFFFFFFFFFFFFFFFFFFFFFFF DUP3 PUSH2 0xB7A JUMP JUMPDEST PUSH2 0xBBF DUP7 DUP4 PUSH2 0xB7A JUMP JUMPDEST SWAP6 POP DUP1 NOT DUP5 AND SWAP4 POP DUP1 DUP7 AND DUP5 OR SWAP3 POP POP POP SWAP4 SWAP3 POP POP POP JUMP JUMPDEST PUSH0 DUP2 SWAP1 POP SWAP2 SWAP1 POP JUMP JUMPDEST PUSH0 PUSH2 0xBFA PUSH2 0xBF5 PUSH2 0xBF0 DUP5 PUSH2 0x5ED JUMP JUMPDEST PUSH2 0xBD7 JUMP JUMPDEST PUSH2 0x5ED JUMP JUMPDEST SWAP1 POP SWAP2 SWAP1 POP JUMP JUMPDEST PUSH0 DUP2 SWAP1 POP SWAP2 SWAP1 POP JUMP JUMPDEST PUSH2 0xC13 DUP4 PUSH2 0xBE0 JUMP JUMPDEST PUSH2 0xC27 PUSH2 0xC1F DUP3 PUSH2 0xC01 JUMP JUMPDEST DUP5 DUP5 SLOAD PUSH2 0xB86 JUMP JUMPDEST DUP3 SSTORE POP POP POP POP JUMP JUMPDEST PUSH0 SWAP1 JUMP JUMPDEST PUSH2 0xC3B PUSH2 0xC2F JUMP JUMPDEST PUSH2 0xC46 DUP2 DUP5 DUP5 PUSH2 0xC0A JUMP JUMPDEST POP POP POP JUMP JUMPDEST JUMPDEST DUP2 DUP2 LT ISZERO PUSH2 0xC69 JUMPI PUSH2 0xC5E PUSH0 DUP3 PUSH2 0xC33 JUMP JUMPDEST PUSH1 0x1 DUP2 ADD SWAP1 POP PUSH2 0xC4C JUMP JUMPDEST POP POP JUMP JUMPDEST PUSH1 0x1F DUP3 GT ISZERO PUSH2 0xCAE JUMPI PUSH2 0xC7F DUP2 PUSH2 0xB59 JUMP JUMPDEST PUSH2 0xC88 DUP5 PUSH2 0xB6B JUMP JUMPDEST DUP2 ADD PUSH1 0x20 DUP6 LT ISZERO PUSH2 0xC97 JUMPI DUP2 SWAP1 POP JUMPDEST PUSH2 0xCAB PUSH2 0xCA3 DUP6 PUSH2 0xB6B JUMP JUMPDEST DUP4 ADD DUP3 PUSH2 0xC4B JUMP JUMPDEST POP POP JUMPDEST POP POP POP JUMP JUMPDEST PUSH0 DUP3 DUP3 SHR SWAP1 POP SWAP3 SWAP2 POP POP JUMP JUMPDEST PUSH0 PUSH2 0xCCE PUSH0 NOT DUP5 PUSH1 0x8 MUL PUSH2 0xCB3 JUMP JUMPDEST NOT DUP1 DUP4 AND SWAP2 POP POP SWAP3 SWAP2 POP POP JUMP JUMPDEST PUSH0 PUSH2 0xCE6 DUP4 DUP4 PUSH2 0xCBF JUMP JUMPDEST SWAP2 POP DUP3 PUSH1 0x2 MUL DUP3 OR SWAP1 POP SWAP3 SWAP2 POP POP JUMP JUMPDEST PUSH2 0xCFF DUP3 PUSH2 0x7F0 JUMP JUMPDEST PUSH8 0xFFFFFFFFFFFFFFFF DUP2 GT ISZERO PUSH2 0xD18 JUMPI PUSH2 0xD17 PUSH2 0x638 JUMP JUMPDEST JUMPDEST PUSH2 0xD22 DUP3 SLOAD PUSH2 0xB29 JUMP JUMPDEST PUSH2 0xD2D DUP3 DUP3 DUP6 PUSH2 0xC6D JUMP JUMPDEST PUSH0 PUSH1 0x20 SWAP1 POP PUSH1 0x1F DUP4 GT PUSH1 0x1 DUP2 EQ PUSH2 0xD5E JUMPI PUSH0 DUP5 ISZERO PUSH2 0xD4C JUMPI DUP3 DUP8 ADD MLOAD SWAP1 POP JUMPDEST PUSH2 0xD56 DUP6 DUP3 PUSH2 0xCDB JUMP JUMPDEST DUP7 SSTORE POP PUSH2 0xDBD JUMP JUMPDEST PUSH1 0x1F NOT DUP5 AND PUSH2 0xD6C DUP7 PUSH2 0xB59 JUMP JUMPDEST PUSH0 JUMPDEST DUP3 DUP2 LT ISZERO PUSH2 0xD93 JUMPI DUP5 DUP10 ADD MLOAD DUP3 SSTORE PUSH1 0x1 DUP3 ADD SWAP2 POP PUSH1 0x20 DUP6 ADD SWAP5 POP PUSH1 0x20 DUP2 ADD SWAP1 POP PUSH2 0xD6E JUMP JUMPDEST DUP7 DUP4 LT ISZERO PUSH2 0xDB0 JUMPI DUP5 DUP10 ADD MLOAD PUSH2 0xDAC PUSH1 0x1F DUP10 AND DUP3 PUSH2 0xCBF JUMP JUMPDEST DUP4 SSTORE POP JUMPDEST PUSH1 0x1 PUSH1 0x2 DUP9 MUL ADD DUP9 SSTORE POP POP POP JUMPDEST POP POP POP POP POP POP JUMP JUMPDEST PUSH0 DUP2 SLOAD PUSH2 0xDD1 DUP2 PUSH2 0xB29 JUMP JUMPDEST PUSH2 0xDDB DUP2 DUP7 PUSH2 0x7FA JUMP JUMPDEST SWAP5 POP PUSH1 0x1 DUP3 AND PUSH0 DUP2 EQ PUSH2 0xDF5 JUMPI PUSH1 0x1 DUP2 EQ PUSH2 0xE0B JUMPI PUSH2 0xE3D JUMP JUMPDEST PUSH1 0xFF NOT DUP4 AND DUP7 MSTORE DUP2 ISZERO ISZERO PUSH1 0x20 MUL DUP7 ADD SWAP4 POP PUSH2 0xE3D JUMP JUMPDEST PUSH2 0xE14 DUP6 PUSH2 0xB59 JUMP JUMPDEST PUSH0 JUMPDEST DUP4 DUP2 LT ISZERO PUSH2 0xE35 JUMPI DUP2 SLOAD DUP2 DUP10 ADD MSTORE PUSH1 0x1 DUP3 ADD SWAP2 POP PUSH1 0x20 DUP2 ADD SWAP1 POP PUSH2 0xE16 JUMP JUMPDEST DUP1 DUP9 ADD SWAP6 POP POP POP JUMPDEST POP POP POP SWAP3 SWAP2 POP POP JUMP JUMPDEST PUSH2 0xE4F DUP2 PUSH2 0x8A7 JUMP JUMPDEST DUP3 MSTORE POP POP JUMP JUMPDEST PUSH0 PUSH1 0xA0 DUP3 ADD SWAP1 POP DUP2 DUP2 SUB PUSH0 DUP4 ADD MSTORE PUSH2 0xE6D DUP2 DUP9 PUSH2 0xDC5 JUMP JUMPDEST SWAP1 POP DUP2 DUP2 SUB PUSH1 0x20 DUP4 ADD MSTORE PUSH2 0xE81 DUP2 DUP8 PUSH2 0xDC5 JUMP JUMPDEST SWAP1 POP PUSH2 0xE90 PUSH1 0x40 DUP4 ADD DUP7 PUSH2 0x7E1 JUMP JUMPDEST PUSH2 0xE9D PUSH1 0x60 DUP4 ADD DUP6 PUSH2 0x7E1 JUMP JUMPDEST PUSH2 0xEAA PUSH1 0x80 DUP4 ADD DUP5 PUSH2 0xE46 JUMP JUMPDEST SWAP7 SWAP6 POP POP POP POP POP POP JUMP JUMPDEST PUSH32 0x50726F6475637420616C72656164792065786973747300000000000000000000 PUSH0 DUP3 ADD MSTORE POP JUMP JUMPDEST PUSH0 PUSH2 0xEE8 PUSH1 0x16 DUP4 PUSH2 0x7FA JUMP JUMPDEST SWAP2 POP PUSH2 0xEF3 DUP3 PUSH2 0xEB4 JUMP JUMPDEST PUSH1 0x20 DUP3 ADD SWAP1 POP SWAP2 SWAP1 POP JUMP JUMPDEST PUSH0 PUSH1 0x20 DUP3 ADD SWAP1 POP DUP2 DUP2 SUB PUSH0 DUP4 ADD MSTORE PUSH2 0xF15 DUP2 PUSH2 0xEDC JUMP JUMPDEST SWAP1 POP SWAP2 SWAP1 POP JUMP JUMPDEST PUSH0 PUSH1 0x40 DUP3 ADD SWAP1 POP DUP2 DUP2 SUB PUSH0 DUP4 ADD MSTORE PUSH2 0xF34 DUP2 DUP6 PUSH2 0x818 JUMP JUMPDEST SWAP1 POP PUSH2 0xF43 PUSH1 0x20 DUP4 ADD DUP5 PUSH2 0x7E1 JUMP JUMPDEST SWAP4 SWAP3 POP POP POP JUMP INVALID LOG2 PUSH5 0x6970667358 0x22 SLT KECCAK256 PUSH28 0xA6173CB207BF6863F10E0DD40A90727F9A216EE39D4EB83E5EEC3E7E DELEGATECALL ADD ADDRESS PUSH5 0x736F6C6343 STOP ADDMOD BYTE STOP CALLER "
				},
				"gasEstimates": {
					"creation": {
						"codeDepositCost": "793600",
						"executionCost": "823",
						"totalCost": "794423"
					},
					"external": {
						"addProduct(string,uint256,string,string,bool)": "infinite",
						"initalizeShipment(uint256,string)": "infinite",
						"products(uint256)": "infinite"
					}
				},
				"methodIdentifiers": {
					"addProduct(string,uint256,string,string,bool)": "c2be7c09",
					"initalizeShipment(uint256,string)": "21120f9a",
					"products(uint256)": "7acc0b20"
				}
			},
			"storageLayout": {
				"storage": [
					{
						"astId": 29,
						"contract": "Product Tracker Smart Contract/PT-PT.sol:ProductTracker",
						"label": "products",
						"offset": 0,
						"slot": "0",
						"type": "t_mapping(t_uint256,t_struct(Product)11_storage)"
					}
				],
				"types": {
					"t_bool": {
						"encoding": "inplace",
						"label": "bool",
						"numberOfBytes": "1"
					},
					"t_mapping(t_uint256,t_struct(Product)11_storage)": {
						"encoding": "mapping",
						"key": "t_uint256",
						"label": "mapping(uint256 => struct ProductTracker.Product)",
						"numberOfBytes": "32",
						"value": "t_struct(Product)11_storage"
					},
					"t_string_storage": {
						"encoding": "bytes",
						"label": "string",
						"numberOfBytes": "32"
					},
					"t_struct(Location)24_storage": {
						"encoding": "inplace",
						"label": "struct ProductTracker.Location",
						"members": [
							{
								"astId": 13,
								"contract": "Product Tracker Smart Contract/PT-PT.sol:ProductTracker",
								"label": "name",
								"offset": 0,
								"slot": "0",
								"type": "t_string_storage"
							},
							{
								"astId": 15,
								"contract": "Product Tracker Smart Contract/PT-PT.sol:ProductTracker",
								"label": "custodian",
								"offset": 0,
								"slot": "1",
								"type": "t_string_storage"
							},
							{
								"astId": 17,
								"contract": "Product Tracker Smart Contract/PT-PT.sol:ProductTracker",
								"label": "departure",
								"offset": 0,
								"slot": "2",
								"type": "t_uint256"
							},
							{
								"astId": 19,
								"contract": "Product Tracker Smart Contract/PT-PT.sol:ProductTracker",
								"label": "shipped",
								"offset": 0,
								"slot": "3",
								"type": "t_bool"
							},
							{
								"astId": 21,
								"contract": "Product Tracker Smart Contract/PT-PT.sol:ProductTracker",
								"label": "arrived",
								"offset": 1,
								"slot": "3",
								"type": "t_bool"
							},
							{
								"astId": 23,
								"contract": "Product Tracker Smart Contract/PT-PT.sol:ProductTracker",
								"label": "arrival",
								"offset": 0,
								"slot": "4",
								"type": "t_uint256"
							}
						],
						"numberOfBytes": "160"
					},
					"t_struct(Product)11_storage": {
						"encoding": "inplace",
						"label": "struct ProductTracker.Product",
						"members": [
							{
								"astId": 3,
								"contract": "Product Tracker Smart Contract/PT-PT.sol:ProductTracker",
								"label": "productId",
								"offset": 0,
								"slot": "0",
								"type": "t_uint256"
							},
							{
								"astId": 5,
								"contract": "Product Tracker Smart Contract/PT-PT.sol:ProductTracker",
								"label": "productName",
								"offset": 0,
								"slot": "1",
								"type": "t_string_storage"
							},
							{
								"astId": 7,
								"contract": "Product Tracker Smart Contract/PT-PT.sol:ProductTracker",
								"label": "quantity",
								"offset": 0,
								"slot": "2",
								"type": "t_uint256"
							},
							{
								"astId": 10,
								"contract": "Product Tracker Smart Contract/PT-PT.sol:ProductTracker",
								"label": "location",
								"offset": 0,
								"slot": "3",
								"type": "t_struct(Location)24_storage"
							}
						],
						"numberOfBytes": "256"
					},
					"t_uint256": {
						"encoding": "inplace",
						"label": "uint256",
						"numberOfBytes": "32"
					}
				}
			},
			"userdoc": {
				"kind": "user",
				"methods": {},
				"version": 1
			}
		}
	}
}