{
	"data": {
		"bytecode": {
			"linkReferences": {},
			"object": "608060405234801561000f575f80fd5b50335f73ffffffffffffffffffffffffffffffffffffffff168173ffffffffffffffffffffffffffffffffffffffff1603610081575f6040517f1e4fbdf70000000000000000000000000000000000000000000000000000000081526004016100789190610196565b60405180910390fd5b6100908161009660201b60201c565b506101af565b5f805f9054906101000a900473ffffffffffffffffffffffffffffffffffffffff169050815f806101000a81548173ffffffffffffffffffffffffffffffffffffffff021916908373ffffffffffffffffffffffffffffffffffffffff1602179055508173ffffffffffffffffffffffffffffffffffffffff168173ffffffffffffffffffffffffffffffffffffffff167f8be0079c531659141344cd1fd0a4f28419497f9722a3daafe3b4186f6b6457e060405160405180910390a35050565b5f73ffffffffffffffffffffffffffffffffffffffff82169050919050565b5f61018082610157565b9050919050565b61019081610176565b82525050565b5f6020820190506101a95f830184610187565b92915050565b612767806101bc5f395ff3fe608060405234801561000f575f80fd5b50600436106100fe575f3560e01c80638f2fdb4211610095578063b48028e311610064578063b48028e314610299578063d547741f146102b5578063f2fde38b146102d1578063f6468251146102ed576100fe565b80638f2fdb421461021357806391d148541461022f5780639ed04f5d1461025f578063a217fddf1461027b576100fe565b806336568abe116100d157806336568abe1461019a578063715018a6146101b65780637acc0b20146101c05780638da5cb5b146101f5576100fe565b806301ffc9a71461010257806321120f9a14610132578063248a9ca31461014e5780632f2ff15d1461017e575b5f80fd5b61011c60048036038101906101179190611463565b61030b565b60405161012991906114a8565b60405180910390f35b61014c60048036038101906101479190611630565b610384565b005b610168600480360381019061016391906116bd565b61059b565b60405161017591906116f7565b60405180910390f35b6101986004803603810190610193919061176a565b6105b8565b005b6101b460048036038101906101af919061176a565b6105da565b005b6101be610655565b005b6101da60048036038101906101d591906117a8565b610668565b6040516101ec96959493929190611935565b60405180910390f35b6101fd6109a4565b60405161020a91906119bf565b60405180910390f35b61022d600480360381019061022891906119d8565b6109cb565b005b6102496004803603810190610244919061176a565b610a01565b60405161025691906114a8565b60405180910390f35b61027960048036038101906102749190611b0f565b610a65565b005b610283610e35565b60405161029091906116f7565b60405180910390f35b6102b360048036038101906102ae91906119d8565b610e3b565b005b6102cf60048036038101906102ca919061176a565b610e71565b005b6102eb60048036038101906102e691906119d8565b610e93565b005b6102f5610f17565b60405161030291906116f7565b60405180910390f35b5f7f7965db0b000000000000000000000000000000000000000000000000000000007bffffffffffffffffffffffffffffffffffffffffffffffffffffffff1916827bffffffffffffffffffffffffffffffffffffffffffffffffffffffff1916148061037d575061037c82610f3b565b5b9050919050565b815f151560025f8381526020019081526020015f206007016003015f9054906101000a900460ff161515036103ee576040517f08c379a00000000000000000000000000000000000000000000000000000000081526004016103e590611ce1565b60405180910390fd5b8060025f8381526020019081526020015f205f015414610443576040517f08c379a000000000000000000000000000000000000000000000000000000000815260040161043a90611d49565b60405180910390fd5b5f60025f8381526020019081526020015f206006015403610499576040517f08c379a000000000000000000000000000000000000000000000000000000000815260040161049090611db1565b60405180910390fd5b8160025f8581526020019081526020015f206007015f0190816104bc9190611fc9565b504260025f8581526020019081526020015f2060070160020181905550600160025f8581526020019081526020015f206007016003015f6101000a81548160ff0219169083151502179055507ff295c689d401ce1625e9bd2adba7641f92cc231677989c7fe706354cb643e79860025f8581526020019081526020015f206007015f0160025f8681526020019081526020015f20600701600101428660025f8981526020019081526020015f2060070160030160019054906101000a900460ff1660405161058e959493929190612119565b60405180910390a1505050565b5f60015f8381526020019081526020015f20600101549050919050565b6105c18261059b565b6105ca81610fa4565b6105d48383610fb8565b50505050565b6105e26110a1565b73ffffffffffffffffffffffffffffffffffffffff168173ffffffffffffffffffffffffffffffffffffffff1614610646576040517f6697b23200000000000000000000000000000000000000000000000000000000815260040160405180910390fd5b61065082826110a8565b505050565b61065d611192565b6106665f611219565b565b6002602052805f5260405f205f91509050805f01549080600101805461068d90611dfc565b80601f01602080910402602001604051908101604052809291908181526020018280546106b990611dfc565b80156107045780601f106106db57610100808354040283529160200191610704565b820191905f5260205f20905b8154815290600101906020018083116106e757829003601f168201915b50505050509080600201805461071990611dfc565b80601f016020809104026020016040519081016040528092919081815260200182805461074590611dfc565b80156107905780601f1061076757610100808354040283529160200191610790565b820191905f5260205f20905b81548152906001019060200180831161077357829003601f168201915b5050505050908060030180546107a590611dfc565b80601f01602080910402602001604051908101604052809291908181526020018280546107d190611dfc565b801561081c5780601f106107f35761010080835404028352916020019161081c565b820191905f5260205f20905b8154815290600101906020018083116107ff57829003601f168201915b505050505090806006015490806007016040518060c00160405290815f8201805461084690611dfc565b80601f016020809104026020016040519081016040528092919081815260200182805461087290611dfc565b80156108bd5780601f10610894576101008083540402835291602001916108bd565b820191905f5260205f20905b8154815290600101906020018083116108a057829003601f168201915b505050505081526020016001820180546108d690611dfc565b80601f016020809104026020016040519081016040528092919081815260200182805461090290611dfc565b801561094d5780601f106109245761010080835404028352916020019161094d565b820191905f5260205f20905b81548152906001019060200180831161093057829003601f168201915b5050505050815260200160028201548152602001600382015f9054906101000a900460ff161515151581526020016003820160019054906101000a900460ff16151515158152602001600482015481525050905086565b5f805f9054906101000a900473ffffffffffffffffffffffffffffffffffffffff16905090565b6109d3611192565b6109fd7f0393b4c1b6519e8b53ae0efa1ab522060a3b9f8d86d09c8a22ca6d6eea735cf782610fb8565b5050565b5f60015f8481526020019081526020015f205f015f8373ffffffffffffffffffffffffffffffffffffffff1673ffffffffffffffffffffffffffffffffffffffff1681526020019081526020015f205f9054906101000a900460ff16905092915050565b610a8f7f0393b4c1b6519e8b53ae0efa1ab522060a3b9f8d86d09c8a22ca6d6eea735cf733610a01565b610ace576040517f08c379a0000000000000000000000000000000000000000000000000000000008152600401610ac5906121c2565b60405180910390fd5b5f895111610b11576040517f08c379a0000000000000000000000000000000000000000000000000000000008152600401610b089061222a565b60405180910390fd5b5f885111610b54576040517f08c379a0000000000000000000000000000000000000000000000000000000008152600401610b4b90612292565b60405180910390fd5b5f875111610b97576040517f08c379a0000000000000000000000000000000000000000000000000000000008152600401610b8e906122fa565b60405180910390fd5b5f8411610bd9576040517f08c379a0000000000000000000000000000000000000000000000000000000008152600401610bd090612388565b60405180910390fd5b5f4290505f60025f8381526020019081526020015f205f015414610c32576040517f08c379a0000000000000000000000000000000000000000000000000000000008152600401610c29906123f0565b60405180910390fd5b6040518061010001604052808281526020018b81526020018981526020018a81526020018881526020018781526020018681526020016040518060c0016040528087815260200186815260200185610c8a575f610c8c565b425b815260200185151581526020015f151581526020015f81525081525060025f8381526020019081526020015f205f820151815f01556020820151816001019081610cd69190611fc9565b506040820151816002019081610cec9190611fc9565b506060820151816003019081610d029190611fc9565b506080820151816004019080519060200190610d1f92919061132b565b5060a0820151816005019080519060200190610d3c92919061132b565b5060c0820151816006015560e0820151816007015f820151815f019081610d639190611fc9565b506020820151816001019081610d799190611fc9565b50604082015181600201556060820151816003015f6101000a81548160ff02191690831515021790555060808201518160030160016101000a81548160ff02191690831515021790555060a082015181600401555050905050807fd7bf816af497bf92d24ae6f5ec9050085f3575c329f242679fc0081fb7e6e54a8b8a8c8b8b8b60025f8a81526020019081526020015f20600701604051610e219796959493929190612673565b60405180910390a250505050505050505050565b5f801b81565b610e43611192565b610e6d7f0393b4c1b6519e8b53ae0efa1ab522060a3b9f8d86d09c8a22ca6d6eea735cf7826110a8565b5050565b610e7a8261059b565b610e8381610fa4565b610e8d83836110a8565b50505050565b610e9b611192565b5f73ffffffffffffffffffffffffffffffffffffffff168173ffffffffffffffffffffffffffffffffffffffff1603610f0b575f6040517f1e4fbdf7000000000000000000000000000000000000000000000000000000008152600401610f0291906119bf565b60405180910390fd5b610f1481611219565b50565b7f0393b4c1b6519e8b53ae0efa1ab522060a3b9f8d86d09c8a22ca6d6eea735cf781565b5f7f01ffc9a7000000000000000000000000000000000000000000000000000000007bffffffffffffffffffffffffffffffffffffffffffffffffffffffff1916827bffffffffffffffffffffffffffffffffffffffffffffffffffffffff1916149050919050565b610fb581610fb06110a1565b6112da565b50565b5f610fc38383610a01565b611097576001805f8581526020019081526020015f205f015f8473ffffffffffffffffffffffffffffffffffffffff1673ffffffffffffffffffffffffffffffffffffffff1681526020019081526020015f205f6101000a81548160ff0219169083151502179055506110346110a1565b73ffffffffffffffffffffffffffffffffffffffff168273ffffffffffffffffffffffffffffffffffffffff16847f2f8788117e7eff1d82e926ec794901d17c78024a50270940304540a733656f0d60405160405180910390a46001905061109b565b5f90505b92915050565b5f33905090565b5f6110b38383610a01565b15611188575f60015f8581526020019081526020015f205f015f8473ffffffffffffffffffffffffffffffffffffffff1673ffffffffffffffffffffffffffffffffffffffff1681526020019081526020015f205f6101000a81548160ff0219169083151502179055506111256110a1565b73ffffffffffffffffffffffffffffffffffffffff168273ffffffffffffffffffffffffffffffffffffffff16847ff6391f5c32d9c69d2a47ea670b442974b53935d1edc7fd64eb21e047a839171b60405160405180910390a46001905061118c565b5f90505b92915050565b61119a6110a1565b73ffffffffffffffffffffffffffffffffffffffff166111b86109a4565b73ffffffffffffffffffffffffffffffffffffffff1614611217576111db6110a1565b6040517f118cdaa700000000000000000000000000000000000000000000000000000000815260040161120e91906119bf565b60405180910390fd5b565b5f805f9054906101000a900473ffffffffffffffffffffffffffffffffffffffff169050815f806101000a81548173ffffffffffffffffffffffffffffffffffffffff021916908373ffffffffffffffffffffffffffffffffffffffff1602179055508173ffffffffffffffffffffffffffffffffffffffff168173ffffffffffffffffffffffffffffffffffffffff167f8be0079c531659141344cd1fd0a4f28419497f9722a3daafe3b4186f6b6457e060405160405180910390a35050565b6112e48282610a01565b6113275780826040517fe2517d3f00000000000000000000000000000000000000000000000000000000815260040161131e92919061270a565b60405180910390fd5b5050565b828054828255905f5260205f20908101928215611371579160200282015b828111156113705782518290816113609190611fc9565b5091602001919060010190611349565b5b50905061137e9190611382565b5090565b5b808211156113a1575f818161139891906113a5565b50600101611383565b5090565b5080546113b190611dfc565b5f825580601f106113c257506113df565b601f0160209004905f5260205f20908101906113de91906113e2565b5b50565b5b808211156113f9575f815f9055506001016113e3565b5090565b5f604051905090565b5f80fd5b5f80fd5b5f7fffffffff0000000000000000000000000000000000000000000000000000000082169050919050565b6114428161140e565b811461144c575f80fd5b50565b5f8135905061145d81611439565b92915050565b5f6020828403121561147857611477611406565b5b5f6114858482850161144f565b91505092915050565b5f8115159050919050565b6114a28161148e565b82525050565b5f6020820190506114bb5f830184611499565b92915050565b5f819050919050565b6114d3816114c1565b81146114dd575f80fd5b50565b5f813590506114ee816114ca565b92915050565b5f80fd5b5f80fd5b5f601f19601f8301169050919050565b7f4e487b71000000000000000000000000000000000000000000000000000000005f52604160045260245ffd5b611542826114fc565b810181811067ffffffffffffffff821117156115615761156061150c565b5b80604052505050565b5f6115736113fd565b905061157f8282611539565b919050565b5f67ffffffffffffffff82111561159e5761159d61150c565b5b6115a7826114fc565b9050602081019050919050565b828183375f83830152505050565b5f6115d46115cf84611584565b61156a565b9050828152602081018484840111156115f0576115ef6114f8565b5b6115fb8482856115b4565b509392505050565b5f82601f830112611617576116166114f4565b5b81356116278482602086016115c2565b91505092915050565b5f806040838503121561164657611645611406565b5b5f611653858286016114e0565b925050602083013567ffffffffffffffff8111156116745761167361140a565b5b61168085828601611603565b9150509250929050565b5f819050919050565b61169c8161168a565b81146116a6575f80fd5b50565b5f813590506116b781611693565b92915050565b5f602082840312156116d2576116d1611406565b5b5f6116df848285016116a9565b91505092915050565b6116f18161168a565b82525050565b5f60208201905061170a5f8301846116e8565b92915050565b5f73ffffffffffffffffffffffffffffffffffffffff82169050919050565b5f61173982611710565b9050919050565b6117498161172f565b8114611753575f80fd5b50565b5f8135905061176481611740565b92915050565b5f80604083850312156117805761177f611406565b5b5f61178d858286016116a9565b925050602061179e85828601611756565b9150509250929050565b5f602082840312156117bd576117bc611406565b5b5f6117ca848285016114e0565b91505092915050565b6117dc816114c1565b82525050565b5f81519050919050565b5f82825260208201905092915050565b8281835e5f83830152505050565b5f611814826117e2565b61181e81856117ec565b935061182e8185602086016117fc565b611837816114fc565b840191505092915050565b5f82825260208201905092915050565b5f61185c826117e2565b6118668185611842565b93506118768185602086016117fc565b61187f816114fc565b840191505092915050565b611893816114c1565b82525050565b6118a28161148e565b82525050565b5f60c083015f8301518482035f8601526118c28282611852565b915050602083015184820360208601526118dc8282611852565b91505060408301516118f1604086018261188a565b5060608301516119046060860182611899565b5060808301516119176080860182611899565b5060a083015161192a60a086018261188a565b508091505092915050565b5f60c0820190506119485f8301896117d3565b818103602083015261195a818861180a565b9050818103604083015261196e818761180a565b90508181036060830152611982818661180a565b905061199160808301856117d3565b81810360a08301526119a381846118a8565b9050979650505050505050565b6119b98161172f565b82525050565b5f6020820190506119d25f8301846119b0565b92915050565b5f602082840312156119ed576119ec611406565b5b5f6119fa84828501611756565b91505092915050565b5f67ffffffffffffffff821115611a1d57611a1c61150c565b5b602082029050602081019050919050565b5f80fd5b5f611a44611a3f84611a03565b61156a565b90508083825260208201905060208402830185811115611a6757611a66611a2e565b5b835b81811015611aae57803567ffffffffffffffff811115611a8c57611a8b6114f4565b5b808601611a998982611603565b85526020850194505050602081019050611a69565b5050509392505050565b5f82601f830112611acc57611acb6114f4565b5b8135611adc848260208601611a32565b91505092915050565b611aee8161148e565b8114611af8575f80fd5b50565b5f81359050611b0981611ae5565b92915050565b5f805f805f805f805f6101208a8c031215611b2d57611b2c611406565b5b5f8a013567ffffffffffffffff811115611b4a57611b4961140a565b5b611b568c828d01611603565b99505060208a013567ffffffffffffffff811115611b7757611b7661140a565b5b611b838c828d01611603565b98505060408a013567ffffffffffffffff811115611ba457611ba361140a565b5b611bb08c828d01611603565b97505060608a013567ffffffffffffffff811115611bd157611bd061140a565b5b611bdd8c828d01611ab8565b96505060808a013567ffffffffffffffff811115611bfe57611bfd61140a565b5b611c0a8c828d01611ab8565b95505060a0611c1b8c828d016114e0565b94505060c08a013567ffffffffffffffff811115611c3c57611c3b61140a565b5b611c488c828d01611603565b93505060e08a013567ffffffffffffffff811115611c6957611c6861140a565b5b611c758c828d01611603565b925050610100611c878c828d01611afb565b9150509295985092959850929598565b7f50726f6475637420686173206265656e207368697070656400000000000000005f82015250565b5f611ccb6018836117ec565b9150611cd682611c97565b602082019050919050565b5f6020820190508181035f830152611cf881611cbf565b9050919050565b7f50726f6475637420646f6573206e6f74206578697374000000000000000000005f82015250565b5f611d336016836117ec565b9150611d3e82611cff565b602082019050919050565b5f6020820190508181035f830152611d6081611d27565b9050919050565b7f50726f64756374206973206f7574206f662073746f636b0000000000000000005f82015250565b5f611d9b6017836117ec565b9150611da682611d67565b602082019050919050565b5f6020820190508181035f830152611dc881611d8f565b9050919050565b7f4e487b71000000000000000000000000000000000000000000000000000000005f52602260045260245ffd5b5f6002820490506001821680611e1357607f821691505b602082108103611e2657611e25611dcf565b5b50919050565b5f819050815f5260205f209050919050565b5f6020601f8301049050919050565b5f82821b905092915050565b5f60088302611e887fffffffffffffffffffffffffffffffffffffffffffffffffffffffffffffffff82611e4d565b611e928683611e4d565b95508019841693508086168417925050509392505050565b5f819050919050565b5f611ecd611ec8611ec3846114c1565b611eaa565b6114c1565b9050919050565b5f819050919050565b611ee683611eb3565b611efa611ef282611ed4565b848454611e59565b825550505050565b5f90565b611f0e611f02565b611f19818484611edd565b505050565b5b81811015611f3c57611f315f82611f06565b600181019050611f1f565b5050565b601f821115611f8157611f5281611e2c565b611f5b84611e3e565b81016020851015611f6a578190505b611f7e611f7685611e3e565b830182611f1e565b50505b505050565b5f82821c905092915050565b5f611fa15f1984600802611f86565b1980831691505092915050565b5f611fb98383611f92565b9150826002028217905092915050565b611fd2826117e2565b67ffffffffffffffff811115611feb57611fea61150c565b5b611ff58254611dfc565b612000828285611f40565b5f60209050601f831160018114612031575f841561201f578287015190505b6120298582611fae565b865550612090565b601f19841661203f86611e2c565b5f5b8281101561206657848901518255600182019150602085019450602081019050612041565b86831015612083578489015161207f601f891682611f92565b8355505b6001600288020188555050505b505050505050565b5f81546120a481611dfc565b6120ae81866117ec565b9450600182165f81146120c857600181146120de57612110565b60ff198316865281151560200286019350612110565b6120e785611e2c565b5f5b83811015612108578154818901526001820191506020810190506120e9565b808801955050505b50505092915050565b5f60a0820190508181035f8301526121318188612098565b905081810360208301526121458187612098565b905061215460408301866117d3565b61216160608301856117d3565b61216e6080830184611499565b9695505050505050565b7f55736572206e6f7420617574686f72697a6564000000000000000000000000005f82015250565b5f6121ac6013836117ec565b91506121b782612178565b602082019050919050565b5f6020820190508181035f8301526121d9816121a0565b9050919050565b7f456d7074792070726f647563742074797065206e6f7420616c6c6f77656400005f82015250565b5f612214601e836117ec565b915061221f826121e0565b602082019050919050565b5f6020820190508181035f83015261224181612208565b9050919050565b7f456d7074792070726f64756374206e616d65206e6f7420616c6c6f77656400005f82015250565b5f61227c601e836117ec565b915061228782612248565b602082019050919050565b5f6020820190508181035f8301526122a981612270565b9050919050565b7f456d707479206272616e64206e616d65206e6f7420616c6c6f776564000000005f82015250565b5f6122e4601c836117ec565b91506122ef826122b0565b602082019050919050565b5f6020820190508181035f830152612311816122d8565b9050919050565b7f5175616e74697479206d7573742062652067726561746572207468616e207a655f8201527f726f000000000000000000000000000000000000000000000000000000000000602082015250565b5f6123726022836117ec565b915061237d82612318565b604082019050919050565b5f6020820190508181035f83015261239f81612366565b9050919050565b7f50726f6475637420616c726561647920657869737473000000000000000000005f82015250565b5f6123da6016836117ec565b91506123e5826123a6565b602082019050919050565b5f6020820190508181035f830152612407816123ce565b9050919050565b5f81519050919050565b5f82825260208201905092915050565b5f819050602082019050919050565b5f6124428383611852565b905092915050565b5f602082019050919050565b5f6124608261240e565b61246a8185612418565b93508360208202850161247c85612428565b805f5b858110156124b757848403895281516124988582612437565b94506124a38361244a565b925060208a0199505060018101905061247f565b50829750879550505050505092915050565b5f81546124d581611dfc565b6124df8186611842565b9450600182165f81146124f9576001811461250f57612541565b60ff198316865281151560200286019350612541565b61251885611e2c565b5f5b838110156125395781548189015260018201915060208101905061251a565b808801955050505b50505092915050565b5f815f1c9050919050565b5f819050919050565b5f61257061256b8361254a565b612555565b9050919050565b5f60ff82169050919050565b5f6125956125908361254a565b612577565b9050919050565b5f8160081c9050919050565b5f6125ba6125b58361259c565b612577565b9050919050565b5f60c083015f8084018583035f8701526125db83826124c9565b9250506001840185830360208701526125f483826124c9565b925050600284015490506126078161255e565b612614604087018261188a565b506003840154905061262581612583565b6126326060870182611899565b5061263c816125a8565b6126496080870182611899565b506004840154905061265a8161255e565b61266760a087018261188a565b50819250505092915050565b5f60e0820190508181035f83015261268b818a61180a565b9050818103602083015261269f818961180a565b905081810360408301526126b3818861180a565b905081810360608301526126c78187612456565b905081810360808301526126db8186612456565b90506126ea60a08301856117d3565b81810360c08301526126fc81846125c1565b905098975050505050505050565b5f60408201905061271d5f8301856119b0565b61272a60208301846116e8565b939250505056fea2646970667358221220767fbf27469a277a6e57f2ba027e147700e46c1467ff619a7888b611b1d83a0564736f6c634300081a0033",
			"opcodes": "PUSH1 0x80 PUSH1 0x40 MSTORE CALLVALUE DUP1 ISZERO PUSH2 0xF JUMPI PUSH0 DUP1 REVERT JUMPDEST POP CALLER PUSH0 PUSH20 0xFFFFFFFFFFFFFFFFFFFFFFFFFFFFFFFFFFFFFFFF AND DUP2 PUSH20 0xFFFFFFFFFFFFFFFFFFFFFFFFFFFFFFFFFFFFFFFF AND SUB PUSH2 0x81 JUMPI PUSH0 PUSH1 0x40 MLOAD PUSH32 0x1E4FBDF700000000000000000000000000000000000000000000000000000000 DUP2 MSTORE PUSH1 0x4 ADD PUSH2 0x78 SWAP2 SWAP1 PUSH2 0x196 JUMP JUMPDEST PUSH1 0x40 MLOAD DUP1 SWAP2 SUB SWAP1 REVERT JUMPDEST PUSH2 0x90 DUP2 PUSH2 0x96 PUSH1 0x20 SHL PUSH1 0x20 SHR JUMP JUMPDEST POP PUSH2 0x1AF JUMP JUMPDEST PUSH0 DUP1 PUSH0 SWAP1 SLOAD SWAP1 PUSH2 0x100 EXP SWAP1 DIV PUSH20 0xFFFFFFFFFFFFFFFFFFFFFFFFFFFFFFFFFFFFFFFF AND SWAP1 POP DUP2 PUSH0 DUP1 PUSH2 0x100 EXP DUP2 SLOAD DUP2 PUSH20 0xFFFFFFFFFFFFFFFFFFFFFFFFFFFFFFFFFFFFFFFF MUL NOT AND SWAP1 DUP4 PUSH20 0xFFFFFFFFFFFFFFFFFFFFFFFFFFFFFFFFFFFFFFFF AND MUL OR SWAP1 SSTORE POP DUP2 PUSH20 0xFFFFFFFFFFFFFFFFFFFFFFFFFFFFFFFFFFFFFFFF AND DUP2 PUSH20 0xFFFFFFFFFFFFFFFFFFFFFFFFFFFFFFFFFFFFFFFF AND PUSH32 0x8BE0079C531659141344CD1FD0A4F28419497F9722A3DAAFE3B4186F6B6457E0 PUSH1 0x40 MLOAD PUSH1 0x40 MLOAD DUP1 SWAP2 SUB SWAP1 LOG3 POP POP JUMP JUMPDEST PUSH0 PUSH20 0xFFFFFFFFFFFFFFFFFFFFFFFFFFFFFFFFFFFFFFFF DUP3 AND SWAP1 POP SWAP2 SWAP1 POP JUMP JUMPDEST PUSH0 PUSH2 0x180 DUP3 PUSH2 0x157 JUMP JUMPDEST SWAP1 POP SWAP2 SWAP1 POP JUMP JUMPDEST PUSH2 0x190 DUP2 PUSH2 0x176 JUMP JUMPDEST DUP3 MSTORE POP POP JUMP JUMPDEST PUSH0 PUSH1 0x20 DUP3 ADD SWAP1 POP PUSH2 0x1A9 PUSH0 DUP4 ADD DUP5 PUSH2 0x187 JUMP JUMPDEST SWAP3 SWAP2 POP POP JUMP JUMPDEST PUSH2 0x2767 DUP1 PUSH2 0x1BC PUSH0 CODECOPY PUSH0 RETURN INVALID PUSH1 0x80 PUSH1 0x40 MSTORE CALLVALUE DUP1 ISZERO PUSH2 0xF JUMPI PUSH0 DUP1 REVERT JUMPDEST POP PUSH1 0x4 CALLDATASIZE LT PUSH2 0xFE JUMPI PUSH0 CALLDATALOAD PUSH1 0xE0 SHR DUP1 PUSH4 0x8F2FDB42 GT PUSH2 0x95 JUMPI DUP1 PUSH4 0xB48028E3 GT PUSH2 0x64 JUMPI DUP1 PUSH4 0xB48028E3 EQ PUSH2 0x299 JUMPI DUP1 PUSH4 0xD547741F EQ PUSH2 0x2B5 JUMPI DUP1 PUSH4 0xF2FDE38B EQ PUSH2 0x2D1 JUMPI DUP1 PUSH4 0xF6468251 EQ PUSH2 0x2ED JUMPI PUSH2 0xFE JUMP JUMPDEST DUP1 PUSH4 0x8F2FDB42 EQ PUSH2 0x213 JUMPI DUP1 PUSH4 0x91D14854 EQ PUSH2 0x22F JUMPI DUP1 PUSH4 0x9ED04F5D EQ PUSH2 0x25F JUMPI DUP1 PUSH4 0xA217FDDF EQ PUSH2 0x27B JUMPI PUSH2 0xFE JUMP JUMPDEST DUP1 PUSH4 0x36568ABE GT PUSH2 0xD1 JUMPI DUP1 PUSH4 0x36568ABE EQ PUSH2 0x19A JUMPI DUP1 PUSH4 0x715018A6 EQ PUSH2 0x1B6 JUMPI DUP1 PUSH4 0x7ACC0B20 EQ PUSH2 0x1C0 JUMPI DUP1 PUSH4 0x8DA5CB5B EQ PUSH2 0x1F5 JUMPI PUSH2 0xFE JUMP JUMPDEST DUP1 PUSH4 0x1FFC9A7 EQ PUSH2 0x102 JUMPI DUP1 PUSH4 0x21120F9A EQ PUSH2 0x132 JUMPI DUP1 PUSH4 0x248A9CA3 EQ PUSH2 0x14E JUMPI DUP1 PUSH4 0x2F2FF15D EQ PUSH2 0x17E JUMPI JUMPDEST PUSH0 DUP1 REVERT JUMPDEST PUSH2 0x11C PUSH1 0x4 DUP1 CALLDATASIZE SUB DUP2 ADD SWAP1 PUSH2 0x117 SWAP2 SWAP1 PUSH2 0x1463 JUMP JUMPDEST PUSH2 0x30B JUMP JUMPDEST PUSH1 0x40 MLOAD PUSH2 0x129 SWAP2 SWAP1 PUSH2 0x14A8 JUMP JUMPDEST PUSH1 0x40 MLOAD DUP1 SWAP2 SUB SWAP1 RETURN JUMPDEST PUSH2 0x14C PUSH1 0x4 DUP1 CALLDATASIZE SUB DUP2 ADD SWAP1 PUSH2 0x147 SWAP2 SWAP1 PUSH2 0x1630 JUMP JUMPDEST PUSH2 0x384 JUMP JUMPDEST STOP JUMPDEST PUSH2 0x168 PUSH1 0x4 DUP1 CALLDATASIZE SUB DUP2 ADD SWAP1 PUSH2 0x163 SWAP2 SWAP1 PUSH2 0x16BD JUMP JUMPDEST PUSH2 0x59B JUMP JUMPDEST PUSH1 0x40 MLOAD PUSH2 0x175 SWAP2 SWAP1 PUSH2 0x16F7 JUMP JUMPDEST PUSH1 0x40 MLOAD DUP1 SWAP2 SUB SWAP1 RETURN JUMPDEST PUSH2 0x198 PUSH1 0x4 DUP1 CALLDATASIZE SUB DUP2 ADD SWAP1 PUSH2 0x193 SWAP2 SWAP1 PUSH2 0x176A JUMP JUMPDEST PUSH2 0x5B8 JUMP JUMPDEST STOP JUMPDEST PUSH2 0x1B4 PUSH1 0x4 DUP1 CALLDATASIZE SUB DUP2 ADD SWAP1 PUSH2 0x1AF SWAP2 SWAP1 PUSH2 0x176A JUMP JUMPDEST PUSH2 0x5DA JUMP JUMPDEST STOP JUMPDEST PUSH2 0x1BE PUSH2 0x655 JUMP JUMPDEST STOP JUMPDEST PUSH2 0x1DA PUSH1 0x4 DUP1 CALLDATASIZE SUB DUP2 ADD SWAP1 PUSH2 0x1D5 SWAP2 SWAP1 PUSH2 0x17A8 JUMP JUMPDEST PUSH2 0x668 JUMP JUMPDEST PUSH1 0x40 MLOAD PUSH2 0x1EC SWAP7 SWAP6 SWAP5 SWAP4 SWAP3 SWAP2 SWAP1 PUSH2 0x1935 JUMP JUMPDEST PUSH1 0x40 MLOAD DUP1 SWAP2 SUB SWAP1 RETURN JUMPDEST PUSH2 0x1FD PUSH2 0x9A4 JUMP JUMPDEST PUSH1 0x40 MLOAD PUSH2 0x20A SWAP2 SWAP1 PUSH2 0x19BF JUMP JUMPDEST PUSH1 0x40 MLOAD DUP1 SWAP2 SUB SWAP1 RETURN JUMPDEST PUSH2 0x22D PUSH1 0x4 DUP1 CALLDATASIZE SUB DUP2 ADD SWAP1 PUSH2 0x228 SWAP2 SWAP1 PUSH2 0x19D8 JUMP JUMPDEST PUSH2 0x9CB JUMP JUMPDEST STOP JUMPDEST PUSH2 0x249 PUSH1 0x4 DUP1 CALLDATASIZE SUB DUP2 ADD SWAP1 PUSH2 0x244 SWAP2 SWAP1 PUSH2 0x176A JUMP JUMPDEST PUSH2 0xA01 JUMP JUMPDEST PUSH1 0x40 MLOAD PUSH2 0x256 SWAP2 SWAP1 PUSH2 0x14A8 JUMP JUMPDEST PUSH1 0x40 MLOAD DUP1 SWAP2 SUB SWAP1 RETURN JUMPDEST PUSH2 0x279 PUSH1 0x4 DUP1 CALLDATASIZE SUB DUP2 ADD SWAP1 PUSH2 0x274 SWAP2 SWAP1 PUSH2 0x1B0F JUMP JUMPDEST PUSH2 0xA65 JUMP JUMPDEST STOP JUMPDEST PUSH2 0x283 PUSH2 0xE35 JUMP JUMPDEST PUSH1 0x40 MLOAD PUSH2 0x290 SWAP2 SWAP1 PUSH2 0x16F7 JUMP JUMPDEST PUSH1 0x40 MLOAD DUP1 SWAP2 SUB SWAP1 RETURN JUMPDEST PUSH2 0x2B3 PUSH1 0x4 DUP1 CALLDATASIZE SUB DUP2 ADD SWAP1 PUSH2 0x2AE SWAP2 SWAP1 PUSH2 0x19D8 JUMP JUMPDEST PUSH2 0xE3B JUMP JUMPDEST STOP JUMPDEST PUSH2 0x2CF PUSH1 0x4 DUP1 CALLDATASIZE SUB DUP2 ADD SWAP1 PUSH2 0x2CA SWAP2 SWAP1 PUSH2 0x176A JUMP JUMPDEST PUSH2 0xE71 JUMP JUMPDEST STOP JUMPDEST PUSH2 0x2EB PUSH1 0x4 DUP1 CALLDATASIZE SUB DUP2 ADD SWAP1 PUSH2 0x2E6 SWAP2 SWAP1 PUSH2 0x19D8 JUMP JUMPDEST PUSH2 0xE93 JUMP JUMPDEST STOP JUMPDEST PUSH2 0x2F5 PUSH2 0xF17 JUMP JUMPDEST PUSH1 0x40 MLOAD PUSH2 0x302 SWAP2 SWAP1 PUSH2 0x16F7 JUMP JUMPDEST PUSH1 0x40 MLOAD DUP1 SWAP2 SUB SWAP1 RETURN JUMPDEST PUSH0 PUSH32 0x7965DB0B00000000000000000000000000000000000000000000000000000000 PUSH28 0xFFFFFFFFFFFFFFFFFFFFFFFFFFFFFFFFFFFFFFFFFFFFFFFFFFFFFFFF NOT AND DUP3 PUSH28 0xFFFFFFFFFFFFFFFFFFFFFFFFFFFFFFFFFFFFFFFFFFFFFFFFFFFFFFFF NOT AND EQ DUP1 PUSH2 0x37D JUMPI POP PUSH2 0x37C DUP3 PUSH2 0xF3B JUMP JUMPDEST JUMPDEST SWAP1 POP SWAP2 SWAP1 POP JUMP JUMPDEST DUP2 PUSH0 ISZERO ISZERO PUSH1 0x2 PUSH0 DUP4 DUP2 MSTORE PUSH1 0x20 ADD SWAP1 DUP2 MSTORE PUSH1 0x20 ADD PUSH0 KECCAK256 PUSH1 0x7 ADD PUSH1 0x3 ADD PUSH0 SWAP1 SLOAD SWAP1 PUSH2 0x100 EXP SWAP1 DIV PUSH1 0xFF AND ISZERO ISZERO SUB PUSH2 0x3EE JUMPI PUSH1 0x40 MLOAD PUSH32 0x8C379A000000000000000000000000000000000000000000000000000000000 DUP2 MSTORE PUSH1 0x4 ADD PUSH2 0x3E5 SWAP1 PUSH2 0x1CE1 JUMP JUMPDEST PUSH1 0x40 MLOAD DUP1 SWAP2 SUB SWAP1 REVERT JUMPDEST DUP1 PUSH1 0x2 PUSH0 DUP4 DUP2 MSTORE PUSH1 0x20 ADD SWAP1 DUP2 MSTORE PUSH1 0x20 ADD PUSH0 KECCAK256 PUSH0 ADD SLOAD EQ PUSH2 0x443 JUMPI PUSH1 0x40 MLOAD PUSH32 0x8C379A000000000000000000000000000000000000000000000000000000000 DUP2 MSTORE PUSH1 0x4 ADD PUSH2 0x43A SWAP1 PUSH2 0x1D49 JUMP JUMPDEST PUSH1 0x40 MLOAD DUP1 SWAP2 SUB SWAP1 REVERT JUMPDEST PUSH0 PUSH1 0x2 PUSH0 DUP4 DUP2 MSTORE PUSH1 0x20 ADD SWAP1 DUP2 MSTORE PUSH1 0x20 ADD PUSH0 KECCAK256 PUSH1 0x6 ADD SLOAD SUB PUSH2 0x499 JUMPI PUSH1 0x40 MLOAD PUSH32 0x8C379A000000000000000000000000000000000000000000000000000000000 DUP2 MSTORE PUSH1 0x4 ADD PUSH2 0x490 SWAP1 PUSH2 0x1DB1 JUMP JUMPDEST PUSH1 0x40 MLOAD DUP1 SWAP2 SUB SWAP1 REVERT JUMPDEST DUP2 PUSH1 0x2 PUSH0 DUP6 DUP2 MSTORE PUSH1 0x20 ADD SWAP1 DUP2 MSTORE PUSH1 0x20 ADD PUSH0 KECCAK256 PUSH1 0x7 ADD PUSH0 ADD SWAP1 DUP2 PUSH2 0x4BC SWAP2 SWAP1 PUSH2 0x1FC9 JUMP JUMPDEST POP TIMESTAMP PUSH1 0x2 PUSH0 DUP6 DUP2 MSTORE PUSH1 0x20 ADD SWAP1 DUP2 MSTORE PUSH1 0x20 ADD PUSH0 KECCAK256 PUSH1 0x7 ADD PUSH1 0x2 ADD DUP2 SWAP1 SSTORE POP PUSH1 0x1 PUSH1 0x2 PUSH0 DUP6 DUP2 MSTORE PUSH1 0x20 ADD SWAP1 DUP2 MSTORE PUSH1 0x20 ADD PUSH0 KECCAK256 PUSH1 0x7 ADD PUSH1 0x3 ADD PUSH0 PUSH2 0x100 EXP DUP2 SLOAD DUP2 PUSH1 0xFF MUL NOT AND SWAP1 DUP4 ISZERO ISZERO MUL OR SWAP1 SSTORE POP PUSH32 0xF295C689D401CE1625E9BD2ADBA7641F92CC231677989C7FE706354CB643E798 PUSH1 0x2 PUSH0 DUP6 DUP2 MSTORE PUSH1 0x20 ADD SWAP1 DUP2 MSTORE PUSH1 0x20 ADD PUSH0 KECCAK256 PUSH1 0x7 ADD PUSH0 ADD PUSH1 0x2 PUSH0 DUP7 DUP2 MSTORE PUSH1 0x20 ADD SWAP1 DUP2 MSTORE PUSH1 0x20 ADD PUSH0 KECCAK256 PUSH1 0x7 ADD PUSH1 0x1 ADD TIMESTAMP DUP7 PUSH1 0x2 PUSH0 DUP10 DUP2 MSTORE PUSH1 0x20 ADD SWAP1 DUP2 MSTORE PUSH1 0x20 ADD PUSH0 KECCAK256 PUSH1 0x7 ADD PUSH1 0x3 ADD PUSH1 0x1 SWAP1 SLOAD SWAP1 PUSH2 0x100 EXP SWAP1 DIV PUSH1 0xFF AND PUSH1 0x40 MLOAD PUSH2 0x58E SWAP6 SWAP5 SWAP4 SWAP3 SWAP2 SWAP1 PUSH2 0x2119 JUMP JUMPDEST PUSH1 0x40 MLOAD DUP1 SWAP2 SUB SWAP1 LOG1 POP POP POP JUMP JUMPDEST PUSH0 PUSH1 0x1 PUSH0 DUP4 DUP2 MSTORE PUSH1 0x20 ADD SWAP1 DUP2 MSTORE PUSH1 0x20 ADD PUSH0 KECCAK256 PUSH1 0x1 ADD SLOAD SWAP1 POP SWAP2 SWAP1 POP JUMP JUMPDEST PUSH2 0x5C1 DUP3 PUSH2 0x59B JUMP JUMPDEST PUSH2 0x5CA DUP2 PUSH2 0xFA4 JUMP JUMPDEST PUSH2 0x5D4 DUP4 DUP4 PUSH2 0xFB8 JUMP JUMPDEST POP POP POP POP JUMP JUMPDEST PUSH2 0x5E2 PUSH2 0x10A1 JUMP JUMPDEST PUSH20 0xFFFFFFFFFFFFFFFFFFFFFFFFFFFFFFFFFFFFFFFF AND DUP2 PUSH20 0xFFFFFFFFFFFFFFFFFFFFFFFFFFFFFFFFFFFFFFFF AND EQ PUSH2 0x646 JUMPI PUSH1 0x40 MLOAD PUSH32 0x6697B23200000000000000000000000000000000000000000000000000000000 DUP2 MSTORE PUSH1 0x4 ADD PUSH1 0x40 MLOAD DUP1 SWAP2 SUB SWAP1 REVERT JUMPDEST PUSH2 0x650 DUP3 DUP3 PUSH2 0x10A8 JUMP JUMPDEST POP POP POP JUMP JUMPDEST PUSH2 0x65D PUSH2 0x1192 JUMP JUMPDEST PUSH2 0x666 PUSH0 PUSH2 0x1219 JUMP JUMPDEST JUMP JUMPDEST PUSH1 0x2 PUSH1 0x20 MSTORE DUP1 PUSH0 MSTORE PUSH1 0x40 PUSH0 KECCAK256 PUSH0 SWAP2 POP SWAP1 POP DUP1 PUSH0 ADD SLOAD SWAP1 DUP1 PUSH1 0x1 ADD DUP1 SLOAD PUSH2 0x68D SWAP1 PUSH2 0x1DFC JUMP JUMPDEST DUP1 PUSH1 0x1F ADD PUSH1 0x20 DUP1 SWAP2 DIV MUL PUSH1 0x20 ADD PUSH1 0x40 MLOAD SWAP1 DUP2 ADD PUSH1 0x40 MSTORE DUP1 SWAP3 SWAP2 SWAP1 DUP2 DUP2 MSTORE PUSH1 0x20 ADD DUP3 DUP1 SLOAD PUSH2 0x6B9 SWAP1 PUSH2 0x1DFC JUMP JUMPDEST DUP1 ISZERO PUSH2 0x704 JUMPI DUP1 PUSH1 0x1F LT PUSH2 0x6DB JUMPI PUSH2 0x100 DUP1 DUP4 SLOAD DIV MUL DUP4 MSTORE SWAP2 PUSH1 0x20 ADD SWAP2 PUSH2 0x704 JUMP JUMPDEST DUP3 ADD SWAP2 SWAP1 PUSH0 MSTORE PUSH1 0x20 PUSH0 KECCAK256 SWAP1 JUMPDEST DUP2 SLOAD DUP2 MSTORE SWAP1 PUSH1 0x1 ADD SWAP1 PUSH1 0x20 ADD DUP1 DUP4 GT PUSH2 0x6E7 JUMPI DUP3 SWAP1 SUB PUSH1 0x1F AND DUP3 ADD SWAP2 JUMPDEST POP POP POP POP POP SWAP1 DUP1 PUSH1 0x2 ADD DUP1 SLOAD PUSH2 0x719 SWAP1 PUSH2 0x1DFC JUMP JUMPDEST DUP1 PUSH1 0x1F ADD PUSH1 0x20 DUP1 SWAP2 DIV MUL PUSH1 0x20 ADD PUSH1 0x40 MLOAD SWAP1 DUP2 ADD PUSH1 0x40 MSTORE DUP1 SWAP3 SWAP2 SWAP1 DUP2 DUP2 MSTORE PUSH1 0x20 ADD DUP3 DUP1 SLOAD PUSH2 0x745 SWAP1 PUSH2 0x1DFC JUMP JUMPDEST DUP1 ISZERO PUSH2 0x790 JUMPI DUP1 PUSH1 0x1F LT PUSH2 0x767 JUMPI PUSH2 0x100 DUP1 DUP4 SLOAD DIV MUL DUP4 MSTORE SWAP2 PUSH1 0x20 ADD SWAP2 PUSH2 0x790 JUMP JUMPDEST DUP3 ADD SWAP2 SWAP1 PUSH0 MSTORE PUSH1 0x20 PUSH0 KECCAK256 SWAP1 JUMPDEST DUP2 SLOAD DUP2 MSTORE SWAP1 PUSH1 0x1 ADD SWAP1 PUSH1 0x20 ADD DUP1 DUP4 GT PUSH2 0x773 JUMPI DUP3 SWAP1 SUB PUSH1 0x1F AND DUP3 ADD SWAP2 JUMPDEST POP POP POP POP POP SWAP1 DUP1 PUSH1 0x3 ADD DUP1 SLOAD PUSH2 0x7A5 SWAP1 PUSH2 0x1DFC JUMP JUMPDEST DUP1 PUSH1 0x1F ADD PUSH1 0x20 DUP1 SWAP2 DIV MUL PUSH1 0x20 ADD PUSH1 0x40 MLOAD SWAP1 DUP2 ADD PUSH1 0x40 MSTORE DUP1 SWAP3 SWAP2 SWAP1 DUP2 DUP2 MSTORE PUSH1 0x20 ADD DUP3 DUP1 SLOAD PUSH2 0x7D1 SWAP1 PUSH2 0x1DFC JUMP JUMPDEST DUP1 ISZERO PUSH2 0x81C JUMPI DUP1 PUSH1 0x1F LT PUSH2 0x7F3 JUMPI PUSH2 0x100 DUP1 DUP4 SLOAD DIV MUL DUP4 MSTORE SWAP2 PUSH1 0x20 ADD SWAP2 PUSH2 0x81C JUMP JUMPDEST DUP3 ADD SWAP2 SWAP1 PUSH0 MSTORE PUSH1 0x20 PUSH0 KECCAK256 SWAP1 JUMPDEST DUP2 SLOAD DUP2 MSTORE SWAP1 PUSH1 0x1 ADD SWAP1 PUSH1 0x20 ADD DUP1 DUP4 GT PUSH2 0x7FF JUMPI DUP3 SWAP1 SUB PUSH1 0x1F AND DUP3 ADD SWAP2 JUMPDEST POP POP POP POP POP SWAP1 DUP1 PUSH1 0x6 ADD SLOAD SWAP1 DUP1 PUSH1 0x7 ADD PUSH1 0x40 MLOAD DUP1 PUSH1 0xC0 ADD PUSH1 0x40 MSTORE SWAP1 DUP2 PUSH0 DUP3 ADD DUP1 SLOAD PUSH2 0x846 SWAP1 PUSH2 0x1DFC JUMP JUMPDEST DUP1 PUSH1 0x1F ADD PUSH1 0x20 DUP1 SWAP2 DIV MUL PUSH1 0x20 ADD PUSH1 0x40 MLOAD SWAP1 DUP2 ADD PUSH1 0x40 MSTORE DUP1 SWAP3 SWAP2 SWAP1 DUP2 DUP2 MSTORE PUSH1 0x20 ADD DUP3 DUP1 SLOAD PUSH2 0x872 SWAP1 PUSH2 0x1DFC JUMP JUMPDEST DUP1 ISZERO PUSH2 0x8BD JUMPI DUP1 PUSH1 0x1F LT PUSH2 0x894 JUMPI PUSH2 0x100 DUP1 DUP4 SLOAD DIV MUL DUP4 MSTORE SWAP2 PUSH1 0x20 ADD SWAP2 PUSH2 0x8BD JUMP JUMPDEST DUP3 ADD SWAP2 SWAP1 PUSH0 MSTORE PUSH1 0x20 PUSH0 KECCAK256 SWAP1 JUMPDEST DUP2 SLOAD DUP2 MSTORE SWAP1 PUSH1 0x1 ADD SWAP1 PUSH1 0x20 ADD DUP1 DUP4 GT PUSH2 0x8A0 JUMPI DUP3 SWAP1 SUB PUSH1 0x1F AND DUP3 ADD SWAP2 JUMPDEST POP POP POP POP POP DUP2 MSTORE PUSH1 0x20 ADD PUSH1 0x1 DUP3 ADD DUP1 SLOAD PUSH2 0x8D6 SWAP1 PUSH2 0x1DFC JUMP JUMPDEST DUP1 PUSH1 0x1F ADD PUSH1 0x20 DUP1 SWAP2 DIV MUL PUSH1 0x20 ADD PUSH1 0x40 MLOAD SWAP1 DUP2 ADD PUSH1 0x40 MSTORE DUP1 SWAP3 SWAP2 SWAP1 DUP2 DUP2 MSTORE PUSH1 0x20 ADD DUP3 DUP1 SLOAD PUSH2 0x902 SWAP1 PUSH2 0x1DFC JUMP JUMPDEST DUP1 ISZERO PUSH2 0x94D JUMPI DUP1 PUSH1 0x1F LT PUSH2 0x924 JUMPI PUSH2 0x100 DUP1 DUP4 SLOAD DIV MUL DUP4 MSTORE SWAP2 PUSH1 0x20 ADD SWAP2 PUSH2 0x94D JUMP JUMPDEST DUP3 ADD SWAP2 SWAP1 PUSH0 MSTORE PUSH1 0x20 PUSH0 KECCAK256 SWAP1 JUMPDEST DUP2 SLOAD DUP2 MSTORE SWAP1 PUSH1 0x1 ADD SWAP1 PUSH1 0x20 ADD DUP1 DUP4 GT PUSH2 0x930 JUMPI DUP3 SWAP1 SUB PUSH1 0x1F AND DUP3 ADD SWAP2 JUMPDEST POP POP POP POP POP DUP2 MSTORE PUSH1 0x20 ADD PUSH1 0x2 DUP3 ADD SLOAD DUP2 MSTORE PUSH1 0x20 ADD PUSH1 0x3 DUP3 ADD PUSH0 SWAP1 SLOAD SWAP1 PUSH2 0x100 EXP SWAP1 DIV PUSH1 0xFF AND ISZERO ISZERO ISZERO ISZERO DUP2 MSTORE PUSH1 0x20 ADD PUSH1 0x3 DUP3 ADD PUSH1 0x1 SWAP1 SLOAD SWAP1 PUSH2 0x100 EXP SWAP1 DIV PUSH1 0xFF AND ISZERO ISZERO ISZERO ISZERO DUP2 MSTORE PUSH1 0x20 ADD PUSH1 0x4 DUP3 ADD SLOAD DUP2 MSTORE POP POP SWAP1 POP DUP7 JUMP JUMPDEST PUSH0 DUP1 PUSH0 SWAP1 SLOAD SWAP1 PUSH2 0x100 EXP SWAP1 DIV PUSH20 0xFFFFFFFFFFFFFFFFFFFFFFFFFFFFFFFFFFFFFFFF AND SWAP1 POP SWAP1 JUMP JUMPDEST PUSH2 0x9D3 PUSH2 0x1192 JUMP JUMPDEST PUSH2 0x9FD PUSH32 0x393B4C1B6519E8B53AE0EFA1AB522060A3B9F8D86D09C8A22CA6D6EEA735CF7 DUP3 PUSH2 0xFB8 JUMP JUMPDEST POP POP JUMP JUMPDEST PUSH0 PUSH1 0x1 PUSH0 DUP5 DUP2 MSTORE PUSH1 0x20 ADD SWAP1 DUP2 MSTORE PUSH1 0x20 ADD PUSH0 KECCAK256 PUSH0 ADD PUSH0 DUP4 PUSH20 0xFFFFFFFFFFFFFFFFFFFFFFFFFFFFFFFFFFFFFFFF AND PUSH20 0xFFFFFFFFFFFFFFFFFFFFFFFFFFFFFFFFFFFFFFFF AND DUP2 MSTORE PUSH1 0x20 ADD SWAP1 DUP2 MSTORE PUSH1 0x20 ADD PUSH0 KECCAK256 PUSH0 SWAP1 SLOAD SWAP1 PUSH2 0x100 EXP SWAP1 DIV PUSH1 0xFF AND SWAP1 POP SWAP3 SWAP2 POP POP JUMP JUMPDEST PUSH2 0xA8F PUSH32 0x393B4C1B6519E8B53AE0EFA1AB522060A3B9F8D86D09C8A22CA6D6EEA735CF7 CALLER PUSH2 0xA01 JUMP JUMPDEST PUSH2 0xACE JUMPI PUSH1 0x40 MLOAD PUSH32 0x8C379A000000000000000000000000000000000000000000000000000000000 DUP2 MSTORE PUSH1 0x4 ADD PUSH2 0xAC5 SWAP1 PUSH2 0x21C2 JUMP JUMPDEST PUSH1 0x40 MLOAD DUP1 SWAP2 SUB SWAP1 REVERT JUMPDEST PUSH0 DUP10 MLOAD GT PUSH2 0xB11 JUMPI PUSH1 0x40 MLOAD PUSH32 0x8C379A000000000000000000000000000000000000000000000000000000000 DUP2 MSTORE PUSH1 0x4 ADD PUSH2 0xB08 SWAP1 PUSH2 0x222A JUMP JUMPDEST PUSH1 0x40 MLOAD DUP1 SWAP2 SUB SWAP1 REVERT JUMPDEST PUSH0 DUP9 MLOAD GT PUSH2 0xB54 JUMPI PUSH1 0x40 MLOAD PUSH32 0x8C379A000000000000000000000000000000000000000000000000000000000 DUP2 MSTORE PUSH1 0x4 ADD PUSH2 0xB4B SWAP1 PUSH2 0x2292 JUMP JUMPDEST PUSH1 0x40 MLOAD DUP1 SWAP2 SUB SWAP1 REVERT JUMPDEST PUSH0 DUP8 MLOAD GT PUSH2 0xB97 JUMPI PUSH1 0x40 MLOAD PUSH32 0x8C379A000000000000000000000000000000000000000000000000000000000 DUP2 MSTORE PUSH1 0x4 ADD PUSH2 0xB8E SWAP1 PUSH2 0x22FA JUMP JUMPDEST PUSH1 0x40 MLOAD DUP1 SWAP2 SUB SWAP1 REVERT JUMPDEST PUSH0 DUP5 GT PUSH2 0xBD9 JUMPI PUSH1 0x40 MLOAD PUSH32 0x8C379A000000000000000000000000000000000000000000000000000000000 DUP2 MSTORE PUSH1 0x4 ADD PUSH2 0xBD0 SWAP1 PUSH2 0x2388 JUMP JUMPDEST PUSH1 0x40 MLOAD DUP1 SWAP2 SUB SWAP1 REVERT JUMPDEST PUSH0 TIMESTAMP SWAP1 POP PUSH0 PUSH1 0x2 PUSH0 DUP4 DUP2 MSTORE PUSH1 0x20 ADD SWAP1 DUP2 MSTORE PUSH1 0x20 ADD PUSH0 KECCAK256 PUSH0 ADD SLOAD EQ PUSH2 0xC32 JUMPI PUSH1 0x40 MLOAD PUSH32 0x8C379A000000000000000000000000000000000000000000000000000000000 DUP2 MSTORE PUSH1 0x4 ADD PUSH2 0xC29 SWAP1 PUSH2 0x23F0 JUMP JUMPDEST PUSH1 0x40 MLOAD DUP1 SWAP2 SUB SWAP1 REVERT JUMPDEST PUSH1 0x40 MLOAD DUP1 PUSH2 0x100 ADD PUSH1 0x40 MSTORE DUP1 DUP3 DUP2 MSTORE PUSH1 0x20 ADD DUP12 DUP2 MSTORE PUSH1 0x20 ADD DUP10 DUP2 MSTORE PUSH1 0x20 ADD DUP11 DUP2 MSTORE PUSH1 0x20 ADD DUP9 DUP2 MSTORE PUSH1 0x20 ADD DUP8 DUP2 MSTORE PUSH1 0x20 ADD DUP7 DUP2 MSTORE PUSH1 0x20 ADD PUSH1 0x40 MLOAD DUP1 PUSH1 0xC0 ADD PUSH1 0x40 MSTORE DUP1 DUP8 DUP2 MSTORE PUSH1 0x20 ADD DUP7 DUP2 MSTORE PUSH1 0x20 ADD DUP6 PUSH2 0xC8A JUMPI PUSH0 PUSH2 0xC8C JUMP JUMPDEST TIMESTAMP JUMPDEST DUP2 MSTORE PUSH1 0x20 ADD DUP6 ISZERO ISZERO DUP2 MSTORE PUSH1 0x20 ADD PUSH0 ISZERO ISZERO DUP2 MSTORE PUSH1 0x20 ADD PUSH0 DUP2 MSTORE POP DUP2 MSTORE POP PUSH1 0x2 PUSH0 DUP4 DUP2 MSTORE PUSH1 0x20 ADD SWAP1 DUP2 MSTORE PUSH1 0x20 ADD PUSH0 KECCAK256 PUSH0 DUP3 ADD MLOAD DUP2 PUSH0 ADD SSTORE PUSH1 0x20 DUP3 ADD MLOAD DUP2 PUSH1 0x1 ADD SWAP1 DUP2 PUSH2 0xCD6 SWAP2 SWAP1 PUSH2 0x1FC9 JUMP JUMPDEST POP PUSH1 0x40 DUP3 ADD MLOAD DUP2 PUSH1 0x2 ADD SWAP1 DUP2 PUSH2 0xCEC SWAP2 SWAP1 PUSH2 0x1FC9 JUMP JUMPDEST POP PUSH1 0x60 DUP3 ADD MLOAD DUP2 PUSH1 0x3 ADD SWAP1 DUP2 PUSH2 0xD02 SWAP2 SWAP1 PUSH2 0x1FC9 JUMP JUMPDEST POP PUSH1 0x80 DUP3 ADD MLOAD DUP2 PUSH1 0x4 ADD SWAP1 DUP1 MLOAD SWAP1 PUSH1 0x20 ADD SWAP1 PUSH2 0xD1F SWAP3 SWAP2 SWAP1 PUSH2 0x132B JUMP JUMPDEST POP PUSH1 0xA0 DUP3 ADD MLOAD DUP2 PUSH1 0x5 ADD SWAP1 DUP1 MLOAD SWAP1 PUSH1 0x20 ADD SWAP1 PUSH2 0xD3C SWAP3 SWAP2 SWAP1 PUSH2 0x132B JUMP JUMPDEST POP PUSH1 0xC0 DUP3 ADD MLOAD DUP2 PUSH1 0x6 ADD SSTORE PUSH1 0xE0 DUP3 ADD MLOAD DUP2 PUSH1 0x7 ADD PUSH0 DUP3 ADD MLOAD DUP2 PUSH0 ADD SWAP1 DUP2 PUSH2 0xD63 SWAP2 SWAP1 PUSH2 0x1FC9 JUMP JUMPDEST POP PUSH1 0x20 DUP3 ADD MLOAD DUP2 PUSH1 0x1 ADD SWAP1 DUP2 PUSH2 0xD79 SWAP2 SWAP1 PUSH2 0x1FC9 JUMP JUMPDEST POP PUSH1 0x40 DUP3 ADD MLOAD DUP2 PUSH1 0x2 ADD SSTORE PUSH1 0x60 DUP3 ADD MLOAD DUP2 PUSH1 0x3 ADD PUSH0 PUSH2 0x100 EXP DUP2 SLOAD DUP2 PUSH1 0xFF MUL NOT AND SWAP1 DUP4 ISZERO ISZERO MUL OR SWAP1 SSTORE POP PUSH1 0x80 DUP3 ADD MLOAD DUP2 PUSH1 0x3 ADD PUSH1 0x1 PUSH2 0x100 EXP DUP2 SLOAD DUP2 PUSH1 0xFF MUL NOT AND SWAP1 DUP4 ISZERO ISZERO MUL OR SWAP1 SSTORE POP PUSH1 0xA0 DUP3 ADD MLOAD DUP2 PUSH1 0x4 ADD SSTORE POP POP SWAP1 POP POP DUP1 PUSH32 0xD7BF816AF497BF92D24AE6F5EC9050085F3575C329F242679FC0081FB7E6E54A DUP12 DUP11 DUP13 DUP12 DUP12 DUP12 PUSH1 0x2 PUSH0 DUP11 DUP2 MSTORE PUSH1 0x20 ADD SWAP1 DUP2 MSTORE PUSH1 0x20 ADD PUSH0 KECCAK256 PUSH1 0x7 ADD PUSH1 0x40 MLOAD PUSH2 0xE21 SWAP8 SWAP7 SWAP6 SWAP5 SWAP4 SWAP3 SWAP2 SWAP1 PUSH2 0x2673 JUMP JUMPDEST PUSH1 0x40 MLOAD DUP1 SWAP2 SUB SWAP1 LOG2 POP POP POP POP POP POP POP POP POP POP JUMP JUMPDEST PUSH0 DUP1 SHL DUP2 JUMP JUMPDEST PUSH2 0xE43 PUSH2 0x1192 JUMP JUMPDEST PUSH2 0xE6D PUSH32 0x393B4C1B6519E8B53AE0EFA1AB522060A3B9F8D86D09C8A22CA6D6EEA735CF7 DUP3 PUSH2 0x10A8 JUMP JUMPDEST POP POP JUMP JUMPDEST PUSH2 0xE7A DUP3 PUSH2 0x59B JUMP JUMPDEST PUSH2 0xE83 DUP2 PUSH2 0xFA4 JUMP JUMPDEST PUSH2 0xE8D DUP4 DUP4 PUSH2 0x10A8 JUMP JUMPDEST POP POP POP POP JUMP JUMPDEST PUSH2 0xE9B PUSH2 0x1192 JUMP JUMPDEST PUSH0 PUSH20 0xFFFFFFFFFFFFFFFFFFFFFFFFFFFFFFFFFFFFFFFF AND DUP2 PUSH20 0xFFFFFFFFFFFFFFFFFFFFFFFFFFFFFFFFFFFFFFFF AND SUB PUSH2 0xF0B JUMPI PUSH0 PUSH1 0x40 MLOAD PUSH32 0x1E4FBDF700000000000000000000000000000000000000000000000000000000 DUP2 MSTORE PUSH1 0x4 ADD PUSH2 0xF02 SWAP2 SWAP1 PUSH2 0x19BF JUMP JUMPDEST PUSH1 0x40 MLOAD DUP1 SWAP2 SUB SWAP1 REVERT JUMPDEST PUSH2 0xF14 DUP2 PUSH2 0x1219 JUMP JUMPDEST POP JUMP JUMPDEST PUSH32 0x393B4C1B6519E8B53AE0EFA1AB522060A3B9F8D86D09C8A22CA6D6EEA735CF7 DUP2 JUMP JUMPDEST PUSH0 PUSH32 0x1FFC9A700000000000000000000000000000000000000000000000000000000 PUSH28 0xFFFFFFFFFFFFFFFFFFFFFFFFFFFFFFFFFFFFFFFFFFFFFFFFFFFFFFFF NOT AND DUP3 PUSH28 0xFFFFFFFFFFFFFFFFFFFFFFFFFFFFFFFFFFFFFFFFFFFFFFFFFFFFFFFF NOT AND EQ SWAP1 POP SWAP2 SWAP1 POP JUMP JUMPDEST PUSH2 0xFB5 DUP2 PUSH2 0xFB0 PUSH2 0x10A1 JUMP JUMPDEST PUSH2 0x12DA JUMP JUMPDEST POP JUMP JUMPDEST PUSH0 PUSH2 0xFC3 DUP4 DUP4 PUSH2 0xA01 JUMP JUMPDEST PUSH2 0x1097 JUMPI PUSH1 0x1 DUP1 PUSH0 DUP6 DUP2 MSTORE PUSH1 0x20 ADD SWAP1 DUP2 MSTORE PUSH1 0x20 ADD PUSH0 KECCAK256 PUSH0 ADD PUSH0 DUP5 PUSH20 0xFFFFFFFFFFFFFFFFFFFFFFFFFFFFFFFFFFFFFFFF AND PUSH20 0xFFFFFFFFFFFFFFFFFFFFFFFFFFFFFFFFFFFFFFFF AND DUP2 MSTORE PUSH1 0x20 ADD SWAP1 DUP2 MSTORE PUSH1 0x20 ADD PUSH0 KECCAK256 PUSH0 PUSH2 0x100 EXP DUP2 SLOAD DUP2 PUSH1 0xFF MUL NOT AND SWAP1 DUP4 ISZERO ISZERO MUL OR SWAP1 SSTORE POP PUSH2 0x1034 PUSH2 0x10A1 JUMP JUMPDEST PUSH20 0xFFFFFFFFFFFFFFFFFFFFFFFFFFFFFFFFFFFFFFFF AND DUP3 PUSH20 0xFFFFFFFFFFFFFFFFFFFFFFFFFFFFFFFFFFFFFFFF AND DUP5 PUSH32 0x2F8788117E7EFF1D82E926EC794901D17C78024A50270940304540A733656F0D PUSH1 0x40 MLOAD PUSH1 0x40 MLOAD DUP1 SWAP2 SUB SWAP1 LOG4 PUSH1 0x1 SWAP1 POP PUSH2 0x109B JUMP JUMPDEST PUSH0 SWAP1 POP JUMPDEST SWAP3 SWAP2 POP POP JUMP JUMPDEST PUSH0 CALLER SWAP1 POP SWAP1 JUMP JUMPDEST PUSH0 PUSH2 0x10B3 DUP4 DUP4 PUSH2 0xA01 JUMP JUMPDEST ISZERO PUSH2 0x1188 JUMPI PUSH0 PUSH1 0x1 PUSH0 DUP6 DUP2 MSTORE PUSH1 0x20 ADD SWAP1 DUP2 MSTORE PUSH1 0x20 ADD PUSH0 KECCAK256 PUSH0 ADD PUSH0 DUP5 PUSH20 0xFFFFFFFFFFFFFFFFFFFFFFFFFFFFFFFFFFFFFFFF AND PUSH20 0xFFFFFFFFFFFFFFFFFFFFFFFFFFFFFFFFFFFFFFFF AND DUP2 MSTORE PUSH1 0x20 ADD SWAP1 DUP2 MSTORE PUSH1 0x20 ADD PUSH0 KECCAK256 PUSH0 PUSH2 0x100 EXP DUP2 SLOAD DUP2 PUSH1 0xFF MUL NOT AND SWAP1 DUP4 ISZERO ISZERO MUL OR SWAP1 SSTORE POP PUSH2 0x1125 PUSH2 0x10A1 JUMP JUMPDEST PUSH20 0xFFFFFFFFFFFFFFFFFFFFFFFFFFFFFFFFFFFFFFFF AND DUP3 PUSH20 0xFFFFFFFFFFFFFFFFFFFFFFFFFFFFFFFFFFFFFFFF AND DUP5 PUSH32 0xF6391F5C32D9C69D2A47EA670B442974B53935D1EDC7FD64EB21E047A839171B PUSH1 0x40 MLOAD PUSH1 0x40 MLOAD DUP1 SWAP2 SUB SWAP1 LOG4 PUSH1 0x1 SWAP1 POP PUSH2 0x118C JUMP JUMPDEST PUSH0 SWAP1 POP JUMPDEST SWAP3 SWAP2 POP POP JUMP JUMPDEST PUSH2 0x119A PUSH2 0x10A1 JUMP JUMPDEST PUSH20 0xFFFFFFFFFFFFFFFFFFFFFFFFFFFFFFFFFFFFFFFF AND PUSH2 0x11B8 PUSH2 0x9A4 JUMP JUMPDEST PUSH20 0xFFFFFFFFFFFFFFFFFFFFFFFFFFFFFFFFFFFFFFFF AND EQ PUSH2 0x1217 JUMPI PUSH2 0x11DB PUSH2 0x10A1 JUMP JUMPDEST PUSH1 0x40 MLOAD PUSH32 0x118CDAA700000000000000000000000000000000000000000000000000000000 DUP2 MSTORE PUSH1 0x4 ADD PUSH2 0x120E SWAP2 SWAP1 PUSH2 0x19BF JUMP JUMPDEST PUSH1 0x40 MLOAD DUP1 SWAP2 SUB SWAP1 REVERT JUMPDEST JUMP JUMPDEST PUSH0 DUP1 PUSH0 SWAP1 SLOAD SWAP1 PUSH2 0x100 EXP SWAP1 DIV PUSH20 0xFFFFFFFFFFFFFFFFFFFFFFFFFFFFFFFFFFFFFFFF AND SWAP1 POP DUP2 PUSH0 DUP1 PUSH2 0x100 EXP DUP2 SLOAD DUP2 PUSH20 0xFFFFFFFFFFFFFFFFFFFFFFFFFFFFFFFFFFFFFFFF MUL NOT AND SWAP1 DUP4 PUSH20 0xFFFFFFFFFFFFFFFFFFFFFFFFFFFFFFFFFFFFFFFF AND MUL OR SWAP1 SSTORE POP DUP2 PUSH20 0xFFFFFFFFFFFFFFFFFFFFFFFFFFFFFFFFFFFFFFFF AND DUP2 PUSH20 0xFFFFFFFFFFFFFFFFFFFFFFFFFFFFFFFFFFFFFFFF AND PUSH32 0x8BE0079C531659141344CD1FD0A4F28419497F9722A3DAAFE3B4186F6B6457E0 PUSH1 0x40 MLOAD PUSH1 0x40 MLOAD DUP1 SWAP2 SUB SWAP1 LOG3 POP POP JUMP JUMPDEST PUSH2 0x12E4 DUP3 DUP3 PUSH2 0xA01 JUMP JUMPDEST PUSH2 0x1327 JUMPI DUP1 DUP3 PUSH1 0x40 MLOAD PUSH32 0xE2517D3F00000000000000000000000000000000000000000000000000000000 DUP2 MSTORE PUSH1 0x4 ADD PUSH2 0x131E SWAP3 SWAP2 SWAP1 PUSH2 0x270A JUMP JUMPDEST PUSH1 0x40 MLOAD DUP1 SWAP2 SUB SWAP1 REVERT JUMPDEST POP POP JUMP JUMPDEST DUP3 DUP1 SLOAD DUP3 DUP3 SSTORE SWAP1 PUSH0 MSTORE PUSH1 0x20 PUSH0 KECCAK256 SWAP1 DUP2 ADD SWAP3 DUP3 ISZERO PUSH2 0x1371 JUMPI SWAP2 PUSH1 0x20 MUL DUP3 ADD JUMPDEST DUP3 DUP2 GT ISZERO PUSH2 0x1370 JUMPI DUP3 MLOAD DUP3 SWAP1 DUP2 PUSH2 0x1360 SWAP2 SWAP1 PUSH2 0x1FC9 JUMP JUMPDEST POP SWAP2 PUSH1 0x20 ADD SWAP2 SWAP1 PUSH1 0x1 ADD SWAP1 PUSH2 0x1349 JUMP JUMPDEST JUMPDEST POP SWAP1 POP PUSH2 0x137E SWAP2 SWAP1 PUSH2 0x1382 JUMP JUMPDEST POP SWAP1 JUMP JUMPDEST JUMPDEST DUP1 DUP3 GT ISZERO PUSH2 0x13A1 JUMPI PUSH0 DUP2 DUP2 PUSH2 0x1398 SWAP2 SWAP1 PUSH2 0x13A5 JUMP JUMPDEST POP PUSH1 0x1 ADD PUSH2 0x1383 JUMP JUMPDEST POP SWAP1 JUMP JUMPDEST POP DUP1 SLOAD PUSH2 0x13B1 SWAP1 PUSH2 0x1DFC JUMP JUMPDEST PUSH0 DUP3 SSTORE DUP1 PUSH1 0x1F LT PUSH2 0x13C2 JUMPI POP PUSH2 0x13DF JUMP JUMPDEST PUSH1 0x1F ADD PUSH1 0x20 SWAP1 DIV SWAP1 PUSH0 MSTORE PUSH1 0x20 PUSH0 KECCAK256 SWAP1 DUP2 ADD SWAP1 PUSH2 0x13DE SWAP2 SWAP1 PUSH2 0x13E2 JUMP JUMPDEST JUMPDEST POP JUMP JUMPDEST JUMPDEST DUP1 DUP3 GT ISZERO PUSH2 0x13F9 JUMPI PUSH0 DUP2 PUSH0 SWAP1 SSTORE POP PUSH1 0x1 ADD PUSH2 0x13E3 JUMP JUMPDEST POP SWAP1 JUMP JUMPDEST PUSH0 PUSH1 0x40 MLOAD SWAP1 POP SWAP1 JUMP JUMPDEST PUSH0 DUP1 REVERT JUMPDEST PUSH0 DUP1 REVERT JUMPDEST PUSH0 PUSH32 0xFFFFFFFF00000000000000000000000000000000000000000000000000000000 DUP3 AND SWAP1 POP SWAP2 SWAP1 POP JUMP JUMPDEST PUSH2 0x1442 DUP2 PUSH2 0x140E JUMP JUMPDEST DUP2 EQ PUSH2 0x144C JUMPI PUSH0 DUP1 REVERT JUMPDEST POP JUMP JUMPDEST PUSH0 DUP2 CALLDATALOAD SWAP1 POP PUSH2 0x145D DUP2 PUSH2 0x1439 JUMP JUMPDEST SWAP3 SWAP2 POP POP JUMP JUMPDEST PUSH0 PUSH1 0x20 DUP3 DUP5 SUB SLT ISZERO PUSH2 0x1478 JUMPI PUSH2 0x1477 PUSH2 0x1406 JUMP JUMPDEST JUMPDEST PUSH0 PUSH2 0x1485 DUP5 DUP3 DUP6 ADD PUSH2 0x144F JUMP JUMPDEST SWAP2 POP POP SWAP3 SWAP2 POP POP JUMP JUMPDEST PUSH0 DUP2 ISZERO ISZERO SWAP1 POP SWAP2 SWAP1 POP JUMP JUMPDEST PUSH2 0x14A2 DUP2 PUSH2 0x148E JUMP JUMPDEST DUP3 MSTORE POP POP JUMP JUMPDEST PUSH0 PUSH1 0x20 DUP3 ADD SWAP1 POP PUSH2 0x14BB PUSH0 DUP4 ADD DUP5 PUSH2 0x1499 JUMP JUMPDEST SWAP3 SWAP2 POP POP JUMP JUMPDEST PUSH0 DUP2 SWAP1 POP SWAP2 SWAP1 POP JUMP JUMPDEST PUSH2 0x14D3 DUP2 PUSH2 0x14C1 JUMP JUMPDEST DUP2 EQ PUSH2 0x14DD JUMPI PUSH0 DUP1 REVERT JUMPDEST POP JUMP JUMPDEST PUSH0 DUP2 CALLDATALOAD SWAP1 POP PUSH2 0x14EE DUP2 PUSH2 0x14CA JUMP JUMPDEST SWAP3 SWAP2 POP POP JUMP JUMPDEST PUSH0 DUP1 REVERT JUMPDEST PUSH0 DUP1 REVERT JUMPDEST PUSH0 PUSH1 0x1F NOT PUSH1 0x1F DUP4 ADD AND SWAP1 POP SWAP2 SWAP1 POP JUMP JUMPDEST PUSH32 0x4E487B7100000000000000000000000000000000000000000000000000000000 PUSH0 MSTORE PUSH1 0x41 PUSH1 0x4 MSTORE PUSH1 0x24 PUSH0 REVERT JUMPDEST PUSH2 0x1542 DUP3 PUSH2 0x14FC JUMP JUMPDEST DUP2 ADD DUP2 DUP2 LT PUSH8 0xFFFFFFFFFFFFFFFF DUP3 GT OR ISZERO PUSH2 0x1561 JUMPI PUSH2 0x1560 PUSH2 0x150C JUMP JUMPDEST JUMPDEST DUP1 PUSH1 0x40 MSTORE POP POP POP JUMP JUMPDEST PUSH0 PUSH2 0x1573 PUSH2 0x13FD JUMP JUMPDEST SWAP1 POP PUSH2 0x157F DUP3 DUP3 PUSH2 0x1539 JUMP JUMPDEST SWAP2 SWAP1 POP JUMP JUMPDEST PUSH0 PUSH8 0xFFFFFFFFFFFFFFFF DUP3 GT ISZERO PUSH2 0x159E JUMPI PUSH2 0x159D PUSH2 0x150C JUMP JUMPDEST JUMPDEST PUSH2 0x15A7 DUP3 PUSH2 0x14FC JUMP JUMPDEST SWAP1 POP PUSH1 0x20 DUP2 ADD SWAP1 POP SWAP2 SWAP1 POP JUMP JUMPDEST DUP3 DUP2 DUP4 CALLDATACOPY PUSH0 DUP4 DUP4 ADD MSTORE POP POP POP JUMP JUMPDEST PUSH0 PUSH2 0x15D4 PUSH2 0x15CF DUP5 PUSH2 0x1584 JUMP JUMPDEST PUSH2 0x156A JUMP JUMPDEST SWAP1 POP DUP3 DUP2 MSTORE PUSH1 0x20 DUP2 ADD DUP5 DUP5 DUP5 ADD GT ISZERO PUSH2 0x15F0 JUMPI PUSH2 0x15EF PUSH2 0x14F8 JUMP JUMPDEST JUMPDEST PUSH2 0x15FB DUP5 DUP3 DUP6 PUSH2 0x15B4 JUMP JUMPDEST POP SWAP4 SWAP3 POP POP POP JUMP JUMPDEST PUSH0 DUP3 PUSH1 0x1F DUP4 ADD SLT PUSH2 0x1617 JUMPI PUSH2 0x1616 PUSH2 0x14F4 JUMP JUMPDEST JUMPDEST DUP2 CALLDATALOAD PUSH2 0x1627 DUP5 DUP3 PUSH1 0x20 DUP7 ADD PUSH2 0x15C2 JUMP JUMPDEST SWAP2 POP POP SWAP3 SWAP2 POP POP JUMP JUMPDEST PUSH0 DUP1 PUSH1 0x40 DUP4 DUP6 SUB SLT ISZERO PUSH2 0x1646 JUMPI PUSH2 0x1645 PUSH2 0x1406 JUMP JUMPDEST JUMPDEST PUSH0 PUSH2 0x1653 DUP6 DUP3 DUP7 ADD PUSH2 0x14E0 JUMP JUMPDEST SWAP3 POP POP PUSH1 0x20 DUP4 ADD CALLDATALOAD PUSH8 0xFFFFFFFFFFFFFFFF DUP2 GT ISZERO PUSH2 0x1674 JUMPI PUSH2 0x1673 PUSH2 0x140A JUMP JUMPDEST JUMPDEST PUSH2 0x1680 DUP6 DUP3 DUP7 ADD PUSH2 0x1603 JUMP JUMPDEST SWAP2 POP POP SWAP3 POP SWAP3 SWAP1 POP JUMP JUMPDEST PUSH0 DUP2 SWAP1 POP SWAP2 SWAP1 POP JUMP JUMPDEST PUSH2 0x169C DUP2 PUSH2 0x168A JUMP JUMPDEST DUP2 EQ PUSH2 0x16A6 JUMPI PUSH0 DUP1 REVERT JUMPDEST POP JUMP JUMPDEST PUSH0 DUP2 CALLDATALOAD SWAP1 POP PUSH2 0x16B7 DUP2 PUSH2 0x1693 JUMP JUMPDEST SWAP3 SWAP2 POP POP JUMP JUMPDEST PUSH0 PUSH1 0x20 DUP3 DUP5 SUB SLT ISZERO PUSH2 0x16D2 JUMPI PUSH2 0x16D1 PUSH2 0x1406 JUMP JUMPDEST JUMPDEST PUSH0 PUSH2 0x16DF DUP5 DUP3 DUP6 ADD PUSH2 0x16A9 JUMP JUMPDEST SWAP2 POP POP SWAP3 SWAP2 POP POP JUMP JUMPDEST PUSH2 0x16F1 DUP2 PUSH2 0x168A JUMP JUMPDEST DUP3 MSTORE POP POP JUMP JUMPDEST PUSH0 PUSH1 0x20 DUP3 ADD SWAP1 POP PUSH2 0x170A PUSH0 DUP4 ADD DUP5 PUSH2 0x16E8 JUMP JUMPDEST SWAP3 SWAP2 POP POP JUMP JUMPDEST PUSH0 PUSH20 0xFFFFFFFFFFFFFFFFFFFFFFFFFFFFFFFFFFFFFFFF DUP3 AND SWAP1 POP SWAP2 SWAP1 POP JUMP JUMPDEST PUSH0 PUSH2 0x1739 DUP3 PUSH2 0x1710 JUMP JUMPDEST SWAP1 POP SWAP2 SWAP1 POP JUMP JUMPDEST PUSH2 0x1749 DUP2 PUSH2 0x172F JUMP JUMPDEST DUP2 EQ PUSH2 0x1753 JUMPI PUSH0 DUP1 REVERT JUMPDEST POP JUMP JUMPDEST PUSH0 DUP2 CALLDATALOAD SWAP1 POP PUSH2 0x1764 DUP2 PUSH2 0x1740 JUMP JUMPDEST SWAP3 SWAP2 POP POP JUMP JUMPDEST PUSH0 DUP1 PUSH1 0x40 DUP4 DUP6 SUB SLT ISZERO PUSH2 0x1780 JUMPI PUSH2 0x177F PUSH2 0x1406 JUMP JUMPDEST JUMPDEST PUSH0 PUSH2 0x178D DUP6 DUP3 DUP7 ADD PUSH2 0x16A9 JUMP JUMPDEST SWAP3 POP POP PUSH1 0x20 PUSH2 0x179E DUP6 DUP3 DUP7 ADD PUSH2 0x1756 JUMP JUMPDEST SWAP2 POP POP SWAP3 POP SWAP3 SWAP1 POP JUMP JUMPDEST PUSH0 PUSH1 0x20 DUP3 DUP5 SUB SLT ISZERO PUSH2 0x17BD JUMPI PUSH2 0x17BC PUSH2 0x1406 JUMP JUMPDEST JUMPDEST PUSH0 PUSH2 0x17CA DUP5 DUP3 DUP6 ADD PUSH2 0x14E0 JUMP JUMPDEST SWAP2 POP POP SWAP3 SWAP2 POP POP JUMP JUMPDEST PUSH2 0x17DC DUP2 PUSH2 0x14C1 JUMP JUMPDEST DUP3 MSTORE POP POP JUMP JUMPDEST PUSH0 DUP2 MLOAD SWAP1 POP SWAP2 SWAP1 POP JUMP JUMPDEST PUSH0 DUP3 DUP3 MSTORE PUSH1 0x20 DUP3 ADD SWAP1 POP SWAP3 SWAP2 POP POP JUMP JUMPDEST DUP3 DUP2 DUP4 MCOPY PUSH0 DUP4 DUP4 ADD MSTORE POP POP POP JUMP JUMPDEST PUSH0 PUSH2 0x1814 DUP3 PUSH2 0x17E2 JUMP JUMPDEST PUSH2 0x181E DUP2 DUP6 PUSH2 0x17EC JUMP JUMPDEST SWAP4 POP PUSH2 0x182E DUP2 DUP6 PUSH1 0x20 DUP7 ADD PUSH2 0x17FC JUMP JUMPDEST PUSH2 0x1837 DUP2 PUSH2 0x14FC JUMP JUMPDEST DUP5 ADD SWAP2 POP POP SWAP3 SWAP2 POP POP JUMP JUMPDEST PUSH0 DUP3 DUP3 MSTORE PUSH1 0x20 DUP3 ADD SWAP1 POP SWAP3 SWAP2 POP POP JUMP JUMPDEST PUSH0 PUSH2 0x185C DUP3 PUSH2 0x17E2 JUMP JUMPDEST PUSH2 0x1866 DUP2 DUP6 PUSH2 0x1842 JUMP JUMPDEST SWAP4 POP PUSH2 0x1876 DUP2 DUP6 PUSH1 0x20 DUP7 ADD PUSH2 0x17FC JUMP JUMPDEST PUSH2 0x187F DUP2 PUSH2 0x14FC JUMP JUMPDEST DUP5 ADD SWAP2 POP POP SWAP3 SWAP2 POP POP JUMP JUMPDEST PUSH2 0x1893 DUP2 PUSH2 0x14C1 JUMP JUMPDEST DUP3 MSTORE POP POP JUMP JUMPDEST PUSH2 0x18A2 DUP2 PUSH2 0x148E JUMP JUMPDEST DUP3 MSTORE POP POP JUMP JUMPDEST PUSH0 PUSH1 0xC0 DUP4 ADD PUSH0 DUP4 ADD MLOAD DUP5 DUP3 SUB PUSH0 DUP7 ADD MSTORE PUSH2 0x18C2 DUP3 DUP3 PUSH2 0x1852 JUMP JUMPDEST SWAP2 POP POP PUSH1 0x20 DUP4 ADD MLOAD DUP5 DUP3 SUB PUSH1 0x20 DUP7 ADD MSTORE PUSH2 0x18DC DUP3 DUP3 PUSH2 0x1852 JUMP JUMPDEST SWAP2 POP POP PUSH1 0x40 DUP4 ADD MLOAD PUSH2 0x18F1 PUSH1 0x40 DUP7 ADD DUP3 PUSH2 0x188A JUMP JUMPDEST POP PUSH1 0x60 DUP4 ADD MLOAD PUSH2 0x1904 PUSH1 0x60 DUP7 ADD DUP3 PUSH2 0x1899 JUMP JUMPDEST POP PUSH1 0x80 DUP4 ADD MLOAD PUSH2 0x1917 PUSH1 0x80 DUP7 ADD DUP3 PUSH2 0x1899 JUMP JUMPDEST POP PUSH1 0xA0 DUP4 ADD MLOAD PUSH2 0x192A PUSH1 0xA0 DUP7 ADD DUP3 PUSH2 0x188A JUMP JUMPDEST POP DUP1 SWAP2 POP POP SWAP3 SWAP2 POP POP JUMP JUMPDEST PUSH0 PUSH1 0xC0 DUP3 ADD SWAP1 POP PUSH2 0x1948 PUSH0 DUP4 ADD DUP10 PUSH2 0x17D3 JUMP JUMPDEST DUP2 DUP2 SUB PUSH1 0x20 DUP4 ADD MSTORE PUSH2 0x195A DUP2 DUP9 PUSH2 0x180A JUMP JUMPDEST SWAP1 POP DUP2 DUP2 SUB PUSH1 0x40 DUP4 ADD MSTORE PUSH2 0x196E DUP2 DUP8 PUSH2 0x180A JUMP JUMPDEST SWAP1 POP DUP2 DUP2 SUB PUSH1 0x60 DUP4 ADD MSTORE PUSH2 0x1982 DUP2 DUP7 PUSH2 0x180A JUMP JUMPDEST SWAP1 POP PUSH2 0x1991 PUSH1 0x80 DUP4 ADD DUP6 PUSH2 0x17D3 JUMP JUMPDEST DUP2 DUP2 SUB PUSH1 0xA0 DUP4 ADD MSTORE PUSH2 0x19A3 DUP2 DUP5 PUSH2 0x18A8 JUMP JUMPDEST SWAP1 POP SWAP8 SWAP7 POP POP POP POP POP POP POP JUMP JUMPDEST PUSH2 0x19B9 DUP2 PUSH2 0x172F JUMP JUMPDEST DUP3 MSTORE POP POP JUMP JUMPDEST PUSH0 PUSH1 0x20 DUP3 ADD SWAP1 POP PUSH2 0x19D2 PUSH0 DUP4 ADD DUP5 PUSH2 0x19B0 JUMP JUMPDEST SWAP3 SWAP2 POP POP JUMP JUMPDEST PUSH0 PUSH1 0x20 DUP3 DUP5 SUB SLT ISZERO PUSH2 0x19ED JUMPI PUSH2 0x19EC PUSH2 0x1406 JUMP JUMPDEST JUMPDEST PUSH0 PUSH2 0x19FA DUP5 DUP3 DUP6 ADD PUSH2 0x1756 JUMP JUMPDEST SWAP2 POP POP SWAP3 SWAP2 POP POP JUMP JUMPDEST PUSH0 PUSH8 0xFFFFFFFFFFFFFFFF DUP3 GT ISZERO PUSH2 0x1A1D JUMPI PUSH2 0x1A1C PUSH2 0x150C JUMP JUMPDEST JUMPDEST PUSH1 0x20 DUP3 MUL SWAP1 POP PUSH1 0x20 DUP2 ADD SWAP1 POP SWAP2 SWAP1 POP JUMP JUMPDEST PUSH0 DUP1 REVERT JUMPDEST PUSH0 PUSH2 0x1A44 PUSH2 0x1A3F DUP5 PUSH2 0x1A03 JUMP JUMPDEST PUSH2 0x156A JUMP JUMPDEST SWAP1 POP DUP1 DUP4 DUP3 MSTORE PUSH1 0x20 DUP3 ADD SWAP1 POP PUSH1 0x20 DUP5 MUL DUP4 ADD DUP6 DUP2 GT ISZERO PUSH2 0x1A67 JUMPI PUSH2 0x1A66 PUSH2 0x1A2E JUMP JUMPDEST JUMPDEST DUP4 JUMPDEST DUP2 DUP2 LT ISZERO PUSH2 0x1AAE JUMPI DUP1 CALLDATALOAD PUSH8 0xFFFFFFFFFFFFFFFF DUP2 GT ISZERO PUSH2 0x1A8C JUMPI PUSH2 0x1A8B PUSH2 0x14F4 JUMP JUMPDEST JUMPDEST DUP1 DUP7 ADD PUSH2 0x1A99 DUP10 DUP3 PUSH2 0x1603 JUMP JUMPDEST DUP6 MSTORE PUSH1 0x20 DUP6 ADD SWAP5 POP POP POP PUSH1 0x20 DUP2 ADD SWAP1 POP PUSH2 0x1A69 JUMP JUMPDEST POP POP POP SWAP4 SWAP3 POP POP POP JUMP JUMPDEST PUSH0 DUP3 PUSH1 0x1F DUP4 ADD SLT PUSH2 0x1ACC JUMPI PUSH2 0x1ACB PUSH2 0x14F4 JUMP JUMPDEST JUMPDEST DUP2 CALLDATALOAD PUSH2 0x1ADC DUP5 DUP3 PUSH1 0x20 DUP7 ADD PUSH2 0x1A32 JUMP JUMPDEST SWAP2 POP POP SWAP3 SWAP2 POP POP JUMP JUMPDEST PUSH2 0x1AEE DUP2 PUSH2 0x148E JUMP JUMPDEST DUP2 EQ PUSH2 0x1AF8 JUMPI PUSH0 DUP1 REVERT JUMPDEST POP JUMP JUMPDEST PUSH0 DUP2 CALLDATALOAD SWAP1 POP PUSH2 0x1B09 DUP2 PUSH2 0x1AE5 JUMP JUMPDEST SWAP3 SWAP2 POP POP JUMP JUMPDEST PUSH0 DUP1 PUSH0 DUP1 PUSH0 DUP1 PUSH0 DUP1 PUSH0 PUSH2 0x120 DUP11 DUP13 SUB SLT ISZERO PUSH2 0x1B2D JUMPI PUSH2 0x1B2C PUSH2 0x1406 JUMP JUMPDEST JUMPDEST PUSH0 DUP11 ADD CALLDATALOAD PUSH8 0xFFFFFFFFFFFFFFFF DUP2 GT ISZERO PUSH2 0x1B4A JUMPI PUSH2 0x1B49 PUSH2 0x140A JUMP JUMPDEST JUMPDEST PUSH2 0x1B56 DUP13 DUP3 DUP14 ADD PUSH2 0x1603 JUMP JUMPDEST SWAP10 POP POP PUSH1 0x20 DUP11 ADD CALLDATALOAD PUSH8 0xFFFFFFFFFFFFFFFF DUP2 GT ISZERO PUSH2 0x1B77 JUMPI PUSH2 0x1B76 PUSH2 0x140A JUMP JUMPDEST JUMPDEST PUSH2 0x1B83 DUP13 DUP3 DUP14 ADD PUSH2 0x1603 JUMP JUMPDEST SWAP9 POP POP PUSH1 0x40 DUP11 ADD CALLDATALOAD PUSH8 0xFFFFFFFFFFFFFFFF DUP2 GT ISZERO PUSH2 0x1BA4 JUMPI PUSH2 0x1BA3 PUSH2 0x140A JUMP JUMPDEST JUMPDEST PUSH2 0x1BB0 DUP13 DUP3 DUP14 ADD PUSH2 0x1603 JUMP JUMPDEST SWAP8 POP POP PUSH1 0x60 DUP11 ADD CALLDATALOAD PUSH8 0xFFFFFFFFFFFFFFFF DUP2 GT ISZERO PUSH2 0x1BD1 JUMPI PUSH2 0x1BD0 PUSH2 0x140A JUMP JUMPDEST JUMPDEST PUSH2 0x1BDD DUP13 DUP3 DUP14 ADD PUSH2 0x1AB8 JUMP JUMPDEST SWAP7 POP POP PUSH1 0x80 DUP11 ADD CALLDATALOAD PUSH8 0xFFFFFFFFFFFFFFFF DUP2 GT ISZERO PUSH2 0x1BFE JUMPI PUSH2 0x1BFD PUSH2 0x140A JUMP JUMPDEST JUMPDEST PUSH2 0x1C0A DUP13 DUP3 DUP14 ADD PUSH2 0x1AB8 JUMP JUMPDEST SWAP6 POP POP PUSH1 0xA0 PUSH2 0x1C1B DUP13 DUP3 DUP14 ADD PUSH2 0x14E0 JUMP JUMPDEST SWAP5 POP POP PUSH1 0xC0 DUP11 ADD CALLDATALOAD PUSH8 0xFFFFFFFFFFFFFFFF DUP2 GT ISZERO PUSH2 0x1C3C JUMPI PUSH2 0x1C3B PUSH2 0x140A JUMP JUMPDEST JUMPDEST PUSH2 0x1C48 DUP13 DUP3 DUP14 ADD PUSH2 0x1603 JUMP JUMPDEST SWAP4 POP POP PUSH1 0xE0 DUP11 ADD CALLDATALOAD PUSH8 0xFFFFFFFFFFFFFFFF DUP2 GT ISZERO PUSH2 0x1C69 JUMPI PUSH2 0x1C68 PUSH2 0x140A JUMP JUMPDEST JUMPDEST PUSH2 0x1C75 DUP13 DUP3 DUP14 ADD PUSH2 0x1603 JUMP JUMPDEST SWAP3 POP POP PUSH2 0x100 PUSH2 0x1C87 DUP13 DUP3 DUP14 ADD PUSH2 0x1AFB JUMP JUMPDEST SWAP2 POP POP SWAP3 SWAP6 SWAP9 POP SWAP3 SWAP6 SWAP9 POP SWAP3 SWAP6 SWAP9 JUMP JUMPDEST PUSH32 0x50726F6475637420686173206265656E20736869707065640000000000000000 PUSH0 DUP3 ADD MSTORE POP JUMP JUMPDEST PUSH0 PUSH2 0x1CCB PUSH1 0x18 DUP4 PUSH2 0x17EC JUMP JUMPDEST SWAP2 POP PUSH2 0x1CD6 DUP3 PUSH2 0x1C97 JUMP JUMPDEST PUSH1 0x20 DUP3 ADD SWAP1 POP SWAP2 SWAP1 POP JUMP JUMPDEST PUSH0 PUSH1 0x20 DUP3 ADD SWAP1 POP DUP2 DUP2 SUB PUSH0 DUP4 ADD MSTORE PUSH2 0x1CF8 DUP2 PUSH2 0x1CBF JUMP JUMPDEST SWAP1 POP SWAP2 SWAP1 POP JUMP JUMPDEST PUSH32 0x50726F6475637420646F6573206E6F7420657869737400000000000000000000 PUSH0 DUP3 ADD MSTORE POP JUMP JUMPDEST PUSH0 PUSH2 0x1D33 PUSH1 0x16 DUP4 PUSH2 0x17EC JUMP JUMPDEST SWAP2 POP PUSH2 0x1D3E DUP3 PUSH2 0x1CFF JUMP JUMPDEST PUSH1 0x20 DUP3 ADD SWAP1 POP SWAP2 SWAP1 POP JUMP JUMPDEST PUSH0 PUSH1 0x20 DUP3 ADD SWAP1 POP DUP2 DUP2 SUB PUSH0 DUP4 ADD MSTORE PUSH2 0x1D60 DUP2 PUSH2 0x1D27 JUMP JUMPDEST SWAP1 POP SWAP2 SWAP1 POP JUMP JUMPDEST PUSH32 0x50726F64756374206973206F7574206F662073746F636B000000000000000000 PUSH0 DUP3 ADD MSTORE POP JUMP JUMPDEST PUSH0 PUSH2 0x1D9B PUSH1 0x17 DUP4 PUSH2 0x17EC JUMP JUMPDEST SWAP2 POP PUSH2 0x1DA6 DUP3 PUSH2 0x1D67 JUMP JUMPDEST PUSH1 0x20 DUP3 ADD SWAP1 POP SWAP2 SWAP1 POP JUMP JUMPDEST PUSH0 PUSH1 0x20 DUP3 ADD SWAP1 POP DUP2 DUP2 SUB PUSH0 DUP4 ADD MSTORE PUSH2 0x1DC8 DUP2 PUSH2 0x1D8F JUMP JUMPDEST SWAP1 POP SWAP2 SWAP1 POP JUMP JUMPDEST PUSH32 0x4E487B7100000000000000000000000000000000000000000000000000000000 PUSH0 MSTORE PUSH1 0x22 PUSH1 0x4 MSTORE PUSH1 0x24 PUSH0 REVERT JUMPDEST PUSH0 PUSH1 0x2 DUP3 DIV SWAP1 POP PUSH1 0x1 DUP3 AND DUP1 PUSH2 0x1E13 JUMPI PUSH1 0x7F DUP3 AND SWAP2 POP JUMPDEST PUSH1 0x20 DUP3 LT DUP2 SUB PUSH2 0x1E26 JUMPI PUSH2 0x1E25 PUSH2 0x1DCF JUMP JUMPDEST JUMPDEST POP SWAP2 SWAP1 POP JUMP JUMPDEST PUSH0 DUP2 SWAP1 POP DUP2 PUSH0 MSTORE PUSH1 0x20 PUSH0 KECCAK256 SWAP1 POP SWAP2 SWAP1 POP JUMP JUMPDEST PUSH0 PUSH1 0x20 PUSH1 0x1F DUP4 ADD DIV SWAP1 POP SWAP2 SWAP1 POP JUMP JUMPDEST PUSH0 DUP3 DUP3 SHL SWAP1 POP SWAP3 SWAP2 POP POP JUMP JUMPDEST PUSH0 PUSH1 0x8 DUP4 MUL PUSH2 0x1E88 PUSH32 0xFFFFFFFFFFFFFFFFFFFFFFFFFFFFFFFFFFFFFFFFFFFFFFFFFFFFFFFFFFFFFFFF DUP3 PUSH2 0x1E4D JUMP JUMPDEST PUSH2 0x1E92 DUP7 DUP4 PUSH2 0x1E4D JUMP JUMPDEST SWAP6 POP DUP1 NOT DUP5 AND SWAP4 POP DUP1 DUP7 AND DUP5 OR SWAP3 POP POP POP SWAP4 SWAP3 POP POP POP JUMP JUMPDEST PUSH0 DUP2 SWAP1 POP SWAP2 SWAP1 POP JUMP JUMPDEST PUSH0 PUSH2 0x1ECD PUSH2 0x1EC8 PUSH2 0x1EC3 DUP5 PUSH2 0x14C1 JUMP JUMPDEST PUSH2 0x1EAA JUMP JUMPDEST PUSH2 0x14C1 JUMP JUMPDEST SWAP1 POP SWAP2 SWAP1 POP JUMP JUMPDEST PUSH0 DUP2 SWAP1 POP SWAP2 SWAP1 POP JUMP JUMPDEST PUSH2 0x1EE6 DUP4 PUSH2 0x1EB3 JUMP JUMPDEST PUSH2 0x1EFA PUSH2 0x1EF2 DUP3 PUSH2 0x1ED4 JUMP JUMPDEST DUP5 DUP5 SLOAD PUSH2 0x1E59 JUMP JUMPDEST DUP3 SSTORE POP POP POP POP JUMP JUMPDEST PUSH0 SWAP1 JUMP JUMPDEST PUSH2 0x1F0E PUSH2 0x1F02 JUMP JUMPDEST PUSH2 0x1F19 DUP2 DUP5 DUP5 PUSH2 0x1EDD JUMP JUMPDEST POP POP POP JUMP JUMPDEST JUMPDEST DUP2 DUP2 LT ISZERO PUSH2 0x1F3C JUMPI PUSH2 0x1F31 PUSH0 DUP3 PUSH2 0x1F06 JUMP JUMPDEST PUSH1 0x1 DUP2 ADD SWAP1 POP PUSH2 0x1F1F JUMP JUMPDEST POP POP JUMP JUMPDEST PUSH1 0x1F DUP3 GT ISZERO PUSH2 0x1F81 JUMPI PUSH2 0x1F52 DUP2 PUSH2 0x1E2C JUMP JUMPDEST PUSH2 0x1F5B DUP5 PUSH2 0x1E3E JUMP JUMPDEST DUP2 ADD PUSH1 0x20 DUP6 LT ISZERO PUSH2 0x1F6A JUMPI DUP2 SWAP1 POP JUMPDEST PUSH2 0x1F7E PUSH2 0x1F76 DUP6 PUSH2 0x1E3E JUMP JUMPDEST DUP4 ADD DUP3 PUSH2 0x1F1E JUMP JUMPDEST POP POP JUMPDEST POP POP POP JUMP JUMPDEST PUSH0 DUP3 DUP3 SHR SWAP1 POP SWAP3 SWAP2 POP POP JUMP JUMPDEST PUSH0 PUSH2 0x1FA1 PUSH0 NOT DUP5 PUSH1 0x8 MUL PUSH2 0x1F86 JUMP JUMPDEST NOT DUP1 DUP4 AND SWAP2 POP POP SWAP3 SWAP2 POP POP JUMP JUMPDEST PUSH0 PUSH2 0x1FB9 DUP4 DUP4 PUSH2 0x1F92 JUMP JUMPDEST SWAP2 POP DUP3 PUSH1 0x2 MUL DUP3 OR SWAP1 POP SWAP3 SWAP2 POP POP JUMP JUMPDEST PUSH2 0x1FD2 DUP3 PUSH2 0x17E2 JUMP JUMPDEST PUSH8 0xFFFFFFFFFFFFFFFF DUP2 GT ISZERO PUSH2 0x1FEB JUMPI PUSH2 0x1FEA PUSH2 0x150C JUMP JUMPDEST JUMPDEST PUSH2 0x1FF5 DUP3 SLOAD PUSH2 0x1DFC JUMP JUMPDEST PUSH2 0x2000 DUP3 DUP3 DUP6 PUSH2 0x1F40 JUMP JUMPDEST PUSH0 PUSH1 0x20 SWAP1 POP PUSH1 0x1F DUP4 GT PUSH1 0x1 DUP2 EQ PUSH2 0x2031 JUMPI PUSH0 DUP5 ISZERO PUSH2 0x201F JUMPI DUP3 DUP8 ADD MLOAD SWAP1 POP JUMPDEST PUSH2 0x2029 DUP6 DUP3 PUSH2 0x1FAE JUMP JUMPDEST DUP7 SSTORE POP PUSH2 0x2090 JUMP JUMPDEST PUSH1 0x1F NOT DUP5 AND PUSH2 0x203F DUP7 PUSH2 0x1E2C JUMP JUMPDEST PUSH0 JUMPDEST DUP3 DUP2 LT ISZERO PUSH2 0x2066 JUMPI DUP5 DUP10 ADD MLOAD DUP3 SSTORE PUSH1 0x1 DUP3 ADD SWAP2 POP PUSH1 0x20 DUP6 ADD SWAP5 POP PUSH1 0x20 DUP2 ADD SWAP1 POP PUSH2 0x2041 JUMP JUMPDEST DUP7 DUP4 LT ISZERO PUSH2 0x2083 JUMPI DUP5 DUP10 ADD MLOAD PUSH2 0x207F PUSH1 0x1F DUP10 AND DUP3 PUSH2 0x1F92 JUMP JUMPDEST DUP4 SSTORE POP JUMPDEST PUSH1 0x1 PUSH1 0x2 DUP9 MUL ADD DUP9 SSTORE POP POP POP JUMPDEST POP POP POP POP POP POP JUMP JUMPDEST PUSH0 DUP2 SLOAD PUSH2 0x20A4 DUP2 PUSH2 0x1DFC JUMP JUMPDEST PUSH2 0x20AE DUP2 DUP7 PUSH2 0x17EC JUMP JUMPDEST SWAP5 POP PUSH1 0x1 DUP3 AND PUSH0 DUP2 EQ PUSH2 0x20C8 JUMPI PUSH1 0x1 DUP2 EQ PUSH2 0x20DE JUMPI PUSH2 0x2110 JUMP JUMPDEST PUSH1 0xFF NOT DUP4 AND DUP7 MSTORE DUP2 ISZERO ISZERO PUSH1 0x20 MUL DUP7 ADD SWAP4 POP PUSH2 0x2110 JUMP JUMPDEST PUSH2 0x20E7 DUP6 PUSH2 0x1E2C JUMP JUMPDEST PUSH0 JUMPDEST DUP4 DUP2 LT ISZERO PUSH2 0x2108 JUMPI DUP2 SLOAD DUP2 DUP10 ADD MSTORE PUSH1 0x1 DUP3 ADD SWAP2 POP PUSH1 0x20 DUP2 ADD SWAP1 POP PUSH2 0x20E9 JUMP JUMPDEST DUP1 DUP9 ADD SWAP6 POP POP POP JUMPDEST POP POP POP SWAP3 SWAP2 POP POP JUMP JUMPDEST PUSH0 PUSH1 0xA0 DUP3 ADD SWAP1 POP DUP2 DUP2 SUB PUSH0 DUP4 ADD MSTORE PUSH2 0x2131 DUP2 DUP9 PUSH2 0x2098 JUMP JUMPDEST SWAP1 POP DUP2 DUP2 SUB PUSH1 0x20 DUP4 ADD MSTORE PUSH2 0x2145 DUP2 DUP8 PUSH2 0x2098 JUMP JUMPDEST SWAP1 POP PUSH2 0x2154 PUSH1 0x40 DUP4 ADD DUP7 PUSH2 0x17D3 JUMP JUMPDEST PUSH2 0x2161 PUSH1 0x60 DUP4 ADD DUP6 PUSH2 0x17D3 JUMP JUMPDEST PUSH2 0x216E PUSH1 0x80 DUP4 ADD DUP5 PUSH2 0x1499 JUMP JUMPDEST SWAP7 SWAP6 POP POP POP POP POP POP JUMP JUMPDEST PUSH32 0x55736572206E6F7420617574686F72697A656400000000000000000000000000 PUSH0 DUP3 ADD MSTORE POP JUMP JUMPDEST PUSH0 PUSH2 0x21AC PUSH1 0x13 DUP4 PUSH2 0x17EC JUMP JUMPDEST SWAP2 POP PUSH2 0x21B7 DUP3 PUSH2 0x2178 JUMP JUMPDEST PUSH1 0x20 DUP3 ADD SWAP1 POP SWAP2 SWAP1 POP JUMP JUMPDEST PUSH0 PUSH1 0x20 DUP3 ADD SWAP1 POP DUP2 DUP2 SUB PUSH0 DUP4 ADD MSTORE PUSH2 0x21D9 DUP2 PUSH2 0x21A0 JUMP JUMPDEST SWAP1 POP SWAP2 SWAP1 POP JUMP JUMPDEST PUSH32 0x456D7074792070726F647563742074797065206E6F7420616C6C6F7765640000 PUSH0 DUP3 ADD MSTORE POP JUMP JUMPDEST PUSH0 PUSH2 0x2214 PUSH1 0x1E DUP4 PUSH2 0x17EC JUMP JUMPDEST SWAP2 POP PUSH2 0x221F DUP3 PUSH2 0x21E0 JUMP JUMPDEST PUSH1 0x20 DUP3 ADD SWAP1 POP SWAP2 SWAP1 POP JUMP JUMPDEST PUSH0 PUSH1 0x20 DUP3 ADD SWAP1 POP DUP2 DUP2 SUB PUSH0 DUP4 ADD MSTORE PUSH2 0x2241 DUP2 PUSH2 0x2208 JUMP JUMPDEST SWAP1 POP SWAP2 SWAP1 POP JUMP JUMPDEST PUSH32 0x456D7074792070726F64756374206E616D65206E6F7420616C6C6F7765640000 PUSH0 DUP3 ADD MSTORE POP JUMP JUMPDEST PUSH0 PUSH2 0x227C PUSH1 0x1E DUP4 PUSH2 0x17EC JUMP JUMPDEST SWAP2 POP PUSH2 0x2287 DUP3 PUSH2 0x2248 JUMP JUMPDEST PUSH1 0x20 DUP3 ADD SWAP1 POP SWAP2 SWAP1 POP JUMP JUMPDEST PUSH0 PUSH1 0x20 DUP3 ADD SWAP1 POP DUP2 DUP2 SUB PUSH0 DUP4 ADD MSTORE PUSH2 0x22A9 DUP2 PUSH2 0x2270 JUMP JUMPDEST SWAP1 POP SWAP2 SWAP1 POP JUMP JUMPDEST PUSH32 0x456D707479206272616E64206E616D65206E6F7420616C6C6F77656400000000 PUSH0 DUP3 ADD MSTORE POP JUMP JUMPDEST PUSH0 PUSH2 0x22E4 PUSH1 0x1C DUP4 PUSH2 0x17EC JUMP JUMPDEST SWAP2 POP PUSH2 0x22EF DUP3 PUSH2 0x22B0 JUMP JUMPDEST PUSH1 0x20 DUP3 ADD SWAP1 POP SWAP2 SWAP1 POP JUMP JUMPDEST PUSH0 PUSH1 0x20 DUP3 ADD SWAP1 POP DUP2 DUP2 SUB PUSH0 DUP4 ADD MSTORE PUSH2 0x2311 DUP2 PUSH2 0x22D8 JUMP JUMPDEST SWAP1 POP SWAP2 SWAP1 POP JUMP JUMPDEST PUSH32 0x5175616E74697479206D7573742062652067726561746572207468616E207A65 PUSH0 DUP3 ADD MSTORE PUSH32 0x726F000000000000000000000000000000000000000000000000000000000000 PUSH1 0x20 DUP3 ADD MSTORE POP JUMP JUMPDEST PUSH0 PUSH2 0x2372 PUSH1 0x22 DUP4 PUSH2 0x17EC JUMP JUMPDEST SWAP2 POP PUSH2 0x237D DUP3 PUSH2 0x2318 JUMP JUMPDEST PUSH1 0x40 DUP3 ADD SWAP1 POP SWAP2 SWAP1 POP JUMP JUMPDEST PUSH0 PUSH1 0x20 DUP3 ADD SWAP1 POP DUP2 DUP2 SUB PUSH0 DUP4 ADD MSTORE PUSH2 0x239F DUP2 PUSH2 0x2366 JUMP JUMPDEST SWAP1 POP SWAP2 SWAP1 POP JUMP JUMPDEST PUSH32 0x50726F6475637420616C72656164792065786973747300000000000000000000 PUSH0 DUP3 ADD MSTORE POP JUMP JUMPDEST PUSH0 PUSH2 0x23DA PUSH1 0x16 DUP4 PUSH2 0x17EC JUMP JUMPDEST SWAP2 POP PUSH2 0x23E5 DUP3 PUSH2 0x23A6 JUMP JUMPDEST PUSH1 0x20 DUP3 ADD SWAP1 POP SWAP2 SWAP1 POP JUMP JUMPDEST PUSH0 PUSH1 0x20 DUP3 ADD SWAP1 POP DUP2 DUP2 SUB PUSH0 DUP4 ADD MSTORE PUSH2 0x2407 DUP2 PUSH2 0x23CE JUMP JUMPDEST SWAP1 POP SWAP2 SWAP1 POP JUMP JUMPDEST PUSH0 DUP2 MLOAD SWAP1 POP SWAP2 SWAP1 POP JUMP JUMPDEST PUSH0 DUP3 DUP3 MSTORE PUSH1 0x20 DUP3 ADD SWAP1 POP SWAP3 SWAP2 POP POP JUMP JUMPDEST PUSH0 DUP2 SWAP1 POP PUSH1 0x20 DUP3 ADD SWAP1 POP SWAP2 SWAP1 POP JUMP JUMPDEST PUSH0 PUSH2 0x2442 DUP4 DUP4 PUSH2 0x1852 JUMP JUMPDEST SWAP1 POP SWAP3 SWAP2 POP POP JUMP JUMPDEST PUSH0 PUSH1 0x20 DUP3 ADD SWAP1 POP SWAP2 SWAP1 POP JUMP JUMPDEST PUSH0 PUSH2 0x2460 DUP3 PUSH2 0x240E JUMP JUMPDEST PUSH2 0x246A DUP2 DUP6 PUSH2 0x2418 JUMP JUMPDEST SWAP4 POP DUP4 PUSH1 0x20 DUP3 MUL DUP6 ADD PUSH2 0x247C DUP6 PUSH2 0x2428 JUMP JUMPDEST DUP1 PUSH0 JUMPDEST DUP6 DUP2 LT ISZERO PUSH2 0x24B7 JUMPI DUP5 DUP5 SUB DUP10 MSTORE DUP2 MLOAD PUSH2 0x2498 DUP6 DUP3 PUSH2 0x2437 JUMP JUMPDEST SWAP5 POP PUSH2 0x24A3 DUP4 PUSH2 0x244A JUMP JUMPDEST SWAP3 POP PUSH1 0x20 DUP11 ADD SWAP10 POP POP PUSH1 0x1 DUP2 ADD SWAP1 POP PUSH2 0x247F JUMP JUMPDEST POP DUP3 SWAP8 POP DUP8 SWAP6 POP POP POP POP POP POP SWAP3 SWAP2 POP POP JUMP JUMPDEST PUSH0 DUP2 SLOAD PUSH2 0x24D5 DUP2 PUSH2 0x1DFC JUMP JUMPDEST PUSH2 0x24DF DUP2 DUP7 PUSH2 0x1842 JUMP JUMPDEST SWAP5 POP PUSH1 0x1 DUP3 AND PUSH0 DUP2 EQ PUSH2 0x24F9 JUMPI PUSH1 0x1 DUP2 EQ PUSH2 0x250F JUMPI PUSH2 0x2541 JUMP JUMPDEST PUSH1 0xFF NOT DUP4 AND DUP7 MSTORE DUP2 ISZERO ISZERO PUSH1 0x20 MUL DUP7 ADD SWAP4 POP PUSH2 0x2541 JUMP JUMPDEST PUSH2 0x2518 DUP6 PUSH2 0x1E2C JUMP JUMPDEST PUSH0 JUMPDEST DUP4 DUP2 LT ISZERO PUSH2 0x2539 JUMPI DUP2 SLOAD DUP2 DUP10 ADD MSTORE PUSH1 0x1 DUP3 ADD SWAP2 POP PUSH1 0x20 DUP2 ADD SWAP1 POP PUSH2 0x251A JUMP JUMPDEST DUP1 DUP9 ADD SWAP6 POP POP POP JUMPDEST POP POP POP SWAP3 SWAP2 POP POP JUMP JUMPDEST PUSH0 DUP2 PUSH0 SHR SWAP1 POP SWAP2 SWAP1 POP JUMP JUMPDEST PUSH0 DUP2 SWAP1 POP SWAP2 SWAP1 POP JUMP JUMPDEST PUSH0 PUSH2 0x2570 PUSH2 0x256B DUP4 PUSH2 0x254A JUMP JUMPDEST PUSH2 0x2555 JUMP JUMPDEST SWAP1 POP SWAP2 SWAP1 POP JUMP JUMPDEST PUSH0 PUSH1 0xFF DUP3 AND SWAP1 POP SWAP2 SWAP1 POP JUMP JUMPDEST PUSH0 PUSH2 0x2595 PUSH2 0x2590 DUP4 PUSH2 0x254A JUMP JUMPDEST PUSH2 0x2577 JUMP JUMPDEST SWAP1 POP SWAP2 SWAP1 POP JUMP JUMPDEST PUSH0 DUP2 PUSH1 0x8 SHR SWAP1 POP SWAP2 SWAP1 POP JUMP JUMPDEST PUSH0 PUSH2 0x25BA PUSH2 0x25B5 DUP4 PUSH2 0x259C JUMP JUMPDEST PUSH2 0x2577 JUMP JUMPDEST SWAP1 POP SWAP2 SWAP1 POP JUMP JUMPDEST PUSH0 PUSH1 0xC0 DUP4 ADD PUSH0 DUP1 DUP5 ADD DUP6 DUP4 SUB PUSH0 DUP8 ADD MSTORE PUSH2 0x25DB DUP4 DUP3 PUSH2 0x24C9 JUMP JUMPDEST SWAP3 POP POP PUSH1 0x1 DUP5 ADD DUP6 DUP4 SUB PUSH1 0x20 DUP8 ADD MSTORE PUSH2 0x25F4 DUP4 DUP3 PUSH2 0x24C9 JUMP JUMPDEST SWAP3 POP POP PUSH1 0x2 DUP5 ADD SLOAD SWAP1 POP PUSH2 0x2607 DUP2 PUSH2 0x255E JUMP JUMPDEST PUSH2 0x2614 PUSH1 0x40 DUP8 ADD DUP3 PUSH2 0x188A JUMP JUMPDEST POP PUSH1 0x3 DUP5 ADD SLOAD SWAP1 POP PUSH2 0x2625 DUP2 PUSH2 0x2583 JUMP JUMPDEST PUSH2 0x2632 PUSH1 0x60 DUP8 ADD DUP3 PUSH2 0x1899 JUMP JUMPDEST POP PUSH2 0x263C DUP2 PUSH2 0x25A8 JUMP JUMPDEST PUSH2 0x2649 PUSH1 0x80 DUP8 ADD DUP3 PUSH2 0x1899 JUMP JUMPDEST POP PUSH1 0x4 DUP5 ADD SLOAD SWAP1 POP PUSH2 0x265A DUP2 PUSH2 0x255E JUMP JUMPDEST PUSH2 0x2667 PUSH1 0xA0 DUP8 ADD DUP3 PUSH2 0x188A JUMP JUMPDEST POP DUP2 SWAP3 POP POP POP SWAP3 SWAP2 POP POP JUMP JUMPDEST PUSH0 PUSH1 0xE0 DUP3 ADD SWAP1 POP DUP2 DUP2 SUB PUSH0 DUP4 ADD MSTORE PUSH2 0x268B DUP2 DUP11 PUSH2 0x180A JUMP JUMPDEST SWAP1 POP DUP2 DUP2 SUB PUSH1 0x20 DUP4 ADD MSTORE PUSH2 0x269F DUP2 DUP10 PUSH2 0x180A JUMP JUMPDEST SWAP1 POP DUP2 DUP2 SUB PUSH1 0x40 DUP4 ADD MSTORE PUSH2 0x26B3 DUP2 DUP9 PUSH2 0x180A JUMP JUMPDEST SWAP1 POP DUP2 DUP2 SUB PUSH1 0x60 DUP4 ADD MSTORE PUSH2 0x26C7 DUP2 DUP8 PUSH2 0x2456 JUMP JUMPDEST SWAP1 POP DUP2 DUP2 SUB PUSH1 0x80 DUP4 ADD MSTORE PUSH2 0x26DB DUP2 DUP7 PUSH2 0x2456 JUMP JUMPDEST SWAP1 POP PUSH2 0x26EA PUSH1 0xA0 DUP4 ADD DUP6 PUSH2 0x17D3 JUMP JUMPDEST DUP2 DUP2 SUB PUSH1 0xC0 DUP4 ADD MSTORE PUSH2 0x26FC DUP2 DUP5 PUSH2 0x25C1 JUMP JUMPDEST SWAP1 POP SWAP9 SWAP8 POP POP POP POP POP POP POP POP JUMP JUMPDEST PUSH0 PUSH1 0x40 DUP3 ADD SWAP1 POP PUSH2 0x271D PUSH0 DUP4 ADD DUP6 PUSH2 0x19B0 JUMP JUMPDEST PUSH2 0x272A PUSH1 0x20 DUP4 ADD DUP5 PUSH2 0x16E8 JUMP JUMPDEST SWAP4 SWAP3 POP POP POP JUMP INVALID LOG2 PUSH5 0x6970667358 0x22 SLT KECCAK256 PUSH23 0x7FBF27469A277A6E57F2BA027E147700E46C1467FF619A PUSH25 0x88B611B1D83A0564736F6C634300081A003300000000000000 "
		},
		"gasEstimates": {
			"creation": {
				"codeDepositCost": "2017400",
				"executionCost": "infinite",
				"totalCost": "infinite"
			},
			"external": {
				"AUTHORIZED_ROLE()": "413",
				"DEFAULT_ADMIN_ROLE()": "419",
				"GenerateProduct(string,string,string,string[],string[],uint256,string,string,bool)": "infinite",
				"getRoleAdmin(bytes32)": "infinite",
				"grantAuthorization(address)": "infinite",
				"grantRole(bytes32,address)": "infinite",
				"hasRole(bytes32,address)": "3167",
				"initalizeShipment(uint256,string)": "infinite",
				"owner()": "2604",
				"products(uint256)": "infinite",
				"renounceOwnership()": "infinite",
				"renounceRole(bytes32,address)": "infinite",
				"revokeAuthorization(address)": "infinite",
				"revokeRole(bytes32,address)": "infinite",
				"supportsInterface(bytes4)": "741",
				"transferOwnership(address)": "infinite"
			}
		},
		"methodIdentifiers": {
			"AUTHORIZED_ROLE()": "f6468251",
			"DEFAULT_ADMIN_ROLE()": "a217fddf",
			"GenerateProduct(string,string,string,string[],string[],uint256,string,string,bool)": "9ed04f5d",
			"getRoleAdmin(bytes32)": "248a9ca3",
			"grantAuthorization(address)": "8f2fdb42",
			"grantRole(bytes32,address)": "2f2ff15d",
			"hasRole(bytes32,address)": "91d14854",
			"initalizeShipment(uint256,string)": "21120f9a",
			"owner()": "8da5cb5b",
			"products(uint256)": "7acc0b20",
			"renounceOwnership()": "715018a6",
			"renounceRole(bytes32,address)": "36568abe",
			"revokeAuthorization(address)": "b48028e3",
			"revokeRole(bytes32,address)": "d547741f",
			"supportsInterface(bytes4)": "01ffc9a7",
			"transferOwnership(address)": "f2fde38b"
		}
	},
	"abi": [
		{
			"inputs": [],
			"name": "AccessControlBadConfirmation",
			"type": "error"
		},
		{
			"inputs": [
				{
					"internalType": "address",
					"name": "account",
					"type": "address"
				},
				{
					"internalType": "bytes32",
					"name": "neededRole",
					"type": "bytes32"
				}
			],
			"name": "AccessControlUnauthorizedAccount",
			"type": "error"
		},
		{
			"inputs": [
				{
					"internalType": "address",
					"name": "owner",
					"type": "address"
				}
			],
			"name": "OwnableInvalidOwner",
			"type": "error"
		},
		{
			"inputs": [
				{
					"internalType": "address",
					"name": "account",
					"type": "address"
				}
			],
			"name": "OwnableUnauthorizedAccount",
			"type": "error"
		},
		{
			"anonymous": false,
			"inputs": [
				{
					"indexed": false,
					"internalType": "string",
					"name": "location",
					"type": "string"
				},
				{
					"indexed": false,
					"internalType": "string",
					"name": "custodian",
					"type": "string"
				},
				{
					"indexed": false,
					"internalType": "uint256",
					"name": "time",
					"type": "uint256"
				},
				{
					"indexed": false,
					"internalType": "uint256",
					"name": "index",
					"type": "uint256"
				},
				{
					"indexed": false,
					"internalType": "bool",
					"name": "arrivalStatus",
					"type": "bool"
				}
			],
			"name": "Departed",
			"type": "event"
		},
		{
			"anonymous": false,
			"inputs": [
				{
					"indexed": true,
					"internalType": "address",
					"name": "previousOwner",
					"type": "address"
				},
				{
					"indexed": true,
					"internalType": "address",
					"name": "newOwner",
					"type": "address"
				}
			],
			"name": "OwnershipTransferred",
			"type": "event"
		},
		{
			"anonymous": false,
			"inputs": [
				{
					"indexed": true,
					"internalType": "uint256",
					"name": "productId",
					"type": "uint256"
				},
				{
					"indexed": false,
					"internalType": "string",
					"name": "productType",
					"type": "string"
				},
				{
					"indexed": false,
					"internalType": "string",
					"name": "brandName",
					"type": "string"
				},
				{
					"indexed": false,
					"internalType": "string",
					"name": "productName",
					"type": "string"
				},
				{
					"indexed": false,
					"internalType": "string[]",
					"name": "materials",
					"type": "string[]"
				},
				{
					"indexed": false,
					"internalType": "string[]",
					"name": "certificates",
					"type": "string[]"
				},
				{
					"indexed": false,
					"internalType": "uint256",
					"name": "quantity",
					"type": "uint256"
				},
				{
					"components": [
						{
							"internalType": "string",
							"name": "name",
							"type": "string"
						},
						{
							"internalType": "string",
							"name": "custodian",
							"type": "string"
						},
						{
							"internalType": "uint256",
							"name": "departure",
							"type": "uint256"
						},
						{
							"internalType": "bool",
							"name": "shipped",
							"type": "bool"
						},
						{
							"internalType": "bool",
							"name": "arrived",
							"type": "bool"
						},
						{
							"internalType": "uint256",
							"name": "arrival",
							"type": "uint256"
						}
					],
					"indexed": false,
					"internalType": "struct ProductTracker.Location",
					"name": "location",
					"type": "tuple"
				}
			],
			"name": "ProductGenerated",
			"type": "event"
		},
		{
			"anonymous": false,
			"inputs": [
				{
					"indexed": true,
					"internalType": "bytes32",
					"name": "role",
					"type": "bytes32"
				},
				{
					"indexed": true,
					"internalType": "bytes32",
					"name": "previousAdminRole",
					"type": "bytes32"
				},
				{
					"indexed": true,
					"internalType": "bytes32",
					"name": "newAdminRole",
					"type": "bytes32"
				}
			],
			"name": "RoleAdminChanged",
			"type": "event"
		},
		{
			"anonymous": false,
			"inputs": [
				{
					"indexed": true,
					"internalType": "bytes32",
					"name": "role",
					"type": "bytes32"
				},
				{
					"indexed": true,
					"internalType": "address",
					"name": "account",
					"type": "address"
				},
				{
					"indexed": true,
					"internalType": "address",
					"name": "sender",
					"type": "address"
				}
			],
			"name": "RoleGranted",
			"type": "event"
		},
		{
			"anonymous": false,
			"inputs": [
				{
					"indexed": true,
					"internalType": "bytes32",
					"name": "role",
					"type": "bytes32"
				},
				{
					"indexed": true,
					"internalType": "address",
					"name": "account",
					"type": "address"
				},
				{
					"indexed": true,
					"internalType": "address",
					"name": "sender",
					"type": "address"
				}
			],
			"name": "RoleRevoked",
			"type": "event"
		},
		{
			"inputs": [],
			"name": "AUTHORIZED_ROLE",
			"outputs": [
				{
					"internalType": "bytes32",
					"name": "",
					"type": "bytes32"
				}
			],
			"stateMutability": "view",
			"type": "function"
		},
		{
			"inputs": [],
			"name": "DEFAULT_ADMIN_ROLE",
			"outputs": [
				{
					"internalType": "bytes32",
					"name": "",
					"type": "bytes32"
				}
			],
			"stateMutability": "view",
			"type": "function"
		},
		{
			"inputs": [
				{
					"internalType": "string",
					"name": "_productType",
					"type": "string"
				},
				{
					"internalType": "string",
					"name": "_productName",
					"type": "string"
				},
				{
					"internalType": "string",
					"name": "_brandName",
					"type": "string"
				},
				{
					"internalType": "string[]",
					"name": "_materials",
					"type": "string[]"
				},
				{
					"internalType": "string[]",
					"name": "_certificates",
					"type": "string[]"
				},
				{
					"internalType": "uint256",
					"name": "_quantity",
					"type": "uint256"
				},
				{
					"internalType": "string",
					"name": "_locationName",
					"type": "string"
				},
				{
					"internalType": "string",
					"name": "_custodian",
					"type": "string"
				},
				{
					"internalType": "bool",
					"name": "_shipped",
					"type": "bool"
				}
			],
			"name": "GenerateProduct",
			"outputs": [],
			"stateMutability": "nonpayable",
			"type": "function"
		},
		{
			"inputs": [
				{
					"internalType": "bytes32",
					"name": "role",
					"type": "bytes32"
				}
			],
			"name": "getRoleAdmin",
			"outputs": [
				{
					"internalType": "bytes32",
					"name": "",
					"type": "bytes32"
				}
			],
			"stateMutability": "view",
			"type": "function"
		},
		{
			"inputs": [
				{
					"internalType": "address",
					"name": "_userAddress",
					"type": "address"
				}
			],
			"name": "grantAuthorization",
			"outputs": [],
			"stateMutability": "nonpayable",
			"type": "function"
		},
		{
			"inputs": [
				{
					"internalType": "bytes32",
					"name": "role",
					"type": "bytes32"
				},
				{
					"internalType": "address",
					"name": "account",
					"type": "address"
				}
			],
			"name": "grantRole",
			"outputs": [],
			"stateMutability": "nonpayable",
			"type": "function"
		},
		{
			"inputs": [
				{
					"internalType": "bytes32",
					"name": "role",
					"type": "bytes32"
				},
				{
					"internalType": "address",
					"name": "account",
					"type": "address"
				}
			],
			"name": "hasRole",
			"outputs": [
				{
					"internalType": "bool",
					"name": "",
					"type": "bool"
				}
			],
			"stateMutability": "view",
			"type": "function"
		},
		{
			"inputs": [
				{
					"internalType": "uint256",
					"name": "_productId",
					"type": "uint256"
				},
				{
					"internalType": "string",
					"name": "_locationName",
					"type": "string"
				}
			],
			"name": "initalizeShipment",
			"outputs": [],
			"stateMutability": "nonpayable",
			"type": "function"
		},
		{
			"inputs": [],
			"name": "owner",
			"outputs": [
				{
					"internalType": "address",
					"name": "",
					"type": "address"
				}
			],
			"stateMutability": "view",
			"type": "function"
		},
		{
			"inputs": [
				{
					"internalType": "uint256",
					"name": "",
					"type": "uint256"
				}
			],
			"name": "products",
			"outputs": [
				{
					"internalType": "uint256",
					"name": "productId",
					"type": "uint256"
				},
				{
					"internalType": "string",
					"name": "productType",
					"type": "string"
				},
				{
					"internalType": "string",
					"name": "brandName",
					"type": "string"
				},
				{
					"internalType": "string",
					"name": "productName",
					"type": "string"
				},
				{
					"internalType": "uint256",
					"name": "quantity",
					"type": "uint256"
				},
				{
					"components": [
						{
							"internalType": "string",
							"name": "name",
							"type": "string"
						},
						{
							"internalType": "string",
							"name": "custodian",
							"type": "string"
						},
						{
							"internalType": "uint256",
							"name": "departure",
							"type": "uint256"
						},
						{
							"internalType": "bool",
							"name": "shipped",
							"type": "bool"
						},
						{
							"internalType": "bool",
							"name": "arrived",
							"type": "bool"
						},
						{
							"internalType": "uint256",
							"name": "arrival",
							"type": "uint256"
						}
					],
					"internalType": "struct ProductTracker.Location",
					"name": "location",
					"type": "tuple"
				}
			],
			"stateMutability": "view",
			"type": "function"
		},
		{
			"inputs": [],
			"name": "renounceOwnership",
			"outputs": [],
			"stateMutability": "nonpayable",
			"type": "function"
		},
		{
			"inputs": [
				{
					"internalType": "bytes32",
					"name": "role",
					"type": "bytes32"
				},
				{
					"internalType": "address",
					"name": "callerConfirmation",
					"type": "address"
				}
			],
			"name": "renounceRole",
			"outputs": [],
			"stateMutability": "nonpayable",
			"type": "function"
		},
		{
			"inputs": [
				{
					"internalType": "address",
					"name": "_userAddress",
					"type": "address"
				}
			],
			"name": "revokeAuthorization",
			"outputs": [],
			"stateMutability": "nonpayable",
			"type": "function"
		},
		{
			"inputs": [
				{
					"internalType": "bytes32",
					"name": "role",
					"type": "bytes32"
				},
				{
					"internalType": "address",
					"name": "account",
					"type": "address"
				}
			],
			"name": "revokeRole",
			"outputs": [],
			"stateMutability": "nonpayable",
			"type": "function"
		},
		{
			"inputs": [
				{
					"internalType": "bytes4",
					"name": "interfaceId",
					"type": "bytes4"
				}
			],
			"name": "supportsInterface",
			"outputs": [
				{
					"internalType": "bool",
					"name": "",
					"type": "bool"
				}
			],
			"stateMutability": "view",
			"type": "function"
		},
		{
			"inputs": [
				{
					"internalType": "address",
					"name": "newOwner",
					"type": "address"
				}
			],
			"name": "transferOwnership",
			"outputs": [],
			"stateMutability": "nonpayable",
			"type": "function"
		}
	]
}