{
	"Product Tracker Smart Contract/Product Tracker Main/ProductTracker.sol": {
		"ProductTracker": {
			"abi": [
				{
					"inputs": [],
					"name": "AccessControlBadConfirmation",
					"type": "error"
				},
				{
					"inputs": [
						{
							"internalType": "address",
							"name": "account",
							"type": "address"
						},
						{
							"internalType": "bytes32",
							"name": "neededRole",
							"type": "bytes32"
						}
					],
					"name": "AccessControlUnauthorizedAccount",
					"type": "error"
				},
				{
					"inputs": [
						{
							"internalType": "address",
							"name": "owner",
							"type": "address"
						}
					],
					"name": "OwnableInvalidOwner",
					"type": "error"
				},
				{
					"inputs": [
						{
							"internalType": "address",
							"name": "account",
							"type": "address"
						}
					],
					"name": "OwnableUnauthorizedAccount",
					"type": "error"
				},
				{
					"anonymous": false,
					"inputs": [
						{
							"indexed": false,
							"internalType": "string",
							"name": "location",
							"type": "string"
						},
						{
							"indexed": false,
							"internalType": "string",
							"name": "custodian",
							"type": "string"
						},
						{
							"indexed": false,
							"internalType": "uint256",
							"name": "time",
							"type": "uint256"
						},
						{
							"indexed": false,
							"internalType": "uint256",
							"name": "index",
							"type": "uint256"
						},
						{
							"indexed": false,
							"internalType": "bool",
							"name": "arrivalStatus",
							"type": "bool"
						}
					],
					"name": "Departed",
					"type": "event"
				},
				{
					"anonymous": false,
					"inputs": [
						{
							"indexed": true,
							"internalType": "address",
							"name": "previousOwner",
							"type": "address"
						},
						{
							"indexed": true,
							"internalType": "address",
							"name": "newOwner",
							"type": "address"
						}
					],
					"name": "OwnershipTransferred",
					"type": "event"
				},
				{
					"anonymous": false,
					"inputs": [
						{
							"indexed": true,
							"internalType": "uint256",
							"name": "productId",
							"type": "uint256"
						},
						{
							"indexed": false,
							"internalType": "string",
							"name": "productType",
							"type": "string"
						},
						{
							"indexed": false,
							"internalType": "string",
							"name": "brandName",
							"type": "string"
						},
						{
							"indexed": false,
							"internalType": "string",
							"name": "productName",
							"type": "string"
						},
						{
							"indexed": false,
							"internalType": "uint256",
							"name": "quantity",
							"type": "uint256"
						},
						{
							"indexed": true,
							"internalType": "address",
							"name": "generator",
							"type": "address"
						},
						{
							"components": [
								{
									"internalType": "string",
									"name": "name",
									"type": "string"
								},
								{
									"internalType": "string",
									"name": "custodian",
									"type": "string"
								},
								{
									"internalType": "uint256",
									"name": "departure",
									"type": "uint256"
								},
								{
									"internalType": "bool",
									"name": "shipped",
									"type": "bool"
								},
								{
									"internalType": "bool",
									"name": "arrived",
									"type": "bool"
								},
								{
									"internalType": "uint256",
									"name": "arrival",
									"type": "uint256"
								}
							],
							"indexed": false,
							"internalType": "struct ProductTracker.Location",
							"name": "location",
							"type": "tuple"
						}
					],
					"name": "ProductGenerated",
					"type": "event"
				},
				{
					"anonymous": false,
					"inputs": [
						{
							"indexed": true,
							"internalType": "bytes32",
							"name": "role",
							"type": "bytes32"
						},
						{
							"indexed": true,
							"internalType": "bytes32",
							"name": "previousAdminRole",
							"type": "bytes32"
						},
						{
							"indexed": true,
							"internalType": "bytes32",
							"name": "newAdminRole",
							"type": "bytes32"
						}
					],
					"name": "RoleAdminChanged",
					"type": "event"
				},
				{
					"anonymous": false,
					"inputs": [
						{
							"indexed": true,
							"internalType": "bytes32",
							"name": "role",
							"type": "bytes32"
						},
						{
							"indexed": true,
							"internalType": "address",
							"name": "account",
							"type": "address"
						},
						{
							"indexed": true,
							"internalType": "address",
							"name": "sender",
							"type": "address"
						}
					],
					"name": "RoleGranted",
					"type": "event"
				},
				{
					"anonymous": false,
					"inputs": [
						{
							"indexed": true,
							"internalType": "bytes32",
							"name": "role",
							"type": "bytes32"
						},
						{
							"indexed": true,
							"internalType": "address",
							"name": "account",
							"type": "address"
						},
						{
							"indexed": true,
							"internalType": "address",
							"name": "sender",
							"type": "address"
						}
					],
					"name": "RoleRevoked",
					"type": "event"
				},
				{
					"inputs": [],
					"name": "ADMIN_ROLE",
					"outputs": [
						{
							"internalType": "bytes32",
							"name": "",
							"type": "bytes32"
						}
					],
					"stateMutability": "view",
					"type": "function"
				},
				{
					"inputs": [],
					"name": "COMPANY_OWNER_ROLE",
					"outputs": [
						{
							"internalType": "bytes32",
							"name": "",
							"type": "bytes32"
						}
					],
					"stateMutability": "view",
					"type": "function"
				},
				{
					"inputs": [],
					"name": "DEFAULT_ADMIN_ROLE",
					"outputs": [
						{
							"internalType": "bytes32",
							"name": "",
							"type": "bytes32"
						}
					],
					"stateMutability": "view",
					"type": "function"
				},
				{
					"inputs": [
						{
							"internalType": "string",
							"name": "_productType",
							"type": "string"
						},
						{
							"internalType": "string",
							"name": "_productName",
							"type": "string"
						},
						{
							"internalType": "string",
							"name": "_brandName",
							"type": "string"
						},
						{
							"internalType": "uint256",
							"name": "_quantity",
							"type": "uint256"
						},
						{
							"internalType": "string",
							"name": "_locationName",
							"type": "string"
						},
						{
							"internalType": "string",
							"name": "_custodian",
							"type": "string"
						},
						{
							"internalType": "bool",
							"name": "_shipped",
							"type": "bool"
						}
					],
					"name": "GenerateProduct",
					"outputs": [],
					"stateMutability": "nonpayable",
					"type": "function"
				},
				{
					"inputs": [
						{
							"internalType": "address",
							"name": "_userAddress",
							"type": "address"
						}
					],
					"name": "authorizeCompanyOwner",
					"outputs": [],
					"stateMutability": "nonpayable",
					"type": "function"
				},
				{
					"inputs": [
						{
							"internalType": "uint256",
							"name": "",
							"type": "uint256"
						}
					],
					"name": "companyOwners",
					"outputs": [
						{
							"internalType": "address",
							"name": "",
							"type": "address"
						}
					],
					"stateMutability": "view",
					"type": "function"
				},
				{
					"inputs": [
						{
							"internalType": "bytes32",
							"name": "role",
							"type": "bytes32"
						}
					],
					"name": "getRoleAdmin",
					"outputs": [
						{
							"internalType": "bytes32",
							"name": "",
							"type": "bytes32"
						}
					],
					"stateMutability": "view",
					"type": "function"
				},
				{
					"inputs": [
						{
							"internalType": "address",
							"name": "_admin",
							"type": "address"
						}
					],
					"name": "grantAdminRole",
					"outputs": [],
					"stateMutability": "nonpayable",
					"type": "function"
				},
				{
					"inputs": [
						{
							"internalType": "bytes32",
							"name": "role",
							"type": "bytes32"
						},
						{
							"internalType": "address",
							"name": "account",
							"type": "address"
						}
					],
					"name": "grantRole",
					"outputs": [],
					"stateMutability": "nonpayable",
					"type": "function"
				},
				{
					"inputs": [
						{
							"internalType": "bytes32",
							"name": "role",
							"type": "bytes32"
						},
						{
							"internalType": "address",
							"name": "account",
							"type": "address"
						}
					],
					"name": "hasRole",
					"outputs": [
						{
							"internalType": "bool",
							"name": "",
							"type": "bool"
						}
					],
					"stateMutability": "view",
					"type": "function"
				},
				{
					"inputs": [
						{
							"internalType": "uint256",
							"name": "_productId",
							"type": "uint256"
						},
						{
							"internalType": "string",
							"name": "_locationName",
							"type": "string"
						}
					],
					"name": "initalizeShipment",
					"outputs": [],
					"stateMutability": "nonpayable",
					"type": "function"
				},
				{
					"inputs": [],
					"name": "nextProductId",
					"outputs": [
						{
							"internalType": "uint256",
							"name": "",
							"type": "uint256"
						}
					],
					"stateMutability": "view",
					"type": "function"
				},
				{
					"inputs": [],
					"name": "owner",
					"outputs": [
						{
							"internalType": "address",
							"name": "",
							"type": "address"
						}
					],
					"stateMutability": "view",
					"type": "function"
				},
				{
					"inputs": [
						{
							"internalType": "uint256",
							"name": "",
							"type": "uint256"
						}
					],
					"name": "productGenerator",
					"outputs": [
						{
							"internalType": "address",
							"name": "",
							"type": "address"
						}
					],
					"stateMutability": "view",
					"type": "function"
				},
				{
					"inputs": [
						{
							"internalType": "uint256",
							"name": "",
							"type": "uint256"
						}
					],
					"name": "products",
					"outputs": [
						{
							"internalType": "uint256",
							"name": "productId",
							"type": "uint256"
						},
						{
							"internalType": "string",
							"name": "productType",
							"type": "string"
						},
						{
							"internalType": "string",
							"name": "brandName",
							"type": "string"
						},
						{
							"internalType": "string",
							"name": "productName",
							"type": "string"
						},
						{
							"internalType": "uint256",
							"name": "quantity",
							"type": "uint256"
						},
						{
							"internalType": "uint256",
							"name": "productionDate",
							"type": "uint256"
						},
						{
							"components": [
								{
									"internalType": "string",
									"name": "name",
									"type": "string"
								},
								{
									"internalType": "string",
									"name": "custodian",
									"type": "string"
								},
								{
									"internalType": "uint256",
									"name": "departure",
									"type": "uint256"
								},
								{
									"internalType": "bool",
									"name": "shipped",
									"type": "bool"
								},
								{
									"internalType": "bool",
									"name": "arrived",
									"type": "bool"
								},
								{
									"internalType": "uint256",
									"name": "arrival",
									"type": "uint256"
								}
							],
							"internalType": "struct ProductTracker.Location",
							"name": "location",
							"type": "tuple"
						}
					],
					"stateMutability": "view",
					"type": "function"
				},
				{
					"inputs": [],
					"name": "renounceOwnership",
					"outputs": [],
					"stateMutability": "nonpayable",
					"type": "function"
				},
				{
					"inputs": [
						{
							"internalType": "bytes32",
							"name": "role",
							"type": "bytes32"
						},
						{
							"internalType": "address",
							"name": "callerConfirmation",
							"type": "address"
						}
					],
					"name": "renounceRole",
					"outputs": [],
					"stateMutability": "nonpayable",
					"type": "function"
				},
				{
					"inputs": [
						{
							"internalType": "address",
							"name": "_admin",
							"type": "address"
						}
					],
					"name": "revokeAdminRole",
					"outputs": [],
					"stateMutability": "nonpayable",
					"type": "function"
				},
				{
					"inputs": [
						{
							"internalType": "address",
							"name": "_userAddress",
							"type": "address"
						}
					],
					"name": "revokeCompanyOwner",
					"outputs": [],
					"stateMutability": "nonpayable",
					"type": "function"
				},
				{
					"inputs": [
						{
							"internalType": "bytes32",
							"name": "role",
							"type": "bytes32"
						},
						{
							"internalType": "address",
							"name": "account",
							"type": "address"
						}
					],
					"name": "revokeRole",
					"outputs": [],
					"stateMutability": "nonpayable",
					"type": "function"
				},
				{
					"inputs": [
						{
							"internalType": "bytes4",
							"name": "interfaceId",
							"type": "bytes4"
						}
					],
					"name": "supportsInterface",
					"outputs": [
						{
							"internalType": "bool",
							"name": "",
							"type": "bool"
						}
					],
					"stateMutability": "view",
					"type": "function"
				},
				{
					"inputs": [
						{
							"internalType": "address",
							"name": "newOwner",
							"type": "address"
						}
					],
					"name": "transferOwnership",
					"outputs": [],
					"stateMutability": "nonpayable",
					"type": "function"
				}
			],
			"devdoc": {
				"errors": {
					"AccessControlBadConfirmation()": [
						{
							"details": "The caller of a function is not the expected one. NOTE: Don't confuse with {AccessControlUnauthorizedAccount}."
						}
					],
					"AccessControlUnauthorizedAccount(address,bytes32)": [
						{
							"details": "The `account` is missing a role."
						}
					],
					"OwnableInvalidOwner(address)": [
						{
							"details": "The owner is not a valid owner account. (eg. `address(0)`)"
						}
					],
					"OwnableUnauthorizedAccount(address)": [
						{
							"details": "The caller account is not authorized to perform an operation."
						}
					]
				},
				"events": {
					"RoleAdminChanged(bytes32,bytes32,bytes32)": {
						"details": "Emitted when `newAdminRole` is set as ``role``'s admin role, replacing `previousAdminRole` `DEFAULT_ADMIN_ROLE` is the starting admin for all roles, despite {RoleAdminChanged} not being emitted signaling this."
					},
					"RoleGranted(bytes32,address,address)": {
						"details": "Emitted when `account` is granted `role`. `sender` is the account that originated the contract call, an admin role bearer except when using {AccessControl-_setupRole}."
					},
					"RoleRevoked(bytes32,address,address)": {
						"details": "Emitted when `account` is revoked `role`. `sender` is the account that originated the contract call:   - if using `revokeRole`, it is the admin role bearer   - if using `renounceRole`, it is the role bearer (i.e. `account`)"
					}
				},
				"kind": "dev",
				"methods": {
					"GenerateProduct(string,string,string,uint256,string,string,bool)": {
						"details": "Generates a new product with the given details. The function can only be called by authorized users. Requirements: - Caller must have the AUTHORIZED_ROLE. - Product type, name, brand name, materials and certificates should not be empty. - Quantity must be greater than zero.",
						"params": {
							"_brandName": "The brand name of the product.",
							"_custodian": "Name of the custodian for this product.",
							"_locationName": "Optional location name where the product is initially stored.",
							"_productName": "The name of the product.",
							"_productType": "The type of product.",
							"_quantity": "Quantity of the product.",
							"_shipped": "Indicates if the product has been shipped or not."
						}
					},
					"getRoleAdmin(bytes32)": {
						"details": "Returns the admin role that controls `role`. See {grantRole} and {revokeRole}. To change a role's admin, use {_setRoleAdmin}."
					},
					"grantRole(bytes32,address)": {
						"details": "Grants `role` to `account`. If `account` had not been already granted `role`, emits a {RoleGranted} event. Requirements: - the caller must have ``role``'s admin role. May emit a {RoleGranted} event."
					},
					"hasRole(bytes32,address)": {
						"details": "Returns `true` if `account` has been granted `role`."
					},
					"initalizeShipment(uint256,string)": {
						"details": "Initializes the shipment status of a product. The function can only be called by authorized users. Requirements: - Caller must have the AUTHORIZED_ROLE. - Product should exist and not be out of stock. - Product should have been shipped before.",
						"params": {
							"_locationName": "The new location name where the product is stored.",
							"_productId": "The ID of the product to initialize shipment for."
						}
					},
					"owner()": {
						"details": "Returns the address of the current owner."
					},
					"renounceOwnership()": {
						"details": "Leaves the contract without owner. It will not be possible to call `onlyOwner` functions. Can only be called by the current owner. NOTE: Renouncing ownership will leave the contract without an owner, thereby disabling any functionality that is only available to the owner."
					},
					"renounceRole(bytes32,address)": {
						"details": "Revokes `role` from the calling account. Roles are often managed via {grantRole} and {revokeRole}: this function's purpose is to provide a mechanism for accounts to lose their privileges if they are compromised (such as when a trusted device is misplaced). If the calling account had been revoked `role`, emits a {RoleRevoked} event. Requirements: - the caller must be `callerConfirmation`. May emit a {RoleRevoked} event."
					},
					"revokeRole(bytes32,address)": {
						"details": "Revokes `role` from `account`. If `account` had been granted `role`, emits a {RoleRevoked} event. Requirements: - the caller must have ``role``'s admin role. May emit a {RoleRevoked} event."
					},
					"supportsInterface(bytes4)": {
						"details": "See {IERC165-supportsInterface}."
					},
					"transferOwnership(address)": {
						"details": "Transfers ownership of the contract to a new account (`newOwner`). Can only be called by the current owner."
					}
				},
				"title": "ProductTracker This contract allows tracking of products in a supply chain with various attributes and location details.",
				"version": 1
			},
			"evm": {
				"assembly": "    /* \"Product Tracker Smart Contract/Product Tracker Main/ProductTracker.sol\":337:7625  contract ProductTracker is Ownable(msg.sender), AccessControl {... */\n  mstore(0x40, 0x80)\n    /* \"Product Tracker Smart Contract/Product Tracker Main/ProductTracker.sol\":597:598  1 */\n  0x01\n    /* \"Product Tracker Smart Contract/Product Tracker Main/ProductTracker.sol\":566:598  uint256 public nextProductId = 1 */\n  0x02\n  sstore\n    /* \"Product Tracker Smart Contract/Product Tracker Main/ProductTracker.sol\":337:7625  contract ProductTracker is Ownable(msg.sender), AccessControl {... */\n  callvalue\n  dup1\n  iszero\n  tag_1\n  jumpi\n  0x00\n  dup1\n  revert\ntag_1:\n  pop\n    /* \"Product Tracker Smart Contract/Product Tracker Main/ProductTracker.sol\":372:382  msg.sender */\n  caller\n    /* \"@openzeppelin/contracts/access/Ownable.sol\":1297:1298  0 */\n  0x00\n    /* \"@openzeppelin/contracts/access/Ownable.sol\":1273:1299  initialOwner == address(0) */\n  0xffffffffffffffffffffffffffffffffffffffff\n  and\n    /* \"@openzeppelin/contracts/access/Ownable.sol\":1273:1285  initialOwner */\n  dup2\n    /* \"@openzeppelin/contracts/access/Ownable.sol\":1273:1299  initialOwner == address(0) */\n  0xffffffffffffffffffffffffffffffffffffffff\n  and\n  sub\n    /* \"@openzeppelin/contracts/access/Ownable.sol\":1269:1364  if (initialOwner == address(0)) {... */\n  tag_4\n  jumpi\n    /* \"@openzeppelin/contracts/access/Ownable.sol\":1350:1351  0 */\n  0x00\n    /* \"@openzeppelin/contracts/access/Ownable.sol\":1322:1353  OwnableInvalidOwner(address(0)) */\n  mload(0x40)\n  0x1e4fbdf700000000000000000000000000000000000000000000000000000000\n  dup2\n  mstore\n  0x04\n  add\n  tag_5\n  swap2\n  swap1\n  tag_6\n  jump\t// in\ntag_5:\n  mload(0x40)\n  dup1\n  swap2\n  sub\n  swap1\n  revert\n    /* \"@openzeppelin/contracts/access/Ownable.sol\":1269:1364  if (initialOwner == address(0)) {... */\ntag_4:\n    /* \"@openzeppelin/contracts/access/Ownable.sol\":1373:1405  _transferOwnership(initialOwner) */\n  tag_7\n    /* \"@openzeppelin/contracts/access/Ownable.sol\":1392:1404  initialOwner */\n  dup2\n    /* \"@openzeppelin/contracts/access/Ownable.sol\":1373:1391  _transferOwnership */\n  shl(0x20, tag_8)\n    /* \"@openzeppelin/contracts/access/Ownable.sol\":1373:1405  _transferOwnership(initialOwner) */\n  0x20\n  shr\n  jump\t// in\ntag_7:\n    /* \"@openzeppelin/contracts/access/Ownable.sol\":1225:1412  constructor(address initialOwner) {... */\n  pop\n    /* \"Product Tracker Smart Contract/Product Tracker Main/ProductTracker.sol\":337:7625  contract ProductTracker is Ownable(msg.sender), AccessControl {... */\n  jump(tag_9)\n    /* \"@openzeppelin/contracts/access/Ownable.sol\":2912:3099  function _transferOwnership(address newOwner) internal virtual {... */\ntag_8:\n    /* \"@openzeppelin/contracts/access/Ownable.sol\":2985:3001  address oldOwner */\n  0x00\n    /* \"@openzeppelin/contracts/access/Ownable.sol\":3004:3010  _owner */\n  dup1\n  0x00\n  swap1\n  sload\n  swap1\n  0x0100\n  exp\n  swap1\n  div\n  0xffffffffffffffffffffffffffffffffffffffff\n  and\n    /* \"@openzeppelin/contracts/access/Ownable.sol\":2985:3010  address oldOwner = _owner */\n  swap1\n  pop\n    /* \"@openzeppelin/contracts/access/Ownable.sol\":3029:3037  newOwner */\n  dup2\n    /* \"@openzeppelin/contracts/access/Ownable.sol\":3020:3026  _owner */\n  0x00\n  dup1\n    /* \"@openzeppelin/contracts/access/Ownable.sol\":3020:3037  _owner = newOwner */\n  0x0100\n  exp\n  dup2\n  sload\n  dup2\n  0xffffffffffffffffffffffffffffffffffffffff\n  mul\n  not\n  and\n  swap1\n  dup4\n  0xffffffffffffffffffffffffffffffffffffffff\n  and\n  mul\n  or\n  swap1\n  sstore\n  pop\n    /* \"@openzeppelin/contracts/access/Ownable.sol\":3083:3091  newOwner */\n  dup2\n    /* \"@openzeppelin/contracts/access/Ownable.sol\":3052:3092  OwnershipTransferred(oldOwner, newOwner) */\n  0xffffffffffffffffffffffffffffffffffffffff\n  and\n    /* \"@openzeppelin/contracts/access/Ownable.sol\":3073:3081  oldOwner */\n  dup2\n    /* \"@openzeppelin/contracts/access/Ownable.sol\":3052:3092  OwnershipTransferred(oldOwner, newOwner) */\n  0xffffffffffffffffffffffffffffffffffffffff\n  and\n  0x8be0079c531659141344cd1fd0a4f28419497f9722a3daafe3b4186f6b6457e0\n  mload(0x40)\n  mload(0x40)\n  dup1\n  swap2\n  sub\n  swap1\n  log3\n    /* \"@openzeppelin/contracts/access/Ownable.sol\":2975:3099  {... */\n  pop\n    /* \"@openzeppelin/contracts/access/Ownable.sol\":2912:3099  function _transferOwnership(address newOwner) internal virtual {... */\n  pop\n  jump\t// out\n    /* \"#utility.yul\":7:133   */\ntag_11:\n    /* \"#utility.yul\":44:51   */\n  0x00\n    /* \"#utility.yul\":84:126   */\n  0xffffffffffffffffffffffffffffffffffffffff\n    /* \"#utility.yul\":77:82   */\n  dup3\n    /* \"#utility.yul\":73:127   */\n  and\n    /* \"#utility.yul\":62:127   */\n  swap1\n  pop\n    /* \"#utility.yul\":7:133   */\n  swap2\n  swap1\n  pop\n  jump\t// out\n    /* \"#utility.yul\":139:235   */\ntag_12:\n    /* \"#utility.yul\":176:183   */\n  0x00\n    /* \"#utility.yul\":205:229   */\n  tag_17\n    /* \"#utility.yul\":223:228   */\n  dup3\n    /* \"#utility.yul\":205:229   */\n  tag_11\n  jump\t// in\ntag_17:\n    /* \"#utility.yul\":194:229   */\n  swap1\n  pop\n    /* \"#utility.yul\":139:235   */\n  swap2\n  swap1\n  pop\n  jump\t// out\n    /* \"#utility.yul\":241:359   */\ntag_13:\n    /* \"#utility.yul\":328:352   */\n  tag_19\n    /* \"#utility.yul\":346:351   */\n  dup2\n    /* \"#utility.yul\":328:352   */\n  tag_12\n  jump\t// in\ntag_19:\n    /* \"#utility.yul\":323:326   */\n  dup3\n    /* \"#utility.yul\":316:353   */\n  mstore\n    /* \"#utility.yul\":241:359   */\n  pop\n  pop\n  jump\t// out\n    /* \"#utility.yul\":365:587   */\ntag_6:\n    /* \"#utility.yul\":458:462   */\n  0x00\n    /* \"#utility.yul\":496:498   */\n  0x20\n    /* \"#utility.yul\":485:494   */\n  dup3\n    /* \"#utility.yul\":481:499   */\n  add\n    /* \"#utility.yul\":473:499   */\n  swap1\n  pop\n    /* \"#utility.yul\":509:580   */\n  tag_21\n    /* \"#utility.yul\":577:578   */\n  0x00\n    /* \"#utility.yul\":566:575   */\n  dup4\n    /* \"#utility.yul\":562:579   */\n  add\n    /* \"#utility.yul\":553:559   */\n  dup5\n    /* \"#utility.yul\":509:580   */\n  tag_13\n  jump\t// in\ntag_21:\n    /* \"#utility.yul\":365:587   */\n  swap3\n  swap2\n  pop\n  pop\n  jump\t// out\n    /* \"Product Tracker Smart Contract/Product Tracker Main/ProductTracker.sol\":337:7625  contract ProductTracker is Ownable(msg.sender), AccessControl {... */\ntag_9:\n  dataSize(sub_0)\n  dup1\n  dataOffset(sub_0)\n  0x00\n  codecopy\n  0x00\n  return\nstop\n\nsub_0: assembly {\n        /* \"Product Tracker Smart Contract/Product Tracker Main/ProductTracker.sol\":337:7625  contract ProductTracker is Ownable(msg.sender), AccessControl {... */\n      mstore(0x40, 0x80)\n      callvalue\n      dup1\n      iszero\n      tag_1\n      jumpi\n      0x00\n      dup1\n      revert\n    tag_1:\n      pop\n      jumpi(tag_2, lt(calldatasize, 0x04))\n      shr(0xe0, calldataload(0x00))\n      dup1\n      0x79c37979\n      gt\n      tag_25\n      jumpi\n      dup1\n      0xa217fddf\n      gt\n      tag_26\n      jumpi\n      dup1\n      0xa217fddf\n      eq\n      tag_19\n      jumpi\n      dup1\n      0xa93253c1\n      eq\n      tag_20\n      jumpi\n      dup1\n      0xaed4af01\n      eq\n      tag_21\n      jumpi\n      dup1\n      0xc634b78e\n      eq\n      tag_22\n      jumpi\n      dup1\n      0xd547741f\n      eq\n      tag_23\n      jumpi\n      dup1\n      0xf2fde38b\n      eq\n      tag_24\n      jumpi\n      jump(tag_2)\n    tag_26:\n      dup1\n      0x79c37979\n      eq\n      tag_14\n      jumpi\n      dup1\n      0x7acc0b20\n      eq\n      tag_15\n      jumpi\n      dup1\n      0x8da5cb5b\n      eq\n      tag_16\n      jumpi\n      dup1\n      0x91d14854\n      eq\n      tag_17\n      jumpi\n      dup1\n      0x9a19c7b0\n      eq\n      tag_18\n      jumpi\n      jump(tag_2)\n    tag_25:\n      dup1\n      0x2f2ff15d\n      gt\n      tag_27\n      jumpi\n      dup1\n      0x2f2ff15d\n      eq\n      tag_8\n      jumpi\n      dup1\n      0x36568abe\n      eq\n      tag_9\n      jumpi\n      dup1\n      0x4de91a63\n      eq\n      tag_10\n      jumpi\n      dup1\n      0x5bb88544\n      eq\n      tag_11\n      jumpi\n      dup1\n      0x715018a6\n      eq\n      tag_12\n      jumpi\n      dup1\n      0x75b238fc\n      eq\n      tag_13\n      jumpi\n      jump(tag_2)\n    tag_27:\n      dup1\n      0x01ffc9a7\n      eq\n      tag_3\n      jumpi\n      dup1\n      0x0c5a713d\n      eq\n      tag_4\n      jumpi\n      dup1\n      0x13deabc1\n      eq\n      tag_5\n      jumpi\n      dup1\n      0x21120f9a\n      eq\n      tag_6\n      jumpi\n      dup1\n      0x248a9ca3\n      eq\n      tag_7\n      jumpi\n    tag_2:\n      0x00\n      dup1\n      revert\n        /* \"@openzeppelin/contracts/access/AccessControl.sol\":2565:2767  function supportsInterface(bytes4 interfaceId) public view virtual override returns (bool) {... */\n    tag_3:\n      tag_28\n      0x04\n      dup1\n      calldatasize\n      sub\n      dup2\n      add\n      swap1\n      tag_29\n      swap2\n      swap1\n      tag_30\n      jump\t// in\n    tag_29:\n      tag_31\n      jump\t// in\n    tag_28:\n      mload(0x40)\n      tag_32\n      swap2\n      swap1\n      tag_33\n      jump\t// in\n    tag_32:\n      mload(0x40)\n      dup1\n      swap2\n      sub\n      swap1\n      return\n        /* \"Product Tracker Smart Contract/Product Tracker Main/ProductTracker.sol\":405:476  bytes32 public constant COMPANY_OWNER_ROLE = keccak256(\"COMPANY_OWNER\") */\n    tag_4:\n      tag_34\n      tag_35\n      jump\t// in\n    tag_34:\n      mload(0x40)\n      tag_36\n      swap2\n      swap1\n      tag_37\n      jump\t// in\n    tag_36:\n      mload(0x40)\n      dup1\n      swap2\n      sub\n      swap1\n      return\n        /* \"Product Tracker Smart Contract/Product Tracker Main/ProductTracker.sol\":3321:3452  function authorizeCompanyOwner(address _userAddress) public onlyOwner {... */\n    tag_5:\n      tag_38\n      0x04\n      dup1\n      calldatasize\n      sub\n      dup2\n      add\n      swap1\n      tag_39\n      swap2\n      swap1\n      tag_40\n      jump\t// in\n    tag_39:\n      tag_41\n      jump\t// in\n    tag_38:\n      stop\n        /* \"Product Tracker Smart Contract/Product Tracker Main/ProductTracker.sol\":6704:7623  function initalizeShipment(uint256 _productId, string memory _locationName)... */\n    tag_6:\n      tag_42\n      0x04\n      dup1\n      calldatasize\n      sub\n      dup2\n      add\n      swap1\n      tag_43\n      swap2\n      swap1\n      tag_44\n      jump\t// in\n    tag_43:\n      tag_45\n      jump\t// in\n    tag_42:\n      stop\n        /* \"@openzeppelin/contracts/access/AccessControl.sol\":3810:3930  function getRoleAdmin(bytes32 role) public view virtual returns (bytes32) {... */\n    tag_7:\n      tag_46\n      0x04\n      dup1\n      calldatasize\n      sub\n      dup2\n      add\n      swap1\n      tag_47\n      swap2\n      swap1\n      tag_48\n      jump\t// in\n    tag_47:\n      tag_49\n      jump\t// in\n    tag_46:\n      mload(0x40)\n      tag_50\n      swap2\n      swap1\n      tag_37\n      jump\t// in\n    tag_50:\n      mload(0x40)\n      dup1\n      swap2\n      sub\n      swap1\n      return\n        /* \"@openzeppelin/contracts/access/AccessControl.sol\":4226:4362  function grantRole(bytes32 role, address account) public virtual onlyRole(getRoleAdmin(role)) {... */\n    tag_8:\n      tag_51\n      0x04\n      dup1\n      calldatasize\n      sub\n      dup2\n      add\n      swap1\n      tag_52\n      swap2\n      swap1\n      tag_53\n      jump\t// in\n    tag_52:\n      tag_54\n      jump\t// in\n    tag_51:\n      stop\n        /* \"@openzeppelin/contracts/access/AccessControl.sol\":5328:5573  function renounceRole(bytes32 role, address callerConfirmation) public virtual {... */\n    tag_9:\n      tag_55\n      0x04\n      dup1\n      calldatasize\n      sub\n      dup2\n      add\n      swap1\n      tag_56\n      swap2\n      swap1\n      tag_53\n      jump\t// in\n    tag_56:\n      tag_57\n      jump\t// in\n    tag_55:\n      stop\n        /* \"Product Tracker Smart Contract/Product Tracker Main/ProductTracker.sol\":566:598  uint256 public nextProductId = 1 */\n    tag_10:\n      tag_58\n      tag_59\n      jump\t// in\n    tag_58:\n      mload(0x40)\n      tag_60\n      swap2\n      swap1\n      tag_61\n      jump\t// in\n    tag_60:\n      mload(0x40)\n      dup1\n      swap2\n      sub\n      swap1\n      return\n        /* \"Product Tracker Smart Contract/Product Tracker Main/ProductTracker.sol\":4777:6191  function GenerateProduct(... */\n    tag_11:\n      tag_62\n      0x04\n      dup1\n      calldatasize\n      sub\n      dup2\n      add\n      swap1\n      tag_63\n      swap2\n      swap1\n      tag_64\n      jump\t// in\n    tag_63:\n      tag_65\n      jump\t// in\n    tag_62:\n      stop\n        /* \"@openzeppelin/contracts/access/Ownable.sol\":2293:2394  function renounceOwnership() public virtual onlyOwner {... */\n    tag_12:\n      tag_66\n      tag_67\n      jump\t// in\n    tag_66:\n      stop\n        /* \"Product Tracker Smart Contract/Product Tracker Main/ProductTracker.sol\":482:537  bytes32 public constant ADMIN_ROLE = keccak256(\"ADMIN\") */\n    tag_13:\n      tag_68\n      tag_69\n      jump\t// in\n    tag_68:\n      mload(0x40)\n      tag_70\n      swap2\n      swap1\n      tag_37\n      jump\t// in\n    tag_70:\n      mload(0x40)\n      dup1\n      swap2\n      sub\n      swap1\n      return\n        /* \"Product Tracker Smart Contract/Product Tracker Main/ProductTracker.sol\":3458:3587  function revokeCompanyOwner(address _userAddress) public onlyOwner {... */\n    tag_14:\n      tag_71\n      0x04\n      dup1\n      calldatasize\n      sub\n      dup2\n      add\n      swap1\n      tag_72\n      swap2\n      swap1\n      tag_40\n      jump\t// in\n    tag_72:\n      tag_73\n      jump\t// in\n    tag_71:\n      stop\n        /* \"Product Tracker Smart Contract/Product Tracker Main/ProductTracker.sol\":999:1042  mapping(uint256 => Product) public products */\n    tag_15:\n      tag_74\n      0x04\n      dup1\n      calldatasize\n      sub\n      dup2\n      add\n      swap1\n      tag_75\n      swap2\n      swap1\n      tag_76\n      jump\t// in\n    tag_75:\n      tag_77\n      jump\t// in\n    tag_74:\n      mload(0x40)\n      tag_78\n      swap8\n      swap7\n      swap6\n      swap5\n      swap4\n      swap3\n      swap2\n      swap1\n      tag_79\n      jump\t// in\n    tag_78:\n      mload(0x40)\n      dup1\n      swap2\n      sub\n      swap1\n      return\n        /* \"@openzeppelin/contracts/access/Ownable.sol\":1638:1723  function owner() public view virtual returns (address) {... */\n    tag_16:\n      tag_80\n      tag_81\n      jump\t// in\n    tag_80:\n      mload(0x40)\n      tag_82\n      swap2\n      swap1\n      tag_83\n      jump\t// in\n    tag_82:\n      mload(0x40)\n      dup1\n      swap2\n      sub\n      swap1\n      return\n        /* \"@openzeppelin/contracts/access/AccessControl.sol\":2854:2990  function hasRole(bytes32 role, address account) public view virtual returns (bool) {... */\n    tag_17:\n      tag_84\n      0x04\n      dup1\n      calldatasize\n      sub\n      dup2\n      add\n      swap1\n      tag_85\n      swap2\n      swap1\n      tag_53\n      jump\t// in\n    tag_85:\n      tag_86\n      jump\t// in\n    tag_84:\n      mload(0x40)\n      tag_87\n      swap2\n      swap1\n      tag_33\n      jump\t// in\n    tag_87:\n      mload(0x40)\n      dup1\n      swap2\n      sub\n      swap1\n      return\n        /* \"Product Tracker Smart Contract/Product Tracker Main/ProductTracker.sol\":3742:3887  function revokeAdminRole(address _admin)... */\n    tag_18:\n      tag_88\n      0x04\n      dup1\n      calldatasize\n      sub\n      dup2\n      add\n      swap1\n      tag_89\n      swap2\n      swap1\n      tag_40\n      jump\t// in\n    tag_89:\n      tag_90\n      jump\t// in\n    tag_88:\n      stop\n        /* \"@openzeppelin/contracts/access/AccessControl.sol\":2187:2236  bytes32 public constant DEFAULT_ADMIN_ROLE = 0x00 */\n    tag_19:\n      tag_91\n      tag_92\n      jump\t// in\n    tag_91:\n      mload(0x40)\n      tag_93\n      swap2\n      swap1\n      tag_37\n      jump\t// in\n    tag_93:\n      mload(0x40)\n      dup1\n      swap2\n      sub\n      swap1\n      return\n        /* \"Product Tracker Smart Contract/Product Tracker Main/ProductTracker.sol\":1105:1153  mapping(uint256 => address) public companyOwners */\n    tag_20:\n      tag_94\n      0x04\n      dup1\n      calldatasize\n      sub\n      dup2\n      add\n      swap1\n      tag_95\n      swap2\n      swap1\n      tag_76\n      jump\t// in\n    tag_95:\n      tag_96\n      jump\t// in\n    tag_94:\n      mload(0x40)\n      tag_97\n      swap2\n      swap1\n      tag_83\n      jump\t// in\n    tag_97:\n      mload(0x40)\n      dup1\n      swap2\n      sub\n      swap1\n      return\n        /* \"Product Tracker Smart Contract/Product Tracker Main/ProductTracker.sol\":1048:1099  mapping(uint256 => address) public productGenerator */\n    tag_21:\n      tag_98\n      0x04\n      dup1\n      calldatasize\n      sub\n      dup2\n      add\n      swap1\n      tag_99\n      swap2\n      swap1\n      tag_76\n      jump\t// in\n    tag_99:\n      tag_100\n      jump\t// in\n    tag_98:\n      mload(0x40)\n      tag_101\n      swap2\n      swap1\n      tag_83\n      jump\t// in\n    tag_101:\n      mload(0x40)\n      dup1\n      swap2\n      sub\n      swap1\n      return\n        /* \"Product Tracker Smart Contract/Product Tracker Main/ProductTracker.sol\":3593:3736  function grantAdminRole(address _admin)... */\n    tag_22:\n      tag_102\n      0x04\n      dup1\n      calldatasize\n      sub\n      dup2\n      add\n      swap1\n      tag_103\n      swap2\n      swap1\n      tag_40\n      jump\t// in\n    tag_103:\n      tag_104\n      jump\t// in\n    tag_102:\n      stop\n        /* \"@openzeppelin/contracts/access/AccessControl.sol\":4642:4780  function revokeRole(bytes32 role, address account) public virtual onlyRole(getRoleAdmin(role)) {... */\n    tag_23:\n      tag_105\n      0x04\n      dup1\n      calldatasize\n      sub\n      dup2\n      add\n      swap1\n      tag_106\n      swap2\n      swap1\n      tag_53\n      jump\t// in\n    tag_106:\n      tag_107\n      jump\t// in\n    tag_105:\n      stop\n        /* \"@openzeppelin/contracts/access/Ownable.sol\":2543:2758  function transferOwnership(address newOwner) public virtual onlyOwner {... */\n    tag_24:\n      tag_108\n      0x04\n      dup1\n      calldatasize\n      sub\n      dup2\n      add\n      swap1\n      tag_109\n      swap2\n      swap1\n      tag_40\n      jump\t// in\n    tag_109:\n      tag_110\n      jump\t// in\n    tag_108:\n      stop\n        /* \"@openzeppelin/contracts/access/AccessControl.sol\":2565:2767  function supportsInterface(bytes4 interfaceId) public view virtual override returns (bool) {... */\n    tag_31:\n        /* \"@openzeppelin/contracts/access/AccessControl.sol\":2650:2654  bool */\n      0x00\n        /* \"@openzeppelin/contracts/access/AccessControl.sol\":2688:2720  type(IAccessControl).interfaceId */\n      0x7965db0b00000000000000000000000000000000000000000000000000000000\n        /* \"@openzeppelin/contracts/access/AccessControl.sol\":2673:2720  interfaceId == type(IAccessControl).interfaceId */\n      not(0xffffffffffffffffffffffffffffffffffffffffffffffffffffffff)\n      and\n        /* \"@openzeppelin/contracts/access/AccessControl.sol\":2673:2684  interfaceId */\n      dup3\n        /* \"@openzeppelin/contracts/access/AccessControl.sol\":2673:2720  interfaceId == type(IAccessControl).interfaceId */\n      not(0xffffffffffffffffffffffffffffffffffffffffffffffffffffffff)\n      and\n      eq\n        /* \"@openzeppelin/contracts/access/AccessControl.sol\":2673:2760  interfaceId == type(IAccessControl).interfaceId || super.supportsInterface(interfaceId) */\n      dup1\n      tag_112\n      jumpi\n      pop\n        /* \"@openzeppelin/contracts/access/AccessControl.sol\":2724:2760  super.supportsInterface(interfaceId) */\n      tag_113\n        /* \"@openzeppelin/contracts/access/AccessControl.sol\":2748:2759  interfaceId */\n      dup3\n        /* \"@openzeppelin/contracts/access/AccessControl.sol\":2724:2747  super.supportsInterface */\n      tag_114\n        /* \"@openzeppelin/contracts/access/AccessControl.sol\":2724:2760  super.supportsInterface(interfaceId) */\n      jump\t// in\n    tag_113:\n        /* \"@openzeppelin/contracts/access/AccessControl.sol\":2673:2760  interfaceId == type(IAccessControl).interfaceId || super.supportsInterface(interfaceId) */\n    tag_112:\n        /* \"@openzeppelin/contracts/access/AccessControl.sol\":2666:2760  return interfaceId == type(IAccessControl).interfaceId || super.supportsInterface(interfaceId) */\n      swap1\n      pop\n        /* \"@openzeppelin/contracts/access/AccessControl.sol\":2565:2767  function supportsInterface(bytes4 interfaceId) public view virtual override returns (bool) {... */\n      swap2\n      swap1\n      pop\n      jump\t// out\n        /* \"Product Tracker Smart Contract/Product Tracker Main/ProductTracker.sol\":405:476  bytes32 public constant COMPANY_OWNER_ROLE = keccak256(\"COMPANY_OWNER\") */\n    tag_35:\n        /* \"Product Tracker Smart Contract/Product Tracker Main/ProductTracker.sol\":450:476  keccak256(\"COMPANY_OWNER\") */\n      0x632405d99f3a4d6966c57f76cc301a3c7cab4b56ce8e567a4198e9434b3fbb5b\n        /* \"Product Tracker Smart Contract/Product Tracker Main/ProductTracker.sol\":405:476  bytes32 public constant COMPANY_OWNER_ROLE = keccak256(\"COMPANY_OWNER\") */\n      dup2\n      jump\t// out\n        /* \"Product Tracker Smart Contract/Product Tracker Main/ProductTracker.sol\":3321:3452  function authorizeCompanyOwner(address _userAddress) public onlyOwner {... */\n    tag_41:\n        /* \"@openzeppelin/contracts/access/Ownable.sol\":1531:1544  _checkOwner() */\n      tag_116\n        /* \"@openzeppelin/contracts/access/Ownable.sol\":1531:1542  _checkOwner */\n      tag_117\n        /* \"@openzeppelin/contracts/access/Ownable.sol\":1531:1544  _checkOwner() */\n      jump\t// in\n    tag_116:\n        /* \"Product Tracker Smart Contract/Product Tracker Main/ProductTracker.sol\":3401:3445  _grantRole(COMPANY_OWNER_ROLE, _userAddress) */\n      tag_119\n        /* \"Product Tracker Smart Contract/Product Tracker Main/ProductTracker.sol\":450:476  keccak256(\"COMPANY_OWNER\") */\n      0x632405d99f3a4d6966c57f76cc301a3c7cab4b56ce8e567a4198e9434b3fbb5b\n        /* \"Product Tracker Smart Contract/Product Tracker Main/ProductTracker.sol\":3432:3444  _userAddress */\n      dup3\n        /* \"Product Tracker Smart Contract/Product Tracker Main/ProductTracker.sol\":3401:3411  _grantRole */\n      tag_120\n        /* \"Product Tracker Smart Contract/Product Tracker Main/ProductTracker.sol\":3401:3445  _grantRole(COMPANY_OWNER_ROLE, _userAddress) */\n      jump\t// in\n    tag_119:\n      pop\n        /* \"Product Tracker Smart Contract/Product Tracker Main/ProductTracker.sol\":3321:3452  function authorizeCompanyOwner(address _userAddress) public onlyOwner {... */\n      pop\n      jump\t// out\n        /* \"Product Tracker Smart Contract/Product Tracker Main/ProductTracker.sol\":6704:7623  function initalizeShipment(uint256 _productId, string memory _locationName)... */\n    tag_45:\n        /* \"Product Tracker Smart Contract/Product Tracker Main/ProductTracker.sol\":6818:6828  _productId */\n      dup2\n        /* \"Product Tracker Smart Contract/Product Tracker Main/ProductTracker.sol\":1862:1867  false */\n      0x00\n        /* \"Product Tracker Smart Contract/Product Tracker Main/ProductTracker.sol\":1821:1867  products[_productId].location.shipped == false */\n      iszero\n      iszero\n        /* \"Product Tracker Smart Contract/Product Tracker Main/ProductTracker.sol\":1821:1829  products */\n      0x03\n        /* \"Product Tracker Smart Contract/Product Tracker Main/ProductTracker.sol\":1821:1841  products[_productId] */\n      0x00\n        /* \"Product Tracker Smart Contract/Product Tracker Main/ProductTracker.sol\":1830:1840  _productId */\n      dup4\n        /* \"Product Tracker Smart Contract/Product Tracker Main/ProductTracker.sol\":1821:1841  products[_productId] */\n      dup2\n      mstore\n      0x20\n      add\n      swap1\n      dup2\n      mstore\n      0x20\n      add\n      0x00\n      keccak256\n        /* \"Product Tracker Smart Contract/Product Tracker Main/ProductTracker.sol\":1821:1850  products[_productId].location */\n      0x06\n      add\n        /* \"Product Tracker Smart Contract/Product Tracker Main/ProductTracker.sol\":1821:1858  products[_productId].location.shipped */\n      0x03\n      add\n      0x00\n      swap1\n      sload\n      swap1\n      0x0100\n      exp\n      swap1\n      div\n      0xff\n      and\n        /* \"Product Tracker Smart Contract/Product Tracker Main/ProductTracker.sol\":1821:1867  products[_productId].location.shipped == false */\n      iszero\n      iszero\n      eq\n        /* \"Product Tracker Smart Contract/Product Tracker Main/ProductTracker.sol\":1800:1917  require(... */\n      tag_122\n      jumpi\n      mload(0x40)\n      0x08c379a000000000000000000000000000000000000000000000000000000000\n      dup2\n      mstore\n      0x04\n      add\n      tag_123\n      swap1\n      tag_124\n      jump\t// in\n    tag_123:\n      mload(0x40)\n      dup1\n      swap2\n      sub\n      swap1\n      revert\n    tag_122:\n        /* \"Product Tracker Smart Contract/Product Tracker Main/ProductTracker.sol\":1982:1992  _productId */\n      dup1\n        /* \"Product Tracker Smart Contract/Product Tracker Main/ProductTracker.sol\":1948:1956  products */\n      0x03\n        /* \"Product Tracker Smart Contract/Product Tracker Main/ProductTracker.sol\":1948:1968  products[_productId] */\n      0x00\n        /* \"Product Tracker Smart Contract/Product Tracker Main/ProductTracker.sol\":1957:1967  _productId */\n      dup4\n        /* \"Product Tracker Smart Contract/Product Tracker Main/ProductTracker.sol\":1948:1968  products[_productId] */\n      dup2\n      mstore\n      0x20\n      add\n      swap1\n      dup2\n      mstore\n      0x20\n      add\n      0x00\n      keccak256\n        /* \"Product Tracker Smart Contract/Product Tracker Main/ProductTracker.sol\":1948:1978  products[_productId].productId */\n      0x00\n      add\n      sload\n        /* \"Product Tracker Smart Contract/Product Tracker Main/ProductTracker.sol\":1948:1992  products[_productId].productId == _productId */\n      eq\n        /* \"Product Tracker Smart Contract/Product Tracker Main/ProductTracker.sol\":1927:2040  require(... */\n      tag_125\n      jumpi\n      mload(0x40)\n      0x08c379a000000000000000000000000000000000000000000000000000000000\n      dup2\n      mstore\n      0x04\n      add\n      tag_126\n      swap1\n      tag_127\n      jump\t// in\n    tag_126:\n      mload(0x40)\n      dup1\n      swap2\n      sub\n      swap1\n      revert\n    tag_125:\n        /* \"Product Tracker Smart Contract/Product Tracker Main/ProductTracker.sol\":2091:2092  0 */\n      0x00\n        /* \"Product Tracker Smart Contract/Product Tracker Main/ProductTracker.sol\":2058:2066  products */\n      0x03\n        /* \"Product Tracker Smart Contract/Product Tracker Main/ProductTracker.sol\":2058:2078  products[_productId] */\n      0x00\n        /* \"Product Tracker Smart Contract/Product Tracker Main/ProductTracker.sol\":2067:2077  _productId */\n      dup4\n        /* \"Product Tracker Smart Contract/Product Tracker Main/ProductTracker.sol\":2058:2078  products[_productId] */\n      dup2\n      mstore\n      0x20\n      add\n      swap1\n      dup2\n      mstore\n      0x20\n      add\n      0x00\n      keccak256\n        /* \"Product Tracker Smart Contract/Product Tracker Main/ProductTracker.sol\":2058:2087  products[_productId].quantity */\n      0x04\n      add\n      sload\n        /* \"Product Tracker Smart Contract/Product Tracker Main/ProductTracker.sol\":2058:2092  products[_productId].quantity != 0 */\n      sub\n        /* \"Product Tracker Smart Contract/Product Tracker Main/ProductTracker.sol\":2050:2120  require(products[_productId].quantity != 0, \"Product is out of stock\") */\n      tag_128\n      jumpi\n      mload(0x40)\n      0x08c379a000000000000000000000000000000000000000000000000000000000\n      dup2\n      mstore\n      0x04\n      add\n      tag_129\n      swap1\n      tag_130\n      jump\t// in\n    tag_129:\n      mload(0x40)\n      dup1\n      swap2\n      sub\n      swap1\n      revert\n    tag_128:\n        /* \"Product Tracker Smart Contract/Product Tracker Main/ProductTracker.sol\":450:476  keccak256(\"COMPANY_OWNER\") */\n      0x632405d99f3a4d6966c57f76cc301a3c7cab4b56ce8e567a4198e9434b3fbb5b\n        /* \"@openzeppelin/contracts/access/AccessControl.sol\":2464:2480  _checkRole(role) */\n      tag_132\n        /* \"@openzeppelin/contracts/access/AccessControl.sol\":2475:2479  role */\n      dup2\n        /* \"@openzeppelin/contracts/access/AccessControl.sol\":2464:2474  _checkRole */\n      tag_133\n        /* \"@openzeppelin/contracts/access/AccessControl.sol\":2464:2480  _checkRole(role) */\n      jump\t// in\n    tag_132:\n        /* \"Product Tracker Smart Contract/Product Tracker Main/ProductTracker.sol\":519:537  keccak256(\"ADMIN\") */\n      0xdf8b4c520ffe197c5343c6f5aec59570151ef9a492f2c624fd45ddde6135ec42\n        /* \"@openzeppelin/contracts/access/AccessControl.sol\":2464:2480  _checkRole(role) */\n      tag_135\n        /* \"@openzeppelin/contracts/access/AccessControl.sol\":2475:2479  role */\n      dup2\n        /* \"@openzeppelin/contracts/access/AccessControl.sol\":2464:2474  _checkRole */\n      tag_133\n        /* \"@openzeppelin/contracts/access/AccessControl.sol\":2464:2480  _checkRole(role) */\n      jump\t// in\n    tag_135:\n        /* \"Product Tracker Smart Contract/Product Tracker Main/ProductTracker.sol\":7028:7041  companyOwners */\n      0x05\n        /* \"Product Tracker Smart Contract/Product Tracker Main/ProductTracker.sol\":7028:7053  companyOwners[_productId] */\n      0x00\n        /* \"Product Tracker Smart Contract/Product Tracker Main/ProductTracker.sol\":7042:7052  _productId */\n      dup7\n        /* \"Product Tracker Smart Contract/Product Tracker Main/ProductTracker.sol\":7028:7053  companyOwners[_productId] */\n      dup2\n      mstore\n      0x20\n      add\n      swap1\n      dup2\n      mstore\n      0x20\n      add\n      0x00\n      keccak256\n      0x00\n      swap1\n      sload\n      swap1\n      0x0100\n      exp\n      swap1\n      div\n      0xffffffffffffffffffffffffffffffffffffffff\n      and\n        /* \"Product Tracker Smart Contract/Product Tracker Main/ProductTracker.sol\":7014:7053  msg.sender == companyOwners[_productId] */\n      0xffffffffffffffffffffffffffffffffffffffff\n      and\n        /* \"Product Tracker Smart Contract/Product Tracker Main/ProductTracker.sol\":7014:7024  msg.sender */\n      caller\n        /* \"Product Tracker Smart Contract/Product Tracker Main/ProductTracker.sol\":7014:7053  msg.sender == companyOwners[_productId] */\n      0xffffffffffffffffffffffffffffffffffffffff\n      and\n      eq\n        /* \"Product Tracker Smart Contract/Product Tracker Main/ProductTracker.sol\":7014:7104  msg.sender == companyOwners[_productId] ||... */\n      dup1\n      tag_137\n      jumpi\n      pop\n        /* \"Product Tracker Smart Contract/Product Tracker Main/ProductTracker.sol\":7073:7104  hasRole(ADMIN_ROLE, msg.sender) */\n      tag_138\n        /* \"Product Tracker Smart Contract/Product Tracker Main/ProductTracker.sol\":519:537  keccak256(\"ADMIN\") */\n      0xdf8b4c520ffe197c5343c6f5aec59570151ef9a492f2c624fd45ddde6135ec42\n        /* \"Product Tracker Smart Contract/Product Tracker Main/ProductTracker.sol\":7093:7103  msg.sender */\n      caller\n        /* \"Product Tracker Smart Contract/Product Tracker Main/ProductTracker.sol\":7073:7080  hasRole */\n      tag_86\n        /* \"Product Tracker Smart Contract/Product Tracker Main/ProductTracker.sol\":7073:7104  hasRole(ADMIN_ROLE, msg.sender) */\n      jump\t// in\n    tag_138:\n        /* \"Product Tracker Smart Contract/Product Tracker Main/ProductTracker.sol\":7014:7104  msg.sender == companyOwners[_productId] ||... */\n    tag_137:\n        /* \"Product Tracker Smart Contract/Product Tracker Main/ProductTracker.sol\":6993:7195  require(... */\n      tag_139\n      jumpi\n      mload(0x40)\n      0x08c379a000000000000000000000000000000000000000000000000000000000\n      dup2\n      mstore\n      0x04\n      add\n      tag_140\n      swap1\n      tag_141\n      jump\t// in\n    tag_140:\n      mload(0x40)\n      dup1\n      swap2\n      sub\n      swap1\n      revert\n    tag_139:\n        /* \"Product Tracker Smart Contract/Product Tracker Main/ProductTracker.sol\":7243:7256  _locationName */\n      dup4\n        /* \"Product Tracker Smart Contract/Product Tracker Main/ProductTracker.sol\":7206:7214  products */\n      0x03\n        /* \"Product Tracker Smart Contract/Product Tracker Main/ProductTracker.sol\":7206:7226  products[_productId] */\n      0x00\n        /* \"Product Tracker Smart Contract/Product Tracker Main/ProductTracker.sol\":7215:7225  _productId */\n      dup8\n        /* \"Product Tracker Smart Contract/Product Tracker Main/ProductTracker.sol\":7206:7226  products[_productId] */\n      dup2\n      mstore\n      0x20\n      add\n      swap1\n      dup2\n      mstore\n      0x20\n      add\n      0x00\n      keccak256\n        /* \"Product Tracker Smart Contract/Product Tracker Main/ProductTracker.sol\":7206:7235  products[_productId].location */\n      0x06\n      add\n        /* \"Product Tracker Smart Contract/Product Tracker Main/ProductTracker.sol\":7206:7240  products[_productId].location.name */\n      0x00\n      add\n        /* \"Product Tracker Smart Contract/Product Tracker Main/ProductTracker.sol\":7206:7256  products[_productId].location.name = _locationName */\n      swap1\n      dup2\n      tag_142\n      swap2\n      swap1\n      tag_143\n      jump\t// in\n    tag_142:\n      pop\n        /* \"Product Tracker Smart Contract/Product Tracker Main/ProductTracker.sol\":7308:7323  block.timestamp */\n      timestamp\n        /* \"Product Tracker Smart Contract/Product Tracker Main/ProductTracker.sol\":7266:7274  products */\n      0x03\n        /* \"Product Tracker Smart Contract/Product Tracker Main/ProductTracker.sol\":7266:7286  products[_productId] */\n      0x00\n        /* \"Product Tracker Smart Contract/Product Tracker Main/ProductTracker.sol\":7275:7285  _productId */\n      dup8\n        /* \"Product Tracker Smart Contract/Product Tracker Main/ProductTracker.sol\":7266:7286  products[_productId] */\n      dup2\n      mstore\n      0x20\n      add\n      swap1\n      dup2\n      mstore\n      0x20\n      add\n      0x00\n      keccak256\n        /* \"Product Tracker Smart Contract/Product Tracker Main/ProductTracker.sol\":7266:7295  products[_productId].location */\n      0x06\n      add\n        /* \"Product Tracker Smart Contract/Product Tracker Main/ProductTracker.sol\":7266:7305  products[_productId].location.departure */\n      0x02\n      add\n        /* \"Product Tracker Smart Contract/Product Tracker Main/ProductTracker.sol\":7266:7323  products[_productId].location.departure = block.timestamp */\n      dup2\n      swap1\n      sstore\n      pop\n        /* \"Product Tracker Smart Contract/Product Tracker Main/ProductTracker.sol\":7373:7377  true */\n      0x01\n        /* \"Product Tracker Smart Contract/Product Tracker Main/ProductTracker.sol\":7333:7341  products */\n      0x03\n        /* \"Product Tracker Smart Contract/Product Tracker Main/ProductTracker.sol\":7333:7353  products[_productId] */\n      0x00\n        /* \"Product Tracker Smart Contract/Product Tracker Main/ProductTracker.sol\":7342:7352  _productId */\n      dup8\n        /* \"Product Tracker Smart Contract/Product Tracker Main/ProductTracker.sol\":7333:7353  products[_productId] */\n      dup2\n      mstore\n      0x20\n      add\n      swap1\n      dup2\n      mstore\n      0x20\n      add\n      0x00\n      keccak256\n        /* \"Product Tracker Smart Contract/Product Tracker Main/ProductTracker.sol\":7333:7362  products[_productId].location */\n      0x06\n      add\n        /* \"Product Tracker Smart Contract/Product Tracker Main/ProductTracker.sol\":7333:7370  products[_productId].location.shipped */\n      0x03\n      add\n      0x00\n        /* \"Product Tracker Smart Contract/Product Tracker Main/ProductTracker.sol\":7333:7377  products[_productId].location.shipped = true */\n      0x0100\n      exp\n      dup2\n      sload\n      dup2\n      0xff\n      mul\n      not\n      and\n      swap1\n      dup4\n      iszero\n      iszero\n      mul\n      or\n      swap1\n      sstore\n      pop\n        /* \"Product Tracker Smart Contract/Product Tracker Main/ProductTracker.sol\":7393:7616  Departed(... */\n      0xf295c689d401ce1625e9bd2adba7641f92cc231677989c7fe706354cb643e798\n        /* \"Product Tracker Smart Contract/Product Tracker Main/ProductTracker.sol\":7415:7423  products */\n      0x03\n        /* \"Product Tracker Smart Contract/Product Tracker Main/ProductTracker.sol\":7415:7435  products[_productId] */\n      0x00\n        /* \"Product Tracker Smart Contract/Product Tracker Main/ProductTracker.sol\":7424:7434  _productId */\n      dup8\n        /* \"Product Tracker Smart Contract/Product Tracker Main/ProductTracker.sol\":7415:7435  products[_productId] */\n      dup2\n      mstore\n      0x20\n      add\n      swap1\n      dup2\n      mstore\n      0x20\n      add\n      0x00\n      keccak256\n        /* \"Product Tracker Smart Contract/Product Tracker Main/ProductTracker.sol\":7415:7444  products[_productId].location */\n      0x06\n      add\n        /* \"Product Tracker Smart Contract/Product Tracker Main/ProductTracker.sol\":7415:7449  products[_productId].location.name */\n      0x00\n      add\n        /* \"Product Tracker Smart Contract/Product Tracker Main/ProductTracker.sol\":7463:7471  products */\n      0x03\n        /* \"Product Tracker Smart Contract/Product Tracker Main/ProductTracker.sol\":7463:7483  products[_productId] */\n      0x00\n        /* \"Product Tracker Smart Contract/Product Tracker Main/ProductTracker.sol\":7472:7482  _productId */\n      dup9\n        /* \"Product Tracker Smart Contract/Product Tracker Main/ProductTracker.sol\":7463:7483  products[_productId] */\n      dup2\n      mstore\n      0x20\n      add\n      swap1\n      dup2\n      mstore\n      0x20\n      add\n      0x00\n      keccak256\n        /* \"Product Tracker Smart Contract/Product Tracker Main/ProductTracker.sol\":7463:7492  products[_productId].location */\n      0x06\n      add\n        /* \"Product Tracker Smart Contract/Product Tracker Main/ProductTracker.sol\":7463:7502  products[_productId].location.custodian */\n      0x01\n      add\n        /* \"Product Tracker Smart Contract/Product Tracker Main/ProductTracker.sol\":7516:7531  block.timestamp */\n      timestamp\n        /* \"Product Tracker Smart Contract/Product Tracker Main/ProductTracker.sol\":7545:7555  _productId */\n      dup9\n        /* \"Product Tracker Smart Contract/Product Tracker Main/ProductTracker.sol\":7569:7577  products */\n      0x03\n        /* \"Product Tracker Smart Contract/Product Tracker Main/ProductTracker.sol\":7569:7589  products[_productId] */\n      0x00\n        /* \"Product Tracker Smart Contract/Product Tracker Main/ProductTracker.sol\":7578:7588  _productId */\n      dup12\n        /* \"Product Tracker Smart Contract/Product Tracker Main/ProductTracker.sol\":7569:7589  products[_productId] */\n      dup2\n      mstore\n      0x20\n      add\n      swap1\n      dup2\n      mstore\n      0x20\n      add\n      0x00\n      keccak256\n        /* \"Product Tracker Smart Contract/Product Tracker Main/ProductTracker.sol\":7569:7598  products[_productId].location */\n      0x06\n      add\n        /* \"Product Tracker Smart Contract/Product Tracker Main/ProductTracker.sol\":7569:7606  products[_productId].location.arrived */\n      0x03\n      add\n      0x01\n      swap1\n      sload\n      swap1\n      0x0100\n      exp\n      swap1\n      div\n      0xff\n      and\n        /* \"Product Tracker Smart Contract/Product Tracker Main/ProductTracker.sol\":7393:7616  Departed(... */\n      mload(0x40)\n      tag_144\n      swap6\n      swap5\n      swap4\n      swap3\n      swap2\n      swap1\n      tag_145\n      jump\t// in\n    tag_144:\n      mload(0x40)\n      dup1\n      swap2\n      sub\n      swap1\n      log1\n        /* \"@openzeppelin/contracts/access/AccessControl.sol\":2490:2491  _ */\n      pop\n        /* \"Product Tracker Smart Contract/Product Tracker Main/ProductTracker.sol\":2130:2131  _ */\n      pop\n        /* \"Product Tracker Smart Contract/Product Tracker Main/ProductTracker.sol\":6704:7623  function initalizeShipment(uint256 _productId, string memory _locationName)... */\n      pop\n      pop\n      pop\n      jump\t// out\n        /* \"@openzeppelin/contracts/access/AccessControl.sol\":3810:3930  function getRoleAdmin(bytes32 role) public view virtual returns (bytes32) {... */\n    tag_49:\n        /* \"@openzeppelin/contracts/access/AccessControl.sol\":3875:3882  bytes32 */\n      0x00\n        /* \"@openzeppelin/contracts/access/AccessControl.sol\":3901:3907  _roles */\n      0x01\n        /* \"@openzeppelin/contracts/access/AccessControl.sol\":3901:3913  _roles[role] */\n      0x00\n        /* \"@openzeppelin/contracts/access/AccessControl.sol\":3908:3912  role */\n      dup4\n        /* \"@openzeppelin/contracts/access/AccessControl.sol\":3901:3913  _roles[role] */\n      dup2\n      mstore\n      0x20\n      add\n      swap1\n      dup2\n      mstore\n      0x20\n      add\n      0x00\n      keccak256\n        /* \"@openzeppelin/contracts/access/AccessControl.sol\":3901:3923  _roles[role].adminRole */\n      0x01\n      add\n      sload\n        /* \"@openzeppelin/contracts/access/AccessControl.sol\":3894:3923  return _roles[role].adminRole */\n      swap1\n      pop\n        /* \"@openzeppelin/contracts/access/AccessControl.sol\":3810:3930  function getRoleAdmin(bytes32 role) public view virtual returns (bytes32) {... */\n      swap2\n      swap1\n      pop\n      jump\t// out\n        /* \"@openzeppelin/contracts/access/AccessControl.sol\":4226:4362  function grantRole(bytes32 role, address account) public virtual onlyRole(getRoleAdmin(role)) {... */\n    tag_54:\n        /* \"@openzeppelin/contracts/access/AccessControl.sol\":4300:4318  getRoleAdmin(role) */\n      tag_147\n        /* \"@openzeppelin/contracts/access/AccessControl.sol\":4313:4317  role */\n      dup3\n        /* \"@openzeppelin/contracts/access/AccessControl.sol\":4300:4312  getRoleAdmin */\n      tag_49\n        /* \"@openzeppelin/contracts/access/AccessControl.sol\":4300:4318  getRoleAdmin(role) */\n      jump\t// in\n    tag_147:\n        /* \"@openzeppelin/contracts/access/AccessControl.sol\":2464:2480  _checkRole(role) */\n      tag_149\n        /* \"@openzeppelin/contracts/access/AccessControl.sol\":2475:2479  role */\n      dup2\n        /* \"@openzeppelin/contracts/access/AccessControl.sol\":2464:2474  _checkRole */\n      tag_133\n        /* \"@openzeppelin/contracts/access/AccessControl.sol\":2464:2480  _checkRole(role) */\n      jump\t// in\n    tag_149:\n        /* \"@openzeppelin/contracts/access/AccessControl.sol\":4330:4355  _grantRole(role, account) */\n      tag_151\n        /* \"@openzeppelin/contracts/access/AccessControl.sol\":4341:4345  role */\n      dup4\n        /* \"@openzeppelin/contracts/access/AccessControl.sol\":4347:4354  account */\n      dup4\n        /* \"@openzeppelin/contracts/access/AccessControl.sol\":4330:4340  _grantRole */\n      tag_120\n        /* \"@openzeppelin/contracts/access/AccessControl.sol\":4330:4355  _grantRole(role, account) */\n      jump\t// in\n    tag_151:\n      pop\n        /* \"@openzeppelin/contracts/access/AccessControl.sol\":4226:4362  function grantRole(bytes32 role, address account) public virtual onlyRole(getRoleAdmin(role)) {... */\n      pop\n      pop\n      pop\n      jump\t// out\n        /* \"@openzeppelin/contracts/access/AccessControl.sol\":5328:5573  function renounceRole(bytes32 role, address callerConfirmation) public virtual {... */\n    tag_57:\n        /* \"@openzeppelin/contracts/access/AccessControl.sol\":5443:5455  _msgSender() */\n      tag_153\n        /* \"@openzeppelin/contracts/access/AccessControl.sol\":5443:5453  _msgSender */\n      tag_154\n        /* \"@openzeppelin/contracts/access/AccessControl.sol\":5443:5455  _msgSender() */\n      jump\t// in\n    tag_153:\n        /* \"@openzeppelin/contracts/access/AccessControl.sol\":5421:5455  callerConfirmation != _msgSender() */\n      0xffffffffffffffffffffffffffffffffffffffff\n      and\n        /* \"@openzeppelin/contracts/access/AccessControl.sol\":5421:5439  callerConfirmation */\n      dup2\n        /* \"@openzeppelin/contracts/access/AccessControl.sol\":5421:5455  callerConfirmation != _msgSender() */\n      0xffffffffffffffffffffffffffffffffffffffff\n      and\n      eq\n        /* \"@openzeppelin/contracts/access/AccessControl.sol\":5417:5519  if (callerConfirmation != _msgSender()) {... */\n      tag_155\n      jumpi\n        /* \"@openzeppelin/contracts/access/AccessControl.sol\":5478:5508  AccessControlBadConfirmation() */\n      mload(0x40)\n      0x6697b23200000000000000000000000000000000000000000000000000000000\n      dup2\n      mstore\n      0x04\n      add\n      mload(0x40)\n      dup1\n      swap2\n      sub\n      swap1\n      revert\n        /* \"@openzeppelin/contracts/access/AccessControl.sol\":5417:5519  if (callerConfirmation != _msgSender()) {... */\n    tag_155:\n        /* \"@openzeppelin/contracts/access/AccessControl.sol\":5529:5566  _revokeRole(role, callerConfirmation) */\n      tag_156\n        /* \"@openzeppelin/contracts/access/AccessControl.sol\":5541:5545  role */\n      dup3\n        /* \"@openzeppelin/contracts/access/AccessControl.sol\":5547:5565  callerConfirmation */\n      dup3\n        /* \"@openzeppelin/contracts/access/AccessControl.sol\":5529:5540  _revokeRole */\n      tag_157\n        /* \"@openzeppelin/contracts/access/AccessControl.sol\":5529:5566  _revokeRole(role, callerConfirmation) */\n      jump\t// in\n    tag_156:\n      pop\n        /* \"@openzeppelin/contracts/access/AccessControl.sol\":5328:5573  function renounceRole(bytes32 role, address callerConfirmation) public virtual {... */\n      pop\n      pop\n      jump\t// out\n        /* \"Product Tracker Smart Contract/Product Tracker Main/ProductTracker.sol\":566:598  uint256 public nextProductId = 1 */\n    tag_59:\n      sload(0x02)\n      dup2\n      jump\t// out\n        /* \"Product Tracker Smart Contract/Product Tracker Main/ProductTracker.sol\":4777:6191  function GenerateProduct(... */\n    tag_65:\n        /* \"Product Tracker Smart Contract/Product Tracker Main/ProductTracker.sol\":2199:2238  hasRole(COMPANY_OWNER_ROLE, msg.sender) */\n      tag_159\n        /* \"Product Tracker Smart Contract/Product Tracker Main/ProductTracker.sol\":450:476  keccak256(\"COMPANY_OWNER\") */\n      0x632405d99f3a4d6966c57f76cc301a3c7cab4b56ce8e567a4198e9434b3fbb5b\n        /* \"Product Tracker Smart Contract/Product Tracker Main/ProductTracker.sol\":2227:2237  msg.sender */\n      caller\n        /* \"Product Tracker Smart Contract/Product Tracker Main/ProductTracker.sol\":2199:2206  hasRole */\n      tag_86\n        /* \"Product Tracker Smart Contract/Product Tracker Main/ProductTracker.sol\":2199:2238  hasRole(COMPANY_OWNER_ROLE, msg.sender) */\n      jump\t// in\n    tag_159:\n        /* \"Product Tracker Smart Contract/Product Tracker Main/ProductTracker.sol\":2199:2273  hasRole(COMPANY_OWNER_ROLE, msg.sender) || hasRole(ADMIN_ROLE, msg.sender) */\n      dup1\n      tag_160\n      jumpi\n      pop\n        /* \"Product Tracker Smart Contract/Product Tracker Main/ProductTracker.sol\":2242:2273  hasRole(ADMIN_ROLE, msg.sender) */\n      tag_161\n        /* \"Product Tracker Smart Contract/Product Tracker Main/ProductTracker.sol\":519:537  keccak256(\"ADMIN\") */\n      0xdf8b4c520ffe197c5343c6f5aec59570151ef9a492f2c624fd45ddde6135ec42\n        /* \"Product Tracker Smart Contract/Product Tracker Main/ProductTracker.sol\":2262:2272  msg.sender */\n      caller\n        /* \"Product Tracker Smart Contract/Product Tracker Main/ProductTracker.sol\":2242:2249  hasRole */\n      tag_86\n        /* \"Product Tracker Smart Contract/Product Tracker Main/ProductTracker.sol\":2242:2273  hasRole(ADMIN_ROLE, msg.sender) */\n      jump\t// in\n    tag_161:\n        /* \"Product Tracker Smart Contract/Product Tracker Main/ProductTracker.sol\":2199:2273  hasRole(COMPANY_OWNER_ROLE, msg.sender) || hasRole(ADMIN_ROLE, msg.sender) */\n    tag_160:\n        /* \"Product Tracker Smart Contract/Product Tracker Main/ProductTracker.sol\":2191:2297  require(hasRole(COMPANY_OWNER_ROLE, msg.sender) || hasRole(ADMIN_ROLE, msg.sender), \"User not authorized\") */\n      tag_162\n      jumpi\n      mload(0x40)\n      0x08c379a000000000000000000000000000000000000000000000000000000000\n      dup2\n      mstore\n      0x04\n      add\n      tag_163\n      swap1\n      tag_164\n      jump\t// in\n    tag_163:\n      mload(0x40)\n      dup1\n      swap2\n      sub\n      swap1\n      revert\n    tag_162:\n        /* \"Product Tracker Smart Contract/Product Tracker Main/ProductTracker.sol\":5152:5164  _productType */\n      dup7\n        /* \"Product Tracker Smart Contract/Product Tracker Main/ProductTracker.sol\":5178:5190  _productName */\n      dup7\n        /* \"Product Tracker Smart Contract/Product Tracker Main/ProductTracker.sol\":5204:5214  _brandName */\n      dup7\n        /* \"Product Tracker Smart Contract/Product Tracker Main/ProductTracker.sol\":5228:5237  _quantity */\n      dup7\n        /* \"Product Tracker Smart Contract/Product Tracker Main/ProductTracker.sol\":2672:2673  0 */\n      0x00\n        /* \"Product Tracker Smart Contract/Product Tracker Main/ProductTracker.sol\":2649:2661  _productType */\n      dup5\n        /* \"Product Tracker Smart Contract/Product Tracker Main/ProductTracker.sol\":2643:2669  bytes(_productType).length */\n      mload\n        /* \"Product Tracker Smart Contract/Product Tracker Main/ProductTracker.sol\":2643:2673  bytes(_productType).length > 0 */\n      gt\n        /* \"Product Tracker Smart Contract/Product Tracker Main/ProductTracker.sol\":2622:2729  require(... */\n      tag_166\n      jumpi\n      mload(0x40)\n      0x08c379a000000000000000000000000000000000000000000000000000000000\n      dup2\n      mstore\n      0x04\n      add\n      tag_167\n      swap1\n      tag_168\n      jump\t// in\n    tag_167:\n      mload(0x40)\n      dup1\n      swap2\n      sub\n      swap1\n      revert\n    tag_166:\n        /* \"Product Tracker Smart Contract/Product Tracker Main/ProductTracker.sol\":2789:2790  0 */\n      0x00\n        /* \"Product Tracker Smart Contract/Product Tracker Main/ProductTracker.sol\":2766:2778  _productName */\n      dup4\n        /* \"Product Tracker Smart Contract/Product Tracker Main/ProductTracker.sol\":2760:2786  bytes(_productName).length */\n      mload\n        /* \"Product Tracker Smart Contract/Product Tracker Main/ProductTracker.sol\":2760:2790  bytes(_productName).length > 0 */\n      gt\n        /* \"Product Tracker Smart Contract/Product Tracker Main/ProductTracker.sol\":2739:2846  require(... */\n      tag_169\n      jumpi\n      mload(0x40)\n      0x08c379a000000000000000000000000000000000000000000000000000000000\n      dup2\n      mstore\n      0x04\n      add\n      tag_170\n      swap1\n      tag_171\n      jump\t// in\n    tag_170:\n      mload(0x40)\n      dup1\n      swap2\n      sub\n      swap1\n      revert\n    tag_169:\n        /* \"Product Tracker Smart Contract/Product Tracker Main/ProductTracker.sol\":2891:2892  0 */\n      0x00\n        /* \"Product Tracker Smart Contract/Product Tracker Main/ProductTracker.sol\":2870:2880  _brandName */\n      dup3\n        /* \"Product Tracker Smart Contract/Product Tracker Main/ProductTracker.sol\":2864:2888  bytes(_brandName).length */\n      mload\n        /* \"Product Tracker Smart Contract/Product Tracker Main/ProductTracker.sol\":2864:2892  bytes(_brandName).length > 0 */\n      gt\n        /* \"Product Tracker Smart Contract/Product Tracker Main/ProductTracker.sol\":2856:2925  require(bytes(_brandName).length > 0, \"Empty brand name not allowed\") */\n      tag_172\n      jumpi\n      mload(0x40)\n      0x08c379a000000000000000000000000000000000000000000000000000000000\n      dup2\n      mstore\n      0x04\n      add\n      tag_173\n      swap1\n      tag_174\n      jump\t// in\n    tag_173:\n      mload(0x40)\n      dup1\n      swap2\n      sub\n      swap1\n      revert\n    tag_172:\n        /* \"Product Tracker Smart Contract/Product Tracker Main/ProductTracker.sol\":2955:2956  0 */\n      0x00\n        /* \"Product Tracker Smart Contract/Product Tracker Main/ProductTracker.sol\":2943:2952  _quantity */\n      dup2\n        /* \"Product Tracker Smart Contract/Product Tracker Main/ProductTracker.sol\":2943:2956  _quantity > 0 */\n      gt\n        /* \"Product Tracker Smart Contract/Product Tracker Main/ProductTracker.sol\":2935:2995  require(_quantity > 0, \"Quantity must be greater than zero\") */\n      tag_175\n      jumpi\n      mload(0x40)\n      0x08c379a000000000000000000000000000000000000000000000000000000000\n      dup2\n      mstore\n      0x04\n      add\n      tag_176\n      swap1\n      tag_177\n      jump\t// in\n    tag_176:\n      mload(0x40)\n      dup1\n      swap2\n      sub\n      swap1\n      revert\n    tag_175:\n        /* \"Product Tracker Smart Contract/Product Tracker Main/ProductTracker.sol\":5327:5345  uint256 _productId */\n      0x00\n        /* \"Product Tracker Smart Contract/Product Tracker Main/ProductTracker.sol\":5348:5361  nextProductId */\n      sload(0x02)\n        /* \"Product Tracker Smart Contract/Product Tracker Main/ProductTracker.sol\":5327:5361  uint256 _productId = nextProductId */\n      swap1\n      pop\n        /* \"Product Tracker Smart Contract/Product Tracker Main/ProductTracker.sol\":5395:5871  Product(... */\n      mload(0x40)\n      dup1\n      0xe0\n      add\n      0x40\n      mstore\n      dup1\n        /* \"Product Tracker Smart Contract/Product Tracker Main/ProductTracker.sol\":5416:5426  _productId */\n      dup3\n        /* \"Product Tracker Smart Contract/Product Tracker Main/ProductTracker.sol\":5395:5871  Product(... */\n      dup2\n      mstore\n      0x20\n      add\n        /* \"Product Tracker Smart Contract/Product Tracker Main/ProductTracker.sol\":5440:5452  _productType */\n      dup14\n        /* \"Product Tracker Smart Contract/Product Tracker Main/ProductTracker.sol\":5395:5871  Product(... */\n      dup2\n      mstore\n      0x20\n      add\n        /* \"Product Tracker Smart Contract/Product Tracker Main/ProductTracker.sol\":5466:5476  _brandName */\n      dup12\n        /* \"Product Tracker Smart Contract/Product Tracker Main/ProductTracker.sol\":5395:5871  Product(... */\n      dup2\n      mstore\n      0x20\n      add\n        /* \"Product Tracker Smart Contract/Product Tracker Main/ProductTracker.sol\":5490:5502  _productName */\n      dup13\n        /* \"Product Tracker Smart Contract/Product Tracker Main/ProductTracker.sol\":5395:5871  Product(... */\n      dup2\n      mstore\n      0x20\n      add\n        /* \"Product Tracker Smart Contract/Product Tracker Main/ProductTracker.sol\":5516:5525  _quantity */\n      dup11\n        /* \"Product Tracker Smart Contract/Product Tracker Main/ProductTracker.sol\":5395:5871  Product(... */\n      dup2\n      mstore\n      0x20\n      add\n        /* \"Product Tracker Smart Contract/Product Tracker Main/ProductTracker.sol\":5539:5554  block.timestamp */\n      timestamp\n        /* \"Product Tracker Smart Contract/Product Tracker Main/ProductTracker.sol\":5395:5871  Product(... */\n      dup2\n      mstore\n      0x20\n      add\n        /* \"Product Tracker Smart Contract/Product Tracker Main/ProductTracker.sol\":5568:5861  Location({... */\n      mload(0x40)\n      dup1\n      0xc0\n      add\n      0x40\n      mstore\n      dup1\n        /* \"Product Tracker Smart Contract/Product Tracker Main/ProductTracker.sol\":5601:5614  _locationName */\n      dup12\n        /* \"Product Tracker Smart Contract/Product Tracker Main/ProductTracker.sol\":5568:5861  Location({... */\n      dup2\n      mstore\n      0x20\n      add\n        /* \"Product Tracker Smart Contract/Product Tracker Main/ProductTracker.sol\":5643:5653  _custodian */\n      dup11\n        /* \"Product Tracker Smart Contract/Product Tracker Main/ProductTracker.sol\":5568:5861  Location({... */\n      dup2\n      mstore\n      0x20\n      add\n        /* \"Product Tracker Smart Contract/Product Tracker Main/ProductTracker.sol\":5717:5725  _shipped */\n      dup10\n        /* \"Product Tracker Smart Contract/Product Tracker Main/ProductTracker.sol\":5717:5747  _shipped ? block.timestamp : 0 */\n      tag_179\n      jumpi\n        /* \"Product Tracker Smart Contract/Product Tracker Main/ProductTracker.sol\":5746:5747  0 */\n      0x00\n        /* \"Product Tracker Smart Contract/Product Tracker Main/ProductTracker.sol\":5717:5747  _shipped ? block.timestamp : 0 */\n      jump(tag_180)\n    tag_179:\n        /* \"Product Tracker Smart Contract/Product Tracker Main/ProductTracker.sol\":5728:5743  block.timestamp */\n      timestamp\n        /* \"Product Tracker Smart Contract/Product Tracker Main/ProductTracker.sol\":5717:5747  _shipped ? block.timestamp : 0 */\n    tag_180:\n        /* \"Product Tracker Smart Contract/Product Tracker Main/ProductTracker.sol\":5568:5861  Location({... */\n      dup2\n      mstore\n      0x20\n      add\n        /* \"Product Tracker Smart Contract/Product Tracker Main/ProductTracker.sol\":5680:5688  _shipped */\n      dup10\n        /* \"Product Tracker Smart Contract/Product Tracker Main/ProductTracker.sol\":5568:5861  Location({... */\n      iszero\n      iszero\n      dup2\n      mstore\n      0x20\n      add\n        /* \"Product Tracker Smart Contract/Product Tracker Main/ProductTracker.sol\":5774:5779  false */\n      0x00\n        /* \"Product Tracker Smart Contract/Product Tracker Main/ProductTracker.sol\":5568:5861  Location({... */\n      iszero\n      iszero\n      dup2\n      mstore\n      0x20\n      add\n        /* \"Product Tracker Smart Contract/Product Tracker Main/ProductTracker.sol\":5845:5846  0 */\n      0x00\n        /* \"Product Tracker Smart Contract/Product Tracker Main/ProductTracker.sol\":5568:5861  Location({... */\n      dup2\n      mstore\n      pop\n        /* \"Product Tracker Smart Contract/Product Tracker Main/ProductTracker.sol\":5395:5871  Product(... */\n      dup2\n      mstore\n      pop\n        /* \"Product Tracker Smart Contract/Product Tracker Main/ProductTracker.sol\":5372:5380  products */\n      0x03\n        /* \"Product Tracker Smart Contract/Product Tracker Main/ProductTracker.sol\":5372:5392  products[_productId] */\n      0x00\n        /* \"Product Tracker Smart Contract/Product Tracker Main/ProductTracker.sol\":5381:5391  _productId */\n      dup4\n        /* \"Product Tracker Smart Contract/Product Tracker Main/ProductTracker.sol\":5372:5392  products[_productId] */\n      dup2\n      mstore\n      0x20\n      add\n      swap1\n      dup2\n      mstore\n      0x20\n      add\n      0x00\n      keccak256\n        /* \"Product Tracker Smart Contract/Product Tracker Main/ProductTracker.sol\":5372:5871  products[_productId] = Product(... */\n      0x00\n      dup3\n      add\n      mload\n      dup2\n      0x00\n      add\n      sstore\n      0x20\n      dup3\n      add\n      mload\n      dup2\n      0x01\n      add\n      swap1\n      dup2\n      tag_181\n      swap2\n      swap1\n      tag_143\n      jump\t// in\n    tag_181:\n      pop\n      0x40\n      dup3\n      add\n      mload\n      dup2\n      0x02\n      add\n      swap1\n      dup2\n      tag_182\n      swap2\n      swap1\n      tag_143\n      jump\t// in\n    tag_182:\n      pop\n      0x60\n      dup3\n      add\n      mload\n      dup2\n      0x03\n      add\n      swap1\n      dup2\n      tag_183\n      swap2\n      swap1\n      tag_143\n      jump\t// in\n    tag_183:\n      pop\n      0x80\n      dup3\n      add\n      mload\n      dup2\n      0x04\n      add\n      sstore\n      0xa0\n      dup3\n      add\n      mload\n      dup2\n      0x05\n      add\n      sstore\n      0xc0\n      dup3\n      add\n      mload\n      dup2\n      0x06\n      add\n      0x00\n      dup3\n      add\n      mload\n      dup2\n      0x00\n      add\n      swap1\n      dup2\n      tag_184\n      swap2\n      swap1\n      tag_143\n      jump\t// in\n    tag_184:\n      pop\n      0x20\n      dup3\n      add\n      mload\n      dup2\n      0x01\n      add\n      swap1\n      dup2\n      tag_185\n      swap2\n      swap1\n      tag_143\n      jump\t// in\n    tag_185:\n      pop\n      0x40\n      dup3\n      add\n      mload\n      dup2\n      0x02\n      add\n      sstore\n      0x60\n      dup3\n      add\n      mload\n      dup2\n      0x03\n      add\n      exp(0x0100, 0x00)\n      dup2\n      sload\n      dup2\n      0xff\n      mul\n      not\n      and\n      swap1\n      dup4\n      iszero\n      iszero\n      mul\n      or\n      swap1\n      sstore\n      pop\n      0x80\n      dup3\n      add\n      mload\n      dup2\n      0x03\n      add\n      exp(0x0100, 0x01)\n      dup2\n      sload\n      dup2\n      0xff\n      mul\n      not\n      and\n      swap1\n      dup4\n      iszero\n      iszero\n      mul\n      or\n      swap1\n      sstore\n      pop\n      0xa0\n      dup3\n      add\n      mload\n      dup2\n      0x04\n      add\n      sstore\n      pop\n      pop\n      swap1\n      pop\n      pop\n        /* \"Product Tracker Smart Contract/Product Tracker Main/ProductTracker.sol\":5916:5926  msg.sender */\n      caller\n        /* \"Product Tracker Smart Contract/Product Tracker Main/ProductTracker.sol\":5882:5898  productGenerator */\n      0x04\n        /* \"Product Tracker Smart Contract/Product Tracker Main/ProductTracker.sol\":5882:5913  productGenerator[nextProductId] */\n      0x00\n        /* \"Product Tracker Smart Contract/Product Tracker Main/ProductTracker.sol\":5899:5912  nextProductId */\n      sload(0x02)\n        /* \"Product Tracker Smart Contract/Product Tracker Main/ProductTracker.sol\":5882:5913  productGenerator[nextProductId] */\n      dup2\n      mstore\n      0x20\n      add\n      swap1\n      dup2\n      mstore\n      0x20\n      add\n      0x00\n      keccak256\n      0x00\n        /* \"Product Tracker Smart Contract/Product Tracker Main/ProductTracker.sol\":5882:5926  productGenerator[nextProductId] = msg.sender */\n      0x0100\n      exp\n      dup2\n      sload\n      dup2\n      0xffffffffffffffffffffffffffffffffffffffff\n      mul\n      not\n      and\n      swap1\n      dup4\n      0xffffffffffffffffffffffffffffffffffffffff\n      and\n      mul\n      or\n      swap1\n      sstore\n      pop\n        /* \"Product Tracker Smart Contract/Product Tracker Main/ProductTracker.sol\":6095:6105  msg.sender */\n      caller\n        /* \"Product Tracker Smart Contract/Product Tracker Main/ProductTracker.sol\":5942:6158  ProductGenerated(... */\n      0xffffffffffffffffffffffffffffffffffffffff\n      and\n        /* \"Product Tracker Smart Contract/Product Tracker Main/ProductTracker.sol\":5972:5982  _productId */\n      dup2\n        /* \"Product Tracker Smart Contract/Product Tracker Main/ProductTracker.sol\":5942:6158  ProductGenerated(... */\n      0xe5d05c377f26d26b0a4b41cafbd67a19a498b3ad7003a1014b351a8eb0ccc996\n        /* \"Product Tracker Smart Contract/Product Tracker Main/ProductTracker.sol\":5996:6008  _productType */\n      dup15\n        /* \"Product Tracker Smart Contract/Product Tracker Main/ProductTracker.sol\":6022:6032  _brandName */\n      dup14\n        /* \"Product Tracker Smart Contract/Product Tracker Main/ProductTracker.sol\":6046:6058  _productName */\n      dup16\n        /* \"Product Tracker Smart Contract/Product Tracker Main/ProductTracker.sol\":6072:6081  _quantity */\n      dup15\n        /* \"Product Tracker Smart Contract/Product Tracker Main/ProductTracker.sol\":6119:6127  products */\n      0x03\n        /* \"Product Tracker Smart Contract/Product Tracker Main/ProductTracker.sol\":6119:6139  products[_productId] */\n      0x00\n        /* \"Product Tracker Smart Contract/Product Tracker Main/ProductTracker.sol\":6128:6138  _productId */\n      dup10\n        /* \"Product Tracker Smart Contract/Product Tracker Main/ProductTracker.sol\":6119:6139  products[_productId] */\n      dup2\n      mstore\n      0x20\n      add\n      swap1\n      dup2\n      mstore\n      0x20\n      add\n      0x00\n      keccak256\n        /* \"Product Tracker Smart Contract/Product Tracker Main/ProductTracker.sol\":6119:6148  products[_productId].location */\n      0x06\n      add\n        /* \"Product Tracker Smart Contract/Product Tracker Main/ProductTracker.sol\":5942:6158  ProductGenerated(... */\n      mload(0x40)\n      tag_186\n      swap6\n      swap5\n      swap4\n      swap3\n      swap2\n      swap1\n      tag_187\n      jump\t// in\n    tag_186:\n      mload(0x40)\n      dup1\n      swap2\n      sub\n      swap1\n      log3\n        /* \"Product Tracker Smart Contract/Product Tracker Main/ProductTracker.sol\":6169:6182  nextProductId */\n      0x02\n      0x00\n        /* \"Product Tracker Smart Contract/Product Tracker Main/ProductTracker.sol\":6169:6184  nextProductId++ */\n      dup2\n      sload\n      dup1\n      swap3\n      swap2\n      swap1\n      tag_188\n      swap1\n      tag_189\n      jump\t// in\n    tag_188:\n      swap2\n      swap1\n      pop\n      sstore\n      pop\n        /* \"Product Tracker Smart Contract/Product Tracker Main/ProductTracker.sol\":5252:6191  {... */\n      pop\n        /* \"Product Tracker Smart Contract/Product Tracker Main/ProductTracker.sol\":2303:2304  _ */\n      pop\n      pop\n      pop\n      pop\n        /* \"Product Tracker Smart Contract/Product Tracker Main/ProductTracker.sol\":4777:6191  function GenerateProduct(... */\n      pop\n      pop\n      pop\n      pop\n      pop\n      pop\n      pop\n      jump\t// out\n        /* \"@openzeppelin/contracts/access/Ownable.sol\":2293:2394  function renounceOwnership() public virtual onlyOwner {... */\n    tag_67:\n        /* \"@openzeppelin/contracts/access/Ownable.sol\":1531:1544  _checkOwner() */\n      tag_191\n        /* \"@openzeppelin/contracts/access/Ownable.sol\":1531:1542  _checkOwner */\n      tag_117\n        /* \"@openzeppelin/contracts/access/Ownable.sol\":1531:1544  _checkOwner() */\n      jump\t// in\n    tag_191:\n        /* \"@openzeppelin/contracts/access/Ownable.sol\":2357:2387  _transferOwnership(address(0)) */\n      tag_193\n        /* \"@openzeppelin/contracts/access/Ownable.sol\":2384:2385  0 */\n      0x00\n        /* \"@openzeppelin/contracts/access/Ownable.sol\":2357:2375  _transferOwnership */\n      tag_194\n        /* \"@openzeppelin/contracts/access/Ownable.sol\":2357:2387  _transferOwnership(address(0)) */\n      jump\t// in\n    tag_193:\n        /* \"@openzeppelin/contracts/access/Ownable.sol\":2293:2394  function renounceOwnership() public virtual onlyOwner {... */\n      jump\t// out\n        /* \"Product Tracker Smart Contract/Product Tracker Main/ProductTracker.sol\":482:537  bytes32 public constant ADMIN_ROLE = keccak256(\"ADMIN\") */\n    tag_69:\n        /* \"Product Tracker Smart Contract/Product Tracker Main/ProductTracker.sol\":519:537  keccak256(\"ADMIN\") */\n      0xdf8b4c520ffe197c5343c6f5aec59570151ef9a492f2c624fd45ddde6135ec42\n        /* \"Product Tracker Smart Contract/Product Tracker Main/ProductTracker.sol\":482:537  bytes32 public constant ADMIN_ROLE = keccak256(\"ADMIN\") */\n      dup2\n      jump\t// out\n        /* \"Product Tracker Smart Contract/Product Tracker Main/ProductTracker.sol\":3458:3587  function revokeCompanyOwner(address _userAddress) public onlyOwner {... */\n    tag_73:\n        /* \"@openzeppelin/contracts/access/Ownable.sol\":1531:1544  _checkOwner() */\n      tag_196\n        /* \"@openzeppelin/contracts/access/Ownable.sol\":1531:1542  _checkOwner */\n      tag_117\n        /* \"@openzeppelin/contracts/access/Ownable.sol\":1531:1544  _checkOwner() */\n      jump\t// in\n    tag_196:\n        /* \"Product Tracker Smart Contract/Product Tracker Main/ProductTracker.sol\":3535:3580  _revokeRole(COMPANY_OWNER_ROLE, _userAddress) */\n      tag_198\n        /* \"Product Tracker Smart Contract/Product Tracker Main/ProductTracker.sol\":450:476  keccak256(\"COMPANY_OWNER\") */\n      0x632405d99f3a4d6966c57f76cc301a3c7cab4b56ce8e567a4198e9434b3fbb5b\n        /* \"Product Tracker Smart Contract/Product Tracker Main/ProductTracker.sol\":3567:3579  _userAddress */\n      dup3\n        /* \"Product Tracker Smart Contract/Product Tracker Main/ProductTracker.sol\":3535:3546  _revokeRole */\n      tag_157\n        /* \"Product Tracker Smart Contract/Product Tracker Main/ProductTracker.sol\":3535:3580  _revokeRole(COMPANY_OWNER_ROLE, _userAddress) */\n      jump\t// in\n    tag_198:\n      pop\n        /* \"Product Tracker Smart Contract/Product Tracker Main/ProductTracker.sol\":3458:3587  function revokeCompanyOwner(address _userAddress) public onlyOwner {... */\n      pop\n      jump\t// out\n        /* \"Product Tracker Smart Contract/Product Tracker Main/ProductTracker.sol\":999:1042  mapping(uint256 => Product) public products */\n    tag_77:\n      mstore(0x20, 0x03)\n      dup1\n      0x00\n      mstore\n      keccak256(0x00, 0x40)\n      0x00\n      swap2\n      pop\n      swap1\n      pop\n      dup1\n      0x00\n      add\n      sload\n      swap1\n      dup1\n      0x01\n      add\n      dup1\n      sload\n      tag_199\n      swap1\n      tag_200\n      jump\t// in\n    tag_199:\n      dup1\n      0x1f\n      add\n      0x20\n      dup1\n      swap2\n      div\n      mul\n      0x20\n      add\n      mload(0x40)\n      swap1\n      dup2\n      add\n      0x40\n      mstore\n      dup1\n      swap3\n      swap2\n      swap1\n      dup2\n      dup2\n      mstore\n      0x20\n      add\n      dup3\n      dup1\n      sload\n      tag_201\n      swap1\n      tag_200\n      jump\t// in\n    tag_201:\n      dup1\n      iszero\n      tag_202\n      jumpi\n      dup1\n      0x1f\n      lt\n      tag_203\n      jumpi\n      0x0100\n      dup1\n      dup4\n      sload\n      div\n      mul\n      dup4\n      mstore\n      swap2\n      0x20\n      add\n      swap2\n      jump(tag_202)\n    tag_203:\n      dup3\n      add\n      swap2\n      swap1\n      0x00\n      mstore\n      keccak256(0x00, 0x20)\n      swap1\n    tag_204:\n      dup2\n      sload\n      dup2\n      mstore\n      swap1\n      0x01\n      add\n      swap1\n      0x20\n      add\n      dup1\n      dup4\n      gt\n      tag_204\n      jumpi\n      dup3\n      swap1\n      sub\n      0x1f\n      and\n      dup3\n      add\n      swap2\n    tag_202:\n      pop\n      pop\n      pop\n      pop\n      pop\n      swap1\n      dup1\n      0x02\n      add\n      dup1\n      sload\n      tag_205\n      swap1\n      tag_200\n      jump\t// in\n    tag_205:\n      dup1\n      0x1f\n      add\n      0x20\n      dup1\n      swap2\n      div\n      mul\n      0x20\n      add\n      mload(0x40)\n      swap1\n      dup2\n      add\n      0x40\n      mstore\n      dup1\n      swap3\n      swap2\n      swap1\n      dup2\n      dup2\n      mstore\n      0x20\n      add\n      dup3\n      dup1\n      sload\n      tag_206\n      swap1\n      tag_200\n      jump\t// in\n    tag_206:\n      dup1\n      iszero\n      tag_207\n      jumpi\n      dup1\n      0x1f\n      lt\n      tag_208\n      jumpi\n      0x0100\n      dup1\n      dup4\n      sload\n      div\n      mul\n      dup4\n      mstore\n      swap2\n      0x20\n      add\n      swap2\n      jump(tag_207)\n    tag_208:\n      dup3\n      add\n      swap2\n      swap1\n      0x00\n      mstore\n      keccak256(0x00, 0x20)\n      swap1\n    tag_209:\n      dup2\n      sload\n      dup2\n      mstore\n      swap1\n      0x01\n      add\n      swap1\n      0x20\n      add\n      dup1\n      dup4\n      gt\n      tag_209\n      jumpi\n      dup3\n      swap1\n      sub\n      0x1f\n      and\n      dup3\n      add\n      swap2\n    tag_207:\n      pop\n      pop\n      pop\n      pop\n      pop\n      swap1\n      dup1\n      0x03\n      add\n      dup1\n      sload\n      tag_210\n      swap1\n      tag_200\n      jump\t// in\n    tag_210:\n      dup1\n      0x1f\n      add\n      0x20\n      dup1\n      swap2\n      div\n      mul\n      0x20\n      add\n      mload(0x40)\n      swap1\n      dup2\n      add\n      0x40\n      mstore\n      dup1\n      swap3\n      swap2\n      swap1\n      dup2\n      dup2\n      mstore\n      0x20\n      add\n      dup3\n      dup1\n      sload\n      tag_211\n      swap1\n      tag_200\n      jump\t// in\n    tag_211:\n      dup1\n      iszero\n      tag_212\n      jumpi\n      dup1\n      0x1f\n      lt\n      tag_213\n      jumpi\n      0x0100\n      dup1\n      dup4\n      sload\n      div\n      mul\n      dup4\n      mstore\n      swap2\n      0x20\n      add\n      swap2\n      jump(tag_212)\n    tag_213:\n      dup3\n      add\n      swap2\n      swap1\n      0x00\n      mstore\n      keccak256(0x00, 0x20)\n      swap1\n    tag_214:\n      dup2\n      sload\n      dup2\n      mstore\n      swap1\n      0x01\n      add\n      swap1\n      0x20\n      add\n      dup1\n      dup4\n      gt\n      tag_214\n      jumpi\n      dup3\n      swap1\n      sub\n      0x1f\n      and\n      dup3\n      add\n      swap2\n    tag_212:\n      pop\n      pop\n      pop\n      pop\n      pop\n      swap1\n      dup1\n      0x04\n      add\n      sload\n      swap1\n      dup1\n      0x05\n      add\n      sload\n      swap1\n      dup1\n      0x06\n      add\n      mload(0x40)\n      dup1\n      0xc0\n      add\n      0x40\n      mstore\n      swap1\n      dup2\n      0x00\n      dup3\n      add\n      dup1\n      sload\n      tag_215\n      swap1\n      tag_200\n      jump\t// in\n    tag_215:\n      dup1\n      0x1f\n      add\n      0x20\n      dup1\n      swap2\n      div\n      mul\n      0x20\n      add\n      mload(0x40)\n      swap1\n      dup2\n      add\n      0x40\n      mstore\n      dup1\n      swap3\n      swap2\n      swap1\n      dup2\n      dup2\n      mstore\n      0x20\n      add\n      dup3\n      dup1\n      sload\n      tag_216\n      swap1\n      tag_200\n      jump\t// in\n    tag_216:\n      dup1\n      iszero\n      tag_217\n      jumpi\n      dup1\n      0x1f\n      lt\n      tag_218\n      jumpi\n      0x0100\n      dup1\n      dup4\n      sload\n      div\n      mul\n      dup4\n      mstore\n      swap2\n      0x20\n      add\n      swap2\n      jump(tag_217)\n    tag_218:\n      dup3\n      add\n      swap2\n      swap1\n      0x00\n      mstore\n      keccak256(0x00, 0x20)\n      swap1\n    tag_219:\n      dup2\n      sload\n      dup2\n      mstore\n      swap1\n      0x01\n      add\n      swap1\n      0x20\n      add\n      dup1\n      dup4\n      gt\n      tag_219\n      jumpi\n      dup3\n      swap1\n      sub\n      0x1f\n      and\n      dup3\n      add\n      swap2\n    tag_217:\n      pop\n      pop\n      pop\n      pop\n      pop\n      dup2\n      mstore\n      0x20\n      add\n      0x01\n      dup3\n      add\n      dup1\n      sload\n      tag_220\n      swap1\n      tag_200\n      jump\t// in\n    tag_220:\n      dup1\n      0x1f\n      add\n      0x20\n      dup1\n      swap2\n      div\n      mul\n      0x20\n      add\n      mload(0x40)\n      swap1\n      dup2\n      add\n      0x40\n      mstore\n      dup1\n      swap3\n      swap2\n      swap1\n      dup2\n      dup2\n      mstore\n      0x20\n      add\n      dup3\n      dup1\n      sload\n      tag_221\n      swap1\n      tag_200\n      jump\t// in\n    tag_221:\n      dup1\n      iszero\n      tag_222\n      jumpi\n      dup1\n      0x1f\n      lt\n      tag_223\n      jumpi\n      0x0100\n      dup1\n      dup4\n      sload\n      div\n      mul\n      dup4\n      mstore\n      swap2\n      0x20\n      add\n      swap2\n      jump(tag_222)\n    tag_223:\n      dup3\n      add\n      swap2\n      swap1\n      0x00\n      mstore\n      keccak256(0x00, 0x20)\n      swap1\n    tag_224:\n      dup2\n      sload\n      dup2\n      mstore\n      swap1\n      0x01\n      add\n      swap1\n      0x20\n      add\n      dup1\n      dup4\n      gt\n      tag_224\n      jumpi\n      dup3\n      swap1\n      sub\n      0x1f\n      and\n      dup3\n      add\n      swap2\n    tag_222:\n      pop\n      pop\n      pop\n      pop\n      pop\n      dup2\n      mstore\n      0x20\n      add\n      0x02\n      dup3\n      add\n      sload\n      dup2\n      mstore\n      0x20\n      add\n      0x03\n      dup3\n      add\n      0x00\n      swap1\n      sload\n      swap1\n      0x0100\n      exp\n      swap1\n      div\n      0xff\n      and\n      iszero\n      iszero\n      iszero\n      iszero\n      dup2\n      mstore\n      0x20\n      add\n      0x03\n      dup3\n      add\n      0x01\n      swap1\n      sload\n      swap1\n      0x0100\n      exp\n      swap1\n      div\n      0xff\n      and\n      iszero\n      iszero\n      iszero\n      iszero\n      dup2\n      mstore\n      0x20\n      add\n      0x04\n      dup3\n      add\n      sload\n      dup2\n      mstore\n      pop\n      pop\n      swap1\n      pop\n      dup8\n      jump\t// out\n        /* \"@openzeppelin/contracts/access/Ownable.sol\":1638:1723  function owner() public view virtual returns (address) {... */\n    tag_81:\n        /* \"@openzeppelin/contracts/access/Ownable.sol\":1684:1691  address */\n      0x00\n        /* \"@openzeppelin/contracts/access/Ownable.sol\":1710:1716  _owner */\n      dup1\n      0x00\n      swap1\n      sload\n      swap1\n      0x0100\n      exp\n      swap1\n      div\n      0xffffffffffffffffffffffffffffffffffffffff\n      and\n        /* \"@openzeppelin/contracts/access/Ownable.sol\":1703:1716  return _owner */\n      swap1\n      pop\n        /* \"@openzeppelin/contracts/access/Ownable.sol\":1638:1723  function owner() public view virtual returns (address) {... */\n      swap1\n      jump\t// out\n        /* \"@openzeppelin/contracts/access/AccessControl.sol\":2854:2990  function hasRole(bytes32 role, address account) public view virtual returns (bool) {... */\n    tag_86:\n        /* \"@openzeppelin/contracts/access/AccessControl.sol\":2931:2935  bool */\n      0x00\n        /* \"@openzeppelin/contracts/access/AccessControl.sol\":2954:2960  _roles */\n      0x01\n        /* \"@openzeppelin/contracts/access/AccessControl.sol\":2954:2966  _roles[role] */\n      0x00\n        /* \"@openzeppelin/contracts/access/AccessControl.sol\":2961:2965  role */\n      dup5\n        /* \"@openzeppelin/contracts/access/AccessControl.sol\":2954:2966  _roles[role] */\n      dup2\n      mstore\n      0x20\n      add\n      swap1\n      dup2\n      mstore\n      0x20\n      add\n      0x00\n      keccak256\n        /* \"@openzeppelin/contracts/access/AccessControl.sol\":2954:2974  _roles[role].hasRole */\n      0x00\n      add\n        /* \"@openzeppelin/contracts/access/AccessControl.sol\":2954:2983  _roles[role].hasRole[account] */\n      0x00\n        /* \"@openzeppelin/contracts/access/AccessControl.sol\":2975:2982  account */\n      dup4\n        /* \"@openzeppelin/contracts/access/AccessControl.sol\":2954:2983  _roles[role].hasRole[account] */\n      0xffffffffffffffffffffffffffffffffffffffff\n      and\n      0xffffffffffffffffffffffffffffffffffffffff\n      and\n      dup2\n      mstore\n      0x20\n      add\n      swap1\n      dup2\n      mstore\n      0x20\n      add\n      0x00\n      keccak256\n      0x00\n      swap1\n      sload\n      swap1\n      0x0100\n      exp\n      swap1\n      div\n      0xff\n      and\n        /* \"@openzeppelin/contracts/access/AccessControl.sol\":2947:2983  return _roles[role].hasRole[account] */\n      swap1\n      pop\n        /* \"@openzeppelin/contracts/access/AccessControl.sol\":2854:2990  function hasRole(bytes32 role, address account) public view virtual returns (bool) {... */\n      swap3\n      swap2\n      pop\n      pop\n      jump\t// out\n        /* \"Product Tracker Smart Contract/Product Tracker Main/ProductTracker.sol\":3742:3887  function revokeAdminRole(address _admin)... */\n    tag_90:\n        /* \"Product Tracker Smart Contract/Product Tracker Main/ProductTracker.sol\":450:476  keccak256(\"COMPANY_OWNER\") */\n      0x632405d99f3a4d6966c57f76cc301a3c7cab4b56ce8e567a4198e9434b3fbb5b\n        /* \"@openzeppelin/contracts/access/AccessControl.sol\":2464:2480  _checkRole(role) */\n      tag_228\n        /* \"@openzeppelin/contracts/access/AccessControl.sol\":2475:2479  role */\n      dup2\n        /* \"@openzeppelin/contracts/access/AccessControl.sol\":2464:2474  _checkRole */\n      tag_133\n        /* \"@openzeppelin/contracts/access/AccessControl.sol\":2464:2480  _checkRole(role) */\n      jump\t// in\n    tag_228:\n        /* \"Product Tracker Smart Contract/Product Tracker Main/ProductTracker.sol\":3849:3880  _revokeRole(ADMIN_ROLE, _admin) */\n      tag_230\n        /* \"Product Tracker Smart Contract/Product Tracker Main/ProductTracker.sol\":519:537  keccak256(\"ADMIN\") */\n      0xdf8b4c520ffe197c5343c6f5aec59570151ef9a492f2c624fd45ddde6135ec42\n        /* \"Product Tracker Smart Contract/Product Tracker Main/ProductTracker.sol\":3873:3879  _admin */\n      dup4\n        /* \"Product Tracker Smart Contract/Product Tracker Main/ProductTracker.sol\":3849:3860  _revokeRole */\n      tag_157\n        /* \"Product Tracker Smart Contract/Product Tracker Main/ProductTracker.sol\":3849:3880  _revokeRole(ADMIN_ROLE, _admin) */\n      jump\t// in\n    tag_230:\n      pop\n        /* \"Product Tracker Smart Contract/Product Tracker Main/ProductTracker.sol\":3742:3887  function revokeAdminRole(address _admin)... */\n      pop\n      pop\n      jump\t// out\n        /* \"@openzeppelin/contracts/access/AccessControl.sol\":2187:2236  bytes32 public constant DEFAULT_ADMIN_ROLE = 0x00 */\n    tag_92:\n        /* \"@openzeppelin/contracts/access/AccessControl.sol\":2232:2236  0x00 */\n      0x00\n        /* \"@openzeppelin/contracts/access/AccessControl.sol\":2187:2236  bytes32 public constant DEFAULT_ADMIN_ROLE = 0x00 */\n      dup1\n      shl\n      dup2\n      jump\t// out\n        /* \"Product Tracker Smart Contract/Product Tracker Main/ProductTracker.sol\":1105:1153  mapping(uint256 => address) public companyOwners */\n    tag_96:\n      mstore(0x20, 0x05)\n      dup1\n      0x00\n      mstore\n      keccak256(0x00, 0x40)\n      0x00\n      swap2\n      pop\n      sload\n      swap1\n      0x0100\n      exp\n      swap1\n      div\n      0xffffffffffffffffffffffffffffffffffffffff\n      and\n      dup2\n      jump\t// out\n        /* \"Product Tracker Smart Contract/Product Tracker Main/ProductTracker.sol\":1048:1099  mapping(uint256 => address) public productGenerator */\n    tag_100:\n      mstore(0x20, 0x04)\n      dup1\n      0x00\n      mstore\n      keccak256(0x00, 0x40)\n      0x00\n      swap2\n      pop\n      sload\n      swap1\n      0x0100\n      exp\n      swap1\n      div\n      0xffffffffffffffffffffffffffffffffffffffff\n      and\n      dup2\n      jump\t// out\n        /* \"Product Tracker Smart Contract/Product Tracker Main/ProductTracker.sol\":3593:3736  function grantAdminRole(address _admin)... */\n    tag_104:\n        /* \"Product Tracker Smart Contract/Product Tracker Main/ProductTracker.sol\":450:476  keccak256(\"COMPANY_OWNER\") */\n      0x632405d99f3a4d6966c57f76cc301a3c7cab4b56ce8e567a4198e9434b3fbb5b\n        /* \"@openzeppelin/contracts/access/AccessControl.sol\":2464:2480  _checkRole(role) */\n      tag_232\n        /* \"@openzeppelin/contracts/access/AccessControl.sol\":2475:2479  role */\n      dup2\n        /* \"@openzeppelin/contracts/access/AccessControl.sol\":2464:2474  _checkRole */\n      tag_133\n        /* \"@openzeppelin/contracts/access/AccessControl.sol\":2464:2480  _checkRole(role) */\n      jump\t// in\n    tag_232:\n        /* \"Product Tracker Smart Contract/Product Tracker Main/ProductTracker.sol\":3699:3729  _grantRole(ADMIN_ROLE, _admin) */\n      tag_234\n        /* \"Product Tracker Smart Contract/Product Tracker Main/ProductTracker.sol\":519:537  keccak256(\"ADMIN\") */\n      0xdf8b4c520ffe197c5343c6f5aec59570151ef9a492f2c624fd45ddde6135ec42\n        /* \"Product Tracker Smart Contract/Product Tracker Main/ProductTracker.sol\":3722:3728  _admin */\n      dup4\n        /* \"Product Tracker Smart Contract/Product Tracker Main/ProductTracker.sol\":3699:3709  _grantRole */\n      tag_120\n        /* \"Product Tracker Smart Contract/Product Tracker Main/ProductTracker.sol\":3699:3729  _grantRole(ADMIN_ROLE, _admin) */\n      jump\t// in\n    tag_234:\n      pop\n        /* \"Product Tracker Smart Contract/Product Tracker Main/ProductTracker.sol\":3593:3736  function grantAdminRole(address _admin)... */\n      pop\n      pop\n      jump\t// out\n        /* \"@openzeppelin/contracts/access/AccessControl.sol\":4642:4780  function revokeRole(bytes32 role, address account) public virtual onlyRole(getRoleAdmin(role)) {... */\n    tag_107:\n        /* \"@openzeppelin/contracts/access/AccessControl.sol\":4717:4735  getRoleAdmin(role) */\n      tag_235\n        /* \"@openzeppelin/contracts/access/AccessControl.sol\":4730:4734  role */\n      dup3\n        /* \"@openzeppelin/contracts/access/AccessControl.sol\":4717:4729  getRoleAdmin */\n      tag_49\n        /* \"@openzeppelin/contracts/access/AccessControl.sol\":4717:4735  getRoleAdmin(role) */\n      jump\t// in\n    tag_235:\n        /* \"@openzeppelin/contracts/access/AccessControl.sol\":2464:2480  _checkRole(role) */\n      tag_237\n        /* \"@openzeppelin/contracts/access/AccessControl.sol\":2475:2479  role */\n      dup2\n        /* \"@openzeppelin/contracts/access/AccessControl.sol\":2464:2474  _checkRole */\n      tag_133\n        /* \"@openzeppelin/contracts/access/AccessControl.sol\":2464:2480  _checkRole(role) */\n      jump\t// in\n    tag_237:\n        /* \"@openzeppelin/contracts/access/AccessControl.sol\":4747:4773  _revokeRole(role, account) */\n      tag_239\n        /* \"@openzeppelin/contracts/access/AccessControl.sol\":4759:4763  role */\n      dup4\n        /* \"@openzeppelin/contracts/access/AccessControl.sol\":4765:4772  account */\n      dup4\n        /* \"@openzeppelin/contracts/access/AccessControl.sol\":4747:4758  _revokeRole */\n      tag_157\n        /* \"@openzeppelin/contracts/access/AccessControl.sol\":4747:4773  _revokeRole(role, account) */\n      jump\t// in\n    tag_239:\n      pop\n        /* \"@openzeppelin/contracts/access/AccessControl.sol\":4642:4780  function revokeRole(bytes32 role, address account) public virtual onlyRole(getRoleAdmin(role)) {... */\n      pop\n      pop\n      pop\n      jump\t// out\n        /* \"@openzeppelin/contracts/access/Ownable.sol\":2543:2758  function transferOwnership(address newOwner) public virtual onlyOwner {... */\n    tag_110:\n        /* \"@openzeppelin/contracts/access/Ownable.sol\":1531:1544  _checkOwner() */\n      tag_241\n        /* \"@openzeppelin/contracts/access/Ownable.sol\":1531:1542  _checkOwner */\n      tag_117\n        /* \"@openzeppelin/contracts/access/Ownable.sol\":1531:1544  _checkOwner() */\n      jump\t// in\n    tag_241:\n        /* \"@openzeppelin/contracts/access/Ownable.sol\":2647:2648  0 */\n      0x00\n        /* \"@openzeppelin/contracts/access/Ownable.sol\":2627:2649  newOwner == address(0) */\n      0xffffffffffffffffffffffffffffffffffffffff\n      and\n        /* \"@openzeppelin/contracts/access/Ownable.sol\":2627:2635  newOwner */\n      dup2\n        /* \"@openzeppelin/contracts/access/Ownable.sol\":2627:2649  newOwner == address(0) */\n      0xffffffffffffffffffffffffffffffffffffffff\n      and\n      sub\n        /* \"@openzeppelin/contracts/access/Ownable.sol\":2623:2714  if (newOwner == address(0)) {... */\n      tag_243\n      jumpi\n        /* \"@openzeppelin/contracts/access/Ownable.sol\":2700:2701  0 */\n      0x00\n        /* \"@openzeppelin/contracts/access/Ownable.sol\":2672:2703  OwnableInvalidOwner(address(0)) */\n      mload(0x40)\n      0x1e4fbdf700000000000000000000000000000000000000000000000000000000\n      dup2\n      mstore\n      0x04\n      add\n      tag_244\n      swap2\n      swap1\n      tag_83\n      jump\t// in\n    tag_244:\n      mload(0x40)\n      dup1\n      swap2\n      sub\n      swap1\n      revert\n        /* \"@openzeppelin/contracts/access/Ownable.sol\":2623:2714  if (newOwner == address(0)) {... */\n    tag_243:\n        /* \"@openzeppelin/contracts/access/Ownable.sol\":2723:2751  _transferOwnership(newOwner) */\n      tag_245\n        /* \"@openzeppelin/contracts/access/Ownable.sol\":2742:2750  newOwner */\n      dup2\n        /* \"@openzeppelin/contracts/access/Ownable.sol\":2723:2741  _transferOwnership */\n      tag_194\n        /* \"@openzeppelin/contracts/access/Ownable.sol\":2723:2751  _transferOwnership(newOwner) */\n      jump\t// in\n    tag_245:\n        /* \"@openzeppelin/contracts/access/Ownable.sol\":2543:2758  function transferOwnership(address newOwner) public virtual onlyOwner {... */\n      pop\n      jump\t// out\n        /* \"@openzeppelin/contracts/utils/introspection/ERC165.sol\":762:908  function supportsInterface(bytes4 interfaceId) public view virtual returns (bool) {... */\n    tag_114:\n        /* \"@openzeppelin/contracts/utils/introspection/ERC165.sol\":838:842  bool */\n      0x00\n        /* \"@openzeppelin/contracts/utils/introspection/ERC165.sol\":876:901  type(IERC165).interfaceId */\n      0x01ffc9a700000000000000000000000000000000000000000000000000000000\n        /* \"@openzeppelin/contracts/utils/introspection/ERC165.sol\":861:901  interfaceId == type(IERC165).interfaceId */\n      not(0xffffffffffffffffffffffffffffffffffffffffffffffffffffffff)\n      and\n        /* \"@openzeppelin/contracts/utils/introspection/ERC165.sol\":861:872  interfaceId */\n      dup3\n        /* \"@openzeppelin/contracts/utils/introspection/ERC165.sol\":861:901  interfaceId == type(IERC165).interfaceId */\n      not(0xffffffffffffffffffffffffffffffffffffffffffffffffffffffff)\n      and\n      eq\n        /* \"@openzeppelin/contracts/utils/introspection/ERC165.sol\":854:901  return interfaceId == type(IERC165).interfaceId */\n      swap1\n      pop\n        /* \"@openzeppelin/contracts/utils/introspection/ERC165.sol\":762:908  function supportsInterface(bytes4 interfaceId) public view virtual returns (bool) {... */\n      swap2\n      swap1\n      pop\n      jump\t// out\n        /* \"@openzeppelin/contracts/access/Ownable.sol\":1796:1958  function _checkOwner() internal view virtual {... */\n    tag_117:\n        /* \"@openzeppelin/contracts/access/Ownable.sol\":1866:1878  _msgSender() */\n      tag_248\n        /* \"@openzeppelin/contracts/access/Ownable.sol\":1866:1876  _msgSender */\n      tag_154\n        /* \"@openzeppelin/contracts/access/Ownable.sol\":1866:1878  _msgSender() */\n      jump\t// in\n    tag_248:\n        /* \"@openzeppelin/contracts/access/Ownable.sol\":1855:1878  owner() != _msgSender() */\n      0xffffffffffffffffffffffffffffffffffffffff\n      and\n        /* \"@openzeppelin/contracts/access/Ownable.sol\":1855:1862  owner() */\n      tag_249\n        /* \"@openzeppelin/contracts/access/Ownable.sol\":1855:1860  owner */\n      tag_81\n        /* \"@openzeppelin/contracts/access/Ownable.sol\":1855:1862  owner() */\n      jump\t// in\n    tag_249:\n        /* \"@openzeppelin/contracts/access/Ownable.sol\":1855:1878  owner() != _msgSender() */\n      0xffffffffffffffffffffffffffffffffffffffff\n      and\n      eq\n        /* \"@openzeppelin/contracts/access/Ownable.sol\":1851:1952  if (owner() != _msgSender()) {... */\n      tag_250\n      jumpi\n        /* \"@openzeppelin/contracts/access/Ownable.sol\":1928:1940  _msgSender() */\n      tag_251\n        /* \"@openzeppelin/contracts/access/Ownable.sol\":1928:1938  _msgSender */\n      tag_154\n        /* \"@openzeppelin/contracts/access/Ownable.sol\":1928:1940  _msgSender() */\n      jump\t// in\n    tag_251:\n        /* \"@openzeppelin/contracts/access/Ownable.sol\":1901:1941  OwnableUnauthorizedAccount(_msgSender()) */\n      mload(0x40)\n      0x118cdaa700000000000000000000000000000000000000000000000000000000\n      dup2\n      mstore\n      0x04\n      add\n      tag_252\n      swap2\n      swap1\n      tag_83\n      jump\t// in\n    tag_252:\n      mload(0x40)\n      dup1\n      swap2\n      sub\n      swap1\n      revert\n        /* \"@openzeppelin/contracts/access/Ownable.sol\":1851:1952  if (owner() != _msgSender()) {... */\n    tag_250:\n        /* \"@openzeppelin/contracts/access/Ownable.sol\":1796:1958  function _checkOwner() internal view virtual {... */\n      jump\t// out\n        /* \"@openzeppelin/contracts/access/AccessControl.sol\":6179:6495  function _grantRole(bytes32 role, address account) internal virtual returns (bool) {... */\n    tag_120:\n        /* \"@openzeppelin/contracts/access/AccessControl.sol\":6256:6260  bool */\n      0x00\n        /* \"@openzeppelin/contracts/access/AccessControl.sol\":6277:6299  hasRole(role, account) */\n      tag_254\n        /* \"@openzeppelin/contracts/access/AccessControl.sol\":6285:6289  role */\n      dup4\n        /* \"@openzeppelin/contracts/access/AccessControl.sol\":6291:6298  account */\n      dup4\n        /* \"@openzeppelin/contracts/access/AccessControl.sol\":6277:6284  hasRole */\n      tag_86\n        /* \"@openzeppelin/contracts/access/AccessControl.sol\":6277:6299  hasRole(role, account) */\n      jump\t// in\n    tag_254:\n        /* \"@openzeppelin/contracts/access/AccessControl.sol\":6272:6489  if (!hasRole(role, account)) {... */\n      tag_255\n      jumpi\n        /* \"@openzeppelin/contracts/access/AccessControl.sol\":6347:6351  true */\n      0x01\n        /* \"@openzeppelin/contracts/access/AccessControl.sol\":6315:6321  _roles */\n      dup1\n        /* \"@openzeppelin/contracts/access/AccessControl.sol\":6315:6327  _roles[role] */\n      0x00\n        /* \"@openzeppelin/contracts/access/AccessControl.sol\":6322:6326  role */\n      dup6\n        /* \"@openzeppelin/contracts/access/AccessControl.sol\":6315:6327  _roles[role] */\n      dup2\n      mstore\n      0x20\n      add\n      swap1\n      dup2\n      mstore\n      0x20\n      add\n      0x00\n      keccak256\n        /* \"@openzeppelin/contracts/access/AccessControl.sol\":6315:6335  _roles[role].hasRole */\n      0x00\n      add\n        /* \"@openzeppelin/contracts/access/AccessControl.sol\":6315:6344  _roles[role].hasRole[account] */\n      0x00\n        /* \"@openzeppelin/contracts/access/AccessControl.sol\":6336:6343  account */\n      dup5\n        /* \"@openzeppelin/contracts/access/AccessControl.sol\":6315:6344  _roles[role].hasRole[account] */\n      0xffffffffffffffffffffffffffffffffffffffff\n      and\n      0xffffffffffffffffffffffffffffffffffffffff\n      and\n      dup2\n      mstore\n      0x20\n      add\n      swap1\n      dup2\n      mstore\n      0x20\n      add\n      0x00\n      keccak256\n      0x00\n        /* \"@openzeppelin/contracts/access/AccessControl.sol\":6315:6351  _roles[role].hasRole[account] = true */\n      0x0100\n      exp\n      dup2\n      sload\n      dup2\n      0xff\n      mul\n      not\n      and\n      swap1\n      dup4\n      iszero\n      iszero\n      mul\n      or\n      swap1\n      sstore\n      pop\n        /* \"@openzeppelin/contracts/access/AccessControl.sol\":6397:6409  _msgSender() */\n      tag_256\n        /* \"@openzeppelin/contracts/access/AccessControl.sol\":6397:6407  _msgSender */\n      tag_154\n        /* \"@openzeppelin/contracts/access/AccessControl.sol\":6397:6409  _msgSender() */\n      jump\t// in\n    tag_256:\n        /* \"@openzeppelin/contracts/access/AccessControl.sol\":6370:6410  RoleGranted(role, account, _msgSender()) */\n      0xffffffffffffffffffffffffffffffffffffffff\n      and\n        /* \"@openzeppelin/contracts/access/AccessControl.sol\":6388:6395  account */\n      dup3\n        /* \"@openzeppelin/contracts/access/AccessControl.sol\":6370:6410  RoleGranted(role, account, _msgSender()) */\n      0xffffffffffffffffffffffffffffffffffffffff\n      and\n        /* \"@openzeppelin/contracts/access/AccessControl.sol\":6382:6386  role */\n      dup5\n        /* \"@openzeppelin/contracts/access/AccessControl.sol\":6370:6410  RoleGranted(role, account, _msgSender()) */\n      0x2f8788117e7eff1d82e926ec794901d17c78024a50270940304540a733656f0d\n      mload(0x40)\n      mload(0x40)\n      dup1\n      swap2\n      sub\n      swap1\n      log4\n        /* \"@openzeppelin/contracts/access/AccessControl.sol\":6431:6435  true */\n      0x01\n        /* \"@openzeppelin/contracts/access/AccessControl.sol\":6424:6435  return true */\n      swap1\n      pop\n      jump(tag_253)\n        /* \"@openzeppelin/contracts/access/AccessControl.sol\":6272:6489  if (!hasRole(role, account)) {... */\n    tag_255:\n        /* \"@openzeppelin/contracts/access/AccessControl.sol\":6473:6478  false */\n      0x00\n        /* \"@openzeppelin/contracts/access/AccessControl.sol\":6466:6478  return false */\n      swap1\n      pop\n        /* \"@openzeppelin/contracts/access/AccessControl.sol\":6179:6495  function _grantRole(bytes32 role, address account) internal virtual returns (bool) {... */\n    tag_253:\n      swap3\n      swap2\n      pop\n      pop\n      jump\t// out\n        /* \"@openzeppelin/contracts/access/AccessControl.sol\":3199:3302  function _checkRole(bytes32 role) internal view virtual {... */\n    tag_133:\n        /* \"@openzeppelin/contracts/access/AccessControl.sol\":3265:3295  _checkRole(role, _msgSender()) */\n      tag_259\n        /* \"@openzeppelin/contracts/access/AccessControl.sol\":3276:3280  role */\n      dup2\n        /* \"@openzeppelin/contracts/access/AccessControl.sol\":3282:3294  _msgSender() */\n      tag_260\n        /* \"@openzeppelin/contracts/access/AccessControl.sol\":3282:3292  _msgSender */\n      tag_154\n        /* \"@openzeppelin/contracts/access/AccessControl.sol\":3282:3294  _msgSender() */\n      jump\t// in\n    tag_260:\n        /* \"@openzeppelin/contracts/access/AccessControl.sol\":3265:3275  _checkRole */\n      tag_261\n        /* \"@openzeppelin/contracts/access/AccessControl.sol\":3265:3295  _checkRole(role, _msgSender()) */\n      jump\t// in\n    tag_259:\n        /* \"@openzeppelin/contracts/access/AccessControl.sol\":3199:3302  function _checkRole(bytes32 role) internal view virtual {... */\n      pop\n      jump\t// out\n        /* \"@openzeppelin/contracts/utils/Context.sol\":656:752  function _msgSender() internal view virtual returns (address) {... */\n    tag_154:\n        /* \"@openzeppelin/contracts/utils/Context.sol\":709:716  address */\n      0x00\n        /* \"@openzeppelin/contracts/utils/Context.sol\":735:745  msg.sender */\n      caller\n        /* \"@openzeppelin/contracts/utils/Context.sol\":728:745  return msg.sender */\n      swap1\n      pop\n        /* \"@openzeppelin/contracts/utils/Context.sol\":656:752  function _msgSender() internal view virtual returns (address) {... */\n      swap1\n      jump\t// out\n        /* \"@openzeppelin/contracts/access/AccessControl.sol\":6730:7047  function _revokeRole(bytes32 role, address account) internal virtual returns (bool) {... */\n    tag_157:\n        /* \"@openzeppelin/contracts/access/AccessControl.sol\":6808:6812  bool */\n      0x00\n        /* \"@openzeppelin/contracts/access/AccessControl.sol\":6828:6850  hasRole(role, account) */\n      tag_264\n        /* \"@openzeppelin/contracts/access/AccessControl.sol\":6836:6840  role */\n      dup4\n        /* \"@openzeppelin/contracts/access/AccessControl.sol\":6842:6849  account */\n      dup4\n        /* \"@openzeppelin/contracts/access/AccessControl.sol\":6828:6835  hasRole */\n      tag_86\n        /* \"@openzeppelin/contracts/access/AccessControl.sol\":6828:6850  hasRole(role, account) */\n      jump\t// in\n    tag_264:\n        /* \"@openzeppelin/contracts/access/AccessControl.sol\":6824:7041  if (hasRole(role, account)) {... */\n      iszero\n      tag_265\n      jumpi\n        /* \"@openzeppelin/contracts/access/AccessControl.sol\":6898:6903  false */\n      0x00\n        /* \"@openzeppelin/contracts/access/AccessControl.sol\":6866:6872  _roles */\n      0x01\n        /* \"@openzeppelin/contracts/access/AccessControl.sol\":6866:6878  _roles[role] */\n      0x00\n        /* \"@openzeppelin/contracts/access/AccessControl.sol\":6873:6877  role */\n      dup6\n        /* \"@openzeppelin/contracts/access/AccessControl.sol\":6866:6878  _roles[role] */\n      dup2\n      mstore\n      0x20\n      add\n      swap1\n      dup2\n      mstore\n      0x20\n      add\n      0x00\n      keccak256\n        /* \"@openzeppelin/contracts/access/AccessControl.sol\":6866:6886  _roles[role].hasRole */\n      0x00\n      add\n        /* \"@openzeppelin/contracts/access/AccessControl.sol\":6866:6895  _roles[role].hasRole[account] */\n      0x00\n        /* \"@openzeppelin/contracts/access/AccessControl.sol\":6887:6894  account */\n      dup5\n        /* \"@openzeppelin/contracts/access/AccessControl.sol\":6866:6895  _roles[role].hasRole[account] */\n      0xffffffffffffffffffffffffffffffffffffffff\n      and\n      0xffffffffffffffffffffffffffffffffffffffff\n      and\n      dup2\n      mstore\n      0x20\n      add\n      swap1\n      dup2\n      mstore\n      0x20\n      add\n      0x00\n      keccak256\n      0x00\n        /* \"@openzeppelin/contracts/access/AccessControl.sol\":6866:6903  _roles[role].hasRole[account] = false */\n      0x0100\n      exp\n      dup2\n      sload\n      dup2\n      0xff\n      mul\n      not\n      and\n      swap1\n      dup4\n      iszero\n      iszero\n      mul\n      or\n      swap1\n      sstore\n      pop\n        /* \"@openzeppelin/contracts/access/AccessControl.sol\":6949:6961  _msgSender() */\n      tag_266\n        /* \"@openzeppelin/contracts/access/AccessControl.sol\":6949:6959  _msgSender */\n      tag_154\n        /* \"@openzeppelin/contracts/access/AccessControl.sol\":6949:6961  _msgSender() */\n      jump\t// in\n    tag_266:\n        /* \"@openzeppelin/contracts/access/AccessControl.sol\":6922:6962  RoleRevoked(role, account, _msgSender()) */\n      0xffffffffffffffffffffffffffffffffffffffff\n      and\n        /* \"@openzeppelin/contracts/access/AccessControl.sol\":6940:6947  account */\n      dup3\n        /* \"@openzeppelin/contracts/access/AccessControl.sol\":6922:6962  RoleRevoked(role, account, _msgSender()) */\n      0xffffffffffffffffffffffffffffffffffffffff\n      and\n        /* \"@openzeppelin/contracts/access/AccessControl.sol\":6934:6938  role */\n      dup5\n        /* \"@openzeppelin/contracts/access/AccessControl.sol\":6922:6962  RoleRevoked(role, account, _msgSender()) */\n      0xf6391f5c32d9c69d2a47ea670b442974b53935d1edc7fd64eb21e047a839171b\n      mload(0x40)\n      mload(0x40)\n      dup1\n      swap2\n      sub\n      swap1\n      log4\n        /* \"@openzeppelin/contracts/access/AccessControl.sol\":6983:6987  true */\n      0x01\n        /* \"@openzeppelin/contracts/access/AccessControl.sol\":6976:6987  return true */\n      swap1\n      pop\n      jump(tag_263)\n        /* \"@openzeppelin/contracts/access/AccessControl.sol\":6824:7041  if (hasRole(role, account)) {... */\n    tag_265:\n        /* \"@openzeppelin/contracts/access/AccessControl.sol\":7025:7030  false */\n      0x00\n        /* \"@openzeppelin/contracts/access/AccessControl.sol\":7018:7030  return false */\n      swap1\n      pop\n        /* \"@openzeppelin/contracts/access/AccessControl.sol\":6730:7047  function _revokeRole(bytes32 role, address account) internal virtual returns (bool) {... */\n    tag_263:\n      swap3\n      swap2\n      pop\n      pop\n      jump\t// out\n        /* \"@openzeppelin/contracts/access/Ownable.sol\":2912:3099  function _transferOwnership(address newOwner) internal virtual {... */\n    tag_194:\n        /* \"@openzeppelin/contracts/access/Ownable.sol\":2985:3001  address oldOwner */\n      0x00\n        /* \"@openzeppelin/contracts/access/Ownable.sol\":3004:3010  _owner */\n      dup1\n      0x00\n      swap1\n      sload\n      swap1\n      0x0100\n      exp\n      swap1\n      div\n      0xffffffffffffffffffffffffffffffffffffffff\n      and\n        /* \"@openzeppelin/contracts/access/Ownable.sol\":2985:3010  address oldOwner = _owner */\n      swap1\n      pop\n        /* \"@openzeppelin/contracts/access/Ownable.sol\":3029:3037  newOwner */\n      dup2\n        /* \"@openzeppelin/contracts/access/Ownable.sol\":3020:3026  _owner */\n      0x00\n      dup1\n        /* \"@openzeppelin/contracts/access/Ownable.sol\":3020:3037  _owner = newOwner */\n      0x0100\n      exp\n      dup2\n      sload\n      dup2\n      0xffffffffffffffffffffffffffffffffffffffff\n      mul\n      not\n      and\n      swap1\n      dup4\n      0xffffffffffffffffffffffffffffffffffffffff\n      and\n      mul\n      or\n      swap1\n      sstore\n      pop\n        /* \"@openzeppelin/contracts/access/Ownable.sol\":3083:3091  newOwner */\n      dup2\n        /* \"@openzeppelin/contracts/access/Ownable.sol\":3052:3092  OwnershipTransferred(oldOwner, newOwner) */\n      0xffffffffffffffffffffffffffffffffffffffff\n      and\n        /* \"@openzeppelin/contracts/access/Ownable.sol\":3073:3081  oldOwner */\n      dup2\n        /* \"@openzeppelin/contracts/access/Ownable.sol\":3052:3092  OwnershipTransferred(oldOwner, newOwner) */\n      0xffffffffffffffffffffffffffffffffffffffff\n      and\n      0x8be0079c531659141344cd1fd0a4f28419497f9722a3daafe3b4186f6b6457e0\n      mload(0x40)\n      mload(0x40)\n      dup1\n      swap2\n      sub\n      swap1\n      log3\n        /* \"@openzeppelin/contracts/access/Ownable.sol\":2975:3099  {... */\n      pop\n        /* \"@openzeppelin/contracts/access/Ownable.sol\":2912:3099  function _transferOwnership(address newOwner) internal virtual {... */\n      pop\n      jump\t// out\n        /* \"@openzeppelin/contracts/access/AccessControl.sol\":3432:3629  function _checkRole(bytes32 role, address account) internal view virtual {... */\n    tag_261:\n        /* \"@openzeppelin/contracts/access/AccessControl.sol\":3520:3542  hasRole(role, account) */\n      tag_270\n        /* \"@openzeppelin/contracts/access/AccessControl.sol\":3528:3532  role */\n      dup3\n        /* \"@openzeppelin/contracts/access/AccessControl.sol\":3534:3541  account */\n      dup3\n        /* \"@openzeppelin/contracts/access/AccessControl.sol\":3520:3527  hasRole */\n      tag_86\n        /* \"@openzeppelin/contracts/access/AccessControl.sol\":3520:3542  hasRole(role, account) */\n      jump\t// in\n    tag_270:\n        /* \"@openzeppelin/contracts/access/AccessControl.sol\":3515:3623  if (!hasRole(role, account)) {... */\n      tag_271\n      jumpi\n        /* \"@openzeppelin/contracts/access/AccessControl.sol\":3598:3605  account */\n      dup1\n        /* \"@openzeppelin/contracts/access/AccessControl.sol\":3607:3611  role */\n      dup3\n        /* \"@openzeppelin/contracts/access/AccessControl.sol\":3565:3612  AccessControlUnauthorizedAccount(account, role) */\n      mload(0x40)\n      0xe2517d3f00000000000000000000000000000000000000000000000000000000\n      dup2\n      mstore\n      0x04\n      add\n      tag_272\n      swap3\n      swap2\n      swap1\n      tag_273\n      jump\t// in\n    tag_272:\n      mload(0x40)\n      dup1\n      swap2\n      sub\n      swap1\n      revert\n        /* \"@openzeppelin/contracts/access/AccessControl.sol\":3515:3623  if (!hasRole(role, account)) {... */\n    tag_271:\n        /* \"@openzeppelin/contracts/access/AccessControl.sol\":3432:3629  function _checkRole(bytes32 role, address account) internal view virtual {... */\n      pop\n      pop\n      jump\t// out\n        /* \"#utility.yul\":7:82   */\n    tag_274:\n        /* \"#utility.yul\":40:46   */\n      0x00\n        /* \"#utility.yul\":73:75   */\n      0x40\n        /* \"#utility.yul\":67:76   */\n      mload\n        /* \"#utility.yul\":57:76   */\n      swap1\n      pop\n        /* \"#utility.yul\":7:82   */\n      swap1\n      jump\t// out\n        /* \"#utility.yul\":88:205   */\n    tag_275:\n        /* \"#utility.yul\":197:198   */\n      0x00\n        /* \"#utility.yul\":194:195   */\n      dup1\n        /* \"#utility.yul\":187:199   */\n      revert\n        /* \"#utility.yul\":211:328   */\n    tag_276:\n        /* \"#utility.yul\":320:321   */\n      0x00\n        /* \"#utility.yul\":317:318   */\n      dup1\n        /* \"#utility.yul\":310:322   */\n      revert\n        /* \"#utility.yul\":334:483   */\n    tag_277:\n        /* \"#utility.yul\":370:377   */\n      0x00\n        /* \"#utility.yul\":410:476   */\n      0xffffffff00000000000000000000000000000000000000000000000000000000\n        /* \"#utility.yul\":403:408   */\n      dup3\n        /* \"#utility.yul\":399:477   */\n      and\n        /* \"#utility.yul\":388:477   */\n      swap1\n      pop\n        /* \"#utility.yul\":334:483   */\n      swap2\n      swap1\n      pop\n      jump\t// out\n        /* \"#utility.yul\":489:609   */\n    tag_278:\n        /* \"#utility.yul\":561:584   */\n      tag_367\n        /* \"#utility.yul\":578:583   */\n      dup2\n        /* \"#utility.yul\":561:584   */\n      tag_277\n      jump\t// in\n    tag_367:\n        /* \"#utility.yul\":554:559   */\n      dup2\n        /* \"#utility.yul\":551:585   */\n      eq\n        /* \"#utility.yul\":541:603   */\n      tag_368\n      jumpi\n        /* \"#utility.yul\":599:600   */\n      0x00\n        /* \"#utility.yul\":596:597   */\n      dup1\n        /* \"#utility.yul\":589:601   */\n      revert\n        /* \"#utility.yul\":541:603   */\n    tag_368:\n        /* \"#utility.yul\":489:609   */\n      pop\n      jump\t// out\n        /* \"#utility.yul\":615:752   */\n    tag_279:\n        /* \"#utility.yul\":660:665   */\n      0x00\n        /* \"#utility.yul\":698:704   */\n      dup2\n        /* \"#utility.yul\":685:705   */\n      calldataload\n        /* \"#utility.yul\":676:705   */\n      swap1\n      pop\n        /* \"#utility.yul\":714:746   */\n      tag_370\n        /* \"#utility.yul\":740:745   */\n      dup2\n        /* \"#utility.yul\":714:746   */\n      tag_278\n      jump\t// in\n    tag_370:\n        /* \"#utility.yul\":615:752   */\n      swap3\n      swap2\n      pop\n      pop\n      jump\t// out\n        /* \"#utility.yul\":758:1085   */\n    tag_30:\n        /* \"#utility.yul\":816:822   */\n      0x00\n        /* \"#utility.yul\":865:867   */\n      0x20\n        /* \"#utility.yul\":853:862   */\n      dup3\n        /* \"#utility.yul\":844:851   */\n      dup5\n        /* \"#utility.yul\":840:863   */\n      sub\n        /* \"#utility.yul\":836:868   */\n      slt\n        /* \"#utility.yul\":833:952   */\n      iszero\n      tag_372\n      jumpi\n        /* \"#utility.yul\":871:950   */\n      tag_373\n      tag_275\n      jump\t// in\n    tag_373:\n        /* \"#utility.yul\":833:952   */\n    tag_372:\n        /* \"#utility.yul\":991:992   */\n      0x00\n        /* \"#utility.yul\":1016:1068   */\n      tag_374\n        /* \"#utility.yul\":1060:1067   */\n      dup5\n        /* \"#utility.yul\":1051:1057   */\n      dup3\n        /* \"#utility.yul\":1040:1049   */\n      dup6\n        /* \"#utility.yul\":1036:1058   */\n      add\n        /* \"#utility.yul\":1016:1068   */\n      tag_279\n      jump\t// in\n    tag_374:\n        /* \"#utility.yul\":1006:1068   */\n      swap2\n      pop\n        /* \"#utility.yul\":962:1078   */\n      pop\n        /* \"#utility.yul\":758:1085   */\n      swap3\n      swap2\n      pop\n      pop\n      jump\t// out\n        /* \"#utility.yul\":1091:1181   */\n    tag_280:\n        /* \"#utility.yul\":1125:1132   */\n      0x00\n        /* \"#utility.yul\":1168:1173   */\n      dup2\n        /* \"#utility.yul\":1161:1174   */\n      iszero\n        /* \"#utility.yul\":1154:1175   */\n      iszero\n        /* \"#utility.yul\":1143:1175   */\n      swap1\n      pop\n        /* \"#utility.yul\":1091:1181   */\n      swap2\n      swap1\n      pop\n      jump\t// out\n        /* \"#utility.yul\":1187:1296   */\n    tag_281:\n        /* \"#utility.yul\":1268:1289   */\n      tag_377\n        /* \"#utility.yul\":1283:1288   */\n      dup2\n        /* \"#utility.yul\":1268:1289   */\n      tag_280\n      jump\t// in\n    tag_377:\n        /* \"#utility.yul\":1263:1266   */\n      dup3\n        /* \"#utility.yul\":1256:1290   */\n      mstore\n        /* \"#utility.yul\":1187:1296   */\n      pop\n      pop\n      jump\t// out\n        /* \"#utility.yul\":1302:1512   */\n    tag_33:\n        /* \"#utility.yul\":1389:1393   */\n      0x00\n        /* \"#utility.yul\":1427:1429   */\n      0x20\n        /* \"#utility.yul\":1416:1425   */\n      dup3\n        /* \"#utility.yul\":1412:1430   */\n      add\n        /* \"#utility.yul\":1404:1430   */\n      swap1\n      pop\n        /* \"#utility.yul\":1440:1505   */\n      tag_379\n        /* \"#utility.yul\":1502:1503   */\n      0x00\n        /* \"#utility.yul\":1491:1500   */\n      dup4\n        /* \"#utility.yul\":1487:1504   */\n      add\n        /* \"#utility.yul\":1478:1484   */\n      dup5\n        /* \"#utility.yul\":1440:1505   */\n      tag_281\n      jump\t// in\n    tag_379:\n        /* \"#utility.yul\":1302:1512   */\n      swap3\n      swap2\n      pop\n      pop\n      jump\t// out\n        /* \"#utility.yul\":1518:1595   */\n    tag_282:\n        /* \"#utility.yul\":1555:1562   */\n      0x00\n        /* \"#utility.yul\":1584:1589   */\n      dup2\n        /* \"#utility.yul\":1573:1589   */\n      swap1\n      pop\n        /* \"#utility.yul\":1518:1595   */\n      swap2\n      swap1\n      pop\n      jump\t// out\n        /* \"#utility.yul\":1601:1719   */\n    tag_283:\n        /* \"#utility.yul\":1688:1712   */\n      tag_382\n        /* \"#utility.yul\":1706:1711   */\n      dup2\n        /* \"#utility.yul\":1688:1712   */\n      tag_282\n      jump\t// in\n    tag_382:\n        /* \"#utility.yul\":1683:1686   */\n      dup3\n        /* \"#utility.yul\":1676:1713   */\n      mstore\n        /* \"#utility.yul\":1601:1719   */\n      pop\n      pop\n      jump\t// out\n        /* \"#utility.yul\":1725:1947   */\n    tag_37:\n        /* \"#utility.yul\":1818:1822   */\n      0x00\n        /* \"#utility.yul\":1856:1858   */\n      0x20\n        /* \"#utility.yul\":1845:1854   */\n      dup3\n        /* \"#utility.yul\":1841:1859   */\n      add\n        /* \"#utility.yul\":1833:1859   */\n      swap1\n      pop\n        /* \"#utility.yul\":1869:1940   */\n      tag_384\n        /* \"#utility.yul\":1937:1938   */\n      0x00\n        /* \"#utility.yul\":1926:1935   */\n      dup4\n        /* \"#utility.yul\":1922:1939   */\n      add\n        /* \"#utility.yul\":1913:1919   */\n      dup5\n        /* \"#utility.yul\":1869:1940   */\n      tag_283\n      jump\t// in\n    tag_384:\n        /* \"#utility.yul\":1725:1947   */\n      swap3\n      swap2\n      pop\n      pop\n      jump\t// out\n        /* \"#utility.yul\":1953:2079   */\n    tag_284:\n        /* \"#utility.yul\":1990:1997   */\n      0x00\n        /* \"#utility.yul\":2030:2072   */\n      0xffffffffffffffffffffffffffffffffffffffff\n        /* \"#utility.yul\":2023:2028   */\n      dup3\n        /* \"#utility.yul\":2019:2073   */\n      and\n        /* \"#utility.yul\":2008:2073   */\n      swap1\n      pop\n        /* \"#utility.yul\":1953:2079   */\n      swap2\n      swap1\n      pop\n      jump\t// out\n        /* \"#utility.yul\":2085:2181   */\n    tag_285:\n        /* \"#utility.yul\":2122:2129   */\n      0x00\n        /* \"#utility.yul\":2151:2175   */\n      tag_387\n        /* \"#utility.yul\":2169:2174   */\n      dup3\n        /* \"#utility.yul\":2151:2175   */\n      tag_284\n      jump\t// in\n    tag_387:\n        /* \"#utility.yul\":2140:2175   */\n      swap1\n      pop\n        /* \"#utility.yul\":2085:2181   */\n      swap2\n      swap1\n      pop\n      jump\t// out\n        /* \"#utility.yul\":2187:2309   */\n    tag_286:\n        /* \"#utility.yul\":2260:2284   */\n      tag_389\n        /* \"#utility.yul\":2278:2283   */\n      dup2\n        /* \"#utility.yul\":2260:2284   */\n      tag_285\n      jump\t// in\n    tag_389:\n        /* \"#utility.yul\":2253:2258   */\n      dup2\n        /* \"#utility.yul\":2250:2285   */\n      eq\n        /* \"#utility.yul\":2240:2303   */\n      tag_390\n      jumpi\n        /* \"#utility.yul\":2299:2300   */\n      0x00\n        /* \"#utility.yul\":2296:2297   */\n      dup1\n        /* \"#utility.yul\":2289:2301   */\n      revert\n        /* \"#utility.yul\":2240:2303   */\n    tag_390:\n        /* \"#utility.yul\":2187:2309   */\n      pop\n      jump\t// out\n        /* \"#utility.yul\":2315:2454   */\n    tag_287:\n        /* \"#utility.yul\":2361:2366   */\n      0x00\n        /* \"#utility.yul\":2399:2405   */\n      dup2\n        /* \"#utility.yul\":2386:2406   */\n      calldataload\n        /* \"#utility.yul\":2377:2406   */\n      swap1\n      pop\n        /* \"#utility.yul\":2415:2448   */\n      tag_392\n        /* \"#utility.yul\":2442:2447   */\n      dup2\n        /* \"#utility.yul\":2415:2448   */\n      tag_286\n      jump\t// in\n    tag_392:\n        /* \"#utility.yul\":2315:2454   */\n      swap3\n      swap2\n      pop\n      pop\n      jump\t// out\n        /* \"#utility.yul\":2460:2789   */\n    tag_40:\n        /* \"#utility.yul\":2519:2525   */\n      0x00\n        /* \"#utility.yul\":2568:2570   */\n      0x20\n        /* \"#utility.yul\":2556:2565   */\n      dup3\n        /* \"#utility.yul\":2547:2554   */\n      dup5\n        /* \"#utility.yul\":2543:2566   */\n      sub\n        /* \"#utility.yul\":2539:2571   */\n      slt\n        /* \"#utility.yul\":2536:2655   */\n      iszero\n      tag_394\n      jumpi\n        /* \"#utility.yul\":2574:2653   */\n      tag_395\n      tag_275\n      jump\t// in\n    tag_395:\n        /* \"#utility.yul\":2536:2655   */\n    tag_394:\n        /* \"#utility.yul\":2694:2695   */\n      0x00\n        /* \"#utility.yul\":2719:2772   */\n      tag_396\n        /* \"#utility.yul\":2764:2771   */\n      dup5\n        /* \"#utility.yul\":2755:2761   */\n      dup3\n        /* \"#utility.yul\":2744:2753   */\n      dup6\n        /* \"#utility.yul\":2740:2762   */\n      add\n        /* \"#utility.yul\":2719:2772   */\n      tag_287\n      jump\t// in\n    tag_396:\n        /* \"#utility.yul\":2709:2772   */\n      swap2\n      pop\n        /* \"#utility.yul\":2665:2782   */\n      pop\n        /* \"#utility.yul\":2460:2789   */\n      swap3\n      swap2\n      pop\n      pop\n      jump\t// out\n        /* \"#utility.yul\":2795:2872   */\n    tag_288:\n        /* \"#utility.yul\":2832:2839   */\n      0x00\n        /* \"#utility.yul\":2861:2866   */\n      dup2\n        /* \"#utility.yul\":2850:2866   */\n      swap1\n      pop\n        /* \"#utility.yul\":2795:2872   */\n      swap2\n      swap1\n      pop\n      jump\t// out\n        /* \"#utility.yul\":2878:3000   */\n    tag_289:\n        /* \"#utility.yul\":2951:2975   */\n      tag_399\n        /* \"#utility.yul\":2969:2974   */\n      dup2\n        /* \"#utility.yul\":2951:2975   */\n      tag_288\n      jump\t// in\n    tag_399:\n        /* \"#utility.yul\":2944:2949   */\n      dup2\n        /* \"#utility.yul\":2941:2976   */\n      eq\n        /* \"#utility.yul\":2931:2994   */\n      tag_400\n      jumpi\n        /* \"#utility.yul\":2990:2991   */\n      0x00\n        /* \"#utility.yul\":2987:2988   */\n      dup1\n        /* \"#utility.yul\":2980:2992   */\n      revert\n        /* \"#utility.yul\":2931:2994   */\n    tag_400:\n        /* \"#utility.yul\":2878:3000   */\n      pop\n      jump\t// out\n        /* \"#utility.yul\":3006:3145   */\n    tag_290:\n        /* \"#utility.yul\":3052:3057   */\n      0x00\n        /* \"#utility.yul\":3090:3096   */\n      dup2\n        /* \"#utility.yul\":3077:3097   */\n      calldataload\n        /* \"#utility.yul\":3068:3097   */\n      swap1\n      pop\n        /* \"#utility.yul\":3106:3139   */\n      tag_402\n        /* \"#utility.yul\":3133:3138   */\n      dup2\n        /* \"#utility.yul\":3106:3139   */\n      tag_289\n      jump\t// in\n    tag_402:\n        /* \"#utility.yul\":3006:3145   */\n      swap3\n      swap2\n      pop\n      pop\n      jump\t// out\n        /* \"#utility.yul\":3151:3268   */\n    tag_291:\n        /* \"#utility.yul\":3260:3261   */\n      0x00\n        /* \"#utility.yul\":3257:3258   */\n      dup1\n        /* \"#utility.yul\":3250:3262   */\n      revert\n        /* \"#utility.yul\":3274:3391   */\n    tag_292:\n        /* \"#utility.yul\":3383:3384   */\n      0x00\n        /* \"#utility.yul\":3380:3381   */\n      dup1\n        /* \"#utility.yul\":3373:3385   */\n      revert\n        /* \"#utility.yul\":3397:3499   */\n    tag_293:\n        /* \"#utility.yul\":3438:3444   */\n      0x00\n        /* \"#utility.yul\":3489:3491   */\n      0x1f\n        /* \"#utility.yul\":3485:3492   */\n      not\n        /* \"#utility.yul\":3480:3482   */\n      0x1f\n        /* \"#utility.yul\":3473:3478   */\n      dup4\n        /* \"#utility.yul\":3469:3483   */\n      add\n        /* \"#utility.yul\":3465:3493   */\n      and\n        /* \"#utility.yul\":3455:3493   */\n      swap1\n      pop\n        /* \"#utility.yul\":3397:3499   */\n      swap2\n      swap1\n      pop\n      jump\t// out\n        /* \"#utility.yul\":3505:3685   */\n    tag_294:\n        /* \"#utility.yul\":3553:3630   */\n      0x4e487b7100000000000000000000000000000000000000000000000000000000\n        /* \"#utility.yul\":3550:3551   */\n      0x00\n        /* \"#utility.yul\":3543:3631   */\n      mstore\n        /* \"#utility.yul\":3650:3654   */\n      0x41\n        /* \"#utility.yul\":3647:3648   */\n      0x04\n        /* \"#utility.yul\":3640:3655   */\n      mstore\n        /* \"#utility.yul\":3674:3678   */\n      0x24\n        /* \"#utility.yul\":3671:3672   */\n      0x00\n        /* \"#utility.yul\":3664:3679   */\n      revert\n        /* \"#utility.yul\":3691:3972   */\n    tag_295:\n        /* \"#utility.yul\":3774:3801   */\n      tag_408\n        /* \"#utility.yul\":3796:3800   */\n      dup3\n        /* \"#utility.yul\":3774:3801   */\n      tag_293\n      jump\t// in\n    tag_408:\n        /* \"#utility.yul\":3766:3772   */\n      dup2\n        /* \"#utility.yul\":3762:3802   */\n      add\n        /* \"#utility.yul\":3904:3910   */\n      dup2\n        /* \"#utility.yul\":3892:3902   */\n      dup2\n        /* \"#utility.yul\":3889:3911   */\n      lt\n        /* \"#utility.yul\":3868:3886   */\n      0xffffffffffffffff\n        /* \"#utility.yul\":3856:3866   */\n      dup3\n        /* \"#utility.yul\":3853:3887   */\n      gt\n        /* \"#utility.yul\":3850:3912   */\n      or\n        /* \"#utility.yul\":3847:3935   */\n      iszero\n      tag_409\n      jumpi\n        /* \"#utility.yul\":3915:3933   */\n      tag_410\n      tag_294\n      jump\t// in\n    tag_410:\n        /* \"#utility.yul\":3847:3935   */\n    tag_409:\n        /* \"#utility.yul\":3955:3965   */\n      dup1\n        /* \"#utility.yul\":3951:3953   */\n      0x40\n        /* \"#utility.yul\":3944:3966   */\n      mstore\n        /* \"#utility.yul\":3734:3972   */\n      pop\n        /* \"#utility.yul\":3691:3972   */\n      pop\n      pop\n      jump\t// out\n        /* \"#utility.yul\":3978:4107   */\n    tag_296:\n        /* \"#utility.yul\":4012:4018   */\n      0x00\n        /* \"#utility.yul\":4039:4059   */\n      tag_412\n      tag_274\n      jump\t// in\n    tag_412:\n        /* \"#utility.yul\":4029:4059   */\n      swap1\n      pop\n        /* \"#utility.yul\":4068:4101   */\n      tag_413\n        /* \"#utility.yul\":4096:4100   */\n      dup3\n        /* \"#utility.yul\":4088:4094   */\n      dup3\n        /* \"#utility.yul\":4068:4101   */\n      tag_295\n      jump\t// in\n    tag_413:\n        /* \"#utility.yul\":3978:4107   */\n      swap2\n      swap1\n      pop\n      jump\t// out\n        /* \"#utility.yul\":4113:4421   */\n    tag_297:\n        /* \"#utility.yul\":4175:4179   */\n      0x00\n        /* \"#utility.yul\":4265:4283   */\n      0xffffffffffffffff\n        /* \"#utility.yul\":4257:4263   */\n      dup3\n        /* \"#utility.yul\":4254:4284   */\n      gt\n        /* \"#utility.yul\":4251:4307   */\n      iszero\n      tag_415\n      jumpi\n        /* \"#utility.yul\":4287:4305   */\n      tag_416\n      tag_294\n      jump\t// in\n    tag_416:\n        /* \"#utility.yul\":4251:4307   */\n    tag_415:\n        /* \"#utility.yul\":4325:4354   */\n      tag_417\n        /* \"#utility.yul\":4347:4353   */\n      dup3\n        /* \"#utility.yul\":4325:4354   */\n      tag_293\n      jump\t// in\n    tag_417:\n        /* \"#utility.yul\":4317:4354   */\n      swap1\n      pop\n        /* \"#utility.yul\":4409:4413   */\n      0x20\n        /* \"#utility.yul\":4403:4407   */\n      dup2\n        /* \"#utility.yul\":4399:4414   */\n      add\n        /* \"#utility.yul\":4391:4414   */\n      swap1\n      pop\n        /* \"#utility.yul\":4113:4421   */\n      swap2\n      swap1\n      pop\n      jump\t// out\n        /* \"#utility.yul\":4427:4575   */\n    tag_298:\n        /* \"#utility.yul\":4525:4531   */\n      dup3\n        /* \"#utility.yul\":4520:4523   */\n      dup2\n        /* \"#utility.yul\":4515:4518   */\n      dup4\n        /* \"#utility.yul\":4502:4532   */\n      calldatacopy\n        /* \"#utility.yul\":4566:4567   */\n      0x00\n        /* \"#utility.yul\":4557:4563   */\n      dup4\n        /* \"#utility.yul\":4552:4555   */\n      dup4\n        /* \"#utility.yul\":4548:4564   */\n      add\n        /* \"#utility.yul\":4541:4568   */\n      mstore\n        /* \"#utility.yul\":4427:4575   */\n      pop\n      pop\n      pop\n      jump\t// out\n        /* \"#utility.yul\":4581:5006   */\n    tag_299:\n        /* \"#utility.yul\":4659:4664   */\n      0x00\n        /* \"#utility.yul\":4684:4750   */\n      tag_420\n        /* \"#utility.yul\":4700:4749   */\n      tag_421\n        /* \"#utility.yul\":4742:4748   */\n      dup5\n        /* \"#utility.yul\":4700:4749   */\n      tag_297\n      jump\t// in\n    tag_421:\n        /* \"#utility.yul\":4684:4750   */\n      tag_296\n      jump\t// in\n    tag_420:\n        /* \"#utility.yul\":4675:4750   */\n      swap1\n      pop\n        /* \"#utility.yul\":4773:4779   */\n      dup3\n        /* \"#utility.yul\":4766:4771   */\n      dup2\n        /* \"#utility.yul\":4759:4780   */\n      mstore\n        /* \"#utility.yul\":4811:4815   */\n      0x20\n        /* \"#utility.yul\":4804:4809   */\n      dup2\n        /* \"#utility.yul\":4800:4816   */\n      add\n        /* \"#utility.yul\":4849:4852   */\n      dup5\n        /* \"#utility.yul\":4840:4846   */\n      dup5\n        /* \"#utility.yul\":4835:4838   */\n      dup5\n        /* \"#utility.yul\":4831:4847   */\n      add\n        /* \"#utility.yul\":4828:4853   */\n      gt\n        /* \"#utility.yul\":4825:4937   */\n      iszero\n      tag_422\n      jumpi\n        /* \"#utility.yul\":4856:4935   */\n      tag_423\n      tag_292\n      jump\t// in\n    tag_423:\n        /* \"#utility.yul\":4825:4937   */\n    tag_422:\n        /* \"#utility.yul\":4946:5000   */\n      tag_424\n        /* \"#utility.yul\":4993:4999   */\n      dup5\n        /* \"#utility.yul\":4988:4991   */\n      dup3\n        /* \"#utility.yul\":4983:4986   */\n      dup6\n        /* \"#utility.yul\":4946:5000   */\n      tag_298\n      jump\t// in\n    tag_424:\n        /* \"#utility.yul\":4665:5006   */\n      pop\n        /* \"#utility.yul\":4581:5006   */\n      swap4\n      swap3\n      pop\n      pop\n      pop\n      jump\t// out\n        /* \"#utility.yul\":5026:5366   */\n    tag_300:\n        /* \"#utility.yul\":5082:5087   */\n      0x00\n        /* \"#utility.yul\":5131:5134   */\n      dup3\n        /* \"#utility.yul\":5124:5128   */\n      0x1f\n        /* \"#utility.yul\":5116:5122   */\n      dup4\n        /* \"#utility.yul\":5112:5129   */\n      add\n        /* \"#utility.yul\":5108:5135   */\n      slt\n        /* \"#utility.yul\":5098:5220   */\n      tag_426\n      jumpi\n        /* \"#utility.yul\":5139:5218   */\n      tag_427\n      tag_291\n      jump\t// in\n    tag_427:\n        /* \"#utility.yul\":5098:5220   */\n    tag_426:\n        /* \"#utility.yul\":5256:5262   */\n      dup2\n        /* \"#utility.yul\":5243:5263   */\n      calldataload\n        /* \"#utility.yul\":5281:5360   */\n      tag_428\n        /* \"#utility.yul\":5356:5359   */\n      dup5\n        /* \"#utility.yul\":5348:5354   */\n      dup3\n        /* \"#utility.yul\":5341:5345   */\n      0x20\n        /* \"#utility.yul\":5333:5339   */\n      dup7\n        /* \"#utility.yul\":5329:5346   */\n      add\n        /* \"#utility.yul\":5281:5360   */\n      tag_299\n      jump\t// in\n    tag_428:\n        /* \"#utility.yul\":5272:5360   */\n      swap2\n      pop\n        /* \"#utility.yul\":5088:5366   */\n      pop\n        /* \"#utility.yul\":5026:5366   */\n      swap3\n      swap2\n      pop\n      pop\n      jump\t// out\n        /* \"#utility.yul\":5372:6026   */\n    tag_44:\n        /* \"#utility.yul\":5450:5456   */\n      0x00\n        /* \"#utility.yul\":5458:5464   */\n      dup1\n        /* \"#utility.yul\":5507:5509   */\n      0x40\n        /* \"#utility.yul\":5495:5504   */\n      dup4\n        /* \"#utility.yul\":5486:5493   */\n      dup6\n        /* \"#utility.yul\":5482:5505   */\n      sub\n        /* \"#utility.yul\":5478:5510   */\n      slt\n        /* \"#utility.yul\":5475:5594   */\n      iszero\n      tag_430\n      jumpi\n        /* \"#utility.yul\":5513:5592   */\n      tag_431\n      tag_275\n      jump\t// in\n    tag_431:\n        /* \"#utility.yul\":5475:5594   */\n    tag_430:\n        /* \"#utility.yul\":5633:5634   */\n      0x00\n        /* \"#utility.yul\":5658:5711   */\n      tag_432\n        /* \"#utility.yul\":5703:5710   */\n      dup6\n        /* \"#utility.yul\":5694:5700   */\n      dup3\n        /* \"#utility.yul\":5683:5692   */\n      dup7\n        /* \"#utility.yul\":5679:5701   */\n      add\n        /* \"#utility.yul\":5658:5711   */\n      tag_290\n      jump\t// in\n    tag_432:\n        /* \"#utility.yul\":5648:5711   */\n      swap3\n      pop\n        /* \"#utility.yul\":5604:5721   */\n      pop\n        /* \"#utility.yul\":5788:5790   */\n      0x20\n        /* \"#utility.yul\":5777:5786   */\n      dup4\n        /* \"#utility.yul\":5773:5791   */\n      add\n        /* \"#utility.yul\":5760:5792   */\n      calldataload\n        /* \"#utility.yul\":5819:5837   */\n      0xffffffffffffffff\n        /* \"#utility.yul\":5811:5817   */\n      dup2\n        /* \"#utility.yul\":5808:5838   */\n      gt\n        /* \"#utility.yul\":5805:5922   */\n      iszero\n      tag_433\n      jumpi\n        /* \"#utility.yul\":5841:5920   */\n      tag_434\n      tag_276\n      jump\t// in\n    tag_434:\n        /* \"#utility.yul\":5805:5922   */\n    tag_433:\n        /* \"#utility.yul\":5946:6009   */\n      tag_435\n        /* \"#utility.yul\":6001:6008   */\n      dup6\n        /* \"#utility.yul\":5992:5998   */\n      dup3\n        /* \"#utility.yul\":5981:5990   */\n      dup7\n        /* \"#utility.yul\":5977:5999   */\n      add\n        /* \"#utility.yul\":5946:6009   */\n      tag_300\n      jump\t// in\n    tag_435:\n        /* \"#utility.yul\":5936:6009   */\n      swap2\n      pop\n        /* \"#utility.yul\":5731:6019   */\n      pop\n        /* \"#utility.yul\":5372:6026   */\n      swap3\n      pop\n      swap3\n      swap1\n      pop\n      jump\t// out\n        /* \"#utility.yul\":6032:6154   */\n    tag_301:\n        /* \"#utility.yul\":6105:6129   */\n      tag_437\n        /* \"#utility.yul\":6123:6128   */\n      dup2\n        /* \"#utility.yul\":6105:6129   */\n      tag_282\n      jump\t// in\n    tag_437:\n        /* \"#utility.yul\":6098:6103   */\n      dup2\n        /* \"#utility.yul\":6095:6130   */\n      eq\n        /* \"#utility.yul\":6085:6148   */\n      tag_438\n      jumpi\n        /* \"#utility.yul\":6144:6145   */\n      0x00\n        /* \"#utility.yul\":6141:6142   */\n      dup1\n        /* \"#utility.yul\":6134:6146   */\n      revert\n        /* \"#utility.yul\":6085:6148   */\n    tag_438:\n        /* \"#utility.yul\":6032:6154   */\n      pop\n      jump\t// out\n        /* \"#utility.yul\":6160:6299   */\n    tag_302:\n        /* \"#utility.yul\":6206:6211   */\n      0x00\n        /* \"#utility.yul\":6244:6250   */\n      dup2\n        /* \"#utility.yul\":6231:6251   */\n      calldataload\n        /* \"#utility.yul\":6222:6251   */\n      swap1\n      pop\n        /* \"#utility.yul\":6260:6293   */\n      tag_440\n        /* \"#utility.yul\":6287:6292   */\n      dup2\n        /* \"#utility.yul\":6260:6293   */\n      tag_301\n      jump\t// in\n    tag_440:\n        /* \"#utility.yul\":6160:6299   */\n      swap3\n      swap2\n      pop\n      pop\n      jump\t// out\n        /* \"#utility.yul\":6305:6634   */\n    tag_48:\n        /* \"#utility.yul\":6364:6370   */\n      0x00\n        /* \"#utility.yul\":6413:6415   */\n      0x20\n        /* \"#utility.yul\":6401:6410   */\n      dup3\n        /* \"#utility.yul\":6392:6399   */\n      dup5\n        /* \"#utility.yul\":6388:6411   */\n      sub\n        /* \"#utility.yul\":6384:6416   */\n      slt\n        /* \"#utility.yul\":6381:6500   */\n      iszero\n      tag_442\n      jumpi\n        /* \"#utility.yul\":6419:6498   */\n      tag_443\n      tag_275\n      jump\t// in\n    tag_443:\n        /* \"#utility.yul\":6381:6500   */\n    tag_442:\n        /* \"#utility.yul\":6539:6540   */\n      0x00\n        /* \"#utility.yul\":6564:6617   */\n      tag_444\n        /* \"#utility.yul\":6609:6616   */\n      dup5\n        /* \"#utility.yul\":6600:6606   */\n      dup3\n        /* \"#utility.yul\":6589:6598   */\n      dup6\n        /* \"#utility.yul\":6585:6607   */\n      add\n        /* \"#utility.yul\":6564:6617   */\n      tag_302\n      jump\t// in\n    tag_444:\n        /* \"#utility.yul\":6554:6617   */\n      swap2\n      pop\n        /* \"#utility.yul\":6510:6627   */\n      pop\n        /* \"#utility.yul\":6305:6634   */\n      swap3\n      swap2\n      pop\n      pop\n      jump\t// out\n        /* \"#utility.yul\":6640:7114   */\n    tag_53:\n        /* \"#utility.yul\":6708:6714   */\n      0x00\n        /* \"#utility.yul\":6716:6722   */\n      dup1\n        /* \"#utility.yul\":6765:6767   */\n      0x40\n        /* \"#utility.yul\":6753:6762   */\n      dup4\n        /* \"#utility.yul\":6744:6751   */\n      dup6\n        /* \"#utility.yul\":6740:6763   */\n      sub\n        /* \"#utility.yul\":6736:6768   */\n      slt\n        /* \"#utility.yul\":6733:6852   */\n      iszero\n      tag_446\n      jumpi\n        /* \"#utility.yul\":6771:6850   */\n      tag_447\n      tag_275\n      jump\t// in\n    tag_447:\n        /* \"#utility.yul\":6733:6852   */\n    tag_446:\n        /* \"#utility.yul\":6891:6892   */\n      0x00\n        /* \"#utility.yul\":6916:6969   */\n      tag_448\n        /* \"#utility.yul\":6961:6968   */\n      dup6\n        /* \"#utility.yul\":6952:6958   */\n      dup3\n        /* \"#utility.yul\":6941:6950   */\n      dup7\n        /* \"#utility.yul\":6937:6959   */\n      add\n        /* \"#utility.yul\":6916:6969   */\n      tag_302\n      jump\t// in\n    tag_448:\n        /* \"#utility.yul\":6906:6969   */\n      swap3\n      pop\n        /* \"#utility.yul\":6862:6979   */\n      pop\n        /* \"#utility.yul\":7018:7020   */\n      0x20\n        /* \"#utility.yul\":7044:7097   */\n      tag_449\n        /* \"#utility.yul\":7089:7096   */\n      dup6\n        /* \"#utility.yul\":7080:7086   */\n      dup3\n        /* \"#utility.yul\":7069:7078   */\n      dup7\n        /* \"#utility.yul\":7065:7087   */\n      add\n        /* \"#utility.yul\":7044:7097   */\n      tag_287\n      jump\t// in\n    tag_449:\n        /* \"#utility.yul\":7034:7097   */\n      swap2\n      pop\n        /* \"#utility.yul\":6989:7107   */\n      pop\n        /* \"#utility.yul\":6640:7114   */\n      swap3\n      pop\n      swap3\n      swap1\n      pop\n      jump\t// out\n        /* \"#utility.yul\":7120:7238   */\n    tag_303:\n        /* \"#utility.yul\":7207:7231   */\n      tag_451\n        /* \"#utility.yul\":7225:7230   */\n      dup2\n        /* \"#utility.yul\":7207:7231   */\n      tag_288\n      jump\t// in\n    tag_451:\n        /* \"#utility.yul\":7202:7205   */\n      dup3\n        /* \"#utility.yul\":7195:7232   */\n      mstore\n        /* \"#utility.yul\":7120:7238   */\n      pop\n      pop\n      jump\t// out\n        /* \"#utility.yul\":7244:7466   */\n    tag_61:\n        /* \"#utility.yul\":7337:7341   */\n      0x00\n        /* \"#utility.yul\":7375:7377   */\n      0x20\n        /* \"#utility.yul\":7364:7373   */\n      dup3\n        /* \"#utility.yul\":7360:7378   */\n      add\n        /* \"#utility.yul\":7352:7378   */\n      swap1\n      pop\n        /* \"#utility.yul\":7388:7459   */\n      tag_453\n        /* \"#utility.yul\":7456:7457   */\n      0x00\n        /* \"#utility.yul\":7445:7454   */\n      dup4\n        /* \"#utility.yul\":7441:7458   */\n      add\n        /* \"#utility.yul\":7432:7438   */\n      dup5\n        /* \"#utility.yul\":7388:7459   */\n      tag_303\n      jump\t// in\n    tag_453:\n        /* \"#utility.yul\":7244:7466   */\n      swap3\n      swap2\n      pop\n      pop\n      jump\t// out\n        /* \"#utility.yul\":7472:7588   */\n    tag_304:\n        /* \"#utility.yul\":7542:7563   */\n      tag_455\n        /* \"#utility.yul\":7557:7562   */\n      dup2\n        /* \"#utility.yul\":7542:7563   */\n      tag_280\n      jump\t// in\n    tag_455:\n        /* \"#utility.yul\":7535:7540   */\n      dup2\n        /* \"#utility.yul\":7532:7564   */\n      eq\n        /* \"#utility.yul\":7522:7582   */\n      tag_456\n      jumpi\n        /* \"#utility.yul\":7578:7579   */\n      0x00\n        /* \"#utility.yul\":7575:7576   */\n      dup1\n        /* \"#utility.yul\":7568:7580   */\n      revert\n        /* \"#utility.yul\":7522:7582   */\n    tag_456:\n        /* \"#utility.yul\":7472:7588   */\n      pop\n      jump\t// out\n        /* \"#utility.yul\":7594:7727   */\n    tag_305:\n        /* \"#utility.yul\":7637:7642   */\n      0x00\n        /* \"#utility.yul\":7675:7681   */\n      dup2\n        /* \"#utility.yul\":7662:7682   */\n      calldataload\n        /* \"#utility.yul\":7653:7682   */\n      swap1\n      pop\n        /* \"#utility.yul\":7691:7721   */\n      tag_458\n        /* \"#utility.yul\":7715:7720   */\n      dup2\n        /* \"#utility.yul\":7691:7721   */\n      tag_304\n      jump\t// in\n    tag_458:\n        /* \"#utility.yul\":7594:7727   */\n      swap3\n      swap2\n      pop\n      pop\n      jump\t// out\n        /* \"#utility.yul\":7733:9830   */\n    tag_64:\n        /* \"#utility.yul\":7893:7899   */\n      0x00\n        /* \"#utility.yul\":7901:7907   */\n      dup1\n        /* \"#utility.yul\":7909:7915   */\n      0x00\n        /* \"#utility.yul\":7917:7923   */\n      dup1\n        /* \"#utility.yul\":7925:7931   */\n      0x00\n        /* \"#utility.yul\":7933:7939   */\n      dup1\n        /* \"#utility.yul\":7941:7947   */\n      0x00\n        /* \"#utility.yul\":7990:7993   */\n      0xe0\n        /* \"#utility.yul\":7978:7987   */\n      dup9\n        /* \"#utility.yul\":7969:7976   */\n      dup11\n        /* \"#utility.yul\":7965:7988   */\n      sub\n        /* \"#utility.yul\":7961:7994   */\n      slt\n        /* \"#utility.yul\":7958:8078   */\n      iszero\n      tag_460\n      jumpi\n        /* \"#utility.yul\":7997:8076   */\n      tag_461\n      tag_275\n      jump\t// in\n    tag_461:\n        /* \"#utility.yul\":7958:8078   */\n    tag_460:\n        /* \"#utility.yul\":8145:8146   */\n      0x00\n        /* \"#utility.yul\":8134:8143   */\n      dup9\n        /* \"#utility.yul\":8130:8147   */\n      add\n        /* \"#utility.yul\":8117:8148   */\n      calldataload\n        /* \"#utility.yul\":8175:8193   */\n      0xffffffffffffffff\n        /* \"#utility.yul\":8167:8173   */\n      dup2\n        /* \"#utility.yul\":8164:8194   */\n      gt\n        /* \"#utility.yul\":8161:8278   */\n      iszero\n      tag_462\n      jumpi\n        /* \"#utility.yul\":8197:8276   */\n      tag_463\n      tag_276\n      jump\t// in\n    tag_463:\n        /* \"#utility.yul\":8161:8278   */\n    tag_462:\n        /* \"#utility.yul\":8302:8365   */\n      tag_464\n        /* \"#utility.yul\":8357:8364   */\n      dup11\n        /* \"#utility.yul\":8348:8354   */\n      dup3\n        /* \"#utility.yul\":8337:8346   */\n      dup12\n        /* \"#utility.yul\":8333:8355   */\n      add\n        /* \"#utility.yul\":8302:8365   */\n      tag_300\n      jump\t// in\n    tag_464:\n        /* \"#utility.yul\":8292:8365   */\n      swap8\n      pop\n        /* \"#utility.yul\":8088:8375   */\n      pop\n        /* \"#utility.yul\":8442:8444   */\n      0x20\n        /* \"#utility.yul\":8431:8440   */\n      dup9\n        /* \"#utility.yul\":8427:8445   */\n      add\n        /* \"#utility.yul\":8414:8446   */\n      calldataload\n        /* \"#utility.yul\":8473:8491   */\n      0xffffffffffffffff\n        /* \"#utility.yul\":8465:8471   */\n      dup2\n        /* \"#utility.yul\":8462:8492   */\n      gt\n        /* \"#utility.yul\":8459:8576   */\n      iszero\n      tag_465\n      jumpi\n        /* \"#utility.yul\":8495:8574   */\n      tag_466\n      tag_276\n      jump\t// in\n    tag_466:\n        /* \"#utility.yul\":8459:8576   */\n    tag_465:\n        /* \"#utility.yul\":8600:8663   */\n      tag_467\n        /* \"#utility.yul\":8655:8662   */\n      dup11\n        /* \"#utility.yul\":8646:8652   */\n      dup3\n        /* \"#utility.yul\":8635:8644   */\n      dup12\n        /* \"#utility.yul\":8631:8653   */\n      add\n        /* \"#utility.yul\":8600:8663   */\n      tag_300\n      jump\t// in\n    tag_467:\n        /* \"#utility.yul\":8590:8663   */\n      swap7\n      pop\n        /* \"#utility.yul\":8385:8673   */\n      pop\n        /* \"#utility.yul\":8740:8742   */\n      0x40\n        /* \"#utility.yul\":8729:8738   */\n      dup9\n        /* \"#utility.yul\":8725:8743   */\n      add\n        /* \"#utility.yul\":8712:8744   */\n      calldataload\n        /* \"#utility.yul\":8771:8789   */\n      0xffffffffffffffff\n        /* \"#utility.yul\":8763:8769   */\n      dup2\n        /* \"#utility.yul\":8760:8790   */\n      gt\n        /* \"#utility.yul\":8757:8874   */\n      iszero\n      tag_468\n      jumpi\n        /* \"#utility.yul\":8793:8872   */\n      tag_469\n      tag_276\n      jump\t// in\n    tag_469:\n        /* \"#utility.yul\":8757:8874   */\n    tag_468:\n        /* \"#utility.yul\":8898:8961   */\n      tag_470\n        /* \"#utility.yul\":8953:8960   */\n      dup11\n        /* \"#utility.yul\":8944:8950   */\n      dup3\n        /* \"#utility.yul\":8933:8942   */\n      dup12\n        /* \"#utility.yul\":8929:8951   */\n      add\n        /* \"#utility.yul\":8898:8961   */\n      tag_300\n      jump\t// in\n    tag_470:\n        /* \"#utility.yul\":8888:8961   */\n      swap6\n      pop\n        /* \"#utility.yul\":8683:8971   */\n      pop\n        /* \"#utility.yul\":9010:9012   */\n      0x60\n        /* \"#utility.yul\":9036:9089   */\n      tag_471\n        /* \"#utility.yul\":9081:9088   */\n      dup11\n        /* \"#utility.yul\":9072:9078   */\n      dup3\n        /* \"#utility.yul\":9061:9070   */\n      dup12\n        /* \"#utility.yul\":9057:9079   */\n      add\n        /* \"#utility.yul\":9036:9089   */\n      tag_290\n      jump\t// in\n    tag_471:\n        /* \"#utility.yul\":9026:9089   */\n      swap5\n      pop\n        /* \"#utility.yul\":8981:9099   */\n      pop\n        /* \"#utility.yul\":9166:9169   */\n      0x80\n        /* \"#utility.yul\":9155:9164   */\n      dup9\n        /* \"#utility.yul\":9151:9170   */\n      add\n        /* \"#utility.yul\":9138:9171   */\n      calldataload\n        /* \"#utility.yul\":9198:9216   */\n      0xffffffffffffffff\n        /* \"#utility.yul\":9190:9196   */\n      dup2\n        /* \"#utility.yul\":9187:9217   */\n      gt\n        /* \"#utility.yul\":9184:9301   */\n      iszero\n      tag_472\n      jumpi\n        /* \"#utility.yul\":9220:9299   */\n      tag_473\n      tag_276\n      jump\t// in\n    tag_473:\n        /* \"#utility.yul\":9184:9301   */\n    tag_472:\n        /* \"#utility.yul\":9325:9388   */\n      tag_474\n        /* \"#utility.yul\":9380:9387   */\n      dup11\n        /* \"#utility.yul\":9371:9377   */\n      dup3\n        /* \"#utility.yul\":9360:9369   */\n      dup12\n        /* \"#utility.yul\":9356:9378   */\n      add\n        /* \"#utility.yul\":9325:9388   */\n      tag_300\n      jump\t// in\n    tag_474:\n        /* \"#utility.yul\":9315:9388   */\n      swap4\n      pop\n        /* \"#utility.yul\":9109:9398   */\n      pop\n        /* \"#utility.yul\":9465:9468   */\n      0xa0\n        /* \"#utility.yul\":9454:9463   */\n      dup9\n        /* \"#utility.yul\":9450:9469   */\n      add\n        /* \"#utility.yul\":9437:9470   */\n      calldataload\n        /* \"#utility.yul\":9497:9515   */\n      0xffffffffffffffff\n        /* \"#utility.yul\":9489:9495   */\n      dup2\n        /* \"#utility.yul\":9486:9516   */\n      gt\n        /* \"#utility.yul\":9483:9600   */\n      iszero\n      tag_475\n      jumpi\n        /* \"#utility.yul\":9519:9598   */\n      tag_476\n      tag_276\n      jump\t// in\n    tag_476:\n        /* \"#utility.yul\":9483:9600   */\n    tag_475:\n        /* \"#utility.yul\":9624:9687   */\n      tag_477\n        /* \"#utility.yul\":9679:9686   */\n      dup11\n        /* \"#utility.yul\":9670:9676   */\n      dup3\n        /* \"#utility.yul\":9659:9668   */\n      dup12\n        /* \"#utility.yul\":9655:9677   */\n      add\n        /* \"#utility.yul\":9624:9687   */\n      tag_300\n      jump\t// in\n    tag_477:\n        /* \"#utility.yul\":9614:9687   */\n      swap3\n      pop\n        /* \"#utility.yul\":9408:9697   */\n      pop\n        /* \"#utility.yul\":9736:9739   */\n      0xc0\n        /* \"#utility.yul\":9763:9813   */\n      tag_478\n        /* \"#utility.yul\":9805:9812   */\n      dup11\n        /* \"#utility.yul\":9796:9802   */\n      dup3\n        /* \"#utility.yul\":9785:9794   */\n      dup12\n        /* \"#utility.yul\":9781:9803   */\n      add\n        /* \"#utility.yul\":9763:9813   */\n      tag_305\n      jump\t// in\n    tag_478:\n        /* \"#utility.yul\":9753:9813   */\n      swap2\n      pop\n        /* \"#utility.yul\":9707:9823   */\n      pop\n        /* \"#utility.yul\":7733:9830   */\n      swap3\n      swap6\n      swap9\n      swap2\n      swap5\n      swap8\n      pop\n      swap3\n      swap6\n      pop\n      jump\t// out\n        /* \"#utility.yul\":9836:10165   */\n    tag_76:\n        /* \"#utility.yul\":9895:9901   */\n      0x00\n        /* \"#utility.yul\":9944:9946   */\n      0x20\n        /* \"#utility.yul\":9932:9941   */\n      dup3\n        /* \"#utility.yul\":9923:9930   */\n      dup5\n        /* \"#utility.yul\":9919:9942   */\n      sub\n        /* \"#utility.yul\":9915:9947   */\n      slt\n        /* \"#utility.yul\":9912:10031   */\n      iszero\n      tag_480\n      jumpi\n        /* \"#utility.yul\":9950:10029   */\n      tag_481\n      tag_275\n      jump\t// in\n    tag_481:\n        /* \"#utility.yul\":9912:10031   */\n    tag_480:\n        /* \"#utility.yul\":10070:10071   */\n      0x00\n        /* \"#utility.yul\":10095:10148   */\n      tag_482\n        /* \"#utility.yul\":10140:10147   */\n      dup5\n        /* \"#utility.yul\":10131:10137   */\n      dup3\n        /* \"#utility.yul\":10120:10129   */\n      dup6\n        /* \"#utility.yul\":10116:10138   */\n      add\n        /* \"#utility.yul\":10095:10148   */\n      tag_290\n      jump\t// in\n    tag_482:\n        /* \"#utility.yul\":10085:10148   */\n      swap2\n      pop\n        /* \"#utility.yul\":10041:10158   */\n      pop\n        /* \"#utility.yul\":9836:10165   */\n      swap3\n      swap2\n      pop\n      pop\n      jump\t// out\n        /* \"#utility.yul\":10171:10270   */\n    tag_306:\n        /* \"#utility.yul\":10223:10229   */\n      0x00\n        /* \"#utility.yul\":10257:10262   */\n      dup2\n        /* \"#utility.yul\":10251:10263   */\n      mload\n        /* \"#utility.yul\":10241:10263   */\n      swap1\n      pop\n        /* \"#utility.yul\":10171:10270   */\n      swap2\n      swap1\n      pop\n      jump\t// out\n        /* \"#utility.yul\":10276:10445   */\n    tag_307:\n        /* \"#utility.yul\":10360:10371   */\n      0x00\n        /* \"#utility.yul\":10394:10400   */\n      dup3\n        /* \"#utility.yul\":10389:10392   */\n      dup3\n        /* \"#utility.yul\":10382:10401   */\n      mstore\n        /* \"#utility.yul\":10434:10438   */\n      0x20\n        /* \"#utility.yul\":10429:10432   */\n      dup3\n        /* \"#utility.yul\":10425:10439   */\n      add\n        /* \"#utility.yul\":10410:10439   */\n      swap1\n      pop\n        /* \"#utility.yul\":10276:10445   */\n      swap3\n      swap2\n      pop\n      pop\n      jump\t// out\n        /* \"#utility.yul\":10451:10590   */\n    tag_308:\n        /* \"#utility.yul\":10540:10546   */\n      dup3\n        /* \"#utility.yul\":10535:10538   */\n      dup2\n        /* \"#utility.yul\":10530:10533   */\n      dup4\n        /* \"#utility.yul\":10524:10547   */\n      mcopy\n        /* \"#utility.yul\":10581:10582   */\n      0x00\n        /* \"#utility.yul\":10572:10578   */\n      dup4\n        /* \"#utility.yul\":10567:10570   */\n      dup4\n        /* \"#utility.yul\":10563:10579   */\n      add\n        /* \"#utility.yul\":10556:10583   */\n      mstore\n        /* \"#utility.yul\":10451:10590   */\n      pop\n      pop\n      pop\n      jump\t// out\n        /* \"#utility.yul\":10596:10973   */\n    tag_309:\n        /* \"#utility.yul\":10684:10687   */\n      0x00\n        /* \"#utility.yul\":10712:10751   */\n      tag_487\n        /* \"#utility.yul\":10745:10750   */\n      dup3\n        /* \"#utility.yul\":10712:10751   */\n      tag_306\n      jump\t// in\n    tag_487:\n        /* \"#utility.yul\":10767:10838   */\n      tag_488\n        /* \"#utility.yul\":10831:10837   */\n      dup2\n        /* \"#utility.yul\":10826:10829   */\n      dup6\n        /* \"#utility.yul\":10767:10838   */\n      tag_307\n      jump\t// in\n    tag_488:\n        /* \"#utility.yul\":10760:10838   */\n      swap4\n      pop\n        /* \"#utility.yul\":10847:10912   */\n      tag_489\n        /* \"#utility.yul\":10905:10911   */\n      dup2\n        /* \"#utility.yul\":10900:10903   */\n      dup6\n        /* \"#utility.yul\":10893:10897   */\n      0x20\n        /* \"#utility.yul\":10886:10891   */\n      dup7\n        /* \"#utility.yul\":10882:10898   */\n      add\n        /* \"#utility.yul\":10847:10912   */\n      tag_308\n      jump\t// in\n    tag_489:\n        /* \"#utility.yul\":10937:10966   */\n      tag_490\n        /* \"#utility.yul\":10959:10965   */\n      dup2\n        /* \"#utility.yul\":10937:10966   */\n      tag_293\n      jump\t// in\n    tag_490:\n        /* \"#utility.yul\":10932:10935   */\n      dup5\n        /* \"#utility.yul\":10928:10967   */\n      add\n        /* \"#utility.yul\":10921:10967   */\n      swap2\n      pop\n        /* \"#utility.yul\":10688:10973   */\n      pop\n        /* \"#utility.yul\":10596:10973   */\n      swap3\n      swap2\n      pop\n      pop\n      jump\t// out\n        /* \"#utility.yul\":10979:11138   */\n    tag_310:\n        /* \"#utility.yul\":11053:11064   */\n      0x00\n        /* \"#utility.yul\":11087:11093   */\n      dup3\n        /* \"#utility.yul\":11082:11085   */\n      dup3\n        /* \"#utility.yul\":11075:11094   */\n      mstore\n        /* \"#utility.yul\":11127:11131   */\n      0x20\n        /* \"#utility.yul\":11122:11125   */\n      dup3\n        /* \"#utility.yul\":11118:11132   */\n      add\n        /* \"#utility.yul\":11103:11132   */\n      swap1\n      pop\n        /* \"#utility.yul\":10979:11138   */\n      swap3\n      swap2\n      pop\n      pop\n      jump\t// out\n        /* \"#utility.yul\":11144:11501   */\n    tag_311:\n        /* \"#utility.yul\":11222:11225   */\n      0x00\n        /* \"#utility.yul\":11250:11289   */\n      tag_493\n        /* \"#utility.yul\":11283:11288   */\n      dup3\n        /* \"#utility.yul\":11250:11289   */\n      tag_306\n      jump\t// in\n    tag_493:\n        /* \"#utility.yul\":11305:11366   */\n      tag_494\n        /* \"#utility.yul\":11359:11365   */\n      dup2\n        /* \"#utility.yul\":11354:11357   */\n      dup6\n        /* \"#utility.yul\":11305:11366   */\n      tag_310\n      jump\t// in\n    tag_494:\n        /* \"#utility.yul\":11298:11366   */\n      swap4\n      pop\n        /* \"#utility.yul\":11375:11440   */\n      tag_495\n        /* \"#utility.yul\":11433:11439   */\n      dup2\n        /* \"#utility.yul\":11428:11431   */\n      dup6\n        /* \"#utility.yul\":11421:11425   */\n      0x20\n        /* \"#utility.yul\":11414:11419   */\n      dup7\n        /* \"#utility.yul\":11410:11426   */\n      add\n        /* \"#utility.yul\":11375:11440   */\n      tag_308\n      jump\t// in\n    tag_495:\n        /* \"#utility.yul\":11465:11494   */\n      tag_496\n        /* \"#utility.yul\":11487:11493   */\n      dup2\n        /* \"#utility.yul\":11465:11494   */\n      tag_293\n      jump\t// in\n    tag_496:\n        /* \"#utility.yul\":11460:11463   */\n      dup5\n        /* \"#utility.yul\":11456:11495   */\n      add\n        /* \"#utility.yul\":11449:11495   */\n      swap2\n      pop\n        /* \"#utility.yul\":11226:11501   */\n      pop\n        /* \"#utility.yul\":11144:11501   */\n      swap3\n      swap2\n      pop\n      pop\n      jump\t// out\n        /* \"#utility.yul\":11507:11615   */\n    tag_312:\n        /* \"#utility.yul\":11584:11608   */\n      tag_498\n        /* \"#utility.yul\":11602:11607   */\n      dup2\n        /* \"#utility.yul\":11584:11608   */\n      tag_288\n      jump\t// in\n    tag_498:\n        /* \"#utility.yul\":11579:11582   */\n      dup3\n        /* \"#utility.yul\":11572:11609   */\n      mstore\n        /* \"#utility.yul\":11507:11615   */\n      pop\n      pop\n      jump\t// out\n        /* \"#utility.yul\":11621:11720   */\n    tag_313:\n        /* \"#utility.yul\":11692:11713   */\n      tag_500\n        /* \"#utility.yul\":11707:11712   */\n      dup2\n        /* \"#utility.yul\":11692:11713   */\n      tag_280\n      jump\t// in\n    tag_500:\n        /* \"#utility.yul\":11687:11690   */\n      dup3\n        /* \"#utility.yul\":11680:11714   */\n      mstore\n        /* \"#utility.yul\":11621:11720   */\n      pop\n      pop\n      jump\t// out\n        /* \"#utility.yul\":11798:13178   */\n    tag_314:\n        /* \"#utility.yul\":11917:11920   */\n      0x00\n        /* \"#utility.yul\":11953:11957   */\n      0xc0\n        /* \"#utility.yul\":11948:11951   */\n      dup4\n        /* \"#utility.yul\":11944:11958   */\n      add\n        /* \"#utility.yul\":12040:12044   */\n      0x00\n        /* \"#utility.yul\":12033:12038   */\n      dup4\n        /* \"#utility.yul\":12029:12045   */\n      add\n        /* \"#utility.yul\":12023:12046   */\n      mload\n        /* \"#utility.yul\":12093:12096   */\n      dup5\n        /* \"#utility.yul\":12087:12091   */\n      dup3\n        /* \"#utility.yul\":12083:12097   */\n      sub\n        /* \"#utility.yul\":12076:12080   */\n      0x00\n        /* \"#utility.yul\":12071:12074   */\n      dup7\n        /* \"#utility.yul\":12067:12081   */\n      add\n        /* \"#utility.yul\":12060:12098   */\n      mstore\n        /* \"#utility.yul\":12119:12192   */\n      tag_502\n        /* \"#utility.yul\":12187:12191   */\n      dup3\n        /* \"#utility.yul\":12173:12185   */\n      dup3\n        /* \"#utility.yul\":12119:12192   */\n      tag_311\n      jump\t// in\n    tag_502:\n        /* \"#utility.yul\":12111:12192   */\n      swap2\n      pop\n        /* \"#utility.yul\":11968:12203   */\n      pop\n        /* \"#utility.yul\":12290:12294   */\n      0x20\n        /* \"#utility.yul\":12283:12288   */\n      dup4\n        /* \"#utility.yul\":12279:12295   */\n      add\n        /* \"#utility.yul\":12273:12296   */\n      mload\n        /* \"#utility.yul\":12343:12346   */\n      dup5\n        /* \"#utility.yul\":12337:12341   */\n      dup3\n        /* \"#utility.yul\":12333:12347   */\n      sub\n        /* \"#utility.yul\":12326:12330   */\n      0x20\n        /* \"#utility.yul\":12321:12324   */\n      dup7\n        /* \"#utility.yul\":12317:12331   */\n      add\n        /* \"#utility.yul\":12310:12348   */\n      mstore\n        /* \"#utility.yul\":12369:12442   */\n      tag_503\n        /* \"#utility.yul\":12437:12441   */\n      dup3\n        /* \"#utility.yul\":12423:12435   */\n      dup3\n        /* \"#utility.yul\":12369:12442   */\n      tag_311\n      jump\t// in\n    tag_503:\n        /* \"#utility.yul\":12361:12442   */\n      swap2\n      pop\n        /* \"#utility.yul\":12213:12453   */\n      pop\n        /* \"#utility.yul\":12540:12544   */\n      0x40\n        /* \"#utility.yul\":12533:12538   */\n      dup4\n        /* \"#utility.yul\":12529:12545   */\n      add\n        /* \"#utility.yul\":12523:12546   */\n      mload\n        /* \"#utility.yul\":12559:12622   */\n      tag_504\n        /* \"#utility.yul\":12616:12620   */\n      0x40\n        /* \"#utility.yul\":12611:12614   */\n      dup7\n        /* \"#utility.yul\":12607:12621   */\n      add\n        /* \"#utility.yul\":12593:12605   */\n      dup3\n        /* \"#utility.yul\":12559:12622   */\n      tag_312\n      jump\t// in\n    tag_504:\n        /* \"#utility.yul\":12463:12632   */\n      pop\n        /* \"#utility.yul\":12717:12721   */\n      0x60\n        /* \"#utility.yul\":12710:12715   */\n      dup4\n        /* \"#utility.yul\":12706:12722   */\n      add\n        /* \"#utility.yul\":12700:12723   */\n      mload\n        /* \"#utility.yul\":12736:12793   */\n      tag_505\n        /* \"#utility.yul\":12787:12791   */\n      0x60\n        /* \"#utility.yul\":12782:12785   */\n      dup7\n        /* \"#utility.yul\":12778:12792   */\n      add\n        /* \"#utility.yul\":12764:12776   */\n      dup3\n        /* \"#utility.yul\":12736:12793   */\n      tag_313\n      jump\t// in\n    tag_505:\n        /* \"#utility.yul\":12642:12803   */\n      pop\n        /* \"#utility.yul\":12888:12892   */\n      0x80\n        /* \"#utility.yul\":12881:12886   */\n      dup4\n        /* \"#utility.yul\":12877:12893   */\n      add\n        /* \"#utility.yul\":12871:12894   */\n      mload\n        /* \"#utility.yul\":12907:12964   */\n      tag_506\n        /* \"#utility.yul\":12958:12962   */\n      0x80\n        /* \"#utility.yul\":12953:12956   */\n      dup7\n        /* \"#utility.yul\":12949:12963   */\n      add\n        /* \"#utility.yul\":12935:12947   */\n      dup3\n        /* \"#utility.yul\":12907:12964   */\n      tag_313\n      jump\t// in\n    tag_506:\n        /* \"#utility.yul\":12813:12974   */\n      pop\n        /* \"#utility.yul\":13059:13063   */\n      0xa0\n        /* \"#utility.yul\":13052:13057   */\n      dup4\n        /* \"#utility.yul\":13048:13064   */\n      add\n        /* \"#utility.yul\":13042:13065   */\n      mload\n        /* \"#utility.yul\":13078:13141   */\n      tag_507\n        /* \"#utility.yul\":13135:13139   */\n      0xa0\n        /* \"#utility.yul\":13130:13133   */\n      dup7\n        /* \"#utility.yul\":13126:13140   */\n      add\n        /* \"#utility.yul\":13112:13124   */\n      dup3\n        /* \"#utility.yul\":13078:13141   */\n      tag_312\n      jump\t// in\n    tag_507:\n        /* \"#utility.yul\":12984:13151   */\n      pop\n        /* \"#utility.yul\":13168:13172   */\n      dup1\n        /* \"#utility.yul\":13161:13172   */\n      swap2\n      pop\n        /* \"#utility.yul\":11922:13178   */\n      pop\n        /* \"#utility.yul\":11798:13178   */\n      swap3\n      swap2\n      pop\n      pop\n      jump\t// out\n        /* \"#utility.yul\":13184:14494   */\n    tag_79:\n        /* \"#utility.yul\":13555:13559   */\n      0x00\n        /* \"#utility.yul\":13593:13596   */\n      0xe0\n        /* \"#utility.yul\":13582:13591   */\n      dup3\n        /* \"#utility.yul\":13578:13597   */\n      add\n        /* \"#utility.yul\":13570:13597   */\n      swap1\n      pop\n        /* \"#utility.yul\":13607:13678   */\n      tag_509\n        /* \"#utility.yul\":13675:13676   */\n      0x00\n        /* \"#utility.yul\":13664:13673   */\n      dup4\n        /* \"#utility.yul\":13660:13677   */\n      add\n        /* \"#utility.yul\":13651:13657   */\n      dup11\n        /* \"#utility.yul\":13607:13678   */\n      tag_303\n      jump\t// in\n    tag_509:\n        /* \"#utility.yul\":13725:13734   */\n      dup2\n        /* \"#utility.yul\":13719:13723   */\n      dup2\n        /* \"#utility.yul\":13715:13735   */\n      sub\n        /* \"#utility.yul\":13710:13712   */\n      0x20\n        /* \"#utility.yul\":13699:13708   */\n      dup4\n        /* \"#utility.yul\":13695:13713   */\n      add\n        /* \"#utility.yul\":13688:13736   */\n      mstore\n        /* \"#utility.yul\":13753:13831   */\n      tag_510\n        /* \"#utility.yul\":13826:13830   */\n      dup2\n        /* \"#utility.yul\":13817:13823   */\n      dup10\n        /* \"#utility.yul\":13753:13831   */\n      tag_309\n      jump\t// in\n    tag_510:\n        /* \"#utility.yul\":13745:13831   */\n      swap1\n      pop\n        /* \"#utility.yul\":13878:13887   */\n      dup2\n        /* \"#utility.yul\":13872:13876   */\n      dup2\n        /* \"#utility.yul\":13868:13888   */\n      sub\n        /* \"#utility.yul\":13863:13865   */\n      0x40\n        /* \"#utility.yul\":13852:13861   */\n      dup4\n        /* \"#utility.yul\":13848:13866   */\n      add\n        /* \"#utility.yul\":13841:13889   */\n      mstore\n        /* \"#utility.yul\":13906:13984   */\n      tag_511\n        /* \"#utility.yul\":13979:13983   */\n      dup2\n        /* \"#utility.yul\":13970:13976   */\n      dup9\n        /* \"#utility.yul\":13906:13984   */\n      tag_309\n      jump\t// in\n    tag_511:\n        /* \"#utility.yul\":13898:13984   */\n      swap1\n      pop\n        /* \"#utility.yul\":14031:14040   */\n      dup2\n        /* \"#utility.yul\":14025:14029   */\n      dup2\n        /* \"#utility.yul\":14021:14041   */\n      sub\n        /* \"#utility.yul\":14016:14018   */\n      0x60\n        /* \"#utility.yul\":14005:14014   */\n      dup4\n        /* \"#utility.yul\":14001:14019   */\n      add\n        /* \"#utility.yul\":13994:14042   */\n      mstore\n        /* \"#utility.yul\":14059:14137   */\n      tag_512\n        /* \"#utility.yul\":14132:14136   */\n      dup2\n        /* \"#utility.yul\":14123:14129   */\n      dup8\n        /* \"#utility.yul\":14059:14137   */\n      tag_309\n      jump\t// in\n    tag_512:\n        /* \"#utility.yul\":14051:14137   */\n      swap1\n      pop\n        /* \"#utility.yul\":14147:14220   */\n      tag_513\n        /* \"#utility.yul\":14215:14218   */\n      0x80\n        /* \"#utility.yul\":14204:14213   */\n      dup4\n        /* \"#utility.yul\":14200:14219   */\n      add\n        /* \"#utility.yul\":14191:14197   */\n      dup7\n        /* \"#utility.yul\":14147:14220   */\n      tag_303\n      jump\t// in\n    tag_513:\n        /* \"#utility.yul\":14230:14303   */\n      tag_514\n        /* \"#utility.yul\":14298:14301   */\n      0xa0\n        /* \"#utility.yul\":14287:14296   */\n      dup4\n        /* \"#utility.yul\":14283:14302   */\n      add\n        /* \"#utility.yul\":14274:14280   */\n      dup6\n        /* \"#utility.yul\":14230:14303   */\n      tag_303\n      jump\t// in\n    tag_514:\n        /* \"#utility.yul\":14351:14360   */\n      dup2\n        /* \"#utility.yul\":14345:14349   */\n      dup2\n        /* \"#utility.yul\":14341:14361   */\n      sub\n        /* \"#utility.yul\":14335:14338   */\n      0xc0\n        /* \"#utility.yul\":14324:14333   */\n      dup4\n        /* \"#utility.yul\":14320:14339   */\n      add\n        /* \"#utility.yul\":14313:14362   */\n      mstore\n        /* \"#utility.yul\":14379:14487   */\n      tag_515\n        /* \"#utility.yul\":14482:14486   */\n      dup2\n        /* \"#utility.yul\":14473:14479   */\n      dup5\n        /* \"#utility.yul\":14379:14487   */\n      tag_314\n      jump\t// in\n    tag_515:\n        /* \"#utility.yul\":14371:14487   */\n      swap1\n      pop\n        /* \"#utility.yul\":13184:14494   */\n      swap9\n      swap8\n      pop\n      pop\n      pop\n      pop\n      pop\n      pop\n      pop\n      pop\n      jump\t// out\n        /* \"#utility.yul\":14500:14618   */\n    tag_315:\n        /* \"#utility.yul\":14587:14611   */\n      tag_517\n        /* \"#utility.yul\":14605:14610   */\n      dup2\n        /* \"#utility.yul\":14587:14611   */\n      tag_285\n      jump\t// in\n    tag_517:\n        /* \"#utility.yul\":14582:14585   */\n      dup3\n        /* \"#utility.yul\":14575:14612   */\n      mstore\n        /* \"#utility.yul\":14500:14618   */\n      pop\n      pop\n      jump\t// out\n        /* \"#utility.yul\":14624:14846   */\n    tag_83:\n        /* \"#utility.yul\":14717:14721   */\n      0x00\n        /* \"#utility.yul\":14755:14757   */\n      0x20\n        /* \"#utility.yul\":14744:14753   */\n      dup3\n        /* \"#utility.yul\":14740:14758   */\n      add\n        /* \"#utility.yul\":14732:14758   */\n      swap1\n      pop\n        /* \"#utility.yul\":14768:14839   */\n      tag_519\n        /* \"#utility.yul\":14836:14837   */\n      0x00\n        /* \"#utility.yul\":14825:14834   */\n      dup4\n        /* \"#utility.yul\":14821:14838   */\n      add\n        /* \"#utility.yul\":14812:14818   */\n      dup5\n        /* \"#utility.yul\":14768:14839   */\n      tag_315\n      jump\t// in\n    tag_519:\n        /* \"#utility.yul\":14624:14846   */\n      swap3\n      swap2\n      pop\n      pop\n      jump\t// out\n        /* \"#utility.yul\":14852:15026   */\n    tag_316:\n        /* \"#utility.yul\":14992:15018   */\n      0x50726f6475637420686173206265656e20736869707065640000000000000000\n        /* \"#utility.yul\":14988:14989   */\n      0x00\n        /* \"#utility.yul\":14980:14986   */\n      dup3\n        /* \"#utility.yul\":14976:14990   */\n      add\n        /* \"#utility.yul\":14969:15019   */\n      mstore\n        /* \"#utility.yul\":14852:15026   */\n      pop\n      jump\t// out\n        /* \"#utility.yul\":15032:15398   */\n    tag_317:\n        /* \"#utility.yul\":15174:15177   */\n      0x00\n        /* \"#utility.yul\":15195:15262   */\n      tag_522\n        /* \"#utility.yul\":15259:15261   */\n      0x18\n        /* \"#utility.yul\":15254:15257   */\n      dup4\n        /* \"#utility.yul\":15195:15262   */\n      tag_307\n      jump\t// in\n    tag_522:\n        /* \"#utility.yul\":15188:15262   */\n      swap2\n      pop\n        /* \"#utility.yul\":15271:15364   */\n      tag_523\n        /* \"#utility.yul\":15360:15363   */\n      dup3\n        /* \"#utility.yul\":15271:15364   */\n      tag_316\n      jump\t// in\n    tag_523:\n        /* \"#utility.yul\":15389:15391   */\n      0x20\n        /* \"#utility.yul\":15384:15387   */\n      dup3\n        /* \"#utility.yul\":15380:15392   */\n      add\n        /* \"#utility.yul\":15373:15392   */\n      swap1\n      pop\n        /* \"#utility.yul\":15032:15398   */\n      swap2\n      swap1\n      pop\n      jump\t// out\n        /* \"#utility.yul\":15404:15823   */\n    tag_124:\n        /* \"#utility.yul\":15570:15574   */\n      0x00\n        /* \"#utility.yul\":15608:15610   */\n      0x20\n        /* \"#utility.yul\":15597:15606   */\n      dup3\n        /* \"#utility.yul\":15593:15611   */\n      add\n        /* \"#utility.yul\":15585:15611   */\n      swap1\n      pop\n        /* \"#utility.yul\":15657:15666   */\n      dup2\n        /* \"#utility.yul\":15651:15655   */\n      dup2\n        /* \"#utility.yul\":15647:15667   */\n      sub\n        /* \"#utility.yul\":15643:15644   */\n      0x00\n        /* \"#utility.yul\":15632:15641   */\n      dup4\n        /* \"#utility.yul\":15628:15645   */\n      add\n        /* \"#utility.yul\":15621:15668   */\n      mstore\n        /* \"#utility.yul\":15685:15816   */\n      tag_525\n        /* \"#utility.yul\":15811:15815   */\n      dup2\n        /* \"#utility.yul\":15685:15816   */\n      tag_317\n      jump\t// in\n    tag_525:\n        /* \"#utility.yul\":15677:15816   */\n      swap1\n      pop\n        /* \"#utility.yul\":15404:15823   */\n      swap2\n      swap1\n      pop\n      jump\t// out\n        /* \"#utility.yul\":15829:16001   */\n    tag_318:\n        /* \"#utility.yul\":15969:15993   */\n      0x50726f6475637420646f6573206e6f7420657869737400000000000000000000\n        /* \"#utility.yul\":15965:15966   */\n      0x00\n        /* \"#utility.yul\":15957:15963   */\n      dup3\n        /* \"#utility.yul\":15953:15967   */\n      add\n        /* \"#utility.yul\":15946:15994   */\n      mstore\n        /* \"#utility.yul\":15829:16001   */\n      pop\n      jump\t// out\n        /* \"#utility.yul\":16007:16373   */\n    tag_319:\n        /* \"#utility.yul\":16149:16152   */\n      0x00\n        /* \"#utility.yul\":16170:16237   */\n      tag_528\n        /* \"#utility.yul\":16234:16236   */\n      0x16\n        /* \"#utility.yul\":16229:16232   */\n      dup4\n        /* \"#utility.yul\":16170:16237   */\n      tag_307\n      jump\t// in\n    tag_528:\n        /* \"#utility.yul\":16163:16237   */\n      swap2\n      pop\n        /* \"#utility.yul\":16246:16339   */\n      tag_529\n        /* \"#utility.yul\":16335:16338   */\n      dup3\n        /* \"#utility.yul\":16246:16339   */\n      tag_318\n      jump\t// in\n    tag_529:\n        /* \"#utility.yul\":16364:16366   */\n      0x20\n        /* \"#utility.yul\":16359:16362   */\n      dup3\n        /* \"#utility.yul\":16355:16367   */\n      add\n        /* \"#utility.yul\":16348:16367   */\n      swap1\n      pop\n        /* \"#utility.yul\":16007:16373   */\n      swap2\n      swap1\n      pop\n      jump\t// out\n        /* \"#utility.yul\":16379:16798   */\n    tag_127:\n        /* \"#utility.yul\":16545:16549   */\n      0x00\n        /* \"#utility.yul\":16583:16585   */\n      0x20\n        /* \"#utility.yul\":16572:16581   */\n      dup3\n        /* \"#utility.yul\":16568:16586   */\n      add\n        /* \"#utility.yul\":16560:16586   */\n      swap1\n      pop\n        /* \"#utility.yul\":16632:16641   */\n      dup2\n        /* \"#utility.yul\":16626:16630   */\n      dup2\n        /* \"#utility.yul\":16622:16642   */\n      sub\n        /* \"#utility.yul\":16618:16619   */\n      0x00\n        /* \"#utility.yul\":16607:16616   */\n      dup4\n        /* \"#utility.yul\":16603:16620   */\n      add\n        /* \"#utility.yul\":16596:16643   */\n      mstore\n        /* \"#utility.yul\":16660:16791   */\n      tag_531\n        /* \"#utility.yul\":16786:16790   */\n      dup2\n        /* \"#utility.yul\":16660:16791   */\n      tag_319\n      jump\t// in\n    tag_531:\n        /* \"#utility.yul\":16652:16791   */\n      swap1\n      pop\n        /* \"#utility.yul\":16379:16798   */\n      swap2\n      swap1\n      pop\n      jump\t// out\n        /* \"#utility.yul\":16804:16977   */\n    tag_320:\n        /* \"#utility.yul\":16944:16969   */\n      0x50726f64756374206973206f7574206f662073746f636b000000000000000000\n        /* \"#utility.yul\":16940:16941   */\n      0x00\n        /* \"#utility.yul\":16932:16938   */\n      dup3\n        /* \"#utility.yul\":16928:16942   */\n      add\n        /* \"#utility.yul\":16921:16970   */\n      mstore\n        /* \"#utility.yul\":16804:16977   */\n      pop\n      jump\t// out\n        /* \"#utility.yul\":16983:17349   */\n    tag_321:\n        /* \"#utility.yul\":17125:17128   */\n      0x00\n        /* \"#utility.yul\":17146:17213   */\n      tag_534\n        /* \"#utility.yul\":17210:17212   */\n      0x17\n        /* \"#utility.yul\":17205:17208   */\n      dup4\n        /* \"#utility.yul\":17146:17213   */\n      tag_307\n      jump\t// in\n    tag_534:\n        /* \"#utility.yul\":17139:17213   */\n      swap2\n      pop\n        /* \"#utility.yul\":17222:17315   */\n      tag_535\n        /* \"#utility.yul\":17311:17314   */\n      dup3\n        /* \"#utility.yul\":17222:17315   */\n      tag_320\n      jump\t// in\n    tag_535:\n        /* \"#utility.yul\":17340:17342   */\n      0x20\n        /* \"#utility.yul\":17335:17338   */\n      dup3\n        /* \"#utility.yul\":17331:17343   */\n      add\n        /* \"#utility.yul\":17324:17343   */\n      swap1\n      pop\n        /* \"#utility.yul\":16983:17349   */\n      swap2\n      swap1\n      pop\n      jump\t// out\n        /* \"#utility.yul\":17355:17774   */\n    tag_130:\n        /* \"#utility.yul\":17521:17525   */\n      0x00\n        /* \"#utility.yul\":17559:17561   */\n      0x20\n        /* \"#utility.yul\":17548:17557   */\n      dup3\n        /* \"#utility.yul\":17544:17562   */\n      add\n        /* \"#utility.yul\":17536:17562   */\n      swap1\n      pop\n        /* \"#utility.yul\":17608:17617   */\n      dup2\n        /* \"#utility.yul\":17602:17606   */\n      dup2\n        /* \"#utility.yul\":17598:17618   */\n      sub\n        /* \"#utility.yul\":17594:17595   */\n      0x00\n        /* \"#utility.yul\":17583:17592   */\n      dup4\n        /* \"#utility.yul\":17579:17596   */\n      add\n        /* \"#utility.yul\":17572:17619   */\n      mstore\n        /* \"#utility.yul\":17636:17767   */\n      tag_537\n        /* \"#utility.yul\":17762:17766   */\n      dup2\n        /* \"#utility.yul\":17636:17767   */\n      tag_321\n      jump\t// in\n    tag_537:\n        /* \"#utility.yul\":17628:17767   */\n      swap1\n      pop\n        /* \"#utility.yul\":17355:17774   */\n      swap2\n      swap1\n      pop\n      jump\t// out\n        /* \"#utility.yul\":17780:17958   */\n    tag_322:\n        /* \"#utility.yul\":17920:17950   */\n      0x556e617574686f72697a656420746f20736869702070726f6475637400000000\n        /* \"#utility.yul\":17916:17917   */\n      0x00\n        /* \"#utility.yul\":17908:17914   */\n      dup3\n        /* \"#utility.yul\":17904:17918   */\n      add\n        /* \"#utility.yul\":17897:17951   */\n      mstore\n        /* \"#utility.yul\":17780:17958   */\n      pop\n      jump\t// out\n        /* \"#utility.yul\":17964:18330   */\n    tag_323:\n        /* \"#utility.yul\":18106:18109   */\n      0x00\n        /* \"#utility.yul\":18127:18194   */\n      tag_540\n        /* \"#utility.yul\":18191:18193   */\n      0x1c\n        /* \"#utility.yul\":18186:18189   */\n      dup4\n        /* \"#utility.yul\":18127:18194   */\n      tag_307\n      jump\t// in\n    tag_540:\n        /* \"#utility.yul\":18120:18194   */\n      swap2\n      pop\n        /* \"#utility.yul\":18203:18296   */\n      tag_541\n        /* \"#utility.yul\":18292:18295   */\n      dup3\n        /* \"#utility.yul\":18203:18296   */\n      tag_322\n      jump\t// in\n    tag_541:\n        /* \"#utility.yul\":18321:18323   */\n      0x20\n        /* \"#utility.yul\":18316:18319   */\n      dup3\n        /* \"#utility.yul\":18312:18324   */\n      add\n        /* \"#utility.yul\":18305:18324   */\n      swap1\n      pop\n        /* \"#utility.yul\":17964:18330   */\n      swap2\n      swap1\n      pop\n      jump\t// out\n        /* \"#utility.yul\":18336:18755   */\n    tag_141:\n        /* \"#utility.yul\":18502:18506   */\n      0x00\n        /* \"#utility.yul\":18540:18542   */\n      0x20\n        /* \"#utility.yul\":18529:18538   */\n      dup3\n        /* \"#utility.yul\":18525:18543   */\n      add\n        /* \"#utility.yul\":18517:18543   */\n      swap1\n      pop\n        /* \"#utility.yul\":18589:18598   */\n      dup2\n        /* \"#utility.yul\":18583:18587   */\n      dup2\n        /* \"#utility.yul\":18579:18599   */\n      sub\n        /* \"#utility.yul\":18575:18576   */\n      0x00\n        /* \"#utility.yul\":18564:18573   */\n      dup4\n        /* \"#utility.yul\":18560:18577   */\n      add\n        /* \"#utility.yul\":18553:18600   */\n      mstore\n        /* \"#utility.yul\":18617:18748   */\n      tag_543\n        /* \"#utility.yul\":18743:18747   */\n      dup2\n        /* \"#utility.yul\":18617:18748   */\n      tag_323\n      jump\t// in\n    tag_543:\n        /* \"#utility.yul\":18609:18748   */\n      swap1\n      pop\n        /* \"#utility.yul\":18336:18755   */\n      swap2\n      swap1\n      pop\n      jump\t// out\n        /* \"#utility.yul\":18761:18941   */\n    tag_324:\n        /* \"#utility.yul\":18809:18886   */\n      0x4e487b7100000000000000000000000000000000000000000000000000000000\n        /* \"#utility.yul\":18806:18807   */\n      0x00\n        /* \"#utility.yul\":18799:18887   */\n      mstore\n        /* \"#utility.yul\":18906:18910   */\n      0x22\n        /* \"#utility.yul\":18903:18904   */\n      0x04\n        /* \"#utility.yul\":18896:18911   */\n      mstore\n        /* \"#utility.yul\":18930:18934   */\n      0x24\n        /* \"#utility.yul\":18927:18928   */\n      0x00\n        /* \"#utility.yul\":18920:18935   */\n      revert\n        /* \"#utility.yul\":18947:19267   */\n    tag_200:\n        /* \"#utility.yul\":18991:18997   */\n      0x00\n        /* \"#utility.yul\":19028:19029   */\n      0x02\n        /* \"#utility.yul\":19022:19026   */\n      dup3\n        /* \"#utility.yul\":19018:19030   */\n      div\n        /* \"#utility.yul\":19008:19030   */\n      swap1\n      pop\n        /* \"#utility.yul\":19075:19076   */\n      0x01\n        /* \"#utility.yul\":19069:19073   */\n      dup3\n        /* \"#utility.yul\":19065:19077   */\n      and\n        /* \"#utility.yul\":19096:19114   */\n      dup1\n        /* \"#utility.yul\":19086:19167   */\n      tag_546\n      jumpi\n        /* \"#utility.yul\":19152:19156   */\n      0x7f\n        /* \"#utility.yul\":19144:19150   */\n      dup3\n        /* \"#utility.yul\":19140:19157   */\n      and\n        /* \"#utility.yul\":19130:19157   */\n      swap2\n      pop\n        /* \"#utility.yul\":19086:19167   */\n    tag_546:\n        /* \"#utility.yul\":19214:19216   */\n      0x20\n        /* \"#utility.yul\":19206:19212   */\n      dup3\n        /* \"#utility.yul\":19203:19217   */\n      lt\n        /* \"#utility.yul\":19183:19201   */\n      dup2\n        /* \"#utility.yul\":19180:19218   */\n      sub\n        /* \"#utility.yul\":19177:19261   */\n      tag_547\n      jumpi\n        /* \"#utility.yul\":19233:19251   */\n      tag_548\n      tag_324\n      jump\t// in\n    tag_548:\n        /* \"#utility.yul\":19177:19261   */\n    tag_547:\n        /* \"#utility.yul\":18998:19267   */\n      pop\n        /* \"#utility.yul\":18947:19267   */\n      swap2\n      swap1\n      pop\n      jump\t// out\n        /* \"#utility.yul\":19273:19414   */\n    tag_325:\n        /* \"#utility.yul\":19322:19326   */\n      0x00\n        /* \"#utility.yul\":19345:19348   */\n      dup2\n        /* \"#utility.yul\":19337:19348   */\n      swap1\n      pop\n        /* \"#utility.yul\":19368:19371   */\n      dup2\n        /* \"#utility.yul\":19365:19366   */\n      0x00\n        /* \"#utility.yul\":19358:19372   */\n      mstore\n        /* \"#utility.yul\":19402:19406   */\n      0x20\n        /* \"#utility.yul\":19399:19400   */\n      0x00\n        /* \"#utility.yul\":19389:19407   */\n      keccak256\n        /* \"#utility.yul\":19381:19407   */\n      swap1\n      pop\n        /* \"#utility.yul\":19273:19414   */\n      swap2\n      swap1\n      pop\n      jump\t// out\n        /* \"#utility.yul\":19420:19513   */\n    tag_326:\n        /* \"#utility.yul\":19457:19463   */\n      0x00\n        /* \"#utility.yul\":19504:19506   */\n      0x20\n        /* \"#utility.yul\":19499:19501   */\n      0x1f\n        /* \"#utility.yul\":19492:19497   */\n      dup4\n        /* \"#utility.yul\":19488:19502   */\n      add\n        /* \"#utility.yul\":19484:19507   */\n      div\n        /* \"#utility.yul\":19474:19507   */\n      swap1\n      pop\n        /* \"#utility.yul\":19420:19513   */\n      swap2\n      swap1\n      pop\n      jump\t// out\n        /* \"#utility.yul\":19519:19626   */\n    tag_327:\n        /* \"#utility.yul\":19563:19571   */\n      0x00\n        /* \"#utility.yul\":19613:19618   */\n      dup3\n        /* \"#utility.yul\":19607:19611   */\n      dup3\n        /* \"#utility.yul\":19603:19619   */\n      shl\n        /* \"#utility.yul\":19582:19619   */\n      swap1\n      pop\n        /* \"#utility.yul\":19519:19626   */\n      swap3\n      swap2\n      pop\n      pop\n      jump\t// out\n        /* \"#utility.yul\":19632:20025   */\n    tag_328:\n        /* \"#utility.yul\":19701:19707   */\n      0x00\n        /* \"#utility.yul\":19751:19752   */\n      0x08\n        /* \"#utility.yul\":19739:19749   */\n      dup4\n        /* \"#utility.yul\":19735:19753   */\n      mul\n        /* \"#utility.yul\":19774:19871   */\n      tag_553\n        /* \"#utility.yul\":19804:19870   */\n      0xffffffffffffffffffffffffffffffffffffffffffffffffffffffffffffffff\n        /* \"#utility.yul\":19793:19802   */\n      dup3\n        /* \"#utility.yul\":19774:19871   */\n      tag_327\n      jump\t// in\n    tag_553:\n        /* \"#utility.yul\":19892:19931   */\n      tag_554\n        /* \"#utility.yul\":19922:19930   */\n      dup7\n        /* \"#utility.yul\":19911:19920   */\n      dup4\n        /* \"#utility.yul\":19892:19931   */\n      tag_327\n      jump\t// in\n    tag_554:\n        /* \"#utility.yul\":19880:19931   */\n      swap6\n      pop\n        /* \"#utility.yul\":19964:19968   */\n      dup1\n        /* \"#utility.yul\":19960:19969   */\n      not\n        /* \"#utility.yul\":19953:19958   */\n      dup5\n        /* \"#utility.yul\":19949:19970   */\n      and\n        /* \"#utility.yul\":19940:19970   */\n      swap4\n      pop\n        /* \"#utility.yul\":20013:20017   */\n      dup1\n        /* \"#utility.yul\":20003:20011   */\n      dup7\n        /* \"#utility.yul\":19999:20018   */\n      and\n        /* \"#utility.yul\":19992:19997   */\n      dup5\n        /* \"#utility.yul\":19989:20019   */\n      or\n        /* \"#utility.yul\":19979:20019   */\n      swap3\n      pop\n        /* \"#utility.yul\":19708:20025   */\n      pop\n      pop\n        /* \"#utility.yul\":19632:20025   */\n      swap4\n      swap3\n      pop\n      pop\n      pop\n      jump\t// out\n        /* \"#utility.yul\":20031:20091   */\n    tag_329:\n        /* \"#utility.yul\":20059:20062   */\n      0x00\n        /* \"#utility.yul\":20080:20085   */\n      dup2\n        /* \"#utility.yul\":20073:20085   */\n      swap1\n      pop\n        /* \"#utility.yul\":20031:20091   */\n      swap2\n      swap1\n      pop\n      jump\t// out\n        /* \"#utility.yul\":20097:20239   */\n    tag_330:\n        /* \"#utility.yul\":20147:20156   */\n      0x00\n        /* \"#utility.yul\":20180:20233   */\n      tag_557\n        /* \"#utility.yul\":20198:20232   */\n      tag_558\n        /* \"#utility.yul\":20207:20231   */\n      tag_559\n        /* \"#utility.yul\":20225:20230   */\n      dup5\n        /* \"#utility.yul\":20207:20231   */\n      tag_288\n      jump\t// in\n    tag_559:\n        /* \"#utility.yul\":20198:20232   */\n      tag_329\n      jump\t// in\n    tag_558:\n        /* \"#utility.yul\":20180:20233   */\n      tag_288\n      jump\t// in\n    tag_557:\n        /* \"#utility.yul\":20167:20233   */\n      swap1\n      pop\n        /* \"#utility.yul\":20097:20239   */\n      swap2\n      swap1\n      pop\n      jump\t// out\n        /* \"#utility.yul\":20245:20320   */\n    tag_331:\n        /* \"#utility.yul\":20288:20291   */\n      0x00\n        /* \"#utility.yul\":20309:20314   */\n      dup2\n        /* \"#utility.yul\":20302:20314   */\n      swap1\n      pop\n        /* \"#utility.yul\":20245:20320   */\n      swap2\n      swap1\n      pop\n      jump\t// out\n        /* \"#utility.yul\":20326:20595   */\n    tag_332:\n        /* \"#utility.yul\":20436:20475   */\n      tag_562\n        /* \"#utility.yul\":20467:20474   */\n      dup4\n        /* \"#utility.yul\":20436:20475   */\n      tag_330\n      jump\t// in\n    tag_562:\n        /* \"#utility.yul\":20497:20588   */\n      tag_563\n        /* \"#utility.yul\":20546:20587   */\n      tag_564\n        /* \"#utility.yul\":20570:20586   */\n      dup3\n        /* \"#utility.yul\":20546:20587   */\n      tag_331\n      jump\t// in\n    tag_564:\n        /* \"#utility.yul\":20538:20544   */\n      dup5\n        /* \"#utility.yul\":20531:20535   */\n      dup5\n        /* \"#utility.yul\":20525:20536   */\n      sload\n        /* \"#utility.yul\":20497:20588   */\n      tag_328\n      jump\t// in\n    tag_563:\n        /* \"#utility.yul\":20491:20495   */\n      dup3\n        /* \"#utility.yul\":20484:20589   */\n      sstore\n        /* \"#utility.yul\":20402:20595   */\n      pop\n        /* \"#utility.yul\":20326:20595   */\n      pop\n      pop\n      pop\n      jump\t// out\n        /* \"#utility.yul\":20601:20674   */\n    tag_333:\n        /* \"#utility.yul\":20646:20649   */\n      0x00\n        /* \"#utility.yul\":20601:20674   */\n      swap1\n      jump\t// out\n        /* \"#utility.yul\":20680:20869   */\n    tag_334:\n        /* \"#utility.yul\":20757:20789   */\n      tag_567\n      tag_333\n      jump\t// in\n    tag_567:\n        /* \"#utility.yul\":20798:20863   */\n      tag_568\n        /* \"#utility.yul\":20856:20862   */\n      dup2\n        /* \"#utility.yul\":20848:20854   */\n      dup5\n        /* \"#utility.yul\":20842:20846   */\n      dup5\n        /* \"#utility.yul\":20798:20863   */\n      tag_332\n      jump\t// in\n    tag_568:\n        /* \"#utility.yul\":20733:20869   */\n      pop\n        /* \"#utility.yul\":20680:20869   */\n      pop\n      pop\n      jump\t// out\n        /* \"#utility.yul\":20875:21061   */\n    tag_335:\n        /* \"#utility.yul\":20935:21055   */\n    tag_570:\n        /* \"#utility.yul\":20952:20955   */\n      dup2\n        /* \"#utility.yul\":20945:20950   */\n      dup2\n        /* \"#utility.yul\":20942:20956   */\n      lt\n        /* \"#utility.yul\":20935:21055   */\n      iszero\n      tag_572\n      jumpi\n        /* \"#utility.yul\":21006:21045   */\n      tag_573\n        /* \"#utility.yul\":21043:21044   */\n      0x00\n        /* \"#utility.yul\":21036:21041   */\n      dup3\n        /* \"#utility.yul\":21006:21045   */\n      tag_334\n      jump\t// in\n    tag_573:\n        /* \"#utility.yul\":20979:20980   */\n      0x01\n        /* \"#utility.yul\":20972:20977   */\n      dup2\n        /* \"#utility.yul\":20968:20981   */\n      add\n        /* \"#utility.yul\":20959:20981   */\n      swap1\n      pop\n        /* \"#utility.yul\":20935:21055   */\n      jump(tag_570)\n    tag_572:\n        /* \"#utility.yul\":20875:21061   */\n      pop\n      pop\n      jump\t// out\n        /* \"#utility.yul\":21067:21610   */\n    tag_336:\n        /* \"#utility.yul\":21168:21170   */\n      0x1f\n        /* \"#utility.yul\":21163:21166   */\n      dup3\n        /* \"#utility.yul\":21160:21171   */\n      gt\n        /* \"#utility.yul\":21157:21603   */\n      iszero\n      tag_575\n      jumpi\n        /* \"#utility.yul\":21202:21240   */\n      tag_576\n        /* \"#utility.yul\":21234:21239   */\n      dup2\n        /* \"#utility.yul\":21202:21240   */\n      tag_325\n      jump\t// in\n    tag_576:\n        /* \"#utility.yul\":21286:21315   */\n      tag_577\n        /* \"#utility.yul\":21304:21314   */\n      dup5\n        /* \"#utility.yul\":21286:21315   */\n      tag_326\n      jump\t// in\n    tag_577:\n        /* \"#utility.yul\":21276:21284   */\n      dup2\n        /* \"#utility.yul\":21272:21316   */\n      add\n        /* \"#utility.yul\":21469:21471   */\n      0x20\n        /* \"#utility.yul\":21457:21467   */\n      dup6\n        /* \"#utility.yul\":21454:21472   */\n      lt\n        /* \"#utility.yul\":21451:21500   */\n      iszero\n      tag_578\n      jumpi\n        /* \"#utility.yul\":21490:21498   */\n      dup2\n        /* \"#utility.yul\":21475:21498   */\n      swap1\n      pop\n        /* \"#utility.yul\":21451:21500   */\n    tag_578:\n        /* \"#utility.yul\":21513:21593   */\n      tag_579\n        /* \"#utility.yul\":21569:21591   */\n      tag_580\n        /* \"#utility.yul\":21587:21590   */\n      dup6\n        /* \"#utility.yul\":21569:21591   */\n      tag_326\n      jump\t// in\n    tag_580:\n        /* \"#utility.yul\":21559:21567   */\n      dup4\n        /* \"#utility.yul\":21555:21592   */\n      add\n        /* \"#utility.yul\":21542:21553   */\n      dup3\n        /* \"#utility.yul\":21513:21593   */\n      tag_335\n      jump\t// in\n    tag_579:\n        /* \"#utility.yul\":21172:21603   */\n      pop\n      pop\n        /* \"#utility.yul\":21157:21603   */\n    tag_575:\n        /* \"#utility.yul\":21067:21610   */\n      pop\n      pop\n      pop\n      jump\t// out\n        /* \"#utility.yul\":21616:21733   */\n    tag_337:\n        /* \"#utility.yul\":21670:21678   */\n      0x00\n        /* \"#utility.yul\":21720:21725   */\n      dup3\n        /* \"#utility.yul\":21714:21718   */\n      dup3\n        /* \"#utility.yul\":21710:21726   */\n      shr\n        /* \"#utility.yul\":21689:21726   */\n      swap1\n      pop\n        /* \"#utility.yul\":21616:21733   */\n      swap3\n      swap2\n      pop\n      pop\n      jump\t// out\n        /* \"#utility.yul\":21739:21908   */\n    tag_338:\n        /* \"#utility.yul\":21783:21789   */\n      0x00\n        /* \"#utility.yul\":21816:21867   */\n      tag_583\n        /* \"#utility.yul\":21864:21865   */\n      0x00\n        /* \"#utility.yul\":21860:21866   */\n      not\n        /* \"#utility.yul\":21852:21857   */\n      dup5\n        /* \"#utility.yul\":21849:21850   */\n      0x08\n        /* \"#utility.yul\":21845:21858   */\n      mul\n        /* \"#utility.yul\":21816:21867   */\n      tag_337\n      jump\t// in\n    tag_583:\n        /* \"#utility.yul\":21812:21868   */\n      not\n        /* \"#utility.yul\":21897:21901   */\n      dup1\n        /* \"#utility.yul\":21891:21895   */\n      dup4\n        /* \"#utility.yul\":21887:21902   */\n      and\n        /* \"#utility.yul\":21877:21902   */\n      swap2\n      pop\n        /* \"#utility.yul\":21790:21908   */\n      pop\n        /* \"#utility.yul\":21739:21908   */\n      swap3\n      swap2\n      pop\n      pop\n      jump\t// out\n        /* \"#utility.yul\":21913:22208   */\n    tag_339:\n        /* \"#utility.yul\":21989:21993   */\n      0x00\n        /* \"#utility.yul\":22135:22164   */\n      tag_585\n        /* \"#utility.yul\":22160:22163   */\n      dup4\n        /* \"#utility.yul\":22154:22158   */\n      dup4\n        /* \"#utility.yul\":22135:22164   */\n      tag_338\n      jump\t// in\n    tag_585:\n        /* \"#utility.yul\":22127:22164   */\n      swap2\n      pop\n        /* \"#utility.yul\":22197:22200   */\n      dup3\n        /* \"#utility.yul\":22194:22195   */\n      0x02\n        /* \"#utility.yul\":22190:22201   */\n      mul\n        /* \"#utility.yul\":22184:22188   */\n      dup3\n        /* \"#utility.yul\":22181:22202   */\n      or\n        /* \"#utility.yul\":22173:22202   */\n      swap1\n      pop\n        /* \"#utility.yul\":21913:22208   */\n      swap3\n      swap2\n      pop\n      pop\n      jump\t// out\n        /* \"#utility.yul\":22213:23608   */\n    tag_143:\n        /* \"#utility.yul\":22330:22367   */\n      tag_587\n        /* \"#utility.yul\":22363:22366   */\n      dup3\n        /* \"#utility.yul\":22330:22367   */\n      tag_306\n      jump\t// in\n    tag_587:\n        /* \"#utility.yul\":22432:22450   */\n      0xffffffffffffffff\n        /* \"#utility.yul\":22424:22430   */\n      dup2\n        /* \"#utility.yul\":22421:22451   */\n      gt\n        /* \"#utility.yul\":22418:22474   */\n      iszero\n      tag_588\n      jumpi\n        /* \"#utility.yul\":22454:22472   */\n      tag_589\n      tag_294\n      jump\t// in\n    tag_589:\n        /* \"#utility.yul\":22418:22474   */\n    tag_588:\n        /* \"#utility.yul\":22498:22536   */\n      tag_590\n        /* \"#utility.yul\":22530:22534   */\n      dup3\n        /* \"#utility.yul\":22524:22535   */\n      sload\n        /* \"#utility.yul\":22498:22536   */\n      tag_200\n      jump\t// in\n    tag_590:\n        /* \"#utility.yul\":22583:22650   */\n      tag_591\n        /* \"#utility.yul\":22643:22649   */\n      dup3\n        /* \"#utility.yul\":22635:22641   */\n      dup3\n        /* \"#utility.yul\":22629:22633   */\n      dup6\n        /* \"#utility.yul\":22583:22650   */\n      tag_336\n      jump\t// in\n    tag_591:\n        /* \"#utility.yul\":22677:22678   */\n      0x00\n        /* \"#utility.yul\":22701:22705   */\n      0x20\n        /* \"#utility.yul\":22688:22705   */\n      swap1\n      pop\n        /* \"#utility.yul\":22733:22735   */\n      0x1f\n        /* \"#utility.yul\":22725:22731   */\n      dup4\n        /* \"#utility.yul\":22722:22736   */\n      gt\n        /* \"#utility.yul\":22750:22751   */\n      0x01\n        /* \"#utility.yul\":22745:23363   */\n      dup2\n      eq\n      tag_593\n      jumpi\n        /* \"#utility.yul\":23407:23408   */\n      0x00\n        /* \"#utility.yul\":23424:23430   */\n      dup5\n        /* \"#utility.yul\":23421:23498   */\n      iszero\n      tag_594\n      jumpi\n        /* \"#utility.yul\":23473:23482   */\n      dup3\n        /* \"#utility.yul\":23468:23471   */\n      dup8\n        /* \"#utility.yul\":23464:23483   */\n      add\n        /* \"#utility.yul\":23458:23484   */\n      mload\n        /* \"#utility.yul\":23449:23484   */\n      swap1\n      pop\n        /* \"#utility.yul\":23421:23498   */\n    tag_594:\n        /* \"#utility.yul\":23524:23591   */\n      tag_595\n        /* \"#utility.yul\":23584:23590   */\n      dup6\n        /* \"#utility.yul\":23577:23582   */\n      dup3\n        /* \"#utility.yul\":23524:23591   */\n      tag_339\n      jump\t// in\n    tag_595:\n        /* \"#utility.yul\":23518:23522   */\n      dup7\n        /* \"#utility.yul\":23511:23592   */\n      sstore\n        /* \"#utility.yul\":23380:23602   */\n      pop\n        /* \"#utility.yul\":22715:23602   */\n      jump(tag_592)\n        /* \"#utility.yul\":22745:23363   */\n    tag_593:\n        /* \"#utility.yul\":22797:22801   */\n      0x1f\n        /* \"#utility.yul\":22793:22802   */\n      not\n        /* \"#utility.yul\":22785:22791   */\n      dup5\n        /* \"#utility.yul\":22781:22803   */\n      and\n        /* \"#utility.yul\":22831:22868   */\n      tag_596\n        /* \"#utility.yul\":22863:22867   */\n      dup7\n        /* \"#utility.yul\":22831:22868   */\n      tag_325\n      jump\t// in\n    tag_596:\n        /* \"#utility.yul\":22890:22891   */\n      0x00\n        /* \"#utility.yul\":22904:23112   */\n    tag_597:\n        /* \"#utility.yul\":22918:22925   */\n      dup3\n        /* \"#utility.yul\":22915:22916   */\n      dup2\n        /* \"#utility.yul\":22912:22926   */\n      lt\n        /* \"#utility.yul\":22904:23112   */\n      iszero\n      tag_599\n      jumpi\n        /* \"#utility.yul\":22997:23006   */\n      dup5\n        /* \"#utility.yul\":22992:22995   */\n      dup10\n        /* \"#utility.yul\":22988:23007   */\n      add\n        /* \"#utility.yul\":22982:23008   */\n      mload\n        /* \"#utility.yul\":22974:22980   */\n      dup3\n        /* \"#utility.yul\":22967:23009   */\n      sstore\n        /* \"#utility.yul\":23048:23049   */\n      0x01\n        /* \"#utility.yul\":23040:23046   */\n      dup3\n        /* \"#utility.yul\":23036:23050   */\n      add\n        /* \"#utility.yul\":23026:23050   */\n      swap2\n      pop\n        /* \"#utility.yul\":23095:23097   */\n      0x20\n        /* \"#utility.yul\":23084:23093   */\n      dup6\n        /* \"#utility.yul\":23080:23098   */\n      add\n        /* \"#utility.yul\":23067:23098   */\n      swap5\n      pop\n        /* \"#utility.yul\":22941:22945   */\n      0x20\n        /* \"#utility.yul\":22938:22939   */\n      dup2\n        /* \"#utility.yul\":22934:22946   */\n      add\n        /* \"#utility.yul\":22929:22946   */\n      swap1\n      pop\n        /* \"#utility.yul\":22904:23112   */\n      jump(tag_597)\n    tag_599:\n        /* \"#utility.yul\":23140:23146   */\n      dup7\n        /* \"#utility.yul\":23131:23138   */\n      dup4\n        /* \"#utility.yul\":23128:23147   */\n      lt\n        /* \"#utility.yul\":23125:23304   */\n      iszero\n      tag_600\n      jumpi\n        /* \"#utility.yul\":23198:23207   */\n      dup5\n        /* \"#utility.yul\":23193:23196   */\n      dup10\n        /* \"#utility.yul\":23189:23208   */\n      add\n        /* \"#utility.yul\":23183:23209   */\n      mload\n        /* \"#utility.yul\":23241:23289   */\n      tag_601\n        /* \"#utility.yul\":23283:23287   */\n      0x1f\n        /* \"#utility.yul\":23275:23281   */\n      dup10\n        /* \"#utility.yul\":23271:23288   */\n      and\n        /* \"#utility.yul\":23260:23269   */\n      dup3\n        /* \"#utility.yul\":23241:23289   */\n      tag_338\n      jump\t// in\n    tag_601:\n        /* \"#utility.yul\":23233:23239   */\n      dup4\n        /* \"#utility.yul\":23226:23290   */\n      sstore\n        /* \"#utility.yul\":23148:23304   */\n      pop\n        /* \"#utility.yul\":23125:23304   */\n    tag_600:\n        /* \"#utility.yul\":23350:23351   */\n      0x01\n        /* \"#utility.yul\":23346:23347   */\n      0x02\n        /* \"#utility.yul\":23338:23344   */\n      dup9\n        /* \"#utility.yul\":23334:23348   */\n      mul\n        /* \"#utility.yul\":23330:23352   */\n      add\n        /* \"#utility.yul\":23324:23328   */\n      dup9\n        /* \"#utility.yul\":23317:23353   */\n      sstore\n        /* \"#utility.yul\":22752:23363   */\n      pop\n      pop\n      pop\n        /* \"#utility.yul\":22715:23602   */\n    tag_592:\n      pop\n        /* \"#utility.yul\":22305:23608   */\n      pop\n      pop\n      pop\n        /* \"#utility.yul\":22213:23608   */\n      pop\n      pop\n      jump\t// out\n        /* \"#utility.yul\":23638:24469   */\n    tag_340:\n        /* \"#utility.yul\":23723:23726   */\n      0x00\n        /* \"#utility.yul\":23760:23765   */\n      dup2\n        /* \"#utility.yul\":23754:23766   */\n      sload\n        /* \"#utility.yul\":23789:23825   */\n      tag_603\n        /* \"#utility.yul\":23815:23824   */\n      dup2\n        /* \"#utility.yul\":23789:23825   */\n      tag_200\n      jump\t// in\n    tag_603:\n        /* \"#utility.yul\":23841:23912   */\n      tag_604\n        /* \"#utility.yul\":23905:23911   */\n      dup2\n        /* \"#utility.yul\":23900:23903   */\n      dup7\n        /* \"#utility.yul\":23841:23912   */\n      tag_307\n      jump\t// in\n    tag_604:\n        /* \"#utility.yul\":23834:23912   */\n      swap5\n      pop\n        /* \"#utility.yul\":23943:23944   */\n      0x01\n        /* \"#utility.yul\":23932:23941   */\n      dup3\n        /* \"#utility.yul\":23928:23945   */\n      and\n        /* \"#utility.yul\":23959:23960   */\n      0x00\n        /* \"#utility.yul\":23954:24118   */\n      dup2\n      eq\n      tag_606\n      jumpi\n        /* \"#utility.yul\":24132:24133   */\n      0x01\n        /* \"#utility.yul\":24127:24463   */\n      dup2\n      eq\n      tag_607\n      jumpi\n        /* \"#utility.yul\":23921:24463   */\n      jump(tag_605)\n        /* \"#utility.yul\":23954:24118   */\n    tag_606:\n        /* \"#utility.yul\":24038:24042   */\n      0xff\n        /* \"#utility.yul\":24034:24043   */\n      not\n        /* \"#utility.yul\":24023:24032   */\n      dup4\n        /* \"#utility.yul\":24019:24044   */\n      and\n        /* \"#utility.yul\":24014:24017   */\n      dup7\n        /* \"#utility.yul\":24007:24045   */\n      mstore\n        /* \"#utility.yul\":24098:24104   */\n      dup2\n        /* \"#utility.yul\":24091:24105   */\n      iszero\n        /* \"#utility.yul\":24084:24106   */\n      iszero\n        /* \"#utility.yul\":24078:24082   */\n      0x20\n        /* \"#utility.yul\":24074:24107   */\n      mul\n        /* \"#utility.yul\":24069:24072   */\n      dup7\n        /* \"#utility.yul\":24065:24108   */\n      add\n        /* \"#utility.yul\":24058:24108   */\n      swap4\n      pop\n        /* \"#utility.yul\":23954:24118   */\n      jump(tag_605)\n        /* \"#utility.yul\":24127:24463   */\n    tag_607:\n        /* \"#utility.yul\":24194:24232   */\n      tag_608\n        /* \"#utility.yul\":24226:24231   */\n      dup6\n        /* \"#utility.yul\":24194:24232   */\n      tag_325\n      jump\t// in\n    tag_608:\n        /* \"#utility.yul\":24254:24255   */\n      0x00\n        /* \"#utility.yul\":24268:24422   */\n    tag_609:\n        /* \"#utility.yul\":24282:24288   */\n      dup4\n        /* \"#utility.yul\":24279:24280   */\n      dup2\n        /* \"#utility.yul\":24276:24289   */\n      lt\n        /* \"#utility.yul\":24268:24422   */\n      iszero\n      tag_611\n      jumpi\n        /* \"#utility.yul\":24356:24363   */\n      dup2\n        /* \"#utility.yul\":24350:24364   */\n      sload\n        /* \"#utility.yul\":24346:24347   */\n      dup2\n        /* \"#utility.yul\":24341:24344   */\n      dup10\n        /* \"#utility.yul\":24337:24348   */\n      add\n        /* \"#utility.yul\":24330:24365   */\n      mstore\n        /* \"#utility.yul\":24406:24407   */\n      0x01\n        /* \"#utility.yul\":24397:24404   */\n      dup3\n        /* \"#utility.yul\":24393:24408   */\n      add\n        /* \"#utility.yul\":24382:24408   */\n      swap2\n      pop\n        /* \"#utility.yul\":24304:24308   */\n      0x20\n        /* \"#utility.yul\":24301:24302   */\n      dup2\n        /* \"#utility.yul\":24297:24309   */\n      add\n        /* \"#utility.yul\":24292:24309   */\n      swap1\n      pop\n        /* \"#utility.yul\":24268:24422   */\n      jump(tag_609)\n    tag_611:\n        /* \"#utility.yul\":24451:24452   */\n      dup1\n        /* \"#utility.yul\":24446:24449   */\n      dup9\n        /* \"#utility.yul\":24442:24453   */\n      add\n        /* \"#utility.yul\":24435:24453   */\n      swap6\n      pop\n        /* \"#utility.yul\":24134:24463   */\n      pop\n      pop\n        /* \"#utility.yul\":23921:24463   */\n    tag_605:\n      pop\n        /* \"#utility.yul\":23727:24469   */\n      pop\n      pop\n        /* \"#utility.yul\":23638:24469   */\n      swap3\n      swap2\n      pop\n      pop\n      jump\t// out\n        /* \"#utility.yul\":24475:25297   */\n    tag_145:\n        /* \"#utility.yul\":24708:24712   */\n      0x00\n        /* \"#utility.yul\":24746:24749   */\n      0xa0\n        /* \"#utility.yul\":24735:24744   */\n      dup3\n        /* \"#utility.yul\":24731:24750   */\n      add\n        /* \"#utility.yul\":24723:24750   */\n      swap1\n      pop\n        /* \"#utility.yul\":24796:24805   */\n      dup2\n        /* \"#utility.yul\":24790:24794   */\n      dup2\n        /* \"#utility.yul\":24786:24806   */\n      sub\n        /* \"#utility.yul\":24782:24783   */\n      0x00\n        /* \"#utility.yul\":24771:24780   */\n      dup4\n        /* \"#utility.yul\":24767:24784   */\n      add\n        /* \"#utility.yul\":24760:24807   */\n      mstore\n        /* \"#utility.yul\":24824:24899   */\n      tag_613\n        /* \"#utility.yul\":24894:24898   */\n      dup2\n        /* \"#utility.yul\":24885:24891   */\n      dup9\n        /* \"#utility.yul\":24824:24899   */\n      tag_340\n      jump\t// in\n    tag_613:\n        /* \"#utility.yul\":24816:24899   */\n      swap1\n      pop\n        /* \"#utility.yul\":24946:24955   */\n      dup2\n        /* \"#utility.yul\":24940:24944   */\n      dup2\n        /* \"#utility.yul\":24936:24956   */\n      sub\n        /* \"#utility.yul\":24931:24933   */\n      0x20\n        /* \"#utility.yul\":24920:24929   */\n      dup4\n        /* \"#utility.yul\":24916:24934   */\n      add\n        /* \"#utility.yul\":24909:24957   */\n      mstore\n        /* \"#utility.yul\":24974:25049   */\n      tag_614\n        /* \"#utility.yul\":25044:25048   */\n      dup2\n        /* \"#utility.yul\":25035:25041   */\n      dup8\n        /* \"#utility.yul\":24974:25049   */\n      tag_340\n      jump\t// in\n    tag_614:\n        /* \"#utility.yul\":24966:25049   */\n      swap1\n      pop\n        /* \"#utility.yul\":25059:25131   */\n      tag_615\n        /* \"#utility.yul\":25127:25129   */\n      0x40\n        /* \"#utility.yul\":25116:25125   */\n      dup4\n        /* \"#utility.yul\":25112:25130   */\n      add\n        /* \"#utility.yul\":25103:25109   */\n      dup7\n        /* \"#utility.yul\":25059:25131   */\n      tag_303\n      jump\t// in\n    tag_615:\n        /* \"#utility.yul\":25141:25213   */\n      tag_616\n        /* \"#utility.yul\":25209:25211   */\n      0x60\n        /* \"#utility.yul\":25198:25207   */\n      dup4\n        /* \"#utility.yul\":25194:25212   */\n      add\n        /* \"#utility.yul\":25185:25191   */\n      dup6\n        /* \"#utility.yul\":25141:25213   */\n      tag_303\n      jump\t// in\n    tag_616:\n        /* \"#utility.yul\":25223:25290   */\n      tag_617\n        /* \"#utility.yul\":25285:25288   */\n      0x80\n        /* \"#utility.yul\":25274:25283   */\n      dup4\n        /* \"#utility.yul\":25270:25289   */\n      add\n        /* \"#utility.yul\":25261:25267   */\n      dup5\n        /* \"#utility.yul\":25223:25290   */\n      tag_281\n      jump\t// in\n    tag_617:\n        /* \"#utility.yul\":24475:25297   */\n      swap7\n      swap6\n      pop\n      pop\n      pop\n      pop\n      pop\n      pop\n      jump\t// out\n        /* \"#utility.yul\":25303:25472   */\n    tag_341:\n        /* \"#utility.yul\":25443:25464   */\n      0x55736572206e6f7420617574686f72697a656400000000000000000000000000\n        /* \"#utility.yul\":25439:25440   */\n      0x00\n        /* \"#utility.yul\":25431:25437   */\n      dup3\n        /* \"#utility.yul\":25427:25441   */\n      add\n        /* \"#utility.yul\":25420:25465   */\n      mstore\n        /* \"#utility.yul\":25303:25472   */\n      pop\n      jump\t// out\n        /* \"#utility.yul\":25478:25844   */\n    tag_342:\n        /* \"#utility.yul\":25620:25623   */\n      0x00\n        /* \"#utility.yul\":25641:25708   */\n      tag_620\n        /* \"#utility.yul\":25705:25707   */\n      0x13\n        /* \"#utility.yul\":25700:25703   */\n      dup4\n        /* \"#utility.yul\":25641:25708   */\n      tag_307\n      jump\t// in\n    tag_620:\n        /* \"#utility.yul\":25634:25708   */\n      swap2\n      pop\n        /* \"#utility.yul\":25717:25810   */\n      tag_621\n        /* \"#utility.yul\":25806:25809   */\n      dup3\n        /* \"#utility.yul\":25717:25810   */\n      tag_341\n      jump\t// in\n    tag_621:\n        /* \"#utility.yul\":25835:25837   */\n      0x20\n        /* \"#utility.yul\":25830:25833   */\n      dup3\n        /* \"#utility.yul\":25826:25838   */\n      add\n        /* \"#utility.yul\":25819:25838   */\n      swap1\n      pop\n        /* \"#utility.yul\":25478:25844   */\n      swap2\n      swap1\n      pop\n      jump\t// out\n        /* \"#utility.yul\":25850:26269   */\n    tag_164:\n        /* \"#utility.yul\":26016:26020   */\n      0x00\n        /* \"#utility.yul\":26054:26056   */\n      0x20\n        /* \"#utility.yul\":26043:26052   */\n      dup3\n        /* \"#utility.yul\":26039:26057   */\n      add\n        /* \"#utility.yul\":26031:26057   */\n      swap1\n      pop\n        /* \"#utility.yul\":26103:26112   */\n      dup2\n        /* \"#utility.yul\":26097:26101   */\n      dup2\n        /* \"#utility.yul\":26093:26113   */\n      sub\n        /* \"#utility.yul\":26089:26090   */\n      0x00\n        /* \"#utility.yul\":26078:26087   */\n      dup4\n        /* \"#utility.yul\":26074:26091   */\n      add\n        /* \"#utility.yul\":26067:26114   */\n      mstore\n        /* \"#utility.yul\":26131:26262   */\n      tag_623\n        /* \"#utility.yul\":26257:26261   */\n      dup2\n        /* \"#utility.yul\":26131:26262   */\n      tag_342\n      jump\t// in\n    tag_623:\n        /* \"#utility.yul\":26123:26262   */\n      swap1\n      pop\n        /* \"#utility.yul\":25850:26269   */\n      swap2\n      swap1\n      pop\n      jump\t// out\n        /* \"#utility.yul\":26275:26455   */\n    tag_343:\n        /* \"#utility.yul\":26415:26447   */\n      0x456d7074792070726f647563742074797065206e6f7420616c6c6f7765640000\n        /* \"#utility.yul\":26411:26412   */\n      0x00\n        /* \"#utility.yul\":26403:26409   */\n      dup3\n        /* \"#utility.yul\":26399:26413   */\n      add\n        /* \"#utility.yul\":26392:26448   */\n      mstore\n        /* \"#utility.yul\":26275:26455   */\n      pop\n      jump\t// out\n        /* \"#utility.yul\":26461:26827   */\n    tag_344:\n        /* \"#utility.yul\":26603:26606   */\n      0x00\n        /* \"#utility.yul\":26624:26691   */\n      tag_626\n        /* \"#utility.yul\":26688:26690   */\n      0x1e\n        /* \"#utility.yul\":26683:26686   */\n      dup4\n        /* \"#utility.yul\":26624:26691   */\n      tag_307\n      jump\t// in\n    tag_626:\n        /* \"#utility.yul\":26617:26691   */\n      swap2\n      pop\n        /* \"#utility.yul\":26700:26793   */\n      tag_627\n        /* \"#utility.yul\":26789:26792   */\n      dup3\n        /* \"#utility.yul\":26700:26793   */\n      tag_343\n      jump\t// in\n    tag_627:\n        /* \"#utility.yul\":26818:26820   */\n      0x20\n        /* \"#utility.yul\":26813:26816   */\n      dup3\n        /* \"#utility.yul\":26809:26821   */\n      add\n        /* \"#utility.yul\":26802:26821   */\n      swap1\n      pop\n        /* \"#utility.yul\":26461:26827   */\n      swap2\n      swap1\n      pop\n      jump\t// out\n        /* \"#utility.yul\":26833:27252   */\n    tag_168:\n        /* \"#utility.yul\":26999:27003   */\n      0x00\n        /* \"#utility.yul\":27037:27039   */\n      0x20\n        /* \"#utility.yul\":27026:27035   */\n      dup3\n        /* \"#utility.yul\":27022:27040   */\n      add\n        /* \"#utility.yul\":27014:27040   */\n      swap1\n      pop\n        /* \"#utility.yul\":27086:27095   */\n      dup2\n        /* \"#utility.yul\":27080:27084   */\n      dup2\n        /* \"#utility.yul\":27076:27096   */\n      sub\n        /* \"#utility.yul\":27072:27073   */\n      0x00\n        /* \"#utility.yul\":27061:27070   */\n      dup4\n        /* \"#utility.yul\":27057:27074   */\n      add\n        /* \"#utility.yul\":27050:27097   */\n      mstore\n        /* \"#utility.yul\":27114:27245   */\n      tag_629\n        /* \"#utility.yul\":27240:27244   */\n      dup2\n        /* \"#utility.yul\":27114:27245   */\n      tag_344\n      jump\t// in\n    tag_629:\n        /* \"#utility.yul\":27106:27245   */\n      swap1\n      pop\n        /* \"#utility.yul\":26833:27252   */\n      swap2\n      swap1\n      pop\n      jump\t// out\n        /* \"#utility.yul\":27258:27438   */\n    tag_345:\n        /* \"#utility.yul\":27398:27430   */\n      0x456d7074792070726f64756374206e616d65206e6f7420616c6c6f7765640000\n        /* \"#utility.yul\":27394:27395   */\n      0x00\n        /* \"#utility.yul\":27386:27392   */\n      dup3\n        /* \"#utility.yul\":27382:27396   */\n      add\n        /* \"#utility.yul\":27375:27431   */\n      mstore\n        /* \"#utility.yul\":27258:27438   */\n      pop\n      jump\t// out\n        /* \"#utility.yul\":27444:27810   */\n    tag_346:\n        /* \"#utility.yul\":27586:27589   */\n      0x00\n        /* \"#utility.yul\":27607:27674   */\n      tag_632\n        /* \"#utility.yul\":27671:27673   */\n      0x1e\n        /* \"#utility.yul\":27666:27669   */\n      dup4\n        /* \"#utility.yul\":27607:27674   */\n      tag_307\n      jump\t// in\n    tag_632:\n        /* \"#utility.yul\":27600:27674   */\n      swap2\n      pop\n        /* \"#utility.yul\":27683:27776   */\n      tag_633\n        /* \"#utility.yul\":27772:27775   */\n      dup3\n        /* \"#utility.yul\":27683:27776   */\n      tag_345\n      jump\t// in\n    tag_633:\n        /* \"#utility.yul\":27801:27803   */\n      0x20\n        /* \"#utility.yul\":27796:27799   */\n      dup3\n        /* \"#utility.yul\":27792:27804   */\n      add\n        /* \"#utility.yul\":27785:27804   */\n      swap1\n      pop\n        /* \"#utility.yul\":27444:27810   */\n      swap2\n      swap1\n      pop\n      jump\t// out\n        /* \"#utility.yul\":27816:28235   */\n    tag_171:\n        /* \"#utility.yul\":27982:27986   */\n      0x00\n        /* \"#utility.yul\":28020:28022   */\n      0x20\n        /* \"#utility.yul\":28009:28018   */\n      dup3\n        /* \"#utility.yul\":28005:28023   */\n      add\n        /* \"#utility.yul\":27997:28023   */\n      swap1\n      pop\n        /* \"#utility.yul\":28069:28078   */\n      dup2\n        /* \"#utility.yul\":28063:28067   */\n      dup2\n        /* \"#utility.yul\":28059:28079   */\n      sub\n        /* \"#utility.yul\":28055:28056   */\n      0x00\n        /* \"#utility.yul\":28044:28053   */\n      dup4\n        /* \"#utility.yul\":28040:28057   */\n      add\n        /* \"#utility.yul\":28033:28080   */\n      mstore\n        /* \"#utility.yul\":28097:28228   */\n      tag_635\n        /* \"#utility.yul\":28223:28227   */\n      dup2\n        /* \"#utility.yul\":28097:28228   */\n      tag_346\n      jump\t// in\n    tag_635:\n        /* \"#utility.yul\":28089:28228   */\n      swap1\n      pop\n        /* \"#utility.yul\":27816:28235   */\n      swap2\n      swap1\n      pop\n      jump\t// out\n        /* \"#utility.yul\":28241:28419   */\n    tag_347:\n        /* \"#utility.yul\":28381:28411   */\n      0x456d707479206272616e64206e616d65206e6f7420616c6c6f77656400000000\n        /* \"#utility.yul\":28377:28378   */\n      0x00\n        /* \"#utility.yul\":28369:28375   */\n      dup3\n        /* \"#utility.yul\":28365:28379   */\n      add\n        /* \"#utility.yul\":28358:28412   */\n      mstore\n        /* \"#utility.yul\":28241:28419   */\n      pop\n      jump\t// out\n        /* \"#utility.yul\":28425:28791   */\n    tag_348:\n        /* \"#utility.yul\":28567:28570   */\n      0x00\n        /* \"#utility.yul\":28588:28655   */\n      tag_638\n        /* \"#utility.yul\":28652:28654   */\n      0x1c\n        /* \"#utility.yul\":28647:28650   */\n      dup4\n        /* \"#utility.yul\":28588:28655   */\n      tag_307\n      jump\t// in\n    tag_638:\n        /* \"#utility.yul\":28581:28655   */\n      swap2\n      pop\n        /* \"#utility.yul\":28664:28757   */\n      tag_639\n        /* \"#utility.yul\":28753:28756   */\n      dup3\n        /* \"#utility.yul\":28664:28757   */\n      tag_347\n      jump\t// in\n    tag_639:\n        /* \"#utility.yul\":28782:28784   */\n      0x20\n        /* \"#utility.yul\":28777:28780   */\n      dup3\n        /* \"#utility.yul\":28773:28785   */\n      add\n        /* \"#utility.yul\":28766:28785   */\n      swap1\n      pop\n        /* \"#utility.yul\":28425:28791   */\n      swap2\n      swap1\n      pop\n      jump\t// out\n        /* \"#utility.yul\":28797:29216   */\n    tag_174:\n        /* \"#utility.yul\":28963:28967   */\n      0x00\n        /* \"#utility.yul\":29001:29003   */\n      0x20\n        /* \"#utility.yul\":28990:28999   */\n      dup3\n        /* \"#utility.yul\":28986:29004   */\n      add\n        /* \"#utility.yul\":28978:29004   */\n      swap1\n      pop\n        /* \"#utility.yul\":29050:29059   */\n      dup2\n        /* \"#utility.yul\":29044:29048   */\n      dup2\n        /* \"#utility.yul\":29040:29060   */\n      sub\n        /* \"#utility.yul\":29036:29037   */\n      0x00\n        /* \"#utility.yul\":29025:29034   */\n      dup4\n        /* \"#utility.yul\":29021:29038   */\n      add\n        /* \"#utility.yul\":29014:29061   */\n      mstore\n        /* \"#utility.yul\":29078:29209   */\n      tag_641\n        /* \"#utility.yul\":29204:29208   */\n      dup2\n        /* \"#utility.yul\":29078:29209   */\n      tag_348\n      jump\t// in\n    tag_641:\n        /* \"#utility.yul\":29070:29209   */\n      swap1\n      pop\n        /* \"#utility.yul\":28797:29216   */\n      swap2\n      swap1\n      pop\n      jump\t// out\n        /* \"#utility.yul\":29222:29443   */\n    tag_349:\n        /* \"#utility.yul\":29362:29396   */\n      0x5175616e74697479206d7573742062652067726561746572207468616e207a65\n        /* \"#utility.yul\":29358:29359   */\n      0x00\n        /* \"#utility.yul\":29350:29356   */\n      dup3\n        /* \"#utility.yul\":29346:29360   */\n      add\n        /* \"#utility.yul\":29339:29397   */\n      mstore\n        /* \"#utility.yul\":29431:29435   */\n      0x726f000000000000000000000000000000000000000000000000000000000000\n        /* \"#utility.yul\":29426:29428   */\n      0x20\n        /* \"#utility.yul\":29418:29424   */\n      dup3\n        /* \"#utility.yul\":29414:29429   */\n      add\n        /* \"#utility.yul\":29407:29436   */\n      mstore\n        /* \"#utility.yul\":29222:29443   */\n      pop\n      jump\t// out\n        /* \"#utility.yul\":29449:29815   */\n    tag_350:\n        /* \"#utility.yul\":29591:29594   */\n      0x00\n        /* \"#utility.yul\":29612:29679   */\n      tag_644\n        /* \"#utility.yul\":29676:29678   */\n      0x22\n        /* \"#utility.yul\":29671:29674   */\n      dup4\n        /* \"#utility.yul\":29612:29679   */\n      tag_307\n      jump\t// in\n    tag_644:\n        /* \"#utility.yul\":29605:29679   */\n      swap2\n      pop\n        /* \"#utility.yul\":29688:29781   */\n      tag_645\n        /* \"#utility.yul\":29777:29780   */\n      dup3\n        /* \"#utility.yul\":29688:29781   */\n      tag_349\n      jump\t// in\n    tag_645:\n        /* \"#utility.yul\":29806:29808   */\n      0x40\n        /* \"#utility.yul\":29801:29804   */\n      dup3\n        /* \"#utility.yul\":29797:29809   */\n      add\n        /* \"#utility.yul\":29790:29809   */\n      swap1\n      pop\n        /* \"#utility.yul\":29449:29815   */\n      swap2\n      swap1\n      pop\n      jump\t// out\n        /* \"#utility.yul\":29821:30240   */\n    tag_177:\n        /* \"#utility.yul\":29987:29991   */\n      0x00\n        /* \"#utility.yul\":30025:30027   */\n      0x20\n        /* \"#utility.yul\":30014:30023   */\n      dup3\n        /* \"#utility.yul\":30010:30028   */\n      add\n        /* \"#utility.yul\":30002:30028   */\n      swap1\n      pop\n        /* \"#utility.yul\":30074:30083   */\n      dup2\n        /* \"#utility.yul\":30068:30072   */\n      dup2\n        /* \"#utility.yul\":30064:30084   */\n      sub\n        /* \"#utility.yul\":30060:30061   */\n      0x00\n        /* \"#utility.yul\":30049:30058   */\n      dup4\n        /* \"#utility.yul\":30045:30062   */\n      add\n        /* \"#utility.yul\":30038:30085   */\n      mstore\n        /* \"#utility.yul\":30102:30233   */\n      tag_647\n        /* \"#utility.yul\":30228:30232   */\n      dup2\n        /* \"#utility.yul\":30102:30233   */\n      tag_350\n      jump\t// in\n    tag_647:\n        /* \"#utility.yul\":30094:30233   */\n      swap1\n      pop\n        /* \"#utility.yul\":29821:30240   */\n      swap2\n      swap1\n      pop\n      jump\t// out\n        /* \"#utility.yul\":30270:31081   */\n    tag_351:\n        /* \"#utility.yul\":30345:30348   */\n      0x00\n        /* \"#utility.yul\":30382:30387   */\n      dup2\n        /* \"#utility.yul\":30376:30388   */\n      sload\n        /* \"#utility.yul\":30411:30447   */\n      tag_649\n        /* \"#utility.yul\":30437:30446   */\n      dup2\n        /* \"#utility.yul\":30411:30447   */\n      tag_200\n      jump\t// in\n    tag_649:\n        /* \"#utility.yul\":30463:30524   */\n      tag_650\n        /* \"#utility.yul\":30517:30523   */\n      dup2\n        /* \"#utility.yul\":30512:30515   */\n      dup7\n        /* \"#utility.yul\":30463:30524   */\n      tag_310\n      jump\t// in\n    tag_650:\n        /* \"#utility.yul\":30456:30524   */\n      swap5\n      pop\n        /* \"#utility.yul\":30555:30556   */\n      0x01\n        /* \"#utility.yul\":30544:30553   */\n      dup3\n        /* \"#utility.yul\":30540:30557   */\n      and\n        /* \"#utility.yul\":30571:30572   */\n      0x00\n        /* \"#utility.yul\":30566:30730   */\n      dup2\n      eq\n      tag_652\n      jumpi\n        /* \"#utility.yul\":30744:30745   */\n      0x01\n        /* \"#utility.yul\":30739:31075   */\n      dup2\n      eq\n      tag_653\n      jumpi\n        /* \"#utility.yul\":30533:31075   */\n      jump(tag_651)\n        /* \"#utility.yul\":30566:30730   */\n    tag_652:\n        /* \"#utility.yul\":30650:30654   */\n      0xff\n        /* \"#utility.yul\":30646:30655   */\n      not\n        /* \"#utility.yul\":30635:30644   */\n      dup4\n        /* \"#utility.yul\":30631:30656   */\n      and\n        /* \"#utility.yul\":30626:30629   */\n      dup7\n        /* \"#utility.yul\":30619:30657   */\n      mstore\n        /* \"#utility.yul\":30710:30716   */\n      dup2\n        /* \"#utility.yul\":30703:30717   */\n      iszero\n        /* \"#utility.yul\":30696:30718   */\n      iszero\n        /* \"#utility.yul\":30690:30694   */\n      0x20\n        /* \"#utility.yul\":30686:30719   */\n      mul\n        /* \"#utility.yul\":30681:30684   */\n      dup7\n        /* \"#utility.yul\":30677:30720   */\n      add\n        /* \"#utility.yul\":30670:30720   */\n      swap4\n      pop\n        /* \"#utility.yul\":30566:30730   */\n      jump(tag_651)\n        /* \"#utility.yul\":30739:31075   */\n    tag_653:\n        /* \"#utility.yul\":30806:30844   */\n      tag_654\n        /* \"#utility.yul\":30838:30843   */\n      dup6\n        /* \"#utility.yul\":30806:30844   */\n      tag_325\n      jump\t// in\n    tag_654:\n        /* \"#utility.yul\":30866:30867   */\n      0x00\n        /* \"#utility.yul\":30880:31034   */\n    tag_655:\n        /* \"#utility.yul\":30894:30900   */\n      dup4\n        /* \"#utility.yul\":30891:30892   */\n      dup2\n        /* \"#utility.yul\":30888:30901   */\n      lt\n        /* \"#utility.yul\":30880:31034   */\n      iszero\n      tag_657\n      jumpi\n        /* \"#utility.yul\":30968:30975   */\n      dup2\n        /* \"#utility.yul\":30962:30976   */\n      sload\n        /* \"#utility.yul\":30958:30959   */\n      dup2\n        /* \"#utility.yul\":30953:30956   */\n      dup10\n        /* \"#utility.yul\":30949:30960   */\n      add\n        /* \"#utility.yul\":30942:30977   */\n      mstore\n        /* \"#utility.yul\":31018:31019   */\n      0x01\n        /* \"#utility.yul\":31009:31016   */\n      dup3\n        /* \"#utility.yul\":31005:31020   */\n      add\n        /* \"#utility.yul\":30994:31020   */\n      swap2\n      pop\n        /* \"#utility.yul\":30916:30920   */\n      0x20\n        /* \"#utility.yul\":30913:30914   */\n      dup2\n        /* \"#utility.yul\":30909:30921   */\n      add\n        /* \"#utility.yul\":30904:30921   */\n      swap1\n      pop\n        /* \"#utility.yul\":30880:31034   */\n      jump(tag_655)\n    tag_657:\n        /* \"#utility.yul\":31063:31064   */\n      dup1\n        /* \"#utility.yul\":31058:31061   */\n      dup9\n        /* \"#utility.yul\":31054:31065   */\n      add\n        /* \"#utility.yul\":31047:31065   */\n      swap6\n      pop\n        /* \"#utility.yul\":30746:31075   */\n      pop\n      pop\n        /* \"#utility.yul\":30533:31075   */\n    tag_651:\n      pop\n        /* \"#utility.yul\":30349:31081   */\n      pop\n      pop\n        /* \"#utility.yul\":30270:31081   */\n      swap3\n      swap2\n      pop\n      pop\n      jump\t// out\n        /* \"#utility.yul\":31087:31189   */\n    tag_352:\n        /* \"#utility.yul\":31129:31137   */\n      0x00\n        /* \"#utility.yul\":31176:31181   */\n      dup2\n        /* \"#utility.yul\":31173:31174   */\n      0x00\n        /* \"#utility.yul\":31169:31182   */\n      shr\n        /* \"#utility.yul\":31148:31182   */\n      swap1\n      pop\n        /* \"#utility.yul\":31087:31189   */\n      swap2\n      swap1\n      pop\n      jump\t// out\n        /* \"#utility.yul\":31195:31285   */\n    tag_353:\n        /* \"#utility.yul\":31245:31252   */\n      0x00\n        /* \"#utility.yul\":31274:31279   */\n      dup2\n        /* \"#utility.yul\":31263:31279   */\n      swap1\n      pop\n        /* \"#utility.yul\":31195:31285   */\n      swap2\n      swap1\n      pop\n      jump\t// out\n        /* \"#utility.yul\":31291:31457   */\n    tag_354:\n        /* \"#utility.yul\":31360:31365   */\n      0x00\n        /* \"#utility.yul\":31385:31451   */\n      tag_661\n        /* \"#utility.yul\":31416:31450   */\n      tag_662\n        /* \"#utility.yul\":31439:31449   */\n      dup4\n        /* \"#utility.yul\":31416:31450   */\n      tag_352\n      jump\t// in\n    tag_662:\n        /* \"#utility.yul\":31385:31451   */\n      tag_353\n      jump\t// in\n    tag_661:\n        /* \"#utility.yul\":31376:31451   */\n      swap1\n      pop\n        /* \"#utility.yul\":31291:31457   */\n      swap2\n      swap1\n      pop\n      jump\t// out\n        /* \"#utility.yul\":31463:31561   */\n    tag_355:\n        /* \"#utility.yul\":31510:31517   */\n      0x00\n        /* \"#utility.yul\":31550:31554   */\n      0xff\n        /* \"#utility.yul\":31543:31548   */\n      dup3\n        /* \"#utility.yul\":31539:31555   */\n      and\n        /* \"#utility.yul\":31528:31555   */\n      swap1\n      pop\n        /* \"#utility.yul\":31463:31561   */\n      swap2\n      swap1\n      pop\n      jump\t// out\n        /* \"#utility.yul\":31567:31727   */\n    tag_356:\n        /* \"#utility.yul\":31633:31638   */\n      0x00\n        /* \"#utility.yul\":31658:31721   */\n      tag_665\n        /* \"#utility.yul\":31686:31720   */\n      tag_666\n        /* \"#utility.yul\":31709:31719   */\n      dup4\n        /* \"#utility.yul\":31686:31720   */\n      tag_352\n      jump\t// in\n    tag_666:\n        /* \"#utility.yul\":31658:31721   */\n      tag_355\n      jump\t// in\n    tag_665:\n        /* \"#utility.yul\":31649:31721   */\n      swap1\n      pop\n        /* \"#utility.yul\":31567:31727   */\n      swap2\n      swap1\n      pop\n      jump\t// out\n        /* \"#utility.yul\":31733:31835   */\n    tag_357:\n        /* \"#utility.yul\":31775:31783   */\n      0x00\n        /* \"#utility.yul\":31822:31827   */\n      dup2\n        /* \"#utility.yul\":31819:31820   */\n      0x08\n        /* \"#utility.yul\":31815:31828   */\n      shr\n        /* \"#utility.yul\":31794:31828   */\n      swap1\n      pop\n        /* \"#utility.yul\":31733:31835   */\n      swap2\n      swap1\n      pop\n      jump\t// out\n        /* \"#utility.yul\":31841:32001   */\n    tag_358:\n        /* \"#utility.yul\":31907:31912   */\n      0x00\n        /* \"#utility.yul\":31932:31995   */\n      tag_669\n        /* \"#utility.yul\":31960:31994   */\n      tag_670\n        /* \"#utility.yul\":31983:31993   */\n      dup4\n        /* \"#utility.yul\":31960:31994   */\n      tag_357\n      jump\t// in\n    tag_670:\n        /* \"#utility.yul\":31932:31995   */\n      tag_355\n      jump\t// in\n    tag_669:\n        /* \"#utility.yul\":31923:31995   */\n      swap1\n      pop\n        /* \"#utility.yul\":31841:32001   */\n      swap2\n      swap1\n      pop\n      jump\t// out\n        /* \"#utility.yul\":32079:33729   */\n    tag_359:\n        /* \"#utility.yul\":32195:32198   */\n      0x00\n        /* \"#utility.yul\":32231:32235   */\n      0xc0\n        /* \"#utility.yul\":32226:32229   */\n      dup4\n        /* \"#utility.yul\":32222:32236   */\n      add\n        /* \"#utility.yul\":32262:32263   */\n      0x00\n        /* \"#utility.yul\":32339:32343   */\n      dup1\n        /* \"#utility.yul\":32332:32337   */\n      dup5\n        /* \"#utility.yul\":32328:32344   */\n      add\n        /* \"#utility.yul\":32391:32394   */\n      dup6\n        /* \"#utility.yul\":32385:32389   */\n      dup4\n        /* \"#utility.yul\":32381:32395   */\n      sub\n        /* \"#utility.yul\":32374:32378   */\n      0x00\n        /* \"#utility.yul\":32369:32372   */\n      dup8\n        /* \"#utility.yul\":32365:32379   */\n      add\n        /* \"#utility.yul\":32358:32396   */\n      mstore\n        /* \"#utility.yul\":32417:32487   */\n      tag_672\n        /* \"#utility.yul\":32482:32486   */\n      dup4\n        /* \"#utility.yul\":32468:32480   */\n      dup3\n        /* \"#utility.yul\":32417:32487   */\n      tag_351\n      jump\t// in\n    tag_672:\n        /* \"#utility.yul\":32409:32487   */\n      swap3\n      pop\n        /* \"#utility.yul\":32273:32498   */\n      pop\n        /* \"#utility.yul\":32579:32583   */\n      0x01\n        /* \"#utility.yul\":32572:32577   */\n      dup5\n        /* \"#utility.yul\":32568:32584   */\n      add\n        /* \"#utility.yul\":32631:32634   */\n      dup6\n        /* \"#utility.yul\":32625:32629   */\n      dup4\n        /* \"#utility.yul\":32621:32635   */\n      sub\n        /* \"#utility.yul\":32614:32618   */\n      0x20\n        /* \"#utility.yul\":32609:32612   */\n      dup8\n        /* \"#utility.yul\":32605:32619   */\n      add\n        /* \"#utility.yul\":32598:32636   */\n      mstore\n        /* \"#utility.yul\":32657:32727   */\n      tag_673\n        /* \"#utility.yul\":32722:32726   */\n      dup4\n        /* \"#utility.yul\":32708:32720   */\n      dup3\n        /* \"#utility.yul\":32657:32727   */\n      tag_351\n      jump\t// in\n    tag_673:\n        /* \"#utility.yul\":32649:32727   */\n      swap3\n      pop\n        /* \"#utility.yul\":32508:32738   */\n      pop\n        /* \"#utility.yul\":32817:32821   */\n      0x02\n        /* \"#utility.yul\":32810:32815   */\n      dup5\n        /* \"#utility.yul\":32806:32822   */\n      add\n        /* \"#utility.yul\":32800:32823   */\n      sload\n        /* \"#utility.yul\":32787:32823   */\n      swap1\n      pop\n        /* \"#utility.yul\":32856:32911   */\n      tag_674\n        /* \"#utility.yul\":32901:32910   */\n      dup2\n        /* \"#utility.yul\":32856:32911   */\n      tag_354\n      jump\t// in\n    tag_674:\n        /* \"#utility.yul\":32924:32987   */\n      tag_675\n        /* \"#utility.yul\":32981:32985   */\n      0x40\n        /* \"#utility.yul\":32976:32979   */\n      dup8\n        /* \"#utility.yul\":32972:32986   */\n      add\n        /* \"#utility.yul\":32958:32970   */\n      dup3\n        /* \"#utility.yul\":32924:32987   */\n      tag_312\n      jump\t// in\n    tag_675:\n        /* \"#utility.yul\":32748:32997   */\n      pop\n        /* \"#utility.yul\":33074:33078   */\n      0x03\n        /* \"#utility.yul\":33067:33072   */\n      dup5\n        /* \"#utility.yul\":33063:33079   */\n      add\n        /* \"#utility.yul\":33057:33080   */\n      sload\n        /* \"#utility.yul\":33044:33080   */\n      swap1\n      pop\n        /* \"#utility.yul\":33113:33165   */\n      tag_676\n        /* \"#utility.yul\":33155:33164   */\n      dup2\n        /* \"#utility.yul\":33113:33165   */\n      tag_356\n      jump\t// in\n    tag_676:\n        /* \"#utility.yul\":33178:33235   */\n      tag_677\n        /* \"#utility.yul\":33229:33233   */\n      0x60\n        /* \"#utility.yul\":33224:33227   */\n      dup8\n        /* \"#utility.yul\":33220:33234   */\n      add\n        /* \"#utility.yul\":33206:33218   */\n      dup3\n        /* \"#utility.yul\":33178:33235   */\n      tag_313\n      jump\t// in\n    tag_677:\n        /* \"#utility.yul\":33007:33245   */\n      pop\n        /* \"#utility.yul\":33313:33365   */\n      tag_678\n        /* \"#utility.yul\":33355:33364   */\n      dup2\n        /* \"#utility.yul\":33313:33365   */\n      tag_358\n      jump\t// in\n    tag_678:\n        /* \"#utility.yul\":33378:33435   */\n      tag_679\n        /* \"#utility.yul\":33429:33433   */\n      0x80\n        /* \"#utility.yul\":33424:33427   */\n      dup8\n        /* \"#utility.yul\":33420:33434   */\n      add\n        /* \"#utility.yul\":33406:33418   */\n      dup3\n        /* \"#utility.yul\":33378:33435   */\n      tag_313\n      jump\t// in\n    tag_679:\n        /* \"#utility.yul\":33255:33445   */\n      pop\n        /* \"#utility.yul\":33522:33526   */\n      0x04\n        /* \"#utility.yul\":33515:33520   */\n      dup5\n        /* \"#utility.yul\":33511:33527   */\n      add\n        /* \"#utility.yul\":33505:33528   */\n      sload\n        /* \"#utility.yul\":33492:33528   */\n      swap1\n      pop\n        /* \"#utility.yul\":33561:33616   */\n      tag_680\n        /* \"#utility.yul\":33606:33615   */\n      dup2\n        /* \"#utility.yul\":33561:33616   */\n      tag_354\n      jump\t// in\n    tag_680:\n        /* \"#utility.yul\":33629:33692   */\n      tag_681\n        /* \"#utility.yul\":33686:33690   */\n      0xa0\n        /* \"#utility.yul\":33681:33684   */\n      dup8\n        /* \"#utility.yul\":33677:33691   */\n      add\n        /* \"#utility.yul\":33663:33675   */\n      dup3\n        /* \"#utility.yul\":33629:33692   */\n      tag_312\n      jump\t// in\n    tag_681:\n        /* \"#utility.yul\":33455:33702   */\n      pop\n        /* \"#utility.yul\":33719:33723   */\n      dup2\n        /* \"#utility.yul\":33712:33723   */\n      swap3\n      pop\n        /* \"#utility.yul\":32200:33729   */\n      pop\n      pop\n        /* \"#utility.yul\":32079:33729   */\n      swap3\n      swap2\n      pop\n      pop\n      jump\t// out\n        /* \"#utility.yul\":33735:34817   */\n    tag_187:\n        /* \"#utility.yul\":34047:34051   */\n      0x00\n        /* \"#utility.yul\":34085:34088   */\n      0xa0\n        /* \"#utility.yul\":34074:34083   */\n      dup3\n        /* \"#utility.yul\":34070:34089   */\n      add\n        /* \"#utility.yul\":34062:34089   */\n      swap1\n      pop\n        /* \"#utility.yul\":34135:34144   */\n      dup2\n        /* \"#utility.yul\":34129:34133   */\n      dup2\n        /* \"#utility.yul\":34125:34145   */\n      sub\n        /* \"#utility.yul\":34121:34122   */\n      0x00\n        /* \"#utility.yul\":34110:34119   */\n      dup4\n        /* \"#utility.yul\":34106:34123   */\n      add\n        /* \"#utility.yul\":34099:34146   */\n      mstore\n        /* \"#utility.yul\":34163:34241   */\n      tag_683\n        /* \"#utility.yul\":34236:34240   */\n      dup2\n        /* \"#utility.yul\":34227:34233   */\n      dup9\n        /* \"#utility.yul\":34163:34241   */\n      tag_309\n      jump\t// in\n    tag_683:\n        /* \"#utility.yul\":34155:34241   */\n      swap1\n      pop\n        /* \"#utility.yul\":34288:34297   */\n      dup2\n        /* \"#utility.yul\":34282:34286   */\n      dup2\n        /* \"#utility.yul\":34278:34298   */\n      sub\n        /* \"#utility.yul\":34273:34275   */\n      0x20\n        /* \"#utility.yul\":34262:34271   */\n      dup4\n        /* \"#utility.yul\":34258:34276   */\n      add\n        /* \"#utility.yul\":34251:34299   */\n      mstore\n        /* \"#utility.yul\":34316:34394   */\n      tag_684\n        /* \"#utility.yul\":34389:34393   */\n      dup2\n        /* \"#utility.yul\":34380:34386   */\n      dup8\n        /* \"#utility.yul\":34316:34394   */\n      tag_309\n      jump\t// in\n    tag_684:\n        /* \"#utility.yul\":34308:34394   */\n      swap1\n      pop\n        /* \"#utility.yul\":34441:34450   */\n      dup2\n        /* \"#utility.yul\":34435:34439   */\n      dup2\n        /* \"#utility.yul\":34431:34451   */\n      sub\n        /* \"#utility.yul\":34426:34428   */\n      0x40\n        /* \"#utility.yul\":34415:34424   */\n      dup4\n        /* \"#utility.yul\":34411:34429   */\n      add\n        /* \"#utility.yul\":34404:34452   */\n      mstore\n        /* \"#utility.yul\":34469:34547   */\n      tag_685\n        /* \"#utility.yul\":34542:34546   */\n      dup2\n        /* \"#utility.yul\":34533:34539   */\n      dup7\n        /* \"#utility.yul\":34469:34547   */\n      tag_309\n      jump\t// in\n    tag_685:\n        /* \"#utility.yul\":34461:34547   */\n      swap1\n      pop\n        /* \"#utility.yul\":34557:34629   */\n      tag_686\n        /* \"#utility.yul\":34625:34627   */\n      0x60\n        /* \"#utility.yul\":34614:34623   */\n      dup4\n        /* \"#utility.yul\":34610:34628   */\n      add\n        /* \"#utility.yul\":34601:34607   */\n      dup6\n        /* \"#utility.yul\":34557:34629   */\n      tag_303\n      jump\t// in\n    tag_686:\n        /* \"#utility.yul\":34677:34686   */\n      dup2\n        /* \"#utility.yul\":34671:34675   */\n      dup2\n        /* \"#utility.yul\":34667:34687   */\n      sub\n        /* \"#utility.yul\":34661:34664   */\n      0x80\n        /* \"#utility.yul\":34650:34659   */\n      dup4\n        /* \"#utility.yul\":34646:34665   */\n      add\n        /* \"#utility.yul\":34639:34688   */\n      mstore\n        /* \"#utility.yul\":34705:34810   */\n      tag_687\n        /* \"#utility.yul\":34805:34809   */\n      dup2\n        /* \"#utility.yul\":34796:34802   */\n      dup5\n        /* \"#utility.yul\":34705:34810   */\n      tag_359\n      jump\t// in\n    tag_687:\n        /* \"#utility.yul\":34697:34810   */\n      swap1\n      pop\n        /* \"#utility.yul\":33735:34817   */\n      swap7\n      swap6\n      pop\n      pop\n      pop\n      pop\n      pop\n      pop\n      jump\t// out\n        /* \"#utility.yul\":34823:35003   */\n    tag_360:\n        /* \"#utility.yul\":34871:34948   */\n      0x4e487b7100000000000000000000000000000000000000000000000000000000\n        /* \"#utility.yul\":34868:34869   */\n      0x00\n        /* \"#utility.yul\":34861:34949   */\n      mstore\n        /* \"#utility.yul\":34968:34972   */\n      0x11\n        /* \"#utility.yul\":34965:34966   */\n      0x04\n        /* \"#utility.yul\":34958:34973   */\n      mstore\n        /* \"#utility.yul\":34992:34996   */\n      0x24\n        /* \"#utility.yul\":34989:34990   */\n      0x00\n        /* \"#utility.yul\":34982:34997   */\n      revert\n        /* \"#utility.yul\":35009:35242   */\n    tag_189:\n        /* \"#utility.yul\":35048:35051   */\n      0x00\n        /* \"#utility.yul\":35071:35095   */\n      tag_690\n        /* \"#utility.yul\":35089:35094   */\n      dup3\n        /* \"#utility.yul\":35071:35095   */\n      tag_288\n      jump\t// in\n    tag_690:\n        /* \"#utility.yul\":35062:35095   */\n      swap2\n      pop\n        /* \"#utility.yul\":35117:35183   */\n      0xffffffffffffffffffffffffffffffffffffffffffffffffffffffffffffffff\n        /* \"#utility.yul\":35110:35115   */\n      dup3\n        /* \"#utility.yul\":35107:35184   */\n      sub\n        /* \"#utility.yul\":35104:35207   */\n      tag_691\n      jumpi\n        /* \"#utility.yul\":35187:35205   */\n      tag_692\n      tag_360\n      jump\t// in\n    tag_692:\n        /* \"#utility.yul\":35104:35207   */\n    tag_691:\n        /* \"#utility.yul\":35234:35235   */\n      0x01\n        /* \"#utility.yul\":35227:35232   */\n      dup3\n        /* \"#utility.yul\":35223:35236   */\n      add\n        /* \"#utility.yul\":35216:35236   */\n      swap1\n      pop\n        /* \"#utility.yul\":35009:35242   */\n      swap2\n      swap1\n      pop\n      jump\t// out\n        /* \"#utility.yul\":35248:35580   */\n    tag_273:\n        /* \"#utility.yul\":35369:35373   */\n      0x00\n        /* \"#utility.yul\":35407:35409   */\n      0x40\n        /* \"#utility.yul\":35396:35405   */\n      dup3\n        /* \"#utility.yul\":35392:35410   */\n      add\n        /* \"#utility.yul\":35384:35410   */\n      swap1\n      pop\n        /* \"#utility.yul\":35420:35491   */\n      tag_694\n        /* \"#utility.yul\":35488:35489   */\n      0x00\n        /* \"#utility.yul\":35477:35486   */\n      dup4\n        /* \"#utility.yul\":35473:35490   */\n      add\n        /* \"#utility.yul\":35464:35470   */\n      dup6\n        /* \"#utility.yul\":35420:35491   */\n      tag_315\n      jump\t// in\n    tag_694:\n        /* \"#utility.yul\":35501:35573   */\n      tag_695\n        /* \"#utility.yul\":35569:35571   */\n      0x20\n        /* \"#utility.yul\":35558:35567   */\n      dup4\n        /* \"#utility.yul\":35554:35572   */\n      add\n        /* \"#utility.yul\":35545:35551   */\n      dup5\n        /* \"#utility.yul\":35501:35573   */\n      tag_283\n      jump\t// in\n    tag_695:\n        /* \"#utility.yul\":35248:35580   */\n      swap4\n      swap3\n      pop\n      pop\n      pop\n      jump\t// out\n\n    auxdata: 0xa2646970667358221220aaad44542d7bb362740a3096916907de02ff797b2e878626819eec02158c241664736f6c634300081a0033\n}\n",
				"bytecode": {
					"linkReferences": {},
					"object": "60806040526001600255348015610014575f80fd5b50335f73ffffffffffffffffffffffffffffffffffffffff168173ffffffffffffffffffffffffffffffffffffffff1603610086575f6040517f1e4fbdf700000000000000000000000000000000000000000000000000000000815260040161007d919061019b565b60405180910390fd5b6100958161009b60201b60201c565b506101b4565b5f805f9054906101000a900473ffffffffffffffffffffffffffffffffffffffff169050815f806101000a81548173ffffffffffffffffffffffffffffffffffffffff021916908373ffffffffffffffffffffffffffffffffffffffff1602179055508173ffffffffffffffffffffffffffffffffffffffff168173ffffffffffffffffffffffffffffffffffffffff167f8be0079c531659141344cd1fd0a4f28419497f9722a3daafe3b4186f6b6457e060405160405180910390a35050565b5f73ffffffffffffffffffffffffffffffffffffffff82169050919050565b5f6101858261015c565b9050919050565b6101958161017b565b82525050565b5f6020820190506101ae5f83018461018c565b92915050565b6128b0806101c15f395ff3fe608060405234801561000f575f80fd5b5060043610610140575f3560e01c806379c37979116100b6578063a217fddf1161007a578063a217fddf14610350578063a93253c11461036e578063aed4af011461039e578063c634b78e146103ce578063d547741f146103ea578063f2fde38b1461040657610140565b806379c37979146102945780637acc0b20146102b05780638da5cb5b146102e657806391d14854146103045780639a19c7b01461033457610140565b80632f2ff15d116101085780632f2ff15d146101fa57806336568abe146102165780634de91a63146102325780635bb8854414610250578063715018a61461026c57806375b238fc1461027657610140565b806301ffc9a7146101445780630c5a713d1461017457806313deabc11461019257806321120f9a146101ae578063248a9ca3146101ca575b5f80fd5b61015e60048036038101906101599190611737565b610422565b60405161016b919061177c565b60405180910390f35b61017c61049b565b60405161018991906117ad565b60405180910390f35b6101ac60048036038101906101a79190611820565b6104bf565b005b6101c860048036038101906101c391906119ba565b6104f5565b005b6101e460048036038101906101df9190611a3e565b610831565b6040516101f191906117ad565b60405180910390f35b610214600480360381019061020f9190611a69565b61084e565b005b610230600480360381019061022b9190611a69565b610870565b005b61023a6108eb565b6040516102479190611ab6565b60405180910390f35b61026a60048036038101906102659190611af9565b6108f1565b005b610274610ce9565b005b61027e610cfc565b60405161028b91906117ad565b60405180910390f35b6102ae60048036038101906102a99190611820565b610d20565b005b6102ca60048036038101906102c59190611c22565b610d56565b6040516102dd9796959493929190611da0565b60405180910390f35b6102ee611098565b6040516102fb9190611e38565b60405180910390f35b61031e60048036038101906103199190611a69565b6110bf565b60405161032b919061177c565b60405180910390f35b61034e60048036038101906103499190611820565b611123565b005b61035861117c565b60405161036591906117ad565b60405180910390f35b61038860048036038101906103839190611c22565b611182565b6040516103959190611e38565b60405180910390f35b6103b860048036038101906103b39190611c22565b6111b2565b6040516103c59190611e38565b60405180910390f35b6103e860048036038101906103e39190611820565b6111e2565b005b61040460048036038101906103ff9190611a69565b61123b565b005b610420600480360381019061041b9190611820565b61125d565b005b5f7f7965db0b000000000000000000000000000000000000000000000000000000007bffffffffffffffffffffffffffffffffffffffffffffffffffffffff1916827bffffffffffffffffffffffffffffffffffffffffffffffffffffffff191614806104945750610493826112e1565b5b9050919050565b7f632405d99f3a4d6966c57f76cc301a3c7cab4b56ce8e567a4198e9434b3fbb5b81565b6104c761134a565b6104f17f632405d99f3a4d6966c57f76cc301a3c7cab4b56ce8e567a4198e9434b3fbb5b826113d1565b5050565b815f151560035f8381526020019081526020015f206006016003015f9054906101000a900460ff1615151461055f576040517f08c379a000000000000000000000000000000000000000000000000000000000815260040161055690611e9b565b60405180910390fd5b8060035f8381526020019081526020015f205f0154146105b4576040517f08c379a00000000000000000000000000000000000000000000000000000000081526004016105ab90611f03565b60405180910390fd5b5f60035f8381526020019081526020015f20600401540361060a576040517f08c379a000000000000000000000000000000000000000000000000000000000815260040161060190611f6b565b60405180910390fd5b7f632405d99f3a4d6966c57f76cc301a3c7cab4b56ce8e567a4198e9434b3fbb5b610634816114ba565b7fdf8b4c520ffe197c5343c6f5aec59570151ef9a492f2c624fd45ddde6135ec4261065e816114ba565b60055f8681526020019081526020015f205f9054906101000a900473ffffffffffffffffffffffffffffffffffffffff1673ffffffffffffffffffffffffffffffffffffffff163373ffffffffffffffffffffffffffffffffffffffff1614806106ee57506106ed7fdf8b4c520ffe197c5343c6f5aec59570151ef9a492f2c624fd45ddde6135ec42336110bf565b5b61072d576040517f08c379a000000000000000000000000000000000000000000000000000000000815260040161072490611fd3565b60405180910390fd5b8360035f8781526020019081526020015f206006015f01908161075091906121eb565b504260035f8781526020019081526020015f2060060160020181905550600160035f8781526020019081526020015f206006016003015f6101000a81548160ff0219169083151502179055507ff295c689d401ce1625e9bd2adba7641f92cc231677989c7fe706354cb643e79860035f8781526020019081526020015f206006015f0160035f8881526020019081526020015f20600601600101428860035f8b81526020019081526020015f2060060160030160019054906101000a900460ff1660405161082295949392919061233b565b60405180910390a15050505050565b5f60015f8381526020019081526020015f20600101549050919050565b61085782610831565b610860816114ba565b61086a83836113d1565b50505050565b6108786114ce565b73ffffffffffffffffffffffffffffffffffffffff168173ffffffffffffffffffffffffffffffffffffffff16146108dc576040517f6697b23200000000000000000000000000000000000000000000000000000000815260040160405180910390fd5b6108e682826114d5565b505050565b60025481565b61091b7f632405d99f3a4d6966c57f76cc301a3c7cab4b56ce8e567a4198e9434b3fbb5b336110bf565b8061094c575061094b7fdf8b4c520ffe197c5343c6f5aec59570151ef9a492f2c624fd45ddde6135ec42336110bf565b5b61098b576040517f08c379a0000000000000000000000000000000000000000000000000000000008152600401610982906123e4565b60405180910390fd5b868686865f8451116109d2576040517f08c379a00000000000000000000000000000000000000000000000000000000081526004016109c99061244c565b60405180910390fd5b5f835111610a15576040517f08c379a0000000000000000000000000000000000000000000000000000000008152600401610a0c906124b4565b60405180910390fd5b5f825111610a58576040517f08c379a0000000000000000000000000000000000000000000000000000000008152600401610a4f9061251c565b60405180910390fd5b5f8111610a9a576040517f08c379a0000000000000000000000000000000000000000000000000000000008152600401610a91906125aa565b60405180910390fd5b5f60025490506040518060e001604052808281526020018d81526020018b81526020018c81526020018a81526020014281526020016040518060c001604052808b81526020018a815260200189610af1575f610af3565b425b815260200189151581526020015f151581526020015f81525081525060035f8381526020019081526020015f205f820151815f01556020820151816001019081610b3d91906121eb565b506040820151816002019081610b5391906121eb565b506060820151816003019081610b6991906121eb565b506080820151816004015560a0820151816005015560c0820151816006015f820151815f019081610b9a91906121eb565b506020820151816001019081610bb091906121eb565b50604082015181600201556060820151816003015f6101000a81548160ff02191690831515021790555060808201518160030160016101000a81548160ff02191690831515021790555060a0820151816004015550509050503360045f60025481526020019081526020015f205f6101000a81548173ffffffffffffffffffffffffffffffffffffffff021916908373ffffffffffffffffffffffffffffffffffffffff1602179055503373ffffffffffffffffffffffffffffffffffffffff16817fe5d05c377f26d26b0a4b41cafbd67a19a498b3ad7003a1014b351a8eb0ccc9968e8d8f8e60035f8981526020019081526020015f20600601604051610cbc959493929190612772565b60405180910390a360025f815480929190610cd69061280c565b9190505550505050505050505050505050565b610cf161134a565b610cfa5f6115bf565b565b7fdf8b4c520ffe197c5343c6f5aec59570151ef9a492f2c624fd45ddde6135ec4281565b610d2861134a565b610d527f632405d99f3a4d6966c57f76cc301a3c7cab4b56ce8e567a4198e9434b3fbb5b826114d5565b5050565b6003602052805f5260405f205f91509050805f015490806001018054610d7b9061201e565b80601f0160208091040260200160405190810160405280929190818152602001828054610da79061201e565b8015610df25780601f10610dc957610100808354040283529160200191610df2565b820191905f5260205f20905b815481529060010190602001808311610dd557829003601f168201915b505050505090806002018054610e079061201e565b80601f0160208091040260200160405190810160405280929190818152602001828054610e339061201e565b8015610e7e5780601f10610e5557610100808354040283529160200191610e7e565b820191905f5260205f20905b815481529060010190602001808311610e6157829003601f168201915b505050505090806003018054610e939061201e565b80601f0160208091040260200160405190810160405280929190818152602001828054610ebf9061201e565b8015610f0a5780601f10610ee157610100808354040283529160200191610f0a565b820191905f5260205f20905b815481529060010190602001808311610eed57829003601f168201915b505050505090806004015490806005015490806006016040518060c00160405290815f82018054610f3a9061201e565b80601f0160208091040260200160405190810160405280929190818152602001828054610f669061201e565b8015610fb15780601f10610f8857610100808354040283529160200191610fb1565b820191905f5260205f20905b815481529060010190602001808311610f9457829003601f168201915b50505050508152602001600182018054610fca9061201e565b80601f0160208091040260200160405190810160405280929190818152602001828054610ff69061201e565b80156110415780601f1061101857610100808354040283529160200191611041565b820191905f5260205f20905b81548152906001019060200180831161102457829003601f168201915b5050505050815260200160028201548152602001600382015f9054906101000a900460ff161515151581526020016003820160019054906101000a900460ff16151515158152602001600482015481525050905087565b5f805f9054906101000a900473ffffffffffffffffffffffffffffffffffffffff16905090565b5f60015f8481526020019081526020015f205f015f8373ffffffffffffffffffffffffffffffffffffffff1673ffffffffffffffffffffffffffffffffffffffff1681526020019081526020015f205f9054906101000a900460ff16905092915050565b7f632405d99f3a4d6966c57f76cc301a3c7cab4b56ce8e567a4198e9434b3fbb5b61114d816114ba565b6111777fdf8b4c520ffe197c5343c6f5aec59570151ef9a492f2c624fd45ddde6135ec42836114d5565b505050565b5f801b81565b6005602052805f5260405f205f915054906101000a900473ffffffffffffffffffffffffffffffffffffffff1681565b6004602052805f5260405f205f915054906101000a900473ffffffffffffffffffffffffffffffffffffffff1681565b7f632405d99f3a4d6966c57f76cc301a3c7cab4b56ce8e567a4198e9434b3fbb5b61120c816114ba565b6112367fdf8b4c520ffe197c5343c6f5aec59570151ef9a492f2c624fd45ddde6135ec42836113d1565b505050565b61124482610831565b61124d816114ba565b61125783836114d5565b50505050565b61126561134a565b5f73ffffffffffffffffffffffffffffffffffffffff168173ffffffffffffffffffffffffffffffffffffffff16036112d5575f6040517f1e4fbdf70000000000000000000000000000000000000000000000000000000081526004016112cc9190611e38565b60405180910390fd5b6112de816115bf565b50565b5f7f01ffc9a7000000000000000000000000000000000000000000000000000000007bffffffffffffffffffffffffffffffffffffffffffffffffffffffff1916827bffffffffffffffffffffffffffffffffffffffffffffffffffffffff1916149050919050565b6113526114ce565b73ffffffffffffffffffffffffffffffffffffffff16611370611098565b73ffffffffffffffffffffffffffffffffffffffff16146113cf576113936114ce565b6040517f118cdaa70000000000000000000000000000000000000000000000000000000081526004016113c69190611e38565b60405180910390fd5b565b5f6113dc83836110bf565b6114b0576001805f8581526020019081526020015f205f015f8473ffffffffffffffffffffffffffffffffffffffff1673ffffffffffffffffffffffffffffffffffffffff1681526020019081526020015f205f6101000a81548160ff02191690831515021790555061144d6114ce565b73ffffffffffffffffffffffffffffffffffffffff168273ffffffffffffffffffffffffffffffffffffffff16847f2f8788117e7eff1d82e926ec794901d17c78024a50270940304540a733656f0d60405160405180910390a4600190506114b4565b5f90505b92915050565b6114cb816114c66114ce565b611680565b50565b5f33905090565b5f6114e083836110bf565b156115b5575f60015f8581526020019081526020015f205f015f8473ffffffffffffffffffffffffffffffffffffffff1673ffffffffffffffffffffffffffffffffffffffff1681526020019081526020015f205f6101000a81548160ff0219169083151502179055506115526114ce565b73ffffffffffffffffffffffffffffffffffffffff168273ffffffffffffffffffffffffffffffffffffffff16847ff6391f5c32d9c69d2a47ea670b442974b53935d1edc7fd64eb21e047a839171b60405160405180910390a4600190506115b9565b5f90505b92915050565b5f805f9054906101000a900473ffffffffffffffffffffffffffffffffffffffff169050815f806101000a81548173ffffffffffffffffffffffffffffffffffffffff021916908373ffffffffffffffffffffffffffffffffffffffff1602179055508173ffffffffffffffffffffffffffffffffffffffff168173ffffffffffffffffffffffffffffffffffffffff167f8be0079c531659141344cd1fd0a4f28419497f9722a3daafe3b4186f6b6457e060405160405180910390a35050565b61168a82826110bf565b6116cd5780826040517fe2517d3f0000000000000000000000000000000000000000000000000000000081526004016116c4929190612853565b60405180910390fd5b5050565b5f604051905090565b5f80fd5b5f80fd5b5f7fffffffff0000000000000000000000000000000000000000000000000000000082169050919050565b611716816116e2565b8114611720575f80fd5b50565b5f813590506117318161170d565b92915050565b5f6020828403121561174c5761174b6116da565b5b5f61175984828501611723565b91505092915050565b5f8115159050919050565b61177681611762565b82525050565b5f60208201905061178f5f83018461176d565b92915050565b5f819050919050565b6117a781611795565b82525050565b5f6020820190506117c05f83018461179e565b92915050565b5f73ffffffffffffffffffffffffffffffffffffffff82169050919050565b5f6117ef826117c6565b9050919050565b6117ff816117e5565b8114611809575f80fd5b50565b5f8135905061181a816117f6565b92915050565b5f60208284031215611835576118346116da565b5b5f6118428482850161180c565b91505092915050565b5f819050919050565b61185d8161184b565b8114611867575f80fd5b50565b5f8135905061187881611854565b92915050565b5f80fd5b5f80fd5b5f601f19601f8301169050919050565b7f4e487b71000000000000000000000000000000000000000000000000000000005f52604160045260245ffd5b6118cc82611886565b810181811067ffffffffffffffff821117156118eb576118ea611896565b5b80604052505050565b5f6118fd6116d1565b905061190982826118c3565b919050565b5f67ffffffffffffffff82111561192857611927611896565b5b61193182611886565b9050602081019050919050565b828183375f83830152505050565b5f61195e6119598461190e565b6118f4565b90508281526020810184848401111561197a57611979611882565b5b61198584828561193e565b509392505050565b5f82601f8301126119a1576119a061187e565b5b81356119b184826020860161194c565b91505092915050565b5f80604083850312156119d0576119cf6116da565b5b5f6119dd8582860161186a565b925050602083013567ffffffffffffffff8111156119fe576119fd6116de565b5b611a0a8582860161198d565b9150509250929050565b611a1d81611795565b8114611a27575f80fd5b50565b5f81359050611a3881611a14565b92915050565b5f60208284031215611a5357611a526116da565b5b5f611a6084828501611a2a565b91505092915050565b5f8060408385031215611a7f57611a7e6116da565b5b5f611a8c85828601611a2a565b9250506020611a9d8582860161180c565b9150509250929050565b611ab08161184b565b82525050565b5f602082019050611ac95f830184611aa7565b92915050565b611ad881611762565b8114611ae2575f80fd5b50565b5f81359050611af381611acf565b92915050565b5f805f805f805f60e0888a031215611b1457611b136116da565b5b5f88013567ffffffffffffffff811115611b3157611b306116de565b5b611b3d8a828b0161198d565b975050602088013567ffffffffffffffff811115611b5e57611b5d6116de565b5b611b6a8a828b0161198d565b965050604088013567ffffffffffffffff811115611b8b57611b8a6116de565b5b611b978a828b0161198d565b9550506060611ba88a828b0161186a565b945050608088013567ffffffffffffffff811115611bc957611bc86116de565b5b611bd58a828b0161198d565b93505060a088013567ffffffffffffffff811115611bf657611bf56116de565b5b611c028a828b0161198d565b92505060c0611c138a828b01611ae5565b91505092959891949750929550565b5f60208284031215611c3757611c366116da565b5b5f611c448482850161186a565b91505092915050565b5f81519050919050565b5f82825260208201905092915050565b8281835e5f83830152505050565b5f611c7f82611c4d565b611c898185611c57565b9350611c99818560208601611c67565b611ca281611886565b840191505092915050565b5f82825260208201905092915050565b5f611cc782611c4d565b611cd18185611cad565b9350611ce1818560208601611c67565b611cea81611886565b840191505092915050565b611cfe8161184b565b82525050565b611d0d81611762565b82525050565b5f60c083015f8301518482035f860152611d2d8282611cbd565b91505060208301518482036020860152611d478282611cbd565b9150506040830151611d5c6040860182611cf5565b506060830151611d6f6060860182611d04565b506080830151611d826080860182611d04565b5060a0830151611d9560a0860182611cf5565b508091505092915050565b5f60e082019050611db35f83018a611aa7565b8181036020830152611dc58189611c75565b90508181036040830152611dd98188611c75565b90508181036060830152611ded8187611c75565b9050611dfc6080830186611aa7565b611e0960a0830185611aa7565b81810360c0830152611e1b8184611d13565b905098975050505050505050565b611e32816117e5565b82525050565b5f602082019050611e4b5f830184611e29565b92915050565b7f50726f6475637420686173206265656e207368697070656400000000000000005f82015250565b5f611e85601883611c57565b9150611e9082611e51565b602082019050919050565b5f6020820190508181035f830152611eb281611e79565b9050919050565b7f50726f6475637420646f6573206e6f74206578697374000000000000000000005f82015250565b5f611eed601683611c57565b9150611ef882611eb9565b602082019050919050565b5f6020820190508181035f830152611f1a81611ee1565b9050919050565b7f50726f64756374206973206f7574206f662073746f636b0000000000000000005f82015250565b5f611f55601783611c57565b9150611f6082611f21565b602082019050919050565b5f6020820190508181035f830152611f8281611f49565b9050919050565b7f556e617574686f72697a656420746f20736869702070726f64756374000000005f82015250565b5f611fbd601c83611c57565b9150611fc882611f89565b602082019050919050565b5f6020820190508181035f830152611fea81611fb1565b9050919050565b7f4e487b71000000000000000000000000000000000000000000000000000000005f52602260045260245ffd5b5f600282049050600182168061203557607f821691505b60208210810361204857612047611ff1565b5b50919050565b5f819050815f5260205f209050919050565b5f6020601f8301049050919050565b5f82821b905092915050565b5f600883026120aa7fffffffffffffffffffffffffffffffffffffffffffffffffffffffffffffffff8261206f565b6120b4868361206f565b95508019841693508086168417925050509392505050565b5f819050919050565b5f6120ef6120ea6120e58461184b565b6120cc565b61184b565b9050919050565b5f819050919050565b612108836120d5565b61211c612114826120f6565b84845461207b565b825550505050565b5f90565b612130612124565b61213b8184846120ff565b505050565b5b8181101561215e576121535f82612128565b600181019050612141565b5050565b601f8211156121a3576121748161204e565b61217d84612060565b8101602085101561218c578190505b6121a061219885612060565b830182612140565b50505b505050565b5f82821c905092915050565b5f6121c35f19846008026121a8565b1980831691505092915050565b5f6121db83836121b4565b9150826002028217905092915050565b6121f482611c4d565b67ffffffffffffffff81111561220d5761220c611896565b5b612217825461201e565b612222828285612162565b5f60209050601f831160018114612253575f8415612241578287015190505b61224b85826121d0565b8655506122b2565b601f1984166122618661204e565b5f5b8281101561228857848901518255600182019150602085019450602081019050612263565b868310156122a557848901516122a1601f8916826121b4565b8355505b6001600288020188555050505b505050505050565b5f81546122c68161201e565b6122d08186611c57565b9450600182165f81146122ea576001811461230057612332565b60ff198316865281151560200286019350612332565b6123098561204e565b5f5b8381101561232a5781548189015260018201915060208101905061230b565b808801955050505b50505092915050565b5f60a0820190508181035f83015261235381886122ba565b9050818103602083015261236781876122ba565b90506123766040830186611aa7565b6123836060830185611aa7565b612390608083018461176d565b9695505050505050565b7f55736572206e6f7420617574686f72697a6564000000000000000000000000005f82015250565b5f6123ce601383611c57565b91506123d98261239a565b602082019050919050565b5f6020820190508181035f8301526123fb816123c2565b9050919050565b7f456d7074792070726f647563742074797065206e6f7420616c6c6f77656400005f82015250565b5f612436601e83611c57565b915061244182612402565b602082019050919050565b5f6020820190508181035f8301526124638161242a565b9050919050565b7f456d7074792070726f64756374206e616d65206e6f7420616c6c6f77656400005f82015250565b5f61249e601e83611c57565b91506124a98261246a565b602082019050919050565b5f6020820190508181035f8301526124cb81612492565b9050919050565b7f456d707479206272616e64206e616d65206e6f7420616c6c6f776564000000005f82015250565b5f612506601c83611c57565b9150612511826124d2565b602082019050919050565b5f6020820190508181035f830152612533816124fa565b9050919050565b7f5175616e74697479206d7573742062652067726561746572207468616e207a655f8201527f726f000000000000000000000000000000000000000000000000000000000000602082015250565b5f612594602283611c57565b915061259f8261253a565b604082019050919050565b5f6020820190508181035f8301526125c181612588565b9050919050565b5f81546125d48161201e565b6125de8186611cad565b9450600182165f81146125f8576001811461260e57612640565b60ff198316865281151560200286019350612640565b6126178561204e565b5f5b8381101561263857815481890152600182019150602081019050612619565b808801955050505b50505092915050565b5f815f1c9050919050565b5f819050919050565b5f61266f61266a83612649565b612654565b9050919050565b5f60ff82169050919050565b5f61269461268f83612649565b612676565b9050919050565b5f8160081c9050919050565b5f6126b96126b48361269b565b612676565b9050919050565b5f60c083015f8084018583035f8701526126da83826125c8565b9250506001840185830360208701526126f383826125c8565b925050600284015490506127068161265d565b6127136040870182611cf5565b506003840154905061272481612682565b6127316060870182611d04565b5061273b816126a7565b6127486080870182611d04565b50600484015490506127598161265d565b61276660a0870182611cf5565b50819250505092915050565b5f60a0820190508181035f83015261278a8188611c75565b9050818103602083015261279e8187611c75565b905081810360408301526127b28186611c75565b90506127c16060830185611aa7565b81810360808301526127d381846126c0565b90509695505050505050565b7f4e487b71000000000000000000000000000000000000000000000000000000005f52601160045260245ffd5b5f6128168261184b565b91507fffffffffffffffffffffffffffffffffffffffffffffffffffffffffffffffff8203612848576128476127df565b5b600182019050919050565b5f6040820190506128665f830185611e29565b612873602083018461179e565b939250505056fea2646970667358221220aaad44542d7bb362740a3096916907de02ff797b2e878626819eec02158c241664736f6c634300081a0033",
					"opcodes": "PUSH1 0x80 PUSH1 0x40 MSTORE PUSH1 0x1 PUSH1 0x2 SSTORE CALLVALUE DUP1 ISZERO PUSH2 0x14 JUMPI PUSH0 DUP1 REVERT JUMPDEST POP CALLER PUSH0 PUSH20 0xFFFFFFFFFFFFFFFFFFFFFFFFFFFFFFFFFFFFFFFF AND DUP2 PUSH20 0xFFFFFFFFFFFFFFFFFFFFFFFFFFFFFFFFFFFFFFFF AND SUB PUSH2 0x86 JUMPI PUSH0 PUSH1 0x40 MLOAD PUSH32 0x1E4FBDF700000000000000000000000000000000000000000000000000000000 DUP2 MSTORE PUSH1 0x4 ADD PUSH2 0x7D SWAP2 SWAP1 PUSH2 0x19B JUMP JUMPDEST PUSH1 0x40 MLOAD DUP1 SWAP2 SUB SWAP1 REVERT JUMPDEST PUSH2 0x95 DUP2 PUSH2 0x9B PUSH1 0x20 SHL PUSH1 0x20 SHR JUMP JUMPDEST POP PUSH2 0x1B4 JUMP JUMPDEST PUSH0 DUP1 PUSH0 SWAP1 SLOAD SWAP1 PUSH2 0x100 EXP SWAP1 DIV PUSH20 0xFFFFFFFFFFFFFFFFFFFFFFFFFFFFFFFFFFFFFFFF AND SWAP1 POP DUP2 PUSH0 DUP1 PUSH2 0x100 EXP DUP2 SLOAD DUP2 PUSH20 0xFFFFFFFFFFFFFFFFFFFFFFFFFFFFFFFFFFFFFFFF MUL NOT AND SWAP1 DUP4 PUSH20 0xFFFFFFFFFFFFFFFFFFFFFFFFFFFFFFFFFFFFFFFF AND MUL OR SWAP1 SSTORE POP DUP2 PUSH20 0xFFFFFFFFFFFFFFFFFFFFFFFFFFFFFFFFFFFFFFFF AND DUP2 PUSH20 0xFFFFFFFFFFFFFFFFFFFFFFFFFFFFFFFFFFFFFFFF AND PUSH32 0x8BE0079C531659141344CD1FD0A4F28419497F9722A3DAAFE3B4186F6B6457E0 PUSH1 0x40 MLOAD PUSH1 0x40 MLOAD DUP1 SWAP2 SUB SWAP1 LOG3 POP POP JUMP JUMPDEST PUSH0 PUSH20 0xFFFFFFFFFFFFFFFFFFFFFFFFFFFFFFFFFFFFFFFF DUP3 AND SWAP1 POP SWAP2 SWAP1 POP JUMP JUMPDEST PUSH0 PUSH2 0x185 DUP3 PUSH2 0x15C JUMP JUMPDEST SWAP1 POP SWAP2 SWAP1 POP JUMP JUMPDEST PUSH2 0x195 DUP2 PUSH2 0x17B JUMP JUMPDEST DUP3 MSTORE POP POP JUMP JUMPDEST PUSH0 PUSH1 0x20 DUP3 ADD SWAP1 POP PUSH2 0x1AE PUSH0 DUP4 ADD DUP5 PUSH2 0x18C JUMP JUMPDEST SWAP3 SWAP2 POP POP JUMP JUMPDEST PUSH2 0x28B0 DUP1 PUSH2 0x1C1 PUSH0 CODECOPY PUSH0 RETURN INVALID PUSH1 0x80 PUSH1 0x40 MSTORE CALLVALUE DUP1 ISZERO PUSH2 0xF JUMPI PUSH0 DUP1 REVERT JUMPDEST POP PUSH1 0x4 CALLDATASIZE LT PUSH2 0x140 JUMPI PUSH0 CALLDATALOAD PUSH1 0xE0 SHR DUP1 PUSH4 0x79C37979 GT PUSH2 0xB6 JUMPI DUP1 PUSH4 0xA217FDDF GT PUSH2 0x7A JUMPI DUP1 PUSH4 0xA217FDDF EQ PUSH2 0x350 JUMPI DUP1 PUSH4 0xA93253C1 EQ PUSH2 0x36E JUMPI DUP1 PUSH4 0xAED4AF01 EQ PUSH2 0x39E JUMPI DUP1 PUSH4 0xC634B78E EQ PUSH2 0x3CE JUMPI DUP1 PUSH4 0xD547741F EQ PUSH2 0x3EA JUMPI DUP1 PUSH4 0xF2FDE38B EQ PUSH2 0x406 JUMPI PUSH2 0x140 JUMP JUMPDEST DUP1 PUSH4 0x79C37979 EQ PUSH2 0x294 JUMPI DUP1 PUSH4 0x7ACC0B20 EQ PUSH2 0x2B0 JUMPI DUP1 PUSH4 0x8DA5CB5B EQ PUSH2 0x2E6 JUMPI DUP1 PUSH4 0x91D14854 EQ PUSH2 0x304 JUMPI DUP1 PUSH4 0x9A19C7B0 EQ PUSH2 0x334 JUMPI PUSH2 0x140 JUMP JUMPDEST DUP1 PUSH4 0x2F2FF15D GT PUSH2 0x108 JUMPI DUP1 PUSH4 0x2F2FF15D EQ PUSH2 0x1FA JUMPI DUP1 PUSH4 0x36568ABE EQ PUSH2 0x216 JUMPI DUP1 PUSH4 0x4DE91A63 EQ PUSH2 0x232 JUMPI DUP1 PUSH4 0x5BB88544 EQ PUSH2 0x250 JUMPI DUP1 PUSH4 0x715018A6 EQ PUSH2 0x26C JUMPI DUP1 PUSH4 0x75B238FC EQ PUSH2 0x276 JUMPI PUSH2 0x140 JUMP JUMPDEST DUP1 PUSH4 0x1FFC9A7 EQ PUSH2 0x144 JUMPI DUP1 PUSH4 0xC5A713D EQ PUSH2 0x174 JUMPI DUP1 PUSH4 0x13DEABC1 EQ PUSH2 0x192 JUMPI DUP1 PUSH4 0x21120F9A EQ PUSH2 0x1AE JUMPI DUP1 PUSH4 0x248A9CA3 EQ PUSH2 0x1CA JUMPI JUMPDEST PUSH0 DUP1 REVERT JUMPDEST PUSH2 0x15E PUSH1 0x4 DUP1 CALLDATASIZE SUB DUP2 ADD SWAP1 PUSH2 0x159 SWAP2 SWAP1 PUSH2 0x1737 JUMP JUMPDEST PUSH2 0x422 JUMP JUMPDEST PUSH1 0x40 MLOAD PUSH2 0x16B SWAP2 SWAP1 PUSH2 0x177C JUMP JUMPDEST PUSH1 0x40 MLOAD DUP1 SWAP2 SUB SWAP1 RETURN JUMPDEST PUSH2 0x17C PUSH2 0x49B JUMP JUMPDEST PUSH1 0x40 MLOAD PUSH2 0x189 SWAP2 SWAP1 PUSH2 0x17AD JUMP JUMPDEST PUSH1 0x40 MLOAD DUP1 SWAP2 SUB SWAP1 RETURN JUMPDEST PUSH2 0x1AC PUSH1 0x4 DUP1 CALLDATASIZE SUB DUP2 ADD SWAP1 PUSH2 0x1A7 SWAP2 SWAP1 PUSH2 0x1820 JUMP JUMPDEST PUSH2 0x4BF JUMP JUMPDEST STOP JUMPDEST PUSH2 0x1C8 PUSH1 0x4 DUP1 CALLDATASIZE SUB DUP2 ADD SWAP1 PUSH2 0x1C3 SWAP2 SWAP1 PUSH2 0x19BA JUMP JUMPDEST PUSH2 0x4F5 JUMP JUMPDEST STOP JUMPDEST PUSH2 0x1E4 PUSH1 0x4 DUP1 CALLDATASIZE SUB DUP2 ADD SWAP1 PUSH2 0x1DF SWAP2 SWAP1 PUSH2 0x1A3E JUMP JUMPDEST PUSH2 0x831 JUMP JUMPDEST PUSH1 0x40 MLOAD PUSH2 0x1F1 SWAP2 SWAP1 PUSH2 0x17AD JUMP JUMPDEST PUSH1 0x40 MLOAD DUP1 SWAP2 SUB SWAP1 RETURN JUMPDEST PUSH2 0x214 PUSH1 0x4 DUP1 CALLDATASIZE SUB DUP2 ADD SWAP1 PUSH2 0x20F SWAP2 SWAP1 PUSH2 0x1A69 JUMP JUMPDEST PUSH2 0x84E JUMP JUMPDEST STOP JUMPDEST PUSH2 0x230 PUSH1 0x4 DUP1 CALLDATASIZE SUB DUP2 ADD SWAP1 PUSH2 0x22B SWAP2 SWAP1 PUSH2 0x1A69 JUMP JUMPDEST PUSH2 0x870 JUMP JUMPDEST STOP JUMPDEST PUSH2 0x23A PUSH2 0x8EB JUMP JUMPDEST PUSH1 0x40 MLOAD PUSH2 0x247 SWAP2 SWAP1 PUSH2 0x1AB6 JUMP JUMPDEST PUSH1 0x40 MLOAD DUP1 SWAP2 SUB SWAP1 RETURN JUMPDEST PUSH2 0x26A PUSH1 0x4 DUP1 CALLDATASIZE SUB DUP2 ADD SWAP1 PUSH2 0x265 SWAP2 SWAP1 PUSH2 0x1AF9 JUMP JUMPDEST PUSH2 0x8F1 JUMP JUMPDEST STOP JUMPDEST PUSH2 0x274 PUSH2 0xCE9 JUMP JUMPDEST STOP JUMPDEST PUSH2 0x27E PUSH2 0xCFC JUMP JUMPDEST PUSH1 0x40 MLOAD PUSH2 0x28B SWAP2 SWAP1 PUSH2 0x17AD JUMP JUMPDEST PUSH1 0x40 MLOAD DUP1 SWAP2 SUB SWAP1 RETURN JUMPDEST PUSH2 0x2AE PUSH1 0x4 DUP1 CALLDATASIZE SUB DUP2 ADD SWAP1 PUSH2 0x2A9 SWAP2 SWAP1 PUSH2 0x1820 JUMP JUMPDEST PUSH2 0xD20 JUMP JUMPDEST STOP JUMPDEST PUSH2 0x2CA PUSH1 0x4 DUP1 CALLDATASIZE SUB DUP2 ADD SWAP1 PUSH2 0x2C5 SWAP2 SWAP1 PUSH2 0x1C22 JUMP JUMPDEST PUSH2 0xD56 JUMP JUMPDEST PUSH1 0x40 MLOAD PUSH2 0x2DD SWAP8 SWAP7 SWAP6 SWAP5 SWAP4 SWAP3 SWAP2 SWAP1 PUSH2 0x1DA0 JUMP JUMPDEST PUSH1 0x40 MLOAD DUP1 SWAP2 SUB SWAP1 RETURN JUMPDEST PUSH2 0x2EE PUSH2 0x1098 JUMP JUMPDEST PUSH1 0x40 MLOAD PUSH2 0x2FB SWAP2 SWAP1 PUSH2 0x1E38 JUMP JUMPDEST PUSH1 0x40 MLOAD DUP1 SWAP2 SUB SWAP1 RETURN JUMPDEST PUSH2 0x31E PUSH1 0x4 DUP1 CALLDATASIZE SUB DUP2 ADD SWAP1 PUSH2 0x319 SWAP2 SWAP1 PUSH2 0x1A69 JUMP JUMPDEST PUSH2 0x10BF JUMP JUMPDEST PUSH1 0x40 MLOAD PUSH2 0x32B SWAP2 SWAP1 PUSH2 0x177C JUMP JUMPDEST PUSH1 0x40 MLOAD DUP1 SWAP2 SUB SWAP1 RETURN JUMPDEST PUSH2 0x34E PUSH1 0x4 DUP1 CALLDATASIZE SUB DUP2 ADD SWAP1 PUSH2 0x349 SWAP2 SWAP1 PUSH2 0x1820 JUMP JUMPDEST PUSH2 0x1123 JUMP JUMPDEST STOP JUMPDEST PUSH2 0x358 PUSH2 0x117C JUMP JUMPDEST PUSH1 0x40 MLOAD PUSH2 0x365 SWAP2 SWAP1 PUSH2 0x17AD JUMP JUMPDEST PUSH1 0x40 MLOAD DUP1 SWAP2 SUB SWAP1 RETURN JUMPDEST PUSH2 0x388 PUSH1 0x4 DUP1 CALLDATASIZE SUB DUP2 ADD SWAP1 PUSH2 0x383 SWAP2 SWAP1 PUSH2 0x1C22 JUMP JUMPDEST PUSH2 0x1182 JUMP JUMPDEST PUSH1 0x40 MLOAD PUSH2 0x395 SWAP2 SWAP1 PUSH2 0x1E38 JUMP JUMPDEST PUSH1 0x40 MLOAD DUP1 SWAP2 SUB SWAP1 RETURN JUMPDEST PUSH2 0x3B8 PUSH1 0x4 DUP1 CALLDATASIZE SUB DUP2 ADD SWAP1 PUSH2 0x3B3 SWAP2 SWAP1 PUSH2 0x1C22 JUMP JUMPDEST PUSH2 0x11B2 JUMP JUMPDEST PUSH1 0x40 MLOAD PUSH2 0x3C5 SWAP2 SWAP1 PUSH2 0x1E38 JUMP JUMPDEST PUSH1 0x40 MLOAD DUP1 SWAP2 SUB SWAP1 RETURN JUMPDEST PUSH2 0x3E8 PUSH1 0x4 DUP1 CALLDATASIZE SUB DUP2 ADD SWAP1 PUSH2 0x3E3 SWAP2 SWAP1 PUSH2 0x1820 JUMP JUMPDEST PUSH2 0x11E2 JUMP JUMPDEST STOP JUMPDEST PUSH2 0x404 PUSH1 0x4 DUP1 CALLDATASIZE SUB DUP2 ADD SWAP1 PUSH2 0x3FF SWAP2 SWAP1 PUSH2 0x1A69 JUMP JUMPDEST PUSH2 0x123B JUMP JUMPDEST STOP JUMPDEST PUSH2 0x420 PUSH1 0x4 DUP1 CALLDATASIZE SUB DUP2 ADD SWAP1 PUSH2 0x41B SWAP2 SWAP1 PUSH2 0x1820 JUMP JUMPDEST PUSH2 0x125D JUMP JUMPDEST STOP JUMPDEST PUSH0 PUSH32 0x7965DB0B00000000000000000000000000000000000000000000000000000000 PUSH28 0xFFFFFFFFFFFFFFFFFFFFFFFFFFFFFFFFFFFFFFFFFFFFFFFFFFFFFFFF NOT AND DUP3 PUSH28 0xFFFFFFFFFFFFFFFFFFFFFFFFFFFFFFFFFFFFFFFFFFFFFFFFFFFFFFFF NOT AND EQ DUP1 PUSH2 0x494 JUMPI POP PUSH2 0x493 DUP3 PUSH2 0x12E1 JUMP JUMPDEST JUMPDEST SWAP1 POP SWAP2 SWAP1 POP JUMP JUMPDEST PUSH32 0x632405D99F3A4D6966C57F76CC301A3C7CAB4B56CE8E567A4198E9434B3FBB5B DUP2 JUMP JUMPDEST PUSH2 0x4C7 PUSH2 0x134A JUMP JUMPDEST PUSH2 0x4F1 PUSH32 0x632405D99F3A4D6966C57F76CC301A3C7CAB4B56CE8E567A4198E9434B3FBB5B DUP3 PUSH2 0x13D1 JUMP JUMPDEST POP POP JUMP JUMPDEST DUP2 PUSH0 ISZERO ISZERO PUSH1 0x3 PUSH0 DUP4 DUP2 MSTORE PUSH1 0x20 ADD SWAP1 DUP2 MSTORE PUSH1 0x20 ADD PUSH0 KECCAK256 PUSH1 0x6 ADD PUSH1 0x3 ADD PUSH0 SWAP1 SLOAD SWAP1 PUSH2 0x100 EXP SWAP1 DIV PUSH1 0xFF AND ISZERO ISZERO EQ PUSH2 0x55F JUMPI PUSH1 0x40 MLOAD PUSH32 0x8C379A000000000000000000000000000000000000000000000000000000000 DUP2 MSTORE PUSH1 0x4 ADD PUSH2 0x556 SWAP1 PUSH2 0x1E9B JUMP JUMPDEST PUSH1 0x40 MLOAD DUP1 SWAP2 SUB SWAP1 REVERT JUMPDEST DUP1 PUSH1 0x3 PUSH0 DUP4 DUP2 MSTORE PUSH1 0x20 ADD SWAP1 DUP2 MSTORE PUSH1 0x20 ADD PUSH0 KECCAK256 PUSH0 ADD SLOAD EQ PUSH2 0x5B4 JUMPI PUSH1 0x40 MLOAD PUSH32 0x8C379A000000000000000000000000000000000000000000000000000000000 DUP2 MSTORE PUSH1 0x4 ADD PUSH2 0x5AB SWAP1 PUSH2 0x1F03 JUMP JUMPDEST PUSH1 0x40 MLOAD DUP1 SWAP2 SUB SWAP1 REVERT JUMPDEST PUSH0 PUSH1 0x3 PUSH0 DUP4 DUP2 MSTORE PUSH1 0x20 ADD SWAP1 DUP2 MSTORE PUSH1 0x20 ADD PUSH0 KECCAK256 PUSH1 0x4 ADD SLOAD SUB PUSH2 0x60A JUMPI PUSH1 0x40 MLOAD PUSH32 0x8C379A000000000000000000000000000000000000000000000000000000000 DUP2 MSTORE PUSH1 0x4 ADD PUSH2 0x601 SWAP1 PUSH2 0x1F6B JUMP JUMPDEST PUSH1 0x40 MLOAD DUP1 SWAP2 SUB SWAP1 REVERT JUMPDEST PUSH32 0x632405D99F3A4D6966C57F76CC301A3C7CAB4B56CE8E567A4198E9434B3FBB5B PUSH2 0x634 DUP2 PUSH2 0x14BA JUMP JUMPDEST PUSH32 0xDF8B4C520FFE197C5343C6F5AEC59570151EF9A492F2C624FD45DDDE6135EC42 PUSH2 0x65E DUP2 PUSH2 0x14BA JUMP JUMPDEST PUSH1 0x5 PUSH0 DUP7 DUP2 MSTORE PUSH1 0x20 ADD SWAP1 DUP2 MSTORE PUSH1 0x20 ADD PUSH0 KECCAK256 PUSH0 SWAP1 SLOAD SWAP1 PUSH2 0x100 EXP SWAP1 DIV PUSH20 0xFFFFFFFFFFFFFFFFFFFFFFFFFFFFFFFFFFFFFFFF AND PUSH20 0xFFFFFFFFFFFFFFFFFFFFFFFFFFFFFFFFFFFFFFFF AND CALLER PUSH20 0xFFFFFFFFFFFFFFFFFFFFFFFFFFFFFFFFFFFFFFFF AND EQ DUP1 PUSH2 0x6EE JUMPI POP PUSH2 0x6ED PUSH32 0xDF8B4C520FFE197C5343C6F5AEC59570151EF9A492F2C624FD45DDDE6135EC42 CALLER PUSH2 0x10BF JUMP JUMPDEST JUMPDEST PUSH2 0x72D JUMPI PUSH1 0x40 MLOAD PUSH32 0x8C379A000000000000000000000000000000000000000000000000000000000 DUP2 MSTORE PUSH1 0x4 ADD PUSH2 0x724 SWAP1 PUSH2 0x1FD3 JUMP JUMPDEST PUSH1 0x40 MLOAD DUP1 SWAP2 SUB SWAP1 REVERT JUMPDEST DUP4 PUSH1 0x3 PUSH0 DUP8 DUP2 MSTORE PUSH1 0x20 ADD SWAP1 DUP2 MSTORE PUSH1 0x20 ADD PUSH0 KECCAK256 PUSH1 0x6 ADD PUSH0 ADD SWAP1 DUP2 PUSH2 0x750 SWAP2 SWAP1 PUSH2 0x21EB JUMP JUMPDEST POP TIMESTAMP PUSH1 0x3 PUSH0 DUP8 DUP2 MSTORE PUSH1 0x20 ADD SWAP1 DUP2 MSTORE PUSH1 0x20 ADD PUSH0 KECCAK256 PUSH1 0x6 ADD PUSH1 0x2 ADD DUP2 SWAP1 SSTORE POP PUSH1 0x1 PUSH1 0x3 PUSH0 DUP8 DUP2 MSTORE PUSH1 0x20 ADD SWAP1 DUP2 MSTORE PUSH1 0x20 ADD PUSH0 KECCAK256 PUSH1 0x6 ADD PUSH1 0x3 ADD PUSH0 PUSH2 0x100 EXP DUP2 SLOAD DUP2 PUSH1 0xFF MUL NOT AND SWAP1 DUP4 ISZERO ISZERO MUL OR SWAP1 SSTORE POP PUSH32 0xF295C689D401CE1625E9BD2ADBA7641F92CC231677989C7FE706354CB643E798 PUSH1 0x3 PUSH0 DUP8 DUP2 MSTORE PUSH1 0x20 ADD SWAP1 DUP2 MSTORE PUSH1 0x20 ADD PUSH0 KECCAK256 PUSH1 0x6 ADD PUSH0 ADD PUSH1 0x3 PUSH0 DUP9 DUP2 MSTORE PUSH1 0x20 ADD SWAP1 DUP2 MSTORE PUSH1 0x20 ADD PUSH0 KECCAK256 PUSH1 0x6 ADD PUSH1 0x1 ADD TIMESTAMP DUP9 PUSH1 0x3 PUSH0 DUP12 DUP2 MSTORE PUSH1 0x20 ADD SWAP1 DUP2 MSTORE PUSH1 0x20 ADD PUSH0 KECCAK256 PUSH1 0x6 ADD PUSH1 0x3 ADD PUSH1 0x1 SWAP1 SLOAD SWAP1 PUSH2 0x100 EXP SWAP1 DIV PUSH1 0xFF AND PUSH1 0x40 MLOAD PUSH2 0x822 SWAP6 SWAP5 SWAP4 SWAP3 SWAP2 SWAP1 PUSH2 0x233B JUMP JUMPDEST PUSH1 0x40 MLOAD DUP1 SWAP2 SUB SWAP1 LOG1 POP POP POP POP POP JUMP JUMPDEST PUSH0 PUSH1 0x1 PUSH0 DUP4 DUP2 MSTORE PUSH1 0x20 ADD SWAP1 DUP2 MSTORE PUSH1 0x20 ADD PUSH0 KECCAK256 PUSH1 0x1 ADD SLOAD SWAP1 POP SWAP2 SWAP1 POP JUMP JUMPDEST PUSH2 0x857 DUP3 PUSH2 0x831 JUMP JUMPDEST PUSH2 0x860 DUP2 PUSH2 0x14BA JUMP JUMPDEST PUSH2 0x86A DUP4 DUP4 PUSH2 0x13D1 JUMP JUMPDEST POP POP POP POP JUMP JUMPDEST PUSH2 0x878 PUSH2 0x14CE JUMP JUMPDEST PUSH20 0xFFFFFFFFFFFFFFFFFFFFFFFFFFFFFFFFFFFFFFFF AND DUP2 PUSH20 0xFFFFFFFFFFFFFFFFFFFFFFFFFFFFFFFFFFFFFFFF AND EQ PUSH2 0x8DC JUMPI PUSH1 0x40 MLOAD PUSH32 0x6697B23200000000000000000000000000000000000000000000000000000000 DUP2 MSTORE PUSH1 0x4 ADD PUSH1 0x40 MLOAD DUP1 SWAP2 SUB SWAP1 REVERT JUMPDEST PUSH2 0x8E6 DUP3 DUP3 PUSH2 0x14D5 JUMP JUMPDEST POP POP POP JUMP JUMPDEST PUSH1 0x2 SLOAD DUP2 JUMP JUMPDEST PUSH2 0x91B PUSH32 0x632405D99F3A4D6966C57F76CC301A3C7CAB4B56CE8E567A4198E9434B3FBB5B CALLER PUSH2 0x10BF JUMP JUMPDEST DUP1 PUSH2 0x94C JUMPI POP PUSH2 0x94B PUSH32 0xDF8B4C520FFE197C5343C6F5AEC59570151EF9A492F2C624FD45DDDE6135EC42 CALLER PUSH2 0x10BF JUMP JUMPDEST JUMPDEST PUSH2 0x98B JUMPI PUSH1 0x40 MLOAD PUSH32 0x8C379A000000000000000000000000000000000000000000000000000000000 DUP2 MSTORE PUSH1 0x4 ADD PUSH2 0x982 SWAP1 PUSH2 0x23E4 JUMP JUMPDEST PUSH1 0x40 MLOAD DUP1 SWAP2 SUB SWAP1 REVERT JUMPDEST DUP7 DUP7 DUP7 DUP7 PUSH0 DUP5 MLOAD GT PUSH2 0x9D2 JUMPI PUSH1 0x40 MLOAD PUSH32 0x8C379A000000000000000000000000000000000000000000000000000000000 DUP2 MSTORE PUSH1 0x4 ADD PUSH2 0x9C9 SWAP1 PUSH2 0x244C JUMP JUMPDEST PUSH1 0x40 MLOAD DUP1 SWAP2 SUB SWAP1 REVERT JUMPDEST PUSH0 DUP4 MLOAD GT PUSH2 0xA15 JUMPI PUSH1 0x40 MLOAD PUSH32 0x8C379A000000000000000000000000000000000000000000000000000000000 DUP2 MSTORE PUSH1 0x4 ADD PUSH2 0xA0C SWAP1 PUSH2 0x24B4 JUMP JUMPDEST PUSH1 0x40 MLOAD DUP1 SWAP2 SUB SWAP1 REVERT JUMPDEST PUSH0 DUP3 MLOAD GT PUSH2 0xA58 JUMPI PUSH1 0x40 MLOAD PUSH32 0x8C379A000000000000000000000000000000000000000000000000000000000 DUP2 MSTORE PUSH1 0x4 ADD PUSH2 0xA4F SWAP1 PUSH2 0x251C JUMP JUMPDEST PUSH1 0x40 MLOAD DUP1 SWAP2 SUB SWAP1 REVERT JUMPDEST PUSH0 DUP2 GT PUSH2 0xA9A JUMPI PUSH1 0x40 MLOAD PUSH32 0x8C379A000000000000000000000000000000000000000000000000000000000 DUP2 MSTORE PUSH1 0x4 ADD PUSH2 0xA91 SWAP1 PUSH2 0x25AA JUMP JUMPDEST PUSH1 0x40 MLOAD DUP1 SWAP2 SUB SWAP1 REVERT JUMPDEST PUSH0 PUSH1 0x2 SLOAD SWAP1 POP PUSH1 0x40 MLOAD DUP1 PUSH1 0xE0 ADD PUSH1 0x40 MSTORE DUP1 DUP3 DUP2 MSTORE PUSH1 0x20 ADD DUP14 DUP2 MSTORE PUSH1 0x20 ADD DUP12 DUP2 MSTORE PUSH1 0x20 ADD DUP13 DUP2 MSTORE PUSH1 0x20 ADD DUP11 DUP2 MSTORE PUSH1 0x20 ADD TIMESTAMP DUP2 MSTORE PUSH1 0x20 ADD PUSH1 0x40 MLOAD DUP1 PUSH1 0xC0 ADD PUSH1 0x40 MSTORE DUP1 DUP12 DUP2 MSTORE PUSH1 0x20 ADD DUP11 DUP2 MSTORE PUSH1 0x20 ADD DUP10 PUSH2 0xAF1 JUMPI PUSH0 PUSH2 0xAF3 JUMP JUMPDEST TIMESTAMP JUMPDEST DUP2 MSTORE PUSH1 0x20 ADD DUP10 ISZERO ISZERO DUP2 MSTORE PUSH1 0x20 ADD PUSH0 ISZERO ISZERO DUP2 MSTORE PUSH1 0x20 ADD PUSH0 DUP2 MSTORE POP DUP2 MSTORE POP PUSH1 0x3 PUSH0 DUP4 DUP2 MSTORE PUSH1 0x20 ADD SWAP1 DUP2 MSTORE PUSH1 0x20 ADD PUSH0 KECCAK256 PUSH0 DUP3 ADD MLOAD DUP2 PUSH0 ADD SSTORE PUSH1 0x20 DUP3 ADD MLOAD DUP2 PUSH1 0x1 ADD SWAP1 DUP2 PUSH2 0xB3D SWAP2 SWAP1 PUSH2 0x21EB JUMP JUMPDEST POP PUSH1 0x40 DUP3 ADD MLOAD DUP2 PUSH1 0x2 ADD SWAP1 DUP2 PUSH2 0xB53 SWAP2 SWAP1 PUSH2 0x21EB JUMP JUMPDEST POP PUSH1 0x60 DUP3 ADD MLOAD DUP2 PUSH1 0x3 ADD SWAP1 DUP2 PUSH2 0xB69 SWAP2 SWAP1 PUSH2 0x21EB JUMP JUMPDEST POP PUSH1 0x80 DUP3 ADD MLOAD DUP2 PUSH1 0x4 ADD SSTORE PUSH1 0xA0 DUP3 ADD MLOAD DUP2 PUSH1 0x5 ADD SSTORE PUSH1 0xC0 DUP3 ADD MLOAD DUP2 PUSH1 0x6 ADD PUSH0 DUP3 ADD MLOAD DUP2 PUSH0 ADD SWAP1 DUP2 PUSH2 0xB9A SWAP2 SWAP1 PUSH2 0x21EB JUMP JUMPDEST POP PUSH1 0x20 DUP3 ADD MLOAD DUP2 PUSH1 0x1 ADD SWAP1 DUP2 PUSH2 0xBB0 SWAP2 SWAP1 PUSH2 0x21EB JUMP JUMPDEST POP PUSH1 0x40 DUP3 ADD MLOAD DUP2 PUSH1 0x2 ADD SSTORE PUSH1 0x60 DUP3 ADD MLOAD DUP2 PUSH1 0x3 ADD PUSH0 PUSH2 0x100 EXP DUP2 SLOAD DUP2 PUSH1 0xFF MUL NOT AND SWAP1 DUP4 ISZERO ISZERO MUL OR SWAP1 SSTORE POP PUSH1 0x80 DUP3 ADD MLOAD DUP2 PUSH1 0x3 ADD PUSH1 0x1 PUSH2 0x100 EXP DUP2 SLOAD DUP2 PUSH1 0xFF MUL NOT AND SWAP1 DUP4 ISZERO ISZERO MUL OR SWAP1 SSTORE POP PUSH1 0xA0 DUP3 ADD MLOAD DUP2 PUSH1 0x4 ADD SSTORE POP POP SWAP1 POP POP CALLER PUSH1 0x4 PUSH0 PUSH1 0x2 SLOAD DUP2 MSTORE PUSH1 0x20 ADD SWAP1 DUP2 MSTORE PUSH1 0x20 ADD PUSH0 KECCAK256 PUSH0 PUSH2 0x100 EXP DUP2 SLOAD DUP2 PUSH20 0xFFFFFFFFFFFFFFFFFFFFFFFFFFFFFFFFFFFFFFFF MUL NOT AND SWAP1 DUP4 PUSH20 0xFFFFFFFFFFFFFFFFFFFFFFFFFFFFFFFFFFFFFFFF AND MUL OR SWAP1 SSTORE POP CALLER PUSH20 0xFFFFFFFFFFFFFFFFFFFFFFFFFFFFFFFFFFFFFFFF AND DUP2 PUSH32 0xE5D05C377F26D26B0A4B41CAFBD67A19A498B3AD7003A1014B351A8EB0CCC996 DUP15 DUP14 DUP16 DUP15 PUSH1 0x3 PUSH0 DUP10 DUP2 MSTORE PUSH1 0x20 ADD SWAP1 DUP2 MSTORE PUSH1 0x20 ADD PUSH0 KECCAK256 PUSH1 0x6 ADD PUSH1 0x40 MLOAD PUSH2 0xCBC SWAP6 SWAP5 SWAP4 SWAP3 SWAP2 SWAP1 PUSH2 0x2772 JUMP JUMPDEST PUSH1 0x40 MLOAD DUP1 SWAP2 SUB SWAP1 LOG3 PUSH1 0x2 PUSH0 DUP2 SLOAD DUP1 SWAP3 SWAP2 SWAP1 PUSH2 0xCD6 SWAP1 PUSH2 0x280C JUMP JUMPDEST SWAP2 SWAP1 POP SSTORE POP POP POP POP POP POP POP POP POP POP POP POP POP JUMP JUMPDEST PUSH2 0xCF1 PUSH2 0x134A JUMP JUMPDEST PUSH2 0xCFA PUSH0 PUSH2 0x15BF JUMP JUMPDEST JUMP JUMPDEST PUSH32 0xDF8B4C520FFE197C5343C6F5AEC59570151EF9A492F2C624FD45DDDE6135EC42 DUP2 JUMP JUMPDEST PUSH2 0xD28 PUSH2 0x134A JUMP JUMPDEST PUSH2 0xD52 PUSH32 0x632405D99F3A4D6966C57F76CC301A3C7CAB4B56CE8E567A4198E9434B3FBB5B DUP3 PUSH2 0x14D5 JUMP JUMPDEST POP POP JUMP JUMPDEST PUSH1 0x3 PUSH1 0x20 MSTORE DUP1 PUSH0 MSTORE PUSH1 0x40 PUSH0 KECCAK256 PUSH0 SWAP2 POP SWAP1 POP DUP1 PUSH0 ADD SLOAD SWAP1 DUP1 PUSH1 0x1 ADD DUP1 SLOAD PUSH2 0xD7B SWAP1 PUSH2 0x201E JUMP JUMPDEST DUP1 PUSH1 0x1F ADD PUSH1 0x20 DUP1 SWAP2 DIV MUL PUSH1 0x20 ADD PUSH1 0x40 MLOAD SWAP1 DUP2 ADD PUSH1 0x40 MSTORE DUP1 SWAP3 SWAP2 SWAP1 DUP2 DUP2 MSTORE PUSH1 0x20 ADD DUP3 DUP1 SLOAD PUSH2 0xDA7 SWAP1 PUSH2 0x201E JUMP JUMPDEST DUP1 ISZERO PUSH2 0xDF2 JUMPI DUP1 PUSH1 0x1F LT PUSH2 0xDC9 JUMPI PUSH2 0x100 DUP1 DUP4 SLOAD DIV MUL DUP4 MSTORE SWAP2 PUSH1 0x20 ADD SWAP2 PUSH2 0xDF2 JUMP JUMPDEST DUP3 ADD SWAP2 SWAP1 PUSH0 MSTORE PUSH1 0x20 PUSH0 KECCAK256 SWAP1 JUMPDEST DUP2 SLOAD DUP2 MSTORE SWAP1 PUSH1 0x1 ADD SWAP1 PUSH1 0x20 ADD DUP1 DUP4 GT PUSH2 0xDD5 JUMPI DUP3 SWAP1 SUB PUSH1 0x1F AND DUP3 ADD SWAP2 JUMPDEST POP POP POP POP POP SWAP1 DUP1 PUSH1 0x2 ADD DUP1 SLOAD PUSH2 0xE07 SWAP1 PUSH2 0x201E JUMP JUMPDEST DUP1 PUSH1 0x1F ADD PUSH1 0x20 DUP1 SWAP2 DIV MUL PUSH1 0x20 ADD PUSH1 0x40 MLOAD SWAP1 DUP2 ADD PUSH1 0x40 MSTORE DUP1 SWAP3 SWAP2 SWAP1 DUP2 DUP2 MSTORE PUSH1 0x20 ADD DUP3 DUP1 SLOAD PUSH2 0xE33 SWAP1 PUSH2 0x201E JUMP JUMPDEST DUP1 ISZERO PUSH2 0xE7E JUMPI DUP1 PUSH1 0x1F LT PUSH2 0xE55 JUMPI PUSH2 0x100 DUP1 DUP4 SLOAD DIV MUL DUP4 MSTORE SWAP2 PUSH1 0x20 ADD SWAP2 PUSH2 0xE7E JUMP JUMPDEST DUP3 ADD SWAP2 SWAP1 PUSH0 MSTORE PUSH1 0x20 PUSH0 KECCAK256 SWAP1 JUMPDEST DUP2 SLOAD DUP2 MSTORE SWAP1 PUSH1 0x1 ADD SWAP1 PUSH1 0x20 ADD DUP1 DUP4 GT PUSH2 0xE61 JUMPI DUP3 SWAP1 SUB PUSH1 0x1F AND DUP3 ADD SWAP2 JUMPDEST POP POP POP POP POP SWAP1 DUP1 PUSH1 0x3 ADD DUP1 SLOAD PUSH2 0xE93 SWAP1 PUSH2 0x201E JUMP JUMPDEST DUP1 PUSH1 0x1F ADD PUSH1 0x20 DUP1 SWAP2 DIV MUL PUSH1 0x20 ADD PUSH1 0x40 MLOAD SWAP1 DUP2 ADD PUSH1 0x40 MSTORE DUP1 SWAP3 SWAP2 SWAP1 DUP2 DUP2 MSTORE PUSH1 0x20 ADD DUP3 DUP1 SLOAD PUSH2 0xEBF SWAP1 PUSH2 0x201E JUMP JUMPDEST DUP1 ISZERO PUSH2 0xF0A JUMPI DUP1 PUSH1 0x1F LT PUSH2 0xEE1 JUMPI PUSH2 0x100 DUP1 DUP4 SLOAD DIV MUL DUP4 MSTORE SWAP2 PUSH1 0x20 ADD SWAP2 PUSH2 0xF0A JUMP JUMPDEST DUP3 ADD SWAP2 SWAP1 PUSH0 MSTORE PUSH1 0x20 PUSH0 KECCAK256 SWAP1 JUMPDEST DUP2 SLOAD DUP2 MSTORE SWAP1 PUSH1 0x1 ADD SWAP1 PUSH1 0x20 ADD DUP1 DUP4 GT PUSH2 0xEED JUMPI DUP3 SWAP1 SUB PUSH1 0x1F AND DUP3 ADD SWAP2 JUMPDEST POP POP POP POP POP SWAP1 DUP1 PUSH1 0x4 ADD SLOAD SWAP1 DUP1 PUSH1 0x5 ADD SLOAD SWAP1 DUP1 PUSH1 0x6 ADD PUSH1 0x40 MLOAD DUP1 PUSH1 0xC0 ADD PUSH1 0x40 MSTORE SWAP1 DUP2 PUSH0 DUP3 ADD DUP1 SLOAD PUSH2 0xF3A SWAP1 PUSH2 0x201E JUMP JUMPDEST DUP1 PUSH1 0x1F ADD PUSH1 0x20 DUP1 SWAP2 DIV MUL PUSH1 0x20 ADD PUSH1 0x40 MLOAD SWAP1 DUP2 ADD PUSH1 0x40 MSTORE DUP1 SWAP3 SWAP2 SWAP1 DUP2 DUP2 MSTORE PUSH1 0x20 ADD DUP3 DUP1 SLOAD PUSH2 0xF66 SWAP1 PUSH2 0x201E JUMP JUMPDEST DUP1 ISZERO PUSH2 0xFB1 JUMPI DUP1 PUSH1 0x1F LT PUSH2 0xF88 JUMPI PUSH2 0x100 DUP1 DUP4 SLOAD DIV MUL DUP4 MSTORE SWAP2 PUSH1 0x20 ADD SWAP2 PUSH2 0xFB1 JUMP JUMPDEST DUP3 ADD SWAP2 SWAP1 PUSH0 MSTORE PUSH1 0x20 PUSH0 KECCAK256 SWAP1 JUMPDEST DUP2 SLOAD DUP2 MSTORE SWAP1 PUSH1 0x1 ADD SWAP1 PUSH1 0x20 ADD DUP1 DUP4 GT PUSH2 0xF94 JUMPI DUP3 SWAP1 SUB PUSH1 0x1F AND DUP3 ADD SWAP2 JUMPDEST POP POP POP POP POP DUP2 MSTORE PUSH1 0x20 ADD PUSH1 0x1 DUP3 ADD DUP1 SLOAD PUSH2 0xFCA SWAP1 PUSH2 0x201E JUMP JUMPDEST DUP1 PUSH1 0x1F ADD PUSH1 0x20 DUP1 SWAP2 DIV MUL PUSH1 0x20 ADD PUSH1 0x40 MLOAD SWAP1 DUP2 ADD PUSH1 0x40 MSTORE DUP1 SWAP3 SWAP2 SWAP1 DUP2 DUP2 MSTORE PUSH1 0x20 ADD DUP3 DUP1 SLOAD PUSH2 0xFF6 SWAP1 PUSH2 0x201E JUMP JUMPDEST DUP1 ISZERO PUSH2 0x1041 JUMPI DUP1 PUSH1 0x1F LT PUSH2 0x1018 JUMPI PUSH2 0x100 DUP1 DUP4 SLOAD DIV MUL DUP4 MSTORE SWAP2 PUSH1 0x20 ADD SWAP2 PUSH2 0x1041 JUMP JUMPDEST DUP3 ADD SWAP2 SWAP1 PUSH0 MSTORE PUSH1 0x20 PUSH0 KECCAK256 SWAP1 JUMPDEST DUP2 SLOAD DUP2 MSTORE SWAP1 PUSH1 0x1 ADD SWAP1 PUSH1 0x20 ADD DUP1 DUP4 GT PUSH2 0x1024 JUMPI DUP3 SWAP1 SUB PUSH1 0x1F AND DUP3 ADD SWAP2 JUMPDEST POP POP POP POP POP DUP2 MSTORE PUSH1 0x20 ADD PUSH1 0x2 DUP3 ADD SLOAD DUP2 MSTORE PUSH1 0x20 ADD PUSH1 0x3 DUP3 ADD PUSH0 SWAP1 SLOAD SWAP1 PUSH2 0x100 EXP SWAP1 DIV PUSH1 0xFF AND ISZERO ISZERO ISZERO ISZERO DUP2 MSTORE PUSH1 0x20 ADD PUSH1 0x3 DUP3 ADD PUSH1 0x1 SWAP1 SLOAD SWAP1 PUSH2 0x100 EXP SWAP1 DIV PUSH1 0xFF AND ISZERO ISZERO ISZERO ISZERO DUP2 MSTORE PUSH1 0x20 ADD PUSH1 0x4 DUP3 ADD SLOAD DUP2 MSTORE POP POP SWAP1 POP DUP8 JUMP JUMPDEST PUSH0 DUP1 PUSH0 SWAP1 SLOAD SWAP1 PUSH2 0x100 EXP SWAP1 DIV PUSH20 0xFFFFFFFFFFFFFFFFFFFFFFFFFFFFFFFFFFFFFFFF AND SWAP1 POP SWAP1 JUMP JUMPDEST PUSH0 PUSH1 0x1 PUSH0 DUP5 DUP2 MSTORE PUSH1 0x20 ADD SWAP1 DUP2 MSTORE PUSH1 0x20 ADD PUSH0 KECCAK256 PUSH0 ADD PUSH0 DUP4 PUSH20 0xFFFFFFFFFFFFFFFFFFFFFFFFFFFFFFFFFFFFFFFF AND PUSH20 0xFFFFFFFFFFFFFFFFFFFFFFFFFFFFFFFFFFFFFFFF AND DUP2 MSTORE PUSH1 0x20 ADD SWAP1 DUP2 MSTORE PUSH1 0x20 ADD PUSH0 KECCAK256 PUSH0 SWAP1 SLOAD SWAP1 PUSH2 0x100 EXP SWAP1 DIV PUSH1 0xFF AND SWAP1 POP SWAP3 SWAP2 POP POP JUMP JUMPDEST PUSH32 0x632405D99F3A4D6966C57F76CC301A3C7CAB4B56CE8E567A4198E9434B3FBB5B PUSH2 0x114D DUP2 PUSH2 0x14BA JUMP JUMPDEST PUSH2 0x1177 PUSH32 0xDF8B4C520FFE197C5343C6F5AEC59570151EF9A492F2C624FD45DDDE6135EC42 DUP4 PUSH2 0x14D5 JUMP JUMPDEST POP POP POP JUMP JUMPDEST PUSH0 DUP1 SHL DUP2 JUMP JUMPDEST PUSH1 0x5 PUSH1 0x20 MSTORE DUP1 PUSH0 MSTORE PUSH1 0x40 PUSH0 KECCAK256 PUSH0 SWAP2 POP SLOAD SWAP1 PUSH2 0x100 EXP SWAP1 DIV PUSH20 0xFFFFFFFFFFFFFFFFFFFFFFFFFFFFFFFFFFFFFFFF AND DUP2 JUMP JUMPDEST PUSH1 0x4 PUSH1 0x20 MSTORE DUP1 PUSH0 MSTORE PUSH1 0x40 PUSH0 KECCAK256 PUSH0 SWAP2 POP SLOAD SWAP1 PUSH2 0x100 EXP SWAP1 DIV PUSH20 0xFFFFFFFFFFFFFFFFFFFFFFFFFFFFFFFFFFFFFFFF AND DUP2 JUMP JUMPDEST PUSH32 0x632405D99F3A4D6966C57F76CC301A3C7CAB4B56CE8E567A4198E9434B3FBB5B PUSH2 0x120C DUP2 PUSH2 0x14BA JUMP JUMPDEST PUSH2 0x1236 PUSH32 0xDF8B4C520FFE197C5343C6F5AEC59570151EF9A492F2C624FD45DDDE6135EC42 DUP4 PUSH2 0x13D1 JUMP JUMPDEST POP POP POP JUMP JUMPDEST PUSH2 0x1244 DUP3 PUSH2 0x831 JUMP JUMPDEST PUSH2 0x124D DUP2 PUSH2 0x14BA JUMP JUMPDEST PUSH2 0x1257 DUP4 DUP4 PUSH2 0x14D5 JUMP JUMPDEST POP POP POP POP JUMP JUMPDEST PUSH2 0x1265 PUSH2 0x134A JUMP JUMPDEST PUSH0 PUSH20 0xFFFFFFFFFFFFFFFFFFFFFFFFFFFFFFFFFFFFFFFF AND DUP2 PUSH20 0xFFFFFFFFFFFFFFFFFFFFFFFFFFFFFFFFFFFFFFFF AND SUB PUSH2 0x12D5 JUMPI PUSH0 PUSH1 0x40 MLOAD PUSH32 0x1E4FBDF700000000000000000000000000000000000000000000000000000000 DUP2 MSTORE PUSH1 0x4 ADD PUSH2 0x12CC SWAP2 SWAP1 PUSH2 0x1E38 JUMP JUMPDEST PUSH1 0x40 MLOAD DUP1 SWAP2 SUB SWAP1 REVERT JUMPDEST PUSH2 0x12DE DUP2 PUSH2 0x15BF JUMP JUMPDEST POP JUMP JUMPDEST PUSH0 PUSH32 0x1FFC9A700000000000000000000000000000000000000000000000000000000 PUSH28 0xFFFFFFFFFFFFFFFFFFFFFFFFFFFFFFFFFFFFFFFFFFFFFFFFFFFFFFFF NOT AND DUP3 PUSH28 0xFFFFFFFFFFFFFFFFFFFFFFFFFFFFFFFFFFFFFFFFFFFFFFFFFFFFFFFF NOT AND EQ SWAP1 POP SWAP2 SWAP1 POP JUMP JUMPDEST PUSH2 0x1352 PUSH2 0x14CE JUMP JUMPDEST PUSH20 0xFFFFFFFFFFFFFFFFFFFFFFFFFFFFFFFFFFFFFFFF AND PUSH2 0x1370 PUSH2 0x1098 JUMP JUMPDEST PUSH20 0xFFFFFFFFFFFFFFFFFFFFFFFFFFFFFFFFFFFFFFFF AND EQ PUSH2 0x13CF JUMPI PUSH2 0x1393 PUSH2 0x14CE JUMP JUMPDEST PUSH1 0x40 MLOAD PUSH32 0x118CDAA700000000000000000000000000000000000000000000000000000000 DUP2 MSTORE PUSH1 0x4 ADD PUSH2 0x13C6 SWAP2 SWAP1 PUSH2 0x1E38 JUMP JUMPDEST PUSH1 0x40 MLOAD DUP1 SWAP2 SUB SWAP1 REVERT JUMPDEST JUMP JUMPDEST PUSH0 PUSH2 0x13DC DUP4 DUP4 PUSH2 0x10BF JUMP JUMPDEST PUSH2 0x14B0 JUMPI PUSH1 0x1 DUP1 PUSH0 DUP6 DUP2 MSTORE PUSH1 0x20 ADD SWAP1 DUP2 MSTORE PUSH1 0x20 ADD PUSH0 KECCAK256 PUSH0 ADD PUSH0 DUP5 PUSH20 0xFFFFFFFFFFFFFFFFFFFFFFFFFFFFFFFFFFFFFFFF AND PUSH20 0xFFFFFFFFFFFFFFFFFFFFFFFFFFFFFFFFFFFFFFFF AND DUP2 MSTORE PUSH1 0x20 ADD SWAP1 DUP2 MSTORE PUSH1 0x20 ADD PUSH0 KECCAK256 PUSH0 PUSH2 0x100 EXP DUP2 SLOAD DUP2 PUSH1 0xFF MUL NOT AND SWAP1 DUP4 ISZERO ISZERO MUL OR SWAP1 SSTORE POP PUSH2 0x144D PUSH2 0x14CE JUMP JUMPDEST PUSH20 0xFFFFFFFFFFFFFFFFFFFFFFFFFFFFFFFFFFFFFFFF AND DUP3 PUSH20 0xFFFFFFFFFFFFFFFFFFFFFFFFFFFFFFFFFFFFFFFF AND DUP5 PUSH32 0x2F8788117E7EFF1D82E926EC794901D17C78024A50270940304540A733656F0D PUSH1 0x40 MLOAD PUSH1 0x40 MLOAD DUP1 SWAP2 SUB SWAP1 LOG4 PUSH1 0x1 SWAP1 POP PUSH2 0x14B4 JUMP JUMPDEST PUSH0 SWAP1 POP JUMPDEST SWAP3 SWAP2 POP POP JUMP JUMPDEST PUSH2 0x14CB DUP2 PUSH2 0x14C6 PUSH2 0x14CE JUMP JUMPDEST PUSH2 0x1680 JUMP JUMPDEST POP JUMP JUMPDEST PUSH0 CALLER SWAP1 POP SWAP1 JUMP JUMPDEST PUSH0 PUSH2 0x14E0 DUP4 DUP4 PUSH2 0x10BF JUMP JUMPDEST ISZERO PUSH2 0x15B5 JUMPI PUSH0 PUSH1 0x1 PUSH0 DUP6 DUP2 MSTORE PUSH1 0x20 ADD SWAP1 DUP2 MSTORE PUSH1 0x20 ADD PUSH0 KECCAK256 PUSH0 ADD PUSH0 DUP5 PUSH20 0xFFFFFFFFFFFFFFFFFFFFFFFFFFFFFFFFFFFFFFFF AND PUSH20 0xFFFFFFFFFFFFFFFFFFFFFFFFFFFFFFFFFFFFFFFF AND DUP2 MSTORE PUSH1 0x20 ADD SWAP1 DUP2 MSTORE PUSH1 0x20 ADD PUSH0 KECCAK256 PUSH0 PUSH2 0x100 EXP DUP2 SLOAD DUP2 PUSH1 0xFF MUL NOT AND SWAP1 DUP4 ISZERO ISZERO MUL OR SWAP1 SSTORE POP PUSH2 0x1552 PUSH2 0x14CE JUMP JUMPDEST PUSH20 0xFFFFFFFFFFFFFFFFFFFFFFFFFFFFFFFFFFFFFFFF AND DUP3 PUSH20 0xFFFFFFFFFFFFFFFFFFFFFFFFFFFFFFFFFFFFFFFF AND DUP5 PUSH32 0xF6391F5C32D9C69D2A47EA670B442974B53935D1EDC7FD64EB21E047A839171B PUSH1 0x40 MLOAD PUSH1 0x40 MLOAD DUP1 SWAP2 SUB SWAP1 LOG4 PUSH1 0x1 SWAP1 POP PUSH2 0x15B9 JUMP JUMPDEST PUSH0 SWAP1 POP JUMPDEST SWAP3 SWAP2 POP POP JUMP JUMPDEST PUSH0 DUP1 PUSH0 SWAP1 SLOAD SWAP1 PUSH2 0x100 EXP SWAP1 DIV PUSH20 0xFFFFFFFFFFFFFFFFFFFFFFFFFFFFFFFFFFFFFFFF AND SWAP1 POP DUP2 PUSH0 DUP1 PUSH2 0x100 EXP DUP2 SLOAD DUP2 PUSH20 0xFFFFFFFFFFFFFFFFFFFFFFFFFFFFFFFFFFFFFFFF MUL NOT AND SWAP1 DUP4 PUSH20 0xFFFFFFFFFFFFFFFFFFFFFFFFFFFFFFFFFFFFFFFF AND MUL OR SWAP1 SSTORE POP DUP2 PUSH20 0xFFFFFFFFFFFFFFFFFFFFFFFFFFFFFFFFFFFFFFFF AND DUP2 PUSH20 0xFFFFFFFFFFFFFFFFFFFFFFFFFFFFFFFFFFFFFFFF AND PUSH32 0x8BE0079C531659141344CD1FD0A4F28419497F9722A3DAAFE3B4186F6B6457E0 PUSH1 0x40 MLOAD PUSH1 0x40 MLOAD DUP1 SWAP2 SUB SWAP1 LOG3 POP POP JUMP JUMPDEST PUSH2 0x168A DUP3 DUP3 PUSH2 0x10BF JUMP JUMPDEST PUSH2 0x16CD JUMPI DUP1 DUP3 PUSH1 0x40 MLOAD PUSH32 0xE2517D3F00000000000000000000000000000000000000000000000000000000 DUP2 MSTORE PUSH1 0x4 ADD PUSH2 0x16C4 SWAP3 SWAP2 SWAP1 PUSH2 0x2853 JUMP JUMPDEST PUSH1 0x40 MLOAD DUP1 SWAP2 SUB SWAP1 REVERT JUMPDEST POP POP JUMP JUMPDEST PUSH0 PUSH1 0x40 MLOAD SWAP1 POP SWAP1 JUMP JUMPDEST PUSH0 DUP1 REVERT JUMPDEST PUSH0 DUP1 REVERT JUMPDEST PUSH0 PUSH32 0xFFFFFFFF00000000000000000000000000000000000000000000000000000000 DUP3 AND SWAP1 POP SWAP2 SWAP1 POP JUMP JUMPDEST PUSH2 0x1716 DUP2 PUSH2 0x16E2 JUMP JUMPDEST DUP2 EQ PUSH2 0x1720 JUMPI PUSH0 DUP1 REVERT JUMPDEST POP JUMP JUMPDEST PUSH0 DUP2 CALLDATALOAD SWAP1 POP PUSH2 0x1731 DUP2 PUSH2 0x170D JUMP JUMPDEST SWAP3 SWAP2 POP POP JUMP JUMPDEST PUSH0 PUSH1 0x20 DUP3 DUP5 SUB SLT ISZERO PUSH2 0x174C JUMPI PUSH2 0x174B PUSH2 0x16DA JUMP JUMPDEST JUMPDEST PUSH0 PUSH2 0x1759 DUP5 DUP3 DUP6 ADD PUSH2 0x1723 JUMP JUMPDEST SWAP2 POP POP SWAP3 SWAP2 POP POP JUMP JUMPDEST PUSH0 DUP2 ISZERO ISZERO SWAP1 POP SWAP2 SWAP1 POP JUMP JUMPDEST PUSH2 0x1776 DUP2 PUSH2 0x1762 JUMP JUMPDEST DUP3 MSTORE POP POP JUMP JUMPDEST PUSH0 PUSH1 0x20 DUP3 ADD SWAP1 POP PUSH2 0x178F PUSH0 DUP4 ADD DUP5 PUSH2 0x176D JUMP JUMPDEST SWAP3 SWAP2 POP POP JUMP JUMPDEST PUSH0 DUP2 SWAP1 POP SWAP2 SWAP1 POP JUMP JUMPDEST PUSH2 0x17A7 DUP2 PUSH2 0x1795 JUMP JUMPDEST DUP3 MSTORE POP POP JUMP JUMPDEST PUSH0 PUSH1 0x20 DUP3 ADD SWAP1 POP PUSH2 0x17C0 PUSH0 DUP4 ADD DUP5 PUSH2 0x179E JUMP JUMPDEST SWAP3 SWAP2 POP POP JUMP JUMPDEST PUSH0 PUSH20 0xFFFFFFFFFFFFFFFFFFFFFFFFFFFFFFFFFFFFFFFF DUP3 AND SWAP1 POP SWAP2 SWAP1 POP JUMP JUMPDEST PUSH0 PUSH2 0x17EF DUP3 PUSH2 0x17C6 JUMP JUMPDEST SWAP1 POP SWAP2 SWAP1 POP JUMP JUMPDEST PUSH2 0x17FF DUP2 PUSH2 0x17E5 JUMP JUMPDEST DUP2 EQ PUSH2 0x1809 JUMPI PUSH0 DUP1 REVERT JUMPDEST POP JUMP JUMPDEST PUSH0 DUP2 CALLDATALOAD SWAP1 POP PUSH2 0x181A DUP2 PUSH2 0x17F6 JUMP JUMPDEST SWAP3 SWAP2 POP POP JUMP JUMPDEST PUSH0 PUSH1 0x20 DUP3 DUP5 SUB SLT ISZERO PUSH2 0x1835 JUMPI PUSH2 0x1834 PUSH2 0x16DA JUMP JUMPDEST JUMPDEST PUSH0 PUSH2 0x1842 DUP5 DUP3 DUP6 ADD PUSH2 0x180C JUMP JUMPDEST SWAP2 POP POP SWAP3 SWAP2 POP POP JUMP JUMPDEST PUSH0 DUP2 SWAP1 POP SWAP2 SWAP1 POP JUMP JUMPDEST PUSH2 0x185D DUP2 PUSH2 0x184B JUMP JUMPDEST DUP2 EQ PUSH2 0x1867 JUMPI PUSH0 DUP1 REVERT JUMPDEST POP JUMP JUMPDEST PUSH0 DUP2 CALLDATALOAD SWAP1 POP PUSH2 0x1878 DUP2 PUSH2 0x1854 JUMP JUMPDEST SWAP3 SWAP2 POP POP JUMP JUMPDEST PUSH0 DUP1 REVERT JUMPDEST PUSH0 DUP1 REVERT JUMPDEST PUSH0 PUSH1 0x1F NOT PUSH1 0x1F DUP4 ADD AND SWAP1 POP SWAP2 SWAP1 POP JUMP JUMPDEST PUSH32 0x4E487B7100000000000000000000000000000000000000000000000000000000 PUSH0 MSTORE PUSH1 0x41 PUSH1 0x4 MSTORE PUSH1 0x24 PUSH0 REVERT JUMPDEST PUSH2 0x18CC DUP3 PUSH2 0x1886 JUMP JUMPDEST DUP2 ADD DUP2 DUP2 LT PUSH8 0xFFFFFFFFFFFFFFFF DUP3 GT OR ISZERO PUSH2 0x18EB JUMPI PUSH2 0x18EA PUSH2 0x1896 JUMP JUMPDEST JUMPDEST DUP1 PUSH1 0x40 MSTORE POP POP POP JUMP JUMPDEST PUSH0 PUSH2 0x18FD PUSH2 0x16D1 JUMP JUMPDEST SWAP1 POP PUSH2 0x1909 DUP3 DUP3 PUSH2 0x18C3 JUMP JUMPDEST SWAP2 SWAP1 POP JUMP JUMPDEST PUSH0 PUSH8 0xFFFFFFFFFFFFFFFF DUP3 GT ISZERO PUSH2 0x1928 JUMPI PUSH2 0x1927 PUSH2 0x1896 JUMP JUMPDEST JUMPDEST PUSH2 0x1931 DUP3 PUSH2 0x1886 JUMP JUMPDEST SWAP1 POP PUSH1 0x20 DUP2 ADD SWAP1 POP SWAP2 SWAP1 POP JUMP JUMPDEST DUP3 DUP2 DUP4 CALLDATACOPY PUSH0 DUP4 DUP4 ADD MSTORE POP POP POP JUMP JUMPDEST PUSH0 PUSH2 0x195E PUSH2 0x1959 DUP5 PUSH2 0x190E JUMP JUMPDEST PUSH2 0x18F4 JUMP JUMPDEST SWAP1 POP DUP3 DUP2 MSTORE PUSH1 0x20 DUP2 ADD DUP5 DUP5 DUP5 ADD GT ISZERO PUSH2 0x197A JUMPI PUSH2 0x1979 PUSH2 0x1882 JUMP JUMPDEST JUMPDEST PUSH2 0x1985 DUP5 DUP3 DUP6 PUSH2 0x193E JUMP JUMPDEST POP SWAP4 SWAP3 POP POP POP JUMP JUMPDEST PUSH0 DUP3 PUSH1 0x1F DUP4 ADD SLT PUSH2 0x19A1 JUMPI PUSH2 0x19A0 PUSH2 0x187E JUMP JUMPDEST JUMPDEST DUP2 CALLDATALOAD PUSH2 0x19B1 DUP5 DUP3 PUSH1 0x20 DUP7 ADD PUSH2 0x194C JUMP JUMPDEST SWAP2 POP POP SWAP3 SWAP2 POP POP JUMP JUMPDEST PUSH0 DUP1 PUSH1 0x40 DUP4 DUP6 SUB SLT ISZERO PUSH2 0x19D0 JUMPI PUSH2 0x19CF PUSH2 0x16DA JUMP JUMPDEST JUMPDEST PUSH0 PUSH2 0x19DD DUP6 DUP3 DUP7 ADD PUSH2 0x186A JUMP JUMPDEST SWAP3 POP POP PUSH1 0x20 DUP4 ADD CALLDATALOAD PUSH8 0xFFFFFFFFFFFFFFFF DUP2 GT ISZERO PUSH2 0x19FE JUMPI PUSH2 0x19FD PUSH2 0x16DE JUMP JUMPDEST JUMPDEST PUSH2 0x1A0A DUP6 DUP3 DUP7 ADD PUSH2 0x198D JUMP JUMPDEST SWAP2 POP POP SWAP3 POP SWAP3 SWAP1 POP JUMP JUMPDEST PUSH2 0x1A1D DUP2 PUSH2 0x1795 JUMP JUMPDEST DUP2 EQ PUSH2 0x1A27 JUMPI PUSH0 DUP1 REVERT JUMPDEST POP JUMP JUMPDEST PUSH0 DUP2 CALLDATALOAD SWAP1 POP PUSH2 0x1A38 DUP2 PUSH2 0x1A14 JUMP JUMPDEST SWAP3 SWAP2 POP POP JUMP JUMPDEST PUSH0 PUSH1 0x20 DUP3 DUP5 SUB SLT ISZERO PUSH2 0x1A53 JUMPI PUSH2 0x1A52 PUSH2 0x16DA JUMP JUMPDEST JUMPDEST PUSH0 PUSH2 0x1A60 DUP5 DUP3 DUP6 ADD PUSH2 0x1A2A JUMP JUMPDEST SWAP2 POP POP SWAP3 SWAP2 POP POP JUMP JUMPDEST PUSH0 DUP1 PUSH1 0x40 DUP4 DUP6 SUB SLT ISZERO PUSH2 0x1A7F JUMPI PUSH2 0x1A7E PUSH2 0x16DA JUMP JUMPDEST JUMPDEST PUSH0 PUSH2 0x1A8C DUP6 DUP3 DUP7 ADD PUSH2 0x1A2A JUMP JUMPDEST SWAP3 POP POP PUSH1 0x20 PUSH2 0x1A9D DUP6 DUP3 DUP7 ADD PUSH2 0x180C JUMP JUMPDEST SWAP2 POP POP SWAP3 POP SWAP3 SWAP1 POP JUMP JUMPDEST PUSH2 0x1AB0 DUP2 PUSH2 0x184B JUMP JUMPDEST DUP3 MSTORE POP POP JUMP JUMPDEST PUSH0 PUSH1 0x20 DUP3 ADD SWAP1 POP PUSH2 0x1AC9 PUSH0 DUP4 ADD DUP5 PUSH2 0x1AA7 JUMP JUMPDEST SWAP3 SWAP2 POP POP JUMP JUMPDEST PUSH2 0x1AD8 DUP2 PUSH2 0x1762 JUMP JUMPDEST DUP2 EQ PUSH2 0x1AE2 JUMPI PUSH0 DUP1 REVERT JUMPDEST POP JUMP JUMPDEST PUSH0 DUP2 CALLDATALOAD SWAP1 POP PUSH2 0x1AF3 DUP2 PUSH2 0x1ACF JUMP JUMPDEST SWAP3 SWAP2 POP POP JUMP JUMPDEST PUSH0 DUP1 PUSH0 DUP1 PUSH0 DUP1 PUSH0 PUSH1 0xE0 DUP9 DUP11 SUB SLT ISZERO PUSH2 0x1B14 JUMPI PUSH2 0x1B13 PUSH2 0x16DA JUMP JUMPDEST JUMPDEST PUSH0 DUP9 ADD CALLDATALOAD PUSH8 0xFFFFFFFFFFFFFFFF DUP2 GT ISZERO PUSH2 0x1B31 JUMPI PUSH2 0x1B30 PUSH2 0x16DE JUMP JUMPDEST JUMPDEST PUSH2 0x1B3D DUP11 DUP3 DUP12 ADD PUSH2 0x198D JUMP JUMPDEST SWAP8 POP POP PUSH1 0x20 DUP9 ADD CALLDATALOAD PUSH8 0xFFFFFFFFFFFFFFFF DUP2 GT ISZERO PUSH2 0x1B5E JUMPI PUSH2 0x1B5D PUSH2 0x16DE JUMP JUMPDEST JUMPDEST PUSH2 0x1B6A DUP11 DUP3 DUP12 ADD PUSH2 0x198D JUMP JUMPDEST SWAP7 POP POP PUSH1 0x40 DUP9 ADD CALLDATALOAD PUSH8 0xFFFFFFFFFFFFFFFF DUP2 GT ISZERO PUSH2 0x1B8B JUMPI PUSH2 0x1B8A PUSH2 0x16DE JUMP JUMPDEST JUMPDEST PUSH2 0x1B97 DUP11 DUP3 DUP12 ADD PUSH2 0x198D JUMP JUMPDEST SWAP6 POP POP PUSH1 0x60 PUSH2 0x1BA8 DUP11 DUP3 DUP12 ADD PUSH2 0x186A JUMP JUMPDEST SWAP5 POP POP PUSH1 0x80 DUP9 ADD CALLDATALOAD PUSH8 0xFFFFFFFFFFFFFFFF DUP2 GT ISZERO PUSH2 0x1BC9 JUMPI PUSH2 0x1BC8 PUSH2 0x16DE JUMP JUMPDEST JUMPDEST PUSH2 0x1BD5 DUP11 DUP3 DUP12 ADD PUSH2 0x198D JUMP JUMPDEST SWAP4 POP POP PUSH1 0xA0 DUP9 ADD CALLDATALOAD PUSH8 0xFFFFFFFFFFFFFFFF DUP2 GT ISZERO PUSH2 0x1BF6 JUMPI PUSH2 0x1BF5 PUSH2 0x16DE JUMP JUMPDEST JUMPDEST PUSH2 0x1C02 DUP11 DUP3 DUP12 ADD PUSH2 0x198D JUMP JUMPDEST SWAP3 POP POP PUSH1 0xC0 PUSH2 0x1C13 DUP11 DUP3 DUP12 ADD PUSH2 0x1AE5 JUMP JUMPDEST SWAP2 POP POP SWAP3 SWAP6 SWAP9 SWAP2 SWAP5 SWAP8 POP SWAP3 SWAP6 POP JUMP JUMPDEST PUSH0 PUSH1 0x20 DUP3 DUP5 SUB SLT ISZERO PUSH2 0x1C37 JUMPI PUSH2 0x1C36 PUSH2 0x16DA JUMP JUMPDEST JUMPDEST PUSH0 PUSH2 0x1C44 DUP5 DUP3 DUP6 ADD PUSH2 0x186A JUMP JUMPDEST SWAP2 POP POP SWAP3 SWAP2 POP POP JUMP JUMPDEST PUSH0 DUP2 MLOAD SWAP1 POP SWAP2 SWAP1 POP JUMP JUMPDEST PUSH0 DUP3 DUP3 MSTORE PUSH1 0x20 DUP3 ADD SWAP1 POP SWAP3 SWAP2 POP POP JUMP JUMPDEST DUP3 DUP2 DUP4 MCOPY PUSH0 DUP4 DUP4 ADD MSTORE POP POP POP JUMP JUMPDEST PUSH0 PUSH2 0x1C7F DUP3 PUSH2 0x1C4D JUMP JUMPDEST PUSH2 0x1C89 DUP2 DUP6 PUSH2 0x1C57 JUMP JUMPDEST SWAP4 POP PUSH2 0x1C99 DUP2 DUP6 PUSH1 0x20 DUP7 ADD PUSH2 0x1C67 JUMP JUMPDEST PUSH2 0x1CA2 DUP2 PUSH2 0x1886 JUMP JUMPDEST DUP5 ADD SWAP2 POP POP SWAP3 SWAP2 POP POP JUMP JUMPDEST PUSH0 DUP3 DUP3 MSTORE PUSH1 0x20 DUP3 ADD SWAP1 POP SWAP3 SWAP2 POP POP JUMP JUMPDEST PUSH0 PUSH2 0x1CC7 DUP3 PUSH2 0x1C4D JUMP JUMPDEST PUSH2 0x1CD1 DUP2 DUP6 PUSH2 0x1CAD JUMP JUMPDEST SWAP4 POP PUSH2 0x1CE1 DUP2 DUP6 PUSH1 0x20 DUP7 ADD PUSH2 0x1C67 JUMP JUMPDEST PUSH2 0x1CEA DUP2 PUSH2 0x1886 JUMP JUMPDEST DUP5 ADD SWAP2 POP POP SWAP3 SWAP2 POP POP JUMP JUMPDEST PUSH2 0x1CFE DUP2 PUSH2 0x184B JUMP JUMPDEST DUP3 MSTORE POP POP JUMP JUMPDEST PUSH2 0x1D0D DUP2 PUSH2 0x1762 JUMP JUMPDEST DUP3 MSTORE POP POP JUMP JUMPDEST PUSH0 PUSH1 0xC0 DUP4 ADD PUSH0 DUP4 ADD MLOAD DUP5 DUP3 SUB PUSH0 DUP7 ADD MSTORE PUSH2 0x1D2D DUP3 DUP3 PUSH2 0x1CBD JUMP JUMPDEST SWAP2 POP POP PUSH1 0x20 DUP4 ADD MLOAD DUP5 DUP3 SUB PUSH1 0x20 DUP7 ADD MSTORE PUSH2 0x1D47 DUP3 DUP3 PUSH2 0x1CBD JUMP JUMPDEST SWAP2 POP POP PUSH1 0x40 DUP4 ADD MLOAD PUSH2 0x1D5C PUSH1 0x40 DUP7 ADD DUP3 PUSH2 0x1CF5 JUMP JUMPDEST POP PUSH1 0x60 DUP4 ADD MLOAD PUSH2 0x1D6F PUSH1 0x60 DUP7 ADD DUP3 PUSH2 0x1D04 JUMP JUMPDEST POP PUSH1 0x80 DUP4 ADD MLOAD PUSH2 0x1D82 PUSH1 0x80 DUP7 ADD DUP3 PUSH2 0x1D04 JUMP JUMPDEST POP PUSH1 0xA0 DUP4 ADD MLOAD PUSH2 0x1D95 PUSH1 0xA0 DUP7 ADD DUP3 PUSH2 0x1CF5 JUMP JUMPDEST POP DUP1 SWAP2 POP POP SWAP3 SWAP2 POP POP JUMP JUMPDEST PUSH0 PUSH1 0xE0 DUP3 ADD SWAP1 POP PUSH2 0x1DB3 PUSH0 DUP4 ADD DUP11 PUSH2 0x1AA7 JUMP JUMPDEST DUP2 DUP2 SUB PUSH1 0x20 DUP4 ADD MSTORE PUSH2 0x1DC5 DUP2 DUP10 PUSH2 0x1C75 JUMP JUMPDEST SWAP1 POP DUP2 DUP2 SUB PUSH1 0x40 DUP4 ADD MSTORE PUSH2 0x1DD9 DUP2 DUP9 PUSH2 0x1C75 JUMP JUMPDEST SWAP1 POP DUP2 DUP2 SUB PUSH1 0x60 DUP4 ADD MSTORE PUSH2 0x1DED DUP2 DUP8 PUSH2 0x1C75 JUMP JUMPDEST SWAP1 POP PUSH2 0x1DFC PUSH1 0x80 DUP4 ADD DUP7 PUSH2 0x1AA7 JUMP JUMPDEST PUSH2 0x1E09 PUSH1 0xA0 DUP4 ADD DUP6 PUSH2 0x1AA7 JUMP JUMPDEST DUP2 DUP2 SUB PUSH1 0xC0 DUP4 ADD MSTORE PUSH2 0x1E1B DUP2 DUP5 PUSH2 0x1D13 JUMP JUMPDEST SWAP1 POP SWAP9 SWAP8 POP POP POP POP POP POP POP POP JUMP JUMPDEST PUSH2 0x1E32 DUP2 PUSH2 0x17E5 JUMP JUMPDEST DUP3 MSTORE POP POP JUMP JUMPDEST PUSH0 PUSH1 0x20 DUP3 ADD SWAP1 POP PUSH2 0x1E4B PUSH0 DUP4 ADD DUP5 PUSH2 0x1E29 JUMP JUMPDEST SWAP3 SWAP2 POP POP JUMP JUMPDEST PUSH32 0x50726F6475637420686173206265656E20736869707065640000000000000000 PUSH0 DUP3 ADD MSTORE POP JUMP JUMPDEST PUSH0 PUSH2 0x1E85 PUSH1 0x18 DUP4 PUSH2 0x1C57 JUMP JUMPDEST SWAP2 POP PUSH2 0x1E90 DUP3 PUSH2 0x1E51 JUMP JUMPDEST PUSH1 0x20 DUP3 ADD SWAP1 POP SWAP2 SWAP1 POP JUMP JUMPDEST PUSH0 PUSH1 0x20 DUP3 ADD SWAP1 POP DUP2 DUP2 SUB PUSH0 DUP4 ADD MSTORE PUSH2 0x1EB2 DUP2 PUSH2 0x1E79 JUMP JUMPDEST SWAP1 POP SWAP2 SWAP1 POP JUMP JUMPDEST PUSH32 0x50726F6475637420646F6573206E6F7420657869737400000000000000000000 PUSH0 DUP3 ADD MSTORE POP JUMP JUMPDEST PUSH0 PUSH2 0x1EED PUSH1 0x16 DUP4 PUSH2 0x1C57 JUMP JUMPDEST SWAP2 POP PUSH2 0x1EF8 DUP3 PUSH2 0x1EB9 JUMP JUMPDEST PUSH1 0x20 DUP3 ADD SWAP1 POP SWAP2 SWAP1 POP JUMP JUMPDEST PUSH0 PUSH1 0x20 DUP3 ADD SWAP1 POP DUP2 DUP2 SUB PUSH0 DUP4 ADD MSTORE PUSH2 0x1F1A DUP2 PUSH2 0x1EE1 JUMP JUMPDEST SWAP1 POP SWAP2 SWAP1 POP JUMP JUMPDEST PUSH32 0x50726F64756374206973206F7574206F662073746F636B000000000000000000 PUSH0 DUP3 ADD MSTORE POP JUMP JUMPDEST PUSH0 PUSH2 0x1F55 PUSH1 0x17 DUP4 PUSH2 0x1C57 JUMP JUMPDEST SWAP2 POP PUSH2 0x1F60 DUP3 PUSH2 0x1F21 JUMP JUMPDEST PUSH1 0x20 DUP3 ADD SWAP1 POP SWAP2 SWAP1 POP JUMP JUMPDEST PUSH0 PUSH1 0x20 DUP3 ADD SWAP1 POP DUP2 DUP2 SUB PUSH0 DUP4 ADD MSTORE PUSH2 0x1F82 DUP2 PUSH2 0x1F49 JUMP JUMPDEST SWAP1 POP SWAP2 SWAP1 POP JUMP JUMPDEST PUSH32 0x556E617574686F72697A656420746F20736869702070726F6475637400000000 PUSH0 DUP3 ADD MSTORE POP JUMP JUMPDEST PUSH0 PUSH2 0x1FBD PUSH1 0x1C DUP4 PUSH2 0x1C57 JUMP JUMPDEST SWAP2 POP PUSH2 0x1FC8 DUP3 PUSH2 0x1F89 JUMP JUMPDEST PUSH1 0x20 DUP3 ADD SWAP1 POP SWAP2 SWAP1 POP JUMP JUMPDEST PUSH0 PUSH1 0x20 DUP3 ADD SWAP1 POP DUP2 DUP2 SUB PUSH0 DUP4 ADD MSTORE PUSH2 0x1FEA DUP2 PUSH2 0x1FB1 JUMP JUMPDEST SWAP1 POP SWAP2 SWAP1 POP JUMP JUMPDEST PUSH32 0x4E487B7100000000000000000000000000000000000000000000000000000000 PUSH0 MSTORE PUSH1 0x22 PUSH1 0x4 MSTORE PUSH1 0x24 PUSH0 REVERT JUMPDEST PUSH0 PUSH1 0x2 DUP3 DIV SWAP1 POP PUSH1 0x1 DUP3 AND DUP1 PUSH2 0x2035 JUMPI PUSH1 0x7F DUP3 AND SWAP2 POP JUMPDEST PUSH1 0x20 DUP3 LT DUP2 SUB PUSH2 0x2048 JUMPI PUSH2 0x2047 PUSH2 0x1FF1 JUMP JUMPDEST JUMPDEST POP SWAP2 SWAP1 POP JUMP JUMPDEST PUSH0 DUP2 SWAP1 POP DUP2 PUSH0 MSTORE PUSH1 0x20 PUSH0 KECCAK256 SWAP1 POP SWAP2 SWAP1 POP JUMP JUMPDEST PUSH0 PUSH1 0x20 PUSH1 0x1F DUP4 ADD DIV SWAP1 POP SWAP2 SWAP1 POP JUMP JUMPDEST PUSH0 DUP3 DUP3 SHL SWAP1 POP SWAP3 SWAP2 POP POP JUMP JUMPDEST PUSH0 PUSH1 0x8 DUP4 MUL PUSH2 0x20AA PUSH32 0xFFFFFFFFFFFFFFFFFFFFFFFFFFFFFFFFFFFFFFFFFFFFFFFFFFFFFFFFFFFFFFFF DUP3 PUSH2 0x206F JUMP JUMPDEST PUSH2 0x20B4 DUP7 DUP4 PUSH2 0x206F JUMP JUMPDEST SWAP6 POP DUP1 NOT DUP5 AND SWAP4 POP DUP1 DUP7 AND DUP5 OR SWAP3 POP POP POP SWAP4 SWAP3 POP POP POP JUMP JUMPDEST PUSH0 DUP2 SWAP1 POP SWAP2 SWAP1 POP JUMP JUMPDEST PUSH0 PUSH2 0x20EF PUSH2 0x20EA PUSH2 0x20E5 DUP5 PUSH2 0x184B JUMP JUMPDEST PUSH2 0x20CC JUMP JUMPDEST PUSH2 0x184B JUMP JUMPDEST SWAP1 POP SWAP2 SWAP1 POP JUMP JUMPDEST PUSH0 DUP2 SWAP1 POP SWAP2 SWAP1 POP JUMP JUMPDEST PUSH2 0x2108 DUP4 PUSH2 0x20D5 JUMP JUMPDEST PUSH2 0x211C PUSH2 0x2114 DUP3 PUSH2 0x20F6 JUMP JUMPDEST DUP5 DUP5 SLOAD PUSH2 0x207B JUMP JUMPDEST DUP3 SSTORE POP POP POP POP JUMP JUMPDEST PUSH0 SWAP1 JUMP JUMPDEST PUSH2 0x2130 PUSH2 0x2124 JUMP JUMPDEST PUSH2 0x213B DUP2 DUP5 DUP5 PUSH2 0x20FF JUMP JUMPDEST POP POP POP JUMP JUMPDEST JUMPDEST DUP2 DUP2 LT ISZERO PUSH2 0x215E JUMPI PUSH2 0x2153 PUSH0 DUP3 PUSH2 0x2128 JUMP JUMPDEST PUSH1 0x1 DUP2 ADD SWAP1 POP PUSH2 0x2141 JUMP JUMPDEST POP POP JUMP JUMPDEST PUSH1 0x1F DUP3 GT ISZERO PUSH2 0x21A3 JUMPI PUSH2 0x2174 DUP2 PUSH2 0x204E JUMP JUMPDEST PUSH2 0x217D DUP5 PUSH2 0x2060 JUMP JUMPDEST DUP2 ADD PUSH1 0x20 DUP6 LT ISZERO PUSH2 0x218C JUMPI DUP2 SWAP1 POP JUMPDEST PUSH2 0x21A0 PUSH2 0x2198 DUP6 PUSH2 0x2060 JUMP JUMPDEST DUP4 ADD DUP3 PUSH2 0x2140 JUMP JUMPDEST POP POP JUMPDEST POP POP POP JUMP JUMPDEST PUSH0 DUP3 DUP3 SHR SWAP1 POP SWAP3 SWAP2 POP POP JUMP JUMPDEST PUSH0 PUSH2 0x21C3 PUSH0 NOT DUP5 PUSH1 0x8 MUL PUSH2 0x21A8 JUMP JUMPDEST NOT DUP1 DUP4 AND SWAP2 POP POP SWAP3 SWAP2 POP POP JUMP JUMPDEST PUSH0 PUSH2 0x21DB DUP4 DUP4 PUSH2 0x21B4 JUMP JUMPDEST SWAP2 POP DUP3 PUSH1 0x2 MUL DUP3 OR SWAP1 POP SWAP3 SWAP2 POP POP JUMP JUMPDEST PUSH2 0x21F4 DUP3 PUSH2 0x1C4D JUMP JUMPDEST PUSH8 0xFFFFFFFFFFFFFFFF DUP2 GT ISZERO PUSH2 0x220D JUMPI PUSH2 0x220C PUSH2 0x1896 JUMP JUMPDEST JUMPDEST PUSH2 0x2217 DUP3 SLOAD PUSH2 0x201E JUMP JUMPDEST PUSH2 0x2222 DUP3 DUP3 DUP6 PUSH2 0x2162 JUMP JUMPDEST PUSH0 PUSH1 0x20 SWAP1 POP PUSH1 0x1F DUP4 GT PUSH1 0x1 DUP2 EQ PUSH2 0x2253 JUMPI PUSH0 DUP5 ISZERO PUSH2 0x2241 JUMPI DUP3 DUP8 ADD MLOAD SWAP1 POP JUMPDEST PUSH2 0x224B DUP6 DUP3 PUSH2 0x21D0 JUMP JUMPDEST DUP7 SSTORE POP PUSH2 0x22B2 JUMP JUMPDEST PUSH1 0x1F NOT DUP5 AND PUSH2 0x2261 DUP7 PUSH2 0x204E JUMP JUMPDEST PUSH0 JUMPDEST DUP3 DUP2 LT ISZERO PUSH2 0x2288 JUMPI DUP5 DUP10 ADD MLOAD DUP3 SSTORE PUSH1 0x1 DUP3 ADD SWAP2 POP PUSH1 0x20 DUP6 ADD SWAP5 POP PUSH1 0x20 DUP2 ADD SWAP1 POP PUSH2 0x2263 JUMP JUMPDEST DUP7 DUP4 LT ISZERO PUSH2 0x22A5 JUMPI DUP5 DUP10 ADD MLOAD PUSH2 0x22A1 PUSH1 0x1F DUP10 AND DUP3 PUSH2 0x21B4 JUMP JUMPDEST DUP4 SSTORE POP JUMPDEST PUSH1 0x1 PUSH1 0x2 DUP9 MUL ADD DUP9 SSTORE POP POP POP JUMPDEST POP POP POP POP POP POP JUMP JUMPDEST PUSH0 DUP2 SLOAD PUSH2 0x22C6 DUP2 PUSH2 0x201E JUMP JUMPDEST PUSH2 0x22D0 DUP2 DUP7 PUSH2 0x1C57 JUMP JUMPDEST SWAP5 POP PUSH1 0x1 DUP3 AND PUSH0 DUP2 EQ PUSH2 0x22EA JUMPI PUSH1 0x1 DUP2 EQ PUSH2 0x2300 JUMPI PUSH2 0x2332 JUMP JUMPDEST PUSH1 0xFF NOT DUP4 AND DUP7 MSTORE DUP2 ISZERO ISZERO PUSH1 0x20 MUL DUP7 ADD SWAP4 POP PUSH2 0x2332 JUMP JUMPDEST PUSH2 0x2309 DUP6 PUSH2 0x204E JUMP JUMPDEST PUSH0 JUMPDEST DUP4 DUP2 LT ISZERO PUSH2 0x232A JUMPI DUP2 SLOAD DUP2 DUP10 ADD MSTORE PUSH1 0x1 DUP3 ADD SWAP2 POP PUSH1 0x20 DUP2 ADD SWAP1 POP PUSH2 0x230B JUMP JUMPDEST DUP1 DUP9 ADD SWAP6 POP POP POP JUMPDEST POP POP POP SWAP3 SWAP2 POP POP JUMP JUMPDEST PUSH0 PUSH1 0xA0 DUP3 ADD SWAP1 POP DUP2 DUP2 SUB PUSH0 DUP4 ADD MSTORE PUSH2 0x2353 DUP2 DUP9 PUSH2 0x22BA JUMP JUMPDEST SWAP1 POP DUP2 DUP2 SUB PUSH1 0x20 DUP4 ADD MSTORE PUSH2 0x2367 DUP2 DUP8 PUSH2 0x22BA JUMP JUMPDEST SWAP1 POP PUSH2 0x2376 PUSH1 0x40 DUP4 ADD DUP7 PUSH2 0x1AA7 JUMP JUMPDEST PUSH2 0x2383 PUSH1 0x60 DUP4 ADD DUP6 PUSH2 0x1AA7 JUMP JUMPDEST PUSH2 0x2390 PUSH1 0x80 DUP4 ADD DUP5 PUSH2 0x176D JUMP JUMPDEST SWAP7 SWAP6 POP POP POP POP POP POP JUMP JUMPDEST PUSH32 0x55736572206E6F7420617574686F72697A656400000000000000000000000000 PUSH0 DUP3 ADD MSTORE POP JUMP JUMPDEST PUSH0 PUSH2 0x23CE PUSH1 0x13 DUP4 PUSH2 0x1C57 JUMP JUMPDEST SWAP2 POP PUSH2 0x23D9 DUP3 PUSH2 0x239A JUMP JUMPDEST PUSH1 0x20 DUP3 ADD SWAP1 POP SWAP2 SWAP1 POP JUMP JUMPDEST PUSH0 PUSH1 0x20 DUP3 ADD SWAP1 POP DUP2 DUP2 SUB PUSH0 DUP4 ADD MSTORE PUSH2 0x23FB DUP2 PUSH2 0x23C2 JUMP JUMPDEST SWAP1 POP SWAP2 SWAP1 POP JUMP JUMPDEST PUSH32 0x456D7074792070726F647563742074797065206E6F7420616C6C6F7765640000 PUSH0 DUP3 ADD MSTORE POP JUMP JUMPDEST PUSH0 PUSH2 0x2436 PUSH1 0x1E DUP4 PUSH2 0x1C57 JUMP JUMPDEST SWAP2 POP PUSH2 0x2441 DUP3 PUSH2 0x2402 JUMP JUMPDEST PUSH1 0x20 DUP3 ADD SWAP1 POP SWAP2 SWAP1 POP JUMP JUMPDEST PUSH0 PUSH1 0x20 DUP3 ADD SWAP1 POP DUP2 DUP2 SUB PUSH0 DUP4 ADD MSTORE PUSH2 0x2463 DUP2 PUSH2 0x242A JUMP JUMPDEST SWAP1 POP SWAP2 SWAP1 POP JUMP JUMPDEST PUSH32 0x456D7074792070726F64756374206E616D65206E6F7420616C6C6F7765640000 PUSH0 DUP3 ADD MSTORE POP JUMP JUMPDEST PUSH0 PUSH2 0x249E PUSH1 0x1E DUP4 PUSH2 0x1C57 JUMP JUMPDEST SWAP2 POP PUSH2 0x24A9 DUP3 PUSH2 0x246A JUMP JUMPDEST PUSH1 0x20 DUP3 ADD SWAP1 POP SWAP2 SWAP1 POP JUMP JUMPDEST PUSH0 PUSH1 0x20 DUP3 ADD SWAP1 POP DUP2 DUP2 SUB PUSH0 DUP4 ADD MSTORE PUSH2 0x24CB DUP2 PUSH2 0x2492 JUMP JUMPDEST SWAP1 POP SWAP2 SWAP1 POP JUMP JUMPDEST PUSH32 0x456D707479206272616E64206E616D65206E6F7420616C6C6F77656400000000 PUSH0 DUP3 ADD MSTORE POP JUMP JUMPDEST PUSH0 PUSH2 0x2506 PUSH1 0x1C DUP4 PUSH2 0x1C57 JUMP JUMPDEST SWAP2 POP PUSH2 0x2511 DUP3 PUSH2 0x24D2 JUMP JUMPDEST PUSH1 0x20 DUP3 ADD SWAP1 POP SWAP2 SWAP1 POP JUMP JUMPDEST PUSH0 PUSH1 0x20 DUP3 ADD SWAP1 POP DUP2 DUP2 SUB PUSH0 DUP4 ADD MSTORE PUSH2 0x2533 DUP2 PUSH2 0x24FA JUMP JUMPDEST SWAP1 POP SWAP2 SWAP1 POP JUMP JUMPDEST PUSH32 0x5175616E74697479206D7573742062652067726561746572207468616E207A65 PUSH0 DUP3 ADD MSTORE PUSH32 0x726F000000000000000000000000000000000000000000000000000000000000 PUSH1 0x20 DUP3 ADD MSTORE POP JUMP JUMPDEST PUSH0 PUSH2 0x2594 PUSH1 0x22 DUP4 PUSH2 0x1C57 JUMP JUMPDEST SWAP2 POP PUSH2 0x259F DUP3 PUSH2 0x253A JUMP JUMPDEST PUSH1 0x40 DUP3 ADD SWAP1 POP SWAP2 SWAP1 POP JUMP JUMPDEST PUSH0 PUSH1 0x20 DUP3 ADD SWAP1 POP DUP2 DUP2 SUB PUSH0 DUP4 ADD MSTORE PUSH2 0x25C1 DUP2 PUSH2 0x2588 JUMP JUMPDEST SWAP1 POP SWAP2 SWAP1 POP JUMP JUMPDEST PUSH0 DUP2 SLOAD PUSH2 0x25D4 DUP2 PUSH2 0x201E JUMP JUMPDEST PUSH2 0x25DE DUP2 DUP7 PUSH2 0x1CAD JUMP JUMPDEST SWAP5 POP PUSH1 0x1 DUP3 AND PUSH0 DUP2 EQ PUSH2 0x25F8 JUMPI PUSH1 0x1 DUP2 EQ PUSH2 0x260E JUMPI PUSH2 0x2640 JUMP JUMPDEST PUSH1 0xFF NOT DUP4 AND DUP7 MSTORE DUP2 ISZERO ISZERO PUSH1 0x20 MUL DUP7 ADD SWAP4 POP PUSH2 0x2640 JUMP JUMPDEST PUSH2 0x2617 DUP6 PUSH2 0x204E JUMP JUMPDEST PUSH0 JUMPDEST DUP4 DUP2 LT ISZERO PUSH2 0x2638 JUMPI DUP2 SLOAD DUP2 DUP10 ADD MSTORE PUSH1 0x1 DUP3 ADD SWAP2 POP PUSH1 0x20 DUP2 ADD SWAP1 POP PUSH2 0x2619 JUMP JUMPDEST DUP1 DUP9 ADD SWAP6 POP POP POP JUMPDEST POP POP POP SWAP3 SWAP2 POP POP JUMP JUMPDEST PUSH0 DUP2 PUSH0 SHR SWAP1 POP SWAP2 SWAP1 POP JUMP JUMPDEST PUSH0 DUP2 SWAP1 POP SWAP2 SWAP1 POP JUMP JUMPDEST PUSH0 PUSH2 0x266F PUSH2 0x266A DUP4 PUSH2 0x2649 JUMP JUMPDEST PUSH2 0x2654 JUMP JUMPDEST SWAP1 POP SWAP2 SWAP1 POP JUMP JUMPDEST PUSH0 PUSH1 0xFF DUP3 AND SWAP1 POP SWAP2 SWAP1 POP JUMP JUMPDEST PUSH0 PUSH2 0x2694 PUSH2 0x268F DUP4 PUSH2 0x2649 JUMP JUMPDEST PUSH2 0x2676 JUMP JUMPDEST SWAP1 POP SWAP2 SWAP1 POP JUMP JUMPDEST PUSH0 DUP2 PUSH1 0x8 SHR SWAP1 POP SWAP2 SWAP1 POP JUMP JUMPDEST PUSH0 PUSH2 0x26B9 PUSH2 0x26B4 DUP4 PUSH2 0x269B JUMP JUMPDEST PUSH2 0x2676 JUMP JUMPDEST SWAP1 POP SWAP2 SWAP1 POP JUMP JUMPDEST PUSH0 PUSH1 0xC0 DUP4 ADD PUSH0 DUP1 DUP5 ADD DUP6 DUP4 SUB PUSH0 DUP8 ADD MSTORE PUSH2 0x26DA DUP4 DUP3 PUSH2 0x25C8 JUMP JUMPDEST SWAP3 POP POP PUSH1 0x1 DUP5 ADD DUP6 DUP4 SUB PUSH1 0x20 DUP8 ADD MSTORE PUSH2 0x26F3 DUP4 DUP3 PUSH2 0x25C8 JUMP JUMPDEST SWAP3 POP POP PUSH1 0x2 DUP5 ADD SLOAD SWAP1 POP PUSH2 0x2706 DUP2 PUSH2 0x265D JUMP JUMPDEST PUSH2 0x2713 PUSH1 0x40 DUP8 ADD DUP3 PUSH2 0x1CF5 JUMP JUMPDEST POP PUSH1 0x3 DUP5 ADD SLOAD SWAP1 POP PUSH2 0x2724 DUP2 PUSH2 0x2682 JUMP JUMPDEST PUSH2 0x2731 PUSH1 0x60 DUP8 ADD DUP3 PUSH2 0x1D04 JUMP JUMPDEST POP PUSH2 0x273B DUP2 PUSH2 0x26A7 JUMP JUMPDEST PUSH2 0x2748 PUSH1 0x80 DUP8 ADD DUP3 PUSH2 0x1D04 JUMP JUMPDEST POP PUSH1 0x4 DUP5 ADD SLOAD SWAP1 POP PUSH2 0x2759 DUP2 PUSH2 0x265D JUMP JUMPDEST PUSH2 0x2766 PUSH1 0xA0 DUP8 ADD DUP3 PUSH2 0x1CF5 JUMP JUMPDEST POP DUP2 SWAP3 POP POP POP SWAP3 SWAP2 POP POP JUMP JUMPDEST PUSH0 PUSH1 0xA0 DUP3 ADD SWAP1 POP DUP2 DUP2 SUB PUSH0 DUP4 ADD MSTORE PUSH2 0x278A DUP2 DUP9 PUSH2 0x1C75 JUMP JUMPDEST SWAP1 POP DUP2 DUP2 SUB PUSH1 0x20 DUP4 ADD MSTORE PUSH2 0x279E DUP2 DUP8 PUSH2 0x1C75 JUMP JUMPDEST SWAP1 POP DUP2 DUP2 SUB PUSH1 0x40 DUP4 ADD MSTORE PUSH2 0x27B2 DUP2 DUP7 PUSH2 0x1C75 JUMP JUMPDEST SWAP1 POP PUSH2 0x27C1 PUSH1 0x60 DUP4 ADD DUP6 PUSH2 0x1AA7 JUMP JUMPDEST DUP2 DUP2 SUB PUSH1 0x80 DUP4 ADD MSTORE PUSH2 0x27D3 DUP2 DUP5 PUSH2 0x26C0 JUMP JUMPDEST SWAP1 POP SWAP7 SWAP6 POP POP POP POP POP POP JUMP JUMPDEST PUSH32 0x4E487B7100000000000000000000000000000000000000000000000000000000 PUSH0 MSTORE PUSH1 0x11 PUSH1 0x4 MSTORE PUSH1 0x24 PUSH0 REVERT JUMPDEST PUSH0 PUSH2 0x2816 DUP3 PUSH2 0x184B JUMP JUMPDEST SWAP2 POP PUSH32 0xFFFFFFFFFFFFFFFFFFFFFFFFFFFFFFFFFFFFFFFFFFFFFFFFFFFFFFFFFFFFFFFF DUP3 SUB PUSH2 0x2848 JUMPI PUSH2 0x2847 PUSH2 0x27DF JUMP JUMPDEST JUMPDEST PUSH1 0x1 DUP3 ADD SWAP1 POP SWAP2 SWAP1 POP JUMP JUMPDEST PUSH0 PUSH1 0x40 DUP3 ADD SWAP1 POP PUSH2 0x2866 PUSH0 DUP4 ADD DUP6 PUSH2 0x1E29 JUMP JUMPDEST PUSH2 0x2873 PUSH1 0x20 DUP4 ADD DUP5 PUSH2 0x179E JUMP JUMPDEST SWAP4 SWAP3 POP POP POP JUMP INVALID LOG2 PUSH5 0x6970667358 0x22 SLT KECCAK256 0xAA 0xAD PREVRANDAO SLOAD 0x2D PUSH28 0xB362740A3096916907DE02FF797B2E878626819EEC02158C24166473 PUSH16 0x6C634300081A00330000000000000000 "
				},
				"gasEstimates": {
					"creation": {
						"codeDepositCost": "2083200",
						"executionCost": "infinite",
						"totalCost": "infinite"
					},
					"external": {
						"ADMIN_ROLE()": "458",
						"COMPANY_OWNER_ROLE()": "371",
						"DEFAULT_ADMIN_ROLE()": "352",
						"GenerateProduct(string,string,string,uint256,string,string,bool)": "infinite",
						"authorizeCompanyOwner(address)": "infinite",
						"companyOwners(uint256)": "2871",
						"getRoleAdmin(bytes32)": "infinite",
						"grantAdminRole(address)": "infinite",
						"grantRole(bytes32,address)": "infinite",
						"hasRole(bytes32,address)": "3211",
						"initalizeShipment(uint256,string)": "infinite",
						"nextProductId()": "2492",
						"owner()": "2582",
						"productGenerator(uint256)": "2893",
						"products(uint256)": "infinite",
						"renounceOwnership()": "infinite",
						"renounceRole(bytes32,address)": "infinite",
						"revokeAdminRole(address)": "infinite",
						"revokeCompanyOwner(address)": "infinite",
						"revokeRole(bytes32,address)": "infinite",
						"supportsInterface(bytes4)": "741",
						"transferOwnership(address)": "infinite"
					}
				},
				"methodIdentifiers": {
					"ADMIN_ROLE()": "75b238fc",
					"COMPANY_OWNER_ROLE()": "0c5a713d",
					"DEFAULT_ADMIN_ROLE()": "a217fddf",
					"GenerateProduct(string,string,string,uint256,string,string,bool)": "5bb88544",
					"authorizeCompanyOwner(address)": "13deabc1",
					"companyOwners(uint256)": "a93253c1",
					"getRoleAdmin(bytes32)": "248a9ca3",
					"grantAdminRole(address)": "c634b78e",
					"grantRole(bytes32,address)": "2f2ff15d",
					"hasRole(bytes32,address)": "91d14854",
					"initalizeShipment(uint256,string)": "21120f9a",
					"nextProductId()": "4de91a63",
					"owner()": "8da5cb5b",
					"productGenerator(uint256)": "aed4af01",
					"products(uint256)": "7acc0b20",
					"renounceOwnership()": "715018a6",
					"renounceRole(bytes32,address)": "36568abe",
					"revokeAdminRole(address)": "9a19c7b0",
					"revokeCompanyOwner(address)": "79c37979",
					"revokeRole(bytes32,address)": "d547741f",
					"supportsInterface(bytes4)": "01ffc9a7",
					"transferOwnership(address)": "f2fde38b"
				}
			},
			"storageLayout": {
				"storage": [
					{
						"astId": 387,
						"contract": "Product Tracker Smart Contract/Product Tracker Main/ProductTracker.sol:ProductTracker",
						"label": "_owner",
						"offset": 0,
						"slot": "0",
						"type": "t_address"
					},
					{
						"astId": 26,
						"contract": "Product Tracker Smart Contract/Product Tracker Main/ProductTracker.sol:ProductTracker",
						"label": "_roles",
						"offset": 0,
						"slot": "1",
						"type": "t_mapping(t_bytes32,t_struct(RoleData)21_storage)"
					},
					{
						"astId": 616,
						"contract": "Product Tracker Smart Contract/Product Tracker Main/ProductTracker.sol:ProductTracker",
						"label": "nextProductId",
						"offset": 0,
						"slot": "2",
						"type": "t_uint256"
					},
					{
						"astId": 650,
						"contract": "Product Tracker Smart Contract/Product Tracker Main/ProductTracker.sol:ProductTracker",
						"label": "products",
						"offset": 0,
						"slot": "3",
						"type": "t_mapping(t_uint256,t_struct(Product)632_storage)"
					},
					{
						"astId": 654,
						"contract": "Product Tracker Smart Contract/Product Tracker Main/ProductTracker.sol:ProductTracker",
						"label": "productGenerator",
						"offset": 0,
						"slot": "4",
						"type": "t_mapping(t_uint256,t_address)"
					},
					{
						"astId": 658,
						"contract": "Product Tracker Smart Contract/Product Tracker Main/ProductTracker.sol:ProductTracker",
						"label": "companyOwners",
						"offset": 0,
						"slot": "5",
						"type": "t_mapping(t_uint256,t_address)"
					}
				],
				"types": {
					"t_address": {
						"encoding": "inplace",
						"label": "address",
						"numberOfBytes": "20"
					},
					"t_bool": {
						"encoding": "inplace",
						"label": "bool",
						"numberOfBytes": "1"
					},
					"t_bytes32": {
						"encoding": "inplace",
						"label": "bytes32",
						"numberOfBytes": "32"
					},
					"t_mapping(t_address,t_bool)": {
						"encoding": "mapping",
						"key": "t_address",
						"label": "mapping(address => bool)",
						"numberOfBytes": "32",
						"value": "t_bool"
					},
					"t_mapping(t_bytes32,t_struct(RoleData)21_storage)": {
						"encoding": "mapping",
						"key": "t_bytes32",
						"label": "mapping(bytes32 => struct AccessControl.RoleData)",
						"numberOfBytes": "32",
						"value": "t_struct(RoleData)21_storage"
					},
					"t_mapping(t_uint256,t_address)": {
						"encoding": "mapping",
						"key": "t_uint256",
						"label": "mapping(uint256 => address)",
						"numberOfBytes": "32",
						"value": "t_address"
					},
					"t_mapping(t_uint256,t_struct(Product)632_storage)": {
						"encoding": "mapping",
						"key": "t_uint256",
						"label": "mapping(uint256 => struct ProductTracker.Product)",
						"numberOfBytes": "32",
						"value": "t_struct(Product)632_storage"
					},
					"t_string_storage": {
						"encoding": "bytes",
						"label": "string",
						"numberOfBytes": "32"
					},
					"t_struct(Location)645_storage": {
						"encoding": "inplace",
						"label": "struct ProductTracker.Location",
						"members": [
							{
								"astId": 634,
								"contract": "Product Tracker Smart Contract/Product Tracker Main/ProductTracker.sol:ProductTracker",
								"label": "name",
								"offset": 0,
								"slot": "0",
								"type": "t_string_storage"
							},
							{
								"astId": 636,
								"contract": "Product Tracker Smart Contract/Product Tracker Main/ProductTracker.sol:ProductTracker",
								"label": "custodian",
								"offset": 0,
								"slot": "1",
								"type": "t_string_storage"
							},
							{
								"astId": 638,
								"contract": "Product Tracker Smart Contract/Product Tracker Main/ProductTracker.sol:ProductTracker",
								"label": "departure",
								"offset": 0,
								"slot": "2",
								"type": "t_uint256"
							},
							{
								"astId": 640,
								"contract": "Product Tracker Smart Contract/Product Tracker Main/ProductTracker.sol:ProductTracker",
								"label": "shipped",
								"offset": 0,
								"slot": "3",
								"type": "t_bool"
							},
							{
								"astId": 642,
								"contract": "Product Tracker Smart Contract/Product Tracker Main/ProductTracker.sol:ProductTracker",
								"label": "arrived",
								"offset": 1,
								"slot": "3",
								"type": "t_bool"
							},
							{
								"astId": 644,
								"contract": "Product Tracker Smart Contract/Product Tracker Main/ProductTracker.sol:ProductTracker",
								"label": "arrival",
								"offset": 0,
								"slot": "4",
								"type": "t_uint256"
							}
						],
						"numberOfBytes": "160"
					},
					"t_struct(Product)632_storage": {
						"encoding": "inplace",
						"label": "struct ProductTracker.Product",
						"members": [
							{
								"astId": 618,
								"contract": "Product Tracker Smart Contract/Product Tracker Main/ProductTracker.sol:ProductTracker",
								"label": "productId",
								"offset": 0,
								"slot": "0",
								"type": "t_uint256"
							},
							{
								"astId": 620,
								"contract": "Product Tracker Smart Contract/Product Tracker Main/ProductTracker.sol:ProductTracker",
								"label": "productType",
								"offset": 0,
								"slot": "1",
								"type": "t_string_storage"
							},
							{
								"astId": 622,
								"contract": "Product Tracker Smart Contract/Product Tracker Main/ProductTracker.sol:ProductTracker",
								"label": "brandName",
								"offset": 0,
								"slot": "2",
								"type": "t_string_storage"
							},
							{
								"astId": 624,
								"contract": "Product Tracker Smart Contract/Product Tracker Main/ProductTracker.sol:ProductTracker",
								"label": "productName",
								"offset": 0,
								"slot": "3",
								"type": "t_string_storage"
							},
							{
								"astId": 626,
								"contract": "Product Tracker Smart Contract/Product Tracker Main/ProductTracker.sol:ProductTracker",
								"label": "quantity",
								"offset": 0,
								"slot": "4",
								"type": "t_uint256"
							},
							{
								"astId": 628,
								"contract": "Product Tracker Smart Contract/Product Tracker Main/ProductTracker.sol:ProductTracker",
								"label": "productionDate",
								"offset": 0,
								"slot": "5",
								"type": "t_uint256"
							},
							{
								"astId": 631,
								"contract": "Product Tracker Smart Contract/Product Tracker Main/ProductTracker.sol:ProductTracker",
								"label": "location",
								"offset": 0,
								"slot": "6",
								"type": "t_struct(Location)645_storage"
							}
						],
						"numberOfBytes": "352"
					},
					"t_struct(RoleData)21_storage": {
						"encoding": "inplace",
						"label": "struct AccessControl.RoleData",
						"members": [
							{
								"astId": 18,
								"contract": "Product Tracker Smart Contract/Product Tracker Main/ProductTracker.sol:ProductTracker",
								"label": "hasRole",
								"offset": 0,
								"slot": "0",
								"type": "t_mapping(t_address,t_bool)"
							},
							{
								"astId": 20,
								"contract": "Product Tracker Smart Contract/Product Tracker Main/ProductTracker.sol:ProductTracker",
								"label": "adminRole",
								"offset": 0,
								"slot": "1",
								"type": "t_bytes32"
							}
						],
						"numberOfBytes": "64"
					},
					"t_uint256": {
						"encoding": "inplace",
						"label": "uint256",
						"numberOfBytes": "32"
					}
				}
			},
			"userdoc": {
				"events": {
					"ProductGenerated(uint256,string,string,string,uint256,address,(string,string,uint256,bool,bool,uint256))": {
						"notice": "mapping for authorizedUsers is substituted by AccessControl.sol from openzeppelin"
					}
				},
				"kind": "user",
				"methods": {},
				"version": 1
			}
		}
	}
}