{
	"Product Tracker Smart Contract/Product Tracker Main/main.test.sol": {
		"ProductTracker": {
			"abi": [
				{
					"inputs": [],
					"name": "AccessControlBadConfirmation",
					"type": "error"
				},
				{
					"inputs": [
						{
							"internalType": "address",
							"name": "account",
							"type": "address"
						},
						{
							"internalType": "bytes32",
							"name": "neededRole",
							"type": "bytes32"
						}
					],
					"name": "AccessControlUnauthorizedAccount",
					"type": "error"
				},
				{
					"inputs": [
						{
							"internalType": "address",
							"name": "owner",
							"type": "address"
						}
					],
					"name": "OwnableInvalidOwner",
					"type": "error"
				},
				{
					"inputs": [
						{
							"internalType": "address",
							"name": "account",
							"type": "address"
						}
					],
					"name": "OwnableUnauthorizedAccount",
					"type": "error"
				},
				{
					"anonymous": false,
					"inputs": [
						{
							"indexed": true,
							"internalType": "address",
							"name": "previousOwner",
							"type": "address"
						},
						{
							"indexed": true,
							"internalType": "address",
							"name": "newOwner",
							"type": "address"
						}
					],
					"name": "OwnershipTransferred",
					"type": "event"
				},
				{
					"anonymous": false,
					"inputs": [
						{
							"indexed": true,
							"internalType": "bytes32",
							"name": "role",
							"type": "bytes32"
						},
						{
							"indexed": true,
							"internalType": "bytes32",
							"name": "previousAdminRole",
							"type": "bytes32"
						},
						{
							"indexed": true,
							"internalType": "bytes32",
							"name": "newAdminRole",
							"type": "bytes32"
						}
					],
					"name": "RoleAdminChanged",
					"type": "event"
				},
				{
					"anonymous": false,
					"inputs": [
						{
							"indexed": true,
							"internalType": "bytes32",
							"name": "role",
							"type": "bytes32"
						},
						{
							"indexed": true,
							"internalType": "address",
							"name": "account",
							"type": "address"
						},
						{
							"indexed": true,
							"internalType": "address",
							"name": "sender",
							"type": "address"
						}
					],
					"name": "RoleGranted",
					"type": "event"
				},
				{
					"anonymous": false,
					"inputs": [
						{
							"indexed": true,
							"internalType": "bytes32",
							"name": "role",
							"type": "bytes32"
						},
						{
							"indexed": true,
							"internalType": "address",
							"name": "account",
							"type": "address"
						},
						{
							"indexed": true,
							"internalType": "address",
							"name": "sender",
							"type": "address"
						}
					],
					"name": "RoleRevoked",
					"type": "event"
				},
				{
					"inputs": [],
					"name": "ADMIN_ROLE",
					"outputs": [
						{
							"internalType": "bytes32",
							"name": "",
							"type": "bytes32"
						}
					],
					"stateMutability": "view",
					"type": "function"
				},
				{
					"inputs": [
						{
							"internalType": "address",
							"name": "_userAddress",
							"type": "address"
						}
					],
					"name": "AuthorizeCompanyOwner",
					"outputs": [],
					"stateMutability": "nonpayable",
					"type": "function"
				},
				{
					"inputs": [],
					"name": "COMPANY_OWNER_ROLE",
					"outputs": [
						{
							"internalType": "bytes32",
							"name": "",
							"type": "bytes32"
						}
					],
					"stateMutability": "view",
					"type": "function"
				},
				{
					"inputs": [],
					"name": "DEFAULT_ADMIN_ROLE",
					"outputs": [
						{
							"internalType": "bytes32",
							"name": "",
							"type": "bytes32"
						}
					],
					"stateMutability": "view",
					"type": "function"
				},
				{
					"inputs": [
						{
							"internalType": "string",
							"name": "_productType",
							"type": "string"
						},
						{
							"internalType": "string",
							"name": "_productName",
							"type": "string"
						},
						{
							"internalType": "string",
							"name": "_brandName",
							"type": "string"
						},
						{
							"internalType": "uint256",
							"name": "_quantity",
							"type": "uint256"
						},
						{
							"internalType": "string",
							"name": "_locationName",
							"type": "string"
						},
						{
							"internalType": "string",
							"name": "_custodian",
							"type": "string"
						},
						{
							"internalType": "bool",
							"name": "_shipped",
							"type": "bool"
						}
					],
					"name": "GenerateProduct",
					"outputs": [],
					"stateMutability": "nonpayable",
					"type": "function"
				},
				{
					"inputs": [
						{
							"internalType": "address",
							"name": "_admin",
							"type": "address"
						}
					],
					"name": "GrantAdminRole",
					"outputs": [],
					"stateMutability": "nonpayable",
					"type": "function"
				},
				{
					"inputs": [
						{
							"internalType": "address",
							"name": "_admin",
							"type": "address"
						}
					],
					"name": "RevokeAdminRole",
					"outputs": [],
					"stateMutability": "nonpayable",
					"type": "function"
				},
				{
					"inputs": [
						{
							"internalType": "address",
							"name": "_userAddress",
							"type": "address"
						}
					],
					"name": "RevokeCompanyOwner",
					"outputs": [],
					"stateMutability": "nonpayable",
					"type": "function"
				},
				{
					"inputs": [
						{
							"internalType": "uint256",
							"name": "",
							"type": "uint256"
						}
					],
					"name": "companyOwners",
					"outputs": [
						{
							"internalType": "address",
							"name": "",
							"type": "address"
						}
					],
					"stateMutability": "view",
					"type": "function"
				},
				{
					"inputs": [
						{
							"internalType": "bytes32",
							"name": "role",
							"type": "bytes32"
						}
					],
					"name": "getRoleAdmin",
					"outputs": [
						{
							"internalType": "bytes32",
							"name": "",
							"type": "bytes32"
						}
					],
					"stateMutability": "view",
					"type": "function"
				},
				{
					"inputs": [
						{
							"internalType": "bytes32",
							"name": "role",
							"type": "bytes32"
						},
						{
							"internalType": "address",
							"name": "account",
							"type": "address"
						}
					],
					"name": "grantRole",
					"outputs": [],
					"stateMutability": "nonpayable",
					"type": "function"
				},
				{
					"inputs": [
						{
							"internalType": "bytes32",
							"name": "role",
							"type": "bytes32"
						},
						{
							"internalType": "address",
							"name": "account",
							"type": "address"
						}
					],
					"name": "hasRole",
					"outputs": [
						{
							"internalType": "bool",
							"name": "",
							"type": "bool"
						}
					],
					"stateMutability": "view",
					"type": "function"
				},
				{
					"inputs": [
						{
							"internalType": "uint256",
							"name": "_productId",
							"type": "uint256"
						},
						{
							"internalType": "string",
							"name": "_locationName",
							"type": "string"
						}
					],
					"name": "initalizeShipment",
					"outputs": [],
					"stateMutability": "nonpayable",
					"type": "function"
				},
				{
					"inputs": [],
					"name": "nextProductId",
					"outputs": [
						{
							"internalType": "uint256",
							"name": "",
							"type": "uint256"
						}
					],
					"stateMutability": "view",
					"type": "function"
				},
				{
					"inputs": [],
					"name": "owner",
					"outputs": [
						{
							"internalType": "address",
							"name": "",
							"type": "address"
						}
					],
					"stateMutability": "view",
					"type": "function"
				},
				{
					"inputs": [
						{
							"internalType": "uint256",
							"name": "",
							"type": "uint256"
						}
					],
					"name": "productGenerator",
					"outputs": [
						{
							"internalType": "address",
							"name": "",
							"type": "address"
						}
					],
					"stateMutability": "view",
					"type": "function"
				},
				{
					"inputs": [
						{
							"internalType": "uint256",
							"name": "",
							"type": "uint256"
						}
					],
					"name": "products",
					"outputs": [
						{
							"internalType": "uint256",
							"name": "productId",
							"type": "uint256"
						},
						{
							"internalType": "string",
							"name": "productType",
							"type": "string"
						},
						{
							"internalType": "string",
							"name": "brandName",
							"type": "string"
						},
						{
							"internalType": "string",
							"name": "productName",
							"type": "string"
						},
						{
							"internalType": "uint256",
							"name": "quantity",
							"type": "uint256"
						},
						{
							"internalType": "uint256",
							"name": "productionDate",
							"type": "uint256"
						},
						{
							"components": [
								{
									"internalType": "string",
									"name": "name",
									"type": "string"
								},
								{
									"internalType": "string",
									"name": "custodian",
									"type": "string"
								},
								{
									"internalType": "uint256",
									"name": "departure",
									"type": "uint256"
								},
								{
									"internalType": "bool",
									"name": "shipped",
									"type": "bool"
								},
								{
									"internalType": "bool",
									"name": "arrived",
									"type": "bool"
								},
								{
									"internalType": "uint256",
									"name": "arrival",
									"type": "uint256"
								}
							],
							"internalType": "struct ProductTracker.Location",
							"name": "location",
							"type": "tuple"
						}
					],
					"stateMutability": "view",
					"type": "function"
				},
				{
					"inputs": [],
					"name": "renounceOwnership",
					"outputs": [],
					"stateMutability": "nonpayable",
					"type": "function"
				},
				{
					"inputs": [
						{
							"internalType": "bytes32",
							"name": "role",
							"type": "bytes32"
						},
						{
							"internalType": "address",
							"name": "callerConfirmation",
							"type": "address"
						}
					],
					"name": "renounceRole",
					"outputs": [],
					"stateMutability": "nonpayable",
					"type": "function"
				},
				{
					"inputs": [
						{
							"internalType": "bytes32",
							"name": "role",
							"type": "bytes32"
						},
						{
							"internalType": "address",
							"name": "account",
							"type": "address"
						}
					],
					"name": "revokeRole",
					"outputs": [],
					"stateMutability": "nonpayable",
					"type": "function"
				},
				{
					"inputs": [
						{
							"internalType": "bytes4",
							"name": "interfaceId",
							"type": "bytes4"
						}
					],
					"name": "supportsInterface",
					"outputs": [
						{
							"internalType": "bool",
							"name": "",
							"type": "bool"
						}
					],
					"stateMutability": "view",
					"type": "function"
				},
				{
					"inputs": [
						{
							"internalType": "address",
							"name": "newOwner",
							"type": "address"
						}
					],
					"name": "transferOwnership",
					"outputs": [],
					"stateMutability": "nonpayable",
					"type": "function"
				}
			],
			"devdoc": {
				"errors": {
					"AccessControlBadConfirmation()": [
						{
							"details": "The caller of a function is not the expected one. NOTE: Don't confuse with {AccessControlUnauthorizedAccount}."
						}
					],
					"AccessControlUnauthorizedAccount(address,bytes32)": [
						{
							"details": "The `account` is missing a role."
						}
					],
					"OwnableInvalidOwner(address)": [
						{
							"details": "The owner is not a valid owner account. (eg. `address(0)`)"
						}
					],
					"OwnableUnauthorizedAccount(address)": [
						{
							"details": "The caller account is not authorized to perform an operation."
						}
					]
				},
				"events": {
					"RoleAdminChanged(bytes32,bytes32,bytes32)": {
						"details": "Emitted when `newAdminRole` is set as ``role``'s admin role, replacing `previousAdminRole` `DEFAULT_ADMIN_ROLE` is the starting admin for all roles, despite {RoleAdminChanged} not being emitted signaling this."
					},
					"RoleGranted(bytes32,address,address)": {
						"details": "Emitted when `account` is granted `role`. `sender` is the account that originated the contract call, an admin role bearer except when using {AccessControl-_setupRole}."
					},
					"RoleRevoked(bytes32,address,address)": {
						"details": "Emitted when `account` is revoked `role`. `sender` is the account that originated the contract call:   - if using `revokeRole`, it is the admin role bearer   - if using `renounceRole`, it is the role bearer (i.e. `account`)"
					}
				},
				"kind": "dev",
				"methods": {
					"GenerateProduct(string,string,string,uint256,string,string,bool)": {
						"details": "Generates a new product with the given details. The function can only be called by authorized users. Requirements: - Caller must have the AUTHORIZED_ROLE. - Product type, name, brand name, materials and certificates should not be empty. - Quantity must be greater than zero.",
						"params": {
							"_brandName": "The brand name of the product.",
							"_custodian": "Name of the custodian for this product.",
							"_locationName": "Optional location name where the product is initially stored.",
							"_productName": "The name of the product.",
							"_productType": "The type of product.",
							"_quantity": "Quantity of the product.",
							"_shipped": "Indicates if the product has been shipped or not."
						}
					},
					"getRoleAdmin(bytes32)": {
						"details": "Returns the admin role that controls `role`. See {grantRole} and {revokeRole}. To change a role's admin, use {_setRoleAdmin}."
					},
					"grantRole(bytes32,address)": {
						"details": "Grants `role` to `account`. If `account` had not been already granted `role`, emits a {RoleGranted} event. Requirements: - the caller must have ``role``'s admin role. May emit a {RoleGranted} event."
					},
					"hasRole(bytes32,address)": {
						"details": "Returns `true` if `account` has been granted `role`."
					},
					"initalizeShipment(uint256,string)": {
						"details": "Initializes the shipment status of a product. The function can only be called by authorized users. Requirements: - Caller must have the AUTHORIZED_ROLE. - Product should exist and not be out of stock. - Product should have been shipped before.",
						"params": {
							"_locationName": "The new location name where the product is stored.",
							"_productId": "The ID of the product to initialize shipment for."
						}
					},
					"owner()": {
						"details": "Returns the address of the current owner."
					},
					"renounceOwnership()": {
						"details": "Leaves the contract without owner. It will not be possible to call `onlyOwner` functions. Can only be called by the current owner. NOTE: Renouncing ownership will leave the contract without an owner, thereby disabling any functionality that is only available to the owner."
					},
					"renounceRole(bytes32,address)": {
						"details": "Revokes `role` from the calling account. Roles are often managed via {grantRole} and {revokeRole}: this function's purpose is to provide a mechanism for accounts to lose their privileges if they are compromised (such as when a trusted device is misplaced). If the calling account had been revoked `role`, emits a {RoleRevoked} event. Requirements: - the caller must be `callerConfirmation`. May emit a {RoleRevoked} event."
					},
					"revokeRole(bytes32,address)": {
						"details": "Revokes `role` from `account`. If `account` had been granted `role`, emits a {RoleRevoked} event. Requirements: - the caller must have ``role``'s admin role. May emit a {RoleRevoked} event."
					},
					"supportsInterface(bytes4)": {
						"details": "See {IERC165-supportsInterface}."
					},
					"transferOwnership(address)": {
						"details": "Transfers ownership of the contract to a new account (`newOwner`). Can only be called by the current owner."
					}
				},
				"title": "ProductTracker This contract allows tracking of products in a supply chain with various attributes and location details.",
				"version": 1
			},
			"evm": {
				"assembly": "    /* \"Product Tracker Smart Contract/Product Tracker Main/main.test.sol\":337:5302  contract ProductTracker is Ownable(msg.sender), AccessControl {... */\n  mstore(0x40, 0x80)\n    /* \"Product Tracker Smart Contract/Product Tracker Main/main.test.sol\":597:598  1 */\n  0x01\n    /* \"Product Tracker Smart Contract/Product Tracker Main/main.test.sol\":566:598  uint256 public nextProductId = 1 */\n  0x02\n  sstore\n    /* \"Product Tracker Smart Contract/Product Tracker Main/main.test.sol\":337:5302  contract ProductTracker is Ownable(msg.sender), AccessControl {... */\n  callvalue\n  dup1\n  iszero\n  tag_1\n  jumpi\n  0x00\n  dup1\n  revert\ntag_1:\n  pop\n    /* \"Product Tracker Smart Contract/Product Tracker Main/main.test.sol\":372:382  msg.sender */\n  caller\n    /* \"@openzeppelin/contracts/access/Ownable.sol\":1297:1298  0 */\n  0x00\n    /* \"@openzeppelin/contracts/access/Ownable.sol\":1273:1299  initialOwner == address(0) */\n  0xffffffffffffffffffffffffffffffffffffffff\n  and\n    /* \"@openzeppelin/contracts/access/Ownable.sol\":1273:1285  initialOwner */\n  dup2\n    /* \"@openzeppelin/contracts/access/Ownable.sol\":1273:1299  initialOwner == address(0) */\n  0xffffffffffffffffffffffffffffffffffffffff\n  and\n  sub\n    /* \"@openzeppelin/contracts/access/Ownable.sol\":1269:1364  if (initialOwner == address(0)) {... */\n  tag_4\n  jumpi\n    /* \"@openzeppelin/contracts/access/Ownable.sol\":1350:1351  0 */\n  0x00\n    /* \"@openzeppelin/contracts/access/Ownable.sol\":1322:1353  OwnableInvalidOwner(address(0)) */\n  mload(0x40)\n  0x1e4fbdf700000000000000000000000000000000000000000000000000000000\n  dup2\n  mstore\n  0x04\n  add\n  tag_5\n  swap2\n  swap1\n  tag_6\n  jump\t// in\ntag_5:\n  mload(0x40)\n  dup1\n  swap2\n  sub\n  swap1\n  revert\n    /* \"@openzeppelin/contracts/access/Ownable.sol\":1269:1364  if (initialOwner == address(0)) {... */\ntag_4:\n    /* \"@openzeppelin/contracts/access/Ownable.sol\":1373:1405  _transferOwnership(initialOwner) */\n  tag_7\n    /* \"@openzeppelin/contracts/access/Ownable.sol\":1392:1404  initialOwner */\n  dup2\n    /* \"@openzeppelin/contracts/access/Ownable.sol\":1373:1391  _transferOwnership */\n  shl(0x20, tag_8)\n    /* \"@openzeppelin/contracts/access/Ownable.sol\":1373:1405  _transferOwnership(initialOwner) */\n  0x20\n  shr\n  jump\t// in\ntag_7:\n    /* \"@openzeppelin/contracts/access/Ownable.sol\":1225:1412  constructor(address initialOwner) {... */\n  pop\n    /* \"Product Tracker Smart Contract/Product Tracker Main/main.test.sol\":337:5302  contract ProductTracker is Ownable(msg.sender), AccessControl {... */\n  jump(tag_9)\n    /* \"@openzeppelin/contracts/access/Ownable.sol\":2912:3099  function _transferOwnership(address newOwner) internal virtual {... */\ntag_8:\n    /* \"@openzeppelin/contracts/access/Ownable.sol\":2985:3001  address oldOwner */\n  0x00\n    /* \"@openzeppelin/contracts/access/Ownable.sol\":3004:3010  _owner */\n  dup1\n  0x00\n  swap1\n  sload\n  swap1\n  0x0100\n  exp\n  swap1\n  div\n  0xffffffffffffffffffffffffffffffffffffffff\n  and\n    /* \"@openzeppelin/contracts/access/Ownable.sol\":2985:3010  address oldOwner = _owner */\n  swap1\n  pop\n    /* \"@openzeppelin/contracts/access/Ownable.sol\":3029:3037  newOwner */\n  dup2\n    /* \"@openzeppelin/contracts/access/Ownable.sol\":3020:3026  _owner */\n  0x00\n  dup1\n    /* \"@openzeppelin/contracts/access/Ownable.sol\":3020:3037  _owner = newOwner */\n  0x0100\n  exp\n  dup2\n  sload\n  dup2\n  0xffffffffffffffffffffffffffffffffffffffff\n  mul\n  not\n  and\n  swap1\n  dup4\n  0xffffffffffffffffffffffffffffffffffffffff\n  and\n  mul\n  or\n  swap1\n  sstore\n  pop\n    /* \"@openzeppelin/contracts/access/Ownable.sol\":3083:3091  newOwner */\n  dup2\n    /* \"@openzeppelin/contracts/access/Ownable.sol\":3052:3092  OwnershipTransferred(oldOwner, newOwner) */\n  0xffffffffffffffffffffffffffffffffffffffff\n  and\n    /* \"@openzeppelin/contracts/access/Ownable.sol\":3073:3081  oldOwner */\n  dup2\n    /* \"@openzeppelin/contracts/access/Ownable.sol\":3052:3092  OwnershipTransferred(oldOwner, newOwner) */\n  0xffffffffffffffffffffffffffffffffffffffff\n  and\n  0x8be0079c531659141344cd1fd0a4f28419497f9722a3daafe3b4186f6b6457e0\n  mload(0x40)\n  mload(0x40)\n  dup1\n  swap2\n  sub\n  swap1\n  log3\n    /* \"@openzeppelin/contracts/access/Ownable.sol\":2975:3099  {... */\n  pop\n    /* \"@openzeppelin/contracts/access/Ownable.sol\":2912:3099  function _transferOwnership(address newOwner) internal virtual {... */\n  pop\n  jump\t// out\n    /* \"#utility.yul\":7:133   */\ntag_11:\n    /* \"#utility.yul\":44:51   */\n  0x00\n    /* \"#utility.yul\":84:126   */\n  0xffffffffffffffffffffffffffffffffffffffff\n    /* \"#utility.yul\":77:82   */\n  dup3\n    /* \"#utility.yul\":73:127   */\n  and\n    /* \"#utility.yul\":62:127   */\n  swap1\n  pop\n    /* \"#utility.yul\":7:133   */\n  swap2\n  swap1\n  pop\n  jump\t// out\n    /* \"#utility.yul\":139:235   */\ntag_12:\n    /* \"#utility.yul\":176:183   */\n  0x00\n    /* \"#utility.yul\":205:229   */\n  tag_17\n    /* \"#utility.yul\":223:228   */\n  dup3\n    /* \"#utility.yul\":205:229   */\n  tag_11\n  jump\t// in\ntag_17:\n    /* \"#utility.yul\":194:229   */\n  swap1\n  pop\n    /* \"#utility.yul\":139:235   */\n  swap2\n  swap1\n  pop\n  jump\t// out\n    /* \"#utility.yul\":241:359   */\ntag_13:\n    /* \"#utility.yul\":328:352   */\n  tag_19\n    /* \"#utility.yul\":346:351   */\n  dup2\n    /* \"#utility.yul\":328:352   */\n  tag_12\n  jump\t// in\ntag_19:\n    /* \"#utility.yul\":323:326   */\n  dup3\n    /* \"#utility.yul\":316:353   */\n  mstore\n    /* \"#utility.yul\":241:359   */\n  pop\n  pop\n  jump\t// out\n    /* \"#utility.yul\":365:587   */\ntag_6:\n    /* \"#utility.yul\":458:462   */\n  0x00\n    /* \"#utility.yul\":496:498   */\n  0x20\n    /* \"#utility.yul\":485:494   */\n  dup3\n    /* \"#utility.yul\":481:499   */\n  add\n    /* \"#utility.yul\":473:499   */\n  swap1\n  pop\n    /* \"#utility.yul\":509:580   */\n  tag_21\n    /* \"#utility.yul\":577:578   */\n  0x00\n    /* \"#utility.yul\":566:575   */\n  dup4\n    /* \"#utility.yul\":562:579   */\n  add\n    /* \"#utility.yul\":553:559   */\n  dup5\n    /* \"#utility.yul\":509:580   */\n  tag_13\n  jump\t// in\ntag_21:\n    /* \"#utility.yul\":365:587   */\n  swap3\n  swap2\n  pop\n  pop\n  jump\t// out\n    /* \"Product Tracker Smart Contract/Product Tracker Main/main.test.sol\":337:5302  contract ProductTracker is Ownable(msg.sender), AccessControl {... */\ntag_9:\n  dataSize(sub_0)\n  dup1\n  dataOffset(sub_0)\n  0x00\n  codecopy\n  0x00\n  return\nstop\n\nsub_0: assembly {\n        /* \"Product Tracker Smart Contract/Product Tracker Main/main.test.sol\":337:5302  contract ProductTracker is Ownable(msg.sender), AccessControl {... */\n      mstore(0x40, 0x80)\n      callvalue\n      dup1\n      iszero\n      tag_1\n      jumpi\n      0x00\n      dup1\n      revert\n    tag_1:\n      pop\n      jumpi(tag_2, lt(calldatasize, 0x04))\n      shr(0xe0, calldataload(0x00))\n      dup1\n      0x75b238fc\n      gt\n      tag_25\n      jumpi\n      dup1\n      0xa217fddf\n      gt\n      tag_26\n      jumpi\n      dup1\n      0xa217fddf\n      eq\n      tag_19\n      jumpi\n      dup1\n      0xa93253c1\n      eq\n      tag_20\n      jumpi\n      dup1\n      0xaed4af01\n      eq\n      tag_21\n      jumpi\n      dup1\n      0xd547741f\n      eq\n      tag_22\n      jumpi\n      dup1\n      0xdaf1e5f9\n      eq\n      tag_23\n      jumpi\n      dup1\n      0xf2fde38b\n      eq\n      tag_24\n      jumpi\n      jump(tag_2)\n    tag_26:\n      dup1\n      0x75b238fc\n      eq\n      tag_14\n      jumpi\n      dup1\n      0x7acc0b20\n      eq\n      tag_15\n      jumpi\n      dup1\n      0x8aa90c83\n      eq\n      tag_16\n      jumpi\n      dup1\n      0x8da5cb5b\n      eq\n      tag_17\n      jumpi\n      dup1\n      0x91d14854\n      eq\n      tag_18\n      jumpi\n      jump(tag_2)\n    tag_25:\n      dup1\n      0x2f2ff15d\n      gt\n      tag_27\n      jumpi\n      dup1\n      0x2f2ff15d\n      eq\n      tag_8\n      jumpi\n      dup1\n      0x36568abe\n      eq\n      tag_9\n      jumpi\n      dup1\n      0x4de91a63\n      eq\n      tag_10\n      jumpi\n      dup1\n      0x5bb88544\n      eq\n      tag_11\n      jumpi\n      dup1\n      0x6f775aea\n      eq\n      tag_12\n      jumpi\n      dup1\n      0x715018a6\n      eq\n      tag_13\n      jumpi\n      jump(tag_2)\n    tag_27:\n      dup1\n      0x01ffc9a7\n      eq\n      tag_3\n      jumpi\n      dup1\n      0x0c5a713d\n      eq\n      tag_4\n      jumpi\n      dup1\n      0x1884eb24\n      eq\n      tag_5\n      jumpi\n      dup1\n      0x21120f9a\n      eq\n      tag_6\n      jumpi\n      dup1\n      0x248a9ca3\n      eq\n      tag_7\n      jumpi\n    tag_2:\n      0x00\n      dup1\n      revert\n        /* \"@openzeppelin/contracts/access/AccessControl.sol\":2565:2767  function supportsInterface(bytes4 interfaceId) public view virtual override returns (bool) {... */\n    tag_3:\n      tag_28\n      0x04\n      dup1\n      calldatasize\n      sub\n      dup2\n      add\n      swap1\n      tag_29\n      swap2\n      swap1\n      tag_30\n      jump\t// in\n    tag_29:\n      tag_31\n      jump\t// in\n    tag_28:\n      mload(0x40)\n      tag_32\n      swap2\n      swap1\n      tag_33\n      jump\t// in\n    tag_32:\n      mload(0x40)\n      dup1\n      swap2\n      sub\n      swap1\n      return\n        /* \"Product Tracker Smart Contract/Product Tracker Main/main.test.sol\":405:476  bytes32 public constant COMPANY_OWNER_ROLE = keccak256(\"COMPANY_OWNER\") */\n    tag_4:\n      tag_34\n      tag_35\n      jump\t// in\n    tag_34:\n      mload(0x40)\n      tag_36\n      swap2\n      swap1\n      tag_37\n      jump\t// in\n    tag_36:\n      mload(0x40)\n      dup1\n      swap2\n      sub\n      swap1\n      return\n        /* \"Product Tracker Smart Contract/Product Tracker Main/main.test.sol\":2746:2877  function AuthorizeCompanyOwner(address _userAddress) public onlyOwner {... */\n    tag_5:\n      tag_38\n      0x04\n      dup1\n      calldatasize\n      sub\n      dup2\n      add\n      swap1\n      tag_39\n      swap2\n      swap1\n      tag_40\n      jump\t// in\n    tag_39:\n      tag_41\n      jump\t// in\n    tag_38:\n      stop\n        /* \"Product Tracker Smart Contract/Product Tracker Main/main.test.sol\":5203:5300  function initalizeShipment(uint256 _productId, string memory _locationName)... */\n    tag_6:\n      tag_42\n      0x04\n      dup1\n      calldatasize\n      sub\n      dup2\n      add\n      swap1\n      tag_43\n      swap2\n      swap1\n      tag_44\n      jump\t// in\n    tag_43:\n      tag_45\n      jump\t// in\n    tag_42:\n      stop\n        /* \"@openzeppelin/contracts/access/AccessControl.sol\":3810:3930  function getRoleAdmin(bytes32 role) public view virtual returns (bytes32) {... */\n    tag_7:\n      tag_46\n      0x04\n      dup1\n      calldatasize\n      sub\n      dup2\n      add\n      swap1\n      tag_47\n      swap2\n      swap1\n      tag_48\n      jump\t// in\n    tag_47:\n      tag_49\n      jump\t// in\n    tag_46:\n      mload(0x40)\n      tag_50\n      swap2\n      swap1\n      tag_37\n      jump\t// in\n    tag_50:\n      mload(0x40)\n      dup1\n      swap2\n      sub\n      swap1\n      return\n        /* \"@openzeppelin/contracts/access/AccessControl.sol\":4226:4362  function grantRole(bytes32 role, address account) public virtual onlyRole(getRoleAdmin(role)) {... */\n    tag_8:\n      tag_51\n      0x04\n      dup1\n      calldatasize\n      sub\n      dup2\n      add\n      swap1\n      tag_52\n      swap2\n      swap1\n      tag_53\n      jump\t// in\n    tag_52:\n      tag_54\n      jump\t// in\n    tag_51:\n      stop\n        /* \"@openzeppelin/contracts/access/AccessControl.sol\":5328:5573  function renounceRole(bytes32 role, address callerConfirmation) public virtual {... */\n    tag_9:\n      tag_55\n      0x04\n      dup1\n      calldatasize\n      sub\n      dup2\n      add\n      swap1\n      tag_56\n      swap2\n      swap1\n      tag_53\n      jump\t// in\n    tag_56:\n      tag_57\n      jump\t// in\n    tag_55:\n      stop\n        /* \"Product Tracker Smart Contract/Product Tracker Main/main.test.sol\":566:598  uint256 public nextProductId = 1 */\n    tag_10:\n      tag_58\n      tag_59\n      jump\t// in\n    tag_58:\n      mload(0x40)\n      tag_60\n      swap2\n      swap1\n      tag_61\n      jump\t// in\n    tag_60:\n      mload(0x40)\n      dup1\n      swap2\n      sub\n      swap1\n      return\n        /* \"Product Tracker Smart Contract/Product Tracker Main/main.test.sol\":4383:4690  function GenerateProduct(... */\n    tag_11:\n      tag_62\n      0x04\n      dup1\n      calldatasize\n      sub\n      dup2\n      add\n      swap1\n      tag_63\n      swap2\n      swap1\n      tag_64\n      jump\t// in\n    tag_63:\n      tag_65\n      jump\t// in\n    tag_62:\n      stop\n        /* \"Product Tracker Smart Contract/Product Tracker Main/main.test.sol\":3167:3312  function RevokeAdminRole(address _admin)... */\n    tag_12:\n      tag_66\n      0x04\n      dup1\n      calldatasize\n      sub\n      dup2\n      add\n      swap1\n      tag_67\n      swap2\n      swap1\n      tag_40\n      jump\t// in\n    tag_67:\n      tag_68\n      jump\t// in\n    tag_66:\n      stop\n        /* \"@openzeppelin/contracts/access/Ownable.sol\":2293:2394  function renounceOwnership() public virtual onlyOwner {... */\n    tag_13:\n      tag_69\n      tag_70\n      jump\t// in\n    tag_69:\n      stop\n        /* \"Product Tracker Smart Contract/Product Tracker Main/main.test.sol\":482:537  bytes32 public constant ADMIN_ROLE = keccak256(\"ADMIN\") */\n    tag_14:\n      tag_71\n      tag_72\n      jump\t// in\n    tag_71:\n      mload(0x40)\n      tag_73\n      swap2\n      swap1\n      tag_37\n      jump\t// in\n    tag_73:\n      mload(0x40)\n      dup1\n      swap2\n      sub\n      swap1\n      return\n        /* \"Product Tracker Smart Contract/Product Tracker Main/main.test.sol\":999:1042  mapping(uint256 => Product) public products */\n    tag_15:\n      tag_74\n      0x04\n      dup1\n      calldatasize\n      sub\n      dup2\n      add\n      swap1\n      tag_75\n      swap2\n      swap1\n      tag_76\n      jump\t// in\n    tag_75:\n      tag_77\n      jump\t// in\n    tag_74:\n      mload(0x40)\n      tag_78\n      swap8\n      swap7\n      swap6\n      swap5\n      swap4\n      swap3\n      swap2\n      swap1\n      tag_79\n      jump\t// in\n    tag_78:\n      mload(0x40)\n      dup1\n      swap2\n      sub\n      swap1\n      return\n        /* \"Product Tracker Smart Contract/Product Tracker Main/main.test.sol\":2883:3012  function RevokeCompanyOwner(address _userAddress) public onlyOwner {... */\n    tag_16:\n      tag_80\n      0x04\n      dup1\n      calldatasize\n      sub\n      dup2\n      add\n      swap1\n      tag_81\n      swap2\n      swap1\n      tag_40\n      jump\t// in\n    tag_81:\n      tag_82\n      jump\t// in\n    tag_80:\n      stop\n        /* \"@openzeppelin/contracts/access/Ownable.sol\":1638:1723  function owner() public view virtual returns (address) {... */\n    tag_17:\n      tag_83\n      tag_84\n      jump\t// in\n    tag_83:\n      mload(0x40)\n      tag_85\n      swap2\n      swap1\n      tag_86\n      jump\t// in\n    tag_85:\n      mload(0x40)\n      dup1\n      swap2\n      sub\n      swap1\n      return\n        /* \"@openzeppelin/contracts/access/AccessControl.sol\":2854:2990  function hasRole(bytes32 role, address account) public view virtual returns (bool) {... */\n    tag_18:\n      tag_87\n      0x04\n      dup1\n      calldatasize\n      sub\n      dup2\n      add\n      swap1\n      tag_88\n      swap2\n      swap1\n      tag_53\n      jump\t// in\n    tag_88:\n      tag_89\n      jump\t// in\n    tag_87:\n      mload(0x40)\n      tag_90\n      swap2\n      swap1\n      tag_33\n      jump\t// in\n    tag_90:\n      mload(0x40)\n      dup1\n      swap2\n      sub\n      swap1\n      return\n        /* \"@openzeppelin/contracts/access/AccessControl.sol\":2187:2236  bytes32 public constant DEFAULT_ADMIN_ROLE = 0x00 */\n    tag_19:\n      tag_91\n      tag_92\n      jump\t// in\n    tag_91:\n      mload(0x40)\n      tag_93\n      swap2\n      swap1\n      tag_37\n      jump\t// in\n    tag_93:\n      mload(0x40)\n      dup1\n      swap2\n      sub\n      swap1\n      return\n        /* \"Product Tracker Smart Contract/Product Tracker Main/main.test.sol\":1105:1153  mapping(uint256 => address) public companyOwners */\n    tag_20:\n      tag_94\n      0x04\n      dup1\n      calldatasize\n      sub\n      dup2\n      add\n      swap1\n      tag_95\n      swap2\n      swap1\n      tag_76\n      jump\t// in\n    tag_95:\n      tag_96\n      jump\t// in\n    tag_94:\n      mload(0x40)\n      tag_97\n      swap2\n      swap1\n      tag_86\n      jump\t// in\n    tag_97:\n      mload(0x40)\n      dup1\n      swap2\n      sub\n      swap1\n      return\n        /* \"Product Tracker Smart Contract/Product Tracker Main/main.test.sol\":1048:1099  mapping(uint256 => address) public productGenerator */\n    tag_21:\n      tag_98\n      0x04\n      dup1\n      calldatasize\n      sub\n      dup2\n      add\n      swap1\n      tag_99\n      swap2\n      swap1\n      tag_76\n      jump\t// in\n    tag_99:\n      tag_100\n      jump\t// in\n    tag_98:\n      mload(0x40)\n      tag_101\n      swap2\n      swap1\n      tag_86\n      jump\t// in\n    tag_101:\n      mload(0x40)\n      dup1\n      swap2\n      sub\n      swap1\n      return\n        /* \"@openzeppelin/contracts/access/AccessControl.sol\":4642:4780  function revokeRole(bytes32 role, address account) public virtual onlyRole(getRoleAdmin(role)) {... */\n    tag_22:\n      tag_102\n      0x04\n      dup1\n      calldatasize\n      sub\n      dup2\n      add\n      swap1\n      tag_103\n      swap2\n      swap1\n      tag_53\n      jump\t// in\n    tag_103:\n      tag_104\n      jump\t// in\n    tag_102:\n      stop\n        /* \"Product Tracker Smart Contract/Product Tracker Main/main.test.sol\":3018:3161  function GrantAdminRole(address _admin)... */\n    tag_23:\n      tag_105\n      0x04\n      dup1\n      calldatasize\n      sub\n      dup2\n      add\n      swap1\n      tag_106\n      swap2\n      swap1\n      tag_40\n      jump\t// in\n    tag_106:\n      tag_107\n      jump\t// in\n    tag_105:\n      stop\n        /* \"@openzeppelin/contracts/access/Ownable.sol\":2543:2758  function transferOwnership(address newOwner) public virtual onlyOwner {... */\n    tag_24:\n      tag_108\n      0x04\n      dup1\n      calldatasize\n      sub\n      dup2\n      add\n      swap1\n      tag_109\n      swap2\n      swap1\n      tag_40\n      jump\t// in\n    tag_109:\n      tag_110\n      jump\t// in\n    tag_108:\n      stop\n        /* \"@openzeppelin/contracts/access/AccessControl.sol\":2565:2767  function supportsInterface(bytes4 interfaceId) public view virtual override returns (bool) {... */\n    tag_31:\n        /* \"@openzeppelin/contracts/access/AccessControl.sol\":2650:2654  bool */\n      0x00\n        /* \"@openzeppelin/contracts/access/AccessControl.sol\":2688:2720  type(IAccessControl).interfaceId */\n      0x7965db0b00000000000000000000000000000000000000000000000000000000\n        /* \"@openzeppelin/contracts/access/AccessControl.sol\":2673:2720  interfaceId == type(IAccessControl).interfaceId */\n      not(0xffffffffffffffffffffffffffffffffffffffffffffffffffffffff)\n      and\n        /* \"@openzeppelin/contracts/access/AccessControl.sol\":2673:2684  interfaceId */\n      dup3\n        /* \"@openzeppelin/contracts/access/AccessControl.sol\":2673:2720  interfaceId == type(IAccessControl).interfaceId */\n      not(0xffffffffffffffffffffffffffffffffffffffffffffffffffffffff)\n      and\n      eq\n        /* \"@openzeppelin/contracts/access/AccessControl.sol\":2673:2760  interfaceId == type(IAccessControl).interfaceId || super.supportsInterface(interfaceId) */\n      dup1\n      tag_112\n      jumpi\n      pop\n        /* \"@openzeppelin/contracts/access/AccessControl.sol\":2724:2760  super.supportsInterface(interfaceId) */\n      tag_113\n        /* \"@openzeppelin/contracts/access/AccessControl.sol\":2748:2759  interfaceId */\n      dup3\n        /* \"@openzeppelin/contracts/access/AccessControl.sol\":2724:2747  super.supportsInterface */\n      tag_114\n        /* \"@openzeppelin/contracts/access/AccessControl.sol\":2724:2760  super.supportsInterface(interfaceId) */\n      jump\t// in\n    tag_113:\n        /* \"@openzeppelin/contracts/access/AccessControl.sol\":2673:2760  interfaceId == type(IAccessControl).interfaceId || super.supportsInterface(interfaceId) */\n    tag_112:\n        /* \"@openzeppelin/contracts/access/AccessControl.sol\":2666:2760  return interfaceId == type(IAccessControl).interfaceId || super.supportsInterface(interfaceId) */\n      swap1\n      pop\n        /* \"@openzeppelin/contracts/access/AccessControl.sol\":2565:2767  function supportsInterface(bytes4 interfaceId) public view virtual override returns (bool) {... */\n      swap2\n      swap1\n      pop\n      jump\t// out\n        /* \"Product Tracker Smart Contract/Product Tracker Main/main.test.sol\":405:476  bytes32 public constant COMPANY_OWNER_ROLE = keccak256(\"COMPANY_OWNER\") */\n    tag_35:\n        /* \"Product Tracker Smart Contract/Product Tracker Main/main.test.sol\":450:476  keccak256(\"COMPANY_OWNER\") */\n      0x632405d99f3a4d6966c57f76cc301a3c7cab4b56ce8e567a4198e9434b3fbb5b\n        /* \"Product Tracker Smart Contract/Product Tracker Main/main.test.sol\":405:476  bytes32 public constant COMPANY_OWNER_ROLE = keccak256(\"COMPANY_OWNER\") */\n      dup2\n      jump\t// out\n        /* \"Product Tracker Smart Contract/Product Tracker Main/main.test.sol\":2746:2877  function AuthorizeCompanyOwner(address _userAddress) public onlyOwner {... */\n    tag_41:\n        /* \"@openzeppelin/contracts/access/Ownable.sol\":1531:1544  _checkOwner() */\n      tag_116\n        /* \"@openzeppelin/contracts/access/Ownable.sol\":1531:1542  _checkOwner */\n      tag_117\n        /* \"@openzeppelin/contracts/access/Ownable.sol\":1531:1544  _checkOwner() */\n      jump\t// in\n    tag_116:\n        /* \"Product Tracker Smart Contract/Product Tracker Main/main.test.sol\":2826:2870  _grantRole(COMPANY_OWNER_ROLE, _userAddress) */\n      tag_119\n        /* \"Product Tracker Smart Contract/Product Tracker Main/main.test.sol\":450:476  keccak256(\"COMPANY_OWNER\") */\n      0x632405d99f3a4d6966c57f76cc301a3c7cab4b56ce8e567a4198e9434b3fbb5b\n        /* \"Product Tracker Smart Contract/Product Tracker Main/main.test.sol\":2857:2869  _userAddress */\n      dup3\n        /* \"Product Tracker Smart Contract/Product Tracker Main/main.test.sol\":2826:2836  _grantRole */\n      tag_120\n        /* \"Product Tracker Smart Contract/Product Tracker Main/main.test.sol\":2826:2870  _grantRole(COMPANY_OWNER_ROLE, _userAddress) */\n      jump\t// in\n    tag_119:\n      pop\n        /* \"Product Tracker Smart Contract/Product Tracker Main/main.test.sol\":2746:2877  function AuthorizeCompanyOwner(address _userAddress) public onlyOwner {... */\n      pop\n      jump\t// out\n        /* \"Product Tracker Smart Contract/Product Tracker Main/main.test.sol\":5203:5300  function initalizeShipment(uint256 _productId, string memory _locationName)... */\n    tag_45:\n      pop\n      pop\n      jump\t// out\n        /* \"@openzeppelin/contracts/access/AccessControl.sol\":3810:3930  function getRoleAdmin(bytes32 role) public view virtual returns (bytes32) {... */\n    tag_49:\n        /* \"@openzeppelin/contracts/access/AccessControl.sol\":3875:3882  bytes32 */\n      0x00\n        /* \"@openzeppelin/contracts/access/AccessControl.sol\":3901:3907  _roles */\n      0x01\n        /* \"@openzeppelin/contracts/access/AccessControl.sol\":3901:3913  _roles[role] */\n      0x00\n        /* \"@openzeppelin/contracts/access/AccessControl.sol\":3908:3912  role */\n      dup4\n        /* \"@openzeppelin/contracts/access/AccessControl.sol\":3901:3913  _roles[role] */\n      dup2\n      mstore\n      0x20\n      add\n      swap1\n      dup2\n      mstore\n      0x20\n      add\n      0x00\n      keccak256\n        /* \"@openzeppelin/contracts/access/AccessControl.sol\":3901:3923  _roles[role].adminRole */\n      0x01\n      add\n      sload\n        /* \"@openzeppelin/contracts/access/AccessControl.sol\":3894:3923  return _roles[role].adminRole */\n      swap1\n      pop\n        /* \"@openzeppelin/contracts/access/AccessControl.sol\":3810:3930  function getRoleAdmin(bytes32 role) public view virtual returns (bytes32) {... */\n      swap2\n      swap1\n      pop\n      jump\t// out\n        /* \"@openzeppelin/contracts/access/AccessControl.sol\":4226:4362  function grantRole(bytes32 role, address account) public virtual onlyRole(getRoleAdmin(role)) {... */\n    tag_54:\n        /* \"@openzeppelin/contracts/access/AccessControl.sol\":4300:4318  getRoleAdmin(role) */\n      tag_123\n        /* \"@openzeppelin/contracts/access/AccessControl.sol\":4313:4317  role */\n      dup3\n        /* \"@openzeppelin/contracts/access/AccessControl.sol\":4300:4312  getRoleAdmin */\n      tag_49\n        /* \"@openzeppelin/contracts/access/AccessControl.sol\":4300:4318  getRoleAdmin(role) */\n      jump\t// in\n    tag_123:\n        /* \"@openzeppelin/contracts/access/AccessControl.sol\":2464:2480  _checkRole(role) */\n      tag_125\n        /* \"@openzeppelin/contracts/access/AccessControl.sol\":2475:2479  role */\n      dup2\n        /* \"@openzeppelin/contracts/access/AccessControl.sol\":2464:2474  _checkRole */\n      tag_126\n        /* \"@openzeppelin/contracts/access/AccessControl.sol\":2464:2480  _checkRole(role) */\n      jump\t// in\n    tag_125:\n        /* \"@openzeppelin/contracts/access/AccessControl.sol\":4330:4355  _grantRole(role, account) */\n      tag_128\n        /* \"@openzeppelin/contracts/access/AccessControl.sol\":4341:4345  role */\n      dup4\n        /* \"@openzeppelin/contracts/access/AccessControl.sol\":4347:4354  account */\n      dup4\n        /* \"@openzeppelin/contracts/access/AccessControl.sol\":4330:4340  _grantRole */\n      tag_120\n        /* \"@openzeppelin/contracts/access/AccessControl.sol\":4330:4355  _grantRole(role, account) */\n      jump\t// in\n    tag_128:\n      pop\n        /* \"@openzeppelin/contracts/access/AccessControl.sol\":4226:4362  function grantRole(bytes32 role, address account) public virtual onlyRole(getRoleAdmin(role)) {... */\n      pop\n      pop\n      pop\n      jump\t// out\n        /* \"@openzeppelin/contracts/access/AccessControl.sol\":5328:5573  function renounceRole(bytes32 role, address callerConfirmation) public virtual {... */\n    tag_57:\n        /* \"@openzeppelin/contracts/access/AccessControl.sol\":5443:5455  _msgSender() */\n      tag_130\n        /* \"@openzeppelin/contracts/access/AccessControl.sol\":5443:5453  _msgSender */\n      tag_131\n        /* \"@openzeppelin/contracts/access/AccessControl.sol\":5443:5455  _msgSender() */\n      jump\t// in\n    tag_130:\n        /* \"@openzeppelin/contracts/access/AccessControl.sol\":5421:5455  callerConfirmation != _msgSender() */\n      0xffffffffffffffffffffffffffffffffffffffff\n      and\n        /* \"@openzeppelin/contracts/access/AccessControl.sol\":5421:5439  callerConfirmation */\n      dup2\n        /* \"@openzeppelin/contracts/access/AccessControl.sol\":5421:5455  callerConfirmation != _msgSender() */\n      0xffffffffffffffffffffffffffffffffffffffff\n      and\n      eq\n        /* \"@openzeppelin/contracts/access/AccessControl.sol\":5417:5519  if (callerConfirmation != _msgSender()) {... */\n      tag_132\n      jumpi\n        /* \"@openzeppelin/contracts/access/AccessControl.sol\":5478:5508  AccessControlBadConfirmation() */\n      mload(0x40)\n      0x6697b23200000000000000000000000000000000000000000000000000000000\n      dup2\n      mstore\n      0x04\n      add\n      mload(0x40)\n      dup1\n      swap2\n      sub\n      swap1\n      revert\n        /* \"@openzeppelin/contracts/access/AccessControl.sol\":5417:5519  if (callerConfirmation != _msgSender()) {... */\n    tag_132:\n        /* \"@openzeppelin/contracts/access/AccessControl.sol\":5529:5566  _revokeRole(role, callerConfirmation) */\n      tag_133\n        /* \"@openzeppelin/contracts/access/AccessControl.sol\":5541:5545  role */\n      dup3\n        /* \"@openzeppelin/contracts/access/AccessControl.sol\":5547:5565  callerConfirmation */\n      dup3\n        /* \"@openzeppelin/contracts/access/AccessControl.sol\":5529:5540  _revokeRole */\n      tag_134\n        /* \"@openzeppelin/contracts/access/AccessControl.sol\":5529:5566  _revokeRole(role, callerConfirmation) */\n      jump\t// in\n    tag_133:\n      pop\n        /* \"@openzeppelin/contracts/access/AccessControl.sol\":5328:5573  function renounceRole(bytes32 role, address callerConfirmation) public virtual {... */\n      pop\n      pop\n      jump\t// out\n        /* \"Product Tracker Smart Contract/Product Tracker Main/main.test.sol\":566:598  uint256 public nextProductId = 1 */\n    tag_59:\n      sload(0x02)\n      dup2\n      jump\t// out\n        /* \"Product Tracker Smart Contract/Product Tracker Main/main.test.sol\":4383:4690  function GenerateProduct(... */\n    tag_65:\n      pop\n      pop\n      pop\n      pop\n      pop\n      pop\n      pop\n      jump\t// out\n        /* \"Product Tracker Smart Contract/Product Tracker Main/main.test.sol\":3167:3312  function RevokeAdminRole(address _admin)... */\n    tag_68:\n        /* \"Product Tracker Smart Contract/Product Tracker Main/main.test.sol\":450:476  keccak256(\"COMPANY_OWNER\") */\n      0x632405d99f3a4d6966c57f76cc301a3c7cab4b56ce8e567a4198e9434b3fbb5b\n        /* \"@openzeppelin/contracts/access/AccessControl.sol\":2464:2480  _checkRole(role) */\n      tag_137\n        /* \"@openzeppelin/contracts/access/AccessControl.sol\":2475:2479  role */\n      dup2\n        /* \"@openzeppelin/contracts/access/AccessControl.sol\":2464:2474  _checkRole */\n      tag_126\n        /* \"@openzeppelin/contracts/access/AccessControl.sol\":2464:2480  _checkRole(role) */\n      jump\t// in\n    tag_137:\n        /* \"Product Tracker Smart Contract/Product Tracker Main/main.test.sol\":3274:3305  _revokeRole(ADMIN_ROLE, _admin) */\n      tag_139\n        /* \"Product Tracker Smart Contract/Product Tracker Main/main.test.sol\":519:537  keccak256(\"ADMIN\") */\n      0xdf8b4c520ffe197c5343c6f5aec59570151ef9a492f2c624fd45ddde6135ec42\n        /* \"Product Tracker Smart Contract/Product Tracker Main/main.test.sol\":3298:3304  _admin */\n      dup4\n        /* \"Product Tracker Smart Contract/Product Tracker Main/main.test.sol\":3274:3285  _revokeRole */\n      tag_134\n        /* \"Product Tracker Smart Contract/Product Tracker Main/main.test.sol\":3274:3305  _revokeRole(ADMIN_ROLE, _admin) */\n      jump\t// in\n    tag_139:\n      pop\n        /* \"Product Tracker Smart Contract/Product Tracker Main/main.test.sol\":3167:3312  function RevokeAdminRole(address _admin)... */\n      pop\n      pop\n      jump\t// out\n        /* \"@openzeppelin/contracts/access/Ownable.sol\":2293:2394  function renounceOwnership() public virtual onlyOwner {... */\n    tag_70:\n        /* \"@openzeppelin/contracts/access/Ownable.sol\":1531:1544  _checkOwner() */\n      tag_141\n        /* \"@openzeppelin/contracts/access/Ownable.sol\":1531:1542  _checkOwner */\n      tag_117\n        /* \"@openzeppelin/contracts/access/Ownable.sol\":1531:1544  _checkOwner() */\n      jump\t// in\n    tag_141:\n        /* \"@openzeppelin/contracts/access/Ownable.sol\":2357:2387  _transferOwnership(address(0)) */\n      tag_143\n        /* \"@openzeppelin/contracts/access/Ownable.sol\":2384:2385  0 */\n      0x00\n        /* \"@openzeppelin/contracts/access/Ownable.sol\":2357:2375  _transferOwnership */\n      tag_144\n        /* \"@openzeppelin/contracts/access/Ownable.sol\":2357:2387  _transferOwnership(address(0)) */\n      jump\t// in\n    tag_143:\n        /* \"@openzeppelin/contracts/access/Ownable.sol\":2293:2394  function renounceOwnership() public virtual onlyOwner {... */\n      jump\t// out\n        /* \"Product Tracker Smart Contract/Product Tracker Main/main.test.sol\":482:537  bytes32 public constant ADMIN_ROLE = keccak256(\"ADMIN\") */\n    tag_72:\n        /* \"Product Tracker Smart Contract/Product Tracker Main/main.test.sol\":519:537  keccak256(\"ADMIN\") */\n      0xdf8b4c520ffe197c5343c6f5aec59570151ef9a492f2c624fd45ddde6135ec42\n        /* \"Product Tracker Smart Contract/Product Tracker Main/main.test.sol\":482:537  bytes32 public constant ADMIN_ROLE = keccak256(\"ADMIN\") */\n      dup2\n      jump\t// out\n        /* \"Product Tracker Smart Contract/Product Tracker Main/main.test.sol\":999:1042  mapping(uint256 => Product) public products */\n    tag_77:\n      mstore(0x20, 0x03)\n      dup1\n      0x00\n      mstore\n      keccak256(0x00, 0x40)\n      0x00\n      swap2\n      pop\n      swap1\n      pop\n      dup1\n      0x00\n      add\n      sload\n      swap1\n      dup1\n      0x01\n      add\n      dup1\n      sload\n      tag_145\n      swap1\n      tag_146\n      jump\t// in\n    tag_145:\n      dup1\n      0x1f\n      add\n      0x20\n      dup1\n      swap2\n      div\n      mul\n      0x20\n      add\n      mload(0x40)\n      swap1\n      dup2\n      add\n      0x40\n      mstore\n      dup1\n      swap3\n      swap2\n      swap1\n      dup2\n      dup2\n      mstore\n      0x20\n      add\n      dup3\n      dup1\n      sload\n      tag_147\n      swap1\n      tag_146\n      jump\t// in\n    tag_147:\n      dup1\n      iszero\n      tag_148\n      jumpi\n      dup1\n      0x1f\n      lt\n      tag_149\n      jumpi\n      0x0100\n      dup1\n      dup4\n      sload\n      div\n      mul\n      dup4\n      mstore\n      swap2\n      0x20\n      add\n      swap2\n      jump(tag_148)\n    tag_149:\n      dup3\n      add\n      swap2\n      swap1\n      0x00\n      mstore\n      keccak256(0x00, 0x20)\n      swap1\n    tag_150:\n      dup2\n      sload\n      dup2\n      mstore\n      swap1\n      0x01\n      add\n      swap1\n      0x20\n      add\n      dup1\n      dup4\n      gt\n      tag_150\n      jumpi\n      dup3\n      swap1\n      sub\n      0x1f\n      and\n      dup3\n      add\n      swap2\n    tag_148:\n      pop\n      pop\n      pop\n      pop\n      pop\n      swap1\n      dup1\n      0x02\n      add\n      dup1\n      sload\n      tag_151\n      swap1\n      tag_146\n      jump\t// in\n    tag_151:\n      dup1\n      0x1f\n      add\n      0x20\n      dup1\n      swap2\n      div\n      mul\n      0x20\n      add\n      mload(0x40)\n      swap1\n      dup2\n      add\n      0x40\n      mstore\n      dup1\n      swap3\n      swap2\n      swap1\n      dup2\n      dup2\n      mstore\n      0x20\n      add\n      dup3\n      dup1\n      sload\n      tag_152\n      swap1\n      tag_146\n      jump\t// in\n    tag_152:\n      dup1\n      iszero\n      tag_153\n      jumpi\n      dup1\n      0x1f\n      lt\n      tag_154\n      jumpi\n      0x0100\n      dup1\n      dup4\n      sload\n      div\n      mul\n      dup4\n      mstore\n      swap2\n      0x20\n      add\n      swap2\n      jump(tag_153)\n    tag_154:\n      dup3\n      add\n      swap2\n      swap1\n      0x00\n      mstore\n      keccak256(0x00, 0x20)\n      swap1\n    tag_155:\n      dup2\n      sload\n      dup2\n      mstore\n      swap1\n      0x01\n      add\n      swap1\n      0x20\n      add\n      dup1\n      dup4\n      gt\n      tag_155\n      jumpi\n      dup3\n      swap1\n      sub\n      0x1f\n      and\n      dup3\n      add\n      swap2\n    tag_153:\n      pop\n      pop\n      pop\n      pop\n      pop\n      swap1\n      dup1\n      0x03\n      add\n      dup1\n      sload\n      tag_156\n      swap1\n      tag_146\n      jump\t// in\n    tag_156:\n      dup1\n      0x1f\n      add\n      0x20\n      dup1\n      swap2\n      div\n      mul\n      0x20\n      add\n      mload(0x40)\n      swap1\n      dup2\n      add\n      0x40\n      mstore\n      dup1\n      swap3\n      swap2\n      swap1\n      dup2\n      dup2\n      mstore\n      0x20\n      add\n      dup3\n      dup1\n      sload\n      tag_157\n      swap1\n      tag_146\n      jump\t// in\n    tag_157:\n      dup1\n      iszero\n      tag_158\n      jumpi\n      dup1\n      0x1f\n      lt\n      tag_159\n      jumpi\n      0x0100\n      dup1\n      dup4\n      sload\n      div\n      mul\n      dup4\n      mstore\n      swap2\n      0x20\n      add\n      swap2\n      jump(tag_158)\n    tag_159:\n      dup3\n      add\n      swap2\n      swap1\n      0x00\n      mstore\n      keccak256(0x00, 0x20)\n      swap1\n    tag_160:\n      dup2\n      sload\n      dup2\n      mstore\n      swap1\n      0x01\n      add\n      swap1\n      0x20\n      add\n      dup1\n      dup4\n      gt\n      tag_160\n      jumpi\n      dup3\n      swap1\n      sub\n      0x1f\n      and\n      dup3\n      add\n      swap2\n    tag_158:\n      pop\n      pop\n      pop\n      pop\n      pop\n      swap1\n      dup1\n      0x04\n      add\n      sload\n      swap1\n      dup1\n      0x05\n      add\n      sload\n      swap1\n      dup1\n      0x06\n      add\n      mload(0x40)\n      dup1\n      0xc0\n      add\n      0x40\n      mstore\n      swap1\n      dup2\n      0x00\n      dup3\n      add\n      dup1\n      sload\n      tag_161\n      swap1\n      tag_146\n      jump\t// in\n    tag_161:\n      dup1\n      0x1f\n      add\n      0x20\n      dup1\n      swap2\n      div\n      mul\n      0x20\n      add\n      mload(0x40)\n      swap1\n      dup2\n      add\n      0x40\n      mstore\n      dup1\n      swap3\n      swap2\n      swap1\n      dup2\n      dup2\n      mstore\n      0x20\n      add\n      dup3\n      dup1\n      sload\n      tag_162\n      swap1\n      tag_146\n      jump\t// in\n    tag_162:\n      dup1\n      iszero\n      tag_163\n      jumpi\n      dup1\n      0x1f\n      lt\n      tag_164\n      jumpi\n      0x0100\n      dup1\n      dup4\n      sload\n      div\n      mul\n      dup4\n      mstore\n      swap2\n      0x20\n      add\n      swap2\n      jump(tag_163)\n    tag_164:\n      dup3\n      add\n      swap2\n      swap1\n      0x00\n      mstore\n      keccak256(0x00, 0x20)\n      swap1\n    tag_165:\n      dup2\n      sload\n      dup2\n      mstore\n      swap1\n      0x01\n      add\n      swap1\n      0x20\n      add\n      dup1\n      dup4\n      gt\n      tag_165\n      jumpi\n      dup3\n      swap1\n      sub\n      0x1f\n      and\n      dup3\n      add\n      swap2\n    tag_163:\n      pop\n      pop\n      pop\n      pop\n      pop\n      dup2\n      mstore\n      0x20\n      add\n      0x01\n      dup3\n      add\n      dup1\n      sload\n      tag_166\n      swap1\n      tag_146\n      jump\t// in\n    tag_166:\n      dup1\n      0x1f\n      add\n      0x20\n      dup1\n      swap2\n      div\n      mul\n      0x20\n      add\n      mload(0x40)\n      swap1\n      dup2\n      add\n      0x40\n      mstore\n      dup1\n      swap3\n      swap2\n      swap1\n      dup2\n      dup2\n      mstore\n      0x20\n      add\n      dup3\n      dup1\n      sload\n      tag_167\n      swap1\n      tag_146\n      jump\t// in\n    tag_167:\n      dup1\n      iszero\n      tag_168\n      jumpi\n      dup1\n      0x1f\n      lt\n      tag_169\n      jumpi\n      0x0100\n      dup1\n      dup4\n      sload\n      div\n      mul\n      dup4\n      mstore\n      swap2\n      0x20\n      add\n      swap2\n      jump(tag_168)\n    tag_169:\n      dup3\n      add\n      swap2\n      swap1\n      0x00\n      mstore\n      keccak256(0x00, 0x20)\n      swap1\n    tag_170:\n      dup2\n      sload\n      dup2\n      mstore\n      swap1\n      0x01\n      add\n      swap1\n      0x20\n      add\n      dup1\n      dup4\n      gt\n      tag_170\n      jumpi\n      dup3\n      swap1\n      sub\n      0x1f\n      and\n      dup3\n      add\n      swap2\n    tag_168:\n      pop\n      pop\n      pop\n      pop\n      pop\n      dup2\n      mstore\n      0x20\n      add\n      0x02\n      dup3\n      add\n      sload\n      dup2\n      mstore\n      0x20\n      add\n      0x03\n      dup3\n      add\n      0x00\n      swap1\n      sload\n      swap1\n      0x0100\n      exp\n      swap1\n      div\n      0xff\n      and\n      iszero\n      iszero\n      iszero\n      iszero\n      dup2\n      mstore\n      0x20\n      add\n      0x03\n      dup3\n      add\n      0x01\n      swap1\n      sload\n      swap1\n      0x0100\n      exp\n      swap1\n      div\n      0xff\n      and\n      iszero\n      iszero\n      iszero\n      iszero\n      dup2\n      mstore\n      0x20\n      add\n      0x04\n      dup3\n      add\n      sload\n      dup2\n      mstore\n      pop\n      pop\n      swap1\n      pop\n      dup8\n      jump\t// out\n        /* \"Product Tracker Smart Contract/Product Tracker Main/main.test.sol\":2883:3012  function RevokeCompanyOwner(address _userAddress) public onlyOwner {... */\n    tag_82:\n        /* \"@openzeppelin/contracts/access/Ownable.sol\":1531:1544  _checkOwner() */\n      tag_172\n        /* \"@openzeppelin/contracts/access/Ownable.sol\":1531:1542  _checkOwner */\n      tag_117\n        /* \"@openzeppelin/contracts/access/Ownable.sol\":1531:1544  _checkOwner() */\n      jump\t// in\n    tag_172:\n        /* \"Product Tracker Smart Contract/Product Tracker Main/main.test.sol\":2960:3005  _revokeRole(COMPANY_OWNER_ROLE, _userAddress) */\n      tag_174\n        /* \"Product Tracker Smart Contract/Product Tracker Main/main.test.sol\":450:476  keccak256(\"COMPANY_OWNER\") */\n      0x632405d99f3a4d6966c57f76cc301a3c7cab4b56ce8e567a4198e9434b3fbb5b\n        /* \"Product Tracker Smart Contract/Product Tracker Main/main.test.sol\":2992:3004  _userAddress */\n      dup3\n        /* \"Product Tracker Smart Contract/Product Tracker Main/main.test.sol\":2960:2971  _revokeRole */\n      tag_134\n        /* \"Product Tracker Smart Contract/Product Tracker Main/main.test.sol\":2960:3005  _revokeRole(COMPANY_OWNER_ROLE, _userAddress) */\n      jump\t// in\n    tag_174:\n      pop\n        /* \"Product Tracker Smart Contract/Product Tracker Main/main.test.sol\":2883:3012  function RevokeCompanyOwner(address _userAddress) public onlyOwner {... */\n      pop\n      jump\t// out\n        /* \"@openzeppelin/contracts/access/Ownable.sol\":1638:1723  function owner() public view virtual returns (address) {... */\n    tag_84:\n        /* \"@openzeppelin/contracts/access/Ownable.sol\":1684:1691  address */\n      0x00\n        /* \"@openzeppelin/contracts/access/Ownable.sol\":1710:1716  _owner */\n      dup1\n      0x00\n      swap1\n      sload\n      swap1\n      0x0100\n      exp\n      swap1\n      div\n      0xffffffffffffffffffffffffffffffffffffffff\n      and\n        /* \"@openzeppelin/contracts/access/Ownable.sol\":1703:1716  return _owner */\n      swap1\n      pop\n        /* \"@openzeppelin/contracts/access/Ownable.sol\":1638:1723  function owner() public view virtual returns (address) {... */\n      swap1\n      jump\t// out\n        /* \"@openzeppelin/contracts/access/AccessControl.sol\":2854:2990  function hasRole(bytes32 role, address account) public view virtual returns (bool) {... */\n    tag_89:\n        /* \"@openzeppelin/contracts/access/AccessControl.sol\":2931:2935  bool */\n      0x00\n        /* \"@openzeppelin/contracts/access/AccessControl.sol\":2954:2960  _roles */\n      0x01\n        /* \"@openzeppelin/contracts/access/AccessControl.sol\":2954:2966  _roles[role] */\n      0x00\n        /* \"@openzeppelin/contracts/access/AccessControl.sol\":2961:2965  role */\n      dup5\n        /* \"@openzeppelin/contracts/access/AccessControl.sol\":2954:2966  _roles[role] */\n      dup2\n      mstore\n      0x20\n      add\n      swap1\n      dup2\n      mstore\n      0x20\n      add\n      0x00\n      keccak256\n        /* \"@openzeppelin/contracts/access/AccessControl.sol\":2954:2974  _roles[role].hasRole */\n      0x00\n      add\n        /* \"@openzeppelin/contracts/access/AccessControl.sol\":2954:2983  _roles[role].hasRole[account] */\n      0x00\n        /* \"@openzeppelin/contracts/access/AccessControl.sol\":2975:2982  account */\n      dup4\n        /* \"@openzeppelin/contracts/access/AccessControl.sol\":2954:2983  _roles[role].hasRole[account] */\n      0xffffffffffffffffffffffffffffffffffffffff\n      and\n      0xffffffffffffffffffffffffffffffffffffffff\n      and\n      dup2\n      mstore\n      0x20\n      add\n      swap1\n      dup2\n      mstore\n      0x20\n      add\n      0x00\n      keccak256\n      0x00\n      swap1\n      sload\n      swap1\n      0x0100\n      exp\n      swap1\n      div\n      0xff\n      and\n        /* \"@openzeppelin/contracts/access/AccessControl.sol\":2947:2983  return _roles[role].hasRole[account] */\n      swap1\n      pop\n        /* \"@openzeppelin/contracts/access/AccessControl.sol\":2854:2990  function hasRole(bytes32 role, address account) public view virtual returns (bool) {... */\n      swap3\n      swap2\n      pop\n      pop\n      jump\t// out\n        /* \"@openzeppelin/contracts/access/AccessControl.sol\":2187:2236  bytes32 public constant DEFAULT_ADMIN_ROLE = 0x00 */\n    tag_92:\n        /* \"@openzeppelin/contracts/access/AccessControl.sol\":2232:2236  0x00 */\n      0x00\n        /* \"@openzeppelin/contracts/access/AccessControl.sol\":2187:2236  bytes32 public constant DEFAULT_ADMIN_ROLE = 0x00 */\n      dup1\n      shl\n      dup2\n      jump\t// out\n        /* \"Product Tracker Smart Contract/Product Tracker Main/main.test.sol\":1105:1153  mapping(uint256 => address) public companyOwners */\n    tag_96:\n      mstore(0x20, 0x05)\n      dup1\n      0x00\n      mstore\n      keccak256(0x00, 0x40)\n      0x00\n      swap2\n      pop\n      sload\n      swap1\n      0x0100\n      exp\n      swap1\n      div\n      0xffffffffffffffffffffffffffffffffffffffff\n      and\n      dup2\n      jump\t// out\n        /* \"Product Tracker Smart Contract/Product Tracker Main/main.test.sol\":1048:1099  mapping(uint256 => address) public productGenerator */\n    tag_100:\n      mstore(0x20, 0x04)\n      dup1\n      0x00\n      mstore\n      keccak256(0x00, 0x40)\n      0x00\n      swap2\n      pop\n      sload\n      swap1\n      0x0100\n      exp\n      swap1\n      div\n      0xffffffffffffffffffffffffffffffffffffffff\n      and\n      dup2\n      jump\t// out\n        /* \"@openzeppelin/contracts/access/AccessControl.sol\":4642:4780  function revokeRole(bytes32 role, address account) public virtual onlyRole(getRoleAdmin(role)) {... */\n    tag_104:\n        /* \"@openzeppelin/contracts/access/AccessControl.sol\":4717:4735  getRoleAdmin(role) */\n      tag_177\n        /* \"@openzeppelin/contracts/access/AccessControl.sol\":4730:4734  role */\n      dup3\n        /* \"@openzeppelin/contracts/access/AccessControl.sol\":4717:4729  getRoleAdmin */\n      tag_49\n        /* \"@openzeppelin/contracts/access/AccessControl.sol\":4717:4735  getRoleAdmin(role) */\n      jump\t// in\n    tag_177:\n        /* \"@openzeppelin/contracts/access/AccessControl.sol\":2464:2480  _checkRole(role) */\n      tag_179\n        /* \"@openzeppelin/contracts/access/AccessControl.sol\":2475:2479  role */\n      dup2\n        /* \"@openzeppelin/contracts/access/AccessControl.sol\":2464:2474  _checkRole */\n      tag_126\n        /* \"@openzeppelin/contracts/access/AccessControl.sol\":2464:2480  _checkRole(role) */\n      jump\t// in\n    tag_179:\n        /* \"@openzeppelin/contracts/access/AccessControl.sol\":4747:4773  _revokeRole(role, account) */\n      tag_181\n        /* \"@openzeppelin/contracts/access/AccessControl.sol\":4759:4763  role */\n      dup4\n        /* \"@openzeppelin/contracts/access/AccessControl.sol\":4765:4772  account */\n      dup4\n        /* \"@openzeppelin/contracts/access/AccessControl.sol\":4747:4758  _revokeRole */\n      tag_134\n        /* \"@openzeppelin/contracts/access/AccessControl.sol\":4747:4773  _revokeRole(role, account) */\n      jump\t// in\n    tag_181:\n      pop\n        /* \"@openzeppelin/contracts/access/AccessControl.sol\":4642:4780  function revokeRole(bytes32 role, address account) public virtual onlyRole(getRoleAdmin(role)) {... */\n      pop\n      pop\n      pop\n      jump\t// out\n        /* \"Product Tracker Smart Contract/Product Tracker Main/main.test.sol\":3018:3161  function GrantAdminRole(address _admin)... */\n    tag_107:\n        /* \"Product Tracker Smart Contract/Product Tracker Main/main.test.sol\":450:476  keccak256(\"COMPANY_OWNER\") */\n      0x632405d99f3a4d6966c57f76cc301a3c7cab4b56ce8e567a4198e9434b3fbb5b\n        /* \"@openzeppelin/contracts/access/AccessControl.sol\":2464:2480  _checkRole(role) */\n      tag_183\n        /* \"@openzeppelin/contracts/access/AccessControl.sol\":2475:2479  role */\n      dup2\n        /* \"@openzeppelin/contracts/access/AccessControl.sol\":2464:2474  _checkRole */\n      tag_126\n        /* \"@openzeppelin/contracts/access/AccessControl.sol\":2464:2480  _checkRole(role) */\n      jump\t// in\n    tag_183:\n        /* \"Product Tracker Smart Contract/Product Tracker Main/main.test.sol\":3124:3154  _grantRole(ADMIN_ROLE, _admin) */\n      tag_185\n        /* \"Product Tracker Smart Contract/Product Tracker Main/main.test.sol\":519:537  keccak256(\"ADMIN\") */\n      0xdf8b4c520ffe197c5343c6f5aec59570151ef9a492f2c624fd45ddde6135ec42\n        /* \"Product Tracker Smart Contract/Product Tracker Main/main.test.sol\":3147:3153  _admin */\n      dup4\n        /* \"Product Tracker Smart Contract/Product Tracker Main/main.test.sol\":3124:3134  _grantRole */\n      tag_120\n        /* \"Product Tracker Smart Contract/Product Tracker Main/main.test.sol\":3124:3154  _grantRole(ADMIN_ROLE, _admin) */\n      jump\t// in\n    tag_185:\n      pop\n        /* \"Product Tracker Smart Contract/Product Tracker Main/main.test.sol\":3018:3161  function GrantAdminRole(address _admin)... */\n      pop\n      pop\n      jump\t// out\n        /* \"@openzeppelin/contracts/access/Ownable.sol\":2543:2758  function transferOwnership(address newOwner) public virtual onlyOwner {... */\n    tag_110:\n        /* \"@openzeppelin/contracts/access/Ownable.sol\":1531:1544  _checkOwner() */\n      tag_187\n        /* \"@openzeppelin/contracts/access/Ownable.sol\":1531:1542  _checkOwner */\n      tag_117\n        /* \"@openzeppelin/contracts/access/Ownable.sol\":1531:1544  _checkOwner() */\n      jump\t// in\n    tag_187:\n        /* \"@openzeppelin/contracts/access/Ownable.sol\":2647:2648  0 */\n      0x00\n        /* \"@openzeppelin/contracts/access/Ownable.sol\":2627:2649  newOwner == address(0) */\n      0xffffffffffffffffffffffffffffffffffffffff\n      and\n        /* \"@openzeppelin/contracts/access/Ownable.sol\":2627:2635  newOwner */\n      dup2\n        /* \"@openzeppelin/contracts/access/Ownable.sol\":2627:2649  newOwner == address(0) */\n      0xffffffffffffffffffffffffffffffffffffffff\n      and\n      sub\n        /* \"@openzeppelin/contracts/access/Ownable.sol\":2623:2714  if (newOwner == address(0)) {... */\n      tag_189\n      jumpi\n        /* \"@openzeppelin/contracts/access/Ownable.sol\":2700:2701  0 */\n      0x00\n        /* \"@openzeppelin/contracts/access/Ownable.sol\":2672:2703  OwnableInvalidOwner(address(0)) */\n      mload(0x40)\n      0x1e4fbdf700000000000000000000000000000000000000000000000000000000\n      dup2\n      mstore\n      0x04\n      add\n      tag_190\n      swap2\n      swap1\n      tag_86\n      jump\t// in\n    tag_190:\n      mload(0x40)\n      dup1\n      swap2\n      sub\n      swap1\n      revert\n        /* \"@openzeppelin/contracts/access/Ownable.sol\":2623:2714  if (newOwner == address(0)) {... */\n    tag_189:\n        /* \"@openzeppelin/contracts/access/Ownable.sol\":2723:2751  _transferOwnership(newOwner) */\n      tag_191\n        /* \"@openzeppelin/contracts/access/Ownable.sol\":2742:2750  newOwner */\n      dup2\n        /* \"@openzeppelin/contracts/access/Ownable.sol\":2723:2741  _transferOwnership */\n      tag_144\n        /* \"@openzeppelin/contracts/access/Ownable.sol\":2723:2751  _transferOwnership(newOwner) */\n      jump\t// in\n    tag_191:\n        /* \"@openzeppelin/contracts/access/Ownable.sol\":2543:2758  function transferOwnership(address newOwner) public virtual onlyOwner {... */\n      pop\n      jump\t// out\n        /* \"@openzeppelin/contracts/utils/introspection/ERC165.sol\":762:908  function supportsInterface(bytes4 interfaceId) public view virtual returns (bool) {... */\n    tag_114:\n        /* \"@openzeppelin/contracts/utils/introspection/ERC165.sol\":838:842  bool */\n      0x00\n        /* \"@openzeppelin/contracts/utils/introspection/ERC165.sol\":876:901  type(IERC165).interfaceId */\n      0x01ffc9a700000000000000000000000000000000000000000000000000000000\n        /* \"@openzeppelin/contracts/utils/introspection/ERC165.sol\":861:901  interfaceId == type(IERC165).interfaceId */\n      not(0xffffffffffffffffffffffffffffffffffffffffffffffffffffffff)\n      and\n        /* \"@openzeppelin/contracts/utils/introspection/ERC165.sol\":861:872  interfaceId */\n      dup3\n        /* \"@openzeppelin/contracts/utils/introspection/ERC165.sol\":861:901  interfaceId == type(IERC165).interfaceId */\n      not(0xffffffffffffffffffffffffffffffffffffffffffffffffffffffff)\n      and\n      eq\n        /* \"@openzeppelin/contracts/utils/introspection/ERC165.sol\":854:901  return interfaceId == type(IERC165).interfaceId */\n      swap1\n      pop\n        /* \"@openzeppelin/contracts/utils/introspection/ERC165.sol\":762:908  function supportsInterface(bytes4 interfaceId) public view virtual returns (bool) {... */\n      swap2\n      swap1\n      pop\n      jump\t// out\n        /* \"@openzeppelin/contracts/access/Ownable.sol\":1796:1958  function _checkOwner() internal view virtual {... */\n    tag_117:\n        /* \"@openzeppelin/contracts/access/Ownable.sol\":1866:1878  _msgSender() */\n      tag_194\n        /* \"@openzeppelin/contracts/access/Ownable.sol\":1866:1876  _msgSender */\n      tag_131\n        /* \"@openzeppelin/contracts/access/Ownable.sol\":1866:1878  _msgSender() */\n      jump\t// in\n    tag_194:\n        /* \"@openzeppelin/contracts/access/Ownable.sol\":1855:1878  owner() != _msgSender() */\n      0xffffffffffffffffffffffffffffffffffffffff\n      and\n        /* \"@openzeppelin/contracts/access/Ownable.sol\":1855:1862  owner() */\n      tag_195\n        /* \"@openzeppelin/contracts/access/Ownable.sol\":1855:1860  owner */\n      tag_84\n        /* \"@openzeppelin/contracts/access/Ownable.sol\":1855:1862  owner() */\n      jump\t// in\n    tag_195:\n        /* \"@openzeppelin/contracts/access/Ownable.sol\":1855:1878  owner() != _msgSender() */\n      0xffffffffffffffffffffffffffffffffffffffff\n      and\n      eq\n        /* \"@openzeppelin/contracts/access/Ownable.sol\":1851:1952  if (owner() != _msgSender()) {... */\n      tag_196\n      jumpi\n        /* \"@openzeppelin/contracts/access/Ownable.sol\":1928:1940  _msgSender() */\n      tag_197\n        /* \"@openzeppelin/contracts/access/Ownable.sol\":1928:1938  _msgSender */\n      tag_131\n        /* \"@openzeppelin/contracts/access/Ownable.sol\":1928:1940  _msgSender() */\n      jump\t// in\n    tag_197:\n        /* \"@openzeppelin/contracts/access/Ownable.sol\":1901:1941  OwnableUnauthorizedAccount(_msgSender()) */\n      mload(0x40)\n      0x118cdaa700000000000000000000000000000000000000000000000000000000\n      dup2\n      mstore\n      0x04\n      add\n      tag_198\n      swap2\n      swap1\n      tag_86\n      jump\t// in\n    tag_198:\n      mload(0x40)\n      dup1\n      swap2\n      sub\n      swap1\n      revert\n        /* \"@openzeppelin/contracts/access/Ownable.sol\":1851:1952  if (owner() != _msgSender()) {... */\n    tag_196:\n        /* \"@openzeppelin/contracts/access/Ownable.sol\":1796:1958  function _checkOwner() internal view virtual {... */\n      jump\t// out\n        /* \"@openzeppelin/contracts/access/AccessControl.sol\":6179:6495  function _grantRole(bytes32 role, address account) internal virtual returns (bool) {... */\n    tag_120:\n        /* \"@openzeppelin/contracts/access/AccessControl.sol\":6256:6260  bool */\n      0x00\n        /* \"@openzeppelin/contracts/access/AccessControl.sol\":6277:6299  hasRole(role, account) */\n      tag_200\n        /* \"@openzeppelin/contracts/access/AccessControl.sol\":6285:6289  role */\n      dup4\n        /* \"@openzeppelin/contracts/access/AccessControl.sol\":6291:6298  account */\n      dup4\n        /* \"@openzeppelin/contracts/access/AccessControl.sol\":6277:6284  hasRole */\n      tag_89\n        /* \"@openzeppelin/contracts/access/AccessControl.sol\":6277:6299  hasRole(role, account) */\n      jump\t// in\n    tag_200:\n        /* \"@openzeppelin/contracts/access/AccessControl.sol\":6272:6489  if (!hasRole(role, account)) {... */\n      tag_201\n      jumpi\n        /* \"@openzeppelin/contracts/access/AccessControl.sol\":6347:6351  true */\n      0x01\n        /* \"@openzeppelin/contracts/access/AccessControl.sol\":6315:6321  _roles */\n      dup1\n        /* \"@openzeppelin/contracts/access/AccessControl.sol\":6315:6327  _roles[role] */\n      0x00\n        /* \"@openzeppelin/contracts/access/AccessControl.sol\":6322:6326  role */\n      dup6\n        /* \"@openzeppelin/contracts/access/AccessControl.sol\":6315:6327  _roles[role] */\n      dup2\n      mstore\n      0x20\n      add\n      swap1\n      dup2\n      mstore\n      0x20\n      add\n      0x00\n      keccak256\n        /* \"@openzeppelin/contracts/access/AccessControl.sol\":6315:6335  _roles[role].hasRole */\n      0x00\n      add\n        /* \"@openzeppelin/contracts/access/AccessControl.sol\":6315:6344  _roles[role].hasRole[account] */\n      0x00\n        /* \"@openzeppelin/contracts/access/AccessControl.sol\":6336:6343  account */\n      dup5\n        /* \"@openzeppelin/contracts/access/AccessControl.sol\":6315:6344  _roles[role].hasRole[account] */\n      0xffffffffffffffffffffffffffffffffffffffff\n      and\n      0xffffffffffffffffffffffffffffffffffffffff\n      and\n      dup2\n      mstore\n      0x20\n      add\n      swap1\n      dup2\n      mstore\n      0x20\n      add\n      0x00\n      keccak256\n      0x00\n        /* \"@openzeppelin/contracts/access/AccessControl.sol\":6315:6351  _roles[role].hasRole[account] = true */\n      0x0100\n      exp\n      dup2\n      sload\n      dup2\n      0xff\n      mul\n      not\n      and\n      swap1\n      dup4\n      iszero\n      iszero\n      mul\n      or\n      swap1\n      sstore\n      pop\n        /* \"@openzeppelin/contracts/access/AccessControl.sol\":6397:6409  _msgSender() */\n      tag_202\n        /* \"@openzeppelin/contracts/access/AccessControl.sol\":6397:6407  _msgSender */\n      tag_131\n        /* \"@openzeppelin/contracts/access/AccessControl.sol\":6397:6409  _msgSender() */\n      jump\t// in\n    tag_202:\n        /* \"@openzeppelin/contracts/access/AccessControl.sol\":6370:6410  RoleGranted(role, account, _msgSender()) */\n      0xffffffffffffffffffffffffffffffffffffffff\n      and\n        /* \"@openzeppelin/contracts/access/AccessControl.sol\":6388:6395  account */\n      dup3\n        /* \"@openzeppelin/contracts/access/AccessControl.sol\":6370:6410  RoleGranted(role, account, _msgSender()) */\n      0xffffffffffffffffffffffffffffffffffffffff\n      and\n        /* \"@openzeppelin/contracts/access/AccessControl.sol\":6382:6386  role */\n      dup5\n        /* \"@openzeppelin/contracts/access/AccessControl.sol\":6370:6410  RoleGranted(role, account, _msgSender()) */\n      0x2f8788117e7eff1d82e926ec794901d17c78024a50270940304540a733656f0d\n      mload(0x40)\n      mload(0x40)\n      dup1\n      swap2\n      sub\n      swap1\n      log4\n        /* \"@openzeppelin/contracts/access/AccessControl.sol\":6431:6435  true */\n      0x01\n        /* \"@openzeppelin/contracts/access/AccessControl.sol\":6424:6435  return true */\n      swap1\n      pop\n      jump(tag_199)\n        /* \"@openzeppelin/contracts/access/AccessControl.sol\":6272:6489  if (!hasRole(role, account)) {... */\n    tag_201:\n        /* \"@openzeppelin/contracts/access/AccessControl.sol\":6473:6478  false */\n      0x00\n        /* \"@openzeppelin/contracts/access/AccessControl.sol\":6466:6478  return false */\n      swap1\n      pop\n        /* \"@openzeppelin/contracts/access/AccessControl.sol\":6179:6495  function _grantRole(bytes32 role, address account) internal virtual returns (bool) {... */\n    tag_199:\n      swap3\n      swap2\n      pop\n      pop\n      jump\t// out\n        /* \"@openzeppelin/contracts/access/AccessControl.sol\":3199:3302  function _checkRole(bytes32 role) internal view virtual {... */\n    tag_126:\n        /* \"@openzeppelin/contracts/access/AccessControl.sol\":3265:3295  _checkRole(role, _msgSender()) */\n      tag_205\n        /* \"@openzeppelin/contracts/access/AccessControl.sol\":3276:3280  role */\n      dup2\n        /* \"@openzeppelin/contracts/access/AccessControl.sol\":3282:3294  _msgSender() */\n      tag_206\n        /* \"@openzeppelin/contracts/access/AccessControl.sol\":3282:3292  _msgSender */\n      tag_131\n        /* \"@openzeppelin/contracts/access/AccessControl.sol\":3282:3294  _msgSender() */\n      jump\t// in\n    tag_206:\n        /* \"@openzeppelin/contracts/access/AccessControl.sol\":3265:3275  _checkRole */\n      tag_207\n        /* \"@openzeppelin/contracts/access/AccessControl.sol\":3265:3295  _checkRole(role, _msgSender()) */\n      jump\t// in\n    tag_205:\n        /* \"@openzeppelin/contracts/access/AccessControl.sol\":3199:3302  function _checkRole(bytes32 role) internal view virtual {... */\n      pop\n      jump\t// out\n        /* \"@openzeppelin/contracts/utils/Context.sol\":656:752  function _msgSender() internal view virtual returns (address) {... */\n    tag_131:\n        /* \"@openzeppelin/contracts/utils/Context.sol\":709:716  address */\n      0x00\n        /* \"@openzeppelin/contracts/utils/Context.sol\":735:745  msg.sender */\n      caller\n        /* \"@openzeppelin/contracts/utils/Context.sol\":728:745  return msg.sender */\n      swap1\n      pop\n        /* \"@openzeppelin/contracts/utils/Context.sol\":656:752  function _msgSender() internal view virtual returns (address) {... */\n      swap1\n      jump\t// out\n        /* \"@openzeppelin/contracts/access/AccessControl.sol\":6730:7047  function _revokeRole(bytes32 role, address account) internal virtual returns (bool) {... */\n    tag_134:\n        /* \"@openzeppelin/contracts/access/AccessControl.sol\":6808:6812  bool */\n      0x00\n        /* \"@openzeppelin/contracts/access/AccessControl.sol\":6828:6850  hasRole(role, account) */\n      tag_210\n        /* \"@openzeppelin/contracts/access/AccessControl.sol\":6836:6840  role */\n      dup4\n        /* \"@openzeppelin/contracts/access/AccessControl.sol\":6842:6849  account */\n      dup4\n        /* \"@openzeppelin/contracts/access/AccessControl.sol\":6828:6835  hasRole */\n      tag_89\n        /* \"@openzeppelin/contracts/access/AccessControl.sol\":6828:6850  hasRole(role, account) */\n      jump\t// in\n    tag_210:\n        /* \"@openzeppelin/contracts/access/AccessControl.sol\":6824:7041  if (hasRole(role, account)) {... */\n      iszero\n      tag_211\n      jumpi\n        /* \"@openzeppelin/contracts/access/AccessControl.sol\":6898:6903  false */\n      0x00\n        /* \"@openzeppelin/contracts/access/AccessControl.sol\":6866:6872  _roles */\n      0x01\n        /* \"@openzeppelin/contracts/access/AccessControl.sol\":6866:6878  _roles[role] */\n      0x00\n        /* \"@openzeppelin/contracts/access/AccessControl.sol\":6873:6877  role */\n      dup6\n        /* \"@openzeppelin/contracts/access/AccessControl.sol\":6866:6878  _roles[role] */\n      dup2\n      mstore\n      0x20\n      add\n      swap1\n      dup2\n      mstore\n      0x20\n      add\n      0x00\n      keccak256\n        /* \"@openzeppelin/contracts/access/AccessControl.sol\":6866:6886  _roles[role].hasRole */\n      0x00\n      add\n        /* \"@openzeppelin/contracts/access/AccessControl.sol\":6866:6895  _roles[role].hasRole[account] */\n      0x00\n        /* \"@openzeppelin/contracts/access/AccessControl.sol\":6887:6894  account */\n      dup5\n        /* \"@openzeppelin/contracts/access/AccessControl.sol\":6866:6895  _roles[role].hasRole[account] */\n      0xffffffffffffffffffffffffffffffffffffffff\n      and\n      0xffffffffffffffffffffffffffffffffffffffff\n      and\n      dup2\n      mstore\n      0x20\n      add\n      swap1\n      dup2\n      mstore\n      0x20\n      add\n      0x00\n      keccak256\n      0x00\n        /* \"@openzeppelin/contracts/access/AccessControl.sol\":6866:6903  _roles[role].hasRole[account] = false */\n      0x0100\n      exp\n      dup2\n      sload\n      dup2\n      0xff\n      mul\n      not\n      and\n      swap1\n      dup4\n      iszero\n      iszero\n      mul\n      or\n      swap1\n      sstore\n      pop\n        /* \"@openzeppelin/contracts/access/AccessControl.sol\":6949:6961  _msgSender() */\n      tag_212\n        /* \"@openzeppelin/contracts/access/AccessControl.sol\":6949:6959  _msgSender */\n      tag_131\n        /* \"@openzeppelin/contracts/access/AccessControl.sol\":6949:6961  _msgSender() */\n      jump\t// in\n    tag_212:\n        /* \"@openzeppelin/contracts/access/AccessControl.sol\":6922:6962  RoleRevoked(role, account, _msgSender()) */\n      0xffffffffffffffffffffffffffffffffffffffff\n      and\n        /* \"@openzeppelin/contracts/access/AccessControl.sol\":6940:6947  account */\n      dup3\n        /* \"@openzeppelin/contracts/access/AccessControl.sol\":6922:6962  RoleRevoked(role, account, _msgSender()) */\n      0xffffffffffffffffffffffffffffffffffffffff\n      and\n        /* \"@openzeppelin/contracts/access/AccessControl.sol\":6934:6938  role */\n      dup5\n        /* \"@openzeppelin/contracts/access/AccessControl.sol\":6922:6962  RoleRevoked(role, account, _msgSender()) */\n      0xf6391f5c32d9c69d2a47ea670b442974b53935d1edc7fd64eb21e047a839171b\n      mload(0x40)\n      mload(0x40)\n      dup1\n      swap2\n      sub\n      swap1\n      log4\n        /* \"@openzeppelin/contracts/access/AccessControl.sol\":6983:6987  true */\n      0x01\n        /* \"@openzeppelin/contracts/access/AccessControl.sol\":6976:6987  return true */\n      swap1\n      pop\n      jump(tag_209)\n        /* \"@openzeppelin/contracts/access/AccessControl.sol\":6824:7041  if (hasRole(role, account)) {... */\n    tag_211:\n        /* \"@openzeppelin/contracts/access/AccessControl.sol\":7025:7030  false */\n      0x00\n        /* \"@openzeppelin/contracts/access/AccessControl.sol\":7018:7030  return false */\n      swap1\n      pop\n        /* \"@openzeppelin/contracts/access/AccessControl.sol\":6730:7047  function _revokeRole(bytes32 role, address account) internal virtual returns (bool) {... */\n    tag_209:\n      swap3\n      swap2\n      pop\n      pop\n      jump\t// out\n        /* \"@openzeppelin/contracts/access/Ownable.sol\":2912:3099  function _transferOwnership(address newOwner) internal virtual {... */\n    tag_144:\n        /* \"@openzeppelin/contracts/access/Ownable.sol\":2985:3001  address oldOwner */\n      0x00\n        /* \"@openzeppelin/contracts/access/Ownable.sol\":3004:3010  _owner */\n      dup1\n      0x00\n      swap1\n      sload\n      swap1\n      0x0100\n      exp\n      swap1\n      div\n      0xffffffffffffffffffffffffffffffffffffffff\n      and\n        /* \"@openzeppelin/contracts/access/Ownable.sol\":2985:3010  address oldOwner = _owner */\n      swap1\n      pop\n        /* \"@openzeppelin/contracts/access/Ownable.sol\":3029:3037  newOwner */\n      dup2\n        /* \"@openzeppelin/contracts/access/Ownable.sol\":3020:3026  _owner */\n      0x00\n      dup1\n        /* \"@openzeppelin/contracts/access/Ownable.sol\":3020:3037  _owner = newOwner */\n      0x0100\n      exp\n      dup2\n      sload\n      dup2\n      0xffffffffffffffffffffffffffffffffffffffff\n      mul\n      not\n      and\n      swap1\n      dup4\n      0xffffffffffffffffffffffffffffffffffffffff\n      and\n      mul\n      or\n      swap1\n      sstore\n      pop\n        /* \"@openzeppelin/contracts/access/Ownable.sol\":3083:3091  newOwner */\n      dup2\n        /* \"@openzeppelin/contracts/access/Ownable.sol\":3052:3092  OwnershipTransferred(oldOwner, newOwner) */\n      0xffffffffffffffffffffffffffffffffffffffff\n      and\n        /* \"@openzeppelin/contracts/access/Ownable.sol\":3073:3081  oldOwner */\n      dup2\n        /* \"@openzeppelin/contracts/access/Ownable.sol\":3052:3092  OwnershipTransferred(oldOwner, newOwner) */\n      0xffffffffffffffffffffffffffffffffffffffff\n      and\n      0x8be0079c531659141344cd1fd0a4f28419497f9722a3daafe3b4186f6b6457e0\n      mload(0x40)\n      mload(0x40)\n      dup1\n      swap2\n      sub\n      swap1\n      log3\n        /* \"@openzeppelin/contracts/access/Ownable.sol\":2975:3099  {... */\n      pop\n        /* \"@openzeppelin/contracts/access/Ownable.sol\":2912:3099  function _transferOwnership(address newOwner) internal virtual {... */\n      pop\n      jump\t// out\n        /* \"@openzeppelin/contracts/access/AccessControl.sol\":3432:3629  function _checkRole(bytes32 role, address account) internal view virtual {... */\n    tag_207:\n        /* \"@openzeppelin/contracts/access/AccessControl.sol\":3520:3542  hasRole(role, account) */\n      tag_216\n        /* \"@openzeppelin/contracts/access/AccessControl.sol\":3528:3532  role */\n      dup3\n        /* \"@openzeppelin/contracts/access/AccessControl.sol\":3534:3541  account */\n      dup3\n        /* \"@openzeppelin/contracts/access/AccessControl.sol\":3520:3527  hasRole */\n      tag_89\n        /* \"@openzeppelin/contracts/access/AccessControl.sol\":3520:3542  hasRole(role, account) */\n      jump\t// in\n    tag_216:\n        /* \"@openzeppelin/contracts/access/AccessControl.sol\":3515:3623  if (!hasRole(role, account)) {... */\n      tag_217\n      jumpi\n        /* \"@openzeppelin/contracts/access/AccessControl.sol\":3598:3605  account */\n      dup1\n        /* \"@openzeppelin/contracts/access/AccessControl.sol\":3607:3611  role */\n      dup3\n        /* \"@openzeppelin/contracts/access/AccessControl.sol\":3565:3612  AccessControlUnauthorizedAccount(account, role) */\n      mload(0x40)\n      0xe2517d3f00000000000000000000000000000000000000000000000000000000\n      dup2\n      mstore\n      0x04\n      add\n      tag_218\n      swap3\n      swap2\n      swap1\n      tag_219\n      jump\t// in\n    tag_218:\n      mload(0x40)\n      dup1\n      swap2\n      sub\n      swap1\n      revert\n        /* \"@openzeppelin/contracts/access/AccessControl.sol\":3515:3623  if (!hasRole(role, account)) {... */\n    tag_217:\n        /* \"@openzeppelin/contracts/access/AccessControl.sol\":3432:3629  function _checkRole(bytes32 role, address account) internal view virtual {... */\n      pop\n      pop\n      jump\t// out\n        /* \"#utility.yul\":7:82   */\n    tag_220:\n        /* \"#utility.yul\":40:46   */\n      0x00\n        /* \"#utility.yul\":73:75   */\n      0x40\n        /* \"#utility.yul\":67:76   */\n      mload\n        /* \"#utility.yul\":57:76   */\n      swap1\n      pop\n        /* \"#utility.yul\":7:82   */\n      swap1\n      jump\t// out\n        /* \"#utility.yul\":88:205   */\n    tag_221:\n        /* \"#utility.yul\":197:198   */\n      0x00\n        /* \"#utility.yul\":194:195   */\n      dup1\n        /* \"#utility.yul\":187:199   */\n      revert\n        /* \"#utility.yul\":211:328   */\n    tag_222:\n        /* \"#utility.yul\":320:321   */\n      0x00\n        /* \"#utility.yul\":317:318   */\n      dup1\n        /* \"#utility.yul\":310:322   */\n      revert\n        /* \"#utility.yul\":334:483   */\n    tag_223:\n        /* \"#utility.yul\":370:377   */\n      0x00\n        /* \"#utility.yul\":410:476   */\n      0xffffffff00000000000000000000000000000000000000000000000000000000\n        /* \"#utility.yul\":403:408   */\n      dup3\n        /* \"#utility.yul\":399:477   */\n      and\n        /* \"#utility.yul\":388:477   */\n      swap1\n      pop\n        /* \"#utility.yul\":334:483   */\n      swap2\n      swap1\n      pop\n      jump\t// out\n        /* \"#utility.yul\":489:609   */\n    tag_224:\n        /* \"#utility.yul\":561:584   */\n      tag_269\n        /* \"#utility.yul\":578:583   */\n      dup2\n        /* \"#utility.yul\":561:584   */\n      tag_223\n      jump\t// in\n    tag_269:\n        /* \"#utility.yul\":554:559   */\n      dup2\n        /* \"#utility.yul\":551:585   */\n      eq\n        /* \"#utility.yul\":541:603   */\n      tag_270\n      jumpi\n        /* \"#utility.yul\":599:600   */\n      0x00\n        /* \"#utility.yul\":596:597   */\n      dup1\n        /* \"#utility.yul\":589:601   */\n      revert\n        /* \"#utility.yul\":541:603   */\n    tag_270:\n        /* \"#utility.yul\":489:609   */\n      pop\n      jump\t// out\n        /* \"#utility.yul\":615:752   */\n    tag_225:\n        /* \"#utility.yul\":660:665   */\n      0x00\n        /* \"#utility.yul\":698:704   */\n      dup2\n        /* \"#utility.yul\":685:705   */\n      calldataload\n        /* \"#utility.yul\":676:705   */\n      swap1\n      pop\n        /* \"#utility.yul\":714:746   */\n      tag_272\n        /* \"#utility.yul\":740:745   */\n      dup2\n        /* \"#utility.yul\":714:746   */\n      tag_224\n      jump\t// in\n    tag_272:\n        /* \"#utility.yul\":615:752   */\n      swap3\n      swap2\n      pop\n      pop\n      jump\t// out\n        /* \"#utility.yul\":758:1085   */\n    tag_30:\n        /* \"#utility.yul\":816:822   */\n      0x00\n        /* \"#utility.yul\":865:867   */\n      0x20\n        /* \"#utility.yul\":853:862   */\n      dup3\n        /* \"#utility.yul\":844:851   */\n      dup5\n        /* \"#utility.yul\":840:863   */\n      sub\n        /* \"#utility.yul\":836:868   */\n      slt\n        /* \"#utility.yul\":833:952   */\n      iszero\n      tag_274\n      jumpi\n        /* \"#utility.yul\":871:950   */\n      tag_275\n      tag_221\n      jump\t// in\n    tag_275:\n        /* \"#utility.yul\":833:952   */\n    tag_274:\n        /* \"#utility.yul\":991:992   */\n      0x00\n        /* \"#utility.yul\":1016:1068   */\n      tag_276\n        /* \"#utility.yul\":1060:1067   */\n      dup5\n        /* \"#utility.yul\":1051:1057   */\n      dup3\n        /* \"#utility.yul\":1040:1049   */\n      dup6\n        /* \"#utility.yul\":1036:1058   */\n      add\n        /* \"#utility.yul\":1016:1068   */\n      tag_225\n      jump\t// in\n    tag_276:\n        /* \"#utility.yul\":1006:1068   */\n      swap2\n      pop\n        /* \"#utility.yul\":962:1078   */\n      pop\n        /* \"#utility.yul\":758:1085   */\n      swap3\n      swap2\n      pop\n      pop\n      jump\t// out\n        /* \"#utility.yul\":1091:1181   */\n    tag_226:\n        /* \"#utility.yul\":1125:1132   */\n      0x00\n        /* \"#utility.yul\":1168:1173   */\n      dup2\n        /* \"#utility.yul\":1161:1174   */\n      iszero\n        /* \"#utility.yul\":1154:1175   */\n      iszero\n        /* \"#utility.yul\":1143:1175   */\n      swap1\n      pop\n        /* \"#utility.yul\":1091:1181   */\n      swap2\n      swap1\n      pop\n      jump\t// out\n        /* \"#utility.yul\":1187:1296   */\n    tag_227:\n        /* \"#utility.yul\":1268:1289   */\n      tag_279\n        /* \"#utility.yul\":1283:1288   */\n      dup2\n        /* \"#utility.yul\":1268:1289   */\n      tag_226\n      jump\t// in\n    tag_279:\n        /* \"#utility.yul\":1263:1266   */\n      dup3\n        /* \"#utility.yul\":1256:1290   */\n      mstore\n        /* \"#utility.yul\":1187:1296   */\n      pop\n      pop\n      jump\t// out\n        /* \"#utility.yul\":1302:1512   */\n    tag_33:\n        /* \"#utility.yul\":1389:1393   */\n      0x00\n        /* \"#utility.yul\":1427:1429   */\n      0x20\n        /* \"#utility.yul\":1416:1425   */\n      dup3\n        /* \"#utility.yul\":1412:1430   */\n      add\n        /* \"#utility.yul\":1404:1430   */\n      swap1\n      pop\n        /* \"#utility.yul\":1440:1505   */\n      tag_281\n        /* \"#utility.yul\":1502:1503   */\n      0x00\n        /* \"#utility.yul\":1491:1500   */\n      dup4\n        /* \"#utility.yul\":1487:1504   */\n      add\n        /* \"#utility.yul\":1478:1484   */\n      dup5\n        /* \"#utility.yul\":1440:1505   */\n      tag_227\n      jump\t// in\n    tag_281:\n        /* \"#utility.yul\":1302:1512   */\n      swap3\n      swap2\n      pop\n      pop\n      jump\t// out\n        /* \"#utility.yul\":1518:1595   */\n    tag_228:\n        /* \"#utility.yul\":1555:1562   */\n      0x00\n        /* \"#utility.yul\":1584:1589   */\n      dup2\n        /* \"#utility.yul\":1573:1589   */\n      swap1\n      pop\n        /* \"#utility.yul\":1518:1595   */\n      swap2\n      swap1\n      pop\n      jump\t// out\n        /* \"#utility.yul\":1601:1719   */\n    tag_229:\n        /* \"#utility.yul\":1688:1712   */\n      tag_284\n        /* \"#utility.yul\":1706:1711   */\n      dup2\n        /* \"#utility.yul\":1688:1712   */\n      tag_228\n      jump\t// in\n    tag_284:\n        /* \"#utility.yul\":1683:1686   */\n      dup3\n        /* \"#utility.yul\":1676:1713   */\n      mstore\n        /* \"#utility.yul\":1601:1719   */\n      pop\n      pop\n      jump\t// out\n        /* \"#utility.yul\":1725:1947   */\n    tag_37:\n        /* \"#utility.yul\":1818:1822   */\n      0x00\n        /* \"#utility.yul\":1856:1858   */\n      0x20\n        /* \"#utility.yul\":1845:1854   */\n      dup3\n        /* \"#utility.yul\":1841:1859   */\n      add\n        /* \"#utility.yul\":1833:1859   */\n      swap1\n      pop\n        /* \"#utility.yul\":1869:1940   */\n      tag_286\n        /* \"#utility.yul\":1937:1938   */\n      0x00\n        /* \"#utility.yul\":1926:1935   */\n      dup4\n        /* \"#utility.yul\":1922:1939   */\n      add\n        /* \"#utility.yul\":1913:1919   */\n      dup5\n        /* \"#utility.yul\":1869:1940   */\n      tag_229\n      jump\t// in\n    tag_286:\n        /* \"#utility.yul\":1725:1947   */\n      swap3\n      swap2\n      pop\n      pop\n      jump\t// out\n        /* \"#utility.yul\":1953:2079   */\n    tag_230:\n        /* \"#utility.yul\":1990:1997   */\n      0x00\n        /* \"#utility.yul\":2030:2072   */\n      0xffffffffffffffffffffffffffffffffffffffff\n        /* \"#utility.yul\":2023:2028   */\n      dup3\n        /* \"#utility.yul\":2019:2073   */\n      and\n        /* \"#utility.yul\":2008:2073   */\n      swap1\n      pop\n        /* \"#utility.yul\":1953:2079   */\n      swap2\n      swap1\n      pop\n      jump\t// out\n        /* \"#utility.yul\":2085:2181   */\n    tag_231:\n        /* \"#utility.yul\":2122:2129   */\n      0x00\n        /* \"#utility.yul\":2151:2175   */\n      tag_289\n        /* \"#utility.yul\":2169:2174   */\n      dup3\n        /* \"#utility.yul\":2151:2175   */\n      tag_230\n      jump\t// in\n    tag_289:\n        /* \"#utility.yul\":2140:2175   */\n      swap1\n      pop\n        /* \"#utility.yul\":2085:2181   */\n      swap2\n      swap1\n      pop\n      jump\t// out\n        /* \"#utility.yul\":2187:2309   */\n    tag_232:\n        /* \"#utility.yul\":2260:2284   */\n      tag_291\n        /* \"#utility.yul\":2278:2283   */\n      dup2\n        /* \"#utility.yul\":2260:2284   */\n      tag_231\n      jump\t// in\n    tag_291:\n        /* \"#utility.yul\":2253:2258   */\n      dup2\n        /* \"#utility.yul\":2250:2285   */\n      eq\n        /* \"#utility.yul\":2240:2303   */\n      tag_292\n      jumpi\n        /* \"#utility.yul\":2299:2300   */\n      0x00\n        /* \"#utility.yul\":2296:2297   */\n      dup1\n        /* \"#utility.yul\":2289:2301   */\n      revert\n        /* \"#utility.yul\":2240:2303   */\n    tag_292:\n        /* \"#utility.yul\":2187:2309   */\n      pop\n      jump\t// out\n        /* \"#utility.yul\":2315:2454   */\n    tag_233:\n        /* \"#utility.yul\":2361:2366   */\n      0x00\n        /* \"#utility.yul\":2399:2405   */\n      dup2\n        /* \"#utility.yul\":2386:2406   */\n      calldataload\n        /* \"#utility.yul\":2377:2406   */\n      swap1\n      pop\n        /* \"#utility.yul\":2415:2448   */\n      tag_294\n        /* \"#utility.yul\":2442:2447   */\n      dup2\n        /* \"#utility.yul\":2415:2448   */\n      tag_232\n      jump\t// in\n    tag_294:\n        /* \"#utility.yul\":2315:2454   */\n      swap3\n      swap2\n      pop\n      pop\n      jump\t// out\n        /* \"#utility.yul\":2460:2789   */\n    tag_40:\n        /* \"#utility.yul\":2519:2525   */\n      0x00\n        /* \"#utility.yul\":2568:2570   */\n      0x20\n        /* \"#utility.yul\":2556:2565   */\n      dup3\n        /* \"#utility.yul\":2547:2554   */\n      dup5\n        /* \"#utility.yul\":2543:2566   */\n      sub\n        /* \"#utility.yul\":2539:2571   */\n      slt\n        /* \"#utility.yul\":2536:2655   */\n      iszero\n      tag_296\n      jumpi\n        /* \"#utility.yul\":2574:2653   */\n      tag_297\n      tag_221\n      jump\t// in\n    tag_297:\n        /* \"#utility.yul\":2536:2655   */\n    tag_296:\n        /* \"#utility.yul\":2694:2695   */\n      0x00\n        /* \"#utility.yul\":2719:2772   */\n      tag_298\n        /* \"#utility.yul\":2764:2771   */\n      dup5\n        /* \"#utility.yul\":2755:2761   */\n      dup3\n        /* \"#utility.yul\":2744:2753   */\n      dup6\n        /* \"#utility.yul\":2740:2762   */\n      add\n        /* \"#utility.yul\":2719:2772   */\n      tag_233\n      jump\t// in\n    tag_298:\n        /* \"#utility.yul\":2709:2772   */\n      swap2\n      pop\n        /* \"#utility.yul\":2665:2782   */\n      pop\n        /* \"#utility.yul\":2460:2789   */\n      swap3\n      swap2\n      pop\n      pop\n      jump\t// out\n        /* \"#utility.yul\":2795:2872   */\n    tag_234:\n        /* \"#utility.yul\":2832:2839   */\n      0x00\n        /* \"#utility.yul\":2861:2866   */\n      dup2\n        /* \"#utility.yul\":2850:2866   */\n      swap1\n      pop\n        /* \"#utility.yul\":2795:2872   */\n      swap2\n      swap1\n      pop\n      jump\t// out\n        /* \"#utility.yul\":2878:3000   */\n    tag_235:\n        /* \"#utility.yul\":2951:2975   */\n      tag_301\n        /* \"#utility.yul\":2969:2974   */\n      dup2\n        /* \"#utility.yul\":2951:2975   */\n      tag_234\n      jump\t// in\n    tag_301:\n        /* \"#utility.yul\":2944:2949   */\n      dup2\n        /* \"#utility.yul\":2941:2976   */\n      eq\n        /* \"#utility.yul\":2931:2994   */\n      tag_302\n      jumpi\n        /* \"#utility.yul\":2990:2991   */\n      0x00\n        /* \"#utility.yul\":2987:2988   */\n      dup1\n        /* \"#utility.yul\":2980:2992   */\n      revert\n        /* \"#utility.yul\":2931:2994   */\n    tag_302:\n        /* \"#utility.yul\":2878:3000   */\n      pop\n      jump\t// out\n        /* \"#utility.yul\":3006:3145   */\n    tag_236:\n        /* \"#utility.yul\":3052:3057   */\n      0x00\n        /* \"#utility.yul\":3090:3096   */\n      dup2\n        /* \"#utility.yul\":3077:3097   */\n      calldataload\n        /* \"#utility.yul\":3068:3097   */\n      swap1\n      pop\n        /* \"#utility.yul\":3106:3139   */\n      tag_304\n        /* \"#utility.yul\":3133:3138   */\n      dup2\n        /* \"#utility.yul\":3106:3139   */\n      tag_235\n      jump\t// in\n    tag_304:\n        /* \"#utility.yul\":3006:3145   */\n      swap3\n      swap2\n      pop\n      pop\n      jump\t// out\n        /* \"#utility.yul\":3151:3268   */\n    tag_237:\n        /* \"#utility.yul\":3260:3261   */\n      0x00\n        /* \"#utility.yul\":3257:3258   */\n      dup1\n        /* \"#utility.yul\":3250:3262   */\n      revert\n        /* \"#utility.yul\":3274:3391   */\n    tag_238:\n        /* \"#utility.yul\":3383:3384   */\n      0x00\n        /* \"#utility.yul\":3380:3381   */\n      dup1\n        /* \"#utility.yul\":3373:3385   */\n      revert\n        /* \"#utility.yul\":3397:3499   */\n    tag_239:\n        /* \"#utility.yul\":3438:3444   */\n      0x00\n        /* \"#utility.yul\":3489:3491   */\n      0x1f\n        /* \"#utility.yul\":3485:3492   */\n      not\n        /* \"#utility.yul\":3480:3482   */\n      0x1f\n        /* \"#utility.yul\":3473:3478   */\n      dup4\n        /* \"#utility.yul\":3469:3483   */\n      add\n        /* \"#utility.yul\":3465:3493   */\n      and\n        /* \"#utility.yul\":3455:3493   */\n      swap1\n      pop\n        /* \"#utility.yul\":3397:3499   */\n      swap2\n      swap1\n      pop\n      jump\t// out\n        /* \"#utility.yul\":3505:3685   */\n    tag_240:\n        /* \"#utility.yul\":3553:3630   */\n      0x4e487b7100000000000000000000000000000000000000000000000000000000\n        /* \"#utility.yul\":3550:3551   */\n      0x00\n        /* \"#utility.yul\":3543:3631   */\n      mstore\n        /* \"#utility.yul\":3650:3654   */\n      0x41\n        /* \"#utility.yul\":3647:3648   */\n      0x04\n        /* \"#utility.yul\":3640:3655   */\n      mstore\n        /* \"#utility.yul\":3674:3678   */\n      0x24\n        /* \"#utility.yul\":3671:3672   */\n      0x00\n        /* \"#utility.yul\":3664:3679   */\n      revert\n        /* \"#utility.yul\":3691:3972   */\n    tag_241:\n        /* \"#utility.yul\":3774:3801   */\n      tag_310\n        /* \"#utility.yul\":3796:3800   */\n      dup3\n        /* \"#utility.yul\":3774:3801   */\n      tag_239\n      jump\t// in\n    tag_310:\n        /* \"#utility.yul\":3766:3772   */\n      dup2\n        /* \"#utility.yul\":3762:3802   */\n      add\n        /* \"#utility.yul\":3904:3910   */\n      dup2\n        /* \"#utility.yul\":3892:3902   */\n      dup2\n        /* \"#utility.yul\":3889:3911   */\n      lt\n        /* \"#utility.yul\":3868:3886   */\n      0xffffffffffffffff\n        /* \"#utility.yul\":3856:3866   */\n      dup3\n        /* \"#utility.yul\":3853:3887   */\n      gt\n        /* \"#utility.yul\":3850:3912   */\n      or\n        /* \"#utility.yul\":3847:3935   */\n      iszero\n      tag_311\n      jumpi\n        /* \"#utility.yul\":3915:3933   */\n      tag_312\n      tag_240\n      jump\t// in\n    tag_312:\n        /* \"#utility.yul\":3847:3935   */\n    tag_311:\n        /* \"#utility.yul\":3955:3965   */\n      dup1\n        /* \"#utility.yul\":3951:3953   */\n      0x40\n        /* \"#utility.yul\":3944:3966   */\n      mstore\n        /* \"#utility.yul\":3734:3972   */\n      pop\n        /* \"#utility.yul\":3691:3972   */\n      pop\n      pop\n      jump\t// out\n        /* \"#utility.yul\":3978:4107   */\n    tag_242:\n        /* \"#utility.yul\":4012:4018   */\n      0x00\n        /* \"#utility.yul\":4039:4059   */\n      tag_314\n      tag_220\n      jump\t// in\n    tag_314:\n        /* \"#utility.yul\":4029:4059   */\n      swap1\n      pop\n        /* \"#utility.yul\":4068:4101   */\n      tag_315\n        /* \"#utility.yul\":4096:4100   */\n      dup3\n        /* \"#utility.yul\":4088:4094   */\n      dup3\n        /* \"#utility.yul\":4068:4101   */\n      tag_241\n      jump\t// in\n    tag_315:\n        /* \"#utility.yul\":3978:4107   */\n      swap2\n      swap1\n      pop\n      jump\t// out\n        /* \"#utility.yul\":4113:4421   */\n    tag_243:\n        /* \"#utility.yul\":4175:4179   */\n      0x00\n        /* \"#utility.yul\":4265:4283   */\n      0xffffffffffffffff\n        /* \"#utility.yul\":4257:4263   */\n      dup3\n        /* \"#utility.yul\":4254:4284   */\n      gt\n        /* \"#utility.yul\":4251:4307   */\n      iszero\n      tag_317\n      jumpi\n        /* \"#utility.yul\":4287:4305   */\n      tag_318\n      tag_240\n      jump\t// in\n    tag_318:\n        /* \"#utility.yul\":4251:4307   */\n    tag_317:\n        /* \"#utility.yul\":4325:4354   */\n      tag_319\n        /* \"#utility.yul\":4347:4353   */\n      dup3\n        /* \"#utility.yul\":4325:4354   */\n      tag_239\n      jump\t// in\n    tag_319:\n        /* \"#utility.yul\":4317:4354   */\n      swap1\n      pop\n        /* \"#utility.yul\":4409:4413   */\n      0x20\n        /* \"#utility.yul\":4403:4407   */\n      dup2\n        /* \"#utility.yul\":4399:4414   */\n      add\n        /* \"#utility.yul\":4391:4414   */\n      swap1\n      pop\n        /* \"#utility.yul\":4113:4421   */\n      swap2\n      swap1\n      pop\n      jump\t// out\n        /* \"#utility.yul\":4427:4575   */\n    tag_244:\n        /* \"#utility.yul\":4525:4531   */\n      dup3\n        /* \"#utility.yul\":4520:4523   */\n      dup2\n        /* \"#utility.yul\":4515:4518   */\n      dup4\n        /* \"#utility.yul\":4502:4532   */\n      calldatacopy\n        /* \"#utility.yul\":4566:4567   */\n      0x00\n        /* \"#utility.yul\":4557:4563   */\n      dup4\n        /* \"#utility.yul\":4552:4555   */\n      dup4\n        /* \"#utility.yul\":4548:4564   */\n      add\n        /* \"#utility.yul\":4541:4568   */\n      mstore\n        /* \"#utility.yul\":4427:4575   */\n      pop\n      pop\n      pop\n      jump\t// out\n        /* \"#utility.yul\":4581:5006   */\n    tag_245:\n        /* \"#utility.yul\":4659:4664   */\n      0x00\n        /* \"#utility.yul\":4684:4750   */\n      tag_322\n        /* \"#utility.yul\":4700:4749   */\n      tag_323\n        /* \"#utility.yul\":4742:4748   */\n      dup5\n        /* \"#utility.yul\":4700:4749   */\n      tag_243\n      jump\t// in\n    tag_323:\n        /* \"#utility.yul\":4684:4750   */\n      tag_242\n      jump\t// in\n    tag_322:\n        /* \"#utility.yul\":4675:4750   */\n      swap1\n      pop\n        /* \"#utility.yul\":4773:4779   */\n      dup3\n        /* \"#utility.yul\":4766:4771   */\n      dup2\n        /* \"#utility.yul\":4759:4780   */\n      mstore\n        /* \"#utility.yul\":4811:4815   */\n      0x20\n        /* \"#utility.yul\":4804:4809   */\n      dup2\n        /* \"#utility.yul\":4800:4816   */\n      add\n        /* \"#utility.yul\":4849:4852   */\n      dup5\n        /* \"#utility.yul\":4840:4846   */\n      dup5\n        /* \"#utility.yul\":4835:4838   */\n      dup5\n        /* \"#utility.yul\":4831:4847   */\n      add\n        /* \"#utility.yul\":4828:4853   */\n      gt\n        /* \"#utility.yul\":4825:4937   */\n      iszero\n      tag_324\n      jumpi\n        /* \"#utility.yul\":4856:4935   */\n      tag_325\n      tag_238\n      jump\t// in\n    tag_325:\n        /* \"#utility.yul\":4825:4937   */\n    tag_324:\n        /* \"#utility.yul\":4946:5000   */\n      tag_326\n        /* \"#utility.yul\":4993:4999   */\n      dup5\n        /* \"#utility.yul\":4988:4991   */\n      dup3\n        /* \"#utility.yul\":4983:4986   */\n      dup6\n        /* \"#utility.yul\":4946:5000   */\n      tag_244\n      jump\t// in\n    tag_326:\n        /* \"#utility.yul\":4665:5006   */\n      pop\n        /* \"#utility.yul\":4581:5006   */\n      swap4\n      swap3\n      pop\n      pop\n      pop\n      jump\t// out\n        /* \"#utility.yul\":5026:5366   */\n    tag_246:\n        /* \"#utility.yul\":5082:5087   */\n      0x00\n        /* \"#utility.yul\":5131:5134   */\n      dup3\n        /* \"#utility.yul\":5124:5128   */\n      0x1f\n        /* \"#utility.yul\":5116:5122   */\n      dup4\n        /* \"#utility.yul\":5112:5129   */\n      add\n        /* \"#utility.yul\":5108:5135   */\n      slt\n        /* \"#utility.yul\":5098:5220   */\n      tag_328\n      jumpi\n        /* \"#utility.yul\":5139:5218   */\n      tag_329\n      tag_237\n      jump\t// in\n    tag_329:\n        /* \"#utility.yul\":5098:5220   */\n    tag_328:\n        /* \"#utility.yul\":5256:5262   */\n      dup2\n        /* \"#utility.yul\":5243:5263   */\n      calldataload\n        /* \"#utility.yul\":5281:5360   */\n      tag_330\n        /* \"#utility.yul\":5356:5359   */\n      dup5\n        /* \"#utility.yul\":5348:5354   */\n      dup3\n        /* \"#utility.yul\":5341:5345   */\n      0x20\n        /* \"#utility.yul\":5333:5339   */\n      dup7\n        /* \"#utility.yul\":5329:5346   */\n      add\n        /* \"#utility.yul\":5281:5360   */\n      tag_245\n      jump\t// in\n    tag_330:\n        /* \"#utility.yul\":5272:5360   */\n      swap2\n      pop\n        /* \"#utility.yul\":5088:5366   */\n      pop\n        /* \"#utility.yul\":5026:5366   */\n      swap3\n      swap2\n      pop\n      pop\n      jump\t// out\n        /* \"#utility.yul\":5372:6026   */\n    tag_44:\n        /* \"#utility.yul\":5450:5456   */\n      0x00\n        /* \"#utility.yul\":5458:5464   */\n      dup1\n        /* \"#utility.yul\":5507:5509   */\n      0x40\n        /* \"#utility.yul\":5495:5504   */\n      dup4\n        /* \"#utility.yul\":5486:5493   */\n      dup6\n        /* \"#utility.yul\":5482:5505   */\n      sub\n        /* \"#utility.yul\":5478:5510   */\n      slt\n        /* \"#utility.yul\":5475:5594   */\n      iszero\n      tag_332\n      jumpi\n        /* \"#utility.yul\":5513:5592   */\n      tag_333\n      tag_221\n      jump\t// in\n    tag_333:\n        /* \"#utility.yul\":5475:5594   */\n    tag_332:\n        /* \"#utility.yul\":5633:5634   */\n      0x00\n        /* \"#utility.yul\":5658:5711   */\n      tag_334\n        /* \"#utility.yul\":5703:5710   */\n      dup6\n        /* \"#utility.yul\":5694:5700   */\n      dup3\n        /* \"#utility.yul\":5683:5692   */\n      dup7\n        /* \"#utility.yul\":5679:5701   */\n      add\n        /* \"#utility.yul\":5658:5711   */\n      tag_236\n      jump\t// in\n    tag_334:\n        /* \"#utility.yul\":5648:5711   */\n      swap3\n      pop\n        /* \"#utility.yul\":5604:5721   */\n      pop\n        /* \"#utility.yul\":5788:5790   */\n      0x20\n        /* \"#utility.yul\":5777:5786   */\n      dup4\n        /* \"#utility.yul\":5773:5791   */\n      add\n        /* \"#utility.yul\":5760:5792   */\n      calldataload\n        /* \"#utility.yul\":5819:5837   */\n      0xffffffffffffffff\n        /* \"#utility.yul\":5811:5817   */\n      dup2\n        /* \"#utility.yul\":5808:5838   */\n      gt\n        /* \"#utility.yul\":5805:5922   */\n      iszero\n      tag_335\n      jumpi\n        /* \"#utility.yul\":5841:5920   */\n      tag_336\n      tag_222\n      jump\t// in\n    tag_336:\n        /* \"#utility.yul\":5805:5922   */\n    tag_335:\n        /* \"#utility.yul\":5946:6009   */\n      tag_337\n        /* \"#utility.yul\":6001:6008   */\n      dup6\n        /* \"#utility.yul\":5992:5998   */\n      dup3\n        /* \"#utility.yul\":5981:5990   */\n      dup7\n        /* \"#utility.yul\":5977:5999   */\n      add\n        /* \"#utility.yul\":5946:6009   */\n      tag_246\n      jump\t// in\n    tag_337:\n        /* \"#utility.yul\":5936:6009   */\n      swap2\n      pop\n        /* \"#utility.yul\":5731:6019   */\n      pop\n        /* \"#utility.yul\":5372:6026   */\n      swap3\n      pop\n      swap3\n      swap1\n      pop\n      jump\t// out\n        /* \"#utility.yul\":6032:6154   */\n    tag_247:\n        /* \"#utility.yul\":6105:6129   */\n      tag_339\n        /* \"#utility.yul\":6123:6128   */\n      dup2\n        /* \"#utility.yul\":6105:6129   */\n      tag_228\n      jump\t// in\n    tag_339:\n        /* \"#utility.yul\":6098:6103   */\n      dup2\n        /* \"#utility.yul\":6095:6130   */\n      eq\n        /* \"#utility.yul\":6085:6148   */\n      tag_340\n      jumpi\n        /* \"#utility.yul\":6144:6145   */\n      0x00\n        /* \"#utility.yul\":6141:6142   */\n      dup1\n        /* \"#utility.yul\":6134:6146   */\n      revert\n        /* \"#utility.yul\":6085:6148   */\n    tag_340:\n        /* \"#utility.yul\":6032:6154   */\n      pop\n      jump\t// out\n        /* \"#utility.yul\":6160:6299   */\n    tag_248:\n        /* \"#utility.yul\":6206:6211   */\n      0x00\n        /* \"#utility.yul\":6244:6250   */\n      dup2\n        /* \"#utility.yul\":6231:6251   */\n      calldataload\n        /* \"#utility.yul\":6222:6251   */\n      swap1\n      pop\n        /* \"#utility.yul\":6260:6293   */\n      tag_342\n        /* \"#utility.yul\":6287:6292   */\n      dup2\n        /* \"#utility.yul\":6260:6293   */\n      tag_247\n      jump\t// in\n    tag_342:\n        /* \"#utility.yul\":6160:6299   */\n      swap3\n      swap2\n      pop\n      pop\n      jump\t// out\n        /* \"#utility.yul\":6305:6634   */\n    tag_48:\n        /* \"#utility.yul\":6364:6370   */\n      0x00\n        /* \"#utility.yul\":6413:6415   */\n      0x20\n        /* \"#utility.yul\":6401:6410   */\n      dup3\n        /* \"#utility.yul\":6392:6399   */\n      dup5\n        /* \"#utility.yul\":6388:6411   */\n      sub\n        /* \"#utility.yul\":6384:6416   */\n      slt\n        /* \"#utility.yul\":6381:6500   */\n      iszero\n      tag_344\n      jumpi\n        /* \"#utility.yul\":6419:6498   */\n      tag_345\n      tag_221\n      jump\t// in\n    tag_345:\n        /* \"#utility.yul\":6381:6500   */\n    tag_344:\n        /* \"#utility.yul\":6539:6540   */\n      0x00\n        /* \"#utility.yul\":6564:6617   */\n      tag_346\n        /* \"#utility.yul\":6609:6616   */\n      dup5\n        /* \"#utility.yul\":6600:6606   */\n      dup3\n        /* \"#utility.yul\":6589:6598   */\n      dup6\n        /* \"#utility.yul\":6585:6607   */\n      add\n        /* \"#utility.yul\":6564:6617   */\n      tag_248\n      jump\t// in\n    tag_346:\n        /* \"#utility.yul\":6554:6617   */\n      swap2\n      pop\n        /* \"#utility.yul\":6510:6627   */\n      pop\n        /* \"#utility.yul\":6305:6634   */\n      swap3\n      swap2\n      pop\n      pop\n      jump\t// out\n        /* \"#utility.yul\":6640:7114   */\n    tag_53:\n        /* \"#utility.yul\":6708:6714   */\n      0x00\n        /* \"#utility.yul\":6716:6722   */\n      dup1\n        /* \"#utility.yul\":6765:6767   */\n      0x40\n        /* \"#utility.yul\":6753:6762   */\n      dup4\n        /* \"#utility.yul\":6744:6751   */\n      dup6\n        /* \"#utility.yul\":6740:6763   */\n      sub\n        /* \"#utility.yul\":6736:6768   */\n      slt\n        /* \"#utility.yul\":6733:6852   */\n      iszero\n      tag_348\n      jumpi\n        /* \"#utility.yul\":6771:6850   */\n      tag_349\n      tag_221\n      jump\t// in\n    tag_349:\n        /* \"#utility.yul\":6733:6852   */\n    tag_348:\n        /* \"#utility.yul\":6891:6892   */\n      0x00\n        /* \"#utility.yul\":6916:6969   */\n      tag_350\n        /* \"#utility.yul\":6961:6968   */\n      dup6\n        /* \"#utility.yul\":6952:6958   */\n      dup3\n        /* \"#utility.yul\":6941:6950   */\n      dup7\n        /* \"#utility.yul\":6937:6959   */\n      add\n        /* \"#utility.yul\":6916:6969   */\n      tag_248\n      jump\t// in\n    tag_350:\n        /* \"#utility.yul\":6906:6969   */\n      swap3\n      pop\n        /* \"#utility.yul\":6862:6979   */\n      pop\n        /* \"#utility.yul\":7018:7020   */\n      0x20\n        /* \"#utility.yul\":7044:7097   */\n      tag_351\n        /* \"#utility.yul\":7089:7096   */\n      dup6\n        /* \"#utility.yul\":7080:7086   */\n      dup3\n        /* \"#utility.yul\":7069:7078   */\n      dup7\n        /* \"#utility.yul\":7065:7087   */\n      add\n        /* \"#utility.yul\":7044:7097   */\n      tag_233\n      jump\t// in\n    tag_351:\n        /* \"#utility.yul\":7034:7097   */\n      swap2\n      pop\n        /* \"#utility.yul\":6989:7107   */\n      pop\n        /* \"#utility.yul\":6640:7114   */\n      swap3\n      pop\n      swap3\n      swap1\n      pop\n      jump\t// out\n        /* \"#utility.yul\":7120:7238   */\n    tag_249:\n        /* \"#utility.yul\":7207:7231   */\n      tag_353\n        /* \"#utility.yul\":7225:7230   */\n      dup2\n        /* \"#utility.yul\":7207:7231   */\n      tag_234\n      jump\t// in\n    tag_353:\n        /* \"#utility.yul\":7202:7205   */\n      dup3\n        /* \"#utility.yul\":7195:7232   */\n      mstore\n        /* \"#utility.yul\":7120:7238   */\n      pop\n      pop\n      jump\t// out\n        /* \"#utility.yul\":7244:7466   */\n    tag_61:\n        /* \"#utility.yul\":7337:7341   */\n      0x00\n        /* \"#utility.yul\":7375:7377   */\n      0x20\n        /* \"#utility.yul\":7364:7373   */\n      dup3\n        /* \"#utility.yul\":7360:7378   */\n      add\n        /* \"#utility.yul\":7352:7378   */\n      swap1\n      pop\n        /* \"#utility.yul\":7388:7459   */\n      tag_355\n        /* \"#utility.yul\":7456:7457   */\n      0x00\n        /* \"#utility.yul\":7445:7454   */\n      dup4\n        /* \"#utility.yul\":7441:7458   */\n      add\n        /* \"#utility.yul\":7432:7438   */\n      dup5\n        /* \"#utility.yul\":7388:7459   */\n      tag_249\n      jump\t// in\n    tag_355:\n        /* \"#utility.yul\":7244:7466   */\n      swap3\n      swap2\n      pop\n      pop\n      jump\t// out\n        /* \"#utility.yul\":7472:7588   */\n    tag_250:\n        /* \"#utility.yul\":7542:7563   */\n      tag_357\n        /* \"#utility.yul\":7557:7562   */\n      dup2\n        /* \"#utility.yul\":7542:7563   */\n      tag_226\n      jump\t// in\n    tag_357:\n        /* \"#utility.yul\":7535:7540   */\n      dup2\n        /* \"#utility.yul\":7532:7564   */\n      eq\n        /* \"#utility.yul\":7522:7582   */\n      tag_358\n      jumpi\n        /* \"#utility.yul\":7578:7579   */\n      0x00\n        /* \"#utility.yul\":7575:7576   */\n      dup1\n        /* \"#utility.yul\":7568:7580   */\n      revert\n        /* \"#utility.yul\":7522:7582   */\n    tag_358:\n        /* \"#utility.yul\":7472:7588   */\n      pop\n      jump\t// out\n        /* \"#utility.yul\":7594:7727   */\n    tag_251:\n        /* \"#utility.yul\":7637:7642   */\n      0x00\n        /* \"#utility.yul\":7675:7681   */\n      dup2\n        /* \"#utility.yul\":7662:7682   */\n      calldataload\n        /* \"#utility.yul\":7653:7682   */\n      swap1\n      pop\n        /* \"#utility.yul\":7691:7721   */\n      tag_360\n        /* \"#utility.yul\":7715:7720   */\n      dup2\n        /* \"#utility.yul\":7691:7721   */\n      tag_250\n      jump\t// in\n    tag_360:\n        /* \"#utility.yul\":7594:7727   */\n      swap3\n      swap2\n      pop\n      pop\n      jump\t// out\n        /* \"#utility.yul\":7733:9830   */\n    tag_64:\n        /* \"#utility.yul\":7893:7899   */\n      0x00\n        /* \"#utility.yul\":7901:7907   */\n      dup1\n        /* \"#utility.yul\":7909:7915   */\n      0x00\n        /* \"#utility.yul\":7917:7923   */\n      dup1\n        /* \"#utility.yul\":7925:7931   */\n      0x00\n        /* \"#utility.yul\":7933:7939   */\n      dup1\n        /* \"#utility.yul\":7941:7947   */\n      0x00\n        /* \"#utility.yul\":7990:7993   */\n      0xe0\n        /* \"#utility.yul\":7978:7987   */\n      dup9\n        /* \"#utility.yul\":7969:7976   */\n      dup11\n        /* \"#utility.yul\":7965:7988   */\n      sub\n        /* \"#utility.yul\":7961:7994   */\n      slt\n        /* \"#utility.yul\":7958:8078   */\n      iszero\n      tag_362\n      jumpi\n        /* \"#utility.yul\":7997:8076   */\n      tag_363\n      tag_221\n      jump\t// in\n    tag_363:\n        /* \"#utility.yul\":7958:8078   */\n    tag_362:\n        /* \"#utility.yul\":8145:8146   */\n      0x00\n        /* \"#utility.yul\":8134:8143   */\n      dup9\n        /* \"#utility.yul\":8130:8147   */\n      add\n        /* \"#utility.yul\":8117:8148   */\n      calldataload\n        /* \"#utility.yul\":8175:8193   */\n      0xffffffffffffffff\n        /* \"#utility.yul\":8167:8173   */\n      dup2\n        /* \"#utility.yul\":8164:8194   */\n      gt\n        /* \"#utility.yul\":8161:8278   */\n      iszero\n      tag_364\n      jumpi\n        /* \"#utility.yul\":8197:8276   */\n      tag_365\n      tag_222\n      jump\t// in\n    tag_365:\n        /* \"#utility.yul\":8161:8278   */\n    tag_364:\n        /* \"#utility.yul\":8302:8365   */\n      tag_366\n        /* \"#utility.yul\":8357:8364   */\n      dup11\n        /* \"#utility.yul\":8348:8354   */\n      dup3\n        /* \"#utility.yul\":8337:8346   */\n      dup12\n        /* \"#utility.yul\":8333:8355   */\n      add\n        /* \"#utility.yul\":8302:8365   */\n      tag_246\n      jump\t// in\n    tag_366:\n        /* \"#utility.yul\":8292:8365   */\n      swap8\n      pop\n        /* \"#utility.yul\":8088:8375   */\n      pop\n        /* \"#utility.yul\":8442:8444   */\n      0x20\n        /* \"#utility.yul\":8431:8440   */\n      dup9\n        /* \"#utility.yul\":8427:8445   */\n      add\n        /* \"#utility.yul\":8414:8446   */\n      calldataload\n        /* \"#utility.yul\":8473:8491   */\n      0xffffffffffffffff\n        /* \"#utility.yul\":8465:8471   */\n      dup2\n        /* \"#utility.yul\":8462:8492   */\n      gt\n        /* \"#utility.yul\":8459:8576   */\n      iszero\n      tag_367\n      jumpi\n        /* \"#utility.yul\":8495:8574   */\n      tag_368\n      tag_222\n      jump\t// in\n    tag_368:\n        /* \"#utility.yul\":8459:8576   */\n    tag_367:\n        /* \"#utility.yul\":8600:8663   */\n      tag_369\n        /* \"#utility.yul\":8655:8662   */\n      dup11\n        /* \"#utility.yul\":8646:8652   */\n      dup3\n        /* \"#utility.yul\":8635:8644   */\n      dup12\n        /* \"#utility.yul\":8631:8653   */\n      add\n        /* \"#utility.yul\":8600:8663   */\n      tag_246\n      jump\t// in\n    tag_369:\n        /* \"#utility.yul\":8590:8663   */\n      swap7\n      pop\n        /* \"#utility.yul\":8385:8673   */\n      pop\n        /* \"#utility.yul\":8740:8742   */\n      0x40\n        /* \"#utility.yul\":8729:8738   */\n      dup9\n        /* \"#utility.yul\":8725:8743   */\n      add\n        /* \"#utility.yul\":8712:8744   */\n      calldataload\n        /* \"#utility.yul\":8771:8789   */\n      0xffffffffffffffff\n        /* \"#utility.yul\":8763:8769   */\n      dup2\n        /* \"#utility.yul\":8760:8790   */\n      gt\n        /* \"#utility.yul\":8757:8874   */\n      iszero\n      tag_370\n      jumpi\n        /* \"#utility.yul\":8793:8872   */\n      tag_371\n      tag_222\n      jump\t// in\n    tag_371:\n        /* \"#utility.yul\":8757:8874   */\n    tag_370:\n        /* \"#utility.yul\":8898:8961   */\n      tag_372\n        /* \"#utility.yul\":8953:8960   */\n      dup11\n        /* \"#utility.yul\":8944:8950   */\n      dup3\n        /* \"#utility.yul\":8933:8942   */\n      dup12\n        /* \"#utility.yul\":8929:8951   */\n      add\n        /* \"#utility.yul\":8898:8961   */\n      tag_246\n      jump\t// in\n    tag_372:\n        /* \"#utility.yul\":8888:8961   */\n      swap6\n      pop\n        /* \"#utility.yul\":8683:8971   */\n      pop\n        /* \"#utility.yul\":9010:9012   */\n      0x60\n        /* \"#utility.yul\":9036:9089   */\n      tag_373\n        /* \"#utility.yul\":9081:9088   */\n      dup11\n        /* \"#utility.yul\":9072:9078   */\n      dup3\n        /* \"#utility.yul\":9061:9070   */\n      dup12\n        /* \"#utility.yul\":9057:9079   */\n      add\n        /* \"#utility.yul\":9036:9089   */\n      tag_236\n      jump\t// in\n    tag_373:\n        /* \"#utility.yul\":9026:9089   */\n      swap5\n      pop\n        /* \"#utility.yul\":8981:9099   */\n      pop\n        /* \"#utility.yul\":9166:9169   */\n      0x80\n        /* \"#utility.yul\":9155:9164   */\n      dup9\n        /* \"#utility.yul\":9151:9170   */\n      add\n        /* \"#utility.yul\":9138:9171   */\n      calldataload\n        /* \"#utility.yul\":9198:9216   */\n      0xffffffffffffffff\n        /* \"#utility.yul\":9190:9196   */\n      dup2\n        /* \"#utility.yul\":9187:9217   */\n      gt\n        /* \"#utility.yul\":9184:9301   */\n      iszero\n      tag_374\n      jumpi\n        /* \"#utility.yul\":9220:9299   */\n      tag_375\n      tag_222\n      jump\t// in\n    tag_375:\n        /* \"#utility.yul\":9184:9301   */\n    tag_374:\n        /* \"#utility.yul\":9325:9388   */\n      tag_376\n        /* \"#utility.yul\":9380:9387   */\n      dup11\n        /* \"#utility.yul\":9371:9377   */\n      dup3\n        /* \"#utility.yul\":9360:9369   */\n      dup12\n        /* \"#utility.yul\":9356:9378   */\n      add\n        /* \"#utility.yul\":9325:9388   */\n      tag_246\n      jump\t// in\n    tag_376:\n        /* \"#utility.yul\":9315:9388   */\n      swap4\n      pop\n        /* \"#utility.yul\":9109:9398   */\n      pop\n        /* \"#utility.yul\":9465:9468   */\n      0xa0\n        /* \"#utility.yul\":9454:9463   */\n      dup9\n        /* \"#utility.yul\":9450:9469   */\n      add\n        /* \"#utility.yul\":9437:9470   */\n      calldataload\n        /* \"#utility.yul\":9497:9515   */\n      0xffffffffffffffff\n        /* \"#utility.yul\":9489:9495   */\n      dup2\n        /* \"#utility.yul\":9486:9516   */\n      gt\n        /* \"#utility.yul\":9483:9600   */\n      iszero\n      tag_377\n      jumpi\n        /* \"#utility.yul\":9519:9598   */\n      tag_378\n      tag_222\n      jump\t// in\n    tag_378:\n        /* \"#utility.yul\":9483:9600   */\n    tag_377:\n        /* \"#utility.yul\":9624:9687   */\n      tag_379\n        /* \"#utility.yul\":9679:9686   */\n      dup11\n        /* \"#utility.yul\":9670:9676   */\n      dup3\n        /* \"#utility.yul\":9659:9668   */\n      dup12\n        /* \"#utility.yul\":9655:9677   */\n      add\n        /* \"#utility.yul\":9624:9687   */\n      tag_246\n      jump\t// in\n    tag_379:\n        /* \"#utility.yul\":9614:9687   */\n      swap3\n      pop\n        /* \"#utility.yul\":9408:9697   */\n      pop\n        /* \"#utility.yul\":9736:9739   */\n      0xc0\n        /* \"#utility.yul\":9763:9813   */\n      tag_380\n        /* \"#utility.yul\":9805:9812   */\n      dup11\n        /* \"#utility.yul\":9796:9802   */\n      dup3\n        /* \"#utility.yul\":9785:9794   */\n      dup12\n        /* \"#utility.yul\":9781:9803   */\n      add\n        /* \"#utility.yul\":9763:9813   */\n      tag_251\n      jump\t// in\n    tag_380:\n        /* \"#utility.yul\":9753:9813   */\n      swap2\n      pop\n        /* \"#utility.yul\":9707:9823   */\n      pop\n        /* \"#utility.yul\":7733:9830   */\n      swap3\n      swap6\n      swap9\n      swap2\n      swap5\n      swap8\n      pop\n      swap3\n      swap6\n      pop\n      jump\t// out\n        /* \"#utility.yul\":9836:10165   */\n    tag_76:\n        /* \"#utility.yul\":9895:9901   */\n      0x00\n        /* \"#utility.yul\":9944:9946   */\n      0x20\n        /* \"#utility.yul\":9932:9941   */\n      dup3\n        /* \"#utility.yul\":9923:9930   */\n      dup5\n        /* \"#utility.yul\":9919:9942   */\n      sub\n        /* \"#utility.yul\":9915:9947   */\n      slt\n        /* \"#utility.yul\":9912:10031   */\n      iszero\n      tag_382\n      jumpi\n        /* \"#utility.yul\":9950:10029   */\n      tag_383\n      tag_221\n      jump\t// in\n    tag_383:\n        /* \"#utility.yul\":9912:10031   */\n    tag_382:\n        /* \"#utility.yul\":10070:10071   */\n      0x00\n        /* \"#utility.yul\":10095:10148   */\n      tag_384\n        /* \"#utility.yul\":10140:10147   */\n      dup5\n        /* \"#utility.yul\":10131:10137   */\n      dup3\n        /* \"#utility.yul\":10120:10129   */\n      dup6\n        /* \"#utility.yul\":10116:10138   */\n      add\n        /* \"#utility.yul\":10095:10148   */\n      tag_236\n      jump\t// in\n    tag_384:\n        /* \"#utility.yul\":10085:10148   */\n      swap2\n      pop\n        /* \"#utility.yul\":10041:10158   */\n      pop\n        /* \"#utility.yul\":9836:10165   */\n      swap3\n      swap2\n      pop\n      pop\n      jump\t// out\n        /* \"#utility.yul\":10171:10270   */\n    tag_252:\n        /* \"#utility.yul\":10223:10229   */\n      0x00\n        /* \"#utility.yul\":10257:10262   */\n      dup2\n        /* \"#utility.yul\":10251:10263   */\n      mload\n        /* \"#utility.yul\":10241:10263   */\n      swap1\n      pop\n        /* \"#utility.yul\":10171:10270   */\n      swap2\n      swap1\n      pop\n      jump\t// out\n        /* \"#utility.yul\":10276:10445   */\n    tag_253:\n        /* \"#utility.yul\":10360:10371   */\n      0x00\n        /* \"#utility.yul\":10394:10400   */\n      dup3\n        /* \"#utility.yul\":10389:10392   */\n      dup3\n        /* \"#utility.yul\":10382:10401   */\n      mstore\n        /* \"#utility.yul\":10434:10438   */\n      0x20\n        /* \"#utility.yul\":10429:10432   */\n      dup3\n        /* \"#utility.yul\":10425:10439   */\n      add\n        /* \"#utility.yul\":10410:10439   */\n      swap1\n      pop\n        /* \"#utility.yul\":10276:10445   */\n      swap3\n      swap2\n      pop\n      pop\n      jump\t// out\n        /* \"#utility.yul\":10451:10590   */\n    tag_254:\n        /* \"#utility.yul\":10540:10546   */\n      dup3\n        /* \"#utility.yul\":10535:10538   */\n      dup2\n        /* \"#utility.yul\":10530:10533   */\n      dup4\n        /* \"#utility.yul\":10524:10547   */\n      mcopy\n        /* \"#utility.yul\":10581:10582   */\n      0x00\n        /* \"#utility.yul\":10572:10578   */\n      dup4\n        /* \"#utility.yul\":10567:10570   */\n      dup4\n        /* \"#utility.yul\":10563:10579   */\n      add\n        /* \"#utility.yul\":10556:10583   */\n      mstore\n        /* \"#utility.yul\":10451:10590   */\n      pop\n      pop\n      pop\n      jump\t// out\n        /* \"#utility.yul\":10596:10973   */\n    tag_255:\n        /* \"#utility.yul\":10684:10687   */\n      0x00\n        /* \"#utility.yul\":10712:10751   */\n      tag_389\n        /* \"#utility.yul\":10745:10750   */\n      dup3\n        /* \"#utility.yul\":10712:10751   */\n      tag_252\n      jump\t// in\n    tag_389:\n        /* \"#utility.yul\":10767:10838   */\n      tag_390\n        /* \"#utility.yul\":10831:10837   */\n      dup2\n        /* \"#utility.yul\":10826:10829   */\n      dup6\n        /* \"#utility.yul\":10767:10838   */\n      tag_253\n      jump\t// in\n    tag_390:\n        /* \"#utility.yul\":10760:10838   */\n      swap4\n      pop\n        /* \"#utility.yul\":10847:10912   */\n      tag_391\n        /* \"#utility.yul\":10905:10911   */\n      dup2\n        /* \"#utility.yul\":10900:10903   */\n      dup6\n        /* \"#utility.yul\":10893:10897   */\n      0x20\n        /* \"#utility.yul\":10886:10891   */\n      dup7\n        /* \"#utility.yul\":10882:10898   */\n      add\n        /* \"#utility.yul\":10847:10912   */\n      tag_254\n      jump\t// in\n    tag_391:\n        /* \"#utility.yul\":10937:10966   */\n      tag_392\n        /* \"#utility.yul\":10959:10965   */\n      dup2\n        /* \"#utility.yul\":10937:10966   */\n      tag_239\n      jump\t// in\n    tag_392:\n        /* \"#utility.yul\":10932:10935   */\n      dup5\n        /* \"#utility.yul\":10928:10967   */\n      add\n        /* \"#utility.yul\":10921:10967   */\n      swap2\n      pop\n        /* \"#utility.yul\":10688:10973   */\n      pop\n        /* \"#utility.yul\":10596:10973   */\n      swap3\n      swap2\n      pop\n      pop\n      jump\t// out\n        /* \"#utility.yul\":10979:11138   */\n    tag_256:\n        /* \"#utility.yul\":11053:11064   */\n      0x00\n        /* \"#utility.yul\":11087:11093   */\n      dup3\n        /* \"#utility.yul\":11082:11085   */\n      dup3\n        /* \"#utility.yul\":11075:11094   */\n      mstore\n        /* \"#utility.yul\":11127:11131   */\n      0x20\n        /* \"#utility.yul\":11122:11125   */\n      dup3\n        /* \"#utility.yul\":11118:11132   */\n      add\n        /* \"#utility.yul\":11103:11132   */\n      swap1\n      pop\n        /* \"#utility.yul\":10979:11138   */\n      swap3\n      swap2\n      pop\n      pop\n      jump\t// out\n        /* \"#utility.yul\":11144:11501   */\n    tag_257:\n        /* \"#utility.yul\":11222:11225   */\n      0x00\n        /* \"#utility.yul\":11250:11289   */\n      tag_395\n        /* \"#utility.yul\":11283:11288   */\n      dup3\n        /* \"#utility.yul\":11250:11289   */\n      tag_252\n      jump\t// in\n    tag_395:\n        /* \"#utility.yul\":11305:11366   */\n      tag_396\n        /* \"#utility.yul\":11359:11365   */\n      dup2\n        /* \"#utility.yul\":11354:11357   */\n      dup6\n        /* \"#utility.yul\":11305:11366   */\n      tag_256\n      jump\t// in\n    tag_396:\n        /* \"#utility.yul\":11298:11366   */\n      swap4\n      pop\n        /* \"#utility.yul\":11375:11440   */\n      tag_397\n        /* \"#utility.yul\":11433:11439   */\n      dup2\n        /* \"#utility.yul\":11428:11431   */\n      dup6\n        /* \"#utility.yul\":11421:11425   */\n      0x20\n        /* \"#utility.yul\":11414:11419   */\n      dup7\n        /* \"#utility.yul\":11410:11426   */\n      add\n        /* \"#utility.yul\":11375:11440   */\n      tag_254\n      jump\t// in\n    tag_397:\n        /* \"#utility.yul\":11465:11494   */\n      tag_398\n        /* \"#utility.yul\":11487:11493   */\n      dup2\n        /* \"#utility.yul\":11465:11494   */\n      tag_239\n      jump\t// in\n    tag_398:\n        /* \"#utility.yul\":11460:11463   */\n      dup5\n        /* \"#utility.yul\":11456:11495   */\n      add\n        /* \"#utility.yul\":11449:11495   */\n      swap2\n      pop\n        /* \"#utility.yul\":11226:11501   */\n      pop\n        /* \"#utility.yul\":11144:11501   */\n      swap3\n      swap2\n      pop\n      pop\n      jump\t// out\n        /* \"#utility.yul\":11507:11615   */\n    tag_258:\n        /* \"#utility.yul\":11584:11608   */\n      tag_400\n        /* \"#utility.yul\":11602:11607   */\n      dup2\n        /* \"#utility.yul\":11584:11608   */\n      tag_234\n      jump\t// in\n    tag_400:\n        /* \"#utility.yul\":11579:11582   */\n      dup3\n        /* \"#utility.yul\":11572:11609   */\n      mstore\n        /* \"#utility.yul\":11507:11615   */\n      pop\n      pop\n      jump\t// out\n        /* \"#utility.yul\":11621:11720   */\n    tag_259:\n        /* \"#utility.yul\":11692:11713   */\n      tag_402\n        /* \"#utility.yul\":11707:11712   */\n      dup2\n        /* \"#utility.yul\":11692:11713   */\n      tag_226\n      jump\t// in\n    tag_402:\n        /* \"#utility.yul\":11687:11690   */\n      dup3\n        /* \"#utility.yul\":11680:11714   */\n      mstore\n        /* \"#utility.yul\":11621:11720   */\n      pop\n      pop\n      jump\t// out\n        /* \"#utility.yul\":11798:13178   */\n    tag_260:\n        /* \"#utility.yul\":11917:11920   */\n      0x00\n        /* \"#utility.yul\":11953:11957   */\n      0xc0\n        /* \"#utility.yul\":11948:11951   */\n      dup4\n        /* \"#utility.yul\":11944:11958   */\n      add\n        /* \"#utility.yul\":12040:12044   */\n      0x00\n        /* \"#utility.yul\":12033:12038   */\n      dup4\n        /* \"#utility.yul\":12029:12045   */\n      add\n        /* \"#utility.yul\":12023:12046   */\n      mload\n        /* \"#utility.yul\":12093:12096   */\n      dup5\n        /* \"#utility.yul\":12087:12091   */\n      dup3\n        /* \"#utility.yul\":12083:12097   */\n      sub\n        /* \"#utility.yul\":12076:12080   */\n      0x00\n        /* \"#utility.yul\":12071:12074   */\n      dup7\n        /* \"#utility.yul\":12067:12081   */\n      add\n        /* \"#utility.yul\":12060:12098   */\n      mstore\n        /* \"#utility.yul\":12119:12192   */\n      tag_404\n        /* \"#utility.yul\":12187:12191   */\n      dup3\n        /* \"#utility.yul\":12173:12185   */\n      dup3\n        /* \"#utility.yul\":12119:12192   */\n      tag_257\n      jump\t// in\n    tag_404:\n        /* \"#utility.yul\":12111:12192   */\n      swap2\n      pop\n        /* \"#utility.yul\":11968:12203   */\n      pop\n        /* \"#utility.yul\":12290:12294   */\n      0x20\n        /* \"#utility.yul\":12283:12288   */\n      dup4\n        /* \"#utility.yul\":12279:12295   */\n      add\n        /* \"#utility.yul\":12273:12296   */\n      mload\n        /* \"#utility.yul\":12343:12346   */\n      dup5\n        /* \"#utility.yul\":12337:12341   */\n      dup3\n        /* \"#utility.yul\":12333:12347   */\n      sub\n        /* \"#utility.yul\":12326:12330   */\n      0x20\n        /* \"#utility.yul\":12321:12324   */\n      dup7\n        /* \"#utility.yul\":12317:12331   */\n      add\n        /* \"#utility.yul\":12310:12348   */\n      mstore\n        /* \"#utility.yul\":12369:12442   */\n      tag_405\n        /* \"#utility.yul\":12437:12441   */\n      dup3\n        /* \"#utility.yul\":12423:12435   */\n      dup3\n        /* \"#utility.yul\":12369:12442   */\n      tag_257\n      jump\t// in\n    tag_405:\n        /* \"#utility.yul\":12361:12442   */\n      swap2\n      pop\n        /* \"#utility.yul\":12213:12453   */\n      pop\n        /* \"#utility.yul\":12540:12544   */\n      0x40\n        /* \"#utility.yul\":12533:12538   */\n      dup4\n        /* \"#utility.yul\":12529:12545   */\n      add\n        /* \"#utility.yul\":12523:12546   */\n      mload\n        /* \"#utility.yul\":12559:12622   */\n      tag_406\n        /* \"#utility.yul\":12616:12620   */\n      0x40\n        /* \"#utility.yul\":12611:12614   */\n      dup7\n        /* \"#utility.yul\":12607:12621   */\n      add\n        /* \"#utility.yul\":12593:12605   */\n      dup3\n        /* \"#utility.yul\":12559:12622   */\n      tag_258\n      jump\t// in\n    tag_406:\n        /* \"#utility.yul\":12463:12632   */\n      pop\n        /* \"#utility.yul\":12717:12721   */\n      0x60\n        /* \"#utility.yul\":12710:12715   */\n      dup4\n        /* \"#utility.yul\":12706:12722   */\n      add\n        /* \"#utility.yul\":12700:12723   */\n      mload\n        /* \"#utility.yul\":12736:12793   */\n      tag_407\n        /* \"#utility.yul\":12787:12791   */\n      0x60\n        /* \"#utility.yul\":12782:12785   */\n      dup7\n        /* \"#utility.yul\":12778:12792   */\n      add\n        /* \"#utility.yul\":12764:12776   */\n      dup3\n        /* \"#utility.yul\":12736:12793   */\n      tag_259\n      jump\t// in\n    tag_407:\n        /* \"#utility.yul\":12642:12803   */\n      pop\n        /* \"#utility.yul\":12888:12892   */\n      0x80\n        /* \"#utility.yul\":12881:12886   */\n      dup4\n        /* \"#utility.yul\":12877:12893   */\n      add\n        /* \"#utility.yul\":12871:12894   */\n      mload\n        /* \"#utility.yul\":12907:12964   */\n      tag_408\n        /* \"#utility.yul\":12958:12962   */\n      0x80\n        /* \"#utility.yul\":12953:12956   */\n      dup7\n        /* \"#utility.yul\":12949:12963   */\n      add\n        /* \"#utility.yul\":12935:12947   */\n      dup3\n        /* \"#utility.yul\":12907:12964   */\n      tag_259\n      jump\t// in\n    tag_408:\n        /* \"#utility.yul\":12813:12974   */\n      pop\n        /* \"#utility.yul\":13059:13063   */\n      0xa0\n        /* \"#utility.yul\":13052:13057   */\n      dup4\n        /* \"#utility.yul\":13048:13064   */\n      add\n        /* \"#utility.yul\":13042:13065   */\n      mload\n        /* \"#utility.yul\":13078:13141   */\n      tag_409\n        /* \"#utility.yul\":13135:13139   */\n      0xa0\n        /* \"#utility.yul\":13130:13133   */\n      dup7\n        /* \"#utility.yul\":13126:13140   */\n      add\n        /* \"#utility.yul\":13112:13124   */\n      dup3\n        /* \"#utility.yul\":13078:13141   */\n      tag_258\n      jump\t// in\n    tag_409:\n        /* \"#utility.yul\":12984:13151   */\n      pop\n        /* \"#utility.yul\":13168:13172   */\n      dup1\n        /* \"#utility.yul\":13161:13172   */\n      swap2\n      pop\n        /* \"#utility.yul\":11922:13178   */\n      pop\n        /* \"#utility.yul\":11798:13178   */\n      swap3\n      swap2\n      pop\n      pop\n      jump\t// out\n        /* \"#utility.yul\":13184:14494   */\n    tag_79:\n        /* \"#utility.yul\":13555:13559   */\n      0x00\n        /* \"#utility.yul\":13593:13596   */\n      0xe0\n        /* \"#utility.yul\":13582:13591   */\n      dup3\n        /* \"#utility.yul\":13578:13597   */\n      add\n        /* \"#utility.yul\":13570:13597   */\n      swap1\n      pop\n        /* \"#utility.yul\":13607:13678   */\n      tag_411\n        /* \"#utility.yul\":13675:13676   */\n      0x00\n        /* \"#utility.yul\":13664:13673   */\n      dup4\n        /* \"#utility.yul\":13660:13677   */\n      add\n        /* \"#utility.yul\":13651:13657   */\n      dup11\n        /* \"#utility.yul\":13607:13678   */\n      tag_249\n      jump\t// in\n    tag_411:\n        /* \"#utility.yul\":13725:13734   */\n      dup2\n        /* \"#utility.yul\":13719:13723   */\n      dup2\n        /* \"#utility.yul\":13715:13735   */\n      sub\n        /* \"#utility.yul\":13710:13712   */\n      0x20\n        /* \"#utility.yul\":13699:13708   */\n      dup4\n        /* \"#utility.yul\":13695:13713   */\n      add\n        /* \"#utility.yul\":13688:13736   */\n      mstore\n        /* \"#utility.yul\":13753:13831   */\n      tag_412\n        /* \"#utility.yul\":13826:13830   */\n      dup2\n        /* \"#utility.yul\":13817:13823   */\n      dup10\n        /* \"#utility.yul\":13753:13831   */\n      tag_255\n      jump\t// in\n    tag_412:\n        /* \"#utility.yul\":13745:13831   */\n      swap1\n      pop\n        /* \"#utility.yul\":13878:13887   */\n      dup2\n        /* \"#utility.yul\":13872:13876   */\n      dup2\n        /* \"#utility.yul\":13868:13888   */\n      sub\n        /* \"#utility.yul\":13863:13865   */\n      0x40\n        /* \"#utility.yul\":13852:13861   */\n      dup4\n        /* \"#utility.yul\":13848:13866   */\n      add\n        /* \"#utility.yul\":13841:13889   */\n      mstore\n        /* \"#utility.yul\":13906:13984   */\n      tag_413\n        /* \"#utility.yul\":13979:13983   */\n      dup2\n        /* \"#utility.yul\":13970:13976   */\n      dup9\n        /* \"#utility.yul\":13906:13984   */\n      tag_255\n      jump\t// in\n    tag_413:\n        /* \"#utility.yul\":13898:13984   */\n      swap1\n      pop\n        /* \"#utility.yul\":14031:14040   */\n      dup2\n        /* \"#utility.yul\":14025:14029   */\n      dup2\n        /* \"#utility.yul\":14021:14041   */\n      sub\n        /* \"#utility.yul\":14016:14018   */\n      0x60\n        /* \"#utility.yul\":14005:14014   */\n      dup4\n        /* \"#utility.yul\":14001:14019   */\n      add\n        /* \"#utility.yul\":13994:14042   */\n      mstore\n        /* \"#utility.yul\":14059:14137   */\n      tag_414\n        /* \"#utility.yul\":14132:14136   */\n      dup2\n        /* \"#utility.yul\":14123:14129   */\n      dup8\n        /* \"#utility.yul\":14059:14137   */\n      tag_255\n      jump\t// in\n    tag_414:\n        /* \"#utility.yul\":14051:14137   */\n      swap1\n      pop\n        /* \"#utility.yul\":14147:14220   */\n      tag_415\n        /* \"#utility.yul\":14215:14218   */\n      0x80\n        /* \"#utility.yul\":14204:14213   */\n      dup4\n        /* \"#utility.yul\":14200:14219   */\n      add\n        /* \"#utility.yul\":14191:14197   */\n      dup7\n        /* \"#utility.yul\":14147:14220   */\n      tag_249\n      jump\t// in\n    tag_415:\n        /* \"#utility.yul\":14230:14303   */\n      tag_416\n        /* \"#utility.yul\":14298:14301   */\n      0xa0\n        /* \"#utility.yul\":14287:14296   */\n      dup4\n        /* \"#utility.yul\":14283:14302   */\n      add\n        /* \"#utility.yul\":14274:14280   */\n      dup6\n        /* \"#utility.yul\":14230:14303   */\n      tag_249\n      jump\t// in\n    tag_416:\n        /* \"#utility.yul\":14351:14360   */\n      dup2\n        /* \"#utility.yul\":14345:14349   */\n      dup2\n        /* \"#utility.yul\":14341:14361   */\n      sub\n        /* \"#utility.yul\":14335:14338   */\n      0xc0\n        /* \"#utility.yul\":14324:14333   */\n      dup4\n        /* \"#utility.yul\":14320:14339   */\n      add\n        /* \"#utility.yul\":14313:14362   */\n      mstore\n        /* \"#utility.yul\":14379:14487   */\n      tag_417\n        /* \"#utility.yul\":14482:14486   */\n      dup2\n        /* \"#utility.yul\":14473:14479   */\n      dup5\n        /* \"#utility.yul\":14379:14487   */\n      tag_260\n      jump\t// in\n    tag_417:\n        /* \"#utility.yul\":14371:14487   */\n      swap1\n      pop\n        /* \"#utility.yul\":13184:14494   */\n      swap9\n      swap8\n      pop\n      pop\n      pop\n      pop\n      pop\n      pop\n      pop\n      pop\n      jump\t// out\n        /* \"#utility.yul\":14500:14618   */\n    tag_261:\n        /* \"#utility.yul\":14587:14611   */\n      tag_419\n        /* \"#utility.yul\":14605:14610   */\n      dup2\n        /* \"#utility.yul\":14587:14611   */\n      tag_231\n      jump\t// in\n    tag_419:\n        /* \"#utility.yul\":14582:14585   */\n      dup3\n        /* \"#utility.yul\":14575:14612   */\n      mstore\n        /* \"#utility.yul\":14500:14618   */\n      pop\n      pop\n      jump\t// out\n        /* \"#utility.yul\":14624:14846   */\n    tag_86:\n        /* \"#utility.yul\":14717:14721   */\n      0x00\n        /* \"#utility.yul\":14755:14757   */\n      0x20\n        /* \"#utility.yul\":14744:14753   */\n      dup3\n        /* \"#utility.yul\":14740:14758   */\n      add\n        /* \"#utility.yul\":14732:14758   */\n      swap1\n      pop\n        /* \"#utility.yul\":14768:14839   */\n      tag_421\n        /* \"#utility.yul\":14836:14837   */\n      0x00\n        /* \"#utility.yul\":14825:14834   */\n      dup4\n        /* \"#utility.yul\":14821:14838   */\n      add\n        /* \"#utility.yul\":14812:14818   */\n      dup5\n        /* \"#utility.yul\":14768:14839   */\n      tag_261\n      jump\t// in\n    tag_421:\n        /* \"#utility.yul\":14624:14846   */\n      swap3\n      swap2\n      pop\n      pop\n      jump\t// out\n        /* \"#utility.yul\":14852:15032   */\n    tag_262:\n        /* \"#utility.yul\":14900:14977   */\n      0x4e487b7100000000000000000000000000000000000000000000000000000000\n        /* \"#utility.yul\":14897:14898   */\n      0x00\n        /* \"#utility.yul\":14890:14978   */\n      mstore\n        /* \"#utility.yul\":14997:15001   */\n      0x22\n        /* \"#utility.yul\":14994:14995   */\n      0x04\n        /* \"#utility.yul\":14987:15002   */\n      mstore\n        /* \"#utility.yul\":15021:15025   */\n      0x24\n        /* \"#utility.yul\":15018:15019   */\n      0x00\n        /* \"#utility.yul\":15011:15026   */\n      revert\n        /* \"#utility.yul\":15038:15358   */\n    tag_146:\n        /* \"#utility.yul\":15082:15088   */\n      0x00\n        /* \"#utility.yul\":15119:15120   */\n      0x02\n        /* \"#utility.yul\":15113:15117   */\n      dup3\n        /* \"#utility.yul\":15109:15121   */\n      div\n        /* \"#utility.yul\":15099:15121   */\n      swap1\n      pop\n        /* \"#utility.yul\":15166:15167   */\n      0x01\n        /* \"#utility.yul\":15160:15164   */\n      dup3\n        /* \"#utility.yul\":15156:15168   */\n      and\n        /* \"#utility.yul\":15187:15205   */\n      dup1\n        /* \"#utility.yul\":15177:15258   */\n      tag_424\n      jumpi\n        /* \"#utility.yul\":15243:15247   */\n      0x7f\n        /* \"#utility.yul\":15235:15241   */\n      dup3\n        /* \"#utility.yul\":15231:15248   */\n      and\n        /* \"#utility.yul\":15221:15248   */\n      swap2\n      pop\n        /* \"#utility.yul\":15177:15258   */\n    tag_424:\n        /* \"#utility.yul\":15305:15307   */\n      0x20\n        /* \"#utility.yul\":15297:15303   */\n      dup3\n        /* \"#utility.yul\":15294:15308   */\n      lt\n        /* \"#utility.yul\":15274:15292   */\n      dup2\n        /* \"#utility.yul\":15271:15309   */\n      sub\n        /* \"#utility.yul\":15268:15352   */\n      tag_425\n      jumpi\n        /* \"#utility.yul\":15324:15342   */\n      tag_426\n      tag_262\n      jump\t// in\n    tag_426:\n        /* \"#utility.yul\":15268:15352   */\n    tag_425:\n        /* \"#utility.yul\":15089:15358   */\n      pop\n        /* \"#utility.yul\":15038:15358   */\n      swap2\n      swap1\n      pop\n      jump\t// out\n        /* \"#utility.yul\":15364:15696   */\n    tag_219:\n        /* \"#utility.yul\":15485:15489   */\n      0x00\n        /* \"#utility.yul\":15523:15525   */\n      0x40\n        /* \"#utility.yul\":15512:15521   */\n      dup3\n        /* \"#utility.yul\":15508:15526   */\n      add\n        /* \"#utility.yul\":15500:15526   */\n      swap1\n      pop\n        /* \"#utility.yul\":15536:15607   */\n      tag_428\n        /* \"#utility.yul\":15604:15605   */\n      0x00\n        /* \"#utility.yul\":15593:15602   */\n      dup4\n        /* \"#utility.yul\":15589:15606   */\n      add\n        /* \"#utility.yul\":15580:15586   */\n      dup6\n        /* \"#utility.yul\":15536:15607   */\n      tag_261\n      jump\t// in\n    tag_428:\n        /* \"#utility.yul\":15617:15689   */\n      tag_429\n        /* \"#utility.yul\":15685:15687   */\n      0x20\n        /* \"#utility.yul\":15674:15683   */\n      dup4\n        /* \"#utility.yul\":15670:15688   */\n      add\n        /* \"#utility.yul\":15661:15667   */\n      dup5\n        /* \"#utility.yul\":15617:15689   */\n      tag_229\n      jump\t// in\n    tag_429:\n        /* \"#utility.yul\":15364:15696   */\n      swap4\n      swap3\n      pop\n      pop\n      pop\n      jump\t// out\n\n    auxdata: 0xa2646970667358221220b1e879ad0f04a4410bb0f576cd2dc6351b59990a96beac82b471e0b38a35b78364736f6c634300081a0033\n}\n",
				"bytecode": {
					"linkReferences": {},
					"object": "60806040526001600255348015610014575f80fd5b50335f73ffffffffffffffffffffffffffffffffffffffff168173ffffffffffffffffffffffffffffffffffffffff1603610086575f6040517f1e4fbdf700000000000000000000000000000000000000000000000000000000815260040161007d919061019b565b60405180910390fd5b6100958161009b60201b60201c565b506101b4565b5f805f9054906101000a900473ffffffffffffffffffffffffffffffffffffffff169050815f806101000a81548173ffffffffffffffffffffffffffffffffffffffff021916908373ffffffffffffffffffffffffffffffffffffffff1602179055508173ffffffffffffffffffffffffffffffffffffffff168173ffffffffffffffffffffffffffffffffffffffff167f8be0079c531659141344cd1fd0a4f28419497f9722a3daafe3b4186f6b6457e060405160405180910390a35050565b5f73ffffffffffffffffffffffffffffffffffffffff82169050919050565b5f6101858261015c565b9050919050565b6101958161017b565b82525050565b5f6020820190506101ae5f83018461018c565b92915050565b6117e4806101c15f395ff3fe608060405234801561000f575f80fd5b5060043610610140575f3560e01c806375b238fc116100b6578063a217fddf1161007a578063a217fddf14610350578063a93253c11461036e578063aed4af011461039e578063d547741f146103ce578063daf1e5f9146103ea578063f2fde38b1461040657610140565b806375b238fc146102925780637acc0b20146102b05780638aa90c83146102e65780638da5cb5b1461030257806391d148541461032057610140565b80632f2ff15d116101085780632f2ff15d146101fa57806336568abe146102165780634de91a63146102325780635bb88544146102505780636f775aea1461026c578063715018a61461028857610140565b806301ffc9a7146101445780630c5a713d146101745780631884eb241461019257806321120f9a146101ae578063248a9ca3146101ca575b5f80fd5b61015e60048036038101906101599190611010565b610422565b60405161016b9190611055565b60405180910390f35b61017c61049b565b6040516101899190611086565b60405180910390f35b6101ac60048036038101906101a791906110f9565b6104bf565b005b6101c860048036038101906101c39190611293565b6104f5565b005b6101e460048036038101906101df9190611317565b6104f9565b6040516101f19190611086565b60405180910390f35b610214600480360381019061020f9190611342565b610516565b005b610230600480360381019061022b9190611342565b610538565b005b61023a6105b3565b604051610247919061138f565b60405180910390f35b61026a600480360381019061026591906113d2565b6105b9565b005b610286600480360381019061028191906110f9565b6105c2565b005b61029061061b565b005b61029a61062e565b6040516102a79190611086565b60405180910390f35b6102ca60048036038101906102c591906114fb565b610652565b6040516102dd9796959493929190611679565b60405180910390f35b61030060048036038101906102fb91906110f9565b610994565b005b61030a6109ca565b6040516103179190611711565b60405180910390f35b61033a60048036038101906103359190611342565b6109f1565b6040516103479190611055565b60405180910390f35b610358610a55565b6040516103659190611086565b60405180910390f35b610388600480360381019061038391906114fb565b610a5b565b6040516103959190611711565b60405180910390f35b6103b860048036038101906103b391906114fb565b610a8b565b6040516103c59190611711565b60405180910390f35b6103e860048036038101906103e39190611342565b610abb565b005b61040460048036038101906103ff91906110f9565b610add565b005b610420600480360381019061041b91906110f9565b610b36565b005b5f7f7965db0b000000000000000000000000000000000000000000000000000000007bffffffffffffffffffffffffffffffffffffffffffffffffffffffff1916827bffffffffffffffffffffffffffffffffffffffffffffffffffffffff19161480610494575061049382610bba565b5b9050919050565b7f632405d99f3a4d6966c57f76cc301a3c7cab4b56ce8e567a4198e9434b3fbb5b81565b6104c7610c23565b6104f17f632405d99f3a4d6966c57f76cc301a3c7cab4b56ce8e567a4198e9434b3fbb5b82610caa565b5050565b5050565b5f60015f8381526020019081526020015f20600101549050919050565b61051f826104f9565b61052881610d93565b6105328383610caa565b50505050565b610540610da7565b73ffffffffffffffffffffffffffffffffffffffff168173ffffffffffffffffffffffffffffffffffffffff16146105a4576040517f6697b23200000000000000000000000000000000000000000000000000000000815260040160405180910390fd5b6105ae8282610dae565b505050565b60025481565b50505050505050565b7f632405d99f3a4d6966c57f76cc301a3c7cab4b56ce8e567a4198e9434b3fbb5b6105ec81610d93565b6106167fdf8b4c520ffe197c5343c6f5aec59570151ef9a492f2c624fd45ddde6135ec4283610dae565b505050565b610623610c23565b61062c5f610e98565b565b7fdf8b4c520ffe197c5343c6f5aec59570151ef9a492f2c624fd45ddde6135ec4281565b6003602052805f5260405f205f91509050805f01549080600101805461067790611757565b80601f01602080910402602001604051908101604052809291908181526020018280546106a390611757565b80156106ee5780601f106106c5576101008083540402835291602001916106ee565b820191905f5260205f20905b8154815290600101906020018083116106d157829003601f168201915b50505050509080600201805461070390611757565b80601f016020809104026020016040519081016040528092919081815260200182805461072f90611757565b801561077a5780601f106107515761010080835404028352916020019161077a565b820191905f5260205f20905b81548152906001019060200180831161075d57829003601f168201915b50505050509080600301805461078f90611757565b80601f01602080910402602001604051908101604052809291908181526020018280546107bb90611757565b80156108065780601f106107dd57610100808354040283529160200191610806565b820191905f5260205f20905b8154815290600101906020018083116107e957829003601f168201915b505050505090806004015490806005015490806006016040518060c00160405290815f8201805461083690611757565b80601f016020809104026020016040519081016040528092919081815260200182805461086290611757565b80156108ad5780601f10610884576101008083540402835291602001916108ad565b820191905f5260205f20905b81548152906001019060200180831161089057829003601f168201915b505050505081526020016001820180546108c690611757565b80601f01602080910402602001604051908101604052809291908181526020018280546108f290611757565b801561093d5780601f106109145761010080835404028352916020019161093d565b820191905f5260205f20905b81548152906001019060200180831161092057829003601f168201915b5050505050815260200160028201548152602001600382015f9054906101000a900460ff161515151581526020016003820160019054906101000a900460ff16151515158152602001600482015481525050905087565b61099c610c23565b6109c67f632405d99f3a4d6966c57f76cc301a3c7cab4b56ce8e567a4198e9434b3fbb5b82610dae565b5050565b5f805f9054906101000a900473ffffffffffffffffffffffffffffffffffffffff16905090565b5f60015f8481526020019081526020015f205f015f8373ffffffffffffffffffffffffffffffffffffffff1673ffffffffffffffffffffffffffffffffffffffff1681526020019081526020015f205f9054906101000a900460ff16905092915050565b5f801b81565b6005602052805f5260405f205f915054906101000a900473ffffffffffffffffffffffffffffffffffffffff1681565b6004602052805f5260405f205f915054906101000a900473ffffffffffffffffffffffffffffffffffffffff1681565b610ac4826104f9565b610acd81610d93565b610ad78383610dae565b50505050565b7f632405d99f3a4d6966c57f76cc301a3c7cab4b56ce8e567a4198e9434b3fbb5b610b0781610d93565b610b317fdf8b4c520ffe197c5343c6f5aec59570151ef9a492f2c624fd45ddde6135ec4283610caa565b505050565b610b3e610c23565b5f73ffffffffffffffffffffffffffffffffffffffff168173ffffffffffffffffffffffffffffffffffffffff1603610bae575f6040517f1e4fbdf7000000000000000000000000000000000000000000000000000000008152600401610ba59190611711565b60405180910390fd5b610bb781610e98565b50565b5f7f01ffc9a7000000000000000000000000000000000000000000000000000000007bffffffffffffffffffffffffffffffffffffffffffffffffffffffff1916827bffffffffffffffffffffffffffffffffffffffffffffffffffffffff1916149050919050565b610c2b610da7565b73ffffffffffffffffffffffffffffffffffffffff16610c496109ca565b73ffffffffffffffffffffffffffffffffffffffff1614610ca857610c6c610da7565b6040517f118cdaa7000000000000000000000000000000000000000000000000000000008152600401610c9f9190611711565b60405180910390fd5b565b5f610cb583836109f1565b610d89576001805f8581526020019081526020015f205f015f8473ffffffffffffffffffffffffffffffffffffffff1673ffffffffffffffffffffffffffffffffffffffff1681526020019081526020015f205f6101000a81548160ff021916908315150217905550610d26610da7565b73ffffffffffffffffffffffffffffffffffffffff168273ffffffffffffffffffffffffffffffffffffffff16847f2f8788117e7eff1d82e926ec794901d17c78024a50270940304540a733656f0d60405160405180910390a460019050610d8d565b5f90505b92915050565b610da481610d9f610da7565b610f59565b50565b5f33905090565b5f610db983836109f1565b15610e8e575f60015f8581526020019081526020015f205f015f8473ffffffffffffffffffffffffffffffffffffffff1673ffffffffffffffffffffffffffffffffffffffff1681526020019081526020015f205f6101000a81548160ff021916908315150217905550610e2b610da7565b73ffffffffffffffffffffffffffffffffffffffff168273ffffffffffffffffffffffffffffffffffffffff16847ff6391f5c32d9c69d2a47ea670b442974b53935d1edc7fd64eb21e047a839171b60405160405180910390a460019050610e92565b5f90505b92915050565b5f805f9054906101000a900473ffffffffffffffffffffffffffffffffffffffff169050815f806101000a81548173ffffffffffffffffffffffffffffffffffffffff021916908373ffffffffffffffffffffffffffffffffffffffff1602179055508173ffffffffffffffffffffffffffffffffffffffff168173ffffffffffffffffffffffffffffffffffffffff167f8be0079c531659141344cd1fd0a4f28419497f9722a3daafe3b4186f6b6457e060405160405180910390a35050565b610f6382826109f1565b610fa65780826040517fe2517d3f000000000000000000000000000000000000000000000000000000008152600401610f9d929190611787565b60405180910390fd5b5050565b5f604051905090565b5f80fd5b5f80fd5b5f7fffffffff0000000000000000000000000000000000000000000000000000000082169050919050565b610fef81610fbb565b8114610ff9575f80fd5b50565b5f8135905061100a81610fe6565b92915050565b5f6020828403121561102557611024610fb3565b5b5f61103284828501610ffc565b91505092915050565b5f8115159050919050565b61104f8161103b565b82525050565b5f6020820190506110685f830184611046565b92915050565b5f819050919050565b6110808161106e565b82525050565b5f6020820190506110995f830184611077565b92915050565b5f73ffffffffffffffffffffffffffffffffffffffff82169050919050565b5f6110c88261109f565b9050919050565b6110d8816110be565b81146110e2575f80fd5b50565b5f813590506110f3816110cf565b92915050565b5f6020828403121561110e5761110d610fb3565b5b5f61111b848285016110e5565b91505092915050565b5f819050919050565b61113681611124565b8114611140575f80fd5b50565b5f813590506111518161112d565b92915050565b5f80fd5b5f80fd5b5f601f19601f8301169050919050565b7f4e487b71000000000000000000000000000000000000000000000000000000005f52604160045260245ffd5b6111a58261115f565b810181811067ffffffffffffffff821117156111c4576111c361116f565b5b80604052505050565b5f6111d6610faa565b90506111e2828261119c565b919050565b5f67ffffffffffffffff8211156112015761120061116f565b5b61120a8261115f565b9050602081019050919050565b828183375f83830152505050565b5f611237611232846111e7565b6111cd565b9050828152602081018484840111156112535761125261115b565b5b61125e848285611217565b509392505050565b5f82601f83011261127a57611279611157565b5b813561128a848260208601611225565b91505092915050565b5f80604083850312156112a9576112a8610fb3565b5b5f6112b685828601611143565b925050602083013567ffffffffffffffff8111156112d7576112d6610fb7565b5b6112e385828601611266565b9150509250929050565b6112f68161106e565b8114611300575f80fd5b50565b5f81359050611311816112ed565b92915050565b5f6020828403121561132c5761132b610fb3565b5b5f61133984828501611303565b91505092915050565b5f806040838503121561135857611357610fb3565b5b5f61136585828601611303565b9250506020611376858286016110e5565b9150509250929050565b61138981611124565b82525050565b5f6020820190506113a25f830184611380565b92915050565b6113b18161103b565b81146113bb575f80fd5b50565b5f813590506113cc816113a8565b92915050565b5f805f805f805f60e0888a0312156113ed576113ec610fb3565b5b5f88013567ffffffffffffffff81111561140a57611409610fb7565b5b6114168a828b01611266565b975050602088013567ffffffffffffffff81111561143757611436610fb7565b5b6114438a828b01611266565b965050604088013567ffffffffffffffff81111561146457611463610fb7565b5b6114708a828b01611266565b95505060606114818a828b01611143565b945050608088013567ffffffffffffffff8111156114a2576114a1610fb7565b5b6114ae8a828b01611266565b93505060a088013567ffffffffffffffff8111156114cf576114ce610fb7565b5b6114db8a828b01611266565b92505060c06114ec8a828b016113be565b91505092959891949750929550565b5f602082840312156115105761150f610fb3565b5b5f61151d84828501611143565b91505092915050565b5f81519050919050565b5f82825260208201905092915050565b8281835e5f83830152505050565b5f61155882611526565b6115628185611530565b9350611572818560208601611540565b61157b8161115f565b840191505092915050565b5f82825260208201905092915050565b5f6115a082611526565b6115aa8185611586565b93506115ba818560208601611540565b6115c38161115f565b840191505092915050565b6115d781611124565b82525050565b6115e68161103b565b82525050565b5f60c083015f8301518482035f8601526116068282611596565b915050602083015184820360208601526116208282611596565b915050604083015161163560408601826115ce565b50606083015161164860608601826115dd565b50608083015161165b60808601826115dd565b5060a083015161166e60a08601826115ce565b508091505092915050565b5f60e08201905061168c5f83018a611380565b818103602083015261169e818961154e565b905081810360408301526116b2818861154e565b905081810360608301526116c6818761154e565b90506116d56080830186611380565b6116e260a0830185611380565b81810360c08301526116f481846115ec565b905098975050505050505050565b61170b816110be565b82525050565b5f6020820190506117245f830184611702565b92915050565b7f4e487b71000000000000000000000000000000000000000000000000000000005f52602260045260245ffd5b5f600282049050600182168061176e57607f821691505b6020821081036117815761178061172a565b5b50919050565b5f60408201905061179a5f830185611702565b6117a76020830184611077565b939250505056fea2646970667358221220b1e879ad0f04a4410bb0f576cd2dc6351b59990a96beac82b471e0b38a35b78364736f6c634300081a0033",
					"opcodes": "PUSH1 0x80 PUSH1 0x40 MSTORE PUSH1 0x1 PUSH1 0x2 SSTORE CALLVALUE DUP1 ISZERO PUSH2 0x14 JUMPI PUSH0 DUP1 REVERT JUMPDEST POP CALLER PUSH0 PUSH20 0xFFFFFFFFFFFFFFFFFFFFFFFFFFFFFFFFFFFFFFFF AND DUP2 PUSH20 0xFFFFFFFFFFFFFFFFFFFFFFFFFFFFFFFFFFFFFFFF AND SUB PUSH2 0x86 JUMPI PUSH0 PUSH1 0x40 MLOAD PUSH32 0x1E4FBDF700000000000000000000000000000000000000000000000000000000 DUP2 MSTORE PUSH1 0x4 ADD PUSH2 0x7D SWAP2 SWAP1 PUSH2 0x19B JUMP JUMPDEST PUSH1 0x40 MLOAD DUP1 SWAP2 SUB SWAP1 REVERT JUMPDEST PUSH2 0x95 DUP2 PUSH2 0x9B PUSH1 0x20 SHL PUSH1 0x20 SHR JUMP JUMPDEST POP PUSH2 0x1B4 JUMP JUMPDEST PUSH0 DUP1 PUSH0 SWAP1 SLOAD SWAP1 PUSH2 0x100 EXP SWAP1 DIV PUSH20 0xFFFFFFFFFFFFFFFFFFFFFFFFFFFFFFFFFFFFFFFF AND SWAP1 POP DUP2 PUSH0 DUP1 PUSH2 0x100 EXP DUP2 SLOAD DUP2 PUSH20 0xFFFFFFFFFFFFFFFFFFFFFFFFFFFFFFFFFFFFFFFF MUL NOT AND SWAP1 DUP4 PUSH20 0xFFFFFFFFFFFFFFFFFFFFFFFFFFFFFFFFFFFFFFFF AND MUL OR SWAP1 SSTORE POP DUP2 PUSH20 0xFFFFFFFFFFFFFFFFFFFFFFFFFFFFFFFFFFFFFFFF AND DUP2 PUSH20 0xFFFFFFFFFFFFFFFFFFFFFFFFFFFFFFFFFFFFFFFF AND PUSH32 0x8BE0079C531659141344CD1FD0A4F28419497F9722A3DAAFE3B4186F6B6457E0 PUSH1 0x40 MLOAD PUSH1 0x40 MLOAD DUP1 SWAP2 SUB SWAP1 LOG3 POP POP JUMP JUMPDEST PUSH0 PUSH20 0xFFFFFFFFFFFFFFFFFFFFFFFFFFFFFFFFFFFFFFFF DUP3 AND SWAP1 POP SWAP2 SWAP1 POP JUMP JUMPDEST PUSH0 PUSH2 0x185 DUP3 PUSH2 0x15C JUMP JUMPDEST SWAP1 POP SWAP2 SWAP1 POP JUMP JUMPDEST PUSH2 0x195 DUP2 PUSH2 0x17B JUMP JUMPDEST DUP3 MSTORE POP POP JUMP JUMPDEST PUSH0 PUSH1 0x20 DUP3 ADD SWAP1 POP PUSH2 0x1AE PUSH0 DUP4 ADD DUP5 PUSH2 0x18C JUMP JUMPDEST SWAP3 SWAP2 POP POP JUMP JUMPDEST PUSH2 0x17E4 DUP1 PUSH2 0x1C1 PUSH0 CODECOPY PUSH0 RETURN INVALID PUSH1 0x80 PUSH1 0x40 MSTORE CALLVALUE DUP1 ISZERO PUSH2 0xF JUMPI PUSH0 DUP1 REVERT JUMPDEST POP PUSH1 0x4 CALLDATASIZE LT PUSH2 0x140 JUMPI PUSH0 CALLDATALOAD PUSH1 0xE0 SHR DUP1 PUSH4 0x75B238FC GT PUSH2 0xB6 JUMPI DUP1 PUSH4 0xA217FDDF GT PUSH2 0x7A JUMPI DUP1 PUSH4 0xA217FDDF EQ PUSH2 0x350 JUMPI DUP1 PUSH4 0xA93253C1 EQ PUSH2 0x36E JUMPI DUP1 PUSH4 0xAED4AF01 EQ PUSH2 0x39E JUMPI DUP1 PUSH4 0xD547741F EQ PUSH2 0x3CE JUMPI DUP1 PUSH4 0xDAF1E5F9 EQ PUSH2 0x3EA JUMPI DUP1 PUSH4 0xF2FDE38B EQ PUSH2 0x406 JUMPI PUSH2 0x140 JUMP JUMPDEST DUP1 PUSH4 0x75B238FC EQ PUSH2 0x292 JUMPI DUP1 PUSH4 0x7ACC0B20 EQ PUSH2 0x2B0 JUMPI DUP1 PUSH4 0x8AA90C83 EQ PUSH2 0x2E6 JUMPI DUP1 PUSH4 0x8DA5CB5B EQ PUSH2 0x302 JUMPI DUP1 PUSH4 0x91D14854 EQ PUSH2 0x320 JUMPI PUSH2 0x140 JUMP JUMPDEST DUP1 PUSH4 0x2F2FF15D GT PUSH2 0x108 JUMPI DUP1 PUSH4 0x2F2FF15D EQ PUSH2 0x1FA JUMPI DUP1 PUSH4 0x36568ABE EQ PUSH2 0x216 JUMPI DUP1 PUSH4 0x4DE91A63 EQ PUSH2 0x232 JUMPI DUP1 PUSH4 0x5BB88544 EQ PUSH2 0x250 JUMPI DUP1 PUSH4 0x6F775AEA EQ PUSH2 0x26C JUMPI DUP1 PUSH4 0x715018A6 EQ PUSH2 0x288 JUMPI PUSH2 0x140 JUMP JUMPDEST DUP1 PUSH4 0x1FFC9A7 EQ PUSH2 0x144 JUMPI DUP1 PUSH4 0xC5A713D EQ PUSH2 0x174 JUMPI DUP1 PUSH4 0x1884EB24 EQ PUSH2 0x192 JUMPI DUP1 PUSH4 0x21120F9A EQ PUSH2 0x1AE JUMPI DUP1 PUSH4 0x248A9CA3 EQ PUSH2 0x1CA JUMPI JUMPDEST PUSH0 DUP1 REVERT JUMPDEST PUSH2 0x15E PUSH1 0x4 DUP1 CALLDATASIZE SUB DUP2 ADD SWAP1 PUSH2 0x159 SWAP2 SWAP1 PUSH2 0x1010 JUMP JUMPDEST PUSH2 0x422 JUMP JUMPDEST PUSH1 0x40 MLOAD PUSH2 0x16B SWAP2 SWAP1 PUSH2 0x1055 JUMP JUMPDEST PUSH1 0x40 MLOAD DUP1 SWAP2 SUB SWAP1 RETURN JUMPDEST PUSH2 0x17C PUSH2 0x49B JUMP JUMPDEST PUSH1 0x40 MLOAD PUSH2 0x189 SWAP2 SWAP1 PUSH2 0x1086 JUMP JUMPDEST PUSH1 0x40 MLOAD DUP1 SWAP2 SUB SWAP1 RETURN JUMPDEST PUSH2 0x1AC PUSH1 0x4 DUP1 CALLDATASIZE SUB DUP2 ADD SWAP1 PUSH2 0x1A7 SWAP2 SWAP1 PUSH2 0x10F9 JUMP JUMPDEST PUSH2 0x4BF JUMP JUMPDEST STOP JUMPDEST PUSH2 0x1C8 PUSH1 0x4 DUP1 CALLDATASIZE SUB DUP2 ADD SWAP1 PUSH2 0x1C3 SWAP2 SWAP1 PUSH2 0x1293 JUMP JUMPDEST PUSH2 0x4F5 JUMP JUMPDEST STOP JUMPDEST PUSH2 0x1E4 PUSH1 0x4 DUP1 CALLDATASIZE SUB DUP2 ADD SWAP1 PUSH2 0x1DF SWAP2 SWAP1 PUSH2 0x1317 JUMP JUMPDEST PUSH2 0x4F9 JUMP JUMPDEST PUSH1 0x40 MLOAD PUSH2 0x1F1 SWAP2 SWAP1 PUSH2 0x1086 JUMP JUMPDEST PUSH1 0x40 MLOAD DUP1 SWAP2 SUB SWAP1 RETURN JUMPDEST PUSH2 0x214 PUSH1 0x4 DUP1 CALLDATASIZE SUB DUP2 ADD SWAP1 PUSH2 0x20F SWAP2 SWAP1 PUSH2 0x1342 JUMP JUMPDEST PUSH2 0x516 JUMP JUMPDEST STOP JUMPDEST PUSH2 0x230 PUSH1 0x4 DUP1 CALLDATASIZE SUB DUP2 ADD SWAP1 PUSH2 0x22B SWAP2 SWAP1 PUSH2 0x1342 JUMP JUMPDEST PUSH2 0x538 JUMP JUMPDEST STOP JUMPDEST PUSH2 0x23A PUSH2 0x5B3 JUMP JUMPDEST PUSH1 0x40 MLOAD PUSH2 0x247 SWAP2 SWAP1 PUSH2 0x138F JUMP JUMPDEST PUSH1 0x40 MLOAD DUP1 SWAP2 SUB SWAP1 RETURN JUMPDEST PUSH2 0x26A PUSH1 0x4 DUP1 CALLDATASIZE SUB DUP2 ADD SWAP1 PUSH2 0x265 SWAP2 SWAP1 PUSH2 0x13D2 JUMP JUMPDEST PUSH2 0x5B9 JUMP JUMPDEST STOP JUMPDEST PUSH2 0x286 PUSH1 0x4 DUP1 CALLDATASIZE SUB DUP2 ADD SWAP1 PUSH2 0x281 SWAP2 SWAP1 PUSH2 0x10F9 JUMP JUMPDEST PUSH2 0x5C2 JUMP JUMPDEST STOP JUMPDEST PUSH2 0x290 PUSH2 0x61B JUMP JUMPDEST STOP JUMPDEST PUSH2 0x29A PUSH2 0x62E JUMP JUMPDEST PUSH1 0x40 MLOAD PUSH2 0x2A7 SWAP2 SWAP1 PUSH2 0x1086 JUMP JUMPDEST PUSH1 0x40 MLOAD DUP1 SWAP2 SUB SWAP1 RETURN JUMPDEST PUSH2 0x2CA PUSH1 0x4 DUP1 CALLDATASIZE SUB DUP2 ADD SWAP1 PUSH2 0x2C5 SWAP2 SWAP1 PUSH2 0x14FB JUMP JUMPDEST PUSH2 0x652 JUMP JUMPDEST PUSH1 0x40 MLOAD PUSH2 0x2DD SWAP8 SWAP7 SWAP6 SWAP5 SWAP4 SWAP3 SWAP2 SWAP1 PUSH2 0x1679 JUMP JUMPDEST PUSH1 0x40 MLOAD DUP1 SWAP2 SUB SWAP1 RETURN JUMPDEST PUSH2 0x300 PUSH1 0x4 DUP1 CALLDATASIZE SUB DUP2 ADD SWAP1 PUSH2 0x2FB SWAP2 SWAP1 PUSH2 0x10F9 JUMP JUMPDEST PUSH2 0x994 JUMP JUMPDEST STOP JUMPDEST PUSH2 0x30A PUSH2 0x9CA JUMP JUMPDEST PUSH1 0x40 MLOAD PUSH2 0x317 SWAP2 SWAP1 PUSH2 0x1711 JUMP JUMPDEST PUSH1 0x40 MLOAD DUP1 SWAP2 SUB SWAP1 RETURN JUMPDEST PUSH2 0x33A PUSH1 0x4 DUP1 CALLDATASIZE SUB DUP2 ADD SWAP1 PUSH2 0x335 SWAP2 SWAP1 PUSH2 0x1342 JUMP JUMPDEST PUSH2 0x9F1 JUMP JUMPDEST PUSH1 0x40 MLOAD PUSH2 0x347 SWAP2 SWAP1 PUSH2 0x1055 JUMP JUMPDEST PUSH1 0x40 MLOAD DUP1 SWAP2 SUB SWAP1 RETURN JUMPDEST PUSH2 0x358 PUSH2 0xA55 JUMP JUMPDEST PUSH1 0x40 MLOAD PUSH2 0x365 SWAP2 SWAP1 PUSH2 0x1086 JUMP JUMPDEST PUSH1 0x40 MLOAD DUP1 SWAP2 SUB SWAP1 RETURN JUMPDEST PUSH2 0x388 PUSH1 0x4 DUP1 CALLDATASIZE SUB DUP2 ADD SWAP1 PUSH2 0x383 SWAP2 SWAP1 PUSH2 0x14FB JUMP JUMPDEST PUSH2 0xA5B JUMP JUMPDEST PUSH1 0x40 MLOAD PUSH2 0x395 SWAP2 SWAP1 PUSH2 0x1711 JUMP JUMPDEST PUSH1 0x40 MLOAD DUP1 SWAP2 SUB SWAP1 RETURN JUMPDEST PUSH2 0x3B8 PUSH1 0x4 DUP1 CALLDATASIZE SUB DUP2 ADD SWAP1 PUSH2 0x3B3 SWAP2 SWAP1 PUSH2 0x14FB JUMP JUMPDEST PUSH2 0xA8B JUMP JUMPDEST PUSH1 0x40 MLOAD PUSH2 0x3C5 SWAP2 SWAP1 PUSH2 0x1711 JUMP JUMPDEST PUSH1 0x40 MLOAD DUP1 SWAP2 SUB SWAP1 RETURN JUMPDEST PUSH2 0x3E8 PUSH1 0x4 DUP1 CALLDATASIZE SUB DUP2 ADD SWAP1 PUSH2 0x3E3 SWAP2 SWAP1 PUSH2 0x1342 JUMP JUMPDEST PUSH2 0xABB JUMP JUMPDEST STOP JUMPDEST PUSH2 0x404 PUSH1 0x4 DUP1 CALLDATASIZE SUB DUP2 ADD SWAP1 PUSH2 0x3FF SWAP2 SWAP1 PUSH2 0x10F9 JUMP JUMPDEST PUSH2 0xADD JUMP JUMPDEST STOP JUMPDEST PUSH2 0x420 PUSH1 0x4 DUP1 CALLDATASIZE SUB DUP2 ADD SWAP1 PUSH2 0x41B SWAP2 SWAP1 PUSH2 0x10F9 JUMP JUMPDEST PUSH2 0xB36 JUMP JUMPDEST STOP JUMPDEST PUSH0 PUSH32 0x7965DB0B00000000000000000000000000000000000000000000000000000000 PUSH28 0xFFFFFFFFFFFFFFFFFFFFFFFFFFFFFFFFFFFFFFFFFFFFFFFFFFFFFFFF NOT AND DUP3 PUSH28 0xFFFFFFFFFFFFFFFFFFFFFFFFFFFFFFFFFFFFFFFFFFFFFFFFFFFFFFFF NOT AND EQ DUP1 PUSH2 0x494 JUMPI POP PUSH2 0x493 DUP3 PUSH2 0xBBA JUMP JUMPDEST JUMPDEST SWAP1 POP SWAP2 SWAP1 POP JUMP JUMPDEST PUSH32 0x632405D99F3A4D6966C57F76CC301A3C7CAB4B56CE8E567A4198E9434B3FBB5B DUP2 JUMP JUMPDEST PUSH2 0x4C7 PUSH2 0xC23 JUMP JUMPDEST PUSH2 0x4F1 PUSH32 0x632405D99F3A4D6966C57F76CC301A3C7CAB4B56CE8E567A4198E9434B3FBB5B DUP3 PUSH2 0xCAA JUMP JUMPDEST POP POP JUMP JUMPDEST POP POP JUMP JUMPDEST PUSH0 PUSH1 0x1 PUSH0 DUP4 DUP2 MSTORE PUSH1 0x20 ADD SWAP1 DUP2 MSTORE PUSH1 0x20 ADD PUSH0 KECCAK256 PUSH1 0x1 ADD SLOAD SWAP1 POP SWAP2 SWAP1 POP JUMP JUMPDEST PUSH2 0x51F DUP3 PUSH2 0x4F9 JUMP JUMPDEST PUSH2 0x528 DUP2 PUSH2 0xD93 JUMP JUMPDEST PUSH2 0x532 DUP4 DUP4 PUSH2 0xCAA JUMP JUMPDEST POP POP POP POP JUMP JUMPDEST PUSH2 0x540 PUSH2 0xDA7 JUMP JUMPDEST PUSH20 0xFFFFFFFFFFFFFFFFFFFFFFFFFFFFFFFFFFFFFFFF AND DUP2 PUSH20 0xFFFFFFFFFFFFFFFFFFFFFFFFFFFFFFFFFFFFFFFF AND EQ PUSH2 0x5A4 JUMPI PUSH1 0x40 MLOAD PUSH32 0x6697B23200000000000000000000000000000000000000000000000000000000 DUP2 MSTORE PUSH1 0x4 ADD PUSH1 0x40 MLOAD DUP1 SWAP2 SUB SWAP1 REVERT JUMPDEST PUSH2 0x5AE DUP3 DUP3 PUSH2 0xDAE JUMP JUMPDEST POP POP POP JUMP JUMPDEST PUSH1 0x2 SLOAD DUP2 JUMP JUMPDEST POP POP POP POP POP POP POP JUMP JUMPDEST PUSH32 0x632405D99F3A4D6966C57F76CC301A3C7CAB4B56CE8E567A4198E9434B3FBB5B PUSH2 0x5EC DUP2 PUSH2 0xD93 JUMP JUMPDEST PUSH2 0x616 PUSH32 0xDF8B4C520FFE197C5343C6F5AEC59570151EF9A492F2C624FD45DDDE6135EC42 DUP4 PUSH2 0xDAE JUMP JUMPDEST POP POP POP JUMP JUMPDEST PUSH2 0x623 PUSH2 0xC23 JUMP JUMPDEST PUSH2 0x62C PUSH0 PUSH2 0xE98 JUMP JUMPDEST JUMP JUMPDEST PUSH32 0xDF8B4C520FFE197C5343C6F5AEC59570151EF9A492F2C624FD45DDDE6135EC42 DUP2 JUMP JUMPDEST PUSH1 0x3 PUSH1 0x20 MSTORE DUP1 PUSH0 MSTORE PUSH1 0x40 PUSH0 KECCAK256 PUSH0 SWAP2 POP SWAP1 POP DUP1 PUSH0 ADD SLOAD SWAP1 DUP1 PUSH1 0x1 ADD DUP1 SLOAD PUSH2 0x677 SWAP1 PUSH2 0x1757 JUMP JUMPDEST DUP1 PUSH1 0x1F ADD PUSH1 0x20 DUP1 SWAP2 DIV MUL PUSH1 0x20 ADD PUSH1 0x40 MLOAD SWAP1 DUP2 ADD PUSH1 0x40 MSTORE DUP1 SWAP3 SWAP2 SWAP1 DUP2 DUP2 MSTORE PUSH1 0x20 ADD DUP3 DUP1 SLOAD PUSH2 0x6A3 SWAP1 PUSH2 0x1757 JUMP JUMPDEST DUP1 ISZERO PUSH2 0x6EE JUMPI DUP1 PUSH1 0x1F LT PUSH2 0x6C5 JUMPI PUSH2 0x100 DUP1 DUP4 SLOAD DIV MUL DUP4 MSTORE SWAP2 PUSH1 0x20 ADD SWAP2 PUSH2 0x6EE JUMP JUMPDEST DUP3 ADD SWAP2 SWAP1 PUSH0 MSTORE PUSH1 0x20 PUSH0 KECCAK256 SWAP1 JUMPDEST DUP2 SLOAD DUP2 MSTORE SWAP1 PUSH1 0x1 ADD SWAP1 PUSH1 0x20 ADD DUP1 DUP4 GT PUSH2 0x6D1 JUMPI DUP3 SWAP1 SUB PUSH1 0x1F AND DUP3 ADD SWAP2 JUMPDEST POP POP POP POP POP SWAP1 DUP1 PUSH1 0x2 ADD DUP1 SLOAD PUSH2 0x703 SWAP1 PUSH2 0x1757 JUMP JUMPDEST DUP1 PUSH1 0x1F ADD PUSH1 0x20 DUP1 SWAP2 DIV MUL PUSH1 0x20 ADD PUSH1 0x40 MLOAD SWAP1 DUP2 ADD PUSH1 0x40 MSTORE DUP1 SWAP3 SWAP2 SWAP1 DUP2 DUP2 MSTORE PUSH1 0x20 ADD DUP3 DUP1 SLOAD PUSH2 0x72F SWAP1 PUSH2 0x1757 JUMP JUMPDEST DUP1 ISZERO PUSH2 0x77A JUMPI DUP1 PUSH1 0x1F LT PUSH2 0x751 JUMPI PUSH2 0x100 DUP1 DUP4 SLOAD DIV MUL DUP4 MSTORE SWAP2 PUSH1 0x20 ADD SWAP2 PUSH2 0x77A JUMP JUMPDEST DUP3 ADD SWAP2 SWAP1 PUSH0 MSTORE PUSH1 0x20 PUSH0 KECCAK256 SWAP1 JUMPDEST DUP2 SLOAD DUP2 MSTORE SWAP1 PUSH1 0x1 ADD SWAP1 PUSH1 0x20 ADD DUP1 DUP4 GT PUSH2 0x75D JUMPI DUP3 SWAP1 SUB PUSH1 0x1F AND DUP3 ADD SWAP2 JUMPDEST POP POP POP POP POP SWAP1 DUP1 PUSH1 0x3 ADD DUP1 SLOAD PUSH2 0x78F SWAP1 PUSH2 0x1757 JUMP JUMPDEST DUP1 PUSH1 0x1F ADD PUSH1 0x20 DUP1 SWAP2 DIV MUL PUSH1 0x20 ADD PUSH1 0x40 MLOAD SWAP1 DUP2 ADD PUSH1 0x40 MSTORE DUP1 SWAP3 SWAP2 SWAP1 DUP2 DUP2 MSTORE PUSH1 0x20 ADD DUP3 DUP1 SLOAD PUSH2 0x7BB SWAP1 PUSH2 0x1757 JUMP JUMPDEST DUP1 ISZERO PUSH2 0x806 JUMPI DUP1 PUSH1 0x1F LT PUSH2 0x7DD JUMPI PUSH2 0x100 DUP1 DUP4 SLOAD DIV MUL DUP4 MSTORE SWAP2 PUSH1 0x20 ADD SWAP2 PUSH2 0x806 JUMP JUMPDEST DUP3 ADD SWAP2 SWAP1 PUSH0 MSTORE PUSH1 0x20 PUSH0 KECCAK256 SWAP1 JUMPDEST DUP2 SLOAD DUP2 MSTORE SWAP1 PUSH1 0x1 ADD SWAP1 PUSH1 0x20 ADD DUP1 DUP4 GT PUSH2 0x7E9 JUMPI DUP3 SWAP1 SUB PUSH1 0x1F AND DUP3 ADD SWAP2 JUMPDEST POP POP POP POP POP SWAP1 DUP1 PUSH1 0x4 ADD SLOAD SWAP1 DUP1 PUSH1 0x5 ADD SLOAD SWAP1 DUP1 PUSH1 0x6 ADD PUSH1 0x40 MLOAD DUP1 PUSH1 0xC0 ADD PUSH1 0x40 MSTORE SWAP1 DUP2 PUSH0 DUP3 ADD DUP1 SLOAD PUSH2 0x836 SWAP1 PUSH2 0x1757 JUMP JUMPDEST DUP1 PUSH1 0x1F ADD PUSH1 0x20 DUP1 SWAP2 DIV MUL PUSH1 0x20 ADD PUSH1 0x40 MLOAD SWAP1 DUP2 ADD PUSH1 0x40 MSTORE DUP1 SWAP3 SWAP2 SWAP1 DUP2 DUP2 MSTORE PUSH1 0x20 ADD DUP3 DUP1 SLOAD PUSH2 0x862 SWAP1 PUSH2 0x1757 JUMP JUMPDEST DUP1 ISZERO PUSH2 0x8AD JUMPI DUP1 PUSH1 0x1F LT PUSH2 0x884 JUMPI PUSH2 0x100 DUP1 DUP4 SLOAD DIV MUL DUP4 MSTORE SWAP2 PUSH1 0x20 ADD SWAP2 PUSH2 0x8AD JUMP JUMPDEST DUP3 ADD SWAP2 SWAP1 PUSH0 MSTORE PUSH1 0x20 PUSH0 KECCAK256 SWAP1 JUMPDEST DUP2 SLOAD DUP2 MSTORE SWAP1 PUSH1 0x1 ADD SWAP1 PUSH1 0x20 ADD DUP1 DUP4 GT PUSH2 0x890 JUMPI DUP3 SWAP1 SUB PUSH1 0x1F AND DUP3 ADD SWAP2 JUMPDEST POP POP POP POP POP DUP2 MSTORE PUSH1 0x20 ADD PUSH1 0x1 DUP3 ADD DUP1 SLOAD PUSH2 0x8C6 SWAP1 PUSH2 0x1757 JUMP JUMPDEST DUP1 PUSH1 0x1F ADD PUSH1 0x20 DUP1 SWAP2 DIV MUL PUSH1 0x20 ADD PUSH1 0x40 MLOAD SWAP1 DUP2 ADD PUSH1 0x40 MSTORE DUP1 SWAP3 SWAP2 SWAP1 DUP2 DUP2 MSTORE PUSH1 0x20 ADD DUP3 DUP1 SLOAD PUSH2 0x8F2 SWAP1 PUSH2 0x1757 JUMP JUMPDEST DUP1 ISZERO PUSH2 0x93D JUMPI DUP1 PUSH1 0x1F LT PUSH2 0x914 JUMPI PUSH2 0x100 DUP1 DUP4 SLOAD DIV MUL DUP4 MSTORE SWAP2 PUSH1 0x20 ADD SWAP2 PUSH2 0x93D JUMP JUMPDEST DUP3 ADD SWAP2 SWAP1 PUSH0 MSTORE PUSH1 0x20 PUSH0 KECCAK256 SWAP1 JUMPDEST DUP2 SLOAD DUP2 MSTORE SWAP1 PUSH1 0x1 ADD SWAP1 PUSH1 0x20 ADD DUP1 DUP4 GT PUSH2 0x920 JUMPI DUP3 SWAP1 SUB PUSH1 0x1F AND DUP3 ADD SWAP2 JUMPDEST POP POP POP POP POP DUP2 MSTORE PUSH1 0x20 ADD PUSH1 0x2 DUP3 ADD SLOAD DUP2 MSTORE PUSH1 0x20 ADD PUSH1 0x3 DUP3 ADD PUSH0 SWAP1 SLOAD SWAP1 PUSH2 0x100 EXP SWAP1 DIV PUSH1 0xFF AND ISZERO ISZERO ISZERO ISZERO DUP2 MSTORE PUSH1 0x20 ADD PUSH1 0x3 DUP3 ADD PUSH1 0x1 SWAP1 SLOAD SWAP1 PUSH2 0x100 EXP SWAP1 DIV PUSH1 0xFF AND ISZERO ISZERO ISZERO ISZERO DUP2 MSTORE PUSH1 0x20 ADD PUSH1 0x4 DUP3 ADD SLOAD DUP2 MSTORE POP POP SWAP1 POP DUP8 JUMP JUMPDEST PUSH2 0x99C PUSH2 0xC23 JUMP JUMPDEST PUSH2 0x9C6 PUSH32 0x632405D99F3A4D6966C57F76CC301A3C7CAB4B56CE8E567A4198E9434B3FBB5B DUP3 PUSH2 0xDAE JUMP JUMPDEST POP POP JUMP JUMPDEST PUSH0 DUP1 PUSH0 SWAP1 SLOAD SWAP1 PUSH2 0x100 EXP SWAP1 DIV PUSH20 0xFFFFFFFFFFFFFFFFFFFFFFFFFFFFFFFFFFFFFFFF AND SWAP1 POP SWAP1 JUMP JUMPDEST PUSH0 PUSH1 0x1 PUSH0 DUP5 DUP2 MSTORE PUSH1 0x20 ADD SWAP1 DUP2 MSTORE PUSH1 0x20 ADD PUSH0 KECCAK256 PUSH0 ADD PUSH0 DUP4 PUSH20 0xFFFFFFFFFFFFFFFFFFFFFFFFFFFFFFFFFFFFFFFF AND PUSH20 0xFFFFFFFFFFFFFFFFFFFFFFFFFFFFFFFFFFFFFFFF AND DUP2 MSTORE PUSH1 0x20 ADD SWAP1 DUP2 MSTORE PUSH1 0x20 ADD PUSH0 KECCAK256 PUSH0 SWAP1 SLOAD SWAP1 PUSH2 0x100 EXP SWAP1 DIV PUSH1 0xFF AND SWAP1 POP SWAP3 SWAP2 POP POP JUMP JUMPDEST PUSH0 DUP1 SHL DUP2 JUMP JUMPDEST PUSH1 0x5 PUSH1 0x20 MSTORE DUP1 PUSH0 MSTORE PUSH1 0x40 PUSH0 KECCAK256 PUSH0 SWAP2 POP SLOAD SWAP1 PUSH2 0x100 EXP SWAP1 DIV PUSH20 0xFFFFFFFFFFFFFFFFFFFFFFFFFFFFFFFFFFFFFFFF AND DUP2 JUMP JUMPDEST PUSH1 0x4 PUSH1 0x20 MSTORE DUP1 PUSH0 MSTORE PUSH1 0x40 PUSH0 KECCAK256 PUSH0 SWAP2 POP SLOAD SWAP1 PUSH2 0x100 EXP SWAP1 DIV PUSH20 0xFFFFFFFFFFFFFFFFFFFFFFFFFFFFFFFFFFFFFFFF AND DUP2 JUMP JUMPDEST PUSH2 0xAC4 DUP3 PUSH2 0x4F9 JUMP JUMPDEST PUSH2 0xACD DUP2 PUSH2 0xD93 JUMP JUMPDEST PUSH2 0xAD7 DUP4 DUP4 PUSH2 0xDAE JUMP JUMPDEST POP POP POP POP JUMP JUMPDEST PUSH32 0x632405D99F3A4D6966C57F76CC301A3C7CAB4B56CE8E567A4198E9434B3FBB5B PUSH2 0xB07 DUP2 PUSH2 0xD93 JUMP JUMPDEST PUSH2 0xB31 PUSH32 0xDF8B4C520FFE197C5343C6F5AEC59570151EF9A492F2C624FD45DDDE6135EC42 DUP4 PUSH2 0xCAA JUMP JUMPDEST POP POP POP JUMP JUMPDEST PUSH2 0xB3E PUSH2 0xC23 JUMP JUMPDEST PUSH0 PUSH20 0xFFFFFFFFFFFFFFFFFFFFFFFFFFFFFFFFFFFFFFFF AND DUP2 PUSH20 0xFFFFFFFFFFFFFFFFFFFFFFFFFFFFFFFFFFFFFFFF AND SUB PUSH2 0xBAE JUMPI PUSH0 PUSH1 0x40 MLOAD PUSH32 0x1E4FBDF700000000000000000000000000000000000000000000000000000000 DUP2 MSTORE PUSH1 0x4 ADD PUSH2 0xBA5 SWAP2 SWAP1 PUSH2 0x1711 JUMP JUMPDEST PUSH1 0x40 MLOAD DUP1 SWAP2 SUB SWAP1 REVERT JUMPDEST PUSH2 0xBB7 DUP2 PUSH2 0xE98 JUMP JUMPDEST POP JUMP JUMPDEST PUSH0 PUSH32 0x1FFC9A700000000000000000000000000000000000000000000000000000000 PUSH28 0xFFFFFFFFFFFFFFFFFFFFFFFFFFFFFFFFFFFFFFFFFFFFFFFFFFFFFFFF NOT AND DUP3 PUSH28 0xFFFFFFFFFFFFFFFFFFFFFFFFFFFFFFFFFFFFFFFFFFFFFFFFFFFFFFFF NOT AND EQ SWAP1 POP SWAP2 SWAP1 POP JUMP JUMPDEST PUSH2 0xC2B PUSH2 0xDA7 JUMP JUMPDEST PUSH20 0xFFFFFFFFFFFFFFFFFFFFFFFFFFFFFFFFFFFFFFFF AND PUSH2 0xC49 PUSH2 0x9CA JUMP JUMPDEST PUSH20 0xFFFFFFFFFFFFFFFFFFFFFFFFFFFFFFFFFFFFFFFF AND EQ PUSH2 0xCA8 JUMPI PUSH2 0xC6C PUSH2 0xDA7 JUMP JUMPDEST PUSH1 0x40 MLOAD PUSH32 0x118CDAA700000000000000000000000000000000000000000000000000000000 DUP2 MSTORE PUSH1 0x4 ADD PUSH2 0xC9F SWAP2 SWAP1 PUSH2 0x1711 JUMP JUMPDEST PUSH1 0x40 MLOAD DUP1 SWAP2 SUB SWAP1 REVERT JUMPDEST JUMP JUMPDEST PUSH0 PUSH2 0xCB5 DUP4 DUP4 PUSH2 0x9F1 JUMP JUMPDEST PUSH2 0xD89 JUMPI PUSH1 0x1 DUP1 PUSH0 DUP6 DUP2 MSTORE PUSH1 0x20 ADD SWAP1 DUP2 MSTORE PUSH1 0x20 ADD PUSH0 KECCAK256 PUSH0 ADD PUSH0 DUP5 PUSH20 0xFFFFFFFFFFFFFFFFFFFFFFFFFFFFFFFFFFFFFFFF AND PUSH20 0xFFFFFFFFFFFFFFFFFFFFFFFFFFFFFFFFFFFFFFFF AND DUP2 MSTORE PUSH1 0x20 ADD SWAP1 DUP2 MSTORE PUSH1 0x20 ADD PUSH0 KECCAK256 PUSH0 PUSH2 0x100 EXP DUP2 SLOAD DUP2 PUSH1 0xFF MUL NOT AND SWAP1 DUP4 ISZERO ISZERO MUL OR SWAP1 SSTORE POP PUSH2 0xD26 PUSH2 0xDA7 JUMP JUMPDEST PUSH20 0xFFFFFFFFFFFFFFFFFFFFFFFFFFFFFFFFFFFFFFFF AND DUP3 PUSH20 0xFFFFFFFFFFFFFFFFFFFFFFFFFFFFFFFFFFFFFFFF AND DUP5 PUSH32 0x2F8788117E7EFF1D82E926EC794901D17C78024A50270940304540A733656F0D PUSH1 0x40 MLOAD PUSH1 0x40 MLOAD DUP1 SWAP2 SUB SWAP1 LOG4 PUSH1 0x1 SWAP1 POP PUSH2 0xD8D JUMP JUMPDEST PUSH0 SWAP1 POP JUMPDEST SWAP3 SWAP2 POP POP JUMP JUMPDEST PUSH2 0xDA4 DUP2 PUSH2 0xD9F PUSH2 0xDA7 JUMP JUMPDEST PUSH2 0xF59 JUMP JUMPDEST POP JUMP JUMPDEST PUSH0 CALLER SWAP1 POP SWAP1 JUMP JUMPDEST PUSH0 PUSH2 0xDB9 DUP4 DUP4 PUSH2 0x9F1 JUMP JUMPDEST ISZERO PUSH2 0xE8E JUMPI PUSH0 PUSH1 0x1 PUSH0 DUP6 DUP2 MSTORE PUSH1 0x20 ADD SWAP1 DUP2 MSTORE PUSH1 0x20 ADD PUSH0 KECCAK256 PUSH0 ADD PUSH0 DUP5 PUSH20 0xFFFFFFFFFFFFFFFFFFFFFFFFFFFFFFFFFFFFFFFF AND PUSH20 0xFFFFFFFFFFFFFFFFFFFFFFFFFFFFFFFFFFFFFFFF AND DUP2 MSTORE PUSH1 0x20 ADD SWAP1 DUP2 MSTORE PUSH1 0x20 ADD PUSH0 KECCAK256 PUSH0 PUSH2 0x100 EXP DUP2 SLOAD DUP2 PUSH1 0xFF MUL NOT AND SWAP1 DUP4 ISZERO ISZERO MUL OR SWAP1 SSTORE POP PUSH2 0xE2B PUSH2 0xDA7 JUMP JUMPDEST PUSH20 0xFFFFFFFFFFFFFFFFFFFFFFFFFFFFFFFFFFFFFFFF AND DUP3 PUSH20 0xFFFFFFFFFFFFFFFFFFFFFFFFFFFFFFFFFFFFFFFF AND DUP5 PUSH32 0xF6391F5C32D9C69D2A47EA670B442974B53935D1EDC7FD64EB21E047A839171B PUSH1 0x40 MLOAD PUSH1 0x40 MLOAD DUP1 SWAP2 SUB SWAP1 LOG4 PUSH1 0x1 SWAP1 POP PUSH2 0xE92 JUMP JUMPDEST PUSH0 SWAP1 POP JUMPDEST SWAP3 SWAP2 POP POP JUMP JUMPDEST PUSH0 DUP1 PUSH0 SWAP1 SLOAD SWAP1 PUSH2 0x100 EXP SWAP1 DIV PUSH20 0xFFFFFFFFFFFFFFFFFFFFFFFFFFFFFFFFFFFFFFFF AND SWAP1 POP DUP2 PUSH0 DUP1 PUSH2 0x100 EXP DUP2 SLOAD DUP2 PUSH20 0xFFFFFFFFFFFFFFFFFFFFFFFFFFFFFFFFFFFFFFFF MUL NOT AND SWAP1 DUP4 PUSH20 0xFFFFFFFFFFFFFFFFFFFFFFFFFFFFFFFFFFFFFFFF AND MUL OR SWAP1 SSTORE POP DUP2 PUSH20 0xFFFFFFFFFFFFFFFFFFFFFFFFFFFFFFFFFFFFFFFF AND DUP2 PUSH20 0xFFFFFFFFFFFFFFFFFFFFFFFFFFFFFFFFFFFFFFFF AND PUSH32 0x8BE0079C531659141344CD1FD0A4F28419497F9722A3DAAFE3B4186F6B6457E0 PUSH1 0x40 MLOAD PUSH1 0x40 MLOAD DUP1 SWAP2 SUB SWAP1 LOG3 POP POP JUMP JUMPDEST PUSH2 0xF63 DUP3 DUP3 PUSH2 0x9F1 JUMP JUMPDEST PUSH2 0xFA6 JUMPI DUP1 DUP3 PUSH1 0x40 MLOAD PUSH32 0xE2517D3F00000000000000000000000000000000000000000000000000000000 DUP2 MSTORE PUSH1 0x4 ADD PUSH2 0xF9D SWAP3 SWAP2 SWAP1 PUSH2 0x1787 JUMP JUMPDEST PUSH1 0x40 MLOAD DUP1 SWAP2 SUB SWAP1 REVERT JUMPDEST POP POP JUMP JUMPDEST PUSH0 PUSH1 0x40 MLOAD SWAP1 POP SWAP1 JUMP JUMPDEST PUSH0 DUP1 REVERT JUMPDEST PUSH0 DUP1 REVERT JUMPDEST PUSH0 PUSH32 0xFFFFFFFF00000000000000000000000000000000000000000000000000000000 DUP3 AND SWAP1 POP SWAP2 SWAP1 POP JUMP JUMPDEST PUSH2 0xFEF DUP2 PUSH2 0xFBB JUMP JUMPDEST DUP2 EQ PUSH2 0xFF9 JUMPI PUSH0 DUP1 REVERT JUMPDEST POP JUMP JUMPDEST PUSH0 DUP2 CALLDATALOAD SWAP1 POP PUSH2 0x100A DUP2 PUSH2 0xFE6 JUMP JUMPDEST SWAP3 SWAP2 POP POP JUMP JUMPDEST PUSH0 PUSH1 0x20 DUP3 DUP5 SUB SLT ISZERO PUSH2 0x1025 JUMPI PUSH2 0x1024 PUSH2 0xFB3 JUMP JUMPDEST JUMPDEST PUSH0 PUSH2 0x1032 DUP5 DUP3 DUP6 ADD PUSH2 0xFFC JUMP JUMPDEST SWAP2 POP POP SWAP3 SWAP2 POP POP JUMP JUMPDEST PUSH0 DUP2 ISZERO ISZERO SWAP1 POP SWAP2 SWAP1 POP JUMP JUMPDEST PUSH2 0x104F DUP2 PUSH2 0x103B JUMP JUMPDEST DUP3 MSTORE POP POP JUMP JUMPDEST PUSH0 PUSH1 0x20 DUP3 ADD SWAP1 POP PUSH2 0x1068 PUSH0 DUP4 ADD DUP5 PUSH2 0x1046 JUMP JUMPDEST SWAP3 SWAP2 POP POP JUMP JUMPDEST PUSH0 DUP2 SWAP1 POP SWAP2 SWAP1 POP JUMP JUMPDEST PUSH2 0x1080 DUP2 PUSH2 0x106E JUMP JUMPDEST DUP3 MSTORE POP POP JUMP JUMPDEST PUSH0 PUSH1 0x20 DUP3 ADD SWAP1 POP PUSH2 0x1099 PUSH0 DUP4 ADD DUP5 PUSH2 0x1077 JUMP JUMPDEST SWAP3 SWAP2 POP POP JUMP JUMPDEST PUSH0 PUSH20 0xFFFFFFFFFFFFFFFFFFFFFFFFFFFFFFFFFFFFFFFF DUP3 AND SWAP1 POP SWAP2 SWAP1 POP JUMP JUMPDEST PUSH0 PUSH2 0x10C8 DUP3 PUSH2 0x109F JUMP JUMPDEST SWAP1 POP SWAP2 SWAP1 POP JUMP JUMPDEST PUSH2 0x10D8 DUP2 PUSH2 0x10BE JUMP JUMPDEST DUP2 EQ PUSH2 0x10E2 JUMPI PUSH0 DUP1 REVERT JUMPDEST POP JUMP JUMPDEST PUSH0 DUP2 CALLDATALOAD SWAP1 POP PUSH2 0x10F3 DUP2 PUSH2 0x10CF JUMP JUMPDEST SWAP3 SWAP2 POP POP JUMP JUMPDEST PUSH0 PUSH1 0x20 DUP3 DUP5 SUB SLT ISZERO PUSH2 0x110E JUMPI PUSH2 0x110D PUSH2 0xFB3 JUMP JUMPDEST JUMPDEST PUSH0 PUSH2 0x111B DUP5 DUP3 DUP6 ADD PUSH2 0x10E5 JUMP JUMPDEST SWAP2 POP POP SWAP3 SWAP2 POP POP JUMP JUMPDEST PUSH0 DUP2 SWAP1 POP SWAP2 SWAP1 POP JUMP JUMPDEST PUSH2 0x1136 DUP2 PUSH2 0x1124 JUMP JUMPDEST DUP2 EQ PUSH2 0x1140 JUMPI PUSH0 DUP1 REVERT JUMPDEST POP JUMP JUMPDEST PUSH0 DUP2 CALLDATALOAD SWAP1 POP PUSH2 0x1151 DUP2 PUSH2 0x112D JUMP JUMPDEST SWAP3 SWAP2 POP POP JUMP JUMPDEST PUSH0 DUP1 REVERT JUMPDEST PUSH0 DUP1 REVERT JUMPDEST PUSH0 PUSH1 0x1F NOT PUSH1 0x1F DUP4 ADD AND SWAP1 POP SWAP2 SWAP1 POP JUMP JUMPDEST PUSH32 0x4E487B7100000000000000000000000000000000000000000000000000000000 PUSH0 MSTORE PUSH1 0x41 PUSH1 0x4 MSTORE PUSH1 0x24 PUSH0 REVERT JUMPDEST PUSH2 0x11A5 DUP3 PUSH2 0x115F JUMP JUMPDEST DUP2 ADD DUP2 DUP2 LT PUSH8 0xFFFFFFFFFFFFFFFF DUP3 GT OR ISZERO PUSH2 0x11C4 JUMPI PUSH2 0x11C3 PUSH2 0x116F JUMP JUMPDEST JUMPDEST DUP1 PUSH1 0x40 MSTORE POP POP POP JUMP JUMPDEST PUSH0 PUSH2 0x11D6 PUSH2 0xFAA JUMP JUMPDEST SWAP1 POP PUSH2 0x11E2 DUP3 DUP3 PUSH2 0x119C JUMP JUMPDEST SWAP2 SWAP1 POP JUMP JUMPDEST PUSH0 PUSH8 0xFFFFFFFFFFFFFFFF DUP3 GT ISZERO PUSH2 0x1201 JUMPI PUSH2 0x1200 PUSH2 0x116F JUMP JUMPDEST JUMPDEST PUSH2 0x120A DUP3 PUSH2 0x115F JUMP JUMPDEST SWAP1 POP PUSH1 0x20 DUP2 ADD SWAP1 POP SWAP2 SWAP1 POP JUMP JUMPDEST DUP3 DUP2 DUP4 CALLDATACOPY PUSH0 DUP4 DUP4 ADD MSTORE POP POP POP JUMP JUMPDEST PUSH0 PUSH2 0x1237 PUSH2 0x1232 DUP5 PUSH2 0x11E7 JUMP JUMPDEST PUSH2 0x11CD JUMP JUMPDEST SWAP1 POP DUP3 DUP2 MSTORE PUSH1 0x20 DUP2 ADD DUP5 DUP5 DUP5 ADD GT ISZERO PUSH2 0x1253 JUMPI PUSH2 0x1252 PUSH2 0x115B JUMP JUMPDEST JUMPDEST PUSH2 0x125E DUP5 DUP3 DUP6 PUSH2 0x1217 JUMP JUMPDEST POP SWAP4 SWAP3 POP POP POP JUMP JUMPDEST PUSH0 DUP3 PUSH1 0x1F DUP4 ADD SLT PUSH2 0x127A JUMPI PUSH2 0x1279 PUSH2 0x1157 JUMP JUMPDEST JUMPDEST DUP2 CALLDATALOAD PUSH2 0x128A DUP5 DUP3 PUSH1 0x20 DUP7 ADD PUSH2 0x1225 JUMP JUMPDEST SWAP2 POP POP SWAP3 SWAP2 POP POP JUMP JUMPDEST PUSH0 DUP1 PUSH1 0x40 DUP4 DUP6 SUB SLT ISZERO PUSH2 0x12A9 JUMPI PUSH2 0x12A8 PUSH2 0xFB3 JUMP JUMPDEST JUMPDEST PUSH0 PUSH2 0x12B6 DUP6 DUP3 DUP7 ADD PUSH2 0x1143 JUMP JUMPDEST SWAP3 POP POP PUSH1 0x20 DUP4 ADD CALLDATALOAD PUSH8 0xFFFFFFFFFFFFFFFF DUP2 GT ISZERO PUSH2 0x12D7 JUMPI PUSH2 0x12D6 PUSH2 0xFB7 JUMP JUMPDEST JUMPDEST PUSH2 0x12E3 DUP6 DUP3 DUP7 ADD PUSH2 0x1266 JUMP JUMPDEST SWAP2 POP POP SWAP3 POP SWAP3 SWAP1 POP JUMP JUMPDEST PUSH2 0x12F6 DUP2 PUSH2 0x106E JUMP JUMPDEST DUP2 EQ PUSH2 0x1300 JUMPI PUSH0 DUP1 REVERT JUMPDEST POP JUMP JUMPDEST PUSH0 DUP2 CALLDATALOAD SWAP1 POP PUSH2 0x1311 DUP2 PUSH2 0x12ED JUMP JUMPDEST SWAP3 SWAP2 POP POP JUMP JUMPDEST PUSH0 PUSH1 0x20 DUP3 DUP5 SUB SLT ISZERO PUSH2 0x132C JUMPI PUSH2 0x132B PUSH2 0xFB3 JUMP JUMPDEST JUMPDEST PUSH0 PUSH2 0x1339 DUP5 DUP3 DUP6 ADD PUSH2 0x1303 JUMP JUMPDEST SWAP2 POP POP SWAP3 SWAP2 POP POP JUMP JUMPDEST PUSH0 DUP1 PUSH1 0x40 DUP4 DUP6 SUB SLT ISZERO PUSH2 0x1358 JUMPI PUSH2 0x1357 PUSH2 0xFB3 JUMP JUMPDEST JUMPDEST PUSH0 PUSH2 0x1365 DUP6 DUP3 DUP7 ADD PUSH2 0x1303 JUMP JUMPDEST SWAP3 POP POP PUSH1 0x20 PUSH2 0x1376 DUP6 DUP3 DUP7 ADD PUSH2 0x10E5 JUMP JUMPDEST SWAP2 POP POP SWAP3 POP SWAP3 SWAP1 POP JUMP JUMPDEST PUSH2 0x1389 DUP2 PUSH2 0x1124 JUMP JUMPDEST DUP3 MSTORE POP POP JUMP JUMPDEST PUSH0 PUSH1 0x20 DUP3 ADD SWAP1 POP PUSH2 0x13A2 PUSH0 DUP4 ADD DUP5 PUSH2 0x1380 JUMP JUMPDEST SWAP3 SWAP2 POP POP JUMP JUMPDEST PUSH2 0x13B1 DUP2 PUSH2 0x103B JUMP JUMPDEST DUP2 EQ PUSH2 0x13BB JUMPI PUSH0 DUP1 REVERT JUMPDEST POP JUMP JUMPDEST PUSH0 DUP2 CALLDATALOAD SWAP1 POP PUSH2 0x13CC DUP2 PUSH2 0x13A8 JUMP JUMPDEST SWAP3 SWAP2 POP POP JUMP JUMPDEST PUSH0 DUP1 PUSH0 DUP1 PUSH0 DUP1 PUSH0 PUSH1 0xE0 DUP9 DUP11 SUB SLT ISZERO PUSH2 0x13ED JUMPI PUSH2 0x13EC PUSH2 0xFB3 JUMP JUMPDEST JUMPDEST PUSH0 DUP9 ADD CALLDATALOAD PUSH8 0xFFFFFFFFFFFFFFFF DUP2 GT ISZERO PUSH2 0x140A JUMPI PUSH2 0x1409 PUSH2 0xFB7 JUMP JUMPDEST JUMPDEST PUSH2 0x1416 DUP11 DUP3 DUP12 ADD PUSH2 0x1266 JUMP JUMPDEST SWAP8 POP POP PUSH1 0x20 DUP9 ADD CALLDATALOAD PUSH8 0xFFFFFFFFFFFFFFFF DUP2 GT ISZERO PUSH2 0x1437 JUMPI PUSH2 0x1436 PUSH2 0xFB7 JUMP JUMPDEST JUMPDEST PUSH2 0x1443 DUP11 DUP3 DUP12 ADD PUSH2 0x1266 JUMP JUMPDEST SWAP7 POP POP PUSH1 0x40 DUP9 ADD CALLDATALOAD PUSH8 0xFFFFFFFFFFFFFFFF DUP2 GT ISZERO PUSH2 0x1464 JUMPI PUSH2 0x1463 PUSH2 0xFB7 JUMP JUMPDEST JUMPDEST PUSH2 0x1470 DUP11 DUP3 DUP12 ADD PUSH2 0x1266 JUMP JUMPDEST SWAP6 POP POP PUSH1 0x60 PUSH2 0x1481 DUP11 DUP3 DUP12 ADD PUSH2 0x1143 JUMP JUMPDEST SWAP5 POP POP PUSH1 0x80 DUP9 ADD CALLDATALOAD PUSH8 0xFFFFFFFFFFFFFFFF DUP2 GT ISZERO PUSH2 0x14A2 JUMPI PUSH2 0x14A1 PUSH2 0xFB7 JUMP JUMPDEST JUMPDEST PUSH2 0x14AE DUP11 DUP3 DUP12 ADD PUSH2 0x1266 JUMP JUMPDEST SWAP4 POP POP PUSH1 0xA0 DUP9 ADD CALLDATALOAD PUSH8 0xFFFFFFFFFFFFFFFF DUP2 GT ISZERO PUSH2 0x14CF JUMPI PUSH2 0x14CE PUSH2 0xFB7 JUMP JUMPDEST JUMPDEST PUSH2 0x14DB DUP11 DUP3 DUP12 ADD PUSH2 0x1266 JUMP JUMPDEST SWAP3 POP POP PUSH1 0xC0 PUSH2 0x14EC DUP11 DUP3 DUP12 ADD PUSH2 0x13BE JUMP JUMPDEST SWAP2 POP POP SWAP3 SWAP6 SWAP9 SWAP2 SWAP5 SWAP8 POP SWAP3 SWAP6 POP JUMP JUMPDEST PUSH0 PUSH1 0x20 DUP3 DUP5 SUB SLT ISZERO PUSH2 0x1510 JUMPI PUSH2 0x150F PUSH2 0xFB3 JUMP JUMPDEST JUMPDEST PUSH0 PUSH2 0x151D DUP5 DUP3 DUP6 ADD PUSH2 0x1143 JUMP JUMPDEST SWAP2 POP POP SWAP3 SWAP2 POP POP JUMP JUMPDEST PUSH0 DUP2 MLOAD SWAP1 POP SWAP2 SWAP1 POP JUMP JUMPDEST PUSH0 DUP3 DUP3 MSTORE PUSH1 0x20 DUP3 ADD SWAP1 POP SWAP3 SWAP2 POP POP JUMP JUMPDEST DUP3 DUP2 DUP4 MCOPY PUSH0 DUP4 DUP4 ADD MSTORE POP POP POP JUMP JUMPDEST PUSH0 PUSH2 0x1558 DUP3 PUSH2 0x1526 JUMP JUMPDEST PUSH2 0x1562 DUP2 DUP6 PUSH2 0x1530 JUMP JUMPDEST SWAP4 POP PUSH2 0x1572 DUP2 DUP6 PUSH1 0x20 DUP7 ADD PUSH2 0x1540 JUMP JUMPDEST PUSH2 0x157B DUP2 PUSH2 0x115F JUMP JUMPDEST DUP5 ADD SWAP2 POP POP SWAP3 SWAP2 POP POP JUMP JUMPDEST PUSH0 DUP3 DUP3 MSTORE PUSH1 0x20 DUP3 ADD SWAP1 POP SWAP3 SWAP2 POP POP JUMP JUMPDEST PUSH0 PUSH2 0x15A0 DUP3 PUSH2 0x1526 JUMP JUMPDEST PUSH2 0x15AA DUP2 DUP6 PUSH2 0x1586 JUMP JUMPDEST SWAP4 POP PUSH2 0x15BA DUP2 DUP6 PUSH1 0x20 DUP7 ADD PUSH2 0x1540 JUMP JUMPDEST PUSH2 0x15C3 DUP2 PUSH2 0x115F JUMP JUMPDEST DUP5 ADD SWAP2 POP POP SWAP3 SWAP2 POP POP JUMP JUMPDEST PUSH2 0x15D7 DUP2 PUSH2 0x1124 JUMP JUMPDEST DUP3 MSTORE POP POP JUMP JUMPDEST PUSH2 0x15E6 DUP2 PUSH2 0x103B JUMP JUMPDEST DUP3 MSTORE POP POP JUMP JUMPDEST PUSH0 PUSH1 0xC0 DUP4 ADD PUSH0 DUP4 ADD MLOAD DUP5 DUP3 SUB PUSH0 DUP7 ADD MSTORE PUSH2 0x1606 DUP3 DUP3 PUSH2 0x1596 JUMP JUMPDEST SWAP2 POP POP PUSH1 0x20 DUP4 ADD MLOAD DUP5 DUP3 SUB PUSH1 0x20 DUP7 ADD MSTORE PUSH2 0x1620 DUP3 DUP3 PUSH2 0x1596 JUMP JUMPDEST SWAP2 POP POP PUSH1 0x40 DUP4 ADD MLOAD PUSH2 0x1635 PUSH1 0x40 DUP7 ADD DUP3 PUSH2 0x15CE JUMP JUMPDEST POP PUSH1 0x60 DUP4 ADD MLOAD PUSH2 0x1648 PUSH1 0x60 DUP7 ADD DUP3 PUSH2 0x15DD JUMP JUMPDEST POP PUSH1 0x80 DUP4 ADD MLOAD PUSH2 0x165B PUSH1 0x80 DUP7 ADD DUP3 PUSH2 0x15DD JUMP JUMPDEST POP PUSH1 0xA0 DUP4 ADD MLOAD PUSH2 0x166E PUSH1 0xA0 DUP7 ADD DUP3 PUSH2 0x15CE JUMP JUMPDEST POP DUP1 SWAP2 POP POP SWAP3 SWAP2 POP POP JUMP JUMPDEST PUSH0 PUSH1 0xE0 DUP3 ADD SWAP1 POP PUSH2 0x168C PUSH0 DUP4 ADD DUP11 PUSH2 0x1380 JUMP JUMPDEST DUP2 DUP2 SUB PUSH1 0x20 DUP4 ADD MSTORE PUSH2 0x169E DUP2 DUP10 PUSH2 0x154E JUMP JUMPDEST SWAP1 POP DUP2 DUP2 SUB PUSH1 0x40 DUP4 ADD MSTORE PUSH2 0x16B2 DUP2 DUP9 PUSH2 0x154E JUMP JUMPDEST SWAP1 POP DUP2 DUP2 SUB PUSH1 0x60 DUP4 ADD MSTORE PUSH2 0x16C6 DUP2 DUP8 PUSH2 0x154E JUMP JUMPDEST SWAP1 POP PUSH2 0x16D5 PUSH1 0x80 DUP4 ADD DUP7 PUSH2 0x1380 JUMP JUMPDEST PUSH2 0x16E2 PUSH1 0xA0 DUP4 ADD DUP6 PUSH2 0x1380 JUMP JUMPDEST DUP2 DUP2 SUB PUSH1 0xC0 DUP4 ADD MSTORE PUSH2 0x16F4 DUP2 DUP5 PUSH2 0x15EC JUMP JUMPDEST SWAP1 POP SWAP9 SWAP8 POP POP POP POP POP POP POP POP JUMP JUMPDEST PUSH2 0x170B DUP2 PUSH2 0x10BE JUMP JUMPDEST DUP3 MSTORE POP POP JUMP JUMPDEST PUSH0 PUSH1 0x20 DUP3 ADD SWAP1 POP PUSH2 0x1724 PUSH0 DUP4 ADD DUP5 PUSH2 0x1702 JUMP JUMPDEST SWAP3 SWAP2 POP POP JUMP JUMPDEST PUSH32 0x4E487B7100000000000000000000000000000000000000000000000000000000 PUSH0 MSTORE PUSH1 0x22 PUSH1 0x4 MSTORE PUSH1 0x24 PUSH0 REVERT JUMPDEST PUSH0 PUSH1 0x2 DUP3 DIV SWAP1 POP PUSH1 0x1 DUP3 AND DUP1 PUSH2 0x176E JUMPI PUSH1 0x7F DUP3 AND SWAP2 POP JUMPDEST PUSH1 0x20 DUP3 LT DUP2 SUB PUSH2 0x1781 JUMPI PUSH2 0x1780 PUSH2 0x172A JUMP JUMPDEST JUMPDEST POP SWAP2 SWAP1 POP JUMP JUMPDEST PUSH0 PUSH1 0x40 DUP3 ADD SWAP1 POP PUSH2 0x179A PUSH0 DUP4 ADD DUP6 PUSH2 0x1702 JUMP JUMPDEST PUSH2 0x17A7 PUSH1 0x20 DUP4 ADD DUP5 PUSH2 0x1077 JUMP JUMPDEST SWAP4 SWAP3 POP POP POP JUMP INVALID LOG2 PUSH5 0x6970667358 0x22 SLT KECCAK256 0xB1 0xE8 PUSH26 0xAD0F04A4410BB0F576CD2DC6351B59990A96BEAC82B471E0B38A CALLDATALOAD 0xB7 DUP4 PUSH5 0x736F6C6343 STOP ADDMOD BYTE STOP CALLER "
				},
				"gasEstimates": {
					"creation": {
						"codeDepositCost": "1223200",
						"executionCost": "infinite",
						"totalCost": "infinite"
					},
					"external": {
						"ADMIN_ROLE()": "348",
						"AuthorizeCompanyOwner(address)": "infinite",
						"COMPANY_OWNER_ROLE()": "371",
						"DEFAULT_ADMIN_ROLE()": "352",
						"GenerateProduct(string,string,string,uint256,string,string,bool)": "infinite",
						"GrantAdminRole(address)": "infinite",
						"RevokeAdminRole(address)": "infinite",
						"RevokeCompanyOwner(address)": "infinite",
						"companyOwners(uint256)": "2871",
						"getRoleAdmin(bytes32)": "infinite",
						"grantRole(bytes32,address)": "infinite",
						"hasRole(bytes32,address)": "3233",
						"initalizeShipment(uint256,string)": "infinite",
						"nextProductId()": "2492",
						"owner()": "2604",
						"productGenerator(uint256)": "2893",
						"products(uint256)": "infinite",
						"renounceOwnership()": "infinite",
						"renounceRole(bytes32,address)": "infinite",
						"revokeRole(bytes32,address)": "infinite",
						"supportsInterface(bytes4)": "741",
						"transferOwnership(address)": "infinite"
					},
					"internal": {
						"isSameCompany(address,uint256)": "infinite"
					}
				},
				"methodIdentifiers": {
					"ADMIN_ROLE()": "75b238fc",
					"AuthorizeCompanyOwner(address)": "1884eb24",
					"COMPANY_OWNER_ROLE()": "0c5a713d",
					"DEFAULT_ADMIN_ROLE()": "a217fddf",
					"GenerateProduct(string,string,string,uint256,string,string,bool)": "5bb88544",
					"GrantAdminRole(address)": "daf1e5f9",
					"RevokeAdminRole(address)": "6f775aea",
					"RevokeCompanyOwner(address)": "8aa90c83",
					"companyOwners(uint256)": "a93253c1",
					"getRoleAdmin(bytes32)": "248a9ca3",
					"grantRole(bytes32,address)": "2f2ff15d",
					"hasRole(bytes32,address)": "91d14854",
					"initalizeShipment(uint256,string)": "21120f9a",
					"nextProductId()": "4de91a63",
					"owner()": "8da5cb5b",
					"productGenerator(uint256)": "aed4af01",
					"products(uint256)": "7acc0b20",
					"renounceOwnership()": "715018a6",
					"renounceRole(bytes32,address)": "36568abe",
					"revokeRole(bytes32,address)": "d547741f",
					"supportsInterface(bytes4)": "01ffc9a7",
					"transferOwnership(address)": "f2fde38b"
				}
			},
			"storageLayout": {
				"storage": [
					{
						"astId": 387,
						"contract": "Product Tracker Smart Contract/Product Tracker Main/main.test.sol:ProductTracker",
						"label": "_owner",
						"offset": 0,
						"slot": "0",
						"type": "t_address"
					},
					{
						"astId": 26,
						"contract": "Product Tracker Smart Contract/Product Tracker Main/main.test.sol:ProductTracker",
						"label": "_roles",
						"offset": 0,
						"slot": "1",
						"type": "t_mapping(t_bytes32,t_struct(RoleData)21_storage)"
					},
					{
						"astId": 616,
						"contract": "Product Tracker Smart Contract/Product Tracker Main/main.test.sol:ProductTracker",
						"label": "nextProductId",
						"offset": 0,
						"slot": "2",
						"type": "t_uint256"
					},
					{
						"astId": 650,
						"contract": "Product Tracker Smart Contract/Product Tracker Main/main.test.sol:ProductTracker",
						"label": "products",
						"offset": 0,
						"slot": "3",
						"type": "t_mapping(t_uint256,t_struct(Product)632_storage)"
					},
					{
						"astId": 654,
						"contract": "Product Tracker Smart Contract/Product Tracker Main/main.test.sol:ProductTracker",
						"label": "productGenerator",
						"offset": 0,
						"slot": "4",
						"type": "t_mapping(t_uint256,t_address)"
					},
					{
						"astId": 658,
						"contract": "Product Tracker Smart Contract/Product Tracker Main/main.test.sol:ProductTracker",
						"label": "companyOwners",
						"offset": 0,
						"slot": "5",
						"type": "t_mapping(t_uint256,t_address)"
					}
				],
				"types": {
					"t_address": {
						"encoding": "inplace",
						"label": "address",
						"numberOfBytes": "20"
					},
					"t_bool": {
						"encoding": "inplace",
						"label": "bool",
						"numberOfBytes": "1"
					},
					"t_bytes32": {
						"encoding": "inplace",
						"label": "bytes32",
						"numberOfBytes": "32"
					},
					"t_mapping(t_address,t_bool)": {
						"encoding": "mapping",
						"key": "t_address",
						"label": "mapping(address => bool)",
						"numberOfBytes": "32",
						"value": "t_bool"
					},
					"t_mapping(t_bytes32,t_struct(RoleData)21_storage)": {
						"encoding": "mapping",
						"key": "t_bytes32",
						"label": "mapping(bytes32 => struct AccessControl.RoleData)",
						"numberOfBytes": "32",
						"value": "t_struct(RoleData)21_storage"
					},
					"t_mapping(t_uint256,t_address)": {
						"encoding": "mapping",
						"key": "t_uint256",
						"label": "mapping(uint256 => address)",
						"numberOfBytes": "32",
						"value": "t_address"
					},
					"t_mapping(t_uint256,t_struct(Product)632_storage)": {
						"encoding": "mapping",
						"key": "t_uint256",
						"label": "mapping(uint256 => struct ProductTracker.Product)",
						"numberOfBytes": "32",
						"value": "t_struct(Product)632_storage"
					},
					"t_string_storage": {
						"encoding": "bytes",
						"label": "string",
						"numberOfBytes": "32"
					},
					"t_struct(Location)645_storage": {
						"encoding": "inplace",
						"label": "struct ProductTracker.Location",
						"members": [
							{
								"astId": 634,
								"contract": "Product Tracker Smart Contract/Product Tracker Main/main.test.sol:ProductTracker",
								"label": "name",
								"offset": 0,
								"slot": "0",
								"type": "t_string_storage"
							},
							{
								"astId": 636,
								"contract": "Product Tracker Smart Contract/Product Tracker Main/main.test.sol:ProductTracker",
								"label": "custodian",
								"offset": 0,
								"slot": "1",
								"type": "t_string_storage"
							},
							{
								"astId": 638,
								"contract": "Product Tracker Smart Contract/Product Tracker Main/main.test.sol:ProductTracker",
								"label": "departure",
								"offset": 0,
								"slot": "2",
								"type": "t_uint256"
							},
							{
								"astId": 640,
								"contract": "Product Tracker Smart Contract/Product Tracker Main/main.test.sol:ProductTracker",
								"label": "shipped",
								"offset": 0,
								"slot": "3",
								"type": "t_bool"
							},
							{
								"astId": 642,
								"contract": "Product Tracker Smart Contract/Product Tracker Main/main.test.sol:ProductTracker",
								"label": "arrived",
								"offset": 1,
								"slot": "3",
								"type": "t_bool"
							},
							{
								"astId": 644,
								"contract": "Product Tracker Smart Contract/Product Tracker Main/main.test.sol:ProductTracker",
								"label": "arrival",
								"offset": 0,
								"slot": "4",
								"type": "t_uint256"
							}
						],
						"numberOfBytes": "160"
					},
					"t_struct(Product)632_storage": {
						"encoding": "inplace",
						"label": "struct ProductTracker.Product",
						"members": [
							{
								"astId": 618,
								"contract": "Product Tracker Smart Contract/Product Tracker Main/main.test.sol:ProductTracker",
								"label": "productId",
								"offset": 0,
								"slot": "0",
								"type": "t_uint256"
							},
							{
								"astId": 620,
								"contract": "Product Tracker Smart Contract/Product Tracker Main/main.test.sol:ProductTracker",
								"label": "productType",
								"offset": 0,
								"slot": "1",
								"type": "t_string_storage"
							},
							{
								"astId": 622,
								"contract": "Product Tracker Smart Contract/Product Tracker Main/main.test.sol:ProductTracker",
								"label": "brandName",
								"offset": 0,
								"slot": "2",
								"type": "t_string_storage"
							},
							{
								"astId": 624,
								"contract": "Product Tracker Smart Contract/Product Tracker Main/main.test.sol:ProductTracker",
								"label": "productName",
								"offset": 0,
								"slot": "3",
								"type": "t_string_storage"
							},
							{
								"astId": 626,
								"contract": "Product Tracker Smart Contract/Product Tracker Main/main.test.sol:ProductTracker",
								"label": "quantity",
								"offset": 0,
								"slot": "4",
								"type": "t_uint256"
							},
							{
								"astId": 628,
								"contract": "Product Tracker Smart Contract/Product Tracker Main/main.test.sol:ProductTracker",
								"label": "productionDate",
								"offset": 0,
								"slot": "5",
								"type": "t_uint256"
							},
							{
								"astId": 631,
								"contract": "Product Tracker Smart Contract/Product Tracker Main/main.test.sol:ProductTracker",
								"label": "location",
								"offset": 0,
								"slot": "6",
								"type": "t_struct(Location)645_storage"
							}
						],
						"numberOfBytes": "352"
					},
					"t_struct(RoleData)21_storage": {
						"encoding": "inplace",
						"label": "struct AccessControl.RoleData",
						"members": [
							{
								"astId": 18,
								"contract": "Product Tracker Smart Contract/Product Tracker Main/main.test.sol:ProductTracker",
								"label": "hasRole",
								"offset": 0,
								"slot": "0",
								"type": "t_mapping(t_address,t_bool)"
							},
							{
								"astId": 20,
								"contract": "Product Tracker Smart Contract/Product Tracker Main/main.test.sol:ProductTracker",
								"label": "adminRole",
								"offset": 0,
								"slot": "1",
								"type": "t_bytes32"
							}
						],
						"numberOfBytes": "64"
					},
					"t_uint256": {
						"encoding": "inplace",
						"label": "uint256",
						"numberOfBytes": "32"
					}
				}
			},
			"userdoc": {
				"kind": "user",
				"methods": {},
				"version": 1
			}
		}
	}
}